{
  "abi": [
    {
      "inputs": [],
      "stateMutability": "nonpayable",
      "type": "constructor"
    },
    {
      "anonymous": false,
      "inputs": [
        {
          "indexed": true,
          "internalType": "address",
          "name": "owner",
          "type": "address"
        },
        {
          "indexed": true,
          "internalType": "address",
          "name": "approved",
          "type": "address"
        },
        {
          "indexed": true,
          "internalType": "uint256",
          "name": "tokenId",
          "type": "uint256"
        }
      ],
      "name": "Approval",
      "type": "event"
    },
    {
      "anonymous": false,
      "inputs": [
        {
          "indexed": true,
          "internalType": "address",
          "name": "owner",
          "type": "address"
        },
        {
          "indexed": true,
          "internalType": "address",
          "name": "operator",
          "type": "address"
        },
        {
          "indexed": false,
          "internalType": "bool",
          "name": "approved",
          "type": "bool"
        }
      ],
      "name": "ApprovalForAll",
      "type": "event"
    },
    {
      "anonymous": false,
      "inputs": [
        {
          "indexed": true,
          "internalType": "address",
          "name": "_address",
          "type": "address"
        },
        {
          "indexed": false,
          "internalType": "bytes32",
          "name": "name",
          "type": "bytes32"
        }
      ],
      "name": "ChangedName",
      "type": "event"
    },
    {
      "anonymous": false,
      "inputs": [
        {
          "indexed": true,
          "internalType": "address",
          "name": "from",
          "type": "address"
        },
        {
          "indexed": true,
          "internalType": "bytes32",
          "name": "keyword",
          "type": "bytes32"
        },
        {
          "indexed": true,
          "internalType": "address",
          "name": "mention",
          "type": "address"
        },
        {
          "indexed": false,
          "internalType": "uint256",
          "name": "tweeth",
          "type": "uint256"
        },
        {
          "indexed": false,
          "internalType": "uint256",
          "name": "comment_id",
          "type": "uint256"
        }
      ],
      "name": "NewComment",
      "type": "event"
    },
    {
      "anonymous": false,
      "inputs": [
        {
          "indexed": true,
          "internalType": "address",
          "name": "from",
          "type": "address"
        },
        {
          "indexed": true,
          "internalType": "uint256",
          "name": "tweeth",
          "type": "uint256"
        }
      ],
      "name": "NewLike",
      "type": "event"
    },
    {
      "anonymous": false,
      "inputs": [
        {
          "indexed": true,
          "internalType": "address",
          "name": "_address",
          "type": "address"
        },
        {
          "indexed": true,
          "internalType": "bytes32",
          "name": "name",
          "type": "bytes32"
        }
      ],
      "name": "NewProfile",
      "type": "event"
    },
    {
      "anonymous": false,
      "inputs": [
        {
          "indexed": true,
          "internalType": "address",
          "name": "from",
          "type": "address"
        },
        {
          "indexed": true,
          "internalType": "bytes32",
          "name": "keyword",
          "type": "bytes32"
        },
        {
          "indexed": true,
          "internalType": "address",
          "name": "mention",
          "type": "address"
        },
        {
          "indexed": false,
          "internalType": "uint256",
          "name": "tweeth",
          "type": "uint256"
        },
        {
          "indexed": false,
          "internalType": "uint256",
          "name": "share_id",
          "type": "uint256"
        }
      ],
      "name": "NewShare",
      "type": "event"
    },
    {
      "anonymous": false,
      "inputs": [
        {
          "indexed": true,
          "internalType": "address",
          "name": "from",
          "type": "address"
        },
        {
          "indexed": true,
          "internalType": "bytes32",
          "name": "keyword",
          "type": "bytes32"
        },
        {
          "indexed": true,
          "internalType": "address",
          "name": "mention",
          "type": "address"
        },
        {
          "indexed": false,
          "internalType": "uint256",
          "name": "new_tweeth",
          "type": "uint256"
        }
      ],
      "name": "NewTweeth",
      "type": "event"
    },
    {
      "anonymous": false,
      "inputs": [
        {
          "indexed": true,
          "internalType": "address",
          "name": "frollower",
          "type": "address"
        },
        {
          "indexed": true,
          "internalType": "address",
          "name": "following",
          "type": "address"
        }
      ],
      "name": "NowFollows",
      "type": "event"
    },
    {
      "anonymous": false,
      "inputs": [
        {
          "indexed": true,
          "internalType": "address",
          "name": "previousOwner",
          "type": "address"
        },
        {
          "indexed": true,
          "internalType": "address",
          "name": "newOwner",
          "type": "address"
        }
      ],
      "name": "OwnershipTransferred",
      "type": "event"
    },
    {
      "anonymous": false,
      "inputs": [
        {
          "indexed": false,
          "internalType": "address",
          "name": "account",
          "type": "address"
        }
      ],
      "name": "Paused",
      "type": "event"
    },
    {
      "anonymous": false,
      "inputs": [
        {
          "indexed": true,
          "internalType": "address",
          "name": "from",
          "type": "address"
        },
        {
          "indexed": true,
          "internalType": "address",
          "name": "to",
          "type": "address"
        },
        {
          "indexed": true,
          "internalType": "uint256",
          "name": "tokenId",
          "type": "uint256"
        }
      ],
      "name": "Transfer",
      "type": "event"
    },
    {
      "anonymous": false,
      "inputs": [
        {
          "indexed": false,
          "internalType": "address",
          "name": "account",
          "type": "address"
        }
      ],
      "name": "Unpaused",
      "type": "event"
    },
    {
      "inputs": [
        {
          "internalType": "address",
          "name": "to",
          "type": "address"
        },
        {
          "internalType": "uint256",
          "name": "tokenId",
          "type": "uint256"
        }
      ],
      "name": "approve",
      "outputs": [],
      "stateMutability": "nonpayable",
      "type": "function"
    },
    {
      "inputs": [
        {
          "internalType": "address",
          "name": "owner",
          "type": "address"
        }
      ],
      "name": "balanceOf",
      "outputs": [
        {
          "internalType": "uint256",
          "name": "",
          "type": "uint256"
        }
      ],
      "stateMutability": "view",
      "type": "function"
    },
    {
      "inputs": [
        {
          "internalType": "uint256",
          "name": "tokenId",
          "type": "uint256"
        }
      ],
      "name": "burn",
      "outputs": [],
      "stateMutability": "nonpayable",
      "type": "function"
    },
    {
      "inputs": [
        {
          "internalType": "bytes",
          "name": "text",
          "type": "bytes"
        },
        {
          "internalType": "bytes",
          "name": "media_url",
          "type": "bytes"
        },
        {
          "internalType": "uint256",
          "name": "onTweeth",
          "type": "uint256"
        }
      ],
      "name": "comment",
      "outputs": [],
      "stateMutability": "nonpayable",
      "type": "function"
    },
    {
      "inputs": [
        {
          "internalType": "bytes",
          "name": "new_bio",
          "type": "bytes"
        }
      ],
      "name": "editBio",
      "outputs": [],
      "stateMutability": "nonpayable",
      "type": "function"
    },
    {
      "inputs": [
        {
          "internalType": "bytes32",
          "name": "new_name",
          "type": "bytes32"
        }
      ],
      "name": "editName",
      "outputs": [],
      "stateMutability": "nonpayable",
      "type": "function"
    },
    {
      "inputs": [
        {
          "internalType": "bytes",
          "name": "new_pfp",
          "type": "bytes"
        }
      ],
      "name": "editPfp",
      "outputs": [],
      "stateMutability": "nonpayable",
      "type": "function"
    },
    {
      "inputs": [
        {
          "internalType": "address",
          "name": "_address",
          "type": "address"
        }
      ],
      "name": "follow",
      "outputs": [],
      "stateMutability": "nonpayable",
      "type": "function"
    },
    {
      "inputs": [
        {
          "internalType": "uint256",
          "name": "tokenId",
          "type": "uint256"
        }
      ],
      "name": "getApproved",
      "outputs": [
        {
          "internalType": "address",
          "name": "",
          "type": "address"
        }
      ],
      "stateMutability": "view",
      "type": "function"
    },
    {
      "inputs": [
        {
          "internalType": "address",
          "name": "user",
          "type": "address"
        }
      ],
      "name": "getFollowers",
      "outputs": [
        {
          "internalType": "uint160[]",
          "name": "",
          "type": "uint160[]"
        }
      ],
      "stateMutability": "view",
      "type": "function"
    },
    {
      "inputs": [
        {
          "internalType": "address",
          "name": "user",
          "type": "address"
        },
        {
          "internalType": "uint8",
          "name": "page",
          "type": "uint8"
        }
      ],
      "name": "getFollowersPerPage",
      "outputs": [
        {
          "internalType": "uint160[]",
          "name": "",
          "type": "uint160[]"
        }
      ],
      "stateMutability": "view",
      "type": "function"
    },
    {
      "inputs": [
        {
          "internalType": "address",
          "name": "user",
          "type": "address"
        }
      ],
      "name": "getFollowing",
      "outputs": [
        {
          "internalType": "uint160[]",
          "name": "",
          "type": "uint160[]"
        }
      ],
      "stateMutability": "view",
      "type": "function"
    },
    {
      "inputs": [
        {
          "internalType": "address",
          "name": "user",
          "type": "address"
        },
        {
          "internalType": "uint8",
          "name": "page",
          "type": "uint8"
        }
      ],
      "name": "getFollowingPerPage",
      "outputs": [
        {
          "internalType": "uint160[]",
          "name": "",
          "type": "uint160[]"
        }
      ],
      "stateMutability": "view",
      "type": "function"
    },
    {
      "inputs": [
        {
          "internalType": "address",
          "name": "user",
          "type": "address"
        }
      ],
      "name": "getLast100Likes",
      "outputs": [
        {
          "internalType": "uint256[]",
          "name": "",
          "type": "uint256[]"
        }
      ],
      "stateMutability": "view",
      "type": "function"
    },
    {
      "inputs": [
        {
          "internalType": "address",
          "name": "user",
          "type": "address"
        }
      ],
      "name": "getLast100Tweeths",
      "outputs": [
        {
          "internalType": "uint256[]",
          "name": "",
          "type": "uint256[]"
        }
      ],
      "stateMutability": "view",
      "type": "function"
    },
    {
      "inputs": [
        {
          "internalType": "address",
          "name": "user",
          "type": "address"
        }
      ],
      "name": "getLast10Likes",
      "outputs": [
        {
          "internalType": "uint256[]",
          "name": "",
          "type": "uint256[]"
        }
      ],
      "stateMutability": "view",
      "type": "function"
    },
    {
      "inputs": [
        {
          "internalType": "address",
          "name": "user",
          "type": "address"
        }
      ],
      "name": "getLast10Tweeths",
      "outputs": [
        {
          "internalType": "uint256[]",
          "name": "",
          "type": "uint256[]"
        }
      ],
      "stateMutability": "view",
      "type": "function"
    },
    {
      "inputs": [
        {
          "internalType": "address",
          "name": "user",
          "type": "address"
        },
        {
          "internalType": "uint8",
          "name": "amount",
          "type": "uint8"
        }
      ],
      "name": "getLastXLikes",
      "outputs": [
        {
          "internalType": "uint256[]",
          "name": "",
          "type": "uint256[]"
        }
      ],
      "stateMutability": "view",
      "type": "function"
    },
    {
      "inputs": [
        {
          "internalType": "address",
          "name": "user",
          "type": "address"
        },
        {
          "internalType": "uint8",
          "name": "amount",
          "type": "uint8"
        }
      ],
      "name": "getLastXTweeths",
      "outputs": [
        {
          "internalType": "uint256[]",
          "name": "",
          "type": "uint256[]"
        }
      ],
      "stateMutability": "view",
      "type": "function"
    },
    {
      "inputs": [
        {
          "internalType": "address",
          "name": "user",
          "type": "address"
        },
        {
          "internalType": "uint256",
          "name": "page",
          "type": "uint256"
        }
      ],
      "name": "getLikesByPerPage",
      "outputs": [
        {
          "internalType": "uint256[]",
          "name": "",
          "type": "uint256[]"
        }
      ],
      "stateMutability": "view",
      "type": "function"
    },
    {
      "inputs": [
        {
          "internalType": "address",
          "name": "user",
          "type": "address"
        }
      ],
      "name": "getLikesByProfile",
      "outputs": [
        {
          "internalType": "uint256[]",
          "name": "",
          "type": "uint256[]"
        }
      ],
      "stateMutability": "view",
      "type": "function"
    },
    {
      "inputs": [
        {
          "internalType": "address",
          "name": "user",
          "type": "address"
        }
      ],
      "name": "getMentions",
      "outputs": [
        {
          "internalType": "uint256[]",
          "name": "",
          "type": "uint256[]"
        }
      ],
      "stateMutability": "view",
      "type": "function"
    },
    {
      "inputs": [
        {
          "internalType": "address",
          "name": "user",
          "type": "address"
        },
        {
          "internalType": "uint8",
          "name": "page",
          "type": "uint8"
        }
      ],
      "name": "getMentionsPerPage",
      "outputs": [
        {
          "internalType": "uint256[]",
          "name": "",
          "type": "uint256[]"
        }
      ],
      "stateMutability": "view",
      "type": "function"
    },
    {
      "inputs": [
        {
          "internalType": "address",
          "name": "_address",
          "type": "address"
        }
      ],
      "name": "getProfile",
      "outputs": [
        {
          "internalType": "bytes32",
          "name": "",
          "type": "bytes32"
        },
        {
          "internalType": "bytes",
          "name": "",
          "type": "bytes"
        },
        {
          "internalType": "bytes",
          "name": "",
          "type": "bytes"
        }
      ],
      "stateMutability": "view",
      "type": "function"
    },
    {
      "inputs": [
        {
          "internalType": "address",
          "name": "user",
          "type": "address"
        }
      ],
      "name": "getTotalFollowers",
      "outputs": [
        {
          "internalType": "uint256",
          "name": "",
          "type": "uint256"
        }
      ],
      "stateMutability": "view",
      "type": "function"
    },
    {
      "inputs": [
        {
          "internalType": "address",
          "name": "user",
          "type": "address"
        }
      ],
      "name": "getTotalFollowing",
      "outputs": [
        {
          "internalType": "uint256",
          "name": "",
          "type": "uint256"
        }
      ],
      "stateMutability": "view",
      "type": "function"
    },
    {
      "inputs": [
        {
          "internalType": "address",
          "name": "user",
          "type": "address"
        }
      ],
      "name": "getTotalLikesFromProfile",
      "outputs": [
        {
          "internalType": "uint256",
          "name": "",
          "type": "uint256"
        }
      ],
      "stateMutability": "view",
      "type": "function"
    },
    {
      "inputs": [
        {
          "internalType": "address",
          "name": "user",
          "type": "address"
        }
      ],
      "name": "getTotalMentions",
      "outputs": [
        {
          "internalType": "uint256",
          "name": "",
          "type": "uint256"
        }
      ],
      "stateMutability": "view",
      "type": "function"
    },
    {
      "inputs": [
        {
          "internalType": "address",
          "name": "user",
          "type": "address"
        }
      ],
      "name": "getTotalTweethsFromProfile",
      "outputs": [
        {
          "internalType": "uint256",
          "name": "",
          "type": "uint256"
        }
      ],
      "stateMutability": "view",
      "type": "function"
    },
    {
      "inputs": [
        {
          "internalType": "address",
          "name": "user",
          "type": "address"
        }
      ],
      "name": "getTweethsByProfile",
      "outputs": [
        {
          "internalType": "uint256[]",
          "name": "",
          "type": "uint256[]"
        }
      ],
      "stateMutability": "view",
      "type": "function"
    },
    {
      "inputs": [
        {
          "internalType": "address",
          "name": "user",
          "type": "address"
        },
        {
          "internalType": "uint256",
          "name": "page",
          "type": "uint256"
        }
      ],
      "name": "getTweethsPerPage",
      "outputs": [
        {
          "internalType": "uint256[]",
          "name": "",
          "type": "uint256[]"
        }
      ],
      "stateMutability": "view",
      "type": "function"
    },
    {
      "inputs": [
        {
          "internalType": "address",
          "name": "owner",
          "type": "address"
        },
        {
          "internalType": "address",
          "name": "operator",
          "type": "address"
        }
      ],
      "name": "isApprovedForAll",
      "outputs": [
        {
          "internalType": "bool",
          "name": "",
          "type": "bool"
        }
      ],
      "stateMutability": "view",
      "type": "function"
    },
    {
      "inputs": [
        {
          "internalType": "uint256",
          "name": "tweethId",
          "type": "uint256"
        }
      ],
      "name": "like",
      "outputs": [],
      "stateMutability": "nonpayable",
      "type": "function"
    },
    {
      "inputs": [
        {
          "internalType": "bytes32",
          "name": "_name",
          "type": "bytes32"
        },
        {
          "internalType": "bytes",
          "name": "_pfp_url",
          "type": "bytes"
        },
        {
          "internalType": "bytes",
          "name": "_bio",
          "type": "bytes"
        }
      ],
      "name": "mint",
      "outputs": [],
      "stateMutability": "nonpayable",
      "type": "function"
    },
    {
      "inputs": [],
      "name": "name",
      "outputs": [
        {
          "internalType": "string",
          "name": "",
          "type": "string"
        }
      ],
      "stateMutability": "view",
      "type": "function"
    },
    {
      "inputs": [],
      "name": "owner",
      "outputs": [
        {
          "internalType": "address",
          "name": "",
          "type": "address"
        }
      ],
      "stateMutability": "view",
      "type": "function"
    },
    {
      "inputs": [
        {
          "internalType": "uint256",
          "name": "tokenId",
          "type": "uint256"
        }
      ],
      "name": "ownerOf",
      "outputs": [
        {
          "internalType": "address",
          "name": "",
          "type": "address"
        }
      ],
      "stateMutability": "view",
      "type": "function"
    },
    {
      "inputs": [],
      "name": "pageSize",
      "outputs": [
        {
          "internalType": "uint256",
          "name": "",
          "type": "uint256"
        }
      ],
      "stateMutability": "view",
      "type": "function"
    },
    {
      "inputs": [],
      "name": "paused",
      "outputs": [
        {
          "internalType": "bool",
          "name": "",
          "type": "bool"
        }
      ],
      "stateMutability": "view",
      "type": "function"
    },
    {
      "inputs": [
        {
          "internalType": "bytes",
          "name": "text",
          "type": "bytes"
        },
        {
          "internalType": "bytes",
          "name": "media_url",
          "type": "bytes"
        }
      ],
      "name": "post",
      "outputs": [],
      "stateMutability": "nonpayable",
      "type": "function"
    },
    {
      "inputs": [],
      "name": "renounceOwnership",
      "outputs": [],
      "stateMutability": "nonpayable",
      "type": "function"
    },
    {
      "inputs": [
        {
          "internalType": "address",
          "name": "from",
          "type": "address"
        },
        {
          "internalType": "address",
          "name": "to",
          "type": "address"
        },
        {
          "internalType": "uint256",
          "name": "tokenId",
          "type": "uint256"
        }
      ],
      "name": "safeTransferFrom",
      "outputs": [],
      "stateMutability": "nonpayable",
      "type": "function"
    },
    {
      "inputs": [
        {
          "internalType": "address",
          "name": "from",
          "type": "address"
        },
        {
          "internalType": "address",
          "name": "to",
          "type": "address"
        },
        {
          "internalType": "uint256",
          "name": "tokenId",
          "type": "uint256"
        },
        {
          "internalType": "bytes",
          "name": "data",
          "type": "bytes"
        }
      ],
      "name": "safeTransferFrom",
      "outputs": [],
      "stateMutability": "nonpayable",
      "type": "function"
    },
    {
      "inputs": [
        {
          "internalType": "address",
          "name": "operator",
          "type": "address"
        },
        {
          "internalType": "bool",
          "name": "approved",
          "type": "bool"
        }
      ],
      "name": "setApprovalForAll",
      "outputs": [],
      "stateMutability": "nonpayable",
      "type": "function"
    },
    {
      "inputs": [
        {
          "internalType": "uint256",
          "name": "_pageSize",
          "type": "uint256"
        }
      ],
      "name": "setPageSize",
      "outputs": [],
      "stateMutability": "nonpayable",
      "type": "function"
    },
    {
      "inputs": [
        {
          "internalType": "address",
          "name": "_address",
          "type": "address"
        }
      ],
      "name": "setTweetherPostContract",
      "outputs": [],
      "stateMutability": "nonpayable",
      "type": "function"
    },
    {
      "inputs": [
        {
          "internalType": "bytes",
          "name": "text",
          "type": "bytes"
        },
        {
          "internalType": "bytes",
          "name": "media_url",
          "type": "bytes"
        },
        {
          "internalType": "uint256",
          "name": "tweethToShare",
          "type": "uint256"
        }
      ],
      "name": "share",
      "outputs": [],
      "stateMutability": "nonpayable",
      "type": "function"
    },
    {
      "inputs": [
        {
          "internalType": "bytes4",
          "name": "interfaceId",
          "type": "bytes4"
        }
      ],
      "name": "supportsInterface",
      "outputs": [
        {
          "internalType": "bool",
          "name": "",
          "type": "bool"
        }
      ],
      "stateMutability": "view",
      "type": "function"
    },
    {
      "inputs": [],
      "name": "symbol",
      "outputs": [
        {
          "internalType": "string",
          "name": "",
          "type": "string"
        }
      ],
      "stateMutability": "view",
      "type": "function"
    },
    {
      "inputs": [
        {
          "internalType": "uint256",
          "name": "index",
          "type": "uint256"
        }
      ],
      "name": "tokenByIndex",
      "outputs": [
        {
          "internalType": "uint256",
          "name": "",
          "type": "uint256"
        }
      ],
      "stateMutability": "view",
      "type": "function"
    },
    {
      "inputs": [
        {
          "internalType": "address",
          "name": "owner",
          "type": "address"
        },
        {
          "internalType": "uint256",
          "name": "index",
          "type": "uint256"
        }
      ],
      "name": "tokenOfOwnerByIndex",
      "outputs": [
        {
          "internalType": "uint256",
          "name": "",
          "type": "uint256"
        }
      ],
      "stateMutability": "view",
      "type": "function"
    },
    {
      "inputs": [
        {
          "internalType": "uint256",
          "name": "tokenId",
          "type": "uint256"
        }
      ],
      "name": "tokenURI",
      "outputs": [
        {
          "internalType": "string",
          "name": "",
          "type": "string"
        }
      ],
      "stateMutability": "view",
      "type": "function"
    },
    {
      "inputs": [],
      "name": "totalSupply",
      "outputs": [
        {
          "internalType": "uint256",
          "name": "",
          "type": "uint256"
        }
      ],
      "stateMutability": "view",
      "type": "function"
    },
    {
      "inputs": [
        {
          "internalType": "address",
          "name": "from",
          "type": "address"
        },
        {
          "internalType": "address",
          "name": "to",
          "type": "address"
        },
        {
          "internalType": "uint256",
          "name": "tokenId",
          "type": "uint256"
        }
      ],
      "name": "transferFrom",
      "outputs": [],
      "stateMutability": "nonpayable",
      "type": "function"
    },
    {
      "inputs": [
        {
          "internalType": "address",
          "name": "newOwner",
          "type": "address"
        }
      ],
      "name": "transferOwnership",
      "outputs": [],
      "stateMutability": "nonpayable",
      "type": "function"
    },
    {
      "inputs": [
        {
          "internalType": "address",
          "name": "_address",
          "type": "address"
        }
      ],
      "name": "unfollow",
      "outputs": [],
      "stateMutability": "nonpayable",
      "type": "function"
    },
    {
      "inputs": [
        {
          "internalType": "uint256",
          "name": "tweethId",
          "type": "uint256"
        }
      ],
      "name": "unlike",
      "outputs": [],
      "stateMutability": "nonpayable",
      "type": "function"
    }
  ],
  "bytecode": "60806040526064600c553480156200001657600080fd5b506040518060400160405280600381526020016250726f60e81b8152506040518060400160405280600381526020016205046560ec1b815250816000908051906020019062000067929190620000f5565b5080516200007d906001906020840190620000f5565b5050600a805460ff191690555062000095336200009b565b620001d7565b600a80546001600160a01b03838116610100818102610100600160a81b031985161790945560405193909204169182907f8be0079c531659141344cd1fd0a4f28419497f9722a3daafe3b4186f6b6457e090600090a35050565b82805462000103906200019b565b90600052602060002090601f01602090048101928262000127576000855562000172565b82601f106200014257805160ff191683800117855562000172565b8280016001018555821562000172579182015b828111156200017257825182559160200191906001019062000155565b506200018092915062000184565b5090565b5b8082111562000180576000815560010162000185565b600181811c90821680620001b057607f821691505b602082108103620001d157634e487b7160e01b600052602260045260246000fd5b50919050565b6143ec80620001e76000396000f3fe608060405234801561001057600080fd5b50600436106103835760003560e01c8063715018a6116101de578063aaa6c4b01161010f578063d00b9c47116100ad578063e985e9c51161007c578063e985e9c51461082c578063ea58bc0414610868578063f2fde38b1461087b578063fd6d2fd31461088e57600080fd5b8063d00b9c47146107c7578063d8236dff146107f3578063e7673f7814610806578063e82935da1461081957600080fd5b8063c2fe2022116100e9578063c2fe202214610762578063c87b56dd14610775578063c962e1f514610788578063cdfe8b38146107b457600080fd5b8063aaa6c4b014610729578063b88d4fde1461073c578063c10834671461074f57600080fd5b8063904b17011161017c57806395d89b411161015657806395d89b41146106e8578063a22cb465146106f0578063a496c54014610703578063a8c7fb491461071657600080fd5b8063904b1701146106a057806392e2e88d146106b357806394490e9a146106df57600080fd5b806386ac1fbe116101b857806386ac1fbe14610644578063881e3558146106575780638da5cb5b1461066a5780638f7a56ef1461068057600080fd5b8063715018a61461061657806372efd4051461061e57806374d21ae01461063157600080fd5b806339765581116102b857806355e6a8061161025657806369becff61161023057806369becff6146105ca5780636a42f348146105dd5780636a7a1654146105f057806370a082311461060357600080fd5b806355e6a806146105805780635c975abb146105ac5780636352211e146105b757600080fd5b806342966c681161029257806342966c68146105345780634dbf27cc146105475780634f6ccce71461055a57806351bf2f191461056d57600080fd5b806339765581146104fb5780633f9575321461050e57806342842e0e1461052157600080fd5b80630f53a470116103255780632067b1cb116102ff5780632067b1cb146104af57806323b872dd146104c257806327d00fd0146104d55780632f745c59146104e857600080fd5b80630f53a4701461047257806318160ddd146104945780631b19327c1461049c57600080fd5b806306fdde031161036157806306fdde03146103ff578063081812fc14610414578063095ea7b31461043f5780630d264d461461045257600080fd5b8063015a4ead1461038857806301ffc9a71461039d578063043c8e29146103c5575b600080fd5b61039b610396366004613ac4565b6108a1565b005b6103b06103ab366004613af5565b6108bc565b60405190151581526020015b60405180910390f35b6103f16103d3366004613ac4565b6001600160a01b03166000908152600d602052604090206005015490565b6040519081526020016103bc565b610407610902565b6040516103bc9190613b6a565b610427610422366004613b7d565b610994565b6040516001600160a01b0390911681526020016103bc565b61039b61044d366004613b96565b6109bb565b610465610460366004613ac4565b610ad0565b6040516103bc9190613bc0565b610485610480366004613ac4565b610add565b6040516103bc93929190613c04565b6008546103f1565b6104656104aa366004613ac4565b610c31565b6104656104bd366004613ac4565b610c3e565b61039b6104d0366004613c39565b610cad565b61039b6104e3366004613b7d565b610cdf565b6103f16104f6366004613b96565b610cec565b61039b610509366004613b7d565b610d82565b61046561051c366004613c75565b610df0565b61039b61052f366004613c39565b610f3e565b61039b610542366004613b7d565b610f59565b61039b610555366004613ac4565b610f8a565b6103f1610568366004613b7d565b610fd1565b61039b61057b366004613d55565b611064565b6103f161058e366004613ac4565b6001600160a01b03166000908152600d602052604090206003015490565b600a5460ff166103b0565b6104276105c5366004613b7d565b61119b565b6104656105d8366004613b96565b6111fb565b6104656105eb366004613ac4565b611301565b61039b6105fe366004613d55565b61130e565b6103f1610611366004613ac4565b611434565b61039b6114ba565b61039b61062c366004613dc2565b6114ce565b61039b61063f366004613b7d565b6115fa565b61039b610652366004613e26565b61190a565b610465610665366004613ac4565b611946565b600a5461010090046001600160a01b0316610427565b61069361068e366004613c75565b611953565b6040516103bc9190613e5b565b6104656106ae366004613ac4565b611a74565b6103f16106c1366004613ac4565b6001600160a01b03166000908152600d602052604090206009015490565b6103f1600c5481565b610407611ae1565b61039b6106fe366004613e9c565b611af0565b610465610711366004613b96565b611aff565b610465610724366004613c75565b611bfb565b61039b610737366004613ecd565b611cfc565b61039b61074a366004613f3a565b611d9c565b61046561075d366004613c75565b611dd4565b610693610770366004613ac4565b611f15565b610407610783366004613b7d565b611f8d565b6103f1610796366004613ac4565b6001600160a01b03166000908152600d602052604090206007015490565b6106936107c2366004613c75565b612001565b6103f16107d5366004613ac4565b6001600160a01b03166000908152600d60205260409020600b015490565b610693610801366004613ac4565b6121ac565b61039b610814366004613ac4565b612223565b61039b610827366004613b7d565b61224d565b6103b061083a366004613fa2565b6001600160a01b03918216600090815260056020908152604080832093909416825291909152205460ff1690565b61039b610876366004613e26565b612362565b61039b610889366004613ac4565b61239e565b61046561089c366004613ac4565b612414565b33816108ad8282612481565b6108b78282612748565b505050565b60006001600160e01b031982166380ac58cd60e01b14806108ed57506001600160e01b03198216635b5e139f60e01b145b806108fc57506108fc8261290c565b92915050565b60606000805461091190613fd5565b80601f016020809104026020016040519081016040528092919081815260200182805461093d90613fd5565b801561098a5780601f1061095f5761010080835404028352916020019161098a565b820191906000526020600020905b81548152906001019060200180831161096d57829003601f168201915b5050505050905090565b600061099f82612931565b506000908152600460205260409020546001600160a01b031690565b60006109c68261119b565b9050806001600160a01b0316836001600160a01b031603610a385760405162461bcd60e51b815260206004820152602160248201527f4552433732313a20617070726f76616c20746f2063757272656e74206f776e656044820152603960f91b60648201526084015b60405180910390fd5b336001600160a01b0382161480610a545750610a54813361083a565b610ac65760405162461bcd60e51b815260206004820152603e60248201527f4552433732313a20617070726f76652063616c6c6572206973206e6f7420746f60448201527f6b656e206f776e6572206e6f7220617070726f76656420666f7220616c6c00006064820152608401610a2f565b6108b78383612981565b60606108fc826064610df0565b6001600160a01b0381166000818152600d6020526040812080546001820180549394606094859491939291600201908290610b1790613fd5565b80601f0160208091040260200160405190810160405280929190818152602001828054610b4390613fd5565b8015610b905780601f10610b6557610100808354040283529160200191610b90565b820191906000526020600020905b815481529060010190602001808311610b7357829003601f168201915b50505050509150808054610ba390613fd5565b80601f0160208091040260200160405190810160405280929190818152602001828054610bcf90613fd5565b8015610c1c5780601f10610bf157610100808354040283529160200191610c1c565b820191906000526020600020905b815481529060010190602001808311610bff57829003601f168201915b50505050509050935093509350509193909250565b60606108fc826064611dd4565b6001600160a01b0381166000908152600d6020908152604091829020600b01805483518184028101840190945280845260609392830182828015610ca157602002820191906000526020600020905b815481526020019060010190808311610c8d575b50505050509050919050565b610cb8335b826129ef565b610cd45760405162461bcd60e51b8152600401610a2f9061400f565b6108b7838383612a6e565b610ce7612c15565b600c55565b6000610cf783611434565b8210610d595760405162461bcd60e51b815260206004820152602b60248201527f455243373231456e756d657261626c653a206f776e657220696e646578206f7560448201526a74206f6620626f756e647360a81b6064820152608401610a2f565b506001600160a01b03919091166000908152600660209081526040808320938352929052205490565b6000610d8c612c75565b6001600160a01b0381166000908152600d602052604090208390559050336001600160a01b03167f2f3cf28556634369f653461c1f4759404bb6375e97db966b28008cd7bd310c7583604051610de491815260200190565b60405180910390a25050565b6001600160a01b0382166000908152600d60205260409020600901546060908360ff8416821115610ecf57606060005b8560ff168160ff161015610ec457600060ff8216610e3f866001614073565b610e499190614073565b1115610ec4576001600160a01b0383166000908152600d60205260409020600901610e7760ff831686614073565b81548110610e8757610e8761408a565b9060005260206000200154828260ff1681518110610ea757610ea761408a565b602090810291909101015280610ebc816140a0565b915050610e20565b5092506108fc915050565b6001600160a01b0385166000908152600d602090815260409182902060090180548351818402810184019094528084529091830182828015610f3057602002820191906000526020600020905b815481526020019060010190808311610f1c575b5050505050925050506108fc565b6108b783838360405180602001604052806000815250611d9c565b610f6233610cb2565b610f7e5760405162461bcd60e51b8152600401610a2f9061400f565b610f8781612cd2565b50565b3381610f968282612d79565b6040516001600160a01b0384169033907f0f792c15b26c5388caa4745351a64b33589bd584777d9d18ffd61c19579d56fa90600090a3505050565b6000610fdc60085490565b821061103f5760405162461bcd60e51b815260206004820152602c60248201527f455243373231456e756d657261626c653a20676c6f62616c20696e646578206f60448201526b7574206f6620626f756e647360a01b6064820152608401610a2f565b600882815481106110525761105261408a565b90600052602060002001549050919050565b600b546001600160a01b031661108c5760405162461bcd60e51b8152600401610a2f906140bf565b6000611096612c75565b600b546040516317f52fd760e21b81529192506000916001600160a01b0390911690635fd4bf5c906110d59088908890889060029089906004016140f4565b6020604051808303816000875af11580156110f4573d6000803e3d6000fd5b505050506040513d601f19601f820116820180604052508101906111189190614143565b90506111248282612e73565b6000806111318784612eb7565b91509150816001600160a01b0316816111473390565b6001600160a01b03167f4f364c5612ff56c08fa0772d758655ad9f8145d1f867e85bf7ca35e0d4cc4f95888760405161118a929190918252602082015260400190565b60405180910390a450505050505050565b6000818152600260205260408120546001600160a01b0316806108fc5760405162461bcd60e51b8152602060048201526018602482015277115490cdcc8c4e881a5b9d985b1a59081d1bdad95b88125160421b6044820152606401610a2f565b6001600160a01b0382166000908152600d6020526040812060090154606091849083905b600c548160ff1610156112f75760008160ff1687600c54611240919061415c565b61124b876001614073565b6112559190614073565b61125f9190614073565b11156112f7576001600160a01b0383166000908152600d60205260409020600c5460099091019060ff83169061129690899061415c565b6112a09087614073565b6112aa9190614073565b815481106112ba576112ba61408a565b9060005260206000200154828260ff16815181106112da576112da61408a565b6020908102919091010152806112ef816140a0565b91505061121f565b5095945050505050565b60606108fc82600a610df0565b600b546001600160a01b03166113365760405162461bcd60e51b8152600401610a2f906140bf565b6000611340612c75565b600b546040516317f52fd760e21b81529192506000916001600160a01b0390911690635fd4bf5c9061137f9088908890889060019089906004016140f4565b6020604051808303816000875af115801561139e573d6000803e3d6000fd5b505050506040513d601f19601f820116820180604052508101906113c29190614143565b90506113ce8282612e73565b6000806113db8784612eb7565b91509150816001600160a01b0316816113f13390565b6001600160a01b03167f924793005f4039ce0bd7a2125c91b09615ed7d350ffa629a063a8e77958a25f6888760405161118a929190918252602082015260400190565b60006001600160a01b03821661149e5760405162461bcd60e51b815260206004820152602960248201527f4552433732313a2061646472657373207a65726f206973206e6f7420612076616044820152683634b21037bbb732b960b91b6064820152608401610a2f565b506001600160a01b031660009081526003602052604090205490565b6114c2612c15565b6114cc6000612f6c565b565b600b546001600160a01b03166114f65760405162461bcd60e51b8152600401610a2f906140bf565b6000611500612c75565b600b546040516317f52fd760e21b81529192506000916001600160a01b0390911690635fd4bf5c9061153e90879087908690819089906004016140f4565b6020604051808303816000875af115801561155d573d6000803e3d6000fd5b505050506040513d601f19601f820116820180604052508101906115819190614143565b905061158d8282612e73565b60008061159a8684612eb7565b91509150816001600160a01b0316816115b03390565b6001600160a01b03167fceab611ec97dcf6711cde7fc72fd3bd8a51d6756b06e25f15be4bf976903f790866040516115ea91815260200190565b60405180910390a4505050505050565b600b546001600160a01b03166116225760405162461bcd60e51b8152600401610a2f906140bf565b600061162c612c75565b6001600160a01b0381166000908152600d60205260409020600701549091506116925760405162461bcd60e51b8152602060048201526018602482015277165bdd48191a591b9d081b1a5ad9481d1a1a5cc81c1bdcdd60421b6044820152606401610a2f565b6001600160a01b0381166000818152600d6020818152604080842087855260088101835290842054948452919052600701549082900361174b576001600160a01b0383166000908152600d6020526040812060070180548692906116f8576116f861408a565b90600052602060002001541461174b5760405162461bcd60e51b8152602060048201526018602482015277165bdd48191a591b9d081b1a5ad9481d1a1a5cc81c1bdcdd60421b6044820152606401610a2f565b611756600182614073565b821461183d576001600160a01b0383166000908152600d6020526040812083916008820191600701611789600186614073565b815481106117995761179961408a565b600091825260208083209091015483528281019390935260409182018120939093556001600160a01b0386168352600d90915290206007016117dc600183614073565b815481106117ec576117ec61408a565b9060005260206000200154600d6000856001600160a01b03166001600160a01b0316815260200190815260200160002060070183815481106118305761183061408a565b6000918252602090912001555b6001600160a01b0383166000908152600d602052604090206007018054806118675761186761417b565b6000828152602080822060001990840181018390559092019092556001600160a01b03858116808452600d8352604080852089865260080190935282842093909355600b549151635678132560e01b81526004810188905260248101939093521690635678132590604401600060405180830381600087803b1580156118ec57600080fd5b505af1158015611900573d6000803e3d6000fd5b5050505050505050565b6000611914612c75565b6001600160a01b0381166000908152600d6020908152604090912084519293506108b792600290910191850190613a14565b60606108fc82600a611dd4565b6001600160a01b0382166000908152600d6020526040812060030154606091849083905b600c548160ff1610156112f75760008160ff168760ff16600c5461199b919061415c565b6119a6876001614073565b6119b09190614073565b6119ba9190614073565b11156112f7576001600160a01b0383166000908152600d60205260409020600c5460039091019060ff808416916119f3918a169061415c565b6119fd9087614073565b611a079190614073565b81548110611a1757611a1761408a565b9060005260206000200160009054906101000a90046001600160a01b0316828260ff1681518110611a4a57611a4a61408a565b6001600160a01b039092166020928302919091019091015280611a6c816140a0565b915050611977565b6001600160a01b0381166000908152600d6020908152604091829020600901805483518184028101840190945280845260609392830182828015610ca15760200282019190600052602060002090815481526020019060010190808311610c8d5750505050509050919050565b60606001805461091190613fd5565b611afb338383612fc6565b5050565b6001600160a01b0382166000908152600d6020526040812060070154606091849083905b600c548160ff1610156112f75760008160ff1687600c54611b44919061415c565b611b4f876001614073565b611b599190614073565b611b639190614073565b11156112f7576001600160a01b0383166000908152600d60205260409020600c5460079091019060ff831690611b9a90899061415c565b611ba49087614073565b611bae9190614073565b81548110611bbe57611bbe61408a565b9060005260206000200154828260ff1681518110611bde57611bde61408a565b602090810291909101015280611bf3816140a0565b915050611b23565b6001600160a01b0382166000908152600d60205260408120600b0154606091849083905b600c548160ff1610156112f75760008160ff168760ff16600c54611c43919061415c565b611c4e876001614073565b611c589190614073565b611c629190614073565b11156112f7576001600160a01b0383166000908152600d60205260409020600c54600b9091019060ff80841691611c9b918a169061415c565b611ca59087614073565b611caf9190614073565b81548110611cbf57611cbf61408a565b9060005260206000200154828260ff1681518110611cdf57611cdf61408a565b602090810291909101015280611cf4816140a0565b915050611c1f565b336000818152600d602090815260409091208581558451611d2592600190920191860190613a14565b506001600160a01b0381166000908152600d602090815260409091208351611d5592600290920191850190613a14565b50611d6933826001600160a01b0316613094565b604051849033907f508d82227db28d6b1bdbd8610867f3407456be7471ed967f765033261a00209b90600090a350505050565b611da633836129ef565b611dc25760405162461bcd60e51b8152600401610a2f9061400f565b611dce848484846131d3565b50505050565b6001600160a01b0382166000908152600d60205260409020600701546060908360ff8416821115611ea857606060005b8560ff168160ff161015610ec457600060ff8216611e23866001614073565b611e2d9190614073565b1115610ec4576001600160a01b0383166000908152600d60205260409020600701611e5b60ff831686614073565b81548110611e6b57611e6b61408a565b9060005260206000200154828260ff1681518110611e8b57611e8b61408a565b602090810291909101015280611ea0816140a0565b915050611e04565b6001600160a01b0385166000908152600d602090815260409182902060070180548351818402810184019094528084529091830182828015610f305760200282019190600052602060002090815481526020019060010190808311610f1c575050505050925050506108fc565b6001600160a01b0381166000908152600d6020908152604091829020600301805483518184028101840190945280845260609392830182828015610ca157602002820191906000526020600020905b81546001600160a01b03168152600190910190602001808311611f645750505050509050919050565b6060611f9882612931565b6000611faf60408051602081019091526000815290565b90506000815111611fcf5760405180602001604052806000815250611ffa565b80611fd984613206565b604051602001611fea929190614191565b6040516020818303038152906040525b9392505050565b6001600160a01b0382166000908152600d6020526040812060050154600c54606092859167ffffffffffffffff81111561203d5761203d613cb2565b604051908082528060200260200182016040528015612066578160200160208202803683370190505b50905060005b600c548160ff1610156112f75760008160ff168760ff16600c54612090919061415c565b61209b876001614073565b6120a59190614073565b6120af9190614073565b11156112f7576001600160a01b0383166000908152600d60205260409020600c5460059091019060ff808416916120e8918a169061415c565b6120f29087614073565b6120fc9190614073565b8154811061210c5761210c61408a565b9060005260206000200160009054906101000a90046001600160a01b0316828260ff168151811061213f5761213f61408a565b6001600160a01b0390921660209283029190910190910152600c5460029060ff8084169161216f918a169061415c565b61217a876001614073565b6121849190614073565b61218e9190614073565b600003612199575060035b50806121a4816140a0565b91505061206c565b6001600160a01b0381166000908152600d6020908152604091829020600501805483518184028101840190945280845260609392830182828015610ca1576020028201919060005260206000209081546001600160a01b03168152600190910190602001808311611f645750505050509050919050565b61222b612c15565b600b80546001600160a01b0319166001600160a01b0392909216919091179055565b600b546001600160a01b03166122755760405162461bcd60e51b8152600401610a2f906140bf565b600061227f612c75565b6001600160a01b038181166000818152600d602081815260408084206007810180548b875260089092018452828620829055938352600181018455928452922001869055600b549051629a6f9760e31b81526004810187905260248101929092529293509116906304d37cb890604401600060405180830381600087803b15801561230957600080fd5b505af115801561231d573d6000803e3d6000fd5b50505050816123293390565b6001600160a01b03167f4ead190c1ee5c17d621c4e7bc97db0676f08a4733c66c3a3f9deae9c9bbe4b7960405160405180910390a35050565b600061236c612c75565b6001600160a01b0381166000908152600d6020908152604090912084519293506108b792600190910191850190613a14565b6123a6612c15565b6001600160a01b03811661240b5760405162461bcd60e51b815260206004820152602660248201527f4f776e61626c653a206e6577206f776e657220697320746865207a65726f206160448201526564647265737360d01b6064820152608401610a2f565b610f8781612f6c565b6001600160a01b0381166000908152600d6020908152604091829020600701805483518184028101840190945280845260609392830182828015610ca15760200282019190600052602060002090815481526020019060010190808311610c8d5750505050509050919050565b81612494816001600160a01b0316613307565b6124b05760405162461bcd60e51b8152600401610a2f906141c0565b816124c3816001600160a01b0316613307565b6124df5760405162461bcd60e51b8152600401610a2f906141c0565b6001600160a01b0384166000908152600d60205260409020600501546125175760405162461bcd60e51b8152600401610a2f906141f7565b6001600160a01b038085166000818152600d6020818152604080842095891684526006860182528320549383525260059092015490918290036125b7576001600160a01b038681166000908152600d602052604081206005018054928816929091906125855761258561408a565b6000918252602090912001546001600160a01b0316146125b75760405162461bcd60e51b8152600401610a2f906141f7565b6125c2600182614073565b82146126ca576001600160a01b0386166000908152600d60205260408120839160068201916005016125f5600186614073565b815481106126055761260561408a565b60009182526020808320909101546001600160a01b0390811684528382019490945260409283018220949094559189168252600d9092522060050161264b600183614073565b8154811061265b5761265b61408a565b60009182526020808320909101546001600160a01b038981168452600d909252604090922060050180549190921691908490811061269b5761269b61408a565b9060005260206000200160006101000a8154816001600160a01b0302191690836001600160a01b031602179055505b6001600160a01b0386166000908152600d602052604090206005018054806126f4576126f461417b565b60008281526020808220830160001990810180546001600160a01b03191690559092019092556001600160a01b039788168252600d8152604080832097909816825260069096019095525050509181205550565b6001600160a01b038082166000818152600d602081815260408084209588168452600486018252832054939092529052600390910154612789600182614073565b8214612891576001600160a01b0383166000908152600d60205260408120839160048201916003016127bc600186614073565b815481106127cc576127cc61408a565b60009182526020808320909101546001600160a01b0390811684528382019490945260409283018220949094559186168252600d90925220600301612812600183614073565b815481106128225761282261408a565b60009182526020808320909101546001600160a01b038681168452600d90925260409092206003018054919092169190849081106128625761286261408a565b9060005260206000200160006101000a8154816001600160a01b0302191690836001600160a01b031602179055505b6001600160a01b0383166000908152600d602052604090206003018054806128bb576128bb61417b565b60008281526020808220830160001990810180546001600160a01b03191690559092019092556001600160a01b039485168252600d8152604080832096909516825260049095019094525050812055565b60006001600160e01b0319821663780e9d6360e01b14806108fc57506108fc82613324565b61293a81613307565b610f875760405162461bcd60e51b8152602060048201526018602482015277115490cdcc8c4e881a5b9d985b1a59081d1bdad95b88125160421b6044820152606401610a2f565b600081815260046020526040902080546001600160a01b0319166001600160a01b03841690811790915581906129b68261119b565b6001600160a01b03167f8c5be1e5ebec7d5bd14f71427d1e84f3dd0314c0f7b2291e5b200ac8c7c3b92560405160405180910390a45050565b6000806129fb8361119b565b9050806001600160a01b0316846001600160a01b03161480612a4257506001600160a01b0380821660009081526005602090815260408083209388168352929052205460ff165b80612a665750836001600160a01b0316612a5b84610994565b6001600160a01b0316145b949350505050565b826001600160a01b0316612a818261119b565b6001600160a01b031614612ae55760405162461bcd60e51b815260206004820152602560248201527f4552433732313a207472616e736665722066726f6d20696e636f72726563742060448201526437bbb732b960d91b6064820152608401610a2f565b6001600160a01b038216612b475760405162461bcd60e51b8152602060048201526024808201527f4552433732313a207472616e7366657220746f20746865207a65726f206164646044820152637265737360e01b6064820152608401610a2f565b612b52838383613374565b612b5d600082612981565b6001600160a01b0383166000908152600360205260408120805460019290612b86908490614073565b90915550506001600160a01b0382166000908152600360205260408120805460019290612bb4908490614239565b909155505060008181526002602052604080822080546001600160a01b0319166001600160a01b0386811691821790925591518493918716917fddf252ad1be2c89b69c2b068fc378daa952ba7f163c4a11628f55a4df523b3ef91a4505050565b600a546001600160a01b036101009091041633146114cc5760405162461bcd60e51b815260206004820181905260248201527f4f776e61626c653a2063616c6c6572206973206e6f7420746865206f776e65726044820152606401610a2f565b600033612c8181613307565b612ccd5760405162461bcd60e51b815260206004820152601d60248201527f6164647265737320646f65736e74206861766520612070726f66696c650000006044820152606401610a2f565b919050565b6000612cdd8261119b565b9050612ceb81600084613374565b612cf6600083612981565b6001600160a01b0381166000908152600360205260408120805460019290612d1f908490614073565b909155505060008281526002602052604080822080546001600160a01b0319169055518391906001600160a01b038416907fddf252ad1be2c89b69c2b068fc378daa952ba7f163c4a11628f55a4df523b3ef908390a45050565b81612d8c816001600160a01b0316613307565b612da85760405162461bcd60e51b8152600401610a2f906141c0565b81612dbb816001600160a01b0316613307565b612dd75760405162461bcd60e51b8152600401610a2f906141c0565b50506001600160a01b039182166000818152600d6020818152604080842060058082018054989099168087526006909201845282862088905584845260018089018a5598865283862090970180546001600160a01b031990811683179091559085528185209687015486865260048801845291852091909155918152600390940180549586018155825292902090920180549091169091179055565b6001600160a01b039091166000908152600d60208181526040808420600981018054878752600a909201845291852081905592825260018301815583529091200155565b6000806000612edf85604051806040016040528060028152602001608160f61b8152506133e6565b90506000612f078660405180604001604052806002815260200161202360f01b8152506133e6565b612f1090614251565b90506000612f1d83613595565b6001600160a01b0381166000908152600d60208181526040808420600b810180548d8752600c909201845291852081905592825260018301815583529091200196909655509395939450505050565b600a80546001600160a01b03838116610100818102610100600160a81b031985161790945560405193909204169182907f8be0079c531659141344cd1fd0a4f28419497f9722a3daafe3b4186f6b6457e090600090a35050565b816001600160a01b0316836001600160a01b0316036130275760405162461bcd60e51b815260206004820152601960248201527f4552433732313a20617070726f766520746f2063616c6c6572000000000000006044820152606401610a2f565b6001600160a01b03838116600081815260056020908152604080832094871680845294825291829020805460ff191686151590811790915591519182527f17307eab39ab6107e8899845ad3d59bd9653f200f220920489ca2b5937696c31910160405180910390a3505050565b6001600160a01b0382166130ea5760405162461bcd60e51b815260206004820181905260248201527f4552433732313a206d696e7420746f20746865207a65726f20616464726573736044820152606401610a2f565b6130f381613307565b156131405760405162461bcd60e51b815260206004820152601c60248201527f4552433732313a20746f6b656e20616c7265616479206d696e746564000000006044820152606401610a2f565b61314c60008383613374565b6001600160a01b0382166000908152600360205260408120805460019290613175908490614239565b909155505060008181526002602052604080822080546001600160a01b0319166001600160a01b03861690811790915590518392907fddf252ad1be2c89b69c2b068fc378daa952ba7f163c4a11628f55a4df523b3ef908290a45050565b6131de848484612a6e565b6131ea848484846135f4565b611dce5760405162461bcd60e51b8152600401610a2f90614275565b60608160000361322d5750506040805180820190915260018152600360fc1b602082015290565b8160005b81156132575780613241816142c7565b91506132509050600a836142f6565b9150613231565b60008167ffffffffffffffff81111561327257613272613cb2565b6040519080825280601f01601f19166020018201604052801561329c576020820181803683370190505b5090505b8415612a66576132b1600183614073565b91506132be600a8661430a565b6132c9906030614239565b60f81b8183815181106132de576132de61408a565b60200101906001600160f81b031916908160001a905350613300600a866142f6565b94506132a0565b6000908152600260205260409020546001600160a01b0316151590565b60006001600160e01b031982166380ac58cd60e01b148061335557506001600160e01b03198216635b5e139f60e01b145b806108fc57506301ffc9a760e01b6001600160e01b03198316146108fc565b600a5460ff16156133db5760405162461bcd60e51b815260206004820152602b60248201527f4552433732315061757361626c653a20746f6b656e207472616e73666572207760448201526a1a1a5b19481c185d5cd95960aa1b6064820152608401610a2f565b6108b78383836136f5565b60408051602a80825260608281019093528391600091602082018180368337019050509050600080805b8451885161341e9190614073565b8111613589576001826134a85760005b86518110156134a6578681815181106134495761344961408a565b01602001516001600160f81b0319168a6134638386614239565b815181106134735761347361408a565b01602001516001600160f81b0319161461349057600091506134a6565b829450808061349e906142c7565b91505061342e565b505b801561357657826134bc5760019250613576565b600160fd1b896134cd846001614239565b815181106134dd576134dd61408a565b01602001516001600160f81b03191614806135015750602a6134ff8584614073565b115b1561350c5750613589565b88613518836001614239565b815181106135285761352861408a565b01602001516001600160f81b0319168560016135448786614073565b61354e9190614073565b8151811061355e5761355e61408a565b60200101906001600160f81b031916908160001a9053505b5080613581816142c7565b915050613410565b50919695505050505050565b600080805b83518110156135ed57600482901b91506135d38482815181106135bf576135bf61408a565b01602001516001600160f81b0319166137ad565b60ff168217915080806135e5906142c7565b91505061359a565b5092915050565b60006001600160a01b0384163b156136ea57604051630a85bd0160e11b81526001600160a01b0385169063150b7a029061363890339089908890889060040161431e565b6020604051808303816000875af1925050508015613673575060408051601f3d908101601f1916820190925261367091810190614351565b60015b6136d0573d8080156136a1576040519150601f19603f3d011682016040523d82523d6000602084013e6136a6565b606091505b5080516000036136c85760405162461bcd60e51b8152600401610a2f90614275565b805181602001fd5b6001600160e01b031916630a85bd0160e11b149050612a66565b506001949350505050565b6001600160a01b0383166137505761374b81600880546000838152600960205260408120829055600182018355919091527ff3f7a9fe364faab93b216da50a3214154f22a0a2b415b23a84c8169e8b636ee30155565b613773565b816001600160a01b0316836001600160a01b031614613773576137738382613884565b6001600160a01b03821661378a576108b781613921565b826001600160a01b0316826001600160a01b0316146108b7576108b782826139d0565b6000600360fc1b6001600160f81b03198316108015906137db5750603960f81b6001600160f81b0319831611155b156137ef576108fc603060f884901c61436e565b604160f81b6001600160f81b031983161080159061381b5750602360f91b6001600160f81b0319831611155b1561383b57604161383160f884901c600a614391565b6108fc919061436e565b606160f81b6001600160f81b03198316108015906138675750603360f91b6001600160f81b0319831611155b1561387d57606161383160f884901c600a614391565b5060f81c90565b6000600161389184611434565b61389b9190614073565b6000838152600760205260409020549091508082146138ee576001600160a01b03841660009081526006602090815260408083208584528252808320548484528184208190558352600790915290208190555b5060009182526007602090815260408084208490556001600160a01b039094168352600681528383209183525290812055565b60085460009061393390600190614073565b6000838152600960205260408120546008805493945090928490811061395b5761395b61408a565b90600052602060002001549050806008838154811061397c5761397c61408a565b60009182526020808320909101929092558281526009909152604080822084905585825281205560088054806139b4576139b461417b565b6001900381819060005260206000200160009055905550505050565b60006139db83611434565b6001600160a01b039093166000908152600660209081526040808320868452825280832085905593825260079052919091209190915550565b828054613a2090613fd5565b90600052602060002090601f016020900481019282613a425760008555613a88565b82601f10613a5b57805160ff1916838001178555613a88565b82800160010185558215613a88579182015b82811115613a88578251825591602001919060010190613a6d565b50613a94929150613a98565b5090565b5b80821115613a945760008155600101613a99565b80356001600160a01b0381168114612ccd57600080fd5b600060208284031215613ad657600080fd5b611ffa82613aad565b6001600160e01b031981168114610f8757600080fd5b600060208284031215613b0757600080fd5b8135611ffa81613adf565b60005b83811015613b2d578181015183820152602001613b15565b83811115611dce5750506000910152565b60008151808452613b56816020860160208601613b12565b601f01601f19169290920160200192915050565b602081526000611ffa6020830184613b3e565b600060208284031215613b8f57600080fd5b5035919050565b60008060408385031215613ba957600080fd5b613bb283613aad565b946020939093013593505050565b6020808252825182820181905260009190848201906040850190845b81811015613bf857835183529284019291840191600101613bdc565b50909695505050505050565b838152606060208201526000613c1d6060830185613b3e565b8281036040840152613c2f8185613b3e565b9695505050505050565b600080600060608486031215613c4e57600080fd5b613c5784613aad565b9250613c6560208501613aad565b9150604084013590509250925092565b60008060408385031215613c8857600080fd5b613c9183613aad565b9150602083013560ff81168114613ca757600080fd5b809150509250929050565b634e487b7160e01b600052604160045260246000fd5b600082601f830112613cd957600080fd5b813567ffffffffffffffff80821115613cf457613cf4613cb2565b604051601f8301601f19908116603f01168101908282118183101715613d1c57613d1c613cb2565b81604052838152866020858801011115613d3557600080fd5b836020870160208301376000602085830101528094505050505092915050565b600080600060608486031215613d6a57600080fd5b833567ffffffffffffffff80821115613d8257600080fd5b613d8e87838801613cc8565b94506020860135915080821115613da457600080fd5b50613db186828701613cc8565b925050604084013590509250925092565b60008060408385031215613dd557600080fd5b823567ffffffffffffffff80821115613ded57600080fd5b613df986838701613cc8565b93506020850135915080821115613e0f57600080fd5b50613e1c85828601613cc8565b9150509250929050565b600060208284031215613e3857600080fd5b813567ffffffffffffffff811115613e4f57600080fd5b612a6684828501613cc8565b6020808252825182820181905260009190848201906040850190845b81811015613bf85783516001600160a01b031683529284019291840191600101613e77565b60008060408385031215613eaf57600080fd5b613eb883613aad565b915060208301358015158114613ca757600080fd5b600080600060608486031215613ee257600080fd5b83359250602084013567ffffffffffffffff80821115613f0157600080fd5b613f0d87838801613cc8565b93506040860135915080821115613f2357600080fd5b50613f3086828701613cc8565b9150509250925092565b60008060008060808587031215613f5057600080fd5b613f5985613aad565b9350613f6760208601613aad565b925060408501359150606085013567ffffffffffffffff811115613f8a57600080fd5b613f9687828801613cc8565b91505092959194509250565b60008060408385031215613fb557600080fd5b613fbe83613aad565b9150613fcc60208401613aad565b90509250929050565b600181811c90821680613fe957607f821691505b60208210810361400957634e487b7160e01b600052602260045260246000fd5b50919050565b6020808252602e908201527f4552433732313a2063616c6c6572206973206e6f7420746f6b656e206f776e6560408201526d1c881b9bdc88185c1c1c9bdd995960921b606082015260800190565b634e487b7160e01b600052601160045260246000fd5b6000828210156140855761408561405d565b500390565b634e487b7160e01b600052603260045260246000fd5b600060ff821660ff81036140b6576140b661405d565b60010192915050565b6020808252818101527f547765657468506f737420636f6e7472616374206973206e6f74207365747570604082015260600190565b60a08152600061410760a0830188613b3e565b82810360208401526141198188613b3e565b6040840196909652505060ff9290921660608301526001600160a01b031660809091015292915050565b60006020828403121561415557600080fd5b5051919050565b60008160001904831182151516156141765761417661405d565b500290565b634e487b7160e01b600052603160045260246000fd5b600083516141a3818460208801613b12565b8351908301906141b7818360208801613b12565b01949350505050565b6020808252601e908201527f6164647265737320646f65736e2774206861766520612070726f66696c650000604082015260600190565b60208082526022908201527f596f7520617265206e6f7420666f6c6c6f77696e672074686973206164647265604082015261737360f01b606082015260800190565b6000821982111561424c5761424c61405d565b500190565b805160208083015191908110156140095760001960209190910360031b1b16919050565b60208082526032908201527f4552433732313a207472616e7366657220746f206e6f6e20455243373231526560408201527131b2b4bb32b91034b6b83632b6b2b73a32b960711b606082015260800190565b6000600182016142d9576142d961405d565b5060010190565b634e487b7160e01b600052601260045260246000fd5b600082614305576143056142e0565b500490565b600082614319576143196142e0565b500690565b6001600160a01b0385811682528416602082015260408101839052608060608201819052600090613c2f90830184613b3e565b60006020828403121561436357600080fd5b8151611ffa81613adf565b600060ff821660ff8416808210156143885761438861405d565b90039392505050565b600060ff821660ff84168060ff038211156143ae576143ae61405d565b01939250505056fea2646970667358221220d8905aa235f28285b16db60dbc7c919a2f7534d108985148139b23c61196cf0664736f6c634300080d0033",
  "bytecodeSha1": "b1da2880bdd71dfd5fc9c1055f78de9c3347f6c4",
  "compiler": {
    "evm_version": "istanbul",
    "optimizer": {
      "enabled": true,
      "runs": 200
    },
    "version": "0.8.13+commit.abaa5c0e"
  },
  "contractName": "TwetherProfile",
  "language": "Solidity",
  "natspec": {
    "kind": "dev",
    "methods": {
      "approve(address,uint256)": {
        "details": "See {IERC721-approve}."
      },
      "balanceOf(address)": {
        "details": "See {IERC721-balanceOf}."
      },
      "burn(uint256)": {
        "details": "Burns `tokenId`. See {ERC721-_burn}. Requirements: - The caller must own `tokenId` or be an approved operator."
      },
      "getApproved(uint256)": {
        "details": "See {IERC721-getApproved}."
      },
      "isApprovedForAll(address,address)": {
        "details": "See {IERC721-isApprovedForAll}."
      },
      "name()": {
        "details": "See {IERC721Metadata-name}."
      },
      "owner()": {
        "details": "Returns the address of the current owner."
      },
      "ownerOf(uint256)": {
        "details": "See {IERC721-ownerOf}."
      },
      "paused()": {
        "details": "Returns true if the contract is paused, and false otherwise."
      },
      "renounceOwnership()": {
        "details": "Leaves the contract without owner. It will not be possible to call `onlyOwner` functions anymore. Can only be called by the current owner. NOTE: Renouncing ownership will leave the contract without an owner, thereby removing any functionality that is only available to the owner."
      },
      "safeTransferFrom(address,address,uint256)": {
        "details": "See {IERC721-safeTransferFrom}."
      },
      "safeTransferFrom(address,address,uint256,bytes)": {
        "details": "See {IERC721-safeTransferFrom}."
      },
      "setApprovalForAll(address,bool)": {
        "details": "See {IERC721-setApprovalForAll}."
      },
      "supportsInterface(bytes4)": {
        "details": "Returns weather a contracts supports a certain Interface.",
        "params": {
          "interfaceId": "of the interface to check."
        },
        "returns": {
          "_0": "True if the contract supports such interface."
        }
      },
      "symbol()": {
        "details": "See {IERC721Metadata-symbol}."
      },
      "tokenByIndex(uint256)": {
        "details": "See {IERC721Enumerable-tokenByIndex}."
      },
      "tokenOfOwnerByIndex(address,uint256)": {
        "details": "See {IERC721Enumerable-tokenOfOwnerByIndex}."
      },
      "tokenURI(uint256)": {
        "details": "See {IERC721Metadata-tokenURI}."
      },
      "totalSupply()": {
        "details": "See {IERC721Enumerable-totalSupply}."
      },
      "transferFrom(address,address,uint256)": {
        "details": "See {IERC721-transferFrom}."
      },
      "transferOwnership(address)": {
        "details": "Transfers ownership of the contract to a new account (`newOwner`). Can only be called by the current owner."
      }
    },
    "version": 1
  },
  "opcodes": "PUSH1 0x80 PUSH1 0x40 MSTORE CALLVALUE DUP1 ISZERO PUSH2 0x10 JUMPI PUSH1 0x0 DUP1 REVERT JUMPDEST POP PUSH1 0x4 CALLDATASIZE LT PUSH2 0x383 JUMPI PUSH1 0x0 CALLDATALOAD PUSH1 0xE0 SHR DUP1 PUSH4 0x715018A6 GT PUSH2 0x1DE JUMPI DUP1 PUSH4 0xAAA6C4B0 GT PUSH2 0x10F JUMPI DUP1 PUSH4 0xD00B9C47 GT PUSH2 0xAD JUMPI DUP1 PUSH4 0xE985E9C5 GT PUSH2 0x7C JUMPI DUP1 PUSH4 0xE985E9C5 EQ PUSH2 0x82C JUMPI DUP1 PUSH4 0xEA58BC04 EQ PUSH2 0x868 JUMPI DUP1 PUSH4 0xF2FDE38B EQ PUSH2 0x87B JUMPI DUP1 PUSH4 0xFD6D2FD3 EQ PUSH2 0x88E JUMPI PUSH1 0x0 DUP1 REVERT JUMPDEST DUP1 PUSH4 0xD00B9C47 EQ PUSH2 0x7C7 JUMPI DUP1 PUSH4 0xD8236DFF EQ PUSH2 0x7F3 JUMPI DUP1 PUSH4 0xE7673F78 EQ PUSH2 0x806 JUMPI DUP1 PUSH4 0xE82935DA EQ PUSH2 0x819 JUMPI PUSH1 0x0 DUP1 REVERT JUMPDEST DUP1 PUSH4 0xC2FE2022 GT PUSH2 0xE9 JUMPI DUP1 PUSH4 0xC2FE2022 EQ PUSH2 0x762 JUMPI DUP1 PUSH4 0xC87B56DD EQ PUSH2 0x775 JUMPI DUP1 PUSH4 0xC962E1F5 EQ PUSH2 0x788 JUMPI DUP1 PUSH4 0xCDFE8B38 EQ PUSH2 0x7B4 JUMPI PUSH1 0x0 DUP1 REVERT JUMPDEST DUP1 PUSH4 0xAAA6C4B0 EQ PUSH2 0x729 JUMPI DUP1 PUSH4 0xB88D4FDE EQ PUSH2 0x73C JUMPI DUP1 PUSH4 0xC1083467 EQ PUSH2 0x74F JUMPI PUSH1 0x0 DUP1 REVERT JUMPDEST DUP1 PUSH4 0x904B1701 GT PUSH2 0x17C JUMPI DUP1 PUSH4 0x95D89B41 GT PUSH2 0x156 JUMPI DUP1 PUSH4 0x95D89B41 EQ PUSH2 0x6E8 JUMPI DUP1 PUSH4 0xA22CB465 EQ PUSH2 0x6F0 JUMPI DUP1 PUSH4 0xA496C540 EQ PUSH2 0x703 JUMPI DUP1 PUSH4 0xA8C7FB49 EQ PUSH2 0x716 JUMPI PUSH1 0x0 DUP1 REVERT JUMPDEST DUP1 PUSH4 0x904B1701 EQ PUSH2 0x6A0 JUMPI DUP1 PUSH4 0x92E2E88D EQ PUSH2 0x6B3 JUMPI DUP1 PUSH4 0x94490E9A EQ PUSH2 0x6DF JUMPI PUSH1 0x0 DUP1 REVERT JUMPDEST DUP1 PUSH4 0x86AC1FBE GT PUSH2 0x1B8 JUMPI DUP1 PUSH4 0x86AC1FBE EQ PUSH2 0x644 JUMPI DUP1 PUSH4 0x881E3558 EQ PUSH2 0x657 JUMPI DUP1 PUSH4 0x8DA5CB5B EQ PUSH2 0x66A JUMPI DUP1 PUSH4 0x8F7A56EF EQ PUSH2 0x680 JUMPI PUSH1 0x0 DUP1 REVERT JUMPDEST DUP1 PUSH4 0x715018A6 EQ PUSH2 0x616 JUMPI DUP1 PUSH4 0x72EFD405 EQ PUSH2 0x61E JUMPI DUP1 PUSH4 0x74D21AE0 EQ PUSH2 0x631 JUMPI PUSH1 0x0 DUP1 REVERT JUMPDEST DUP1 PUSH4 0x39765581 GT PUSH2 0x2B8 JUMPI DUP1 PUSH4 0x55E6A806 GT PUSH2 0x256 JUMPI DUP1 PUSH4 0x69BECFF6 GT PUSH2 0x230 JUMPI DUP1 PUSH4 0x69BECFF6 EQ PUSH2 0x5CA JUMPI DUP1 PUSH4 0x6A42F348 EQ PUSH2 0x5DD JUMPI DUP1 PUSH4 0x6A7A1654 EQ PUSH2 0x5F0 JUMPI DUP1 PUSH4 0x70A08231 EQ PUSH2 0x603 JUMPI PUSH1 0x0 DUP1 REVERT JUMPDEST DUP1 PUSH4 0x55E6A806 EQ PUSH2 0x580 JUMPI DUP1 PUSH4 0x5C975ABB EQ PUSH2 0x5AC JUMPI DUP1 PUSH4 0x6352211E EQ PUSH2 0x5B7 JUMPI PUSH1 0x0 DUP1 REVERT JUMPDEST DUP1 PUSH4 0x42966C68 GT PUSH2 0x292 JUMPI DUP1 PUSH4 0x42966C68 EQ PUSH2 0x534 JUMPI DUP1 PUSH4 0x4DBF27CC EQ PUSH2 0x547 JUMPI DUP1 PUSH4 0x4F6CCCE7 EQ PUSH2 0x55A JUMPI DUP1 PUSH4 0x51BF2F19 EQ PUSH2 0x56D JUMPI PUSH1 0x0 DUP1 REVERT JUMPDEST DUP1 PUSH4 0x39765581 EQ PUSH2 0x4FB JUMPI DUP1 PUSH4 0x3F957532 EQ PUSH2 0x50E JUMPI DUP1 PUSH4 0x42842E0E EQ PUSH2 0x521 JUMPI PUSH1 0x0 DUP1 REVERT JUMPDEST DUP1 PUSH4 0xF53A470 GT PUSH2 0x325 JUMPI DUP1 PUSH4 0x2067B1CB GT PUSH2 0x2FF JUMPI DUP1 PUSH4 0x2067B1CB EQ PUSH2 0x4AF JUMPI DUP1 PUSH4 0x23B872DD EQ PUSH2 0x4C2 JUMPI DUP1 PUSH4 0x27D00FD0 EQ PUSH2 0x4D5 JUMPI DUP1 PUSH4 0x2F745C59 EQ PUSH2 0x4E8 JUMPI PUSH1 0x0 DUP1 REVERT JUMPDEST DUP1 PUSH4 0xF53A470 EQ PUSH2 0x472 JUMPI DUP1 PUSH4 0x18160DDD EQ PUSH2 0x494 JUMPI DUP1 PUSH4 0x1B19327C EQ PUSH2 0x49C JUMPI PUSH1 0x0 DUP1 REVERT JUMPDEST DUP1 PUSH4 0x6FDDE03 GT PUSH2 0x361 JUMPI DUP1 PUSH4 0x6FDDE03 EQ PUSH2 0x3FF JUMPI DUP1 PUSH4 0x81812FC EQ PUSH2 0x414 JUMPI DUP1 PUSH4 0x95EA7B3 EQ PUSH2 0x43F JUMPI DUP1 PUSH4 0xD264D46 EQ PUSH2 0x452 JUMPI PUSH1 0x0 DUP1 REVERT JUMPDEST DUP1 PUSH4 0x15A4EAD EQ PUSH2 0x388 JUMPI DUP1 PUSH4 0x1FFC9A7 EQ PUSH2 0x39D JUMPI DUP1 PUSH4 0x43C8E29 EQ PUSH2 0x3C5 JUMPI JUMPDEST PUSH1 0x0 DUP1 REVERT JUMPDEST PUSH2 0x39B PUSH2 0x396 CALLDATASIZE PUSH1 0x4 PUSH2 0x3AC4 JUMP JUMPDEST PUSH2 0x8A1 JUMP JUMPDEST STOP JUMPDEST PUSH2 0x3B0 PUSH2 0x3AB CALLDATASIZE PUSH1 0x4 PUSH2 0x3AF5 JUMP JUMPDEST PUSH2 0x8BC JUMP JUMPDEST PUSH1 0x40 MLOAD SWAP1 ISZERO ISZERO DUP2 MSTORE PUSH1 0x20 ADD JUMPDEST PUSH1 0x40 MLOAD DUP1 SWAP2 SUB SWAP1 RETURN JUMPDEST PUSH2 0x3F1 PUSH2 0x3D3 CALLDATASIZE PUSH1 0x4 PUSH2 0x3AC4 JUMP JUMPDEST PUSH1 0x1 PUSH1 0x1 PUSH1 0xA0 SHL SUB AND PUSH1 0x0 SWAP1 DUP2 MSTORE PUSH1 0xD PUSH1 0x20 MSTORE PUSH1 0x40 SWAP1 KECCAK256 PUSH1 0x5 ADD SLOAD SWAP1 JUMP JUMPDEST PUSH1 0x40 MLOAD SWAP1 DUP2 MSTORE PUSH1 0x20 ADD PUSH2 0x3BC JUMP JUMPDEST PUSH2 0x407 PUSH2 0x902 JUMP JUMPDEST PUSH1 0x40 MLOAD PUSH2 0x3BC SWAP2 SWAP1 PUSH2 0x3B6A JUMP JUMPDEST PUSH2 0x427 PUSH2 0x422 CALLDATASIZE PUSH1 0x4 PUSH2 0x3B7D JUMP JUMPDEST PUSH2 0x994 JUMP JUMPDEST PUSH1 0x40 MLOAD PUSH1 0x1 PUSH1 0x1 PUSH1 0xA0 SHL SUB SWAP1 SWAP2 AND DUP2 MSTORE PUSH1 0x20 ADD PUSH2 0x3BC JUMP JUMPDEST PUSH2 0x39B PUSH2 0x44D CALLDATASIZE PUSH1 0x4 PUSH2 0x3B96 JUMP JUMPDEST PUSH2 0x9BB JUMP JUMPDEST PUSH2 0x465 PUSH2 0x460 CALLDATASIZE PUSH1 0x4 PUSH2 0x3AC4 JUMP JUMPDEST PUSH2 0xAD0 JUMP JUMPDEST PUSH1 0x40 MLOAD PUSH2 0x3BC SWAP2 SWAP1 PUSH2 0x3BC0 JUMP JUMPDEST PUSH2 0x485 PUSH2 0x480 CALLDATASIZE PUSH1 0x4 PUSH2 0x3AC4 JUMP JUMPDEST PUSH2 0xADD JUMP JUMPDEST PUSH1 0x40 MLOAD PUSH2 0x3BC SWAP4 SWAP3 SWAP2 SWAP1 PUSH2 0x3C04 JUMP JUMPDEST PUSH1 0x8 SLOAD PUSH2 0x3F1 JUMP JUMPDEST PUSH2 0x465 PUSH2 0x4AA CALLDATASIZE PUSH1 0x4 PUSH2 0x3AC4 JUMP JUMPDEST PUSH2 0xC31 JUMP JUMPDEST PUSH2 0x465 PUSH2 0x4BD CALLDATASIZE PUSH1 0x4 PUSH2 0x3AC4 JUMP JUMPDEST PUSH2 0xC3E JUMP JUMPDEST PUSH2 0x39B PUSH2 0x4D0 CALLDATASIZE PUSH1 0x4 PUSH2 0x3C39 JUMP JUMPDEST PUSH2 0xCAD JUMP JUMPDEST PUSH2 0x39B PUSH2 0x4E3 CALLDATASIZE PUSH1 0x4 PUSH2 0x3B7D JUMP JUMPDEST PUSH2 0xCDF JUMP JUMPDEST PUSH2 0x3F1 PUSH2 0x4F6 CALLDATASIZE PUSH1 0x4 PUSH2 0x3B96 JUMP JUMPDEST PUSH2 0xCEC JUMP JUMPDEST PUSH2 0x39B PUSH2 0x509 CALLDATASIZE PUSH1 0x4 PUSH2 0x3B7D JUMP JUMPDEST PUSH2 0xD82 JUMP JUMPDEST PUSH2 0x465 PUSH2 0x51C CALLDATASIZE PUSH1 0x4 PUSH2 0x3C75 JUMP JUMPDEST PUSH2 0xDF0 JUMP JUMPDEST PUSH2 0x39B PUSH2 0x52F CALLDATASIZE PUSH1 0x4 PUSH2 0x3C39 JUMP JUMPDEST PUSH2 0xF3E JUMP JUMPDEST PUSH2 0x39B PUSH2 0x542 CALLDATASIZE PUSH1 0x4 PUSH2 0x3B7D JUMP JUMPDEST PUSH2 0xF59 JUMP JUMPDEST PUSH2 0x39B PUSH2 0x555 CALLDATASIZE PUSH1 0x4 PUSH2 0x3AC4 JUMP JUMPDEST PUSH2 0xF8A JUMP JUMPDEST PUSH2 0x3F1 PUSH2 0x568 CALLDATASIZE PUSH1 0x4 PUSH2 0x3B7D JUMP JUMPDEST PUSH2 0xFD1 JUMP JUMPDEST PUSH2 0x39B PUSH2 0x57B CALLDATASIZE PUSH1 0x4 PUSH2 0x3D55 JUMP JUMPDEST PUSH2 0x1064 JUMP JUMPDEST PUSH2 0x3F1 PUSH2 0x58E CALLDATASIZE PUSH1 0x4 PUSH2 0x3AC4 JUMP JUMPDEST PUSH1 0x1 PUSH1 0x1 PUSH1 0xA0 SHL SUB AND PUSH1 0x0 SWAP1 DUP2 MSTORE PUSH1 0xD PUSH1 0x20 MSTORE PUSH1 0x40 SWAP1 KECCAK256 PUSH1 0x3 ADD SLOAD SWAP1 JUMP JUMPDEST PUSH1 0xA SLOAD PUSH1 0xFF AND PUSH2 0x3B0 JUMP JUMPDEST PUSH2 0x427 PUSH2 0x5C5 CALLDATASIZE PUSH1 0x4 PUSH2 0x3B7D JUMP JUMPDEST PUSH2 0x119B JUMP JUMPDEST PUSH2 0x465 PUSH2 0x5D8 CALLDATASIZE PUSH1 0x4 PUSH2 0x3B96 JUMP JUMPDEST PUSH2 0x11FB JUMP JUMPDEST PUSH2 0x465 PUSH2 0x5EB CALLDATASIZE PUSH1 0x4 PUSH2 0x3AC4 JUMP JUMPDEST PUSH2 0x1301 JUMP JUMPDEST PUSH2 0x39B PUSH2 0x5FE CALLDATASIZE PUSH1 0x4 PUSH2 0x3D55 JUMP JUMPDEST PUSH2 0x130E JUMP JUMPDEST PUSH2 0x3F1 PUSH2 0x611 CALLDATASIZE PUSH1 0x4 PUSH2 0x3AC4 JUMP JUMPDEST PUSH2 0x1434 JUMP JUMPDEST PUSH2 0x39B PUSH2 0x14BA JUMP JUMPDEST PUSH2 0x39B PUSH2 0x62C CALLDATASIZE PUSH1 0x4 PUSH2 0x3DC2 JUMP JUMPDEST PUSH2 0x14CE JUMP JUMPDEST PUSH2 0x39B PUSH2 0x63F CALLDATASIZE PUSH1 0x4 PUSH2 0x3B7D JUMP JUMPDEST PUSH2 0x15FA JUMP JUMPDEST PUSH2 0x39B PUSH2 0x652 CALLDATASIZE PUSH1 0x4 PUSH2 0x3E26 JUMP JUMPDEST PUSH2 0x190A JUMP JUMPDEST PUSH2 0x465 PUSH2 0x665 CALLDATASIZE PUSH1 0x4 PUSH2 0x3AC4 JUMP JUMPDEST PUSH2 0x1946 JUMP JUMPDEST PUSH1 0xA SLOAD PUSH2 0x100 SWAP1 DIV PUSH1 0x1 PUSH1 0x1 PUSH1 0xA0 SHL SUB AND PUSH2 0x427 JUMP JUMPDEST PUSH2 0x693 PUSH2 0x68E CALLDATASIZE PUSH1 0x4 PUSH2 0x3C75 JUMP JUMPDEST PUSH2 0x1953 JUMP JUMPDEST PUSH1 0x40 MLOAD PUSH2 0x3BC SWAP2 SWAP1 PUSH2 0x3E5B JUMP JUMPDEST PUSH2 0x465 PUSH2 0x6AE CALLDATASIZE PUSH1 0x4 PUSH2 0x3AC4 JUMP JUMPDEST PUSH2 0x1A74 JUMP JUMPDEST PUSH2 0x3F1 PUSH2 0x6C1 CALLDATASIZE PUSH1 0x4 PUSH2 0x3AC4 JUMP JUMPDEST PUSH1 0x1 PUSH1 0x1 PUSH1 0xA0 SHL SUB AND PUSH1 0x0 SWAP1 DUP2 MSTORE PUSH1 0xD PUSH1 0x20 MSTORE PUSH1 0x40 SWAP1 KECCAK256 PUSH1 0x9 ADD SLOAD SWAP1 JUMP JUMPDEST PUSH2 0x3F1 PUSH1 0xC SLOAD DUP2 JUMP JUMPDEST PUSH2 0x407 PUSH2 0x1AE1 JUMP JUMPDEST PUSH2 0x39B PUSH2 0x6FE CALLDATASIZE PUSH1 0x4 PUSH2 0x3E9C JUMP JUMPDEST PUSH2 0x1AF0 JUMP JUMPDEST PUSH2 0x465 PUSH2 0x711 CALLDATASIZE PUSH1 0x4 PUSH2 0x3B96 JUMP JUMPDEST PUSH2 0x1AFF JUMP JUMPDEST PUSH2 0x465 PUSH2 0x724 CALLDATASIZE PUSH1 0x4 PUSH2 0x3C75 JUMP JUMPDEST PUSH2 0x1BFB JUMP JUMPDEST PUSH2 0x39B PUSH2 0x737 CALLDATASIZE PUSH1 0x4 PUSH2 0x3ECD JUMP JUMPDEST PUSH2 0x1CFC JUMP JUMPDEST PUSH2 0x39B PUSH2 0x74A CALLDATASIZE PUSH1 0x4 PUSH2 0x3F3A JUMP JUMPDEST PUSH2 0x1D9C JUMP JUMPDEST PUSH2 0x465 PUSH2 0x75D CALLDATASIZE PUSH1 0x4 PUSH2 0x3C75 JUMP JUMPDEST PUSH2 0x1DD4 JUMP JUMPDEST PUSH2 0x693 PUSH2 0x770 CALLDATASIZE PUSH1 0x4 PUSH2 0x3AC4 JUMP JUMPDEST PUSH2 0x1F15 JUMP JUMPDEST PUSH2 0x407 PUSH2 0x783 CALLDATASIZE PUSH1 0x4 PUSH2 0x3B7D JUMP JUMPDEST PUSH2 0x1F8D JUMP JUMPDEST PUSH2 0x3F1 PUSH2 0x796 CALLDATASIZE PUSH1 0x4 PUSH2 0x3AC4 JUMP JUMPDEST PUSH1 0x1 PUSH1 0x1 PUSH1 0xA0 SHL SUB AND PUSH1 0x0 SWAP1 DUP2 MSTORE PUSH1 0xD PUSH1 0x20 MSTORE PUSH1 0x40 SWAP1 KECCAK256 PUSH1 0x7 ADD SLOAD SWAP1 JUMP JUMPDEST PUSH2 0x693 PUSH2 0x7C2 CALLDATASIZE PUSH1 0x4 PUSH2 0x3C75 JUMP JUMPDEST PUSH2 0x2001 JUMP JUMPDEST PUSH2 0x3F1 PUSH2 0x7D5 CALLDATASIZE PUSH1 0x4 PUSH2 0x3AC4 JUMP JUMPDEST PUSH1 0x1 PUSH1 0x1 PUSH1 0xA0 SHL SUB AND PUSH1 0x0 SWAP1 DUP2 MSTORE PUSH1 0xD PUSH1 0x20 MSTORE PUSH1 0x40 SWAP1 KECCAK256 PUSH1 0xB ADD SLOAD SWAP1 JUMP JUMPDEST PUSH2 0x693 PUSH2 0x801 CALLDATASIZE PUSH1 0x4 PUSH2 0x3AC4 JUMP JUMPDEST PUSH2 0x21AC JUMP JUMPDEST PUSH2 0x39B PUSH2 0x814 CALLDATASIZE PUSH1 0x4 PUSH2 0x3AC4 JUMP JUMPDEST PUSH2 0x2223 JUMP JUMPDEST PUSH2 0x39B PUSH2 0x827 CALLDATASIZE PUSH1 0x4 PUSH2 0x3B7D JUMP JUMPDEST PUSH2 0x224D JUMP JUMPDEST PUSH2 0x3B0 PUSH2 0x83A CALLDATASIZE PUSH1 0x4 PUSH2 0x3FA2 JUMP JUMPDEST PUSH1 0x1 PUSH1 0x1 PUSH1 0xA0 SHL SUB SWAP2 DUP3 AND PUSH1 0x0 SWAP1 DUP2 MSTORE PUSH1 0x5 PUSH1 0x20 SWAP1 DUP2 MSTORE PUSH1 0x40 DUP1 DUP4 KECCAK256 SWAP4 SWAP1 SWAP5 AND DUP3 MSTORE SWAP2 SWAP1 SWAP2 MSTORE KECCAK256 SLOAD PUSH1 0xFF AND SWAP1 JUMP JUMPDEST PUSH2 0x39B PUSH2 0x876 CALLDATASIZE PUSH1 0x4 PUSH2 0x3E26 JUMP JUMPDEST PUSH2 0x2362 JUMP JUMPDEST PUSH2 0x39B PUSH2 0x889 CALLDATASIZE PUSH1 0x4 PUSH2 0x3AC4 JUMP JUMPDEST PUSH2 0x239E JUMP JUMPDEST PUSH2 0x465 PUSH2 0x89C CALLDATASIZE PUSH1 0x4 PUSH2 0x3AC4 JUMP JUMPDEST PUSH2 0x2414 JUMP JUMPDEST CALLER DUP2 PUSH2 0x8AD DUP3 DUP3 PUSH2 0x2481 JUMP JUMPDEST PUSH2 0x8B7 DUP3 DUP3 PUSH2 0x2748 JUMP JUMPDEST POP POP POP JUMP JUMPDEST PUSH1 0x0 PUSH1 0x1 PUSH1 0x1 PUSH1 0xE0 SHL SUB NOT DUP3 AND PUSH4 0x80AC58CD PUSH1 0xE0 SHL EQ DUP1 PUSH2 0x8ED JUMPI POP PUSH1 0x1 PUSH1 0x1 PUSH1 0xE0 SHL SUB NOT DUP3 AND PUSH4 0x5B5E139F PUSH1 0xE0 SHL EQ JUMPDEST DUP1 PUSH2 0x8FC JUMPI POP PUSH2 0x8FC DUP3 PUSH2 0x290C JUMP JUMPDEST SWAP3 SWAP2 POP POP JUMP JUMPDEST PUSH1 0x60 PUSH1 0x0 DUP1 SLOAD PUSH2 0x911 SWAP1 PUSH2 0x3FD5 JUMP JUMPDEST DUP1 PUSH1 0x1F ADD PUSH1 0x20 DUP1 SWAP2 DIV MUL PUSH1 0x20 ADD PUSH1 0x40 MLOAD SWAP1 DUP2 ADD PUSH1 0x40 MSTORE DUP1 SWAP3 SWAP2 SWAP1 DUP2 DUP2 MSTORE PUSH1 0x20 ADD DUP3 DUP1 SLOAD PUSH2 0x93D SWAP1 PUSH2 0x3FD5 JUMP JUMPDEST DUP1 ISZERO PUSH2 0x98A JUMPI DUP1 PUSH1 0x1F LT PUSH2 0x95F JUMPI PUSH2 0x100 DUP1 DUP4 SLOAD DIV MUL DUP4 MSTORE SWAP2 PUSH1 0x20 ADD SWAP2 PUSH2 0x98A JUMP JUMPDEST DUP3 ADD SWAP2 SWAP1 PUSH1 0x0 MSTORE PUSH1 0x20 PUSH1 0x0 KECCAK256 SWAP1 JUMPDEST DUP2 SLOAD DUP2 MSTORE SWAP1 PUSH1 0x1 ADD SWAP1 PUSH1 0x20 ADD DUP1 DUP4 GT PUSH2 0x96D JUMPI DUP3 SWAP1 SUB PUSH1 0x1F AND DUP3 ADD SWAP2 JUMPDEST POP POP POP POP POP SWAP1 POP SWAP1 JUMP JUMPDEST PUSH1 0x0 PUSH2 0x99F DUP3 PUSH2 0x2931 JUMP JUMPDEST POP PUSH1 0x0 SWAP1 DUP2 MSTORE PUSH1 0x4 PUSH1 0x20 MSTORE PUSH1 0x40 SWAP1 KECCAK256 SLOAD PUSH1 0x1 PUSH1 0x1 PUSH1 0xA0 SHL SUB AND SWAP1 JUMP JUMPDEST PUSH1 0x0 PUSH2 0x9C6 DUP3 PUSH2 0x119B JUMP JUMPDEST SWAP1 POP DUP1 PUSH1 0x1 PUSH1 0x1 PUSH1 0xA0 SHL SUB AND DUP4 PUSH1 0x1 PUSH1 0x1 PUSH1 0xA0 SHL SUB AND SUB PUSH2 0xA38 JUMPI PUSH1 0x40 MLOAD PUSH3 0x461BCD PUSH1 0xE5 SHL DUP2 MSTORE PUSH1 0x20 PUSH1 0x4 DUP3 ADD MSTORE PUSH1 0x21 PUSH1 0x24 DUP3 ADD MSTORE PUSH32 0x4552433732313A20617070726F76616C20746F2063757272656E74206F776E65 PUSH1 0x44 DUP3 ADD MSTORE PUSH1 0x39 PUSH1 0xF9 SHL PUSH1 0x64 DUP3 ADD MSTORE PUSH1 0x84 ADD JUMPDEST PUSH1 0x40 MLOAD DUP1 SWAP2 SUB SWAP1 REVERT JUMPDEST CALLER PUSH1 0x1 PUSH1 0x1 PUSH1 0xA0 SHL SUB DUP3 AND EQ DUP1 PUSH2 0xA54 JUMPI POP PUSH2 0xA54 DUP2 CALLER PUSH2 0x83A JUMP JUMPDEST PUSH2 0xAC6 JUMPI PUSH1 0x40 MLOAD PUSH3 0x461BCD PUSH1 0xE5 SHL DUP2 MSTORE PUSH1 0x20 PUSH1 0x4 DUP3 ADD MSTORE PUSH1 0x3E PUSH1 0x24 DUP3 ADD MSTORE PUSH32 0x4552433732313A20617070726F76652063616C6C6572206973206E6F7420746F PUSH1 0x44 DUP3 ADD MSTORE PUSH32 0x6B656E206F776E6572206E6F7220617070726F76656420666F7220616C6C0000 PUSH1 0x64 DUP3 ADD MSTORE PUSH1 0x84 ADD PUSH2 0xA2F JUMP JUMPDEST PUSH2 0x8B7 DUP4 DUP4 PUSH2 0x2981 JUMP JUMPDEST PUSH1 0x60 PUSH2 0x8FC DUP3 PUSH1 0x64 PUSH2 0xDF0 JUMP JUMPDEST PUSH1 0x1 PUSH1 0x1 PUSH1 0xA0 SHL SUB DUP2 AND PUSH1 0x0 DUP2 DUP2 MSTORE PUSH1 0xD PUSH1 0x20 MSTORE PUSH1 0x40 DUP2 KECCAK256 DUP1 SLOAD PUSH1 0x1 DUP3 ADD DUP1 SLOAD SWAP4 SWAP5 PUSH1 0x60 SWAP5 DUP6 SWAP5 SWAP2 SWAP4 SWAP3 SWAP2 PUSH1 0x2 ADD SWAP1 DUP3 SWAP1 PUSH2 0xB17 SWAP1 PUSH2 0x3FD5 JUMP JUMPDEST DUP1 PUSH1 0x1F ADD PUSH1 0x20 DUP1 SWAP2 DIV MUL PUSH1 0x20 ADD PUSH1 0x40 MLOAD SWAP1 DUP2 ADD PUSH1 0x40 MSTORE DUP1 SWAP3 SWAP2 SWAP1 DUP2 DUP2 MSTORE PUSH1 0x20 ADD DUP3 DUP1 SLOAD PUSH2 0xB43 SWAP1 PUSH2 0x3FD5 JUMP JUMPDEST DUP1 ISZERO PUSH2 0xB90 JUMPI DUP1 PUSH1 0x1F LT PUSH2 0xB65 JUMPI PUSH2 0x100 DUP1 DUP4 SLOAD DIV MUL DUP4 MSTORE SWAP2 PUSH1 0x20 ADD SWAP2 PUSH2 0xB90 JUMP JUMPDEST DUP3 ADD SWAP2 SWAP1 PUSH1 0x0 MSTORE PUSH1 0x20 PUSH1 0x0 KECCAK256 SWAP1 JUMPDEST DUP2 SLOAD DUP2 MSTORE SWAP1 PUSH1 0x1 ADD SWAP1 PUSH1 0x20 ADD DUP1 DUP4 GT PUSH2 0xB73 JUMPI DUP3 SWAP1 SUB PUSH1 0x1F AND DUP3 ADD SWAP2 JUMPDEST POP POP POP POP POP SWAP2 POP DUP1 DUP1 SLOAD PUSH2 0xBA3 SWAP1 PUSH2 0x3FD5 JUMP JUMPDEST DUP1 PUSH1 0x1F ADD PUSH1 0x20 DUP1 SWAP2 DIV MUL PUSH1 0x20 ADD PUSH1 0x40 MLOAD SWAP1 DUP2 ADD PUSH1 0x40 MSTORE DUP1 SWAP3 SWAP2 SWAP1 DUP2 DUP2 MSTORE PUSH1 0x20 ADD DUP3 DUP1 SLOAD PUSH2 0xBCF SWAP1 PUSH2 0x3FD5 JUMP JUMPDEST DUP1 ISZERO PUSH2 0xC1C JUMPI DUP1 PUSH1 0x1F LT PUSH2 0xBF1 JUMPI PUSH2 0x100 DUP1 DUP4 SLOAD DIV MUL DUP4 MSTORE SWAP2 PUSH1 0x20 ADD SWAP2 PUSH2 0xC1C JUMP JUMPDEST DUP3 ADD SWAP2 SWAP1 PUSH1 0x0 MSTORE PUSH1 0x20 PUSH1 0x0 KECCAK256 SWAP1 JUMPDEST DUP2 SLOAD DUP2 MSTORE SWAP1 PUSH1 0x1 ADD SWAP1 PUSH1 0x20 ADD DUP1 DUP4 GT PUSH2 0xBFF JUMPI DUP3 SWAP1 SUB PUSH1 0x1F AND DUP3 ADD SWAP2 JUMPDEST POP POP POP POP POP SWAP1 POP SWAP4 POP SWAP4 POP SWAP4 POP POP SWAP2 SWAP4 SWAP1 SWAP3 POP JUMP JUMPDEST PUSH1 0x60 PUSH2 0x8FC DUP3 PUSH1 0x64 PUSH2 0x1DD4 JUMP JUMPDEST PUSH1 0x1 PUSH1 0x1 PUSH1 0xA0 SHL SUB DUP2 AND PUSH1 0x0 SWAP1 DUP2 MSTORE PUSH1 0xD PUSH1 0x20 SWAP1 DUP2 MSTORE PUSH1 0x40 SWAP2 DUP3 SWAP1 KECCAK256 PUSH1 0xB ADD DUP1 SLOAD DUP4 MLOAD DUP2 DUP5 MUL DUP2 ADD DUP5 ADD SWAP1 SWAP5 MSTORE DUP1 DUP5 MSTORE PUSH1 0x60 SWAP4 SWAP3 DUP4 ADD DUP3 DUP3 DUP1 ISZERO PUSH2 0xCA1 JUMPI PUSH1 0x20 MUL DUP3 ADD SWAP2 SWAP1 PUSH1 0x0 MSTORE PUSH1 0x20 PUSH1 0x0 KECCAK256 SWAP1 JUMPDEST DUP2 SLOAD DUP2 MSTORE PUSH1 0x20 ADD SWAP1 PUSH1 0x1 ADD SWAP1 DUP1 DUP4 GT PUSH2 0xC8D JUMPI JUMPDEST POP POP POP POP POP SWAP1 POP SWAP2 SWAP1 POP JUMP JUMPDEST PUSH2 0xCB8 CALLER JUMPDEST DUP3 PUSH2 0x29EF JUMP JUMPDEST PUSH2 0xCD4 JUMPI PUSH1 0x40 MLOAD PUSH3 0x461BCD PUSH1 0xE5 SHL DUP2 MSTORE PUSH1 0x4 ADD PUSH2 0xA2F SWAP1 PUSH2 0x400F JUMP JUMPDEST PUSH2 0x8B7 DUP4 DUP4 DUP4 PUSH2 0x2A6E JUMP JUMPDEST PUSH2 0xCE7 PUSH2 0x2C15 JUMP JUMPDEST PUSH1 0xC SSTORE JUMP JUMPDEST PUSH1 0x0 PUSH2 0xCF7 DUP4 PUSH2 0x1434 JUMP JUMPDEST DUP3 LT PUSH2 0xD59 JUMPI PUSH1 0x40 MLOAD PUSH3 0x461BCD PUSH1 0xE5 SHL DUP2 MSTORE PUSH1 0x20 PUSH1 0x4 DUP3 ADD MSTORE PUSH1 0x2B PUSH1 0x24 DUP3 ADD MSTORE PUSH32 0x455243373231456E756D657261626C653A206F776E657220696E646578206F75 PUSH1 0x44 DUP3 ADD MSTORE PUSH11 0x74206F6620626F756E6473 PUSH1 0xA8 SHL PUSH1 0x64 DUP3 ADD MSTORE PUSH1 0x84 ADD PUSH2 0xA2F JUMP JUMPDEST POP PUSH1 0x1 PUSH1 0x1 PUSH1 0xA0 SHL SUB SWAP2 SWAP1 SWAP2 AND PUSH1 0x0 SWAP1 DUP2 MSTORE PUSH1 0x6 PUSH1 0x20 SWAP1 DUP2 MSTORE PUSH1 0x40 DUP1 DUP4 KECCAK256 SWAP4 DUP4 MSTORE SWAP3 SWAP1 MSTORE KECCAK256 SLOAD SWAP1 JUMP JUMPDEST PUSH1 0x0 PUSH2 0xD8C PUSH2 0x2C75 JUMP JUMPDEST PUSH1 0x1 PUSH1 0x1 PUSH1 0xA0 SHL SUB DUP2 AND PUSH1 0x0 SWAP1 DUP2 MSTORE PUSH1 0xD PUSH1 0x20 MSTORE PUSH1 0x40 SWAP1 KECCAK256 DUP4 SWAP1 SSTORE SWAP1 POP CALLER PUSH1 0x1 PUSH1 0x1 PUSH1 0xA0 SHL SUB AND PUSH32 0x2F3CF28556634369F653461C1F4759404BB6375E97DB966B28008CD7BD310C75 DUP4 PUSH1 0x40 MLOAD PUSH2 0xDE4 SWAP2 DUP2 MSTORE PUSH1 0x20 ADD SWAP1 JUMP JUMPDEST PUSH1 0x40 MLOAD DUP1 SWAP2 SUB SWAP1 LOG2 POP POP JUMP JUMPDEST PUSH1 0x1 PUSH1 0x1 PUSH1 0xA0 SHL SUB DUP3 AND PUSH1 0x0 SWAP1 DUP2 MSTORE PUSH1 0xD PUSH1 0x20 MSTORE PUSH1 0x40 SWAP1 KECCAK256 PUSH1 0x9 ADD SLOAD PUSH1 0x60 SWAP1 DUP4 PUSH1 0xFF DUP5 AND DUP3 GT ISZERO PUSH2 0xECF JUMPI PUSH1 0x60 PUSH1 0x0 JUMPDEST DUP6 PUSH1 0xFF AND DUP2 PUSH1 0xFF AND LT ISZERO PUSH2 0xEC4 JUMPI PUSH1 0x0 PUSH1 0xFF DUP3 AND PUSH2 0xE3F DUP7 PUSH1 0x1 PUSH2 0x4073 JUMP JUMPDEST PUSH2 0xE49 SWAP2 SWAP1 PUSH2 0x4073 JUMP JUMPDEST GT ISZERO PUSH2 0xEC4 JUMPI PUSH1 0x1 PUSH1 0x1 PUSH1 0xA0 SHL SUB DUP4 AND PUSH1 0x0 SWAP1 DUP2 MSTORE PUSH1 0xD PUSH1 0x20 MSTORE PUSH1 0x40 SWAP1 KECCAK256 PUSH1 0x9 ADD PUSH2 0xE77 PUSH1 0xFF DUP4 AND DUP7 PUSH2 0x4073 JUMP JUMPDEST DUP2 SLOAD DUP2 LT PUSH2 0xE87 JUMPI PUSH2 0xE87 PUSH2 0x408A JUMP JUMPDEST SWAP1 PUSH1 0x0 MSTORE PUSH1 0x20 PUSH1 0x0 KECCAK256 ADD SLOAD DUP3 DUP3 PUSH1 0xFF AND DUP2 MLOAD DUP2 LT PUSH2 0xEA7 JUMPI PUSH2 0xEA7 PUSH2 0x408A JUMP JUMPDEST PUSH1 0x20 SWAP1 DUP2 MUL SWAP2 SWAP1 SWAP2 ADD ADD MSTORE DUP1 PUSH2 0xEBC DUP2 PUSH2 0x40A0 JUMP JUMPDEST SWAP2 POP POP PUSH2 0xE20 JUMP JUMPDEST POP SWAP3 POP PUSH2 0x8FC SWAP2 POP POP JUMP JUMPDEST PUSH1 0x1 PUSH1 0x1 PUSH1 0xA0 SHL SUB DUP6 AND PUSH1 0x0 SWAP1 DUP2 MSTORE PUSH1 0xD PUSH1 0x20 SWAP1 DUP2 MSTORE PUSH1 0x40 SWAP2 DUP3 SWAP1 KECCAK256 PUSH1 0x9 ADD DUP1 SLOAD DUP4 MLOAD DUP2 DUP5 MUL DUP2 ADD DUP5 ADD SWAP1 SWAP5 MSTORE DUP1 DUP5 MSTORE SWAP1 SWAP2 DUP4 ADD DUP3 DUP3 DUP1 ISZERO PUSH2 0xF30 JUMPI PUSH1 0x20 MUL DUP3 ADD SWAP2 SWAP1 PUSH1 0x0 MSTORE PUSH1 0x20 PUSH1 0x0 KECCAK256 SWAP1 JUMPDEST DUP2 SLOAD DUP2 MSTORE PUSH1 0x20 ADD SWAP1 PUSH1 0x1 ADD SWAP1 DUP1 DUP4 GT PUSH2 0xF1C JUMPI JUMPDEST POP POP POP POP POP SWAP3 POP POP POP PUSH2 0x8FC JUMP JUMPDEST PUSH2 0x8B7 DUP4 DUP4 DUP4 PUSH1 0x40 MLOAD DUP1 PUSH1 0x20 ADD PUSH1 0x40 MSTORE DUP1 PUSH1 0x0 DUP2 MSTORE POP PUSH2 0x1D9C JUMP JUMPDEST PUSH2 0xF62 CALLER PUSH2 0xCB2 JUMP JUMPDEST PUSH2 0xF7E JUMPI PUSH1 0x40 MLOAD PUSH3 0x461BCD PUSH1 0xE5 SHL DUP2 MSTORE PUSH1 0x4 ADD PUSH2 0xA2F SWAP1 PUSH2 0x400F JUMP JUMPDEST PUSH2 0xF87 DUP2 PUSH2 0x2CD2 JUMP JUMPDEST POP JUMP JUMPDEST CALLER DUP2 PUSH2 0xF96 DUP3 DUP3 PUSH2 0x2D79 JUMP JUMPDEST PUSH1 0x40 MLOAD PUSH1 0x1 PUSH1 0x1 PUSH1 0xA0 SHL SUB DUP5 AND SWAP1 CALLER SWAP1 PUSH32 0xF792C15B26C5388CAA4745351A64B33589BD584777D9D18FFD61C19579D56FA SWAP1 PUSH1 0x0 SWAP1 LOG3 POP POP POP JUMP JUMPDEST PUSH1 0x0 PUSH2 0xFDC PUSH1 0x8 SLOAD SWAP1 JUMP JUMPDEST DUP3 LT PUSH2 0x103F JUMPI PUSH1 0x40 MLOAD PUSH3 0x461BCD PUSH1 0xE5 SHL DUP2 MSTORE PUSH1 0x20 PUSH1 0x4 DUP3 ADD MSTORE PUSH1 0x2C PUSH1 0x24 DUP3 ADD MSTORE PUSH32 0x455243373231456E756D657261626C653A20676C6F62616C20696E646578206F PUSH1 0x44 DUP3 ADD MSTORE PUSH12 0x7574206F6620626F756E6473 PUSH1 0xA0 SHL PUSH1 0x64 DUP3 ADD MSTORE PUSH1 0x84 ADD PUSH2 0xA2F JUMP JUMPDEST PUSH1 0x8 DUP3 DUP2 SLOAD DUP2 LT PUSH2 0x1052 JUMPI PUSH2 0x1052 PUSH2 0x408A JUMP JUMPDEST SWAP1 PUSH1 0x0 MSTORE PUSH1 0x20 PUSH1 0x0 KECCAK256 ADD SLOAD SWAP1 POP SWAP2 SWAP1 POP JUMP JUMPDEST PUSH1 0xB SLOAD PUSH1 0x1 PUSH1 0x1 PUSH1 0xA0 SHL SUB AND PUSH2 0x108C JUMPI PUSH1 0x40 MLOAD PUSH3 0x461BCD PUSH1 0xE5 SHL DUP2 MSTORE PUSH1 0x4 ADD PUSH2 0xA2F SWAP1 PUSH2 0x40BF JUMP JUMPDEST PUSH1 0x0 PUSH2 0x1096 PUSH2 0x2C75 JUMP JUMPDEST PUSH1 0xB SLOAD PUSH1 0x40 MLOAD PUSH4 0x17F52FD7 PUSH1 0xE2 SHL DUP2 MSTORE SWAP2 SWAP3 POP PUSH1 0x0 SWAP2 PUSH1 0x1 PUSH1 0x1 PUSH1 0xA0 SHL SUB SWAP1 SWAP2 AND SWAP1 PUSH4 0x5FD4BF5C SWAP1 PUSH2 0x10D5 SWAP1 DUP9 SWAP1 DUP9 SWAP1 DUP9 SWAP1 PUSH1 0x2 SWAP1 DUP10 SWAP1 PUSH1 0x4 ADD PUSH2 0x40F4 JUMP JUMPDEST PUSH1 0x20 PUSH1 0x40 MLOAD DUP1 DUP4 SUB DUP2 PUSH1 0x0 DUP8 GAS CALL ISZERO DUP1 ISZERO PUSH2 0x10F4 JUMPI RETURNDATASIZE PUSH1 0x0 DUP1 RETURNDATACOPY RETURNDATASIZE PUSH1 0x0 REVERT JUMPDEST POP POP POP POP PUSH1 0x40 MLOAD RETURNDATASIZE PUSH1 0x1F NOT PUSH1 0x1F DUP3 ADD AND DUP3 ADD DUP1 PUSH1 0x40 MSTORE POP DUP2 ADD SWAP1 PUSH2 0x1118 SWAP2 SWAP1 PUSH2 0x4143 JUMP JUMPDEST SWAP1 POP PUSH2 0x1124 DUP3 DUP3 PUSH2 0x2E73 JUMP JUMPDEST PUSH1 0x0 DUP1 PUSH2 0x1131 DUP8 DUP5 PUSH2 0x2EB7 JUMP JUMPDEST SWAP2 POP SWAP2 POP DUP2 PUSH1 0x1 PUSH1 0x1 PUSH1 0xA0 SHL SUB AND DUP2 PUSH2 0x1147 CALLER SWAP1 JUMP JUMPDEST PUSH1 0x1 PUSH1 0x1 PUSH1 0xA0 SHL SUB AND PUSH32 0x4F364C5612FF56C08FA0772D758655AD9F8145D1F867E85BF7CA35E0D4CC4F95 DUP9 DUP8 PUSH1 0x40 MLOAD PUSH2 0x118A SWAP3 SWAP2 SWAP1 SWAP2 DUP3 MSTORE PUSH1 0x20 DUP3 ADD MSTORE PUSH1 0x40 ADD SWAP1 JUMP JUMPDEST PUSH1 0x40 MLOAD DUP1 SWAP2 SUB SWAP1 LOG4 POP POP POP POP POP POP POP JUMP JUMPDEST PUSH1 0x0 DUP2 DUP2 MSTORE PUSH1 0x2 PUSH1 0x20 MSTORE PUSH1 0x40 DUP2 KECCAK256 SLOAD PUSH1 0x1 PUSH1 0x1 PUSH1 0xA0 SHL SUB AND DUP1 PUSH2 0x8FC JUMPI PUSH1 0x40 MLOAD PUSH3 0x461BCD PUSH1 0xE5 SHL DUP2 MSTORE PUSH1 0x20 PUSH1 0x4 DUP3 ADD MSTORE PUSH1 0x18 PUSH1 0x24 DUP3 ADD MSTORE PUSH24 0x115490CDCC8C4E881A5B9D985B1A59081D1BDAD95B881251 PUSH1 0x42 SHL PUSH1 0x44 DUP3 ADD MSTORE PUSH1 0x64 ADD PUSH2 0xA2F JUMP JUMPDEST PUSH1 0x1 PUSH1 0x1 PUSH1 0xA0 SHL SUB DUP3 AND PUSH1 0x0 SWAP1 DUP2 MSTORE PUSH1 0xD PUSH1 0x20 MSTORE PUSH1 0x40 DUP2 KECCAK256 PUSH1 0x9 ADD SLOAD PUSH1 0x60 SWAP2 DUP5 SWAP1 DUP4 SWAP1 JUMPDEST PUSH1 0xC SLOAD DUP2 PUSH1 0xFF AND LT ISZERO PUSH2 0x12F7 JUMPI PUSH1 0x0 DUP2 PUSH1 0xFF AND DUP8 PUSH1 0xC SLOAD PUSH2 0x1240 SWAP2 SWAP1 PUSH2 0x415C JUMP JUMPDEST PUSH2 0x124B DUP8 PUSH1 0x1 PUSH2 0x4073 JUMP JUMPDEST PUSH2 0x1255 SWAP2 SWAP1 PUSH2 0x4073 JUMP JUMPDEST PUSH2 0x125F SWAP2 SWAP1 PUSH2 0x4073 JUMP JUMPDEST GT ISZERO PUSH2 0x12F7 JUMPI PUSH1 0x1 PUSH1 0x1 PUSH1 0xA0 SHL SUB DUP4 AND PUSH1 0x0 SWAP1 DUP2 MSTORE PUSH1 0xD PUSH1 0x20 MSTORE PUSH1 0x40 SWAP1 KECCAK256 PUSH1 0xC SLOAD PUSH1 0x9 SWAP1 SWAP2 ADD SWAP1 PUSH1 0xFF DUP4 AND SWAP1 PUSH2 0x1296 SWAP1 DUP10 SWAP1 PUSH2 0x415C JUMP JUMPDEST PUSH2 0x12A0 SWAP1 DUP8 PUSH2 0x4073 JUMP JUMPDEST PUSH2 0x12AA SWAP2 SWAP1 PUSH2 0x4073 JUMP JUMPDEST DUP2 SLOAD DUP2 LT PUSH2 0x12BA JUMPI PUSH2 0x12BA PUSH2 0x408A JUMP JUMPDEST SWAP1 PUSH1 0x0 MSTORE PUSH1 0x20 PUSH1 0x0 KECCAK256 ADD SLOAD DUP3 DUP3 PUSH1 0xFF AND DUP2 MLOAD DUP2 LT PUSH2 0x12DA JUMPI PUSH2 0x12DA PUSH2 0x408A JUMP JUMPDEST PUSH1 0x20 SWAP1 DUP2 MUL SWAP2 SWAP1 SWAP2 ADD ADD MSTORE DUP1 PUSH2 0x12EF DUP2 PUSH2 0x40A0 JUMP JUMPDEST SWAP2 POP POP PUSH2 0x121F JUMP JUMPDEST POP SWAP6 SWAP5 POP POP POP POP POP JUMP JUMPDEST PUSH1 0x60 PUSH2 0x8FC DUP3 PUSH1 0xA PUSH2 0xDF0 JUMP JUMPDEST PUSH1 0xB SLOAD PUSH1 0x1 PUSH1 0x1 PUSH1 0xA0 SHL SUB AND PUSH2 0x1336 JUMPI PUSH1 0x40 MLOAD PUSH3 0x461BCD PUSH1 0xE5 SHL DUP2 MSTORE PUSH1 0x4 ADD PUSH2 0xA2F SWAP1 PUSH2 0x40BF JUMP JUMPDEST PUSH1 0x0 PUSH2 0x1340 PUSH2 0x2C75 JUMP JUMPDEST PUSH1 0xB SLOAD PUSH1 0x40 MLOAD PUSH4 0x17F52FD7 PUSH1 0xE2 SHL DUP2 MSTORE SWAP2 SWAP3 POP PUSH1 0x0 SWAP2 PUSH1 0x1 PUSH1 0x1 PUSH1 0xA0 SHL SUB SWAP1 SWAP2 AND SWAP1 PUSH4 0x5FD4BF5C SWAP1 PUSH2 0x137F SWAP1 DUP9 SWAP1 DUP9 SWAP1 DUP9 SWAP1 PUSH1 0x1 SWAP1 DUP10 SWAP1 PUSH1 0x4 ADD PUSH2 0x40F4 JUMP JUMPDEST PUSH1 0x20 PUSH1 0x40 MLOAD DUP1 DUP4 SUB DUP2 PUSH1 0x0 DUP8 GAS CALL ISZERO DUP1 ISZERO PUSH2 0x139E JUMPI RETURNDATASIZE PUSH1 0x0 DUP1 RETURNDATACOPY RETURNDATASIZE PUSH1 0x0 REVERT JUMPDEST POP POP POP POP PUSH1 0x40 MLOAD RETURNDATASIZE PUSH1 0x1F NOT PUSH1 0x1F DUP3 ADD AND DUP3 ADD DUP1 PUSH1 0x40 MSTORE POP DUP2 ADD SWAP1 PUSH2 0x13C2 SWAP2 SWAP1 PUSH2 0x4143 JUMP JUMPDEST SWAP1 POP PUSH2 0x13CE DUP3 DUP3 PUSH2 0x2E73 JUMP JUMPDEST PUSH1 0x0 DUP1 PUSH2 0x13DB DUP8 DUP5 PUSH2 0x2EB7 JUMP JUMPDEST SWAP2 POP SWAP2 POP DUP2 PUSH1 0x1 PUSH1 0x1 PUSH1 0xA0 SHL SUB AND DUP2 PUSH2 0x13F1 CALLER SWAP1 JUMP JUMPDEST PUSH1 0x1 PUSH1 0x1 PUSH1 0xA0 SHL SUB AND PUSH32 0x924793005F4039CE0BD7A2125C91B09615ED7D350FFA629A063A8E77958A25F6 DUP9 DUP8 PUSH1 0x40 MLOAD PUSH2 0x118A SWAP3 SWAP2 SWAP1 SWAP2 DUP3 MSTORE PUSH1 0x20 DUP3 ADD MSTORE PUSH1 0x40 ADD SWAP1 JUMP JUMPDEST PUSH1 0x0 PUSH1 0x1 PUSH1 0x1 PUSH1 0xA0 SHL SUB DUP3 AND PUSH2 0x149E JUMPI PUSH1 0x40 MLOAD PUSH3 0x461BCD PUSH1 0xE5 SHL DUP2 MSTORE PUSH1 0x20 PUSH1 0x4 DUP3 ADD MSTORE PUSH1 0x29 PUSH1 0x24 DUP3 ADD MSTORE PUSH32 0x4552433732313A2061646472657373207A65726F206973206E6F742061207661 PUSH1 0x44 DUP3 ADD MSTORE PUSH9 0x3634B21037BBB732B9 PUSH1 0xB9 SHL PUSH1 0x64 DUP3 ADD MSTORE PUSH1 0x84 ADD PUSH2 0xA2F JUMP JUMPDEST POP PUSH1 0x1 PUSH1 0x1 PUSH1 0xA0 SHL SUB AND PUSH1 0x0 SWAP1 DUP2 MSTORE PUSH1 0x3 PUSH1 0x20 MSTORE PUSH1 0x40 SWAP1 KECCAK256 SLOAD SWAP1 JUMP JUMPDEST PUSH2 0x14C2 PUSH2 0x2C15 JUMP JUMPDEST PUSH2 0x14CC PUSH1 0x0 PUSH2 0x2F6C JUMP JUMPDEST JUMP JUMPDEST PUSH1 0xB SLOAD PUSH1 0x1 PUSH1 0x1 PUSH1 0xA0 SHL SUB AND PUSH2 0x14F6 JUMPI PUSH1 0x40 MLOAD PUSH3 0x461BCD PUSH1 0xE5 SHL DUP2 MSTORE PUSH1 0x4 ADD PUSH2 0xA2F SWAP1 PUSH2 0x40BF JUMP JUMPDEST PUSH1 0x0 PUSH2 0x1500 PUSH2 0x2C75 JUMP JUMPDEST PUSH1 0xB SLOAD PUSH1 0x40 MLOAD PUSH4 0x17F52FD7 PUSH1 0xE2 SHL DUP2 MSTORE SWAP2 SWAP3 POP PUSH1 0x0 SWAP2 PUSH1 0x1 PUSH1 0x1 PUSH1 0xA0 SHL SUB SWAP1 SWAP2 AND SWAP1 PUSH4 0x5FD4BF5C SWAP1 PUSH2 0x153E SWAP1 DUP8 SWAP1 DUP8 SWAP1 DUP7 SWAP1 DUP2 SWAP1 DUP10 SWAP1 PUSH1 0x4 ADD PUSH2 0x40F4 JUMP JUMPDEST PUSH1 0x20 PUSH1 0x40 MLOAD DUP1 DUP4 SUB DUP2 PUSH1 0x0 DUP8 GAS CALL ISZERO DUP1 ISZERO PUSH2 0x155D JUMPI RETURNDATASIZE PUSH1 0x0 DUP1 RETURNDATACOPY RETURNDATASIZE PUSH1 0x0 REVERT JUMPDEST POP POP POP POP PUSH1 0x40 MLOAD RETURNDATASIZE PUSH1 0x1F NOT PUSH1 0x1F DUP3 ADD AND DUP3 ADD DUP1 PUSH1 0x40 MSTORE POP DUP2 ADD SWAP1 PUSH2 0x1581 SWAP2 SWAP1 PUSH2 0x4143 JUMP JUMPDEST SWAP1 POP PUSH2 0x158D DUP3 DUP3 PUSH2 0x2E73 JUMP JUMPDEST PUSH1 0x0 DUP1 PUSH2 0x159A DUP7 DUP5 PUSH2 0x2EB7 JUMP JUMPDEST SWAP2 POP SWAP2 POP DUP2 PUSH1 0x1 PUSH1 0x1 PUSH1 0xA0 SHL SUB AND DUP2 PUSH2 0x15B0 CALLER SWAP1 JUMP JUMPDEST PUSH1 0x1 PUSH1 0x1 PUSH1 0xA0 SHL SUB AND PUSH32 0xCEAB611EC97DCF6711CDE7FC72FD3BD8A51D6756B06E25F15BE4BF976903F790 DUP7 PUSH1 0x40 MLOAD PUSH2 0x15EA SWAP2 DUP2 MSTORE PUSH1 0x20 ADD SWAP1 JUMP JUMPDEST PUSH1 0x40 MLOAD DUP1 SWAP2 SUB SWAP1 LOG4 POP POP POP POP POP POP JUMP JUMPDEST PUSH1 0xB SLOAD PUSH1 0x1 PUSH1 0x1 PUSH1 0xA0 SHL SUB AND PUSH2 0x1622 JUMPI PUSH1 0x40 MLOAD PUSH3 0x461BCD PUSH1 0xE5 SHL DUP2 MSTORE PUSH1 0x4 ADD PUSH2 0xA2F SWAP1 PUSH2 0x40BF JUMP JUMPDEST PUSH1 0x0 PUSH2 0x162C PUSH2 0x2C75 JUMP JUMPDEST PUSH1 0x1 PUSH1 0x1 PUSH1 0xA0 SHL SUB DUP2 AND PUSH1 0x0 SWAP1 DUP2 MSTORE PUSH1 0xD PUSH1 0x20 MSTORE PUSH1 0x40 SWAP1 KECCAK256 PUSH1 0x7 ADD SLOAD SWAP1 SWAP2 POP PUSH2 0x1692 JUMPI PUSH1 0x40 MLOAD PUSH3 0x461BCD PUSH1 0xE5 SHL DUP2 MSTORE PUSH1 0x20 PUSH1 0x4 DUP3 ADD MSTORE PUSH1 0x18 PUSH1 0x24 DUP3 ADD MSTORE PUSH24 0x165BDD48191A591B9D081B1A5AD9481D1A1A5CC81C1BDCDD PUSH1 0x42 SHL PUSH1 0x44 DUP3 ADD MSTORE PUSH1 0x64 ADD PUSH2 0xA2F JUMP JUMPDEST PUSH1 0x1 PUSH1 0x1 PUSH1 0xA0 SHL SUB DUP2 AND PUSH1 0x0 DUP2 DUP2 MSTORE PUSH1 0xD PUSH1 0x20 DUP2 DUP2 MSTORE PUSH1 0x40 DUP1 DUP5 KECCAK256 DUP8 DUP6 MSTORE PUSH1 0x8 DUP2 ADD DUP4 MSTORE SWAP1 DUP5 KECCAK256 SLOAD SWAP5 DUP5 MSTORE SWAP2 SWAP1 MSTORE PUSH1 0x7 ADD SLOAD SWAP1 DUP3 SWAP1 SUB PUSH2 0x174B JUMPI PUSH1 0x1 PUSH1 0x1 PUSH1 0xA0 SHL SUB DUP4 AND PUSH1 0x0 SWAP1 DUP2 MSTORE PUSH1 0xD PUSH1 0x20 MSTORE PUSH1 0x40 DUP2 KECCAK256 PUSH1 0x7 ADD DUP1 SLOAD DUP7 SWAP3 SWAP1 PUSH2 0x16F8 JUMPI PUSH2 0x16F8 PUSH2 0x408A JUMP JUMPDEST SWAP1 PUSH1 0x0 MSTORE PUSH1 0x20 PUSH1 0x0 KECCAK256 ADD SLOAD EQ PUSH2 0x174B JUMPI PUSH1 0x40 MLOAD PUSH3 0x461BCD PUSH1 0xE5 SHL DUP2 MSTORE PUSH1 0x20 PUSH1 0x4 DUP3 ADD MSTORE PUSH1 0x18 PUSH1 0x24 DUP3 ADD MSTORE PUSH24 0x165BDD48191A591B9D081B1A5AD9481D1A1A5CC81C1BDCDD PUSH1 0x42 SHL PUSH1 0x44 DUP3 ADD MSTORE PUSH1 0x64 ADD PUSH2 0xA2F JUMP JUMPDEST PUSH2 0x1756 PUSH1 0x1 DUP3 PUSH2 0x4073 JUMP JUMPDEST DUP3 EQ PUSH2 0x183D JUMPI PUSH1 0x1 PUSH1 0x1 PUSH1 0xA0 SHL SUB DUP4 AND PUSH1 0x0 SWAP1 DUP2 MSTORE PUSH1 0xD PUSH1 0x20 MSTORE PUSH1 0x40 DUP2 KECCAK256 DUP4 SWAP2 PUSH1 0x8 DUP3 ADD SWAP2 PUSH1 0x7 ADD PUSH2 0x1789 PUSH1 0x1 DUP7 PUSH2 0x4073 JUMP JUMPDEST DUP2 SLOAD DUP2 LT PUSH2 0x1799 JUMPI PUSH2 0x1799 PUSH2 0x408A JUMP JUMPDEST PUSH1 0x0 SWAP2 DUP3 MSTORE PUSH1 0x20 DUP1 DUP4 KECCAK256 SWAP1 SWAP2 ADD SLOAD DUP4 MSTORE DUP3 DUP2 ADD SWAP4 SWAP1 SWAP4 MSTORE PUSH1 0x40 SWAP2 DUP3 ADD DUP2 KECCAK256 SWAP4 SWAP1 SWAP4 SSTORE PUSH1 0x1 PUSH1 0x1 PUSH1 0xA0 SHL SUB DUP7 AND DUP4 MSTORE PUSH1 0xD SWAP1 SWAP2 MSTORE SWAP1 KECCAK256 PUSH1 0x7 ADD PUSH2 0x17DC PUSH1 0x1 DUP4 PUSH2 0x4073 JUMP JUMPDEST DUP2 SLOAD DUP2 LT PUSH2 0x17EC JUMPI PUSH2 0x17EC PUSH2 0x408A JUMP JUMPDEST SWAP1 PUSH1 0x0 MSTORE PUSH1 0x20 PUSH1 0x0 KECCAK256 ADD SLOAD PUSH1 0xD PUSH1 0x0 DUP6 PUSH1 0x1 PUSH1 0x1 PUSH1 0xA0 SHL SUB AND PUSH1 0x1 PUSH1 0x1 PUSH1 0xA0 SHL SUB AND DUP2 MSTORE PUSH1 0x20 ADD SWAP1 DUP2 MSTORE PUSH1 0x20 ADD PUSH1 0x0 KECCAK256 PUSH1 0x7 ADD DUP4 DUP2 SLOAD DUP2 LT PUSH2 0x1830 JUMPI PUSH2 0x1830 PUSH2 0x408A JUMP JUMPDEST PUSH1 0x0 SWAP2 DUP3 MSTORE PUSH1 0x20 SWAP1 SWAP2 KECCAK256 ADD SSTORE JUMPDEST PUSH1 0x1 PUSH1 0x1 PUSH1 0xA0 SHL SUB DUP4 AND PUSH1 0x0 SWAP1 DUP2 MSTORE PUSH1 0xD PUSH1 0x20 MSTORE PUSH1 0x40 SWAP1 KECCAK256 PUSH1 0x7 ADD DUP1 SLOAD DUP1 PUSH2 0x1867 JUMPI PUSH2 0x1867 PUSH2 0x417B JUMP JUMPDEST PUSH1 0x0 DUP3 DUP2 MSTORE PUSH1 0x20 DUP1 DUP3 KECCAK256 PUSH1 0x0 NOT SWAP1 DUP5 ADD DUP2 ADD DUP4 SWAP1 SSTORE SWAP1 SWAP3 ADD SWAP1 SWAP3 SSTORE PUSH1 0x1 PUSH1 0x1 PUSH1 0xA0 SHL SUB DUP6 DUP2 AND DUP1 DUP5 MSTORE PUSH1 0xD DUP4 MSTORE PUSH1 0x40 DUP1 DUP6 KECCAK256 DUP10 DUP7 MSTORE PUSH1 0x8 ADD SWAP1 SWAP4 MSTORE DUP3 DUP5 KECCAK256 SWAP4 SWAP1 SWAP4 SSTORE PUSH1 0xB SLOAD SWAP2 MLOAD PUSH4 0x56781325 PUSH1 0xE0 SHL DUP2 MSTORE PUSH1 0x4 DUP2 ADD DUP9 SWAP1 MSTORE PUSH1 0x24 DUP2 ADD SWAP4 SWAP1 SWAP4 MSTORE AND SWAP1 PUSH4 0x56781325 SWAP1 PUSH1 0x44 ADD PUSH1 0x0 PUSH1 0x40 MLOAD DUP1 DUP4 SUB DUP2 PUSH1 0x0 DUP8 DUP1 EXTCODESIZE ISZERO DUP1 ISZERO PUSH2 0x18EC JUMPI PUSH1 0x0 DUP1 REVERT JUMPDEST POP GAS CALL ISZERO DUP1 ISZERO PUSH2 0x1900 JUMPI RETURNDATASIZE PUSH1 0x0 DUP1 RETURNDATACOPY RETURNDATASIZE PUSH1 0x0 REVERT JUMPDEST POP POP POP POP POP POP POP POP JUMP JUMPDEST PUSH1 0x0 PUSH2 0x1914 PUSH2 0x2C75 JUMP JUMPDEST PUSH1 0x1 PUSH1 0x1 PUSH1 0xA0 SHL SUB DUP2 AND PUSH1 0x0 SWAP1 DUP2 MSTORE PUSH1 0xD PUSH1 0x20 SWAP1 DUP2 MSTORE PUSH1 0x40 SWAP1 SWAP2 KECCAK256 DUP5 MLOAD SWAP3 SWAP4 POP PUSH2 0x8B7 SWAP3 PUSH1 0x2 SWAP1 SWAP2 ADD SWAP2 DUP6 ADD SWAP1 PUSH2 0x3A14 JUMP JUMPDEST PUSH1 0x60 PUSH2 0x8FC DUP3 PUSH1 0xA PUSH2 0x1DD4 JUMP JUMPDEST PUSH1 0x1 PUSH1 0x1 PUSH1 0xA0 SHL SUB DUP3 AND PUSH1 0x0 SWAP1 DUP2 MSTORE PUSH1 0xD PUSH1 0x20 MSTORE PUSH1 0x40 DUP2 KECCAK256 PUSH1 0x3 ADD SLOAD PUSH1 0x60 SWAP2 DUP5 SWAP1 DUP4 SWAP1 JUMPDEST PUSH1 0xC SLOAD DUP2 PUSH1 0xFF AND LT ISZERO PUSH2 0x12F7 JUMPI PUSH1 0x0 DUP2 PUSH1 0xFF AND DUP8 PUSH1 0xFF AND PUSH1 0xC SLOAD PUSH2 0x199B SWAP2 SWAP1 PUSH2 0x415C JUMP JUMPDEST PUSH2 0x19A6 DUP8 PUSH1 0x1 PUSH2 0x4073 JUMP JUMPDEST PUSH2 0x19B0 SWAP2 SWAP1 PUSH2 0x4073 JUMP JUMPDEST PUSH2 0x19BA SWAP2 SWAP1 PUSH2 0x4073 JUMP JUMPDEST GT ISZERO PUSH2 0x12F7 JUMPI PUSH1 0x1 PUSH1 0x1 PUSH1 0xA0 SHL SUB DUP4 AND PUSH1 0x0 SWAP1 DUP2 MSTORE PUSH1 0xD PUSH1 0x20 MSTORE PUSH1 0x40 SWAP1 KECCAK256 PUSH1 0xC SLOAD PUSH1 0x3 SWAP1 SWAP2 ADD SWAP1 PUSH1 0xFF DUP1 DUP5 AND SWAP2 PUSH2 0x19F3 SWAP2 DUP11 AND SWAP1 PUSH2 0x415C JUMP JUMPDEST PUSH2 0x19FD SWAP1 DUP8 PUSH2 0x4073 JUMP JUMPDEST PUSH2 0x1A07 SWAP2 SWAP1 PUSH2 0x4073 JUMP JUMPDEST DUP2 SLOAD DUP2 LT PUSH2 0x1A17 JUMPI PUSH2 0x1A17 PUSH2 0x408A JUMP JUMPDEST SWAP1 PUSH1 0x0 MSTORE PUSH1 0x20 PUSH1 0x0 KECCAK256 ADD PUSH1 0x0 SWAP1 SLOAD SWAP1 PUSH2 0x100 EXP SWAP1 DIV PUSH1 0x1 PUSH1 0x1 PUSH1 0xA0 SHL SUB AND DUP3 DUP3 PUSH1 0xFF AND DUP2 MLOAD DUP2 LT PUSH2 0x1A4A JUMPI PUSH2 0x1A4A PUSH2 0x408A JUMP JUMPDEST PUSH1 0x1 PUSH1 0x1 PUSH1 0xA0 SHL SUB SWAP1 SWAP3 AND PUSH1 0x20 SWAP3 DUP4 MUL SWAP2 SWAP1 SWAP2 ADD SWAP1 SWAP2 ADD MSTORE DUP1 PUSH2 0x1A6C DUP2 PUSH2 0x40A0 JUMP JUMPDEST SWAP2 POP POP PUSH2 0x1977 JUMP JUMPDEST PUSH1 0x1 PUSH1 0x1 PUSH1 0xA0 SHL SUB DUP2 AND PUSH1 0x0 SWAP1 DUP2 MSTORE PUSH1 0xD PUSH1 0x20 SWAP1 DUP2 MSTORE PUSH1 0x40 SWAP2 DUP3 SWAP1 KECCAK256 PUSH1 0x9 ADD DUP1 SLOAD DUP4 MLOAD DUP2 DUP5 MUL DUP2 ADD DUP5 ADD SWAP1 SWAP5 MSTORE DUP1 DUP5 MSTORE PUSH1 0x60 SWAP4 SWAP3 DUP4 ADD DUP3 DUP3 DUP1 ISZERO PUSH2 0xCA1 JUMPI PUSH1 0x20 MUL DUP3 ADD SWAP2 SWAP1 PUSH1 0x0 MSTORE PUSH1 0x20 PUSH1 0x0 KECCAK256 SWAP1 DUP2 SLOAD DUP2 MSTORE PUSH1 0x20 ADD SWAP1 PUSH1 0x1 ADD SWAP1 DUP1 DUP4 GT PUSH2 0xC8D JUMPI POP POP POP POP POP SWAP1 POP SWAP2 SWAP1 POP JUMP JUMPDEST PUSH1 0x60 PUSH1 0x1 DUP1 SLOAD PUSH2 0x911 SWAP1 PUSH2 0x3FD5 JUMP JUMPDEST PUSH2 0x1AFB CALLER DUP4 DUP4 PUSH2 0x2FC6 JUMP JUMPDEST POP POP JUMP JUMPDEST PUSH1 0x1 PUSH1 0x1 PUSH1 0xA0 SHL SUB DUP3 AND PUSH1 0x0 SWAP1 DUP2 MSTORE PUSH1 0xD PUSH1 0x20 MSTORE PUSH1 0x40 DUP2 KECCAK256 PUSH1 0x7 ADD SLOAD PUSH1 0x60 SWAP2 DUP5 SWAP1 DUP4 SWAP1 JUMPDEST PUSH1 0xC SLOAD DUP2 PUSH1 0xFF AND LT ISZERO PUSH2 0x12F7 JUMPI PUSH1 0x0 DUP2 PUSH1 0xFF AND DUP8 PUSH1 0xC SLOAD PUSH2 0x1B44 SWAP2 SWAP1 PUSH2 0x415C JUMP JUMPDEST PUSH2 0x1B4F DUP8 PUSH1 0x1 PUSH2 0x4073 JUMP JUMPDEST PUSH2 0x1B59 SWAP2 SWAP1 PUSH2 0x4073 JUMP JUMPDEST PUSH2 0x1B63 SWAP2 SWAP1 PUSH2 0x4073 JUMP JUMPDEST GT ISZERO PUSH2 0x12F7 JUMPI PUSH1 0x1 PUSH1 0x1 PUSH1 0xA0 SHL SUB DUP4 AND PUSH1 0x0 SWAP1 DUP2 MSTORE PUSH1 0xD PUSH1 0x20 MSTORE PUSH1 0x40 SWAP1 KECCAK256 PUSH1 0xC SLOAD PUSH1 0x7 SWAP1 SWAP2 ADD SWAP1 PUSH1 0xFF DUP4 AND SWAP1 PUSH2 0x1B9A SWAP1 DUP10 SWAP1 PUSH2 0x415C JUMP JUMPDEST PUSH2 0x1BA4 SWAP1 DUP8 PUSH2 0x4073 JUMP JUMPDEST PUSH2 0x1BAE SWAP2 SWAP1 PUSH2 0x4073 JUMP JUMPDEST DUP2 SLOAD DUP2 LT PUSH2 0x1BBE JUMPI PUSH2 0x1BBE PUSH2 0x408A JUMP JUMPDEST SWAP1 PUSH1 0x0 MSTORE PUSH1 0x20 PUSH1 0x0 KECCAK256 ADD SLOAD DUP3 DUP3 PUSH1 0xFF AND DUP2 MLOAD DUP2 LT PUSH2 0x1BDE JUMPI PUSH2 0x1BDE PUSH2 0x408A JUMP JUMPDEST PUSH1 0x20 SWAP1 DUP2 MUL SWAP2 SWAP1 SWAP2 ADD ADD MSTORE DUP1 PUSH2 0x1BF3 DUP2 PUSH2 0x40A0 JUMP JUMPDEST SWAP2 POP POP PUSH2 0x1B23 JUMP JUMPDEST PUSH1 0x1 PUSH1 0x1 PUSH1 0xA0 SHL SUB DUP3 AND PUSH1 0x0 SWAP1 DUP2 MSTORE PUSH1 0xD PUSH1 0x20 MSTORE PUSH1 0x40 DUP2 KECCAK256 PUSH1 0xB ADD SLOAD PUSH1 0x60 SWAP2 DUP5 SWAP1 DUP4 SWAP1 JUMPDEST PUSH1 0xC SLOAD DUP2 PUSH1 0xFF AND LT ISZERO PUSH2 0x12F7 JUMPI PUSH1 0x0 DUP2 PUSH1 0xFF AND DUP8 PUSH1 0xFF AND PUSH1 0xC SLOAD PUSH2 0x1C43 SWAP2 SWAP1 PUSH2 0x415C JUMP JUMPDEST PUSH2 0x1C4E DUP8 PUSH1 0x1 PUSH2 0x4073 JUMP JUMPDEST PUSH2 0x1C58 SWAP2 SWAP1 PUSH2 0x4073 JUMP JUMPDEST PUSH2 0x1C62 SWAP2 SWAP1 PUSH2 0x4073 JUMP JUMPDEST GT ISZERO PUSH2 0x12F7 JUMPI PUSH1 0x1 PUSH1 0x1 PUSH1 0xA0 SHL SUB DUP4 AND PUSH1 0x0 SWAP1 DUP2 MSTORE PUSH1 0xD PUSH1 0x20 MSTORE PUSH1 0x40 SWAP1 KECCAK256 PUSH1 0xC SLOAD PUSH1 0xB SWAP1 SWAP2 ADD SWAP1 PUSH1 0xFF DUP1 DUP5 AND SWAP2 PUSH2 0x1C9B SWAP2 DUP11 AND SWAP1 PUSH2 0x415C JUMP JUMPDEST PUSH2 0x1CA5 SWAP1 DUP8 PUSH2 0x4073 JUMP JUMPDEST PUSH2 0x1CAF SWAP2 SWAP1 PUSH2 0x4073 JUMP JUMPDEST DUP2 SLOAD DUP2 LT PUSH2 0x1CBF JUMPI PUSH2 0x1CBF PUSH2 0x408A JUMP JUMPDEST SWAP1 PUSH1 0x0 MSTORE PUSH1 0x20 PUSH1 0x0 KECCAK256 ADD SLOAD DUP3 DUP3 PUSH1 0xFF AND DUP2 MLOAD DUP2 LT PUSH2 0x1CDF JUMPI PUSH2 0x1CDF PUSH2 0x408A JUMP JUMPDEST PUSH1 0x20 SWAP1 DUP2 MUL SWAP2 SWAP1 SWAP2 ADD ADD MSTORE DUP1 PUSH2 0x1CF4 DUP2 PUSH2 0x40A0 JUMP JUMPDEST SWAP2 POP POP PUSH2 0x1C1F JUMP JUMPDEST CALLER PUSH1 0x0 DUP2 DUP2 MSTORE PUSH1 0xD PUSH1 0x20 SWAP1 DUP2 MSTORE PUSH1 0x40 SWAP1 SWAP2 KECCAK256 DUP6 DUP2 SSTORE DUP5 MLOAD PUSH2 0x1D25 SWAP3 PUSH1 0x1 SWAP1 SWAP3 ADD SWAP2 DUP7 ADD SWAP1 PUSH2 0x3A14 JUMP JUMPDEST POP PUSH1 0x1 PUSH1 0x1 PUSH1 0xA0 SHL SUB DUP2 AND PUSH1 0x0 SWAP1 DUP2 MSTORE PUSH1 0xD PUSH1 0x20 SWAP1 DUP2 MSTORE PUSH1 0x40 SWAP1 SWAP2 KECCAK256 DUP4 MLOAD PUSH2 0x1D55 SWAP3 PUSH1 0x2 SWAP1 SWAP3 ADD SWAP2 DUP6 ADD SWAP1 PUSH2 0x3A14 JUMP JUMPDEST POP PUSH2 0x1D69 CALLER DUP3 PUSH1 0x1 PUSH1 0x1 PUSH1 0xA0 SHL SUB AND PUSH2 0x3094 JUMP JUMPDEST PUSH1 0x40 MLOAD DUP5 SWAP1 CALLER SWAP1 PUSH32 0x508D82227DB28D6B1BDBD8610867F3407456BE7471ED967F765033261A00209B SWAP1 PUSH1 0x0 SWAP1 LOG3 POP POP POP POP JUMP JUMPDEST PUSH2 0x1DA6 CALLER DUP4 PUSH2 0x29EF JUMP JUMPDEST PUSH2 0x1DC2 JUMPI PUSH1 0x40 MLOAD PUSH3 0x461BCD PUSH1 0xE5 SHL DUP2 MSTORE PUSH1 0x4 ADD PUSH2 0xA2F SWAP1 PUSH2 0x400F JUMP JUMPDEST PUSH2 0x1DCE DUP5 DUP5 DUP5 DUP5 PUSH2 0x31D3 JUMP JUMPDEST POP POP POP POP JUMP JUMPDEST PUSH1 0x1 PUSH1 0x1 PUSH1 0xA0 SHL SUB DUP3 AND PUSH1 0x0 SWAP1 DUP2 MSTORE PUSH1 0xD PUSH1 0x20 MSTORE PUSH1 0x40 SWAP1 KECCAK256 PUSH1 0x7 ADD SLOAD PUSH1 0x60 SWAP1 DUP4 PUSH1 0xFF DUP5 AND DUP3 GT ISZERO PUSH2 0x1EA8 JUMPI PUSH1 0x60 PUSH1 0x0 JUMPDEST DUP6 PUSH1 0xFF AND DUP2 PUSH1 0xFF AND LT ISZERO PUSH2 0xEC4 JUMPI PUSH1 0x0 PUSH1 0xFF DUP3 AND PUSH2 0x1E23 DUP7 PUSH1 0x1 PUSH2 0x4073 JUMP JUMPDEST PUSH2 0x1E2D SWAP2 SWAP1 PUSH2 0x4073 JUMP JUMPDEST GT ISZERO PUSH2 0xEC4 JUMPI PUSH1 0x1 PUSH1 0x1 PUSH1 0xA0 SHL SUB DUP4 AND PUSH1 0x0 SWAP1 DUP2 MSTORE PUSH1 0xD PUSH1 0x20 MSTORE PUSH1 0x40 SWAP1 KECCAK256 PUSH1 0x7 ADD PUSH2 0x1E5B PUSH1 0xFF DUP4 AND DUP7 PUSH2 0x4073 JUMP JUMPDEST DUP2 SLOAD DUP2 LT PUSH2 0x1E6B JUMPI PUSH2 0x1E6B PUSH2 0x408A JUMP JUMPDEST SWAP1 PUSH1 0x0 MSTORE PUSH1 0x20 PUSH1 0x0 KECCAK256 ADD SLOAD DUP3 DUP3 PUSH1 0xFF AND DUP2 MLOAD DUP2 LT PUSH2 0x1E8B JUMPI PUSH2 0x1E8B PUSH2 0x408A JUMP JUMPDEST PUSH1 0x20 SWAP1 DUP2 MUL SWAP2 SWAP1 SWAP2 ADD ADD MSTORE DUP1 PUSH2 0x1EA0 DUP2 PUSH2 0x40A0 JUMP JUMPDEST SWAP2 POP POP PUSH2 0x1E04 JUMP JUMPDEST PUSH1 0x1 PUSH1 0x1 PUSH1 0xA0 SHL SUB DUP6 AND PUSH1 0x0 SWAP1 DUP2 MSTORE PUSH1 0xD PUSH1 0x20 SWAP1 DUP2 MSTORE PUSH1 0x40 SWAP2 DUP3 SWAP1 KECCAK256 PUSH1 0x7 ADD DUP1 SLOAD DUP4 MLOAD DUP2 DUP5 MUL DUP2 ADD DUP5 ADD SWAP1 SWAP5 MSTORE DUP1 DUP5 MSTORE SWAP1 SWAP2 DUP4 ADD DUP3 DUP3 DUP1 ISZERO PUSH2 0xF30 JUMPI PUSH1 0x20 MUL DUP3 ADD SWAP2 SWAP1 PUSH1 0x0 MSTORE PUSH1 0x20 PUSH1 0x0 KECCAK256 SWAP1 DUP2 SLOAD DUP2 MSTORE PUSH1 0x20 ADD SWAP1 PUSH1 0x1 ADD SWAP1 DUP1 DUP4 GT PUSH2 0xF1C JUMPI POP POP POP POP POP SWAP3 POP POP POP PUSH2 0x8FC JUMP JUMPDEST PUSH1 0x1 PUSH1 0x1 PUSH1 0xA0 SHL SUB DUP2 AND PUSH1 0x0 SWAP1 DUP2 MSTORE PUSH1 0xD PUSH1 0x20 SWAP1 DUP2 MSTORE PUSH1 0x40 SWAP2 DUP3 SWAP1 KECCAK256 PUSH1 0x3 ADD DUP1 SLOAD DUP4 MLOAD DUP2 DUP5 MUL DUP2 ADD DUP5 ADD SWAP1 SWAP5 MSTORE DUP1 DUP5 MSTORE PUSH1 0x60 SWAP4 SWAP3 DUP4 ADD DUP3 DUP3 DUP1 ISZERO PUSH2 0xCA1 JUMPI PUSH1 0x20 MUL DUP3 ADD SWAP2 SWAP1 PUSH1 0x0 MSTORE PUSH1 0x20 PUSH1 0x0 KECCAK256 SWAP1 JUMPDEST DUP2 SLOAD PUSH1 0x1 PUSH1 0x1 PUSH1 0xA0 SHL SUB AND DUP2 MSTORE PUSH1 0x1 SWAP1 SWAP2 ADD SWAP1 PUSH1 0x20 ADD DUP1 DUP4 GT PUSH2 0x1F64 JUMPI POP POP POP POP POP SWAP1 POP SWAP2 SWAP1 POP JUMP JUMPDEST PUSH1 0x60 PUSH2 0x1F98 DUP3 PUSH2 0x2931 JUMP JUMPDEST PUSH1 0x0 PUSH2 0x1FAF PUSH1 0x40 DUP1 MLOAD PUSH1 0x20 DUP2 ADD SWAP1 SWAP2 MSTORE PUSH1 0x0 DUP2 MSTORE SWAP1 JUMP JUMPDEST SWAP1 POP PUSH1 0x0 DUP2 MLOAD GT PUSH2 0x1FCF JUMPI PUSH1 0x40 MLOAD DUP1 PUSH1 0x20 ADD PUSH1 0x40 MSTORE DUP1 PUSH1 0x0 DUP2 MSTORE POP PUSH2 0x1FFA JUMP JUMPDEST DUP1 PUSH2 0x1FD9 DUP5 PUSH2 0x3206 JUMP JUMPDEST PUSH1 0x40 MLOAD PUSH1 0x20 ADD PUSH2 0x1FEA SWAP3 SWAP2 SWAP1 PUSH2 0x4191 JUMP JUMPDEST PUSH1 0x40 MLOAD PUSH1 0x20 DUP2 DUP4 SUB SUB DUP2 MSTORE SWAP1 PUSH1 0x40 MSTORE JUMPDEST SWAP4 SWAP3 POP POP POP JUMP JUMPDEST PUSH1 0x1 PUSH1 0x1 PUSH1 0xA0 SHL SUB DUP3 AND PUSH1 0x0 SWAP1 DUP2 MSTORE PUSH1 0xD PUSH1 0x20 MSTORE PUSH1 0x40 DUP2 KECCAK256 PUSH1 0x5 ADD SLOAD PUSH1 0xC SLOAD PUSH1 0x60 SWAP3 DUP6 SWAP2 PUSH8 0xFFFFFFFFFFFFFFFF DUP2 GT ISZERO PUSH2 0x203D JUMPI PUSH2 0x203D PUSH2 0x3CB2 JUMP JUMPDEST PUSH1 0x40 MLOAD SWAP1 DUP1 DUP3 MSTORE DUP1 PUSH1 0x20 MUL PUSH1 0x20 ADD DUP3 ADD PUSH1 0x40 MSTORE DUP1 ISZERO PUSH2 0x2066 JUMPI DUP2 PUSH1 0x20 ADD PUSH1 0x20 DUP3 MUL DUP1 CALLDATASIZE DUP4 CALLDATACOPY ADD SWAP1 POP JUMPDEST POP SWAP1 POP PUSH1 0x0 JUMPDEST PUSH1 0xC SLOAD DUP2 PUSH1 0xFF AND LT ISZERO PUSH2 0x12F7 JUMPI PUSH1 0x0 DUP2 PUSH1 0xFF AND DUP8 PUSH1 0xFF AND PUSH1 0xC SLOAD PUSH2 0x2090 SWAP2 SWAP1 PUSH2 0x415C JUMP JUMPDEST PUSH2 0x209B DUP8 PUSH1 0x1 PUSH2 0x4073 JUMP JUMPDEST PUSH2 0x20A5 SWAP2 SWAP1 PUSH2 0x4073 JUMP JUMPDEST PUSH2 0x20AF SWAP2 SWAP1 PUSH2 0x4073 JUMP JUMPDEST GT ISZERO PUSH2 0x12F7 JUMPI PUSH1 0x1 PUSH1 0x1 PUSH1 0xA0 SHL SUB DUP4 AND PUSH1 0x0 SWAP1 DUP2 MSTORE PUSH1 0xD PUSH1 0x20 MSTORE PUSH1 0x40 SWAP1 KECCAK256 PUSH1 0xC SLOAD PUSH1 0x5 SWAP1 SWAP2 ADD SWAP1 PUSH1 0xFF DUP1 DUP5 AND SWAP2 PUSH2 0x20E8 SWAP2 DUP11 AND SWAP1 PUSH2 0x415C JUMP JUMPDEST PUSH2 0x20F2 SWAP1 DUP8 PUSH2 0x4073 JUMP JUMPDEST PUSH2 0x20FC SWAP2 SWAP1 PUSH2 0x4073 JUMP JUMPDEST DUP2 SLOAD DUP2 LT PUSH2 0x210C JUMPI PUSH2 0x210C PUSH2 0x408A JUMP JUMPDEST SWAP1 PUSH1 0x0 MSTORE PUSH1 0x20 PUSH1 0x0 KECCAK256 ADD PUSH1 0x0 SWAP1 SLOAD SWAP1 PUSH2 0x100 EXP SWAP1 DIV PUSH1 0x1 PUSH1 0x1 PUSH1 0xA0 SHL SUB AND DUP3 DUP3 PUSH1 0xFF AND DUP2 MLOAD DUP2 LT PUSH2 0x213F JUMPI PUSH2 0x213F PUSH2 0x408A JUMP JUMPDEST PUSH1 0x1 PUSH1 0x1 PUSH1 0xA0 SHL SUB SWAP1 SWAP3 AND PUSH1 0x20 SWAP3 DUP4 MUL SWAP2 SWAP1 SWAP2 ADD SWAP1 SWAP2 ADD MSTORE PUSH1 0xC SLOAD PUSH1 0x2 SWAP1 PUSH1 0xFF DUP1 DUP5 AND SWAP2 PUSH2 0x216F SWAP2 DUP11 AND SWAP1 PUSH2 0x415C JUMP JUMPDEST PUSH2 0x217A DUP8 PUSH1 0x1 PUSH2 0x4073 JUMP JUMPDEST PUSH2 0x2184 SWAP2 SWAP1 PUSH2 0x4073 JUMP JUMPDEST PUSH2 0x218E SWAP2 SWAP1 PUSH2 0x4073 JUMP JUMPDEST PUSH1 0x0 SUB PUSH2 0x2199 JUMPI POP PUSH1 0x3 JUMPDEST POP DUP1 PUSH2 0x21A4 DUP2 PUSH2 0x40A0 JUMP JUMPDEST SWAP2 POP POP PUSH2 0x206C JUMP JUMPDEST PUSH1 0x1 PUSH1 0x1 PUSH1 0xA0 SHL SUB DUP2 AND PUSH1 0x0 SWAP1 DUP2 MSTORE PUSH1 0xD PUSH1 0x20 SWAP1 DUP2 MSTORE PUSH1 0x40 SWAP2 DUP3 SWAP1 KECCAK256 PUSH1 0x5 ADD DUP1 SLOAD DUP4 MLOAD DUP2 DUP5 MUL DUP2 ADD DUP5 ADD SWAP1 SWAP5 MSTORE DUP1 DUP5 MSTORE PUSH1 0x60 SWAP4 SWAP3 DUP4 ADD DUP3 DUP3 DUP1 ISZERO PUSH2 0xCA1 JUMPI PUSH1 0x20 MUL DUP3 ADD SWAP2 SWAP1 PUSH1 0x0 MSTORE PUSH1 0x20 PUSH1 0x0 KECCAK256 SWAP1 DUP2 SLOAD PUSH1 0x1 PUSH1 0x1 PUSH1 0xA0 SHL SUB AND DUP2 MSTORE PUSH1 0x1 SWAP1 SWAP2 ADD SWAP1 PUSH1 0x20 ADD DUP1 DUP4 GT PUSH2 0x1F64 JUMPI POP POP POP POP POP SWAP1 POP SWAP2 SWAP1 POP JUMP JUMPDEST PUSH2 0x222B PUSH2 0x2C15 JUMP JUMPDEST PUSH1 0xB DUP1 SLOAD PUSH1 0x1 PUSH1 0x1 PUSH1 0xA0 SHL SUB NOT AND PUSH1 0x1 PUSH1 0x1 PUSH1 0xA0 SHL SUB SWAP3 SWAP1 SWAP3 AND SWAP2 SWAP1 SWAP2 OR SWAP1 SSTORE JUMP JUMPDEST PUSH1 0xB SLOAD PUSH1 0x1 PUSH1 0x1 PUSH1 0xA0 SHL SUB AND PUSH2 0x2275 JUMPI PUSH1 0x40 MLOAD PUSH3 0x461BCD PUSH1 0xE5 SHL DUP2 MSTORE PUSH1 0x4 ADD PUSH2 0xA2F SWAP1 PUSH2 0x40BF JUMP JUMPDEST PUSH1 0x0 PUSH2 0x227F PUSH2 0x2C75 JUMP JUMPDEST PUSH1 0x1 PUSH1 0x1 PUSH1 0xA0 SHL SUB DUP2 DUP2 AND PUSH1 0x0 DUP2 DUP2 MSTORE PUSH1 0xD PUSH1 0x20 DUP2 DUP2 MSTORE PUSH1 0x40 DUP1 DUP5 KECCAK256 PUSH1 0x7 DUP2 ADD DUP1 SLOAD DUP12 DUP8 MSTORE PUSH1 0x8 SWAP1 SWAP3 ADD DUP5 MSTORE DUP3 DUP7 KECCAK256 DUP3 SWAP1 SSTORE SWAP4 DUP4 MSTORE PUSH1 0x1 DUP2 ADD DUP5 SSTORE SWAP3 DUP5 MSTORE SWAP3 KECCAK256 ADD DUP7 SWAP1 SSTORE PUSH1 0xB SLOAD SWAP1 MLOAD PUSH3 0x9A6F97 PUSH1 0xE3 SHL DUP2 MSTORE PUSH1 0x4 DUP2 ADD DUP8 SWAP1 MSTORE PUSH1 0x24 DUP2 ADD SWAP3 SWAP1 SWAP3 MSTORE SWAP3 SWAP4 POP SWAP2 AND SWAP1 PUSH4 0x4D37CB8 SWAP1 PUSH1 0x44 ADD PUSH1 0x0 PUSH1 0x40 MLOAD DUP1 DUP4 SUB DUP2 PUSH1 0x0 DUP8 DUP1 EXTCODESIZE ISZERO DUP1 ISZERO PUSH2 0x2309 JUMPI PUSH1 0x0 DUP1 REVERT JUMPDEST POP GAS CALL ISZERO DUP1 ISZERO PUSH2 0x231D JUMPI RETURNDATASIZE PUSH1 0x0 DUP1 RETURNDATACOPY RETURNDATASIZE PUSH1 0x0 REVERT JUMPDEST POP POP POP POP DUP2 PUSH2 0x2329 CALLER SWAP1 JUMP JUMPDEST PUSH1 0x1 PUSH1 0x1 PUSH1 0xA0 SHL SUB AND PUSH32 0x4EAD190C1EE5C17D621C4E7BC97DB0676F08A4733C66C3A3F9DEAE9C9BBE4B79 PUSH1 0x40 MLOAD PUSH1 0x40 MLOAD DUP1 SWAP2 SUB SWAP1 LOG3 POP POP JUMP JUMPDEST PUSH1 0x0 PUSH2 0x236C PUSH2 0x2C75 JUMP JUMPDEST PUSH1 0x1 PUSH1 0x1 PUSH1 0xA0 SHL SUB DUP2 AND PUSH1 0x0 SWAP1 DUP2 MSTORE PUSH1 0xD PUSH1 0x20 SWAP1 DUP2 MSTORE PUSH1 0x40 SWAP1 SWAP2 KECCAK256 DUP5 MLOAD SWAP3 SWAP4 POP PUSH2 0x8B7 SWAP3 PUSH1 0x1 SWAP1 SWAP2 ADD SWAP2 DUP6 ADD SWAP1 PUSH2 0x3A14 JUMP JUMPDEST PUSH2 0x23A6 PUSH2 0x2C15 JUMP JUMPDEST PUSH1 0x1 PUSH1 0x1 PUSH1 0xA0 SHL SUB DUP2 AND PUSH2 0x240B JUMPI PUSH1 0x40 MLOAD PUSH3 0x461BCD PUSH1 0xE5 SHL DUP2 MSTORE PUSH1 0x20 PUSH1 0x4 DUP3 ADD MSTORE PUSH1 0x26 PUSH1 0x24 DUP3 ADD MSTORE PUSH32 0x4F776E61626C653A206E6577206F776E657220697320746865207A65726F2061 PUSH1 0x44 DUP3 ADD MSTORE PUSH6 0x646472657373 PUSH1 0xD0 SHL PUSH1 0x64 DUP3 ADD MSTORE PUSH1 0x84 ADD PUSH2 0xA2F JUMP JUMPDEST PUSH2 0xF87 DUP2 PUSH2 0x2F6C JUMP JUMPDEST PUSH1 0x1 PUSH1 0x1 PUSH1 0xA0 SHL SUB DUP2 AND PUSH1 0x0 SWAP1 DUP2 MSTORE PUSH1 0xD PUSH1 0x20 SWAP1 DUP2 MSTORE PUSH1 0x40 SWAP2 DUP3 SWAP1 KECCAK256 PUSH1 0x7 ADD DUP1 SLOAD DUP4 MLOAD DUP2 DUP5 MUL DUP2 ADD DUP5 ADD SWAP1 SWAP5 MSTORE DUP1 DUP5 MSTORE PUSH1 0x60 SWAP4 SWAP3 DUP4 ADD DUP3 DUP3 DUP1 ISZERO PUSH2 0xCA1 JUMPI PUSH1 0x20 MUL DUP3 ADD SWAP2 SWAP1 PUSH1 0x0 MSTORE PUSH1 0x20 PUSH1 0x0 KECCAK256 SWAP1 DUP2 SLOAD DUP2 MSTORE PUSH1 0x20 ADD SWAP1 PUSH1 0x1 ADD SWAP1 DUP1 DUP4 GT PUSH2 0xC8D JUMPI POP POP POP POP POP SWAP1 POP SWAP2 SWAP1 POP JUMP JUMPDEST DUP2 PUSH2 0x2494 DUP2 PUSH1 0x1 PUSH1 0x1 PUSH1 0xA0 SHL SUB AND PUSH2 0x3307 JUMP JUMPDEST PUSH2 0x24B0 JUMPI PUSH1 0x40 MLOAD PUSH3 0x461BCD PUSH1 0xE5 SHL DUP2 MSTORE PUSH1 0x4 ADD PUSH2 0xA2F SWAP1 PUSH2 0x41C0 JUMP JUMPDEST DUP2 PUSH2 0x24C3 DUP2 PUSH1 0x1 PUSH1 0x1 PUSH1 0xA0 SHL SUB AND PUSH2 0x3307 JUMP JUMPDEST PUSH2 0x24DF JUMPI PUSH1 0x40 MLOAD PUSH3 0x461BCD PUSH1 0xE5 SHL DUP2 MSTORE PUSH1 0x4 ADD PUSH2 0xA2F SWAP1 PUSH2 0x41C0 JUMP JUMPDEST PUSH1 0x1 PUSH1 0x1 PUSH1 0xA0 SHL SUB DUP5 AND PUSH1 0x0 SWAP1 DUP2 MSTORE PUSH1 0xD PUSH1 0x20 MSTORE PUSH1 0x40 SWAP1 KECCAK256 PUSH1 0x5 ADD SLOAD PUSH2 0x2517 JUMPI PUSH1 0x40 MLOAD PUSH3 0x461BCD PUSH1 0xE5 SHL DUP2 MSTORE PUSH1 0x4 ADD PUSH2 0xA2F SWAP1 PUSH2 0x41F7 JUMP JUMPDEST PUSH1 0x1 PUSH1 0x1 PUSH1 0xA0 SHL SUB DUP1 DUP6 AND PUSH1 0x0 DUP2 DUP2 MSTORE PUSH1 0xD PUSH1 0x20 DUP2 DUP2 MSTORE PUSH1 0x40 DUP1 DUP5 KECCAK256 SWAP6 DUP10 AND DUP5 MSTORE PUSH1 0x6 DUP7 ADD DUP3 MSTORE DUP4 KECCAK256 SLOAD SWAP4 DUP4 MSTORE MSTORE PUSH1 0x5 SWAP1 SWAP3 ADD SLOAD SWAP1 SWAP2 DUP3 SWAP1 SUB PUSH2 0x25B7 JUMPI PUSH1 0x1 PUSH1 0x1 PUSH1 0xA0 SHL SUB DUP7 DUP2 AND PUSH1 0x0 SWAP1 DUP2 MSTORE PUSH1 0xD PUSH1 0x20 MSTORE PUSH1 0x40 DUP2 KECCAK256 PUSH1 0x5 ADD DUP1 SLOAD SWAP3 DUP9 AND SWAP3 SWAP1 SWAP2 SWAP1 PUSH2 0x2585 JUMPI PUSH2 0x2585 PUSH2 0x408A JUMP JUMPDEST PUSH1 0x0 SWAP2 DUP3 MSTORE PUSH1 0x20 SWAP1 SWAP2 KECCAK256 ADD SLOAD PUSH1 0x1 PUSH1 0x1 PUSH1 0xA0 SHL SUB AND EQ PUSH2 0x25B7 JUMPI PUSH1 0x40 MLOAD PUSH3 0x461BCD PUSH1 0xE5 SHL DUP2 MSTORE PUSH1 0x4 ADD PUSH2 0xA2F SWAP1 PUSH2 0x41F7 JUMP JUMPDEST PUSH2 0x25C2 PUSH1 0x1 DUP3 PUSH2 0x4073 JUMP JUMPDEST DUP3 EQ PUSH2 0x26CA JUMPI PUSH1 0x1 PUSH1 0x1 PUSH1 0xA0 SHL SUB DUP7 AND PUSH1 0x0 SWAP1 DUP2 MSTORE PUSH1 0xD PUSH1 0x20 MSTORE PUSH1 0x40 DUP2 KECCAK256 DUP4 SWAP2 PUSH1 0x6 DUP3 ADD SWAP2 PUSH1 0x5 ADD PUSH2 0x25F5 PUSH1 0x1 DUP7 PUSH2 0x4073 JUMP JUMPDEST DUP2 SLOAD DUP2 LT PUSH2 0x2605 JUMPI PUSH2 0x2605 PUSH2 0x408A JUMP JUMPDEST PUSH1 0x0 SWAP2 DUP3 MSTORE PUSH1 0x20 DUP1 DUP4 KECCAK256 SWAP1 SWAP2 ADD SLOAD PUSH1 0x1 PUSH1 0x1 PUSH1 0xA0 SHL SUB SWAP1 DUP2 AND DUP5 MSTORE DUP4 DUP3 ADD SWAP5 SWAP1 SWAP5 MSTORE PUSH1 0x40 SWAP3 DUP4 ADD DUP3 KECCAK256 SWAP5 SWAP1 SWAP5 SSTORE SWAP2 DUP10 AND DUP3 MSTORE PUSH1 0xD SWAP1 SWAP3 MSTORE KECCAK256 PUSH1 0x5 ADD PUSH2 0x264B PUSH1 0x1 DUP4 PUSH2 0x4073 JUMP JUMPDEST DUP2 SLOAD DUP2 LT PUSH2 0x265B JUMPI PUSH2 0x265B PUSH2 0x408A JUMP JUMPDEST PUSH1 0x0 SWAP2 DUP3 MSTORE PUSH1 0x20 DUP1 DUP4 KECCAK256 SWAP1 SWAP2 ADD SLOAD PUSH1 0x1 PUSH1 0x1 PUSH1 0xA0 SHL SUB DUP10 DUP2 AND DUP5 MSTORE PUSH1 0xD SWAP1 SWAP3 MSTORE PUSH1 0x40 SWAP1 SWAP3 KECCAK256 PUSH1 0x5 ADD DUP1 SLOAD SWAP2 SWAP1 SWAP3 AND SWAP2 SWAP1 DUP5 SWAP1 DUP2 LT PUSH2 0x269B JUMPI PUSH2 0x269B PUSH2 0x408A JUMP JUMPDEST SWAP1 PUSH1 0x0 MSTORE PUSH1 0x20 PUSH1 0x0 KECCAK256 ADD PUSH1 0x0 PUSH2 0x100 EXP DUP2 SLOAD DUP2 PUSH1 0x1 PUSH1 0x1 PUSH1 0xA0 SHL SUB MUL NOT AND SWAP1 DUP4 PUSH1 0x1 PUSH1 0x1 PUSH1 0xA0 SHL SUB AND MUL OR SWAP1 SSTORE POP JUMPDEST PUSH1 0x1 PUSH1 0x1 PUSH1 0xA0 SHL SUB DUP7 AND PUSH1 0x0 SWAP1 DUP2 MSTORE PUSH1 0xD PUSH1 0x20 MSTORE PUSH1 0x40 SWAP1 KECCAK256 PUSH1 0x5 ADD DUP1 SLOAD DUP1 PUSH2 0x26F4 JUMPI PUSH2 0x26F4 PUSH2 0x417B JUMP JUMPDEST PUSH1 0x0 DUP3 DUP2 MSTORE PUSH1 0x20 DUP1 DUP3 KECCAK256 DUP4 ADD PUSH1 0x0 NOT SWAP1 DUP2 ADD DUP1 SLOAD PUSH1 0x1 PUSH1 0x1 PUSH1 0xA0 SHL SUB NOT AND SWAP1 SSTORE SWAP1 SWAP3 ADD SWAP1 SWAP3 SSTORE PUSH1 0x1 PUSH1 0x1 PUSH1 0xA0 SHL SUB SWAP8 DUP9 AND DUP3 MSTORE PUSH1 0xD DUP2 MSTORE PUSH1 0x40 DUP1 DUP4 KECCAK256 SWAP8 SWAP1 SWAP9 AND DUP3 MSTORE PUSH1 0x6 SWAP1 SWAP7 ADD SWAP1 SWAP6 MSTORE POP POP POP SWAP2 DUP2 KECCAK256 SSTORE POP JUMP JUMPDEST PUSH1 0x1 PUSH1 0x1 PUSH1 0xA0 SHL SUB DUP1 DUP3 AND PUSH1 0x0 DUP2 DUP2 MSTORE PUSH1 0xD PUSH1 0x20 DUP2 DUP2 MSTORE PUSH1 0x40 DUP1 DUP5 KECCAK256 SWAP6 DUP9 AND DUP5 MSTORE PUSH1 0x4 DUP7 ADD DUP3 MSTORE DUP4 KECCAK256 SLOAD SWAP4 SWAP1 SWAP3 MSTORE SWAP1 MSTORE PUSH1 0x3 SWAP1 SWAP2 ADD SLOAD PUSH2 0x2789 PUSH1 0x1 DUP3 PUSH2 0x4073 JUMP JUMPDEST DUP3 EQ PUSH2 0x2891 JUMPI PUSH1 0x1 PUSH1 0x1 PUSH1 0xA0 SHL SUB DUP4 AND PUSH1 0x0 SWAP1 DUP2 MSTORE PUSH1 0xD PUSH1 0x20 MSTORE PUSH1 0x40 DUP2 KECCAK256 DUP4 SWAP2 PUSH1 0x4 DUP3 ADD SWAP2 PUSH1 0x3 ADD PUSH2 0x27BC PUSH1 0x1 DUP7 PUSH2 0x4073 JUMP JUMPDEST DUP2 SLOAD DUP2 LT PUSH2 0x27CC JUMPI PUSH2 0x27CC PUSH2 0x408A JUMP JUMPDEST PUSH1 0x0 SWAP2 DUP3 MSTORE PUSH1 0x20 DUP1 DUP4 KECCAK256 SWAP1 SWAP2 ADD SLOAD PUSH1 0x1 PUSH1 0x1 PUSH1 0xA0 SHL SUB SWAP1 DUP2 AND DUP5 MSTORE DUP4 DUP3 ADD SWAP5 SWAP1 SWAP5 MSTORE PUSH1 0x40 SWAP3 DUP4 ADD DUP3 KECCAK256 SWAP5 SWAP1 SWAP5 SSTORE SWAP2 DUP7 AND DUP3 MSTORE PUSH1 0xD SWAP1 SWAP3 MSTORE KECCAK256 PUSH1 0x3 ADD PUSH2 0x2812 PUSH1 0x1 DUP4 PUSH2 0x4073 JUMP JUMPDEST DUP2 SLOAD DUP2 LT PUSH2 0x2822 JUMPI PUSH2 0x2822 PUSH2 0x408A JUMP JUMPDEST PUSH1 0x0 SWAP2 DUP3 MSTORE PUSH1 0x20 DUP1 DUP4 KECCAK256 SWAP1 SWAP2 ADD SLOAD PUSH1 0x1 PUSH1 0x1 PUSH1 0xA0 SHL SUB DUP7 DUP2 AND DUP5 MSTORE PUSH1 0xD SWAP1 SWAP3 MSTORE PUSH1 0x40 SWAP1 SWAP3 KECCAK256 PUSH1 0x3 ADD DUP1 SLOAD SWAP2 SWAP1 SWAP3 AND SWAP2 SWAP1 DUP5 SWAP1 DUP2 LT PUSH2 0x2862 JUMPI PUSH2 0x2862 PUSH2 0x408A JUMP JUMPDEST SWAP1 PUSH1 0x0 MSTORE PUSH1 0x20 PUSH1 0x0 KECCAK256 ADD PUSH1 0x0 PUSH2 0x100 EXP DUP2 SLOAD DUP2 PUSH1 0x1 PUSH1 0x1 PUSH1 0xA0 SHL SUB MUL NOT AND SWAP1 DUP4 PUSH1 0x1 PUSH1 0x1 PUSH1 0xA0 SHL SUB AND MUL OR SWAP1 SSTORE POP JUMPDEST PUSH1 0x1 PUSH1 0x1 PUSH1 0xA0 SHL SUB DUP4 AND PUSH1 0x0 SWAP1 DUP2 MSTORE PUSH1 0xD PUSH1 0x20 MSTORE PUSH1 0x40 SWAP1 KECCAK256 PUSH1 0x3 ADD DUP1 SLOAD DUP1 PUSH2 0x28BB JUMPI PUSH2 0x28BB PUSH2 0x417B JUMP JUMPDEST PUSH1 0x0 DUP3 DUP2 MSTORE PUSH1 0x20 DUP1 DUP3 KECCAK256 DUP4 ADD PUSH1 0x0 NOT SWAP1 DUP2 ADD DUP1 SLOAD PUSH1 0x1 PUSH1 0x1 PUSH1 0xA0 SHL SUB NOT AND SWAP1 SSTORE SWAP1 SWAP3 ADD SWAP1 SWAP3 SSTORE PUSH1 0x1 PUSH1 0x1 PUSH1 0xA0 SHL SUB SWAP5 DUP6 AND DUP3 MSTORE PUSH1 0xD DUP2 MSTORE PUSH1 0x40 DUP1 DUP4 KECCAK256 SWAP7 SWAP1 SWAP6 AND DUP3 MSTORE PUSH1 0x4 SWAP1 SWAP6 ADD SWAP1 SWAP5 MSTORE POP POP DUP2 KECCAK256 SSTORE JUMP JUMPDEST PUSH1 0x0 PUSH1 0x1 PUSH1 0x1 PUSH1 0xE0 SHL SUB NOT DUP3 AND PUSH4 0x780E9D63 PUSH1 0xE0 SHL EQ DUP1 PUSH2 0x8FC JUMPI POP PUSH2 0x8FC DUP3 PUSH2 0x3324 JUMP JUMPDEST PUSH2 0x293A DUP2 PUSH2 0x3307 JUMP JUMPDEST PUSH2 0xF87 JUMPI PUSH1 0x40 MLOAD PUSH3 0x461BCD PUSH1 0xE5 SHL DUP2 MSTORE PUSH1 0x20 PUSH1 0x4 DUP3 ADD MSTORE PUSH1 0x18 PUSH1 0x24 DUP3 ADD MSTORE PUSH24 0x115490CDCC8C4E881A5B9D985B1A59081D1BDAD95B881251 PUSH1 0x42 SHL PUSH1 0x44 DUP3 ADD MSTORE PUSH1 0x64 ADD PUSH2 0xA2F JUMP JUMPDEST PUSH1 0x0 DUP2 DUP2 MSTORE PUSH1 0x4 PUSH1 0x20 MSTORE PUSH1 0x40 SWAP1 KECCAK256 DUP1 SLOAD PUSH1 0x1 PUSH1 0x1 PUSH1 0xA0 SHL SUB NOT AND PUSH1 0x1 PUSH1 0x1 PUSH1 0xA0 SHL SUB DUP5 AND SWAP1 DUP2 OR SWAP1 SWAP2 SSTORE DUP2 SWAP1 PUSH2 0x29B6 DUP3 PUSH2 0x119B JUMP JUMPDEST PUSH1 0x1 PUSH1 0x1 PUSH1 0xA0 SHL SUB AND PUSH32 0x8C5BE1E5EBEC7D5BD14F71427D1E84F3DD0314C0F7B2291E5B200AC8C7C3B925 PUSH1 0x40 MLOAD PUSH1 0x40 MLOAD DUP1 SWAP2 SUB SWAP1 LOG4 POP POP JUMP JUMPDEST PUSH1 0x0 DUP1 PUSH2 0x29FB DUP4 PUSH2 0x119B JUMP JUMPDEST SWAP1 POP DUP1 PUSH1 0x1 PUSH1 0x1 PUSH1 0xA0 SHL SUB AND DUP5 PUSH1 0x1 PUSH1 0x1 PUSH1 0xA0 SHL SUB AND EQ DUP1 PUSH2 0x2A42 JUMPI POP PUSH1 0x1 PUSH1 0x1 PUSH1 0xA0 SHL SUB DUP1 DUP3 AND PUSH1 0x0 SWAP1 DUP2 MSTORE PUSH1 0x5 PUSH1 0x20 SWAP1 DUP2 MSTORE PUSH1 0x40 DUP1 DUP4 KECCAK256 SWAP4 DUP9 AND DUP4 MSTORE SWAP3 SWAP1 MSTORE KECCAK256 SLOAD PUSH1 0xFF AND JUMPDEST DUP1 PUSH2 0x2A66 JUMPI POP DUP4 PUSH1 0x1 PUSH1 0x1 PUSH1 0xA0 SHL SUB AND PUSH2 0x2A5B DUP5 PUSH2 0x994 JUMP JUMPDEST PUSH1 0x1 PUSH1 0x1 PUSH1 0xA0 SHL SUB AND EQ JUMPDEST SWAP5 SWAP4 POP POP POP POP JUMP JUMPDEST DUP3 PUSH1 0x1 PUSH1 0x1 PUSH1 0xA0 SHL SUB AND PUSH2 0x2A81 DUP3 PUSH2 0x119B JUMP JUMPDEST PUSH1 0x1 PUSH1 0x1 PUSH1 0xA0 SHL SUB AND EQ PUSH2 0x2AE5 JUMPI PUSH1 0x40 MLOAD PUSH3 0x461BCD PUSH1 0xE5 SHL DUP2 MSTORE PUSH1 0x20 PUSH1 0x4 DUP3 ADD MSTORE PUSH1 0x25 PUSH1 0x24 DUP3 ADD MSTORE PUSH32 0x4552433732313A207472616E736665722066726F6D20696E636F727265637420 PUSH1 0x44 DUP3 ADD MSTORE PUSH5 0x37BBB732B9 PUSH1 0xD9 SHL PUSH1 0x64 DUP3 ADD MSTORE PUSH1 0x84 ADD PUSH2 0xA2F JUMP JUMPDEST PUSH1 0x1 PUSH1 0x1 PUSH1 0xA0 SHL SUB DUP3 AND PUSH2 0x2B47 JUMPI PUSH1 0x40 MLOAD PUSH3 0x461BCD PUSH1 0xE5 SHL DUP2 MSTORE PUSH1 0x20 PUSH1 0x4 DUP3 ADD MSTORE PUSH1 0x24 DUP1 DUP3 ADD MSTORE PUSH32 0x4552433732313A207472616E7366657220746F20746865207A65726F20616464 PUSH1 0x44 DUP3 ADD MSTORE PUSH4 0x72657373 PUSH1 0xE0 SHL PUSH1 0x64 DUP3 ADD MSTORE PUSH1 0x84 ADD PUSH2 0xA2F JUMP JUMPDEST PUSH2 0x2B52 DUP4 DUP4 DUP4 PUSH2 0x3374 JUMP JUMPDEST PUSH2 0x2B5D PUSH1 0x0 DUP3 PUSH2 0x2981 JUMP JUMPDEST PUSH1 0x1 PUSH1 0x1 PUSH1 0xA0 SHL SUB DUP4 AND PUSH1 0x0 SWAP1 DUP2 MSTORE PUSH1 0x3 PUSH1 0x20 MSTORE PUSH1 0x40 DUP2 KECCAK256 DUP1 SLOAD PUSH1 0x1 SWAP3 SWAP1 PUSH2 0x2B86 SWAP1 DUP5 SWAP1 PUSH2 0x4073 JUMP JUMPDEST SWAP1 SWAP2 SSTORE POP POP PUSH1 0x1 PUSH1 0x1 PUSH1 0xA0 SHL SUB DUP3 AND PUSH1 0x0 SWAP1 DUP2 MSTORE PUSH1 0x3 PUSH1 0x20 MSTORE PUSH1 0x40 DUP2 KECCAK256 DUP1 SLOAD PUSH1 0x1 SWAP3 SWAP1 PUSH2 0x2BB4 SWAP1 DUP5 SWAP1 PUSH2 0x4239 JUMP JUMPDEST SWAP1 SWAP2 SSTORE POP POP PUSH1 0x0 DUP2 DUP2 MSTORE PUSH1 0x2 PUSH1 0x20 MSTORE PUSH1 0x40 DUP1 DUP3 KECCAK256 DUP1 SLOAD PUSH1 0x1 PUSH1 0x1 PUSH1 0xA0 SHL SUB NOT AND PUSH1 0x1 PUSH1 0x1 PUSH1 0xA0 SHL SUB DUP7 DUP2 AND SWAP2 DUP3 OR SWAP1 SWAP3 SSTORE SWAP2 MLOAD DUP5 SWAP4 SWAP2 DUP8 AND SWAP2 PUSH32 0xDDF252AD1BE2C89B69C2B068FC378DAA952BA7F163C4A11628F55A4DF523B3EF SWAP2 LOG4 POP POP POP JUMP JUMPDEST PUSH1 0xA SLOAD PUSH1 0x1 PUSH1 0x1 PUSH1 0xA0 SHL SUB PUSH2 0x100 SWAP1 SWAP2 DIV AND CALLER EQ PUSH2 0x14CC JUMPI PUSH1 0x40 MLOAD PUSH3 0x461BCD PUSH1 0xE5 SHL DUP2 MSTORE PUSH1 0x20 PUSH1 0x4 DUP3 ADD DUP2 SWAP1 MSTORE PUSH1 0x24 DUP3 ADD MSTORE PUSH32 0x4F776E61626C653A2063616C6C6572206973206E6F7420746865206F776E6572 PUSH1 0x44 DUP3 ADD MSTORE PUSH1 0x64 ADD PUSH2 0xA2F JUMP JUMPDEST PUSH1 0x0 CALLER PUSH2 0x2C81 DUP2 PUSH2 0x3307 JUMP JUMPDEST PUSH2 0x2CCD JUMPI PUSH1 0x40 MLOAD PUSH3 0x461BCD PUSH1 0xE5 SHL DUP2 MSTORE PUSH1 0x20 PUSH1 0x4 DUP3 ADD MSTORE PUSH1 0x1D PUSH1 0x24 DUP3 ADD MSTORE PUSH32 0x6164647265737320646F65736E74206861766520612070726F66696C65000000 PUSH1 0x44 DUP3 ADD MSTORE PUSH1 0x64 ADD PUSH2 0xA2F JUMP JUMPDEST SWAP2 SWAP1 POP JUMP JUMPDEST PUSH1 0x0 PUSH2 0x2CDD DUP3 PUSH2 0x119B JUMP JUMPDEST SWAP1 POP PUSH2 0x2CEB DUP2 PUSH1 0x0 DUP5 PUSH2 0x3374 JUMP JUMPDEST PUSH2 0x2CF6 PUSH1 0x0 DUP4 PUSH2 0x2981 JUMP JUMPDEST PUSH1 0x1 PUSH1 0x1 PUSH1 0xA0 SHL SUB DUP2 AND PUSH1 0x0 SWAP1 DUP2 MSTORE PUSH1 0x3 PUSH1 0x20 MSTORE PUSH1 0x40 DUP2 KECCAK256 DUP1 SLOAD PUSH1 0x1 SWAP3 SWAP1 PUSH2 0x2D1F SWAP1 DUP5 SWAP1 PUSH2 0x4073 JUMP JUMPDEST SWAP1 SWAP2 SSTORE POP POP PUSH1 0x0 DUP3 DUP2 MSTORE PUSH1 0x2 PUSH1 0x20 MSTORE PUSH1 0x40 DUP1 DUP3 KECCAK256 DUP1 SLOAD PUSH1 0x1 PUSH1 0x1 PUSH1 0xA0 SHL SUB NOT AND SWAP1 SSTORE MLOAD DUP4 SWAP2 SWAP1 PUSH1 0x1 PUSH1 0x1 PUSH1 0xA0 SHL SUB DUP5 AND SWAP1 PUSH32 0xDDF252AD1BE2C89B69C2B068FC378DAA952BA7F163C4A11628F55A4DF523B3EF SWAP1 DUP4 SWAP1 LOG4 POP POP JUMP JUMPDEST DUP2 PUSH2 0x2D8C DUP2 PUSH1 0x1 PUSH1 0x1 PUSH1 0xA0 SHL SUB AND PUSH2 0x3307 JUMP JUMPDEST PUSH2 0x2DA8 JUMPI PUSH1 0x40 MLOAD PUSH3 0x461BCD PUSH1 0xE5 SHL DUP2 MSTORE PUSH1 0x4 ADD PUSH2 0xA2F SWAP1 PUSH2 0x41C0 JUMP JUMPDEST DUP2 PUSH2 0x2DBB DUP2 PUSH1 0x1 PUSH1 0x1 PUSH1 0xA0 SHL SUB AND PUSH2 0x3307 JUMP JUMPDEST PUSH2 0x2DD7 JUMPI PUSH1 0x40 MLOAD PUSH3 0x461BCD PUSH1 0xE5 SHL DUP2 MSTORE PUSH1 0x4 ADD PUSH2 0xA2F SWAP1 PUSH2 0x41C0 JUMP JUMPDEST POP POP PUSH1 0x1 PUSH1 0x1 PUSH1 0xA0 SHL SUB SWAP2 DUP3 AND PUSH1 0x0 DUP2 DUP2 MSTORE PUSH1 0xD PUSH1 0x20 DUP2 DUP2 MSTORE PUSH1 0x40 DUP1 DUP5 KECCAK256 PUSH1 0x5 DUP1 DUP3 ADD DUP1 SLOAD SWAP9 SWAP1 SWAP10 AND DUP1 DUP8 MSTORE PUSH1 0x6 SWAP1 SWAP3 ADD DUP5 MSTORE DUP3 DUP7 KECCAK256 DUP9 SWAP1 SSTORE DUP5 DUP5 MSTORE PUSH1 0x1 DUP1 DUP10 ADD DUP11 SSTORE SWAP9 DUP7 MSTORE DUP4 DUP7 KECCAK256 SWAP1 SWAP8 ADD DUP1 SLOAD PUSH1 0x1 PUSH1 0x1 PUSH1 0xA0 SHL SUB NOT SWAP1 DUP2 AND DUP4 OR SWAP1 SWAP2 SSTORE SWAP1 DUP6 MSTORE DUP2 DUP6 KECCAK256 SWAP7 DUP8 ADD SLOAD DUP7 DUP7 MSTORE PUSH1 0x4 DUP9 ADD DUP5 MSTORE SWAP2 DUP6 KECCAK256 SWAP2 SWAP1 SWAP2 SSTORE SWAP2 DUP2 MSTORE PUSH1 0x3 SWAP1 SWAP5 ADD DUP1 SLOAD SWAP6 DUP7 ADD DUP2 SSTORE DUP3 MSTORE SWAP3 SWAP1 KECCAK256 SWAP1 SWAP3 ADD DUP1 SLOAD SWAP1 SWAP2 AND SWAP1 SWAP2 OR SWAP1 SSTORE JUMP JUMPDEST PUSH1 0x1 PUSH1 0x1 PUSH1 0xA0 SHL SUB SWAP1 SWAP2 AND PUSH1 0x0 SWAP1 DUP2 MSTORE PUSH1 0xD PUSH1 0x20 DUP2 DUP2 MSTORE PUSH1 0x40 DUP1 DUP5 KECCAK256 PUSH1 0x9 DUP2 ADD DUP1 SLOAD DUP8 DUP8 MSTORE PUSH1 0xA SWAP1 SWAP3 ADD DUP5 MSTORE SWAP2 DUP6 KECCAK256 DUP2 SWAP1 SSTORE SWAP3 DUP3 MSTORE PUSH1 0x1 DUP4 ADD DUP2 SSTORE DUP4 MSTORE SWAP1 SWAP2 KECCAK256 ADD SSTORE JUMP JUMPDEST PUSH1 0x0 DUP1 PUSH1 0x0 PUSH2 0x2EDF DUP6 PUSH1 0x40 MLOAD DUP1 PUSH1 0x40 ADD PUSH1 0x40 MSTORE DUP1 PUSH1 0x2 DUP2 MSTORE PUSH1 0x20 ADD PUSH1 0x81 PUSH1 0xF6 SHL DUP2 MSTORE POP PUSH2 0x33E6 JUMP JUMPDEST SWAP1 POP PUSH1 0x0 PUSH2 0x2F07 DUP7 PUSH1 0x40 MLOAD DUP1 PUSH1 0x40 ADD PUSH1 0x40 MSTORE DUP1 PUSH1 0x2 DUP2 MSTORE PUSH1 0x20 ADD PUSH2 0x2023 PUSH1 0xF0 SHL DUP2 MSTORE POP PUSH2 0x33E6 JUMP JUMPDEST PUSH2 0x2F10 SWAP1 PUSH2 0x4251 JUMP JUMPDEST SWAP1 POP PUSH1 0x0 PUSH2 0x2F1D DUP4 PUSH2 0x3595 JUMP JUMPDEST PUSH1 0x1 PUSH1 0x1 PUSH1 0xA0 SHL SUB DUP2 AND PUSH1 0x0 SWAP1 DUP2 MSTORE PUSH1 0xD PUSH1 0x20 DUP2 DUP2 MSTORE PUSH1 0x40 DUP1 DUP5 KECCAK256 PUSH1 0xB DUP2 ADD DUP1 SLOAD DUP14 DUP8 MSTORE PUSH1 0xC SWAP1 SWAP3 ADD DUP5 MSTORE SWAP2 DUP6 KECCAK256 DUP2 SWAP1 SSTORE SWAP3 DUP3 MSTORE PUSH1 0x1 DUP4 ADD DUP2 SSTORE DUP4 MSTORE SWAP1 SWAP2 KECCAK256 ADD SWAP7 SWAP1 SWAP7 SSTORE POP SWAP4 SWAP6 SWAP4 SWAP5 POP POP POP POP JUMP JUMPDEST PUSH1 0xA DUP1 SLOAD PUSH1 0x1 PUSH1 0x1 PUSH1 0xA0 SHL SUB DUP4 DUP2 AND PUSH2 0x100 DUP2 DUP2 MUL PUSH2 0x100 PUSH1 0x1 PUSH1 0xA8 SHL SUB NOT DUP6 AND OR SWAP1 SWAP5 SSTORE PUSH1 0x40 MLOAD SWAP4 SWAP1 SWAP3 DIV AND SWAP2 DUP3 SWAP1 PUSH32 0x8BE0079C531659141344CD1FD0A4F28419497F9722A3DAAFE3B4186F6B6457E0 SWAP1 PUSH1 0x0 SWAP1 LOG3 POP POP JUMP JUMPDEST DUP2 PUSH1 0x1 PUSH1 0x1 PUSH1 0xA0 SHL SUB AND DUP4 PUSH1 0x1 PUSH1 0x1 PUSH1 0xA0 SHL SUB AND SUB PUSH2 0x3027 JUMPI PUSH1 0x40 MLOAD PUSH3 0x461BCD PUSH1 0xE5 SHL DUP2 MSTORE PUSH1 0x20 PUSH1 0x4 DUP3 ADD MSTORE PUSH1 0x19 PUSH1 0x24 DUP3 ADD MSTORE PUSH32 0x4552433732313A20617070726F766520746F2063616C6C657200000000000000 PUSH1 0x44 DUP3 ADD MSTORE PUSH1 0x64 ADD PUSH2 0xA2F JUMP JUMPDEST PUSH1 0x1 PUSH1 0x1 PUSH1 0xA0 SHL SUB DUP4 DUP2 AND PUSH1 0x0 DUP2 DUP2 MSTORE PUSH1 0x5 PUSH1 0x20 SWAP1 DUP2 MSTORE PUSH1 0x40 DUP1 DUP4 KECCAK256 SWAP5 DUP8 AND DUP1 DUP5 MSTORE SWAP5 DUP3 MSTORE SWAP2 DUP3 SWAP1 KECCAK256 DUP1 SLOAD PUSH1 0xFF NOT AND DUP7 ISZERO ISZERO SWAP1 DUP2 OR SWAP1 SWAP2 SSTORE SWAP2 MLOAD SWAP2 DUP3 MSTORE PUSH32 0x17307EAB39AB6107E8899845AD3D59BD9653F200F220920489CA2B5937696C31 SWAP2 ADD PUSH1 0x40 MLOAD DUP1 SWAP2 SUB SWAP1 LOG3 POP POP POP JUMP JUMPDEST PUSH1 0x1 PUSH1 0x1 PUSH1 0xA0 SHL SUB DUP3 AND PUSH2 0x30EA JUMPI PUSH1 0x40 MLOAD PUSH3 0x461BCD PUSH1 0xE5 SHL DUP2 MSTORE PUSH1 0x20 PUSH1 0x4 DUP3 ADD DUP2 SWAP1 MSTORE PUSH1 0x24 DUP3 ADD MSTORE PUSH32 0x4552433732313A206D696E7420746F20746865207A65726F2061646472657373 PUSH1 0x44 DUP3 ADD MSTORE PUSH1 0x64 ADD PUSH2 0xA2F JUMP JUMPDEST PUSH2 0x30F3 DUP2 PUSH2 0x3307 JUMP JUMPDEST ISZERO PUSH2 0x3140 JUMPI PUSH1 0x40 MLOAD PUSH3 0x461BCD PUSH1 0xE5 SHL DUP2 MSTORE PUSH1 0x20 PUSH1 0x4 DUP3 ADD MSTORE PUSH1 0x1C PUSH1 0x24 DUP3 ADD MSTORE PUSH32 0x4552433732313A20746F6B656E20616C7265616479206D696E74656400000000 PUSH1 0x44 DUP3 ADD MSTORE PUSH1 0x64 ADD PUSH2 0xA2F JUMP JUMPDEST PUSH2 0x314C PUSH1 0x0 DUP4 DUP4 PUSH2 0x3374 JUMP JUMPDEST PUSH1 0x1 PUSH1 0x1 PUSH1 0xA0 SHL SUB DUP3 AND PUSH1 0x0 SWAP1 DUP2 MSTORE PUSH1 0x3 PUSH1 0x20 MSTORE PUSH1 0x40 DUP2 KECCAK256 DUP1 SLOAD PUSH1 0x1 SWAP3 SWAP1 PUSH2 0x3175 SWAP1 DUP5 SWAP1 PUSH2 0x4239 JUMP JUMPDEST SWAP1 SWAP2 SSTORE POP POP PUSH1 0x0 DUP2 DUP2 MSTORE PUSH1 0x2 PUSH1 0x20 MSTORE PUSH1 0x40 DUP1 DUP3 KECCAK256 DUP1 SLOAD PUSH1 0x1 PUSH1 0x1 PUSH1 0xA0 SHL SUB NOT AND PUSH1 0x1 PUSH1 0x1 PUSH1 0xA0 SHL SUB DUP7 AND SWAP1 DUP2 OR SWAP1 SWAP2 SSTORE SWAP1 MLOAD DUP4 SWAP3 SWAP1 PUSH32 0xDDF252AD1BE2C89B69C2B068FC378DAA952BA7F163C4A11628F55A4DF523B3EF SWAP1 DUP3 SWAP1 LOG4 POP POP JUMP JUMPDEST PUSH2 0x31DE DUP5 DUP5 DUP5 PUSH2 0x2A6E JUMP JUMPDEST PUSH2 0x31EA DUP5 DUP5 DUP5 DUP5 PUSH2 0x35F4 JUMP JUMPDEST PUSH2 0x1DCE JUMPI PUSH1 0x40 MLOAD PUSH3 0x461BCD PUSH1 0xE5 SHL DUP2 MSTORE PUSH1 0x4 ADD PUSH2 0xA2F SWAP1 PUSH2 0x4275 JUMP JUMPDEST PUSH1 0x60 DUP2 PUSH1 0x0 SUB PUSH2 0x322D JUMPI POP POP PUSH1 0x40 DUP1 MLOAD DUP1 DUP3 ADD SWAP1 SWAP2 MSTORE PUSH1 0x1 DUP2 MSTORE PUSH1 0x3 PUSH1 0xFC SHL PUSH1 0x20 DUP3 ADD MSTORE SWAP1 JUMP JUMPDEST DUP2 PUSH1 0x0 JUMPDEST DUP2 ISZERO PUSH2 0x3257 JUMPI DUP1 PUSH2 0x3241 DUP2 PUSH2 0x42C7 JUMP JUMPDEST SWAP2 POP PUSH2 0x3250 SWAP1 POP PUSH1 0xA DUP4 PUSH2 0x42F6 JUMP JUMPDEST SWAP2 POP PUSH2 0x3231 JUMP JUMPDEST PUSH1 0x0 DUP2 PUSH8 0xFFFFFFFFFFFFFFFF DUP2 GT ISZERO PUSH2 0x3272 JUMPI PUSH2 0x3272 PUSH2 0x3CB2 JUMP JUMPDEST PUSH1 0x40 MLOAD SWAP1 DUP1 DUP3 MSTORE DUP1 PUSH1 0x1F ADD PUSH1 0x1F NOT AND PUSH1 0x20 ADD DUP3 ADD PUSH1 0x40 MSTORE DUP1 ISZERO PUSH2 0x329C JUMPI PUSH1 0x20 DUP3 ADD DUP2 DUP1 CALLDATASIZE DUP4 CALLDATACOPY ADD SWAP1 POP JUMPDEST POP SWAP1 POP JUMPDEST DUP5 ISZERO PUSH2 0x2A66 JUMPI PUSH2 0x32B1 PUSH1 0x1 DUP4 PUSH2 0x4073 JUMP JUMPDEST SWAP2 POP PUSH2 0x32BE PUSH1 0xA DUP7 PUSH2 0x430A JUMP JUMPDEST PUSH2 0x32C9 SWAP1 PUSH1 0x30 PUSH2 0x4239 JUMP JUMPDEST PUSH1 0xF8 SHL DUP2 DUP4 DUP2 MLOAD DUP2 LT PUSH2 0x32DE JUMPI PUSH2 0x32DE PUSH2 0x408A JUMP JUMPDEST PUSH1 0x20 ADD ADD SWAP1 PUSH1 0x1 PUSH1 0x1 PUSH1 0xF8 SHL SUB NOT AND SWAP1 DUP2 PUSH1 0x0 BYTE SWAP1 MSTORE8 POP PUSH2 0x3300 PUSH1 0xA DUP7 PUSH2 0x42F6 JUMP JUMPDEST SWAP5 POP PUSH2 0x32A0 JUMP JUMPDEST PUSH1 0x0 SWAP1 DUP2 MSTORE PUSH1 0x2 PUSH1 0x20 MSTORE PUSH1 0x40 SWAP1 KECCAK256 SLOAD PUSH1 0x1 PUSH1 0x1 PUSH1 0xA0 SHL SUB AND ISZERO ISZERO SWAP1 JUMP JUMPDEST PUSH1 0x0 PUSH1 0x1 PUSH1 0x1 PUSH1 0xE0 SHL SUB NOT DUP3 AND PUSH4 0x80AC58CD PUSH1 0xE0 SHL EQ DUP1 PUSH2 0x3355 JUMPI POP PUSH1 0x1 PUSH1 0x1 PUSH1 0xE0 SHL SUB NOT DUP3 AND PUSH4 0x5B5E139F PUSH1 0xE0 SHL EQ JUMPDEST DUP1 PUSH2 0x8FC JUMPI POP PUSH4 0x1FFC9A7 PUSH1 0xE0 SHL PUSH1 0x1 PUSH1 0x1 PUSH1 0xE0 SHL SUB NOT DUP4 AND EQ PUSH2 0x8FC JUMP JUMPDEST PUSH1 0xA SLOAD PUSH1 0xFF AND ISZERO PUSH2 0x33DB JUMPI PUSH1 0x40 MLOAD PUSH3 0x461BCD PUSH1 0xE5 SHL DUP2 MSTORE PUSH1 0x20 PUSH1 0x4 DUP3 ADD MSTORE PUSH1 0x2B PUSH1 0x24 DUP3 ADD MSTORE PUSH32 0x4552433732315061757361626C653A20746F6B656E207472616E736665722077 PUSH1 0x44 DUP3 ADD MSTORE PUSH11 0x1A1A5B19481C185D5CD959 PUSH1 0xAA SHL PUSH1 0x64 DUP3 ADD MSTORE PUSH1 0x84 ADD PUSH2 0xA2F JUMP JUMPDEST PUSH2 0x8B7 DUP4 DUP4 DUP4 PUSH2 0x36F5 JUMP JUMPDEST PUSH1 0x40 DUP1 MLOAD PUSH1 0x2A DUP1 DUP3 MSTORE PUSH1 0x60 DUP3 DUP2 ADD SWAP1 SWAP4 MSTORE DUP4 SWAP2 PUSH1 0x0 SWAP2 PUSH1 0x20 DUP3 ADD DUP2 DUP1 CALLDATASIZE DUP4 CALLDATACOPY ADD SWAP1 POP POP SWAP1 POP PUSH1 0x0 DUP1 DUP1 JUMPDEST DUP5 MLOAD DUP9 MLOAD PUSH2 0x341E SWAP2 SWAP1 PUSH2 0x4073 JUMP JUMPDEST DUP2 GT PUSH2 0x3589 JUMPI PUSH1 0x1 DUP3 PUSH2 0x34A8 JUMPI PUSH1 0x0 JUMPDEST DUP7 MLOAD DUP2 LT ISZERO PUSH2 0x34A6 JUMPI DUP7 DUP2 DUP2 MLOAD DUP2 LT PUSH2 0x3449 JUMPI PUSH2 0x3449 PUSH2 0x408A JUMP JUMPDEST ADD PUSH1 0x20 ADD MLOAD PUSH1 0x1 PUSH1 0x1 PUSH1 0xF8 SHL SUB NOT AND DUP11 PUSH2 0x3463 DUP4 DUP7 PUSH2 0x4239 JUMP JUMPDEST DUP2 MLOAD DUP2 LT PUSH2 0x3473 JUMPI PUSH2 0x3473 PUSH2 0x408A JUMP JUMPDEST ADD PUSH1 0x20 ADD MLOAD PUSH1 0x1 PUSH1 0x1 PUSH1 0xF8 SHL SUB NOT AND EQ PUSH2 0x3490 JUMPI PUSH1 0x0 SWAP2 POP PUSH2 0x34A6 JUMP JUMPDEST DUP3 SWAP5 POP DUP1 DUP1 PUSH2 0x349E SWAP1 PUSH2 0x42C7 JUMP JUMPDEST SWAP2 POP POP PUSH2 0x342E JUMP JUMPDEST POP JUMPDEST DUP1 ISZERO PUSH2 0x3576 JUMPI DUP3 PUSH2 0x34BC JUMPI PUSH1 0x1 SWAP3 POP PUSH2 0x3576 JUMP JUMPDEST PUSH1 0x1 PUSH1 0xFD SHL DUP10 PUSH2 0x34CD DUP5 PUSH1 0x1 PUSH2 0x4239 JUMP JUMPDEST DUP2 MLOAD DUP2 LT PUSH2 0x34DD JUMPI PUSH2 0x34DD PUSH2 0x408A JUMP JUMPDEST ADD PUSH1 0x20 ADD MLOAD PUSH1 0x1 PUSH1 0x1 PUSH1 0xF8 SHL SUB NOT AND EQ DUP1 PUSH2 0x3501 JUMPI POP PUSH1 0x2A PUSH2 0x34FF DUP6 DUP5 PUSH2 0x4073 JUMP JUMPDEST GT JUMPDEST ISZERO PUSH2 0x350C JUMPI POP PUSH2 0x3589 JUMP JUMPDEST DUP9 PUSH2 0x3518 DUP4 PUSH1 0x1 PUSH2 0x4239 JUMP JUMPDEST DUP2 MLOAD DUP2 LT PUSH2 0x3528 JUMPI PUSH2 0x3528 PUSH2 0x408A JUMP JUMPDEST ADD PUSH1 0x20 ADD MLOAD PUSH1 0x1 PUSH1 0x1 PUSH1 0xF8 SHL SUB NOT AND DUP6 PUSH1 0x1 PUSH2 0x3544 DUP8 DUP7 PUSH2 0x4073 JUMP JUMPDEST PUSH2 0x354E SWAP2 SWAP1 PUSH2 0x4073 JUMP JUMPDEST DUP2 MLOAD DUP2 LT PUSH2 0x355E JUMPI PUSH2 0x355E PUSH2 0x408A JUMP JUMPDEST PUSH1 0x20 ADD ADD SWAP1 PUSH1 0x1 PUSH1 0x1 PUSH1 0xF8 SHL SUB NOT AND SWAP1 DUP2 PUSH1 0x0 BYTE SWAP1 MSTORE8 POP JUMPDEST POP DUP1 PUSH2 0x3581 DUP2 PUSH2 0x42C7 JUMP JUMPDEST SWAP2 POP POP PUSH2 0x3410 JUMP JUMPDEST POP SWAP2 SWAP7 SWAP6 POP POP POP POP POP POP JUMP JUMPDEST PUSH1 0x0 DUP1 DUP1 JUMPDEST DUP4 MLOAD DUP2 LT ISZERO PUSH2 0x35ED JUMPI PUSH1 0x4 DUP3 SWAP1 SHL SWAP2 POP PUSH2 0x35D3 DUP5 DUP3 DUP2 MLOAD DUP2 LT PUSH2 0x35BF JUMPI PUSH2 0x35BF PUSH2 0x408A JUMP JUMPDEST ADD PUSH1 0x20 ADD MLOAD PUSH1 0x1 PUSH1 0x1 PUSH1 0xF8 SHL SUB NOT AND PUSH2 0x37AD JUMP JUMPDEST PUSH1 0xFF AND DUP3 OR SWAP2 POP DUP1 DUP1 PUSH2 0x35E5 SWAP1 PUSH2 0x42C7 JUMP JUMPDEST SWAP2 POP POP PUSH2 0x359A JUMP JUMPDEST POP SWAP3 SWAP2 POP POP JUMP JUMPDEST PUSH1 0x0 PUSH1 0x1 PUSH1 0x1 PUSH1 0xA0 SHL SUB DUP5 AND EXTCODESIZE ISZERO PUSH2 0x36EA JUMPI PUSH1 0x40 MLOAD PUSH4 0xA85BD01 PUSH1 0xE1 SHL DUP2 MSTORE PUSH1 0x1 PUSH1 0x1 PUSH1 0xA0 SHL SUB DUP6 AND SWAP1 PUSH4 0x150B7A02 SWAP1 PUSH2 0x3638 SWAP1 CALLER SWAP1 DUP10 SWAP1 DUP9 SWAP1 DUP9 SWAP1 PUSH1 0x4 ADD PUSH2 0x431E JUMP JUMPDEST PUSH1 0x20 PUSH1 0x40 MLOAD DUP1 DUP4 SUB DUP2 PUSH1 0x0 DUP8 GAS CALL SWAP3 POP POP POP DUP1 ISZERO PUSH2 0x3673 JUMPI POP PUSH1 0x40 DUP1 MLOAD PUSH1 0x1F RETURNDATASIZE SWAP1 DUP2 ADD PUSH1 0x1F NOT AND DUP3 ADD SWAP1 SWAP3 MSTORE PUSH2 0x3670 SWAP2 DUP2 ADD SWAP1 PUSH2 0x4351 JUMP JUMPDEST PUSH1 0x1 JUMPDEST PUSH2 0x36D0 JUMPI RETURNDATASIZE DUP1 DUP1 ISZERO PUSH2 0x36A1 JUMPI PUSH1 0x40 MLOAD SWAP2 POP PUSH1 0x1F NOT PUSH1 0x3F RETURNDATASIZE ADD AND DUP3 ADD PUSH1 0x40 MSTORE RETURNDATASIZE DUP3 MSTORE RETURNDATASIZE PUSH1 0x0 PUSH1 0x20 DUP5 ADD RETURNDATACOPY PUSH2 0x36A6 JUMP JUMPDEST PUSH1 0x60 SWAP2 POP JUMPDEST POP DUP1 MLOAD PUSH1 0x0 SUB PUSH2 0x36C8 JUMPI PUSH1 0x40 MLOAD PUSH3 0x461BCD PUSH1 0xE5 SHL DUP2 MSTORE PUSH1 0x4 ADD PUSH2 0xA2F SWAP1 PUSH2 0x4275 JUMP JUMPDEST DUP1 MLOAD DUP2 PUSH1 0x20 ADD REVERT JUMPDEST PUSH1 0x1 PUSH1 0x1 PUSH1 0xE0 SHL SUB NOT AND PUSH4 0xA85BD01 PUSH1 0xE1 SHL EQ SWAP1 POP PUSH2 0x2A66 JUMP JUMPDEST POP PUSH1 0x1 SWAP5 SWAP4 POP POP POP POP JUMP JUMPDEST PUSH1 0x1 PUSH1 0x1 PUSH1 0xA0 SHL SUB DUP4 AND PUSH2 0x3750 JUMPI PUSH2 0x374B DUP2 PUSH1 0x8 DUP1 SLOAD PUSH1 0x0 DUP4 DUP2 MSTORE PUSH1 0x9 PUSH1 0x20 MSTORE PUSH1 0x40 DUP2 KECCAK256 DUP3 SWAP1 SSTORE PUSH1 0x1 DUP3 ADD DUP4 SSTORE SWAP2 SWAP1 SWAP2 MSTORE PUSH32 0xF3F7A9FE364FAAB93B216DA50A3214154F22A0A2B415B23A84C8169E8B636EE3 ADD SSTORE JUMP JUMPDEST PUSH2 0x3773 JUMP JUMPDEST DUP2 PUSH1 0x1 PUSH1 0x1 PUSH1 0xA0 SHL SUB AND DUP4 PUSH1 0x1 PUSH1 0x1 PUSH1 0xA0 SHL SUB AND EQ PUSH2 0x3773 JUMPI PUSH2 0x3773 DUP4 DUP3 PUSH2 0x3884 JUMP JUMPDEST PUSH1 0x1 PUSH1 0x1 PUSH1 0xA0 SHL SUB DUP3 AND PUSH2 0x378A JUMPI PUSH2 0x8B7 DUP2 PUSH2 0x3921 JUMP JUMPDEST DUP3 PUSH1 0x1 PUSH1 0x1 PUSH1 0xA0 SHL SUB AND DUP3 PUSH1 0x1 PUSH1 0x1 PUSH1 0xA0 SHL SUB AND EQ PUSH2 0x8B7 JUMPI PUSH2 0x8B7 DUP3 DUP3 PUSH2 0x39D0 JUMP JUMPDEST PUSH1 0x0 PUSH1 0x3 PUSH1 0xFC SHL PUSH1 0x1 PUSH1 0x1 PUSH1 0xF8 SHL SUB NOT DUP4 AND LT DUP1 ISZERO SWAP1 PUSH2 0x37DB JUMPI POP PUSH1 0x39 PUSH1 0xF8 SHL PUSH1 0x1 PUSH1 0x1 PUSH1 0xF8 SHL SUB NOT DUP4 AND GT ISZERO JUMPDEST ISZERO PUSH2 0x37EF JUMPI PUSH2 0x8FC PUSH1 0x30 PUSH1 0xF8 DUP5 SWAP1 SHR PUSH2 0x436E JUMP JUMPDEST PUSH1 0x41 PUSH1 0xF8 SHL PUSH1 0x1 PUSH1 0x1 PUSH1 0xF8 SHL SUB NOT DUP4 AND LT DUP1 ISZERO SWAP1 PUSH2 0x381B JUMPI POP PUSH1 0x23 PUSH1 0xF9 SHL PUSH1 0x1 PUSH1 0x1 PUSH1 0xF8 SHL SUB NOT DUP4 AND GT ISZERO JUMPDEST ISZERO PUSH2 0x383B JUMPI PUSH1 0x41 PUSH2 0x3831 PUSH1 0xF8 DUP5 SWAP1 SHR PUSH1 0xA PUSH2 0x4391 JUMP JUMPDEST PUSH2 0x8FC SWAP2 SWAP1 PUSH2 0x436E JUMP JUMPDEST PUSH1 0x61 PUSH1 0xF8 SHL PUSH1 0x1 PUSH1 0x1 PUSH1 0xF8 SHL SUB NOT DUP4 AND LT DUP1 ISZERO SWAP1 PUSH2 0x3867 JUMPI POP PUSH1 0x33 PUSH1 0xF9 SHL PUSH1 0x1 PUSH1 0x1 PUSH1 0xF8 SHL SUB NOT DUP4 AND GT ISZERO JUMPDEST ISZERO PUSH2 0x387D JUMPI PUSH1 0x61 PUSH2 0x3831 PUSH1 0xF8 DUP5 SWAP1 SHR PUSH1 0xA PUSH2 0x4391 JUMP JUMPDEST POP PUSH1 0xF8 SHR SWAP1 JUMP JUMPDEST PUSH1 0x0 PUSH1 0x1 PUSH2 0x3891 DUP5 PUSH2 0x1434 JUMP JUMPDEST PUSH2 0x389B SWAP2 SWAP1 PUSH2 0x4073 JUMP JUMPDEST PUSH1 0x0 DUP4 DUP2 MSTORE PUSH1 0x7 PUSH1 0x20 MSTORE PUSH1 0x40 SWAP1 KECCAK256 SLOAD SWAP1 SWAP2 POP DUP1 DUP3 EQ PUSH2 0x38EE JUMPI PUSH1 0x1 PUSH1 0x1 PUSH1 0xA0 SHL SUB DUP5 AND PUSH1 0x0 SWAP1 DUP2 MSTORE PUSH1 0x6 PUSH1 0x20 SWAP1 DUP2 MSTORE PUSH1 0x40 DUP1 DUP4 KECCAK256 DUP6 DUP5 MSTORE DUP3 MSTORE DUP1 DUP4 KECCAK256 SLOAD DUP5 DUP5 MSTORE DUP2 DUP5 KECCAK256 DUP2 SWAP1 SSTORE DUP4 MSTORE PUSH1 0x7 SWAP1 SWAP2 MSTORE SWAP1 KECCAK256 DUP2 SWAP1 SSTORE JUMPDEST POP PUSH1 0x0 SWAP2 DUP3 MSTORE PUSH1 0x7 PUSH1 0x20 SWAP1 DUP2 MSTORE PUSH1 0x40 DUP1 DUP5 KECCAK256 DUP5 SWAP1 SSTORE PUSH1 0x1 PUSH1 0x1 PUSH1 0xA0 SHL SUB SWAP1 SWAP5 AND DUP4 MSTORE PUSH1 0x6 DUP2 MSTORE DUP4 DUP4 KECCAK256 SWAP2 DUP4 MSTORE MSTORE SWAP1 DUP2 KECCAK256 SSTORE JUMP JUMPDEST PUSH1 0x8 SLOAD PUSH1 0x0 SWAP1 PUSH2 0x3933 SWAP1 PUSH1 0x1 SWAP1 PUSH2 0x4073 JUMP JUMPDEST PUSH1 0x0 DUP4 DUP2 MSTORE PUSH1 0x9 PUSH1 0x20 MSTORE PUSH1 0x40 DUP2 KECCAK256 SLOAD PUSH1 0x8 DUP1 SLOAD SWAP4 SWAP5 POP SWAP1 SWAP3 DUP5 SWAP1 DUP2 LT PUSH2 0x395B JUMPI PUSH2 0x395B PUSH2 0x408A JUMP JUMPDEST SWAP1 PUSH1 0x0 MSTORE PUSH1 0x20 PUSH1 0x0 KECCAK256 ADD SLOAD SWAP1 POP DUP1 PUSH1 0x8 DUP4 DUP2 SLOAD DUP2 LT PUSH2 0x397C JUMPI PUSH2 0x397C PUSH2 0x408A JUMP JUMPDEST PUSH1 0x0 SWAP2 DUP3 MSTORE PUSH1 0x20 DUP1 DUP4 KECCAK256 SWAP1 SWAP2 ADD SWAP3 SWAP1 SWAP3 SSTORE DUP3 DUP2 MSTORE PUSH1 0x9 SWAP1 SWAP2 MSTORE PUSH1 0x40 DUP1 DUP3 KECCAK256 DUP5 SWAP1 SSTORE DUP6 DUP3 MSTORE DUP2 KECCAK256 SSTORE PUSH1 0x8 DUP1 SLOAD DUP1 PUSH2 0x39B4 JUMPI PUSH2 0x39B4 PUSH2 0x417B JUMP JUMPDEST PUSH1 0x1 SWAP1 SUB DUP2 DUP2 SWAP1 PUSH1 0x0 MSTORE PUSH1 0x20 PUSH1 0x0 KECCAK256 ADD PUSH1 0x0 SWAP1 SSTORE SWAP1 SSTORE POP POP POP POP JUMP JUMPDEST PUSH1 0x0 PUSH2 0x39DB DUP4 PUSH2 0x1434 JUMP JUMPDEST PUSH1 0x1 PUSH1 0x1 PUSH1 0xA0 SHL SUB SWAP1 SWAP4 AND PUSH1 0x0 SWAP1 DUP2 MSTORE PUSH1 0x6 PUSH1 0x20 SWAP1 DUP2 MSTORE PUSH1 0x40 DUP1 DUP4 KECCAK256 DUP7 DUP5 MSTORE DUP3 MSTORE DUP1 DUP4 KECCAK256 DUP6 SWAP1 SSTORE SWAP4 DUP3 MSTORE PUSH1 0x7 SWAP1 MSTORE SWAP2 SWAP1 SWAP2 KECCAK256 SWAP2 SWAP1 SWAP2 SSTORE POP JUMP JUMPDEST DUP3 DUP1 SLOAD PUSH2 0x3A20 SWAP1 PUSH2 0x3FD5 JUMP JUMPDEST SWAP1 PUSH1 0x0 MSTORE PUSH1 0x20 PUSH1 0x0 KECCAK256 SWAP1 PUSH1 0x1F ADD PUSH1 0x20 SWAP1 DIV DUP2 ADD SWAP3 DUP3 PUSH2 0x3A42 JUMPI PUSH1 0x0 DUP6 SSTORE PUSH2 0x3A88 JUMP JUMPDEST DUP3 PUSH1 0x1F LT PUSH2 0x3A5B JUMPI DUP1 MLOAD PUSH1 0xFF NOT AND DUP4 DUP1 ADD OR DUP6 SSTORE PUSH2 0x3A88 JUMP JUMPDEST DUP3 DUP1 ADD PUSH1 0x1 ADD DUP6 SSTORE DUP3 ISZERO PUSH2 0x3A88 JUMPI SWAP2 DUP3 ADD JUMPDEST DUP3 DUP2 GT ISZERO PUSH2 0x3A88 JUMPI DUP3 MLOAD DUP3 SSTORE SWAP2 PUSH1 0x20 ADD SWAP2 SWAP1 PUSH1 0x1 ADD SWAP1 PUSH2 0x3A6D JUMP JUMPDEST POP PUSH2 0x3A94 SWAP3 SWAP2 POP PUSH2 0x3A98 JUMP JUMPDEST POP SWAP1 JUMP JUMPDEST JUMPDEST DUP1 DUP3 GT ISZERO PUSH2 0x3A94 JUMPI PUSH1 0x0 DUP2 SSTORE PUSH1 0x1 ADD PUSH2 0x3A99 JUMP JUMPDEST DUP1 CALLDATALOAD PUSH1 0x1 PUSH1 0x1 PUSH1 0xA0 SHL SUB DUP2 AND DUP2 EQ PUSH2 0x2CCD JUMPI PUSH1 0x0 DUP1 REVERT JUMPDEST PUSH1 0x0 PUSH1 0x20 DUP3 DUP5 SUB SLT ISZERO PUSH2 0x3AD6 JUMPI PUSH1 0x0 DUP1 REVERT JUMPDEST PUSH2 0x1FFA DUP3 PUSH2 0x3AAD JUMP JUMPDEST PUSH1 0x1 PUSH1 0x1 PUSH1 0xE0 SHL SUB NOT DUP2 AND DUP2 EQ PUSH2 0xF87 JUMPI PUSH1 0x0 DUP1 REVERT JUMPDEST PUSH1 0x0 PUSH1 0x20 DUP3 DUP5 SUB SLT ISZERO PUSH2 0x3B07 JUMPI PUSH1 0x0 DUP1 REVERT JUMPDEST DUP2 CALLDATALOAD PUSH2 0x1FFA DUP2 PUSH2 0x3ADF JUMP JUMPDEST PUSH1 0x0 JUMPDEST DUP4 DUP2 LT ISZERO PUSH2 0x3B2D JUMPI DUP2 DUP2 ADD MLOAD DUP4 DUP3 ADD MSTORE PUSH1 0x20 ADD PUSH2 0x3B15 JUMP JUMPDEST DUP4 DUP2 GT ISZERO PUSH2 0x1DCE JUMPI POP POP PUSH1 0x0 SWAP2 ADD MSTORE JUMP JUMPDEST PUSH1 0x0 DUP2 MLOAD DUP1 DUP5 MSTORE PUSH2 0x3B56 DUP2 PUSH1 0x20 DUP7 ADD PUSH1 0x20 DUP7 ADD PUSH2 0x3B12 JUMP JUMPDEST PUSH1 0x1F ADD PUSH1 0x1F NOT AND SWAP3 SWAP1 SWAP3 ADD PUSH1 0x20 ADD SWAP3 SWAP2 POP POP JUMP JUMPDEST PUSH1 0x20 DUP2 MSTORE PUSH1 0x0 PUSH2 0x1FFA PUSH1 0x20 DUP4 ADD DUP5 PUSH2 0x3B3E JUMP JUMPDEST PUSH1 0x0 PUSH1 0x20 DUP3 DUP5 SUB SLT ISZERO PUSH2 0x3B8F JUMPI PUSH1 0x0 DUP1 REVERT JUMPDEST POP CALLDATALOAD SWAP2 SWAP1 POP JUMP JUMPDEST PUSH1 0x0 DUP1 PUSH1 0x40 DUP4 DUP6 SUB SLT ISZERO PUSH2 0x3BA9 JUMPI PUSH1 0x0 DUP1 REVERT JUMPDEST PUSH2 0x3BB2 DUP4 PUSH2 0x3AAD JUMP JUMPDEST SWAP5 PUSH1 0x20 SWAP4 SWAP1 SWAP4 ADD CALLDATALOAD SWAP4 POP POP POP JUMP JUMPDEST PUSH1 0x20 DUP1 DUP3 MSTORE DUP3 MLOAD DUP3 DUP3 ADD DUP2 SWAP1 MSTORE PUSH1 0x0 SWAP2 SWAP1 DUP5 DUP3 ADD SWAP1 PUSH1 0x40 DUP6 ADD SWAP1 DUP5 JUMPDEST DUP2 DUP2 LT ISZERO PUSH2 0x3BF8 JUMPI DUP4 MLOAD DUP4 MSTORE SWAP3 DUP5 ADD SWAP3 SWAP2 DUP5 ADD SWAP2 PUSH1 0x1 ADD PUSH2 0x3BDC JUMP JUMPDEST POP SWAP1 SWAP7 SWAP6 POP POP POP POP POP POP JUMP JUMPDEST DUP4 DUP2 MSTORE PUSH1 0x60 PUSH1 0x20 DUP3 ADD MSTORE PUSH1 0x0 PUSH2 0x3C1D PUSH1 0x60 DUP4 ADD DUP6 PUSH2 0x3B3E JUMP JUMPDEST DUP3 DUP2 SUB PUSH1 0x40 DUP5 ADD MSTORE PUSH2 0x3C2F DUP2 DUP6 PUSH2 0x3B3E JUMP JUMPDEST SWAP7 SWAP6 POP POP POP POP POP POP JUMP JUMPDEST PUSH1 0x0 DUP1 PUSH1 0x0 PUSH1 0x60 DUP5 DUP7 SUB SLT ISZERO PUSH2 0x3C4E JUMPI PUSH1 0x0 DUP1 REVERT JUMPDEST PUSH2 0x3C57 DUP5 PUSH2 0x3AAD JUMP JUMPDEST SWAP3 POP PUSH2 0x3C65 PUSH1 0x20 DUP6 ADD PUSH2 0x3AAD JUMP JUMPDEST SWAP2 POP PUSH1 0x40 DUP5 ADD CALLDATALOAD SWAP1 POP SWAP3 POP SWAP3 POP SWAP3 JUMP JUMPDEST PUSH1 0x0 DUP1 PUSH1 0x40 DUP4 DUP6 SUB SLT ISZERO PUSH2 0x3C88 JUMPI PUSH1 0x0 DUP1 REVERT JUMPDEST PUSH2 0x3C91 DUP4 PUSH2 0x3AAD JUMP JUMPDEST SWAP2 POP PUSH1 0x20 DUP4 ADD CALLDATALOAD PUSH1 0xFF DUP2 AND DUP2 EQ PUSH2 0x3CA7 JUMPI PUSH1 0x0 DUP1 REVERT JUMPDEST DUP1 SWAP2 POP POP SWAP3 POP SWAP3 SWAP1 POP JUMP JUMPDEST PUSH4 0x4E487B71 PUSH1 0xE0 SHL PUSH1 0x0 MSTORE PUSH1 0x41 PUSH1 0x4 MSTORE PUSH1 0x24 PUSH1 0x0 REVERT JUMPDEST PUSH1 0x0 DUP3 PUSH1 0x1F DUP4 ADD SLT PUSH2 0x3CD9 JUMPI PUSH1 0x0 DUP1 REVERT JUMPDEST DUP2 CALLDATALOAD PUSH8 0xFFFFFFFFFFFFFFFF DUP1 DUP3 GT ISZERO PUSH2 0x3CF4 JUMPI PUSH2 0x3CF4 PUSH2 0x3CB2 JUMP JUMPDEST PUSH1 0x40 MLOAD PUSH1 0x1F DUP4 ADD PUSH1 0x1F NOT SWAP1 DUP2 AND PUSH1 0x3F ADD AND DUP2 ADD SWAP1 DUP3 DUP3 GT DUP2 DUP4 LT OR ISZERO PUSH2 0x3D1C JUMPI PUSH2 0x3D1C PUSH2 0x3CB2 JUMP JUMPDEST DUP2 PUSH1 0x40 MSTORE DUP4 DUP2 MSTORE DUP7 PUSH1 0x20 DUP6 DUP9 ADD ADD GT ISZERO PUSH2 0x3D35 JUMPI PUSH1 0x0 DUP1 REVERT JUMPDEST DUP4 PUSH1 0x20 DUP8 ADD PUSH1 0x20 DUP4 ADD CALLDATACOPY PUSH1 0x0 PUSH1 0x20 DUP6 DUP4 ADD ADD MSTORE DUP1 SWAP5 POP POP POP POP POP SWAP3 SWAP2 POP POP JUMP JUMPDEST PUSH1 0x0 DUP1 PUSH1 0x0 PUSH1 0x60 DUP5 DUP7 SUB SLT ISZERO PUSH2 0x3D6A JUMPI PUSH1 0x0 DUP1 REVERT JUMPDEST DUP4 CALLDATALOAD PUSH8 0xFFFFFFFFFFFFFFFF DUP1 DUP3 GT ISZERO PUSH2 0x3D82 JUMPI PUSH1 0x0 DUP1 REVERT JUMPDEST PUSH2 0x3D8E DUP8 DUP4 DUP9 ADD PUSH2 0x3CC8 JUMP JUMPDEST SWAP5 POP PUSH1 0x20 DUP7 ADD CALLDATALOAD SWAP2 POP DUP1 DUP3 GT ISZERO PUSH2 0x3DA4 JUMPI PUSH1 0x0 DUP1 REVERT JUMPDEST POP PUSH2 0x3DB1 DUP7 DUP3 DUP8 ADD PUSH2 0x3CC8 JUMP JUMPDEST SWAP3 POP POP PUSH1 0x40 DUP5 ADD CALLDATALOAD SWAP1 POP SWAP3 POP SWAP3 POP SWAP3 JUMP JUMPDEST PUSH1 0x0 DUP1 PUSH1 0x40 DUP4 DUP6 SUB SLT ISZERO PUSH2 0x3DD5 JUMPI PUSH1 0x0 DUP1 REVERT JUMPDEST DUP3 CALLDATALOAD PUSH8 0xFFFFFFFFFFFFFFFF DUP1 DUP3 GT ISZERO PUSH2 0x3DED JUMPI PUSH1 0x0 DUP1 REVERT JUMPDEST PUSH2 0x3DF9 DUP7 DUP4 DUP8 ADD PUSH2 0x3CC8 JUMP JUMPDEST SWAP4 POP PUSH1 0x20 DUP6 ADD CALLDATALOAD SWAP2 POP DUP1 DUP3 GT ISZERO PUSH2 0x3E0F JUMPI PUSH1 0x0 DUP1 REVERT JUMPDEST POP PUSH2 0x3E1C DUP6 DUP3 DUP7 ADD PUSH2 0x3CC8 JUMP JUMPDEST SWAP2 POP POP SWAP3 POP SWAP3 SWAP1 POP JUMP JUMPDEST PUSH1 0x0 PUSH1 0x20 DUP3 DUP5 SUB SLT ISZERO PUSH2 0x3E38 JUMPI PUSH1 0x0 DUP1 REVERT JUMPDEST DUP2 CALLDATALOAD PUSH8 0xFFFFFFFFFFFFFFFF DUP2 GT ISZERO PUSH2 0x3E4F JUMPI PUSH1 0x0 DUP1 REVERT JUMPDEST PUSH2 0x2A66 DUP5 DUP3 DUP6 ADD PUSH2 0x3CC8 JUMP JUMPDEST PUSH1 0x20 DUP1 DUP3 MSTORE DUP3 MLOAD DUP3 DUP3 ADD DUP2 SWAP1 MSTORE PUSH1 0x0 SWAP2 SWAP1 DUP5 DUP3 ADD SWAP1 PUSH1 0x40 DUP6 ADD SWAP1 DUP5 JUMPDEST DUP2 DUP2 LT ISZERO PUSH2 0x3BF8 JUMPI DUP4 MLOAD PUSH1 0x1 PUSH1 0x1 PUSH1 0xA0 SHL SUB AND DUP4 MSTORE SWAP3 DUP5 ADD SWAP3 SWAP2 DUP5 ADD SWAP2 PUSH1 0x1 ADD PUSH2 0x3E77 JUMP JUMPDEST PUSH1 0x0 DUP1 PUSH1 0x40 DUP4 DUP6 SUB SLT ISZERO PUSH2 0x3EAF JUMPI PUSH1 0x0 DUP1 REVERT JUMPDEST PUSH2 0x3EB8 DUP4 PUSH2 0x3AAD JUMP JUMPDEST SWAP2 POP PUSH1 0x20 DUP4 ADD CALLDATALOAD DUP1 ISZERO ISZERO DUP2 EQ PUSH2 0x3CA7 JUMPI PUSH1 0x0 DUP1 REVERT JUMPDEST PUSH1 0x0 DUP1 PUSH1 0x0 PUSH1 0x60 DUP5 DUP7 SUB SLT ISZERO PUSH2 0x3EE2 JUMPI PUSH1 0x0 DUP1 REVERT JUMPDEST DUP4 CALLDATALOAD SWAP3 POP PUSH1 0x20 DUP5 ADD CALLDATALOAD PUSH8 0xFFFFFFFFFFFFFFFF DUP1 DUP3 GT ISZERO PUSH2 0x3F01 JUMPI PUSH1 0x0 DUP1 REVERT JUMPDEST PUSH2 0x3F0D DUP8 DUP4 DUP9 ADD PUSH2 0x3CC8 JUMP JUMPDEST SWAP4 POP PUSH1 0x40 DUP7 ADD CALLDATALOAD SWAP2 POP DUP1 DUP3 GT ISZERO PUSH2 0x3F23 JUMPI PUSH1 0x0 DUP1 REVERT JUMPDEST POP PUSH2 0x3F30 DUP7 DUP3 DUP8 ADD PUSH2 0x3CC8 JUMP JUMPDEST SWAP2 POP POP SWAP3 POP SWAP3 POP SWAP3 JUMP JUMPDEST PUSH1 0x0 DUP1 PUSH1 0x0 DUP1 PUSH1 0x80 DUP6 DUP8 SUB SLT ISZERO PUSH2 0x3F50 JUMPI PUSH1 0x0 DUP1 REVERT JUMPDEST PUSH2 0x3F59 DUP6 PUSH2 0x3AAD JUMP JUMPDEST SWAP4 POP PUSH2 0x3F67 PUSH1 0x20 DUP7 ADD PUSH2 0x3AAD JUMP JUMPDEST SWAP3 POP PUSH1 0x40 DUP6 ADD CALLDATALOAD SWAP2 POP PUSH1 0x60 DUP6 ADD CALLDATALOAD PUSH8 0xFFFFFFFFFFFFFFFF DUP2 GT ISZERO PUSH2 0x3F8A JUMPI PUSH1 0x0 DUP1 REVERT JUMPDEST PUSH2 0x3F96 DUP8 DUP3 DUP9 ADD PUSH2 0x3CC8 JUMP JUMPDEST SWAP2 POP POP SWAP3 SWAP6 SWAP2 SWAP5 POP SWAP3 POP JUMP JUMPDEST PUSH1 0x0 DUP1 PUSH1 0x40 DUP4 DUP6 SUB SLT ISZERO PUSH2 0x3FB5 JUMPI PUSH1 0x0 DUP1 REVERT JUMPDEST PUSH2 0x3FBE DUP4 PUSH2 0x3AAD JUMP JUMPDEST SWAP2 POP PUSH2 0x3FCC PUSH1 0x20 DUP5 ADD PUSH2 0x3AAD JUMP JUMPDEST SWAP1 POP SWAP3 POP SWAP3 SWAP1 POP JUMP JUMPDEST PUSH1 0x1 DUP2 DUP2 SHR SWAP1 DUP3 AND DUP1 PUSH2 0x3FE9 JUMPI PUSH1 0x7F DUP3 AND SWAP2 POP JUMPDEST PUSH1 0x20 DUP3 LT DUP2 SUB PUSH2 0x4009 JUMPI PUSH4 0x4E487B71 PUSH1 0xE0 SHL PUSH1 0x0 MSTORE PUSH1 0x22 PUSH1 0x4 MSTORE PUSH1 0x24 PUSH1 0x0 REVERT JUMPDEST POP SWAP2 SWAP1 POP JUMP JUMPDEST PUSH1 0x20 DUP1 DUP3 MSTORE PUSH1 0x2E SWAP1 DUP3 ADD MSTORE PUSH32 0x4552433732313A2063616C6C6572206973206E6F7420746F6B656E206F776E65 PUSH1 0x40 DUP3 ADD MSTORE PUSH14 0x1C881B9BDC88185C1C1C9BDD9959 PUSH1 0x92 SHL PUSH1 0x60 DUP3 ADD MSTORE PUSH1 0x80 ADD SWAP1 JUMP JUMPDEST PUSH4 0x4E487B71 PUSH1 0xE0 SHL PUSH1 0x0 MSTORE PUSH1 0x11 PUSH1 0x4 MSTORE PUSH1 0x24 PUSH1 0x0 REVERT JUMPDEST PUSH1 0x0 DUP3 DUP3 LT ISZERO PUSH2 0x4085 JUMPI PUSH2 0x4085 PUSH2 0x405D JUMP JUMPDEST POP SUB SWAP1 JUMP JUMPDEST PUSH4 0x4E487B71 PUSH1 0xE0 SHL PUSH1 0x0 MSTORE PUSH1 0x32 PUSH1 0x4 MSTORE PUSH1 0x24 PUSH1 0x0 REVERT JUMPDEST PUSH1 0x0 PUSH1 0xFF DUP3 AND PUSH1 0xFF DUP2 SUB PUSH2 0x40B6 JUMPI PUSH2 0x40B6 PUSH2 0x405D JUMP JUMPDEST PUSH1 0x1 ADD SWAP3 SWAP2 POP POP JUMP JUMPDEST PUSH1 0x20 DUP1 DUP3 MSTORE DUP2 DUP2 ADD MSTORE PUSH32 0x547765657468506F737420636F6E7472616374206973206E6F74207365747570 PUSH1 0x40 DUP3 ADD MSTORE PUSH1 0x60 ADD SWAP1 JUMP JUMPDEST PUSH1 0xA0 DUP2 MSTORE PUSH1 0x0 PUSH2 0x4107 PUSH1 0xA0 DUP4 ADD DUP9 PUSH2 0x3B3E JUMP JUMPDEST DUP3 DUP2 SUB PUSH1 0x20 DUP5 ADD MSTORE PUSH2 0x4119 DUP2 DUP9 PUSH2 0x3B3E JUMP JUMPDEST PUSH1 0x40 DUP5 ADD SWAP7 SWAP1 SWAP7 MSTORE POP POP PUSH1 0xFF SWAP3 SWAP1 SWAP3 AND PUSH1 0x60 DUP4 ADD MSTORE PUSH1 0x1 PUSH1 0x1 PUSH1 0xA0 SHL SUB AND PUSH1 0x80 SWAP1 SWAP2 ADD MSTORE SWAP3 SWAP2 POP POP JUMP JUMPDEST PUSH1 0x0 PUSH1 0x20 DUP3 DUP5 SUB SLT ISZERO PUSH2 0x4155 JUMPI PUSH1 0x0 DUP1 REVERT JUMPDEST POP MLOAD SWAP2 SWAP1 POP JUMP JUMPDEST PUSH1 0x0 DUP2 PUSH1 0x0 NOT DIV DUP4 GT DUP3 ISZERO ISZERO AND ISZERO PUSH2 0x4176 JUMPI PUSH2 0x4176 PUSH2 0x405D JUMP JUMPDEST POP MUL SWAP1 JUMP JUMPDEST PUSH4 0x4E487B71 PUSH1 0xE0 SHL PUSH1 0x0 MSTORE PUSH1 0x31 PUSH1 0x4 MSTORE PUSH1 0x24 PUSH1 0x0 REVERT JUMPDEST PUSH1 0x0 DUP4 MLOAD PUSH2 0x41A3 DUP2 DUP5 PUSH1 0x20 DUP9 ADD PUSH2 0x3B12 JUMP JUMPDEST DUP4 MLOAD SWAP1 DUP4 ADD SWAP1 PUSH2 0x41B7 DUP2 DUP4 PUSH1 0x20 DUP9 ADD PUSH2 0x3B12 JUMP JUMPDEST ADD SWAP5 SWAP4 POP POP POP POP JUMP JUMPDEST PUSH1 0x20 DUP1 DUP3 MSTORE PUSH1 0x1E SWAP1 DUP3 ADD MSTORE PUSH32 0x6164647265737320646F65736E2774206861766520612070726F66696C650000 PUSH1 0x40 DUP3 ADD MSTORE PUSH1 0x60 ADD SWAP1 JUMP JUMPDEST PUSH1 0x20 DUP1 DUP3 MSTORE PUSH1 0x22 SWAP1 DUP3 ADD MSTORE PUSH32 0x596F7520617265206E6F7420666F6C6C6F77696E672074686973206164647265 PUSH1 0x40 DUP3 ADD MSTORE PUSH2 0x7373 PUSH1 0xF0 SHL PUSH1 0x60 DUP3 ADD MSTORE PUSH1 0x80 ADD SWAP1 JUMP JUMPDEST PUSH1 0x0 DUP3 NOT DUP3 GT ISZERO PUSH2 0x424C JUMPI PUSH2 0x424C PUSH2 0x405D JUMP JUMPDEST POP ADD SWAP1 JUMP JUMPDEST DUP1 MLOAD PUSH1 0x20 DUP1 DUP4 ADD MLOAD SWAP2 SWAP1 DUP2 LT ISZERO PUSH2 0x4009 JUMPI PUSH1 0x0 NOT PUSH1 0x20 SWAP2 SWAP1 SWAP2 SUB PUSH1 0x3 SHL SHL AND SWAP2 SWAP1 POP JUMP JUMPDEST PUSH1 0x20 DUP1 DUP3 MSTORE PUSH1 0x32 SWAP1 DUP3 ADD MSTORE PUSH32 0x4552433732313A207472616E7366657220746F206E6F6E204552433732315265 PUSH1 0x40 DUP3 ADD MSTORE PUSH18 0x31B2B4BB32B91034B6B83632B6B2B73A32B9 PUSH1 0x71 SHL PUSH1 0x60 DUP3 ADD MSTORE PUSH1 0x80 ADD SWAP1 JUMP JUMPDEST PUSH1 0x0 PUSH1 0x1 DUP3 ADD PUSH2 0x42D9 JUMPI PUSH2 0x42D9 PUSH2 0x405D JUMP JUMPDEST POP PUSH1 0x1 ADD SWAP1 JUMP JUMPDEST PUSH4 0x4E487B71 PUSH1 0xE0 SHL PUSH1 0x0 MSTORE PUSH1 0x12 PUSH1 0x4 MSTORE PUSH1 0x24 PUSH1 0x0 REVERT JUMPDEST PUSH1 0x0 DUP3 PUSH2 0x4305 JUMPI PUSH2 0x4305 PUSH2 0x42E0 JUMP JUMPDEST POP DIV SWAP1 JUMP JUMPDEST PUSH1 0x0 DUP3 PUSH2 0x4319 JUMPI PUSH2 0x4319 PUSH2 0x42E0 JUMP JUMPDEST POP MOD SWAP1 JUMP JUMPDEST PUSH1 0x1 PUSH1 0x1 PUSH1 0xA0 SHL SUB DUP6 DUP2 AND DUP3 MSTORE DUP5 AND PUSH1 0x20 DUP3 ADD MSTORE PUSH1 0x40 DUP2 ADD DUP4 SWAP1 MSTORE PUSH1 0x80 PUSH1 0x60 DUP3 ADD DUP2 SWAP1 MSTORE PUSH1 0x0 SWAP1 PUSH2 0x3C2F SWAP1 DUP4 ADD DUP5 PUSH2 0x3B3E JUMP JUMPDEST PUSH1 0x0 PUSH1 0x20 DUP3 DUP5 SUB SLT ISZERO PUSH2 0x4363 JUMPI PUSH1 0x0 DUP1 REVERT JUMPDEST DUP2 MLOAD PUSH2 0x1FFA DUP2 PUSH2 0x3ADF JUMP JUMPDEST PUSH1 0x0 PUSH1 0xFF DUP3 AND PUSH1 0xFF DUP5 AND DUP1 DUP3 LT ISZERO PUSH2 0x4388 JUMPI PUSH2 0x4388 PUSH2 0x405D JUMP JUMPDEST SWAP1 SUB SWAP4 SWAP3 POP POP POP JUMP JUMPDEST PUSH1 0x0 PUSH1 0xFF DUP3 AND PUSH1 0xFF DUP5 AND DUP1 PUSH1 0xFF SUB DUP3 GT ISZERO PUSH2 0x43AE JUMPI PUSH2 0x43AE PUSH2 0x405D JUMP JUMPDEST ADD SWAP4 SWAP3 POP POP POP JUMP INVALID LOG2 PUSH5 0x6970667358 0x22 SLT KECCAK256 0xD8 SWAP1 GAS LOG2 CALLDATALOAD CALLCODE DUP3 DUP6 0xB1 PUSH14 0xB60DBC7C919A2F7534D108985148 SGT SWAP12 0x23 0xC6 GT SWAP7 0xCF MOD PUSH5 0x736F6C6343 STOP ADDMOD 0xD STOP CALLER ",
  "sha1": "f2c7ebe3e810f189951de959ad51599a6f471dec",
  "source": "pragma solidity ^0.8.0;\n\n\nimport \"node_modules/@openzeppelin/contracts/token/ERC721/extensions/ERC721Enumerable.sol\";\nimport \"node_modules/@openzeppelin/contracts/token/ERC721/extensions/ERC721Burnable.sol\";\nimport \"node_modules/@openzeppelin/contracts/security/Pausable.sol\";\nimport \"node_modules/@openzeppelin/contracts/access/AccessControlEnumerable.sol\";\nimport \"node_modules/@openzeppelin/contracts/utils/Context.sol\";\nimport \"node_modules/@openzeppelin/contracts/access/Ownable.sol\";\n\ninterface TwetherPost{\n    function mint(bytes memory text, bytes memory media_url, uint parentTweeth, uint8 tweethType, uint160 author) external returns (uint);\n    function like(uint tweethId, uint160 author) external;\n    function unlike(uint tweethId, uint160 author) external;\n}\n\ncontract TwetherProfile is ERC721Enumerable, ERC721Burnable, Pausable, Ownable{\n\n    struct Profile {\n        bytes32 name;\n        bytes pfp_url;\n        bytes bio;\n        uint160[] followers;\n        mapping (uint160 => uint256) followerIndex;\n        uint160[] following;\n        mapping (uint160 => uint256) followingIndex;\n        uint[] likes;\n        mapping (uint => uint) tweethToLikeIndex;\n        uint[] posts;\n        mapping (uint => uint) tweethToPostIndex;\n        uint[] mentions;\n        mapping (uint => uint) tweethToMentionIndex;\n    }\n\n    TwetherPost private Post;\n    uint public pageSize = 100;\n\n    mapping(uint160 => Profile) private profile;\n\n    modifier hasProfile (uint160 user){\n        require(_exists(user), \"address doesn't have a profile\");\n        _;\n    }\n\n    modifier postContractSet{\n        require(address(Post) != address(0),\"TweethPost contract is not setup\");\n        _;\n    }\n\n    event NewLike(address indexed from, uint indexed tweeth);\n    event NewComment(address indexed from, bytes32 indexed keyword, address indexed mention, uint tweeth, uint comment_id);\n    event NewShare(address indexed from, bytes32 indexed keyword, address indexed mention, uint tweeth, uint share_id);\n    event NowFollows(address indexed frollower, address indexed following);\n    event NewProfile(address indexed _address, bytes32 indexed name);\n    event NewTweeth(address indexed from, bytes32 indexed keyword, address indexed mention, uint new_tweeth);\n    event ChangedName(address indexed _address, bytes32 name);\n\n    constructor() ERC721(\"Pro\", \"PFP\"){}\n\n    function _beforeTokenTransfer(\n        address from,\n        address to,\n        uint256 tokenId\n    ) internal virtual override (ERC721Enumerable, ERC721){\n        require(!paused(), \"ERC721Pausable: token transfer while paused\");\n        super._beforeTokenTransfer(from, to, tokenId);\n    }\n\n    /**\n     * @dev Returns weather a contracts supports a certain Interface.\n     * @param interfaceId of the interface to check.\n     * @return True if the contract supports such interface.\n     */\n    function supportsInterface(bytes4 interfaceId) public view virtual override (ERC721, ERC721Enumerable) returns (bool) {\n        return interfaceId == type(IERC721).interfaceId || \n                interfaceId == type(IERC721Metadata).interfaceId || \n                super.supportsInterface(interfaceId);\n    }\n\n    function setTweetherPostContract(address _address) external onlyOwner {\n        Post = TwetherPost(_address);\n    }\n\n    function setPageSize(uint _pageSize) external onlyOwner {\n        pageSize = _pageSize;\n    }\n\n    function mint(bytes32 _name, bytes memory _pfp_url,bytes memory _bio) external {\n        uint160 _id = uint160(_msgSender());\n        profile[_id].name = _name;\n        profile[_id].pfp_url = _pfp_url;\n        profile[_id].bio = _bio;\n        super._mint(_msgSender(), _id);\n        emit NewProfile(_msgSender(), _name);\n    }\n\n    function _addFollowing(uint160 user, uint160 new_following) internal hasProfile(user) hasProfile(new_following) {\n        profile[user].followingIndex[new_following] = profile[user].following.length;\n        profile[user].following.push(new_following);\n\n        profile[new_following].followerIndex[user] = profile[new_following].following.length;\n        profile[new_following].followers.push(user);\n    }\n\n    function _addMention(uint160 user, uint tweeth) internal \n                                                    ///hasProfile(user)\n                                                    {\n        profile[user].tweethToMentionIndex[tweeth] = profile[user].mentions.length;\n        profile[user].mentions.push(tweeth);\n    }\n\n    function _removeFollowing(uint160 user, uint160 old_following) internal hasProfile(user) hasProfile(old_following) {\n        require(profile[user].following.length > 0, \"You are not following this address\");\n        uint i = profile[user].followingIndex[old_following];\n        uint total = profile[user].following.length;\n\n        if (i == 0){\n            require(profile[user].following[0] == old_following, \"You are not following this address\");\n        }\n        //copy the last item in the array into the old following place. This will override the old follower value.\n        if (i != (total - 1)){\n            profile[user].followingIndex[profile[user].following[total - 1]] = i;\n            profile[user].following[i] = profile[user].following[total - 1];\n        }\n        //pop the last value which now has a duplicate, so it's fine.\n        profile[user].following.pop();\n        delete profile[user].followingIndex[old_following];\n    }\n\n    function _removeFollower(uint160 user, uint160 old_following) internal {\n        \n        uint i = profile[old_following].followerIndex[user];\n        uint total = profile[old_following].followers.length;\n\n        //copy the last item in the array into the old following place. This will override the old follower value.\n        if (i != (total - 1)){\n            profile[old_following].followerIndex[profile[old_following].followers[total - 1]] = i;\n            profile[old_following].followers[i] = profile[old_following].followers[total - 1];\n        }\n        //pop the last value which now has a duplicate, so it's fine.\n        profile[old_following].followers.pop();\n        delete profile[old_following].followerIndex[user];\n    }\n\n    function follow(address _address) external {\n        uint160 user = uint160(_msgSender());\n        uint160 new_following = uint160(_address);\n        _addFollowing(user, new_following);\n        emit NowFollows(_msgSender(), _address);\n    }\n\n    function unfollow(address _address) external {\n        uint160 user = uint160(_msgSender());\n        uint160 old_following = uint160(_address);\n\n        _removeFollowing(user, old_following);\n        _removeFollower(user, old_following);\n    }\n\n    function _validateUser() internal returns (uint160){\n        uint160 user = uint160(_msgSender());\n        require(_exists(user), \"address doesnt have a profile\");\n        return user;\n    }\n\n    function editName(bytes32 new_name) external {\n        uint160 user = _validateUser();\n        profile[user].name = new_name;\n        emit ChangedName(_msgSender(), new_name);\n    }\n\n    function editPfp(bytes memory new_pfp) external {\n        uint160 user = _validateUser();\n        profile[user].pfp_url = new_pfp;\n    }\n\n    function editBio(bytes memory new_bio) external {\n        uint160 user = _validateUser();\n        profile[user].bio = new_bio;\n    }\n\n\n    function _addPost(uint160 user, uint tweethId) internal {\n        profile[user].tweethToPostIndex[tweethId] = profile[user].posts.length;\n        profile[user].posts.push(tweethId);\n    }\n\n    function _manageKeywordMention(bytes memory text, uint tweethId) internal returns (uint160, bytes32){\n        bytes memory mention = findInString(text, \" @\");\n        bytes32 keyword = bytes32(findInString(text, \" #\"));\n        uint160 mentioned = uint160(stringHexToUint(mention));\n        _addMention(mentioned, tweethId);\n        return (mentioned, keyword);\n    }\n\n    function post(bytes memory text, bytes memory media_url) external postContractSet{\n        uint160 user = _validateUser();\n        uint tweethId = Post.mint(text, media_url, 0, 0, user);\n        _addPost(user, tweethId);\n        (uint160  mention, bytes32  keyword) = _manageKeywordMention(text, tweethId);\n        emit NewTweeth(_msgSender(), keyword, address(mention), tweethId);\n    }\n\n    function comment(bytes memory text, bytes memory media_url, uint onTweeth) external postContractSet{\n        uint160 user = _validateUser();        \n        uint tweethId = Post.mint(text, media_url, onTweeth, 1, user);\n        _addPost(user, tweethId);\n        (uint160 mention, bytes32 keyword) = _manageKeywordMention(text, tweethId);\n        emit NewComment(_msgSender(), keyword, address(mention), onTweeth, tweethId);\n    }\n\n    function share(bytes memory text, bytes memory media_url, uint tweethToShare) external postContractSet{\n        uint160 user = _validateUser();        \n        uint tweethId = Post.mint(text, media_url, tweethToShare, 2, user);\n        _addPost(user, tweethId);\n        (uint160  mention, bytes32  keyword) = _manageKeywordMention(text, tweethId);\n        emit NewShare(_msgSender(), keyword, address(mention), tweethToShare, tweethId);\n    }\n\n    function like(uint tweethId) external postContractSet{\n        uint160 user = _validateUser();\n        profile[user].tweethToLikeIndex[tweethId] = profile[user].likes.length;\n        profile[user].likes.push(tweethId);\n        Post.like(tweethId, user);\n        emit NewLike(_msgSender(), tweethId);\n    }\n\n    function unlike(uint tweethId) external postContractSet{\n        uint160 user = _validateUser();\n        require(profile[user].likes.length > 0, \"You didnt like this post\");\n        uint i = profile[user].tweethToLikeIndex[tweethId];\n        uint total = profile[user].likes.length;\n\n        if (i==0){\n            require(profile[user].likes[0] == tweethId, \"You didnt like this post\");\n        } \n        if (i != (total - 1)){\n            profile[user].tweethToLikeIndex[ profile[user].likes[total - 1] ] = i;\n            profile[user].likes[i] = profile[user].likes[total - 1];\n        }\n        profile[user].likes.pop();\n        delete profile[user].tweethToLikeIndex[tweethId];\n        Post.unlike(tweethId, user);\n    }\n\n    function findInString(bytes memory textArray, string memory signal) internal pure returns(bytes memory ){\n        bytes memory patternFlag = bytes(signal);\n        bytes memory response = new bytes(42);\n        uint starts;\n        bool found = false;\n        for (uint i = 0; i <= textArray.length - patternFlag.length; i++) {\n            bool flag = true;\n            if (!found){\n                for (uint j = 0; j < patternFlag.length; j++){\n                    if (textArray [i + j] != patternFlag [j]) {\n                        flag = false;\n                        break;\n                    }\n                    starts = i;\n                }\n            }if(flag){\n                if (!found){\n                    found = true;\n                }else{\n                    if (textArray[i+1] == bytes1(\" \") || i - starts > 42){break;}\n                    response[i - starts -1] = textArray[i+1];\n                }\n            }\n        }return response;\n    }\n\n    function stringHexToUint(bytes memory _hex) internal returns (uint){\n        uint256 number = 0;\n        for(uint i=0;i<_hex.length;i++){\n            number = number << 4; // or number = number * 16 \n            number |= numberFromAscII(_hex[i]); // or number += numberFromAscII(b[i]);\n        }\n        return number; \n    }\n\n    function numberFromAscII(bytes1 b) internal pure returns (uint8 res) {\n        if (b>=\"0\" && b<=\"9\") {\n            return uint8(b) - uint8(bytes1(\"0\"));\n        } else if (b>=\"A\" && b<=\"F\") {\n            return 10 + uint8(b) - uint8(bytes1(\"A\"));\n        } else if (b>=\"a\" && b<=\"f\") {\n            return 10 + uint8(b) - uint8(bytes1(\"a\"));\n        }\n        return uint8(b); // or return error ... \n    }\n\n\n    function getLikesByPerPage(address user, uint page) external view returns (uint[] memory){\n        uint total = profile[uint160(user)].likes.length;\n        uint160 id = uint160(user);\n        uint[] memory response;\n        for (uint8 i=0; i < pageSize; i++){\n            if(1 - total - pageSize*page - i <= 0 ){break;}\n            response[i] = profile[id].likes[total - pageSize*page - i];\n        }\n        return response;\n    }\n\n    function getLastXLikes(address user, uint8 amount) public view returns(uint[] memory){\n        uint total = profile[uint160(user)].likes.length;\n        uint160 id = uint160(user);\n        if (total > amount) {\n            uint[] memory response;\n            for (uint8 i=0; i < amount; i++){\n                if(1 - total - i <= 0 ){break;}\n                response[i] = profile[id].likes[total - i];\n            }\n            return response;\n         }else{\n            return profile[uint160(user)].likes;\n         } \n    }\n\n    function getLast10Likes(address user) external view returns (uint[] memory){\n        return getLastXLikes(user, 10);\n    }\n\n    function getLast100Likes(address user) external view returns (uint[] memory){\n        return getLastXLikes(user, 100);\n    }\n\n    function getProfile(address _address) external view returns (bytes32, bytes memory, bytes memory){\n        uint user = uint160(_address);\n        return (profile[uint160(user)].name, profile[uint160(user)].pfp_url, profile[uint160(user)].bio);\n    }\n\n    function getFollowersPerPage(address user, uint8 page) external view returns (uint160[] memory){\n        \n        uint total = profile[uint160(user)].followers.length;\n        uint160 id = uint160(user);\n        uint160[] memory response;\n        for (uint8 i=0; i < pageSize; i++){\n            if(1 - total - pageSize*page - i <= 0 ){break;}\n            response[i] = profile[id].followers[total - pageSize*page - i];\n        }\n        return response;\n    }\n\n    function getFollowingPerPage(address user, uint8 page) external view returns (uint160[] memory){\n        uint total = profile[uint160(user)].following.length;\n        uint160 id = uint160(user);\n        uint160[] memory response = new uint160[](pageSize);\n        for (uint8 i=0; i < pageSize; i++){\n            if(1 - total - pageSize*page - i <= 0 ){break;}\n            response[i] = profile[id].following[total - pageSize*page - i];\n            uint a = 2;\n            if(1 - total - pageSize*page - i == 0){\n                a=3;\n            }\n        }\n        return response;\n    }\n\n    function getMentionsPerPage(address user, uint8 page) external view returns (uint[] memory){\n        uint total = profile[uint160(user)].mentions.length;\n        uint160 id = uint160(user);\n        uint[] memory response;\n        for (uint8 i=0; i < pageSize; i++){\n            if(1 - total - pageSize*page - i <= 0 ){break;}\n            response[i] = profile[id].mentions[total - pageSize*page - i];\n        }\n        return response;\n    }\n\n    function getTweethsPerPage(address user, uint page) external view returns (uint[] memory){\n        uint total = profile[uint160(user)].posts.length;\n        uint160 id = uint160(user);\n        \n        uint[] memory response;\n        for (uint8 i=0; i < pageSize; i++){\n            if(1 - total - pageSize*page - i <= 0 ){break;}\n            response[i] = profile[id].posts[total - pageSize*page - i];\n        }\n        return response;\n        \n    }\n\n    function getLastXTweeths(address user, uint8 amount) public view returns (uint[] memory){\n        uint total = profile[uint160(user)].posts.length;\n        uint160 id = uint160(user);\n        if (total > amount) {\n            uint[] memory response;\n            for (uint8 i=0; i < amount; i++){\n                if(1 - total - i <= 0 ){break;}\n                response[i] = profile[id].posts[total - i];\n            }\n            return response;\n         }else{\n            return profile[uint160(user)].posts;\n         } \n    }\n\n    function getLast10Tweeths(address user) external view returns (uint[] memory){\n        return getLastXTweeths(user, 10);\n    }\n\n    function getLast100Tweeths(address user) external view returns (uint[] memory){\n        return getLastXTweeths(user, 100);\n    }\n\n    function getTotalTweethsFromProfile(address user) external view returns(uint){\n        return profile[uint160(user)].posts.length;\n    }\n\n    function getTotalLikesFromProfile(address user) external view returns(uint){\n        return profile[uint160(user)].likes.length;\n    }\n\n    function getTotalFollowing(address user) external view returns(uint){\n        return profile[uint160(user)].following.length;\n    }\n\n    function getTotalFollowers(address user) external view returns(uint){\n        return profile[uint160(user)].followers.length;\n    }\n\n    function getTotalMentions(address user) external view returns(uint){\n        return profile[uint160(user)].mentions.length;\n    }\n\n    //########## TEST METHODS. DELETE BEFORE PRODUCTION ##############\n    function getLikesByProfile(address user) external view returns(uint[] memory){\n        return profile[uint160(user)].likes;\n    }\n\n    function getTweethsByProfile(address user) external view returns(uint[] memory){\n        return profile[uint160(user)].posts;\n    }\n\n    function getFollowers(address user) external view returns(uint160[] memory){\n        return profile[uint160(user)].followers;\n    }\n\n    function getFollowing(address user) external view returns(uint160[] memory){\n        return profile[uint160(user)].following;\n    }\n\n    function getMentions(address user) external view returns(uint[] memory){\n        return profile[uint160(user)].mentions;\n    }\n\n\n    \n\n    //DELETE POST/COMENT/\n\n\n}",
  "sourcePath": "contracts/TwetherProfile.sol",
  "type": "contract"
}