{
  "_format": "hh-sol-artifact-1",
  "contractName": "PunchableERC721",
  "sourceName": "contracts/PunchableERC721.sol",
  "abi": [
    {
      "inputs": [
        {
          "internalType": "uint256",
          "name": "_reservedIDs",
          "type": "uint256"
        }
      ],
      "stateMutability": "nonpayable",
      "type": "constructor"
    },
    {
      "anonymous": false,
      "inputs": [
        {
          "indexed": true,
          "internalType": "address",
          "name": "owner",
          "type": "address"
        },
        {
          "indexed": true,
          "internalType": "address",
          "name": "approved",
          "type": "address"
        },
        {
          "indexed": true,
          "internalType": "uint256",
          "name": "tokenId",
          "type": "uint256"
        }
      ],
      "name": "Approval",
      "type": "event"
    },
    {
      "anonymous": false,
      "inputs": [
        {
          "indexed": true,
          "internalType": "address",
          "name": "owner",
          "type": "address"
        },
        {
          "indexed": true,
          "internalType": "address",
          "name": "operator",
          "type": "address"
        },
        {
          "indexed": false,
          "internalType": "bool",
          "name": "approved",
          "type": "bool"
        }
      ],
      "name": "ApprovalForAll",
      "type": "event"
    },
    {
      "anonymous": false,
      "inputs": [
        {
          "indexed": true,
          "internalType": "address",
          "name": "previousOwner",
          "type": "address"
        },
        {
          "indexed": true,
          "internalType": "address",
          "name": "newOwner",
          "type": "address"
        }
      ],
      "name": "OwnershipTransferred",
      "type": "event"
    },
    {
      "anonymous": false,
      "inputs": [
        {
          "indexed": false,
          "internalType": "uint256",
          "name": "tokenId",
          "type": "uint256"
        },
        {
          "components": [
            {
              "internalType": "address payable",
              "name": "account",
              "type": "address"
            },
            {
              "internalType": "uint96",
              "name": "value",
              "type": "uint96"
            }
          ],
          "indexed": false,
          "internalType": "struct SDKERC721.Part",
          "name": "royalties",
          "type": "tuple"
        }
      ],
      "name": "RoyaltiesSet",
      "type": "event"
    },
    {
      "anonymous": false,
      "inputs": [
        {
          "indexed": true,
          "internalType": "address",
          "name": "from",
          "type": "address"
        },
        {
          "indexed": true,
          "internalType": "address",
          "name": "to",
          "type": "address"
        },
        {
          "indexed": true,
          "internalType": "uint256",
          "name": "tokenId",
          "type": "uint256"
        }
      ],
      "name": "Transfer",
      "type": "event"
    },
    {
      "inputs": [],
      "name": "TYPE_HASH",
      "outputs": [
        {
          "internalType": "bytes32",
          "name": "",
          "type": "bytes32"
        }
      ],
      "stateMutability": "view",
      "type": "function"
    },
    {
      "inputs": [
        {
          "internalType": "address",
          "name": "to",
          "type": "address"
        },
        {
          "internalType": "uint256",
          "name": "tokenId",
          "type": "uint256"
        }
      ],
      "name": "approve",
      "outputs": [],
      "stateMutability": "nonpayable",
      "type": "function"
    },
    {
      "inputs": [
        {
          "internalType": "address",
          "name": "owner",
          "type": "address"
        }
      ],
      "name": "balanceOf",
      "outputs": [
        {
          "internalType": "uint256",
          "name": "",
          "type": "uint256"
        }
      ],
      "stateMutability": "view",
      "type": "function"
    },
    {
      "inputs": [
        {
          "internalType": "uint256",
          "name": "_tokenId",
          "type": "uint256"
        }
      ],
      "name": "burn",
      "outputs": [],
      "stateMutability": "nonpayable",
      "type": "function"
    },
    {
      "inputs": [
        {
          "internalType": "string",
          "name": "eventId",
          "type": "string"
        }
      ],
      "name": "burnPunchCard",
      "outputs": [],
      "stateMutability": "nonpayable",
      "type": "function"
    },
    {
      "inputs": [],
      "name": "contractURI",
      "outputs": [
        {
          "internalType": "string",
          "name": "",
          "type": "string"
        }
      ],
      "stateMutability": "view",
      "type": "function"
    },
    {
      "inputs": [
        {
          "internalType": "string",
          "name": "eventId",
          "type": "string"
        },
        {
          "internalType": "address",
          "name": "puncherAddress",
          "type": "address"
        },
        {
          "internalType": "uint8",
          "name": "maxPunches",
          "type": "uint8"
        }
      ],
      "name": "createPunchCard",
      "outputs": [],
      "stateMutability": "nonpayable",
      "type": "function"
    },
    {
      "inputs": [
        {
          "internalType": "address",
          "name": "owner",
          "type": "address"
        }
      ],
      "name": "experiences",
      "outputs": [
        {
          "internalType": "string",
          "name": "",
          "type": "string"
        }
      ],
      "stateMutability": "view",
      "type": "function"
    },
    {
      "inputs": [
        {
          "internalType": "uint256",
          "name": "tokenId",
          "type": "uint256"
        }
      ],
      "name": "getApproved",
      "outputs": [
        {
          "internalType": "address",
          "name": "",
          "type": "address"
        }
      ],
      "stateMutability": "view",
      "type": "function"
    },
    {
      "inputs": [],
      "name": "getMaxId",
      "outputs": [
        {
          "internalType": "uint256",
          "name": "",
          "type": "uint256"
        }
      ],
      "stateMutability": "view",
      "type": "function"
    },
    {
      "inputs": [
        {
          "internalType": "string",
          "name": "eventId",
          "type": "string"
        },
        {
          "internalType": "uint256",
          "name": "_tID",
          "type": "uint256"
        }
      ],
      "name": "getNFTPunchesPerCard",
      "outputs": [
        {
          "internalType": "uint256",
          "name": "",
          "type": "uint256"
        }
      ],
      "stateMutability": "view",
      "type": "function"
    },
    {
      "inputs": [
        {
          "internalType": "uint256",
          "name": "id",
          "type": "uint256"
        }
      ],
      "name": "getRaribleV2Royalties",
      "outputs": [
        {
          "components": [
            {
              "internalType": "address payable",
              "name": "account",
              "type": "address"
            },
            {
              "internalType": "uint96",
              "name": "value",
              "type": "uint96"
            }
          ],
          "internalType": "struct SDKERC721.Part",
          "name": "",
          "type": "tuple"
        }
      ],
      "stateMutability": "view",
      "type": "function"
    },
    {
      "inputs": [
        {
          "internalType": "address",
          "name": "owner",
          "type": "address"
        },
        {
          "internalType": "address",
          "name": "operator",
          "type": "address"
        }
      ],
      "name": "isApprovedForAll",
      "outputs": [
        {
          "internalType": "bool",
          "name": "",
          "type": "bool"
        }
      ],
      "stateMutability": "view",
      "type": "function"
    },
    {
      "inputs": [
        {
          "internalType": "uint256",
          "name": "_eID",
          "type": "uint256"
        },
        {
          "internalType": "string",
          "name": "_Uri",
          "type": "string"
        }
      ],
      "name": "makeExperience",
      "outputs": [],
      "stateMutability": "nonpayable",
      "type": "function"
    },
    {
      "inputs": [
        {
          "internalType": "uint256",
          "name": "_tID",
          "type": "uint256"
        },
        {
          "internalType": "string",
          "name": "_Uri",
          "type": "string"
        }
      ],
      "name": "makeMetadata",
      "outputs": [],
      "stateMutability": "nonpayable",
      "type": "function"
    },
    {
      "inputs": [
        {
          "internalType": "address",
          "name": "_to",
          "type": "address"
        },
        {
          "internalType": "uint256",
          "name": "_tID",
          "type": "uint256"
        },
        {
          "internalType": "uint256",
          "name": "_eID",
          "type": "uint256"
        }
      ],
      "name": "mint",
      "outputs": [],
      "stateMutability": "nonpayable",
      "type": "function"
    },
    {
      "inputs": [
        {
          "internalType": "address",
          "name": "_to",
          "type": "address"
        },
        {
          "internalType": "uint256",
          "name": "_eID",
          "type": "uint256"
        }
      ],
      "name": "mint",
      "outputs": [],
      "stateMutability": "nonpayable",
      "type": "function"
    },
    {
      "inputs": [
        {
          "internalType": "address",
          "name": "_to",
          "type": "address"
        },
        {
          "internalType": "uint256",
          "name": "_tID",
          "type": "uint256"
        },
        {
          "internalType": "uint256",
          "name": "_eID",
          "type": "uint256"
        },
        {
          "internalType": "string",
          "name": "_Uri",
          "type": "string"
        }
      ],
      "name": "mint",
      "outputs": [],
      "stateMutability": "nonpayable",
      "type": "function"
    },
    {
      "inputs": [
        {
          "internalType": "address",
          "name": "_to",
          "type": "address"
        },
        {
          "internalType": "uint256",
          "name": "_eID",
          "type": "uint256"
        },
        {
          "internalType": "string",
          "name": "_Uri",
          "type": "string"
        }
      ],
      "name": "mint",
      "outputs": [],
      "stateMutability": "nonpayable",
      "type": "function"
    },
    {
      "inputs": [],
      "name": "minter",
      "outputs": [
        {
          "internalType": "address",
          "name": "",
          "type": "address"
        }
      ],
      "stateMutability": "view",
      "type": "function"
    },
    {
      "inputs": [],
      "name": "name",
      "outputs": [
        {
          "internalType": "string",
          "name": "",
          "type": "string"
        }
      ],
      "stateMutability": "view",
      "type": "function"
    },
    {
      "inputs": [],
      "name": "owner",
      "outputs": [
        {
          "internalType": "address",
          "name": "",
          "type": "address"
        }
      ],
      "stateMutability": "view",
      "type": "function"
    },
    {
      "inputs": [
        {
          "internalType": "uint256",
          "name": "tokenId",
          "type": "uint256"
        }
      ],
      "name": "ownerOf",
      "outputs": [
        {
          "internalType": "address",
          "name": "",
          "type": "address"
        }
      ],
      "stateMutability": "view",
      "type": "function"
    },
    {
      "inputs": [
        {
          "internalType": "address",
          "name": "owner",
          "type": "address"
        }
      ],
      "name": "owns",
      "outputs": [
        {
          "internalType": "string",
          "name": "",
          "type": "string"
        }
      ],
      "stateMutability": "view",
      "type": "function"
    },
    {
      "inputs": [
        {
          "internalType": "string",
          "name": "eventId",
          "type": "string"
        },
        {
          "internalType": "uint256",
          "name": "_tID",
          "type": "uint256"
        },
        {
          "internalType": "uint8",
          "name": "increment",
          "type": "uint8"
        }
      ],
      "name": "punchACard",
      "outputs": [],
      "stateMutability": "nonpayable",
      "type": "function"
    },
    {
      "inputs": [
        {
          "internalType": "string",
          "name": "",
          "type": "string"
        }
      ],
      "name": "punchBook",
      "outputs": [
        {
          "internalType": "address",
          "name": "puncherAddress",
          "type": "address"
        },
        {
          "internalType": "uint8",
          "name": "maxPunches",
          "type": "uint8"
        }
      ],
      "stateMutability": "view",
      "type": "function"
    },
    {
      "inputs": [],
      "name": "renounceOwnership",
      "outputs": [],
      "stateMutability": "nonpayable",
      "type": "function"
    },
    {
      "inputs": [],
      "name": "reservedIDs",
      "outputs": [
        {
          "internalType": "uint256",
          "name": "",
          "type": "uint256"
        }
      ],
      "stateMutability": "view",
      "type": "function"
    },
    {
      "inputs": [
        {
          "internalType": "uint256",
          "name": "_tokenId",
          "type": "uint256"
        },
        {
          "internalType": "uint256",
          "name": "_salePrice",
          "type": "uint256"
        }
      ],
      "name": "royaltyInfo",
      "outputs": [
        {
          "internalType": "address",
          "name": "receiver",
          "type": "address"
        },
        {
          "internalType": "uint256",
          "name": "royaltyAmount",
          "type": "uint256"
        }
      ],
      "stateMutability": "view",
      "type": "function"
    },
    {
      "inputs": [
        {
          "internalType": "address",
          "name": "from",
          "type": "address"
        },
        {
          "internalType": "address",
          "name": "to",
          "type": "address"
        },
        {
          "internalType": "uint256",
          "name": "tokenId",
          "type": "uint256"
        }
      ],
      "name": "safeTransferFrom",
      "outputs": [],
      "stateMutability": "nonpayable",
      "type": "function"
    },
    {
      "inputs": [
        {
          "internalType": "address",
          "name": "from",
          "type": "address"
        },
        {
          "internalType": "address",
          "name": "to",
          "type": "address"
        },
        {
          "internalType": "uint256",
          "name": "tokenId",
          "type": "uint256"
        },
        {
          "internalType": "bytes",
          "name": "_data",
          "type": "bytes"
        }
      ],
      "name": "safeTransferFrom",
      "outputs": [],
      "stateMutability": "nonpayable",
      "type": "function"
    },
    {
      "inputs": [
        {
          "internalType": "address",
          "name": "operator",
          "type": "address"
        },
        {
          "internalType": "bool",
          "name": "approved",
          "type": "bool"
        }
      ],
      "name": "setApprovalForAll",
      "outputs": [],
      "stateMutability": "nonpayable",
      "type": "function"
    },
    {
      "inputs": [
        {
          "internalType": "string",
          "name": "_Uri",
          "type": "string"
        }
      ],
      "name": "setContractURI",
      "outputs": [],
      "stateMutability": "nonpayable",
      "type": "function"
    },
    {
      "inputs": [
        {
          "internalType": "string",
          "name": "_uri",
          "type": "string"
        }
      ],
      "name": "setGlobalMetadata",
      "outputs": [],
      "stateMutability": "nonpayable",
      "type": "function"
    },
    {
      "inputs": [
        {
          "internalType": "address",
          "name": "_minterAddress",
          "type": "address"
        }
      ],
      "name": "setMinter",
      "outputs": [],
      "stateMutability": "nonpayable",
      "type": "function"
    },
    {
      "inputs": [
        {
          "internalType": "address",
          "name": "_royaltiesReceipientAddress",
          "type": "address"
        },
        {
          "internalType": "uint16",
          "name": "_percentage",
          "type": "uint16"
        }
      ],
      "name": "setRoyalties",
      "outputs": [],
      "stateMutability": "nonpayable",
      "type": "function"
    },
    {
      "inputs": [
        {
          "internalType": "uint256",
          "name": "_tID",
          "type": "uint256"
        },
        {
          "internalType": "uint256",
          "name": "_eID",
          "type": "uint256"
        }
      ],
      "name": "setTokenEID",
      "outputs": [],
      "stateMutability": "nonpayable",
      "type": "function"
    },
    {
      "inputs": [
        {
          "internalType": "bytes4",
          "name": "interfaceId",
          "type": "bytes4"
        }
      ],
      "name": "supportsInterface",
      "outputs": [
        {
          "internalType": "bool",
          "name": "",
          "type": "bool"
        }
      ],
      "stateMutability": "view",
      "type": "function"
    },
    {
      "inputs": [],
      "name": "symbol",
      "outputs": [
        {
          "internalType": "string",
          "name": "",
          "type": "string"
        }
      ],
      "stateMutability": "view",
      "type": "function"
    },
    {
      "inputs": [
        {
          "internalType": "uint256",
          "name": "_tID",
          "type": "uint256"
        }
      ],
      "name": "tokenEID",
      "outputs": [
        {
          "internalType": "uint256",
          "name": "",
          "type": "uint256"
        }
      ],
      "stateMutability": "view",
      "type": "function"
    },
    {
      "inputs": [
        {
          "internalType": "uint256",
          "name": "tokenId",
          "type": "uint256"
        }
      ],
      "name": "tokenExperience",
      "outputs": [
        {
          "internalType": "uint256",
          "name": "",
          "type": "uint256"
        }
      ],
      "stateMutability": "view",
      "type": "function"
    },
    {
      "inputs": [
        {
          "internalType": "uint256",
          "name": "tokenId",
          "type": "uint256"
        }
      ],
      "name": "tokenURI",
      "outputs": [
        {
          "internalType": "string",
          "name": "",
          "type": "string"
        }
      ],
      "stateMutability": "view",
      "type": "function"
    },
    {
      "inputs": [],
      "name": "totalExperiences",
      "outputs": [
        {
          "internalType": "uint256",
          "name": "",
          "type": "uint256"
        }
      ],
      "stateMutability": "view",
      "type": "function"
    },
    {
      "inputs": [],
      "name": "totalSupply",
      "outputs": [
        {
          "internalType": "uint256",
          "name": "",
          "type": "uint256"
        }
      ],
      "stateMutability": "view",
      "type": "function"
    },
    {
      "inputs": [
        {
          "internalType": "address",
          "name": "from",
          "type": "address"
        },
        {
          "internalType": "address",
          "name": "to",
          "type": "address"
        },
        {
          "internalType": "uint256",
          "name": "tokenId",
          "type": "uint256"
        }
      ],
      "name": "transferFrom",
      "outputs": [],
      "stateMutability": "nonpayable",
      "type": "function"
    },
    {
      "inputs": [
        {
          "internalType": "address",
          "name": "newOwner",
          "type": "address"
        }
      ],
      "name": "transferOwnership",
      "outputs": [],
      "stateMutability": "nonpayable",
      "type": "function"
    },
    {
      "inputs": [
        {
          "internalType": "string",
          "name": "eventId",
          "type": "string"
        },
        {
          "internalType": "uint8",
          "name": "maxPunches",
          "type": "uint8"
        }
      ],
      "name": "updateMaxPunches",
      "outputs": [],
      "stateMutability": "nonpayable",
      "type": "function"
    },
    {
      "inputs": [
        {
          "internalType": "string",
          "name": "eventId",
          "type": "string"
        },
        {
          "internalType": "address",
          "name": "puncherAddress",
          "type": "address"
        }
      ],
      "name": "updatePuncherAddress",
      "outputs": [],
      "stateMutability": "nonpayable",
      "type": "function"
    }
  ],
  "bytecode": "0x60a06040523480156200001157600080fd5b50604051620063493803806200634983398181016040528101906200003791906200029f565b80806040518060400160405280600381526020017f53444b00000000000000000000000000000000000000000000000000000000008152506040518060400160405280600381526020017f53444b00000000000000000000000000000000000000000000000000000000008152508160009080519060200190620000bd929190620001d8565b508060019080519060200190620000d6929190620001d8565b505050620000f9620000ed6200010a60201b60201c565b6200011260201b60201c565b80608081815250505050506200035f565b600033905090565b6000600660009054906101000a900473ffffffffffffffffffffffffffffffffffffffff16905081600660006101000a81548173ffffffffffffffffffffffffffffffffffffffff021916908373ffffffffffffffffffffffffffffffffffffffff1602179055508173ffffffffffffffffffffffffffffffffffffffff168173ffffffffffffffffffffffffffffffffffffffff167f8be0079c531659141344cd1fd0a4f28419497f9722a3daafe3b4186f6b6457e060405160405180910390a35050565b828054620001e690620002db565b90600052602060002090601f0160209004810192826200020a576000855562000256565b82601f106200022557805160ff191683800117855562000256565b8280016001018555821562000256579182015b828111156200025557825182559160200191906001019062000238565b5b50905062000265919062000269565b5090565b5b80821115620002845760008160009055506001016200026a565b5090565b600081519050620002998162000345565b92915050565b600060208284031215620002b857620002b762000340565b5b6000620002c88482850162000288565b91505092915050565b6000819050919050565b60006002820490506001821680620002f457607f821691505b602082108114156200030b576200030a62000311565b5b50919050565b7f4e487b7100000000000000000000000000000000000000000000000000000000600052602260045260246000fd5b600080fd5b6200035081620002d1565b81146200035c57600080fd5b50565b608051615f9d620003ac60003960008181610fc101528181611455015281816119b701528181611f8b015281816127df0152818161280f015281816128340152612bf00152615f9d6000f3fe608060405234801561001057600080fd5b50600436106102a05760003560e01c80637efc90d411610167578063cad96cca116100ce578063e8a3d48511610087578063e8a3d4851461082f578063e985e9c51461084d578063f2fde38b1461087d578063f7bc39bf14610899578063fb5786ee146108c9578063fca3b5aa146108e5576102a0565b8063cad96cca14610735578063d3fc986414610765578063d477a71214610781578063d9a39e111461079f578063df77d32d146107cf578063e44b99b8146107ff576102a0565b8063ab377a1411610120578063ab377a1414610665578063b2a1acb114610681578063b88d4fde146106b1578063ba2512a4146106cd578063bb7fde71146106e9578063c87b56dd14610705576102a0565b80637efc90d4146105b95780638da5cb5b146105d55780639158dd38146105f3578063938e3d7b1461060f57806395d89b411461062b578063a22cb46514610649576102a0565b806340c10f191161020b57806364d4c819116101c457806364d4c8191461050b5780636a97183e1461052957806370a0823114610545578063715018a61461057557806379415dee1461057f5780637bc843b61461059b576102a0565b806340c10f191461043857806342842e0e1461045457806342966c6814610470578063485f0cbb1461048c5780635b570c31146104aa5780636352211e146104db576102a0565b80630c222ee51161025d5780630c222ee514610379578063156e29f61461039557806318160ddd146103b157806323b872dd146103cf5780632a55205a146103eb5780632c4fe7d61461041c576102a0565b806301ffc9a7146102a557806306fdde03146102d557806307546172146102f3578063081812fc14610311578063095ea7b31461034157806309aa8df41461035d575b600080fd5b6102bf60048036038101906102ba9190614516565b610901565b6040516102cc9190614fa2565b60405180910390f35b6102dd6109b1565b6040516102ea9190615001565b60405180910390f35b6102fb610a43565b6040516103089190614ee9565b60405180910390f35b61032b600480360381019061032691906147ab565b610a6d565b6040516103389190614ee9565b60405180910390f35b61035b60048036038101906103569190614391565b610af2565b005b61037760048036038101906103729190614834565b610c0a565b005b610393600480360381019061038e9190614351565b610cea565b005b6103af60048036038101906103aa9190614440565b610eb8565b005b6103b9610fba565b6040516103c6919061531e565b60405180910390f35b6103e960048036038101906103e4919061423b565b61104b565b005b61040560048036038101906104009190614834565b6110ab565b604051610413929190614f50565b60405180910390f35b61043660048036038101906104319190614570565b611109565b005b610452600480360381019061044d9190614391565b611241565b005b61046e6004803603810190610469919061423b565b61135b565b005b61048a600480360381019061048591906147ab565b61137b565b005b610494611453565b6040516104a1919061531e565b60405180910390f35b6104c460048036038101906104bf9190614570565b611477565b6040516104d2929190614f79565b60405180910390f35b6104f560048036038101906104f091906147ab565b6114de565b6040516105029190614ee9565b60405180910390f35b610513611590565b6040516105209190614fbd565b60405180910390f35b610543600480360381019061053e91906145b9565b6115b4565b005b61055f600480360381019061055a91906141ce565b611694565b60405161056c919061531e565b60405180910390f35b61057d61174c565b005b610599600480360381019061059491906146e0565b6117d4565b005b6105a36119b0565b6040516105b0919061531e565b60405180910390f35b6105d360048036038101906105ce91906147d8565b611a5e565b005b6105dd611b4e565b6040516105ea9190614ee9565b60405180910390f35b61060d60048036038101906106089190614570565b611b78565b005b61062960048036038101906106249190614570565b611c0e565b005b610633611ca4565b6040516106409190615001565b60405180910390f35b610663600480360381019061065e9190614311565b611d36565b005b61067f600480360381019061067a9190614615565b611d4c565b005b61069b600480360381019061069691906141ce565b611f71565b6040516106a89190615001565b60405180910390f35b6106cb60048036038101906106c6919061428e565b61217b565b005b6106e760048036038101906106e2919061474f565b6121dd565b005b61070360048036038101906106fe9190614493565b612297565b005b61071f600480360381019061071a91906147ab565b6123c2565b60405161072c9190615001565b60405180910390f35b61074f600480360381019061074a91906147ab565b612611565b60405161075c9190615303565b60405180910390f35b61077f600480360381019061077a91906143d1565b612695565b005b6107896127d8565b604051610796919061531e565b60405180910390f35b6107b960048036038101906107b491906147ab565b6128a4565b6040516107c6919061531e565b60405180910390f35b6107e960048036038101906107e49190614684565b612909565b6040516107f6919061531e565b60405180910390f35b610819600480360381019061081491906147ab565b61299b565b604051610826919061531e565b60405180910390f35b6108376129b8565b6040516108449190615001565b60405180910390f35b610867600480360381019061086291906141fb565b612a4a565b6040516108749190614fa2565b60405180910390f35b610897600480360381019061089291906141ce565b612ade565b005b6108b360048036038101906108ae91906141ce565b612bd6565b6040516108c09190615001565b60405180910390f35b6108e360048036038101906108de91906147d8565b612daa565b005b6108ff60048036038101906108fa91906141ce565b612e52565b005b6000632a55205a60e01b7bffffffffffffffffffffffffffffffffffffffffffffffffffffffff1916827bffffffffffffffffffffffffffffffffffffffffffffffffffffffff1916148061099a575063cad96cca60e01b7bffffffffffffffffffffffffffffffffffffffffffffffffffffffff1916827bffffffffffffffffffffffffffffffffffffffffffffffffffffffff1916145b806109aa57506109a982612f12565b5b9050919050565b6060600080546109c090615686565b80601f01602080910402602001604051908101604052809291908181526020018280546109ec90615686565b8015610a395780601f10610a0e57610100808354040283529160200191610a39565b820191906000526020600020905b815481529060010190602001808311610a1c57829003601f168201915b5050505050905090565b6000600c60009054906101000a900473ffffffffffffffffffffffffffffffffffffffff16905090565b6000610a7882612ff4565b610ab7576040517f08c379a0000000000000000000000000000000000000000000000000000000008152600401610aae90615223565b60405180910390fd5b6004600083815260200190815260200160002060009054906101000a900473ffffffffffffffffffffffffffffffffffffffff169050919050565b6000610afd826114de565b90508073ffffffffffffffffffffffffffffffffffffffff168373ffffffffffffffffffffffffffffffffffffffff161415610b6e576040517f08c379a0000000000000000000000000000000000000000000000000000000008152600401610b65906152a3565b60405180910390fd5b8073ffffffffffffffffffffffffffffffffffffffff16610b8d613060565b73ffffffffffffffffffffffffffffffffffffffff161480610bbc5750610bbb81610bb6613060565b612a4a565b5b610bfb576040517f08c379a0000000000000000000000000000000000000000000000000000000008152600401610bf290615163565b60405180910390fd5b610c058383613068565b505050565b610c12613060565b73ffffffffffffffffffffffffffffffffffffffff16610c30611b4e565b73ffffffffffffffffffffffffffffffffffffffff1614610c86576040517f08c379a0000000000000000000000000000000000000000000000000000000008152600401610c7d90615243565b60405180910390fd5b610c8f82612ff4565b610cce576040517f08c379a0000000000000000000000000000000000000000000000000000000008152600401610cc590615183565b60405180910390fd5b8060096000848152602001908152602001600020819055505050565b610cf2613060565b73ffffffffffffffffffffffffffffffffffffffff16610d10611b4e565b73ffffffffffffffffffffffffffffffffffffffff1614610d66576040517f08c379a0000000000000000000000000000000000000000000000000000000008152600401610d5d90615243565b60405180910390fd5b6127108161ffff1610610dae576040517f08c379a0000000000000000000000000000000000000000000000000000000008152600401610da590615023565b60405180910390fd5b81600d60006101000a81548173ffffffffffffffffffffffffffffffffffffffff021916908373ffffffffffffffffffffffffffffffffffffffff16021790555080600d60146101000a81548161ffff021916908361ffff1602179055507f03ca518fc7a952da1be15b759a29c1d193a178303d32c4ab2016133b610a215d60006040518060400160405280600d60009054906101000a900473ffffffffffffffffffffffffffffffffffffffff1673ffffffffffffffffffffffffffffffffffffffff168152602001600d60149054906101000a900461ffff1661ffff166bffffffffffffffffffffffff16815250604051610eac929190614fd8565b60405180910390a15050565b610ec0613060565b73ffffffffffffffffffffffffffffffffffffffff16610ede611b4e565b73ffffffffffffffffffffffffffffffffffffffff161480610f545750610f03613060565b73ffffffffffffffffffffffffffffffffffffffff16600c60009054906101000a900473ffffffffffffffffffffffffffffffffffffffff1673ffffffffffffffffffffffffffffffffffffffff16145b610f93576040517f08c379a0000000000000000000000000000000000000000000000000000000008152600401610f8a90615203565b60405180910390fd5b610f9d8383613121565b806009600084815260200190815260200160002081905550505050565b60008060027f0000000000000000000000000000000000000000000000000000000000000000610fea9190615423565b905060008060005b838310156110415761100382612ff4565b1561101f578080611013906156e9565b9150506000925061102e565b828061102a906156e9565b9350505b8180611039906156e9565b925050610ff2565b8094505050505090565b61105c611056613060565b826132fb565b61109b576040517f08c379a0000000000000000000000000000000000000000000000000000000008152600401611092906152c3565b60405180910390fd5b6110a68383836133d9565b505050565b600080600d60009054906101000a900473ffffffffffffffffffffffffffffffffffffffff16612710600d60149054906101000a900461ffff1661ffff16856110f491906154e1565b6110fe91906154b0565b915091509250929050565b611111613060565b73ffffffffffffffffffffffffffffffffffffffff1661112f611b4e565b73ffffffffffffffffffffffffffffffffffffffff1614611185576040517f08c379a000000000000000000000000000000000000000000000000000000000815260040161117c90615243565b60405180910390fd5b6040518060400160405280600073ffffffffffffffffffffffffffffffffffffffff168152602001600060ff16815250600e826040516111c59190614e28565b908152602001604051809103902060008201518160000160006101000a81548173ffffffffffffffffffffffffffffffffffffffff021916908373ffffffffffffffffffffffffffffffffffffffff16021790555060208201518160000160146101000a81548160ff021916908360ff16021790555090505050565b611249613060565b73ffffffffffffffffffffffffffffffffffffffff16611267611b4e565b73ffffffffffffffffffffffffffffffffffffffff1614806112dd575061128c613060565b73ffffffffffffffffffffffffffffffffffffffff16600c60009054906101000a900473ffffffffffffffffffffffffffffffffffffffff1673ffffffffffffffffffffffffffffffffffffffff16145b61131c576040517f08c379a000000000000000000000000000000000000000000000000000000000815260040161131390615203565b60405180910390fd5b600060016113286127d8565b6113329190615423565b905061133e8382613121565b816009600083815260200190815260200160002081905550505050565b6113768383836040518060200160405280600081525061217b565b505050565b611383613060565b73ffffffffffffffffffffffffffffffffffffffff166113a1611b4e565b73ffffffffffffffffffffffffffffffffffffffff16146113f7576040517f08c379a00000000000000000000000000000000000000000000000000000000081526004016113ee90615243565b60405180910390fd5b60405180602001604052806000815250600a6000838152602001908152602001600020908051906020019061142d929190613f7a565b506000600960008381526020019081526020016000208190555061145081613640565b50565b7f000000000000000000000000000000000000000000000000000000000000000081565b600e818051602081018201805184825260208301602085012081835280955050505050506000915090508060000160009054906101000a900473ffffffffffffffffffffffffffffffffffffffff16908060000160149054906101000a900460ff16905082565b6000806002600084815260200190815260200160002060009054906101000a900473ffffffffffffffffffffffffffffffffffffffff169050600073ffffffffffffffffffffffffffffffffffffffff168173ffffffffffffffffffffffffffffffffffffffff161415611587576040517f08c379a000000000000000000000000000000000000000000000000000000000815260040161157e906151c3565b60405180910390fd5b80915050919050565b7f397e04204c1e1a60ee8724b71f8244e10ab5f2e9009854d80f602bda21b59ebb81565b6115bc613060565b73ffffffffffffffffffffffffffffffffffffffff166115da611b4e565b73ffffffffffffffffffffffffffffffffffffffff1614611630576040517f08c379a000000000000000000000000000000000000000000000000000000000815260040161162790615243565b60405180910390fd5b80600e836040516116419190614e28565b908152602001604051809103902060000160006101000a81548173ffffffffffffffffffffffffffffffffffffffff021916908373ffffffffffffffffffffffffffffffffffffffff1602179055505050565b60008073ffffffffffffffffffffffffffffffffffffffff168273ffffffffffffffffffffffffffffffffffffffff161415611705576040517f08c379a00000000000000000000000000000000000000000000000000000000081526004016116fc906151a3565b60405180910390fd5b600360008373ffffffffffffffffffffffffffffffffffffffff1673ffffffffffffffffffffffffffffffffffffffff168152602001908152602001600020549050919050565b611754613060565b73ffffffffffffffffffffffffffffffffffffffff16611772611b4e565b73ffffffffffffffffffffffffffffffffffffffff16146117c8576040517f08c379a00000000000000000000000000000000000000000000000000000000081526004016117bf90615243565b60405180910390fd5b6117d2600061375d565b565b600e836040516117e49190614e28565b908152602001604051809103902060000160009054906101000a900473ffffffffffffffffffffffffffffffffffffffff1673ffffffffffffffffffffffffffffffffffffffff16611834613060565b73ffffffffffffffffffffffffffffffffffffffff161461188a576040517f08c379a000000000000000000000000000000000000000000000000000000000815260040161188190615123565b60405180910390fd5b600e8360405161189a9190614e28565b908152602001604051809103902060000160149054906101000a900460ff1660ff1681600f6000858152602001908152602001600020856040516118de9190614e28565b908152602001604051809103902060009054906101000a900460ff166119049190615479565b60ff161115611948576040517f08c379a000000000000000000000000000000000000000000000000000000000815260040161193f90615283565b60405180910390fd5b80600f60008481526020019081526020016000208460405161196a9190614e28565b908152602001604051809103902060008282829054906101000a900460ff166119939190615479565b92506101000a81548160ff021916908360ff160217905550505050565b60008060027f00000000000000000000000000000000000000000000000000000000000000006119e09190615423565b90506000806001905060005b83831015611a54576000600860008481526020019081526020016000208054611a1490615686565b905014611a32578080611a26906156e9565b91505060009250611a41565b8280611a3d906156e9565b9350505b8180611a4c906156e9565b9250506119ec565b8094505050505090565b611a66613060565b73ffffffffffffffffffffffffffffffffffffffff16611a84611b4e565b73ffffffffffffffffffffffffffffffffffffffff1614611ada576040517f08c379a0000000000000000000000000000000000000000000000000000000008152600401611ad190615243565b60405180910390fd5b611ae382612ff4565b611b22576040517f08c379a0000000000000000000000000000000000000000000000000000000008152600401611b1990615183565b60405180910390fd5b80600a60008481526020019081526020016000209080519060200190611b49929190613f7a565b505050565b6000600660009054906101000a900473ffffffffffffffffffffffffffffffffffffffff16905090565b611b80613060565b73ffffffffffffffffffffffffffffffffffffffff16611b9e611b4e565b73ffffffffffffffffffffffffffffffffffffffff1614611bf4576040517f08c379a0000000000000000000000000000000000000000000000000000000008152600401611beb90615243565b60405180910390fd5b8060079080519060200190611c0a929190613f7a565b5050565b611c16613060565b73ffffffffffffffffffffffffffffffffffffffff16611c34611b4e565b73ffffffffffffffffffffffffffffffffffffffff1614611c8a576040517f08c379a0000000000000000000000000000000000000000000000000000000008152600401611c8190615243565b60405180910390fd5b80600b9080519060200190611ca0929190613f7a565b5050565b606060018054611cb390615686565b80601f0160208091040260200160405190810160405280929190818152602001828054611cdf90615686565b8015611d2c5780601f10611d0157610100808354040283529160200191611d2c565b820191906000526020600020905b815481529060010190602001808311611d0f57829003601f168201915b5050505050905090565b611d48611d41613060565b8383613823565b5050565b611d54613060565b73ffffffffffffffffffffffffffffffffffffffff16611d72611b4e565b73ffffffffffffffffffffffffffffffffffffffff1614611dc8576040517f08c379a0000000000000000000000000000000000000000000000000000000008152600401611dbf90615243565b60405180910390fd5b600073ffffffffffffffffffffffffffffffffffffffff16600e84604051611df09190614e28565b908152602001604051809103902060000160009054906101000a900473ffffffffffffffffffffffffffffffffffffffff1673ffffffffffffffffffffffffffffffffffffffff16148015611e7657506000600e84604051611e529190614e28565b908152602001604051809103902060000160149054906101000a900460ff1660ff16145b611eb5576040517f08c379a0000000000000000000000000000000000000000000000000000000008152600401611eac906152e3565b60405180910390fd5b60405180604001604052808373ffffffffffffffffffffffffffffffffffffffff1681526020018260ff16815250600e84604051611ef39190614e28565b908152602001604051809103902060008201518160000160006101000a81548173ffffffffffffffffffffffffffffffffffffffff021916908373ffffffffffffffffffffffffffffffffffffffff16021790555060208201518160000160146101000a81548160ff021916908360ff160217905550905050505050565b60606000600190506000611f83610fba565b9050600060027f0000000000000000000000000000000000000000000000000000000000000000611fb49190615423565b90506000806040518060400160405280600181526020017f7b00000000000000000000000000000000000000000000000000000000000000815250905060006040518060400160405280600181526020017f7b0000000000000000000000000000000000000000000000000000000000000081525090505b8383101561214b5761203d86612ff4565b1561212957600092508773ffffffffffffffffffffffffffffffffffffffff16612066876114de565b73ffffffffffffffffffffffffffffffffffffffff1614156121245780805190602001208280519060200120146120be57816040516020016120a89190614ec7565b60405160208183030381529060405291506120e1565b816040516020016120cf9190614e61565b60405160208183030381529060405291505b6120eb8287613990565b9150816040516020016120fe9190614e83565b60405160208183030381529060405291506121218261211c886128a4565b613990565b91505b612138565b8280612134906156e9565b9350505b8580612143906156e9565b96505061202c565b8160405160200161215c9190614ea5565b6040516020818303038152906040529150819650505050505050919050565b61218c612186613060565b836132fb565b6121cb576040517f08c379a00000000000000000000000000000000000000000000000000000000081526004016121c2906152c3565b60405180910390fd5b6121d784848484613c0b565b50505050565b6121e5613060565b73ffffffffffffffffffffffffffffffffffffffff16612203611b4e565b73ffffffffffffffffffffffffffffffffffffffff1614612259576040517f08c379a000000000000000000000000000000000000000000000000000000000815260040161225090615243565b60405180910390fd5b80600e8360405161226a9190614e28565b908152602001604051809103902060000160146101000a81548160ff021916908360ff1602179055505050565b61229f613060565b73ffffffffffffffffffffffffffffffffffffffff166122bd611b4e565b73ffffffffffffffffffffffffffffffffffffffff16148061233357506122e2613060565b73ffffffffffffffffffffffffffffffffffffffff16600c60009054906101000a900473ffffffffffffffffffffffffffffffffffffffff1673ffffffffffffffffffffffffffffffffffffffff16145b612372576040517f08c379a000000000000000000000000000000000000000000000000000000000815260040161236990615203565b60405180910390fd5b61237c8484613121565b81600960008581526020019081526020016000208190555080600a600085815260200190815260200160002090805190602001906123bb929190613f7a565b5050505050565b60606123cd82612ff4565b61240c576040517f08c379a000000000000000000000000000000000000000000000000000000000815260040161240390615263565b60405180910390fd5b612414613c67565b6124aa576007805461242590615686565b80601f016020809104026020016040519081016040528092919081815260200182805461245190615686565b801561249e5780601f106124735761010080835404028352916020019161249e565b820191906000526020600020905b81548152906001019060200180831161248157829003601f168201915b5050505050905061260c565b6124b382613ca2565b61256d57600860006009600085815260200190815260200160002054815260200190815260200160002080546124e890615686565b80601f016020809104026020016040519081016040528092919081815260200182805461251490615686565b80156125615780601f1061253657610100808354040283529160200191612561565b820191906000526020600020905b81548152906001019060200180831161254457829003601f168201915b5050505050905061260c565b600a6000838152602001908152602001600020805461258b90615686565b80601f01602080910402602001604051908101604052809291908181526020018280546125b790615686565b80156126045780601f106125d957610100808354040283529160200191612604565b820191906000526020600020905b8154815290600101906020018083116125e757829003601f168201915b505050505090505b919050565b612619614000565b60006040518060400160405280600d60009054906101000a900473ffffffffffffffffffffffffffffffffffffffff1673ffffffffffffffffffffffffffffffffffffffff168152602001600d60149054906101000a900461ffff1661ffff166bffffffffffffffffffffffff16815250905080915050919050565b61269d613060565b73ffffffffffffffffffffffffffffffffffffffff166126bb611b4e565b73ffffffffffffffffffffffffffffffffffffffff16148061273157506126e0613060565b73ffffffffffffffffffffffffffffffffffffffff16600c60009054906101000a900473ffffffffffffffffffffffffffffffffffffffff1673ffffffffffffffffffffffffffffffffffffffff16145b612770576040517f08c379a000000000000000000000000000000000000000000000000000000000815260040161276790615203565b60405180910390fd5b6000600161277c6127d8565b6127869190615423565b90506127928482613121565b82600960008381526020019081526020016000208190555081600a600083815260200190815260200160002090805190602001906127d1929190613f7a565b5050505050565b60008060027f00000000000000000000000000000000000000000000000000000000000000006128089190615423565b90506000807f0000000000000000000000000000000000000000000000000000000000000000905060007f000000000000000000000000000000000000000000000000000000000000000090505b8383101561289a5761286782612ff4565b156128785781905060009250612887565b8280612883906156e9565b9350505b8180612892906156e9565b925050612856565b8094505050505090565b60006128af82612ff4565b6128ee576040517f08c379a00000000000000000000000000000000000000000000000000000000081526004016128e590615263565b60405180910390fd5b60096000838152602001908152602001600020549050919050565b600061291482612ff4565b612953576040517f08c379a000000000000000000000000000000000000000000000000000000000815260040161294a90615083565b60405180910390fd5b600f6000838152602001908152602001600020836040516129749190614e28565b908152602001604051809103902060009054906101000a900460ff1660ff16905092915050565b600060096000838152602001908152602001600020549050919050565b6060600b80546129c790615686565b80601f01602080910402602001604051908101604052809291908181526020018280546129f390615686565b8015612a405780601f10612a1557610100808354040283529160200191612a40565b820191906000526020600020905b815481529060010190602001808311612a2357829003601f168201915b5050505050905090565b6000600560008473ffffffffffffffffffffffffffffffffffffffff1673ffffffffffffffffffffffffffffffffffffffff16815260200190815260200160002060008373ffffffffffffffffffffffffffffffffffffffff1673ffffffffffffffffffffffffffffffffffffffff16815260200190815260200160002060009054906101000a900460ff16905092915050565b612ae6613060565b73ffffffffffffffffffffffffffffffffffffffff16612b04611b4e565b73ffffffffffffffffffffffffffffffffffffffff1614612b5a576040517f08c379a0000000000000000000000000000000000000000000000000000000008152600401612b5190615243565b60405180910390fd5b600073ffffffffffffffffffffffffffffffffffffffff168173ffffffffffffffffffffffffffffffffffffffff161415612bca576040517f08c379a0000000000000000000000000000000000000000000000000000000008152600401612bc190615063565b60405180910390fd5b612bd38161375d565b50565b60606000600190506000612be8610fba565b9050600060027f0000000000000000000000000000000000000000000000000000000000000000612c199190615423565b90506000806040518060400160405280600181526020017f5b00000000000000000000000000000000000000000000000000000000000000815250905060006040518060400160405280600181526020017f5b0000000000000000000000000000000000000000000000000000000000000081525090505b83831015612d7a57612ca286612ff4565b15612d5857600092508773ffffffffffffffffffffffffffffffffffffffff16612ccb876114de565b73ffffffffffffffffffffffffffffffffffffffff161415612d53578080519060200120828051906020012014612d235781604051602001612d0d9190614ec7565b6040516020818303038152906040529150612d46565b81604051602001612d349190614e61565b60405160208183030381529060405291505b612d508287613990565b91505b612d67565b8280612d63906156e9565b9350505b8580612d72906156e9565b965050612c91565b81604051602001612d8b9190614e3f565b6040516020818303038152906040529150819650505050505050919050565b612db2613060565b73ffffffffffffffffffffffffffffffffffffffff16612dd0611b4e565b73ffffffffffffffffffffffffffffffffffffffff1614612e26576040517f08c379a0000000000000000000000000000000000000000000000000000000008152600401612e1d90615243565b60405180910390fd5b80600860008481526020019081526020016000209080519060200190612e4d929190613f7a565b505050565b612e5a613060565b73ffffffffffffffffffffffffffffffffffffffff16612e78611b4e565b73ffffffffffffffffffffffffffffffffffffffff1614612ece576040517f08c379a0000000000000000000000000000000000000000000000000000000008152600401612ec590615243565b60405180910390fd5b80600c60006101000a81548173ffffffffffffffffffffffffffffffffffffffff021916908373ffffffffffffffffffffffffffffffffffffffff16021790555050565b60007f80ac58cd000000000000000000000000000000000000000000000000000000007bffffffffffffffffffffffffffffffffffffffffffffffffffffffff1916827bffffffffffffffffffffffffffffffffffffffffffffffffffffffff19161480612fdd57507f5b5e139f000000000000000000000000000000000000000000000000000000007bffffffffffffffffffffffffffffffffffffffffffffffffffffffff1916827bffffffffffffffffffffffffffffffffffffffffffffffffffffffff1916145b80612fed5750612fec82613d4c565b5b9050919050565b60008073ffffffffffffffffffffffffffffffffffffffff166002600084815260200190815260200160002060009054906101000a900473ffffffffffffffffffffffffffffffffffffffff1673ffffffffffffffffffffffffffffffffffffffff1614159050919050565b600033905090565b816004600083815260200190815260200160002060006101000a81548173ffffffffffffffffffffffffffffffffffffffff021916908373ffffffffffffffffffffffffffffffffffffffff160217905550808273ffffffffffffffffffffffffffffffffffffffff166130db836114de565b73ffffffffffffffffffffffffffffffffffffffff167f8c5be1e5ebec7d5bd14f71427d1e84f3dd0314c0f7b2291e5b200ac8c7c3b92560405160405180910390a45050565b600073ffffffffffffffffffffffffffffffffffffffff168273ffffffffffffffffffffffffffffffffffffffff161415613191576040517f08c379a0000000000000000000000000000000000000000000000000000000008152600401613188906151e3565b60405180910390fd5b61319a81612ff4565b156131da576040517f08c379a00000000000000000000000000000000000000000000000000000000081526004016131d1906150c3565b60405180910390fd5b6131e660008383613db6565b6001600360008473ffffffffffffffffffffffffffffffffffffffff1673ffffffffffffffffffffffffffffffffffffffff16815260200190815260200160002060008282546132369190615423565b92505081905550816002600083815260200190815260200160002060006101000a81548173ffffffffffffffffffffffffffffffffffffffff021916908373ffffffffffffffffffffffffffffffffffffffff160217905550808273ffffffffffffffffffffffffffffffffffffffff16600073ffffffffffffffffffffffffffffffffffffffff167fddf252ad1be2c89b69c2b068fc378daa952ba7f163c4a11628f55a4df523b3ef60405160405180910390a46132f760008383613dbb565b5050565b600061330682612ff4565b613345576040517f08c379a000000000000000000000000000000000000000000000000000000000815260040161333c90615143565b60405180910390fd5b6000613350836114de565b90508073ffffffffffffffffffffffffffffffffffffffff168473ffffffffffffffffffffffffffffffffffffffff1614806133bf57508373ffffffffffffffffffffffffffffffffffffffff166133a784610a6d565b73ffffffffffffffffffffffffffffffffffffffff16145b806133d057506133cf8185612a4a565b5b91505092915050565b8273ffffffffffffffffffffffffffffffffffffffff166133f9826114de565b73ffffffffffffffffffffffffffffffffffffffff161461344f576040517f08c379a0000000000000000000000000000000000000000000000000000000008152600401613446906150a3565b60405180910390fd5b600073ffffffffffffffffffffffffffffffffffffffff168273ffffffffffffffffffffffffffffffffffffffff1614156134bf576040517f08c379a00000000000000000000000000000000000000000000000000000000081526004016134b6906150e3565b60405180910390fd5b6134ca838383613db6565b6134d5600082613068565b6001600360008573ffffffffffffffffffffffffffffffffffffffff1673ffffffffffffffffffffffffffffffffffffffff1681526020019081526020016000206000828254613525919061553b565b925050819055506001600360008473ffffffffffffffffffffffffffffffffffffffff1673ffffffffffffffffffffffffffffffffffffffff168152602001908152602001600020600082825461357c9190615423565b92505081905550816002600083815260200190815260200160002060006101000a81548173ffffffffffffffffffffffffffffffffffffffff021916908373ffffffffffffffffffffffffffffffffffffffff160217905550808273ffffffffffffffffffffffffffffffffffffffff168473ffffffffffffffffffffffffffffffffffffffff167fddf252ad1be2c89b69c2b068fc378daa952ba7f163c4a11628f55a4df523b3ef60405160405180910390a461363b838383613dbb565b505050565b600061364b826114de565b905061365981600084613db6565b613664600083613068565b6001600360008373ffffffffffffffffffffffffffffffffffffffff1673ffffffffffffffffffffffffffffffffffffffff16815260200190815260200160002060008282546136b4919061553b565b925050819055506002600083815260200190815260200160002060006101000a81549073ffffffffffffffffffffffffffffffffffffffff021916905581600073ffffffffffffffffffffffffffffffffffffffff168273ffffffffffffffffffffffffffffffffffffffff167fddf252ad1be2c89b69c2b068fc378daa952ba7f163c4a11628f55a4df523b3ef60405160405180910390a461375981600084613dbb565b5050565b6000600660009054906101000a900473ffffffffffffffffffffffffffffffffffffffff16905081600660006101000a81548173ffffffffffffffffffffffffffffffffffffffff021916908373ffffffffffffffffffffffffffffffffffffffff1602179055508173ffffffffffffffffffffffffffffffffffffffff168173ffffffffffffffffffffffffffffffffffffffff167f8be0079c531659141344cd1fd0a4f28419497f9722a3daafe3b4186f6b6457e060405160405180910390a35050565b8173ffffffffffffffffffffffffffffffffffffffff168373ffffffffffffffffffffffffffffffffffffffff161415613892576040517f08c379a000000000000000000000000000000000000000000000000000000000815260040161388990615103565b60405180910390fd5b80600560008573ffffffffffffffffffffffffffffffffffffffff1673ffffffffffffffffffffffffffffffffffffffff16815260200190815260200160002060008473ffffffffffffffffffffffffffffffffffffffff1673ffffffffffffffffffffffffffffffffffffffff16815260200190815260200160002060006101000a81548160ff0219169083151502179055508173ffffffffffffffffffffffffffffffffffffffff168373ffffffffffffffffffffffffffffffffffffffff167f17307eab39ab6107e8899845ad3d59bd9653f200f220920489ca2b5937696c31836040516139839190614fa2565b60405180910390a3505050565b606060006064905060008167ffffffffffffffff8111156139b4576139b361581f565b5b6040519080825280601f01601f1916602001820160405280156139e65781602001600182028036833780820191505090505b50905060005b60008514613a78576000600a86613a039190615732565b9050600a86613a1291906154b0565b9550806030613a219190615423565b60f81b838380613a30906156e9565b945081518110613a4357613a426157f0565b5b60200101907effffffffffffffffffffffffffffffffffffffffffffffffffffffffffffff1916908160001a905350506139ec565b60008690506000828251613a8c9190615423565b67ffffffffffffffff811115613aa557613aa461581f565b5b6040519080825280601f01601f191660200182016040528015613ad75781602001600182028036833780820191505090505b50905060005b8251811015613b5957828181518110613af957613af86157f0565b5b602001015160f81c60f81b828281518110613b1757613b166157f0565b5b60200101907effffffffffffffffffffffffffffffffffffffffffffffffffffffffffffff1916908160001a9053508080613b51906156e9565b915050613add565b600090505b83811015613bfc578481600186613b75919061553b565b613b7f919061553b565b81518110613b9057613b8f6157f0565b5b602001015160f81c60f81b82845183613ba99190615423565b81518110613bba57613bb96157f0565b5b60200101907effffffffffffffffffffffffffffffffffffffffffffffffffffffffffffff1916908160001a9053508080613bf4906156e9565b915050613b5e565b81965050505050505092915050565b613c168484846133d9565b613c2284848484613dc0565b613c61576040517f08c379a0000000000000000000000000000000000000000000000000000000008152600401613c5890615043565b60405180910390fd5b50505050565b60008060405180602001604052806000815250905080805190602001206007604051613c939190614e11565b60405180910390201491505090565b6000613cad82612ff4565b613cec576040517f08c379a0000000000000000000000000000000000000000000000000000000008152600401613ce390615263565b60405180910390fd5b600060405180602001604052806000815250905080805190602001206008600060096000878152602001908152602001600020548152602001908152602001600020604051613d3b9190614e11565b604051809103902014915050919050565b60007f01ffc9a7000000000000000000000000000000000000000000000000000000007bffffffffffffffffffffffffffffffffffffffffffffffffffffffff1916827bffffffffffffffffffffffffffffffffffffffffffffffffffffffff1916149050919050565b505050565b505050565b6000613de18473ffffffffffffffffffffffffffffffffffffffff16613f57565b15613f4a578373ffffffffffffffffffffffffffffffffffffffff1663150b7a02613e0a613060565b8786866040518563ffffffff1660e01b8152600401613e2c9493929190614f04565b602060405180830381600087803b158015613e4657600080fd5b505af1925050508015613e7757506040513d601f19601f82011682018060405250810190613e749190614543565b60015b613efa573d8060008114613ea7576040519150601f19603f3d011682016040523d82523d6000602084013e613eac565b606091505b50600081511415613ef2576040517f08c379a0000000000000000000000000000000000000000000000000000000008152600401613ee990615043565b60405180910390fd5b805181602001fd5b63150b7a0260e01b7bffffffffffffffffffffffffffffffffffffffffffffffffffffffff1916817bffffffffffffffffffffffffffffffffffffffffffffffffffffffff191614915050613f4f565b600190505b949350505050565b6000808273ffffffffffffffffffffffffffffffffffffffff163b119050919050565b828054613f8690615686565b90600052602060002090601f016020900481019282613fa85760008555613fef565b82601f10613fc157805160ff1916838001178555613fef565b82800160010185558215613fef579182015b82811115613fee578251825591602001919060010190613fd3565b5b509050613ffc919061403e565b5090565b6040518060400160405280600073ffffffffffffffffffffffffffffffffffffffff16815260200160006bffffffffffffffffffffffff1681525090565b5b8082111561405757600081600090555060010161403f565b5090565b600061406e6140698461535e565b615339565b90508281526020810184848401111561408a57614089615853565b5b614095848285615644565b509392505050565b60006140b06140ab8461538f565b615339565b9050828152602081018484840111156140cc576140cb615853565b5b6140d7848285615644565b509392505050565b6000813590506140ee81615edd565b92915050565b60008135905061410381615ef4565b92915050565b60008135905061411881615f0b565b92915050565b60008151905061412d81615f0b565b92915050565b600082601f8301126141485761414761584e565b5b813561415884826020860161405b565b91505092915050565b600082601f8301126141765761417561584e565b5b813561418684826020860161409d565b91505092915050565b60008135905061419e81615f22565b92915050565b6000813590506141b381615f39565b92915050565b6000813590506141c881615f50565b92915050565b6000602082840312156141e4576141e361585d565b5b60006141f2848285016140df565b91505092915050565b600080604083850312156142125761421161585d565b5b6000614220858286016140df565b9250506020614231858286016140df565b9150509250929050565b6000806000606084860312156142545761425361585d565b5b6000614262868287016140df565b9350506020614273868287016140df565b9250506040614284868287016141a4565b9150509250925092565b600080600080608085870312156142a8576142a761585d565b5b60006142b6878288016140df565b94505060206142c7878288016140df565b93505060406142d8878288016141a4565b925050606085013567ffffffffffffffff8111156142f9576142f8615858565b5b61430587828801614133565b91505092959194509250565b600080604083850312156143285761432761585d565b5b6000614336858286016140df565b9250506020614347858286016140f4565b9150509250929050565b600080604083850312156143685761436761585d565b5b6000614376858286016140df565b92505060206143878582860161418f565b9150509250929050565b600080604083850312156143a8576143a761585d565b5b60006143b6858286016140df565b92505060206143c7858286016141a4565b9150509250929050565b6000806000606084860312156143ea576143e961585d565b5b60006143f8868287016140df565b9350506020614409868287016141a4565b925050604084013567ffffffffffffffff81111561442a57614429615858565b5b61443686828701614161565b9150509250925092565b6000806000606084860312156144595761445861585d565b5b6000614467868287016140df565b9350506020614478868287016141a4565b9250506040614489868287016141a4565b9150509250925092565b600080600080608085870312156144ad576144ac61585d565b5b60006144bb878288016140df565b94505060206144cc878288016141a4565b93505060406144dd878288016141a4565b925050606085013567ffffffffffffffff8111156144fe576144fd615858565b5b61450a87828801614161565b91505092959194509250565b60006020828403121561452c5761452b61585d565b5b600061453a84828501614109565b91505092915050565b6000602082840312156145595761455861585d565b5b60006145678482850161411e565b91505092915050565b6000602082840312156145865761458561585d565b5b600082013567ffffffffffffffff8111156145a4576145a3615858565b5b6145b084828501614161565b91505092915050565b600080604083850312156145d0576145cf61585d565b5b600083013567ffffffffffffffff8111156145ee576145ed615858565b5b6145fa85828601614161565b925050602061460b858286016140df565b9150509250929050565b60008060006060848603121561462e5761462d61585d565b5b600084013567ffffffffffffffff81111561464c5761464b615858565b5b61465886828701614161565b9350506020614669868287016140df565b925050604061467a868287016141b9565b9150509250925092565b6000806040838503121561469b5761469a61585d565b5b600083013567ffffffffffffffff8111156146b9576146b8615858565b5b6146c585828601614161565b92505060206146d6858286016141a4565b9150509250929050565b6000806000606084860312156146f9576146f861585d565b5b600084013567ffffffffffffffff81111561471757614716615858565b5b61472386828701614161565b9350506020614734868287016141a4565b9250506040614745868287016141b9565b9150509250925092565b600080604083850312156147665761476561585d565b5b600083013567ffffffffffffffff81111561478457614783615858565b5b61479085828601614161565b92505060206147a1858286016141b9565b9150509250929050565b6000602082840312156147c1576147c061585d565b5b60006147cf848285016141a4565b91505092915050565b600080604083850312156147ef576147ee61585d565b5b60006147fd858286016141a4565b925050602083013567ffffffffffffffff81111561481e5761481d615858565b5b61482a85828601614161565b9150509250929050565b6000806040838503121561484b5761484a61585d565b5b6000614859858286016141a4565b925050602061486a858286016141a4565b9150509250929050565b61487d81615581565b82525050565b61488c8161556f565b82525050565b61489b81615593565b82525050565b6148aa8161559f565b82525050565b60006148bb826153d5565b6148c581856153eb565b93506148d5818560208601615653565b6148de81615862565b840191505092915050565b600081546148f681615686565b61490081866153fc565b9450600182166000811461491b576001811461492c5761495f565b60ff1983168652818601935061495f565b614935856153c0565b60005b8381101561495757815481890152600182019150602081019050614938565b838801955050505b50505092915050565b61497181615632565b82525050565b6000614982826153e0565b61498c8185615407565b935061499c818560208601615653565b6149a581615862565b840191505092915050565b60006149bb826153e0565b6149c58185615418565b93506149d5818560208601615653565b80840191505092915050565b60006149ee600283615418565b91506149f982615873565b600282019050919050565b6000614a11601a83615407565b9150614a1c8261589c565b602082019050919050565b6000614a34603283615407565b9150614a3f826158c5565b604082019050919050565b6000614a57602683615407565b9150614a6282615914565b604082019050919050565b6000614a7a603183615407565b9150614a8582615963565b604082019050919050565b6000614a9d602583615407565b9150614aa8826159b2565b604082019050919050565b6000614ac0601c83615407565b9150614acb82615a01565b602082019050919050565b6000614ae3602483615407565b9150614aee82615a2a565b604082019050919050565b6000614b06601983615407565b9150614b1182615a79565b602082019050919050565b6000614b29601483615407565b9150614b3482615aa2565b602082019050919050565b6000614b4c602c83615407565b9150614b5782615acb565b604082019050919050565b6000614b6f600183615418565b9150614b7a82615b1a565b600182019050919050565b6000614b92603883615407565b9150614b9d82615b43565b604082019050919050565b6000614bb5601183615407565b9150614bc082615b92565b602082019050919050565b6000614bd8602a83615407565b9150614be382615bbb565b604082019050919050565b6000614bfb602983615407565b9150614c0682615c0a565b604082019050919050565b6000614c1e602083615407565b9150614c2982615c59565b602082019050919050565b6000614c41601383615407565b9150614c4c82615c82565b602082019050919050565b6000614c64602c83615407565b9150614c6f82615cab565b604082019050919050565b6000614c87600183615418565b9150614c9282615cfa565b600182019050919050565b6000614caa602083615407565b9150614cb582615d23565b602082019050919050565b6000614ccd602f83615407565b9150614cd882615d4c565b604082019050919050565b6000614cf0600283615418565b9150614cfb82615d9b565b600282019050919050565b6000614d13601783615407565b9150614d1e82615dc4565b602082019050919050565b6000614d36602183615407565b9150614d4182615ded565b604082019050919050565b6000614d59600283615418565b9150614d6482615e3c565b600282019050919050565b6000614d7c603183615407565b9150614d8782615e65565b604082019050919050565b6000614d9f601c83615407565b9150614daa82615eb4565b602082019050919050565b604082016000820151614dcb6000850182614874565b506020820151614dde6020850182614e02565b50505050565b614ded81615603565b82525050565b614dfc8161560d565b82525050565b614e0b8161561a565b82525050565b6000614e1d82846148e9565b915081905092915050565b6000614e3482846149b0565b915081905092915050565b6000614e4b82846149b0565b9150614e56826149e1565b915081905092915050565b6000614e6d82846149b0565b9150614e7882614b62565b915081905092915050565b6000614e8f82846149b0565b9150614e9a82614c7a565b915081905092915050565b6000614eb182846149b0565b9150614ebc82614ce3565b915081905092915050565b6000614ed382846149b0565b9150614ede82614d4c565b915081905092915050565b6000602082019050614efe6000830184614883565b92915050565b6000608082019050614f196000830187614883565b614f266020830186614883565b614f336040830185614de4565b8181036060830152614f4581846148b0565b905095945050505050565b6000604082019050614f656000830185614883565b614f726020830184614de4565b9392505050565b6000604082019050614f8e6000830185614883565b614f9b6020830184614df3565b9392505050565b6000602082019050614fb76000830184614892565b92915050565b6000602082019050614fd260008301846148a1565b92915050565b6000606082019050614fed6000830185614968565b614ffa6020830184614db5565b9392505050565b6000602082019050818103600083015261501b8184614977565b905092915050565b6000602082019050818103600083015261503c81614a04565b9050919050565b6000602082019050818103600083015261505c81614a27565b9050919050565b6000602082019050818103600083015261507c81614a4a565b9050919050565b6000602082019050818103600083015261509c81614a6d565b9050919050565b600060208201905081810360008301526150bc81614a90565b9050919050565b600060208201905081810360008301526150dc81614ab3565b9050919050565b600060208201905081810360008301526150fc81614ad6565b9050919050565b6000602082019050818103600083015261511c81614af9565b9050919050565b6000602082019050818103600083015261513c81614b1c565b9050919050565b6000602082019050818103600083015261515c81614b3f565b9050919050565b6000602082019050818103600083015261517c81614b85565b9050919050565b6000602082019050818103600083015261519c81614ba8565b9050919050565b600060208201905081810360008301526151bc81614bcb565b9050919050565b600060208201905081810360008301526151dc81614bee565b9050919050565b600060208201905081810360008301526151fc81614c11565b9050919050565b6000602082019050818103600083015261521c81614c34565b9050919050565b6000602082019050818103600083015261523c81614c57565b9050919050565b6000602082019050818103600083015261525c81614c9d565b9050919050565b6000602082019050818103600083015261527c81614cc0565b9050919050565b6000602082019050818103600083015261529c81614d06565b9050919050565b600060208201905081810360008301526152bc81614d29565b9050919050565b600060208201905081810360008301526152dc81614d6f565b9050919050565b600060208201905081810360008301526152fc81614d92565b9050919050565b60006040820190506153186000830184614db5565b92915050565b60006020820190506153336000830184614de4565b92915050565b6000615343615354565b905061534f82826156b8565b919050565b6000604051905090565b600067ffffffffffffffff8211156153795761537861581f565b5b61538282615862565b9050602081019050919050565b600067ffffffffffffffff8211156153aa576153a961581f565b5b6153b382615862565b9050602081019050919050565b60008190508160005260206000209050919050565b600081519050919050565b600081519050919050565b600082825260208201905092915050565b600081905092915050565b600082825260208201905092915050565b600081905092915050565b600061542e82615603565b915061543983615603565b9250827fffffffffffffffffffffffffffffffffffffffffffffffffffffffffffffffff0382111561546e5761546d615763565b5b828201905092915050565b60006154848261560d565b915061548f8361560d565b92508260ff038211156154a5576154a4615763565b5b828201905092915050565b60006154bb82615603565b91506154c683615603565b9250826154d6576154d5615792565b5b828204905092915050565b60006154ec82615603565b91506154f783615603565b9250817fffffffffffffffffffffffffffffffffffffffffffffffffffffffffffffffff04831182151516156155305761552f615763565b5b828202905092915050565b600061554682615603565b915061555183615603565b92508282101561556457615563615763565b5b828203905092915050565b600061557a826155e3565b9050919050565b600061558c826155e3565b9050919050565b60008115159050919050565b6000819050919050565b60007fffffffff0000000000000000000000000000000000000000000000000000000082169050919050565b600061ffff82169050919050565b600073ffffffffffffffffffffffffffffffffffffffff82169050919050565b6000819050919050565b600060ff82169050919050565b60006bffffffffffffffffffffffff82169050919050565b600061563d82615603565b9050919050565b82818337600083830152505050565b60005b83811015615671578082015181840152602081019050615656565b83811115615680576000848401525b50505050565b6000600282049050600182168061569e57607f821691505b602082108114156156b2576156b16157c1565b5b50919050565b6156c182615862565b810181811067ffffffffffffffff821117156156e0576156df61581f565b5b80604052505050565b60006156f482615603565b91507fffffffffffffffffffffffffffffffffffffffffffffffffffffffffffffffff82141561572757615726615763565b5b600182019050919050565b600061573d82615603565b915061574883615603565b92508261575857615757615792565b5b828206905092915050565b7f4e487b7100000000000000000000000000000000000000000000000000000000600052601160045260246000fd5b7f4e487b7100000000000000000000000000000000000000000000000000000000600052601260045260246000fd5b7f4e487b7100000000000000000000000000000000000000000000000000000000600052602260045260246000fd5b7f4e487b7100000000000000000000000000000000000000000000000000000000600052603260045260246000fd5b7f4e487b7100000000000000000000000000000000000000000000000000000000600052604160045260246000fd5b600080fd5b600080fd5b600080fd5b600080fd5b6000601f19601f8301169050919050565b7f205d000000000000000000000000000000000000000000000000000000000000600082015250565b7f45524332393831526f79616c746965733a20546f6f2068696768000000000000600082015250565b7f4552433732313a207472616e7366657220746f206e6f6e20455243373231526560008201527f63656976657220696d706c656d656e7465720000000000000000000000000000602082015250565b7f4f776e61626c653a206e6577206f776e657220697320746865207a65726f206160008201527f6464726573730000000000000000000000000000000000000000000000000000602082015250565b7f4552433732314d657461646174613a2050756e636820717565727920666f722060008201527f6e6f6e6578697374656e7420746f6b656e000000000000000000000000000000602082015250565b7f4552433732313a207472616e736665722066726f6d20696e636f72726563742060008201527f6f776e6572000000000000000000000000000000000000000000000000000000602082015250565b7f4552433732313a20746f6b656e20616c7265616479206d696e74656400000000600082015250565b7f4552433732313a207472616e7366657220746f20746865207a65726f2061646460008201527f7265737300000000000000000000000000000000000000000000000000000000602082015250565b7f4552433732313a20617070726f766520746f2063616c6c657200000000000000600082015250565b7f4e6f7420616c6c6f77656420746f2070756e6368000000000000000000000000600082015250565b7f4552433732313a206f70657261746f7220717565727920666f72206e6f6e657860008201527f697374656e7420746f6b656e0000000000000000000000000000000000000000602082015250565b7f2000000000000000000000000000000000000000000000000000000000000000600082015250565b7f4552433732313a20617070726f76652063616c6c6572206973206e6f74206f7760008201527f6e6572206e6f7220617070726f76656420666f7220616c6c0000000000000000602082015250565b7f4e6f6e6578697374656e7420746f6b656e000000000000000000000000000000600082015250565b7f4552433732313a2062616c616e636520717565727920666f7220746865207a6560008201527f726f206164647265737300000000000000000000000000000000000000000000602082015250565b7f4552433732313a206f776e657220717565727920666f72206e6f6e657869737460008201527f656e7420746f6b656e0000000000000000000000000000000000000000000000602082015250565b7f4552433732313a206d696e7420746f20746865207a65726f2061646472657373600082015250565b7f4e6f7420616c6c6f77656420746f206d696e7400000000000000000000000000600082015250565b7f4552433732313a20617070726f76656420717565727920666f72206e6f6e657860008201527f697374656e7420746f6b656e0000000000000000000000000000000000000000602082015250565b7f3a00000000000000000000000000000000000000000000000000000000000000600082015250565b7f4f776e61626c653a2063616c6c6572206973206e6f7420746865206f776e6572600082015250565b7f4552433732314d657461646174613a2055524920717565727920666f72206e6f60008201527f6e6578697374656e7420746f6b656e0000000000000000000000000000000000602082015250565b7f207d000000000000000000000000000000000000000000000000000000000000600082015250565b7f4e6f7420656e6f7567682070756e63686573206c656674000000000000000000600082015250565b7f4552433732313a20617070726f76616c20746f2063757272656e74206f776e6560008201527f7200000000000000000000000000000000000000000000000000000000000000602082015250565b7f2c20000000000000000000000000000000000000000000000000000000000000600082015250565b7f4552433732313a207472616e736665722063616c6c6572206973206e6f74206f60008201527f776e6572206e6f7220617070726f766564000000000000000000000000000000602082015250565b7f54686973206576656e74496420616c7265616479206578697374732e00000000600082015250565b615ee68161556f565b8114615ef157600080fd5b50565b615efd81615593565b8114615f0857600080fd5b50565b615f14816155a9565b8114615f1f57600080fd5b50565b615f2b816155d5565b8114615f3657600080fd5b50565b615f4281615603565b8114615f4d57600080fd5b50565b615f598161560d565b8114615f6457600080fd5b5056fea2646970667358221220221b17656071d5bad10d3b159c484ffadb4c4f117e9a60a47462b5a1e12f3a0264736f6c63430008070033",
  "linkReferences": {},
  "deployedLinkReferences": {}
}