{
  "_format": "hh-sol-artifact-1",
  "contractName": "SDKERC721",
  "sourceName": "contracts/SDKERC_721.sol",
  "abi": [
    {
      "inputs": [],
      "stateMutability": "nonpayable",
      "type": "constructor"
    },
    {
      "anonymous": false,
      "inputs": [
        {
          "indexed": true,
          "internalType": "address",
          "name": "owner",
          "type": "address"
        },
        {
          "indexed": true,
          "internalType": "address",
          "name": "approved",
          "type": "address"
        },
        {
          "indexed": true,
          "internalType": "uint256",
          "name": "tokenId",
          "type": "uint256"
        }
      ],
      "name": "Approval",
      "type": "event"
    },
    {
      "anonymous": false,
      "inputs": [
        {
          "indexed": true,
          "internalType": "address",
          "name": "owner",
          "type": "address"
        },
        {
          "indexed": true,
          "internalType": "address",
          "name": "operator",
          "type": "address"
        },
        {
          "indexed": false,
          "internalType": "bool",
          "name": "approved",
          "type": "bool"
        }
      ],
      "name": "ApprovalForAll",
      "type": "event"
    },
    {
      "anonymous": false,
      "inputs": [
        {
          "indexed": true,
          "internalType": "address",
          "name": "previousOwner",
          "type": "address"
        },
        {
          "indexed": true,
          "internalType": "address",
          "name": "newOwner",
          "type": "address"
        }
      ],
      "name": "OwnershipTransferred",
      "type": "event"
    },
    {
      "anonymous": false,
      "inputs": [
        {
          "indexed": false,
          "internalType": "uint256",
          "name": "tokenId",
          "type": "uint256"
        },
        {
          "components": [
            {
              "internalType": "address payable",
              "name": "account",
              "type": "address"
            },
            {
              "internalType": "uint96",
              "name": "value",
              "type": "uint96"
            }
          ],
          "indexed": false,
          "internalType": "struct SDKERC721.Part",
          "name": "royalties",
          "type": "tuple"
        }
      ],
      "name": "RoyaltiesSet",
      "type": "event"
    },
    {
      "anonymous": false,
      "inputs": [
        {
          "indexed": true,
          "internalType": "address",
          "name": "from",
          "type": "address"
        },
        {
          "indexed": true,
          "internalType": "address",
          "name": "to",
          "type": "address"
        },
        {
          "indexed": true,
          "internalType": "uint256",
          "name": "tokenId",
          "type": "uint256"
        }
      ],
      "name": "Transfer",
      "type": "event"
    },
    {
      "inputs": [],
      "name": "TYPE_HASH",
      "outputs": [
        {
          "internalType": "bytes32",
          "name": "",
          "type": "bytes32"
        }
      ],
      "stateMutability": "view",
      "type": "function"
    },
    {
      "inputs": [
        {
          "internalType": "address",
          "name": "to",
          "type": "address"
        },
        {
          "internalType": "uint256",
          "name": "tokenId",
          "type": "uint256"
        }
      ],
      "name": "approve",
      "outputs": [],
      "stateMutability": "nonpayable",
      "type": "function"
    },
    {
      "inputs": [
        {
          "internalType": "address",
          "name": "owner",
          "type": "address"
        }
      ],
      "name": "balanceOf",
      "outputs": [
        {
          "internalType": "uint256",
          "name": "",
          "type": "uint256"
        }
      ],
      "stateMutability": "view",
      "type": "function"
    },
    {
      "inputs": [
        {
          "internalType": "uint256",
          "name": "_tokenId",
          "type": "uint256"
        }
      ],
      "name": "burn",
      "outputs": [],
      "stateMutability": "nonpayable",
      "type": "function"
    },
    {
      "inputs": [
        {
          "internalType": "string",
          "name": "_Uri",
          "type": "string"
        }
      ],
      "name": "contractURI",
      "outputs": [],
      "stateMutability": "nonpayable",
      "type": "function"
    },
    {
      "inputs": [
        {
          "internalType": "address",
          "name": "owner",
          "type": "address"
        }
      ],
      "name": "experiences",
      "outputs": [
        {
          "internalType": "string",
          "name": "",
          "type": "string"
        }
      ],
      "stateMutability": "view",
      "type": "function"
    },
    {
      "inputs": [
        {
          "internalType": "uint256",
          "name": "tokenId",
          "type": "uint256"
        }
      ],
      "name": "getApproved",
      "outputs": [
        {
          "internalType": "address",
          "name": "",
          "type": "address"
        }
      ],
      "stateMutability": "view",
      "type": "function"
    },
    {
      "inputs": [],
      "name": "getContractURI",
      "outputs": [
        {
          "internalType": "string",
          "name": "",
          "type": "string"
        }
      ],
      "stateMutability": "view",
      "type": "function"
    },
    {
      "inputs": [
        {
          "internalType": "uint256",
          "name": "id",
          "type": "uint256"
        }
      ],
      "name": "getRaribleV2Royalties",
      "outputs": [
        {
          "components": [
            {
              "internalType": "address payable",
              "name": "account",
              "type": "address"
            },
            {
              "internalType": "uint96",
              "name": "value",
              "type": "uint96"
            }
          ],
          "internalType": "struct SDKERC721.Part",
          "name": "",
          "type": "tuple"
        }
      ],
      "stateMutability": "view",
      "type": "function"
    },
    {
      "inputs": [
        {
          "internalType": "address",
          "name": "owner",
          "type": "address"
        },
        {
          "internalType": "address",
          "name": "operator",
          "type": "address"
        }
      ],
      "name": "isApprovedForAll",
      "outputs": [
        {
          "internalType": "bool",
          "name": "",
          "type": "bool"
        }
      ],
      "stateMutability": "view",
      "type": "function"
    },
    {
      "inputs": [
        {
          "internalType": "uint256",
          "name": "_eID",
          "type": "uint256"
        },
        {
          "internalType": "string",
          "name": "_Uri",
          "type": "string"
        }
      ],
      "name": "makeExperience",
      "outputs": [],
      "stateMutability": "nonpayable",
      "type": "function"
    },
    {
      "inputs": [
        {
          "internalType": "uint256",
          "name": "_tID",
          "type": "uint256"
        },
        {
          "internalType": "string",
          "name": "_Uri",
          "type": "string"
        }
      ],
      "name": "makeMetadata",
      "outputs": [],
      "stateMutability": "nonpayable",
      "type": "function"
    },
    {
      "inputs": [
        {
          "internalType": "address",
          "name": "_to",
          "type": "address"
        },
        {
          "internalType": "uint256",
          "name": "_tID",
          "type": "uint256"
        },
        {
          "internalType": "uint256",
          "name": "_eID",
          "type": "uint256"
        }
      ],
      "name": "mint",
      "outputs": [],
      "stateMutability": "nonpayable",
      "type": "function"
    },
    {
      "inputs": [
        {
          "internalType": "address",
          "name": "_to",
          "type": "address"
        },
        {
          "internalType": "uint256",
          "name": "_tID",
          "type": "uint256"
        },
        {
          "internalType": "uint256",
          "name": "_eID",
          "type": "uint256"
        },
        {
          "internalType": "string",
          "name": "_Uri",
          "type": "string"
        }
      ],
      "name": "mint",
      "outputs": [],
      "stateMutability": "nonpayable",
      "type": "function"
    },
    {
      "inputs": [],
      "name": "name",
      "outputs": [
        {
          "internalType": "string",
          "name": "",
          "type": "string"
        }
      ],
      "stateMutability": "view",
      "type": "function"
    },
    {
      "inputs": [],
      "name": "owner",
      "outputs": [
        {
          "internalType": "address",
          "name": "",
          "type": "address"
        }
      ],
      "stateMutability": "view",
      "type": "function"
    },
    {
      "inputs": [
        {
          "internalType": "uint256",
          "name": "tokenId",
          "type": "uint256"
        }
      ],
      "name": "ownerOf",
      "outputs": [
        {
          "internalType": "address",
          "name": "",
          "type": "address"
        }
      ],
      "stateMutability": "view",
      "type": "function"
    },
    {
      "inputs": [
        {
          "internalType": "address",
          "name": "owner",
          "type": "address"
        }
      ],
      "name": "owns",
      "outputs": [
        {
          "internalType": "string",
          "name": "",
          "type": "string"
        }
      ],
      "stateMutability": "view",
      "type": "function"
    },
    {
      "inputs": [],
      "name": "renounceOwnership",
      "outputs": [],
      "stateMutability": "nonpayable",
      "type": "function"
    },
    {
      "inputs": [
        {
          "internalType": "uint256",
          "name": "_tokenId",
          "type": "uint256"
        },
        {
          "internalType": "uint256",
          "name": "_salePrice",
          "type": "uint256"
        }
      ],
      "name": "royaltyInfo",
      "outputs": [
        {
          "internalType": "address",
          "name": "receiver",
          "type": "address"
        },
        {
          "internalType": "uint256",
          "name": "royaltyAmount",
          "type": "uint256"
        }
      ],
      "stateMutability": "view",
      "type": "function"
    },
    {
      "inputs": [
        {
          "internalType": "address",
          "name": "from",
          "type": "address"
        },
        {
          "internalType": "address",
          "name": "to",
          "type": "address"
        },
        {
          "internalType": "uint256",
          "name": "tokenId",
          "type": "uint256"
        }
      ],
      "name": "safeTransferFrom",
      "outputs": [],
      "stateMutability": "nonpayable",
      "type": "function"
    },
    {
      "inputs": [
        {
          "internalType": "address",
          "name": "from",
          "type": "address"
        },
        {
          "internalType": "address",
          "name": "to",
          "type": "address"
        },
        {
          "internalType": "uint256",
          "name": "tokenId",
          "type": "uint256"
        },
        {
          "internalType": "bytes",
          "name": "_data",
          "type": "bytes"
        }
      ],
      "name": "safeTransferFrom",
      "outputs": [],
      "stateMutability": "nonpayable",
      "type": "function"
    },
    {
      "inputs": [
        {
          "internalType": "address",
          "name": "operator",
          "type": "address"
        },
        {
          "internalType": "bool",
          "name": "approved",
          "type": "bool"
        }
      ],
      "name": "setApprovalForAll",
      "outputs": [],
      "stateMutability": "nonpayable",
      "type": "function"
    },
    {
      "inputs": [
        {
          "internalType": "string",
          "name": "_uri",
          "type": "string"
        }
      ],
      "name": "setGlobalMetadata",
      "outputs": [],
      "stateMutability": "nonpayable",
      "type": "function"
    },
    {
      "inputs": [
        {
          "internalType": "address",
          "name": "_royaltiesReceipientAddress",
          "type": "address"
        },
        {
          "internalType": "uint16",
          "name": "_percentage",
          "type": "uint16"
        }
      ],
      "name": "setRoyalties",
      "outputs": [],
      "stateMutability": "nonpayable",
      "type": "function"
    },
    {
      "inputs": [
        {
          "internalType": "bytes4",
          "name": "interfaceId",
          "type": "bytes4"
        }
      ],
      "name": "supportsInterface",
      "outputs": [
        {
          "internalType": "bool",
          "name": "",
          "type": "bool"
        }
      ],
      "stateMutability": "view",
      "type": "function"
    },
    {
      "inputs": [],
      "name": "symbol",
      "outputs": [
        {
          "internalType": "string",
          "name": "",
          "type": "string"
        }
      ],
      "stateMutability": "view",
      "type": "function"
    },
    {
      "inputs": [
        {
          "internalType": "uint256",
          "name": "_tID",
          "type": "uint256"
        }
      ],
      "name": "tokenEID",
      "outputs": [
        {
          "internalType": "uint256",
          "name": "",
          "type": "uint256"
        }
      ],
      "stateMutability": "view",
      "type": "function"
    },
    {
      "inputs": [
        {
          "internalType": "uint256",
          "name": "tokenId",
          "type": "uint256"
        }
      ],
      "name": "tokenURI",
      "outputs": [
        {
          "internalType": "string",
          "name": "",
          "type": "string"
        }
      ],
      "stateMutability": "view",
      "type": "function"
    },
    {
      "inputs": [],
      "name": "totalExperiences",
      "outputs": [
        {
          "internalType": "uint256",
          "name": "",
          "type": "uint256"
        }
      ],
      "stateMutability": "view",
      "type": "function"
    },
    {
      "inputs": [],
      "name": "totalSupply",
      "outputs": [
        {
          "internalType": "uint256",
          "name": "",
          "type": "uint256"
        }
      ],
      "stateMutability": "view",
      "type": "function"
    },
    {
      "inputs": [
        {
          "internalType": "address",
          "name": "from",
          "type": "address"
        },
        {
          "internalType": "address",
          "name": "to",
          "type": "address"
        },
        {
          "internalType": "uint256",
          "name": "tokenId",
          "type": "uint256"
        }
      ],
      "name": "transferFrom",
      "outputs": [],
      "stateMutability": "nonpayable",
      "type": "function"
    },
    {
      "inputs": [
        {
          "internalType": "address",
          "name": "newOwner",
          "type": "address"
        }
      ],
      "name": "transferOwnership",
      "outputs": [],
      "stateMutability": "nonpayable",
      "type": "function"
    }
  ],
  "bytecode": "0x60806040523480156200001157600080fd5b506040518060400160405280600381526020017f53444b00000000000000000000000000000000000000000000000000000000008152506040518060400160405280600381526020017f53444b0000000000000000000000000000000000000000000000000000000000815250816000908051906020019062000096929190620001a6565b508060019080519060200190620000af929190620001a6565b505050620000d2620000c6620000d860201b60201c565b620000e060201b60201c565b620002bb565b600033905090565b6000600660009054906101000a900473ffffffffffffffffffffffffffffffffffffffff16905081600660006101000a81548173ffffffffffffffffffffffffffffffffffffffff021916908373ffffffffffffffffffffffffffffffffffffffff1602179055508173ffffffffffffffffffffffffffffffffffffffff168173ffffffffffffffffffffffffffffffffffffffff167f8be0079c531659141344cd1fd0a4f28419497f9722a3daafe3b4186f6b6457e060405160405180910390a35050565b828054620001b49062000256565b90600052602060002090601f016020900481019282620001d8576000855562000224565b82601f10620001f357805160ff191683800117855562000224565b8280016001018555821562000224579182015b828111156200022357825182559160200191906001019062000206565b5b50905062000233919062000237565b5090565b5b808211156200025257600081600090555060010162000238565b5090565b600060028204905060018216806200026f57607f821691505b602082108114156200028657620002856200028c565b5b50919050565b7f4e487b7100000000000000000000000000000000000000000000000000000000600052602260045260246000fd5b61493b80620002cb6000396000f3fe608060405234801561001057600080fd5b50600436106101fb5760003560e01c8063715018a61161011a578063b88d4fde116100ad578063d9a39e111161007c578063d9a39e11146105ad578063e985e9c5146105dd578063f2fde38b1461060d578063f7bc39bf14610629578063fb5786ee14610659576101fb565b8063b88d4fde14610515578063bb7fde7114610531578063c87b56dd1461054d578063cad96cca1461057d576101fb565b80639158dd38116100e95780639158dd381461048f57806395d89b41146104ab578063a22cb465146104c9578063b2a1acb1146104e5576101fb565b8063715018a61461042d5780637bc843b6146104375780637efc90d4146104555780638da5cb5b14610471576101fb565b80632a55205a116101925780636352211e116101615780636352211e1461039357806363f13f66146103c357806364d4c819146103df57806370a08231146103fd576101fb565b80632a55205a1461030c57806337929eb41461033d57806342842e0e1461035b57806342966c6814610377576101fb565b80630c222ee5116101ce5780630c222ee51461029a578063156e29f6146102b657806318160ddd146102d257806323b872dd146102f0576101fb565b806301ffc9a71461020057806306fdde0314610230578063081812fc1461024e578063095ea7b31461027e575b600080fd5b61021a60048036038101906102159190613392565b610675565b6040516102279190613b2e565b60405180910390f35b610238610725565b6040516102459190613b8d565b60405180910390f35b61026860048036038101906102639190613435565b6107b7565b6040516102759190613a9e565b60405180910390f35b6102986004803603810190610293919061327c565b61083c565b005b6102b460048036038101906102af919061323c565b610954565b005b6102d060048036038101906102cb91906132bc565b610b22565b005b6102da610bc5565b6040516102e79190613e0a565b60405180910390f35b61030a60048036038101906103059190613126565b610c2c565b005b610326600480360381019061032191906134be565b610c8c565b604051610334929190613b05565b60405180910390f35b610345610cea565b6040516103529190613b8d565b60405180910390f35b61037560048036038101906103709190613126565b610d7c565b005b610391600480360381019061038c9190613435565b610d9c565b005b6103ad60048036038101906103a89190613435565b610e74565b6040516103ba9190613a9e565b60405180910390f35b6103dd60048036038101906103d891906133ec565b610f26565b005b6103e7610fbc565b6040516103f49190613b49565b60405180910390f35b610417600480360381019061041291906130b9565b610fe0565b6040516104249190613e0a565b60405180910390f35b610435611098565b005b61043f611120565b60405161044c9190613e0a565b60405180910390f35b61046f600480360381019061046a9190613462565b6111a3565b005b610479611293565b6040516104869190613a9e565b60405180910390f35b6104a960048036038101906104a491906133ec565b6112bd565b005b6104b3611353565b6040516104c09190613b8d565b60405180910390f35b6104e360048036038101906104de91906131fc565b6113e5565b005b6104ff60048036038101906104fa91906130b9565b6113fb565b60405161050c9190613b8d565b60405180910390f35b61052f600480360381019061052a9190613179565b6115ce565b005b61054b6004803603810190610546919061330f565b611630565b005b61056760048036038101906105629190613435565b6116fc565b6040516105749190613b8d565b60405180910390f35b61059760048036038101906105929190613435565b61194b565b6040516105a49190613def565b60405180910390f35b6105c760048036038101906105c29190613435565b6119cf565b6040516105d49190613e0a565b60405180910390f35b6105f760048036038101906105f291906130e6565b611a34565b6040516106049190613b2e565b60405180910390f35b610627600480360381019061062291906130b9565b611ac8565b005b610643600480360381019061063e91906130b9565b611bc0565b6040516106509190613b8d565b60405180910390f35b610673600480360381019061066e9190613462565b611d6a565b005b6000632a55205a60e01b7bffffffffffffffffffffffffffffffffffffffffffffffffffffffff1916827bffffffffffffffffffffffffffffffffffffffffffffffffffffffff1916148061070e575063cad96cca60e01b7bffffffffffffffffffffffffffffffffffffffffffffffffffffffff1916827bffffffffffffffffffffffffffffffffffffffffffffffffffffffff1916145b8061071e575061071d82611e12565b5b9050919050565b6060600080546107349061412e565b80601f01602080910402602001604051908101604052809291908181526020018280546107609061412e565b80156107ad5780601f10610782576101008083540402835291602001916107ad565b820191906000526020600020905b81548152906001019060200180831161079057829003601f168201915b5050505050905090565b60006107c282611ef4565b610801576040517f08c379a00000000000000000000000000000000000000000000000000000000081526004016107f890613d4f565b60405180910390fd5b6004600083815260200190815260200160002060009054906101000a900473ffffffffffffffffffffffffffffffffffffffff169050919050565b600061084782610e74565b90508073ffffffffffffffffffffffffffffffffffffffff168373ffffffffffffffffffffffffffffffffffffffff1614156108b8576040517f08c379a00000000000000000000000000000000000000000000000000000000081526004016108af90613daf565b60405180910390fd5b8073ffffffffffffffffffffffffffffffffffffffff166108d7611f60565b73ffffffffffffffffffffffffffffffffffffffff161480610906575061090581610900611f60565b611a34565b5b610945576040517f08c379a000000000000000000000000000000000000000000000000000000000815260040161093c90613caf565b60405180910390fd5b61094f8383611f68565b505050565b61095c611f60565b73ffffffffffffffffffffffffffffffffffffffff1661097a611293565b73ffffffffffffffffffffffffffffffffffffffff16146109d0576040517f08c379a00000000000000000000000000000000000000000000000000000000081526004016109c790613d6f565b60405180910390fd5b6127108161ffff1610610a18576040517f08c379a0000000000000000000000000000000000000000000000000000000008152600401610a0f90613baf565b60405180910390fd5b81600c60006101000a81548173ffffffffffffffffffffffffffffffffffffffff021916908373ffffffffffffffffffffffffffffffffffffffff16021790555080600c60146101000a81548161ffff021916908361ffff1602179055507f03ca518fc7a952da1be15b759a29c1d193a178303d32c4ab2016133b610a215d60006040518060400160405280600c60009054906101000a900473ffffffffffffffffffffffffffffffffffffffff1673ffffffffffffffffffffffffffffffffffffffff168152602001600c60149054906101000a900461ffff1661ffff166bffffffffffffffffffffffff16815250604051610b16929190613b64565b60405180910390a15050565b610b2a611f60565b73ffffffffffffffffffffffffffffffffffffffff16610b48611293565b73ffffffffffffffffffffffffffffffffffffffff1614610b9e576040517f08c379a0000000000000000000000000000000000000000000000000000000008152600401610b9590613d6f565b60405180910390fd5b610ba88383612021565b806009600084815260200190815260200160002081905550505050565b6000806103e8905060008060005b83831015610c2257610be482611ef4565b15610c00578080610bf490614191565b91505060009250610c0f565b8280610c0b90614191565b9350505b8180610c1a90614191565b925050610bd3565b8094505050505090565b610c3d610c37611f60565b826121fb565b610c7c576040517f08c379a0000000000000000000000000000000000000000000000000000000008152600401610c7390613dcf565b60405180910390fd5b610c878383836122d9565b505050565b600080600c60009054906101000a900473ffffffffffffffffffffffffffffffffffffffff16612710600c60149054906101000a900461ffff1661ffff1685610cd59190613f96565b610cdf9190613f65565b915091509250929050565b6060600b8054610cf99061412e565b80601f0160208091040260200160405190810160405280929190818152602001828054610d259061412e565b8015610d725780601f10610d4757610100808354040283529160200191610d72565b820191906000526020600020905b815481529060010190602001808311610d5557829003601f168201915b5050505050905090565b610d97838383604051806020016040528060008152506115ce565b505050565b610da4611f60565b73ffffffffffffffffffffffffffffffffffffffff16610dc2611293565b73ffffffffffffffffffffffffffffffffffffffff1614610e18576040517f08c379a0000000000000000000000000000000000000000000000000000000008152600401610e0f90613d6f565b60405180910390fd5b60405180602001604052806000815250600a60008381526020019081526020016000209080519060200190610e4e929190612e7a565b5060006009600083815260200190815260200160002081905550610e7181612540565b50565b6000806002600084815260200190815260200160002060009054906101000a900473ffffffffffffffffffffffffffffffffffffffff169050600073ffffffffffffffffffffffffffffffffffffffff168173ffffffffffffffffffffffffffffffffffffffff161415610f1d576040517f08c379a0000000000000000000000000000000000000000000000000000000008152600401610f1490613d0f565b60405180910390fd5b80915050919050565b610f2e611f60565b73ffffffffffffffffffffffffffffffffffffffff16610f4c611293565b73ffffffffffffffffffffffffffffffffffffffff1614610fa2576040517f08c379a0000000000000000000000000000000000000000000000000000000008152600401610f9990613d6f565b60405180910390fd5b80600b9080519060200190610fb8929190612e7a565b5050565b7f397e04204c1e1a60ee8724b71f8244e10ab5f2e9009854d80f602bda21b59ebb81565b60008073ffffffffffffffffffffffffffffffffffffffff168273ffffffffffffffffffffffffffffffffffffffff161415611051576040517f08c379a000000000000000000000000000000000000000000000000000000000815260040161104890613cef565b60405180910390fd5b600360008373ffffffffffffffffffffffffffffffffffffffff1673ffffffffffffffffffffffffffffffffffffffff168152602001908152602001600020549050919050565b6110a0611f60565b73ffffffffffffffffffffffffffffffffffffffff166110be611293565b73ffffffffffffffffffffffffffffffffffffffff1614611114576040517f08c379a000000000000000000000000000000000000000000000000000000000815260040161110b90613d6f565b60405180910390fd5b61111e600061265d565b565b600080606490506000806001905060005b838310156111995760006008600084815260200190815260200160002080546111599061412e565b90501461117757808061116b90614191565b91505060009250611186565b828061118290614191565b9350505b818061119190614191565b925050611131565b8094505050505090565b6111ab611f60565b73ffffffffffffffffffffffffffffffffffffffff166111c9611293565b73ffffffffffffffffffffffffffffffffffffffff161461121f576040517f08c379a000000000000000000000000000000000000000000000000000000000815260040161121690613d6f565b60405180910390fd5b61122882611ef4565b611267576040517f08c379a000000000000000000000000000000000000000000000000000000000815260040161125e90613ccf565b60405180910390fd5b80600a6000848152602001908152602001600020908051906020019061128e929190612e7a565b505050565b6000600660009054906101000a900473ffffffffffffffffffffffffffffffffffffffff16905090565b6112c5611f60565b73ffffffffffffffffffffffffffffffffffffffff166112e3611293565b73ffffffffffffffffffffffffffffffffffffffff1614611339576040517f08c379a000000000000000000000000000000000000000000000000000000000815260040161133090613d6f565b60405180910390fd5b806007908051906020019061134f929190612e7a565b5050565b6060600180546113629061412e565b80601f016020809104026020016040519081016040528092919081815260200182805461138e9061412e565b80156113db5780601f106113b0576101008083540402835291602001916113db565b820191906000526020600020905b8154815290600101906020018083116113be57829003601f168201915b5050505050905090565b6113f76113f0611f60565b8383612723565b5050565b606060006001905060006103e890506000806040518060400160405280600181526020017f7b00000000000000000000000000000000000000000000000000000000000000815250905060006040518060400160405280600181526020017f7b0000000000000000000000000000000000000000000000000000000000000081525090505b8383101561159f5761149185611ef4565b1561157d57600092508673ffffffffffffffffffffffffffffffffffffffff166114ba86610e74565b73ffffffffffffffffffffffffffffffffffffffff16141561157857808051906020012082805190602001201461151257816040516020016114fc9190613a7c565b6040516020818303038152906040529150611535565b816040516020016115239190613a16565b60405160208183030381529060405291505b61153f8286612890565b9150816040516020016115529190613a38565b604051602081830303815290604052915061157582611570876119cf565b612890565b91505b61158c565b828061158890614191565b9350505b848061159790614191565b955050611480565b816040516020016115b09190613a5a565b60405160208183030381529060405291508195505050505050919050565b6115df6115d9611f60565b836121fb565b61161e576040517f08c379a000000000000000000000000000000000000000000000000000000000815260040161161590613dcf565b60405180910390fd5b61162a84848484612b0b565b50505050565b611638611f60565b73ffffffffffffffffffffffffffffffffffffffff16611656611293565b73ffffffffffffffffffffffffffffffffffffffff16146116ac576040517f08c379a00000000000000000000000000000000000000000000000000000000081526004016116a390613d6f565b60405180910390fd5b6116b68484612021565b81600960008581526020019081526020016000208190555080600a600085815260200190815260200160002090805190602001906116f5929190612e7a565b5050505050565b606061170782611ef4565b611746576040517f08c379a000000000000000000000000000000000000000000000000000000000815260040161173d90613d8f565b60405180910390fd5b61174e612b67565b6117e4576007805461175f9061412e565b80601f016020809104026020016040519081016040528092919081815260200182805461178b9061412e565b80156117d85780601f106117ad576101008083540402835291602001916117d8565b820191906000526020600020905b8154815290600101906020018083116117bb57829003601f168201915b50505050509050611946565b6117ed82612ba2565b6118a757600860006009600085815260200190815260200160002054815260200190815260200160002080546118229061412e565b80601f016020809104026020016040519081016040528092919081815260200182805461184e9061412e565b801561189b5780601f106118705761010080835404028352916020019161189b565b820191906000526020600020905b81548152906001019060200180831161187e57829003601f168201915b50505050509050611946565b600a600083815260200190815260200160002080546118c59061412e565b80601f01602080910402602001604051908101604052809291908181526020018280546118f19061412e565b801561193e5780601f106119135761010080835404028352916020019161193e565b820191906000526020600020905b81548152906001019060200180831161192157829003601f168201915b505050505090505b919050565b611953612f00565b60006040518060400160405280600c60009054906101000a900473ffffffffffffffffffffffffffffffffffffffff1673ffffffffffffffffffffffffffffffffffffffff168152602001600c60149054906101000a900461ffff1661ffff166bffffffffffffffffffffffff16815250905080915050919050565b60006119da82611ef4565b611a19576040517f08c379a0000000000000000000000000000000000000000000000000000000008152600401611a1090613d8f565b60405180910390fd5b60096000838152602001908152602001600020549050919050565b6000600560008473ffffffffffffffffffffffffffffffffffffffff1673ffffffffffffffffffffffffffffffffffffffff16815260200190815260200160002060008373ffffffffffffffffffffffffffffffffffffffff1673ffffffffffffffffffffffffffffffffffffffff16815260200190815260200160002060009054906101000a900460ff16905092915050565b611ad0611f60565b73ffffffffffffffffffffffffffffffffffffffff16611aee611293565b73ffffffffffffffffffffffffffffffffffffffff1614611b44576040517f08c379a0000000000000000000000000000000000000000000000000000000008152600401611b3b90613d6f565b60405180910390fd5b600073ffffffffffffffffffffffffffffffffffffffff168173ffffffffffffffffffffffffffffffffffffffff161415611bb4576040517f08c379a0000000000000000000000000000000000000000000000000000000008152600401611bab90613bef565b60405180910390fd5b611bbd8161265d565b50565b60606000600190506000611bd2610bc5565b905060006103e890506000806040518060400160405280600181526020017f5b00000000000000000000000000000000000000000000000000000000000000815250905060006040518060400160405280600181526020017f5b0000000000000000000000000000000000000000000000000000000000000081525090505b83831015611d3a57611c6286611ef4565b15611d1857600092508773ffffffffffffffffffffffffffffffffffffffff16611c8b87610e74565b73ffffffffffffffffffffffffffffffffffffffff161415611d13578080519060200120828051906020012014611ce35781604051602001611ccd9190613a7c565b6040516020818303038152906040529150611d06565b81604051602001611cf49190613a16565b60405160208183030381529060405291505b611d108287612890565b91505b611d27565b8280611d2390614191565b9350505b8580611d3290614191565b965050611c51565b81604051602001611d4b91906139f4565b6040516020818303038152906040529150819650505050505050919050565b611d72611f60565b73ffffffffffffffffffffffffffffffffffffffff16611d90611293565b73ffffffffffffffffffffffffffffffffffffffff1614611de6576040517f08c379a0000000000000000000000000000000000000000000000000000000008152600401611ddd90613d6f565b60405180910390fd5b80600860008481526020019081526020016000209080519060200190611e0d929190612e7a565b505050565b60007f80ac58cd000000000000000000000000000000000000000000000000000000007bffffffffffffffffffffffffffffffffffffffffffffffffffffffff1916827bffffffffffffffffffffffffffffffffffffffffffffffffffffffff19161480611edd57507f5b5e139f000000000000000000000000000000000000000000000000000000007bffffffffffffffffffffffffffffffffffffffffffffffffffffffff1916827bffffffffffffffffffffffffffffffffffffffffffffffffffffffff1916145b80611eed5750611eec82612c4c565b5b9050919050565b60008073ffffffffffffffffffffffffffffffffffffffff166002600084815260200190815260200160002060009054906101000a900473ffffffffffffffffffffffffffffffffffffffff1673ffffffffffffffffffffffffffffffffffffffff1614159050919050565b600033905090565b816004600083815260200190815260200160002060006101000a81548173ffffffffffffffffffffffffffffffffffffffff021916908373ffffffffffffffffffffffffffffffffffffffff160217905550808273ffffffffffffffffffffffffffffffffffffffff16611fdb83610e74565b73ffffffffffffffffffffffffffffffffffffffff167f8c5be1e5ebec7d5bd14f71427d1e84f3dd0314c0f7b2291e5b200ac8c7c3b92560405160405180910390a45050565b600073ffffffffffffffffffffffffffffffffffffffff168273ffffffffffffffffffffffffffffffffffffffff161415612091576040517f08c379a000000000000000000000000000000000000000000000000000000000815260040161208890613d2f565b60405180910390fd5b61209a81611ef4565b156120da576040517f08c379a00000000000000000000000000000000000000000000000000000000081526004016120d190613c2f565b60405180910390fd5b6120e660008383612cb6565b6001600360008473ffffffffffffffffffffffffffffffffffffffff1673ffffffffffffffffffffffffffffffffffffffff16815260200190815260200160002060008282546121369190613f0f565b92505081905550816002600083815260200190815260200160002060006101000a81548173ffffffffffffffffffffffffffffffffffffffff021916908373ffffffffffffffffffffffffffffffffffffffff160217905550808273ffffffffffffffffffffffffffffffffffffffff16600073ffffffffffffffffffffffffffffffffffffffff167fddf252ad1be2c89b69c2b068fc378daa952ba7f163c4a11628f55a4df523b3ef60405160405180910390a46121f760008383612cbb565b5050565b600061220682611ef4565b612245576040517f08c379a000000000000000000000000000000000000000000000000000000000815260040161223c90613c8f565b60405180910390fd5b600061225083610e74565b90508073ffffffffffffffffffffffffffffffffffffffff168473ffffffffffffffffffffffffffffffffffffffff1614806122bf57508373ffffffffffffffffffffffffffffffffffffffff166122a7846107b7565b73ffffffffffffffffffffffffffffffffffffffff16145b806122d057506122cf8185611a34565b5b91505092915050565b8273ffffffffffffffffffffffffffffffffffffffff166122f982610e74565b73ffffffffffffffffffffffffffffffffffffffff161461234f576040517f08c379a000000000000000000000000000000000000000000000000000000000815260040161234690613c0f565b60405180910390fd5b600073ffffffffffffffffffffffffffffffffffffffff168273ffffffffffffffffffffffffffffffffffffffff1614156123bf576040517f08c379a00000000000000000000000000000000000000000000000000000000081526004016123b690613c4f565b60405180910390fd5b6123ca838383612cb6565b6123d5600082611f68565b6001600360008573ffffffffffffffffffffffffffffffffffffffff1673ffffffffffffffffffffffffffffffffffffffff16815260200190815260200160002060008282546124259190613ff0565b925050819055506001600360008473ffffffffffffffffffffffffffffffffffffffff1673ffffffffffffffffffffffffffffffffffffffff168152602001908152602001600020600082825461247c9190613f0f565b92505081905550816002600083815260200190815260200160002060006101000a81548173ffffffffffffffffffffffffffffffffffffffff021916908373ffffffffffffffffffffffffffffffffffffffff160217905550808273ffffffffffffffffffffffffffffffffffffffff168473ffffffffffffffffffffffffffffffffffffffff167fddf252ad1be2c89b69c2b068fc378daa952ba7f163c4a11628f55a4df523b3ef60405160405180910390a461253b838383612cbb565b505050565b600061254b82610e74565b905061255981600084612cb6565b612564600083611f68565b6001600360008373ffffffffffffffffffffffffffffffffffffffff1673ffffffffffffffffffffffffffffffffffffffff16815260200190815260200160002060008282546125b49190613ff0565b925050819055506002600083815260200190815260200160002060006101000a81549073ffffffffffffffffffffffffffffffffffffffff021916905581600073ffffffffffffffffffffffffffffffffffffffff168273ffffffffffffffffffffffffffffffffffffffff167fddf252ad1be2c89b69c2b068fc378daa952ba7f163c4a11628f55a4df523b3ef60405160405180910390a461265981600084612cbb565b5050565b6000600660009054906101000a900473ffffffffffffffffffffffffffffffffffffffff16905081600660006101000a81548173ffffffffffffffffffffffffffffffffffffffff021916908373ffffffffffffffffffffffffffffffffffffffff1602179055508173ffffffffffffffffffffffffffffffffffffffff168173ffffffffffffffffffffffffffffffffffffffff167f8be0079c531659141344cd1fd0a4f28419497f9722a3daafe3b4186f6b6457e060405160405180910390a35050565b8173ffffffffffffffffffffffffffffffffffffffff168373ffffffffffffffffffffffffffffffffffffffff161415612792576040517f08c379a000000000000000000000000000000000000000000000000000000000815260040161278990613c6f565b60405180910390fd5b80600560008573ffffffffffffffffffffffffffffffffffffffff1673ffffffffffffffffffffffffffffffffffffffff16815260200190815260200160002060008473ffffffffffffffffffffffffffffffffffffffff1673ffffffffffffffffffffffffffffffffffffffff16815260200190815260200160002060006101000a81548160ff0219169083151502179055508173ffffffffffffffffffffffffffffffffffffffff168373ffffffffffffffffffffffffffffffffffffffff167f17307eab39ab6107e8899845ad3d59bd9653f200f220920489ca2b5937696c31836040516128839190613b2e565b60405180910390a3505050565b606060006064905060008167ffffffffffffffff8111156128b4576128b36142c7565b5b6040519080825280601f01601f1916602001820160405280156128e65781602001600182028036833780820191505090505b50905060005b60008514612978576000600a8661290391906141da565b9050600a866129129190613f65565b95508060306129219190613f0f565b60f81b83838061293090614191565b94508151811061294357612942614298565b5b60200101907effffffffffffffffffffffffffffffffffffffffffffffffffffffffffffff1916908160001a905350506128ec565b6000869050600082825161298c9190613f0f565b67ffffffffffffffff8111156129a5576129a46142c7565b5b6040519080825280601f01601f1916602001820160405280156129d75781602001600182028036833780820191505090505b50905060005b8251811015612a59578281815181106129f9576129f8614298565b5b602001015160f81c60f81b828281518110612a1757612a16614298565b5b60200101907effffffffffffffffffffffffffffffffffffffffffffffffffffffffffffff1916908160001a9053508080612a5190614191565b9150506129dd565b600090505b83811015612afc578481600186612a759190613ff0565b612a7f9190613ff0565b81518110612a9057612a8f614298565b5b602001015160f81c60f81b82845183612aa99190613f0f565b81518110612aba57612ab9614298565b5b60200101907effffffffffffffffffffffffffffffffffffffffffffffffffffffffffffff1916908160001a9053508080612af490614191565b915050612a5e565b81965050505050505092915050565b612b168484846122d9565b612b2284848484612cc0565b612b61576040517f08c379a0000000000000000000000000000000000000000000000000000000008152600401612b5890613bcf565b60405180910390fd5b50505050565b60008060405180602001604052806000815250905080805190602001206007604051612b9391906139dd565b60405180910390201491505090565b6000612bad82611ef4565b612bec576040517f08c379a0000000000000000000000000000000000000000000000000000000008152600401612be390613d8f565b60405180910390fd5b600060405180602001604052806000815250905080805190602001206008600060096000878152602001908152602001600020548152602001908152602001600020604051612c3b91906139dd565b604051809103902014915050919050565b60007f01ffc9a7000000000000000000000000000000000000000000000000000000007bffffffffffffffffffffffffffffffffffffffffffffffffffffffff1916827bffffffffffffffffffffffffffffffffffffffffffffffffffffffff1916149050919050565b505050565b505050565b6000612ce18473ffffffffffffffffffffffffffffffffffffffff16612e57565b15612e4a578373ffffffffffffffffffffffffffffffffffffffff1663150b7a02612d0a611f60565b8786866040518563ffffffff1660e01b8152600401612d2c9493929190613ab9565b602060405180830381600087803b158015612d4657600080fd5b505af1925050508015612d7757506040513d601f19601f82011682018060405250810190612d7491906133bf565b60015b612dfa573d8060008114612da7576040519150601f19603f3d011682016040523d82523d6000602084013e612dac565b606091505b50600081511415612df2576040517f08c379a0000000000000000000000000000000000000000000000000000000008152600401612de990613bcf565b60405180910390fd5b805181602001fd5b63150b7a0260e01b7bffffffffffffffffffffffffffffffffffffffffffffffffffffffff1916817bffffffffffffffffffffffffffffffffffffffffffffffffffffffff191614915050612e4f565b600190505b949350505050565b6000808273ffffffffffffffffffffffffffffffffffffffff163b119050919050565b828054612e869061412e565b90600052602060002090601f016020900481019282612ea85760008555612eef565b82601f10612ec157805160ff1916838001178555612eef565b82800160010185558215612eef579182015b82811115612eee578251825591602001919060010190612ed3565b5b509050612efc9190612f3e565b5090565b6040518060400160405280600073ffffffffffffffffffffffffffffffffffffffff16815260200160006bffffffffffffffffffffffff1681525090565b5b80821115612f57576000816000905550600101612f3f565b5090565b6000612f6e612f6984613e4a565b613e25565b905082815260208101848484011115612f8a57612f896142fb565b5b612f958482856140ec565b509392505050565b6000612fb0612fab84613e7b565b613e25565b905082815260208101848484011115612fcc57612fcb6142fb565b5b612fd78482856140ec565b509392505050565b600081359050612fee81614892565b92915050565b600081359050613003816148a9565b92915050565b600081359050613018816148c0565b92915050565b60008151905061302d816148c0565b92915050565b600082601f830112613048576130476142f6565b5b8135613058848260208601612f5b565b91505092915050565b600082601f830112613076576130756142f6565b5b8135613086848260208601612f9d565b91505092915050565b60008135905061309e816148d7565b92915050565b6000813590506130b3816148ee565b92915050565b6000602082840312156130cf576130ce614305565b5b60006130dd84828501612fdf565b91505092915050565b600080604083850312156130fd576130fc614305565b5b600061310b85828601612fdf565b925050602061311c85828601612fdf565b9150509250929050565b60008060006060848603121561313f5761313e614305565b5b600061314d86828701612fdf565b935050602061315e86828701612fdf565b925050604061316f868287016130a4565b9150509250925092565b6000806000806080858703121561319357613192614305565b5b60006131a187828801612fdf565b94505060206131b287828801612fdf565b93505060406131c3878288016130a4565b925050606085013567ffffffffffffffff8111156131e4576131e3614300565b5b6131f087828801613033565b91505092959194509250565b6000806040838503121561321357613212614305565b5b600061322185828601612fdf565b925050602061323285828601612ff4565b9150509250929050565b6000806040838503121561325357613252614305565b5b600061326185828601612fdf565b92505060206132728582860161308f565b9150509250929050565b6000806040838503121561329357613292614305565b5b60006132a185828601612fdf565b92505060206132b2858286016130a4565b9150509250929050565b6000806000606084860312156132d5576132d4614305565b5b60006132e386828701612fdf565b93505060206132f4868287016130a4565b9250506040613305868287016130a4565b9150509250925092565b6000806000806080858703121561332957613328614305565b5b600061333787828801612fdf565b9450506020613348878288016130a4565b9350506040613359878288016130a4565b925050606085013567ffffffffffffffff81111561337a57613379614300565b5b61338687828801613061565b91505092959194509250565b6000602082840312156133a8576133a7614305565b5b60006133b684828501613009565b91505092915050565b6000602082840312156133d5576133d4614305565b5b60006133e38482850161301e565b91505092915050565b60006020828403121561340257613401614305565b5b600082013567ffffffffffffffff8111156134205761341f614300565b5b61342c84828501613061565b91505092915050565b60006020828403121561344b5761344a614305565b5b6000613459848285016130a4565b91505092915050565b6000806040838503121561347957613478614305565b5b6000613487858286016130a4565b925050602083013567ffffffffffffffff8111156134a8576134a7614300565b5b6134b485828601613061565b9150509250929050565b600080604083850312156134d5576134d4614305565b5b60006134e3858286016130a4565b92505060206134f4858286016130a4565b9150509250929050565b61350781614036565b82525050565b61351681614024565b82525050565b61352581614048565b82525050565b61353481614054565b82525050565b600061354582613ec1565b61354f8185613ed7565b935061355f8185602086016140fb565b6135688161430a565b840191505092915050565b600081546135808161412e565b61358a8186613ee8565b945060018216600081146135a557600181146135b6576135e9565b60ff198316865281860193506135e9565b6135bf85613eac565b60005b838110156135e1578154818901526001820191506020810190506135c2565b838801955050505b50505092915050565b6135fb816140da565b82525050565b600061360c82613ecc565b6136168185613ef3565b93506136268185602086016140fb565b61362f8161430a565b840191505092915050565b600061364582613ecc565b61364f8185613f04565b935061365f8185602086016140fb565b80840191505092915050565b6000613678600283613f04565b91506136838261431b565b600282019050919050565b600061369b601a83613ef3565b91506136a682614344565b602082019050919050565b60006136be603283613ef3565b91506136c98261436d565b604082019050919050565b60006136e1602683613ef3565b91506136ec826143bc565b604082019050919050565b6000613704602583613ef3565b915061370f8261440b565b604082019050919050565b6000613727601c83613ef3565b91506137328261445a565b602082019050919050565b600061374a602483613ef3565b915061375582614483565b604082019050919050565b600061376d601983613ef3565b9150613778826144d2565b602082019050919050565b6000613790602c83613ef3565b915061379b826144fb565b604082019050919050565b60006137b3600183613f04565b91506137be8261454a565b600182019050919050565b60006137d6603883613ef3565b91506137e182614573565b604082019050919050565b60006137f9601183613ef3565b9150613804826145c2565b602082019050919050565b600061381c602a83613ef3565b9150613827826145eb565b604082019050919050565b600061383f602983613ef3565b915061384a8261463a565b604082019050919050565b6000613862602083613ef3565b915061386d82614689565b602082019050919050565b6000613885602c83613ef3565b9150613890826146b2565b604082019050919050565b60006138a8600183613f04565b91506138b382614701565b600182019050919050565b60006138cb602083613ef3565b91506138d68261472a565b602082019050919050565b60006138ee602f83613ef3565b91506138f982614753565b604082019050919050565b6000613911600283613f04565b915061391c826147a2565b600282019050919050565b6000613934602183613ef3565b915061393f826147cb565b604082019050919050565b6000613957600283613f04565b91506139628261481a565b600282019050919050565b600061397a603183613ef3565b915061398582614843565b604082019050919050565b6040820160008201516139a660008501826134fe565b5060208201516139b960208501826139ce565b50505050565b6139c8816140b8565b82525050565b6139d7816140c2565b82525050565b60006139e98284613573565b915081905092915050565b6000613a00828461363a565b9150613a0b8261366b565b915081905092915050565b6000613a22828461363a565b9150613a2d826137a6565b915081905092915050565b6000613a44828461363a565b9150613a4f8261389b565b915081905092915050565b6000613a66828461363a565b9150613a7182613904565b915081905092915050565b6000613a88828461363a565b9150613a938261394a565b915081905092915050565b6000602082019050613ab3600083018461350d565b92915050565b6000608082019050613ace600083018761350d565b613adb602083018661350d565b613ae860408301856139bf565b8181036060830152613afa818461353a565b905095945050505050565b6000604082019050613b1a600083018561350d565b613b2760208301846139bf565b9392505050565b6000602082019050613b43600083018461351c565b92915050565b6000602082019050613b5e600083018461352b565b92915050565b6000606082019050613b7960008301856135f2565b613b866020830184613990565b9392505050565b60006020820190508181036000830152613ba78184613601565b905092915050565b60006020820190508181036000830152613bc88161368e565b9050919050565b60006020820190508181036000830152613be8816136b1565b9050919050565b60006020820190508181036000830152613c08816136d4565b9050919050565b60006020820190508181036000830152613c28816136f7565b9050919050565b60006020820190508181036000830152613c488161371a565b9050919050565b60006020820190508181036000830152613c688161373d565b9050919050565b60006020820190508181036000830152613c8881613760565b9050919050565b60006020820190508181036000830152613ca881613783565b9050919050565b60006020820190508181036000830152613cc8816137c9565b9050919050565b60006020820190508181036000830152613ce8816137ec565b9050919050565b60006020820190508181036000830152613d088161380f565b9050919050565b60006020820190508181036000830152613d2881613832565b9050919050565b60006020820190508181036000830152613d4881613855565b9050919050565b60006020820190508181036000830152613d6881613878565b9050919050565b60006020820190508181036000830152613d88816138be565b9050919050565b60006020820190508181036000830152613da8816138e1565b9050919050565b60006020820190508181036000830152613dc881613927565b9050919050565b60006020820190508181036000830152613de88161396d565b9050919050565b6000604082019050613e046000830184613990565b92915050565b6000602082019050613e1f60008301846139bf565b92915050565b6000613e2f613e40565b9050613e3b8282614160565b919050565b6000604051905090565b600067ffffffffffffffff821115613e6557613e646142c7565b5b613e6e8261430a565b9050602081019050919050565b600067ffffffffffffffff821115613e9657613e956142c7565b5b613e9f8261430a565b9050602081019050919050565b60008190508160005260206000209050919050565b600081519050919050565b600081519050919050565b600082825260208201905092915050565b600081905092915050565b600082825260208201905092915050565b600081905092915050565b6000613f1a826140b8565b9150613f25836140b8565b9250827fffffffffffffffffffffffffffffffffffffffffffffffffffffffffffffffff03821115613f5a57613f5961420b565b5b828201905092915050565b6000613f70826140b8565b9150613f7b836140b8565b925082613f8b57613f8a61423a565b5b828204905092915050565b6000613fa1826140b8565b9150613fac836140b8565b9250817fffffffffffffffffffffffffffffffffffffffffffffffffffffffffffffffff0483118215151615613fe557613fe461420b565b5b828202905092915050565b6000613ffb826140b8565b9150614006836140b8565b9250828210156140195761401861420b565b5b828203905092915050565b600061402f82614098565b9050919050565b600061404182614098565b9050919050565b60008115159050919050565b6000819050919050565b60007fffffffff0000000000000000000000000000000000000000000000000000000082169050919050565b600061ffff82169050919050565b600073ffffffffffffffffffffffffffffffffffffffff82169050919050565b6000819050919050565b60006bffffffffffffffffffffffff82169050919050565b60006140e5826140b8565b9050919050565b82818337600083830152505050565b60005b838110156141195780820151818401526020810190506140fe565b83811115614128576000848401525b50505050565b6000600282049050600182168061414657607f821691505b6020821081141561415a57614159614269565b5b50919050565b6141698261430a565b810181811067ffffffffffffffff82111715614188576141876142c7565b5b80604052505050565b600061419c826140b8565b91507fffffffffffffffffffffffffffffffffffffffffffffffffffffffffffffffff8214156141cf576141ce61420b565b5b600182019050919050565b60006141e5826140b8565b91506141f0836140b8565b925082614200576141ff61423a565b5b828206905092915050565b7f4e487b7100000000000000000000000000000000000000000000000000000000600052601160045260246000fd5b7f4e487b7100000000000000000000000000000000000000000000000000000000600052601260045260246000fd5b7f4e487b7100000000000000000000000000000000000000000000000000000000600052602260045260246000fd5b7f4e487b7100000000000000000000000000000000000000000000000000000000600052603260045260246000fd5b7f4e487b7100000000000000000000000000000000000000000000000000000000600052604160045260246000fd5b600080fd5b600080fd5b600080fd5b600080fd5b6000601f19601f8301169050919050565b7f205d000000000000000000000000000000000000000000000000000000000000600082015250565b7f45524332393831526f79616c746965733a20546f6f2068696768000000000000600082015250565b7f4552433732313a207472616e7366657220746f206e6f6e20455243373231526560008201527f63656976657220696d706c656d656e7465720000000000000000000000000000602082015250565b7f4f776e61626c653a206e6577206f776e657220697320746865207a65726f206160008201527f6464726573730000000000000000000000000000000000000000000000000000602082015250565b7f4552433732313a207472616e736665722066726f6d20696e636f72726563742060008201527f6f776e6572000000000000000000000000000000000000000000000000000000602082015250565b7f4552433732313a20746f6b656e20616c7265616479206d696e74656400000000600082015250565b7f4552433732313a207472616e7366657220746f20746865207a65726f2061646460008201527f7265737300000000000000000000000000000000000000000000000000000000602082015250565b7f4552433732313a20617070726f766520746f2063616c6c657200000000000000600082015250565b7f4552433732313a206f70657261746f7220717565727920666f72206e6f6e657860008201527f697374656e7420746f6b656e0000000000000000000000000000000000000000602082015250565b7f2000000000000000000000000000000000000000000000000000000000000000600082015250565b7f4552433732313a20617070726f76652063616c6c6572206973206e6f74206f7760008201527f6e6572206e6f7220617070726f76656420666f7220616c6c0000000000000000602082015250565b7f4e6f6e6578697374656e7420746f6b656e000000000000000000000000000000600082015250565b7f4552433732313a2062616c616e636520717565727920666f7220746865207a6560008201527f726f206164647265737300000000000000000000000000000000000000000000602082015250565b7f4552433732313a206f776e657220717565727920666f72206e6f6e657869737460008201527f656e7420746f6b656e0000000000000000000000000000000000000000000000602082015250565b7f4552433732313a206d696e7420746f20746865207a65726f2061646472657373600082015250565b7f4552433732313a20617070726f76656420717565727920666f72206e6f6e657860008201527f697374656e7420746f6b656e0000000000000000000000000000000000000000602082015250565b7f3a00000000000000000000000000000000000000000000000000000000000000600082015250565b7f4f776e61626c653a2063616c6c6572206973206e6f7420746865206f776e6572600082015250565b7f4552433732314d657461646174613a2055524920717565727920666f72206e6f60008201527f6e6578697374656e7420746f6b656e0000000000000000000000000000000000602082015250565b7f207d000000000000000000000000000000000000000000000000000000000000600082015250565b7f4552433732313a20617070726f76616c20746f2063757272656e74206f776e6560008201527f7200000000000000000000000000000000000000000000000000000000000000602082015250565b7f2c20000000000000000000000000000000000000000000000000000000000000600082015250565b7f4552433732313a207472616e736665722063616c6c6572206973206e6f74206f60008201527f776e6572206e6f7220617070726f766564000000000000000000000000000000602082015250565b61489b81614024565b81146148a657600080fd5b50565b6148b281614048565b81146148bd57600080fd5b50565b6148c98161405e565b81146148d457600080fd5b50565b6148e08161408a565b81146148eb57600080fd5b50565b6148f7816140b8565b811461490257600080fd5b5056fea26469706673582212207c91f226e1e4b7d98e08a2c6a96bc76a7b87c862f715ecc771b9049bc378efb464736f6c63430008070033",
  "linkReferences": {},
  "deployedLinkReferences": {}
}