{
  "abi": [
    {
      "anonymous": false,
      "inputs": [
        {
          "indexed": true,
          "internalType": "address",
          "name": "from",
          "type": "address"
        },
        {
          "indexed": true,
          "internalType": "address",
          "name": "to",
          "type": "address"
        },
        {
          "indexed": true,
          "internalType": "uint256",
          "name": "msgId",
          "type": "uint256"
        },
        {
          "indexed": false,
          "internalType": "bytes",
          "name": "text",
          "type": "bytes"
        },
        {
          "indexed": false,
          "internalType": "uint256",
          "name": "pubkey",
          "type": "uint256"
        },
        {
          "indexed": false,
          "internalType": "uint256",
          "name": "amount",
          "type": "uint256"
        }
      ],
      "name": "NewMessage",
      "type": "event"
    },
    {
      "anonymous": false,
      "inputs": [
        {
          "indexed": true,
          "internalType": "address",
          "name": "previousOwner",
          "type": "address"
        },
        {
          "indexed": true,
          "internalType": "address",
          "name": "newOwner",
          "type": "address"
        }
      ],
      "name": "OwnershipTransferred",
      "type": "event"
    },
    {
      "anonymous": false,
      "inputs": [
        {
          "indexed": true,
          "internalType": "address",
          "name": "user",
          "type": "address"
        },
        {
          "indexed": false,
          "internalType": "uint256",
          "name": "amount",
          "type": "uint256"
        }
      ],
      "name": "Withdrawal",
      "type": "event"
    },
    {
      "inputs": [
        {
          "internalType": "uint256",
          "name": "msgId",
          "type": "uint256"
        }
      ],
      "name": "getMessage",
      "outputs": [
        {
          "components": [
            {
              "internalType": "bytes",
              "name": "cipherText",
              "type": "bytes"
            },
            {
              "internalType": "uint256",
              "name": "ephempubkey",
              "type": "uint256"
            },
            {
              "internalType": "address",
              "name": "to",
              "type": "address"
            },
            {
              "internalType": "address",
              "name": "from",
              "type": "address"
            },
            {
              "internalType": "uint256",
              "name": "value",
              "type": "uint256"
            }
          ],
          "internalType": "struct SenderMessage.Message",
          "name": "",
          "type": "tuple"
        }
      ],
      "stateMutability": "view",
      "type": "function"
    },
    {
      "inputs": [
        {
          "internalType": "bytes",
          "name": "cipherText",
          "type": "bytes"
        },
        {
          "internalType": "uint256",
          "name": "ephempubkey",
          "type": "uint256"
        },
        {
          "internalType": "address",
          "name": "to",
          "type": "address"
        }
      ],
      "name": "mint",
      "outputs": [],
      "stateMutability": "payable",
      "type": "function"
    },
    {
      "inputs": [],
      "name": "owner",
      "outputs": [
        {
          "internalType": "address",
          "name": "",
          "type": "address"
        }
      ],
      "stateMutability": "view",
      "type": "function"
    },
    {
      "inputs": [],
      "name": "renounceOwnership",
      "outputs": [],
      "stateMutability": "nonpayable",
      "type": "function"
    },
    {
      "inputs": [
        {
          "internalType": "address",
          "name": "_authorized",
          "type": "address"
        }
      ],
      "name": "setAuthorized",
      "outputs": [],
      "stateMutability": "nonpayable",
      "type": "function"
    },
    {
      "inputs": [],
      "name": "totalSupply",
      "outputs": [
        {
          "internalType": "uint256",
          "name": "",
          "type": "uint256"
        }
      ],
      "stateMutability": "view",
      "type": "function"
    },
    {
      "inputs": [
        {
          "internalType": "address",
          "name": "newOwner",
          "type": "address"
        }
      ],
      "name": "transferOwnership",
      "outputs": [],
      "stateMutability": "nonpayable",
      "type": "function"
    },
    {
      "inputs": [
        {
          "internalType": "address",
          "name": "user",
          "type": "address"
        }
      ],
      "name": "userBalance",
      "outputs": [
        {
          "internalType": "uint256",
          "name": "",
          "type": "uint256"
        }
      ],
      "stateMutability": "view",
      "type": "function"
    },
    {
      "inputs": [
        {
          "internalType": "uint256",
          "name": "amount",
          "type": "uint256"
        }
      ],
      "name": "withdraw",
      "outputs": [],
      "stateMutability": "nonpayable",
      "type": "function"
    }
  ],
  "bytecode": "6080604052600060015534801561001557600080fd5b5061001f33610024565b610074565b600080546001600160a01b038381166001600160a01b0319831681178455604051919092169283917f8be0079c531659141344cd1fd0a4f28419497f9722a3daafe3b4186f6b6457e09190a35050565b6108b5806100836000396000f3fe6080604052600436106100865760003560e01c8063347d6c7811610059578063347d6c781461012c578063715018a61461013f57806386f79edb146101545780638da5cb5b14610181578063f2fde38b146101a957600080fd5b80630103c92b1461008b57806314fc2812146100d457806318160ddd146100f65780632e1a7d4d1461010c575b600080fd5b34801561009757600080fd5b506100c16100a6366004610614565b6001600160a01b031660009081526002602052604090205490565b6040519081526020015b60405180910390f35b3480156100e057600080fd5b506100f46100ef366004610614565b6101c9565b005b34801561010257600080fd5b506100c160015481565b34801561011857600080fd5b506100f4610127366004610636565b6101f3565b6100f461013a366004610665565b6102f7565b34801561014b57600080fd5b506100f4610398565b34801561016057600080fd5b5061017461016f366004610636565b6103ac565b6040516100cb919061077d565b34801561018d57600080fd5b506000546040516001600160a01b0390911681526020016100cb565b3480156101b557600080fd5b506100f46101c4366004610614565b6104d5565b6101d161054e565b600480546001600160a01b0319166001600160a01b0392909216919091179055565b3360008181526002602052604090205482111561024c5760405162461bcd60e51b81526020600482015260126024820152714e6f7420656e6f7567682062616c616e636560701b60448201526064015b60405180910390fd5b6001600160a01b038116600090815260026020526040812080548492906102749084906107f1565b90915550506040516001600160a01b0382169083156108fc029084906000818181858888f193505050501580156102af573d6000803e3d6000fd5b50806001600160a01b03167f7fcf532c15f0a6db0bd6d0e038bea71d30d808c7d98cb3bf7268a95bf5081b65836040516102eb91815260200190565b60405180910390a25050565b6000600180600082825461030b9190610808565b91829055506001600160a01b038416600090815260026020526040812080549294503493509161033c908490610808565b909155508190506001600160a01b038316336001600160a01b03167f93bc3c07d53a75db0d23b4aa798bb6a258f994cc453e747d0484d7f2cf03db6587873460405161038a93929190610820565b60405180910390a450505050565b6103a061054e565b6103aa60006105a8565b565b6103f06040518060a00160405280606081526020016000815260200160006001600160a01b0316815260200160006001600160a01b03168152602001600081525090565b60008281526003602052604090819020815160a0810190925280548290829061041890610845565b80601f016020809104026020016040519081016040528092919081815260200182805461044490610845565b80156104915780601f1061046657610100808354040283529160200191610491565b820191906000526020600020905b81548152906001019060200180831161047457829003601f168201915b50505091835250506001820154602082015260028201546001600160a01b039081166040830152600383015416606082015260049091015460809091015292915050565b6104dd61054e565b6001600160a01b0381166105425760405162461bcd60e51b815260206004820152602660248201527f4f776e61626c653a206e6577206f776e657220697320746865207a65726f206160448201526564647265737360d01b6064820152608401610243565b61054b816105a8565b50565b6000546001600160a01b031633146103aa5760405162461bcd60e51b815260206004820181905260248201527f4f776e61626c653a2063616c6c6572206973206e6f7420746865206f776e65726044820152606401610243565b600080546001600160a01b038381166001600160a01b0319831681178455604051919092169283917f8be0079c531659141344cd1fd0a4f28419497f9722a3daafe3b4186f6b6457e09190a35050565b80356001600160a01b038116811461060f57600080fd5b919050565b60006020828403121561062657600080fd5b61062f826105f8565b9392505050565b60006020828403121561064857600080fd5b5035919050565b634e487b7160e01b600052604160045260246000fd5b60008060006060848603121561067a57600080fd5b833567ffffffffffffffff8082111561069257600080fd5b818601915086601f8301126106a657600080fd5b8135818111156106b8576106b861064f565b604051601f8201601f19908116603f011681019083821181831017156106e0576106e061064f565b816040528281528960208487010111156106f957600080fd5b82602086016020830137600060208483010152809750505050505060208401359150610727604085016105f8565b90509250925092565b6000815180845260005b818110156107565760208185018101518683018201520161073a565b81811115610768576000602083870101525b50601f01601f19169290920160200192915050565b602081526000825160a0602084015261079960c0840182610730565b905060208401516040840152604084015160018060a01b0380821660608601528060608701511660808601525050608084015160a08401528091505092915050565b634e487b7160e01b600052601160045260246000fd5b600082821015610803576108036107db565b500390565b6000821982111561081b5761081b6107db565b500190565b6060815260006108336060830186610730565b60208301949094525060400152919050565b600181811c9082168061085957607f821691505b60208210810361087957634e487b7160e01b600052602260045260246000fd5b5091905056fea26469706673582212209fc180ea8f7bcdad44e635e1dc1c2e2a26768574cef453ccd1421ccd5dde954864736f6c634300080d0033",
  "bytecodeSha1": "14d6493bdfb67609cbce61912413a3148f867db2",
  "compiler": {
    "evm_version": "istanbul",
    "optimizer": {
      "enabled": true,
      "runs": 200
    },
    "version": "0.8.13+commit.abaa5c0e"
  },
  "contractName": "SenderMessage",
  "language": "Solidity",
  "natspec": {
    "kind": "dev",
    "methods": {
      "owner()": {
        "details": "Returns the address of the current owner."
      },
      "renounceOwnership()": {
        "details": "Leaves the contract without owner. It will not be possible to call `onlyOwner` functions anymore. Can only be called by the current owner. NOTE: Renouncing ownership will leave the contract without an owner, thereby removing any functionality that is only available to the owner."
      },
      "transferOwnership(address)": {
        "details": "Transfers ownership of the contract to a new account (`newOwner`). Can only be called by the current owner."
      }
    },
    "version": 1
  },
  "opcodes": "PUSH1 0x80 PUSH1 0x40 MSTORE PUSH1 0x4 CALLDATASIZE LT PUSH2 0x86 JUMPI PUSH1 0x0 CALLDATALOAD PUSH1 0xE0 SHR DUP1 PUSH4 0x347D6C78 GT PUSH2 0x59 JUMPI DUP1 PUSH4 0x347D6C78 EQ PUSH2 0x12C JUMPI DUP1 PUSH4 0x715018A6 EQ PUSH2 0x13F JUMPI DUP1 PUSH4 0x86F79EDB EQ PUSH2 0x154 JUMPI DUP1 PUSH4 0x8DA5CB5B EQ PUSH2 0x181 JUMPI DUP1 PUSH4 0xF2FDE38B EQ PUSH2 0x1A9 JUMPI PUSH1 0x0 DUP1 REVERT JUMPDEST DUP1 PUSH4 0x103C92B EQ PUSH2 0x8B JUMPI DUP1 PUSH4 0x14FC2812 EQ PUSH2 0xD4 JUMPI DUP1 PUSH4 0x18160DDD EQ PUSH2 0xF6 JUMPI DUP1 PUSH4 0x2E1A7D4D EQ PUSH2 0x10C JUMPI JUMPDEST PUSH1 0x0 DUP1 REVERT JUMPDEST CALLVALUE DUP1 ISZERO PUSH2 0x97 JUMPI PUSH1 0x0 DUP1 REVERT JUMPDEST POP PUSH2 0xC1 PUSH2 0xA6 CALLDATASIZE PUSH1 0x4 PUSH2 0x614 JUMP JUMPDEST PUSH1 0x1 PUSH1 0x1 PUSH1 0xA0 SHL SUB AND PUSH1 0x0 SWAP1 DUP2 MSTORE PUSH1 0x2 PUSH1 0x20 MSTORE PUSH1 0x40 SWAP1 KECCAK256 SLOAD SWAP1 JUMP JUMPDEST PUSH1 0x40 MLOAD SWAP1 DUP2 MSTORE PUSH1 0x20 ADD JUMPDEST PUSH1 0x40 MLOAD DUP1 SWAP2 SUB SWAP1 RETURN JUMPDEST CALLVALUE DUP1 ISZERO PUSH2 0xE0 JUMPI PUSH1 0x0 DUP1 REVERT JUMPDEST POP PUSH2 0xF4 PUSH2 0xEF CALLDATASIZE PUSH1 0x4 PUSH2 0x614 JUMP JUMPDEST PUSH2 0x1C9 JUMP JUMPDEST STOP JUMPDEST CALLVALUE DUP1 ISZERO PUSH2 0x102 JUMPI PUSH1 0x0 DUP1 REVERT JUMPDEST POP PUSH2 0xC1 PUSH1 0x1 SLOAD DUP2 JUMP JUMPDEST CALLVALUE DUP1 ISZERO PUSH2 0x118 JUMPI PUSH1 0x0 DUP1 REVERT JUMPDEST POP PUSH2 0xF4 PUSH2 0x127 CALLDATASIZE PUSH1 0x4 PUSH2 0x636 JUMP JUMPDEST PUSH2 0x1F3 JUMP JUMPDEST PUSH2 0xF4 PUSH2 0x13A CALLDATASIZE PUSH1 0x4 PUSH2 0x665 JUMP JUMPDEST PUSH2 0x2F7 JUMP JUMPDEST CALLVALUE DUP1 ISZERO PUSH2 0x14B JUMPI PUSH1 0x0 DUP1 REVERT JUMPDEST POP PUSH2 0xF4 PUSH2 0x398 JUMP JUMPDEST CALLVALUE DUP1 ISZERO PUSH2 0x160 JUMPI PUSH1 0x0 DUP1 REVERT JUMPDEST POP PUSH2 0x174 PUSH2 0x16F CALLDATASIZE PUSH1 0x4 PUSH2 0x636 JUMP JUMPDEST PUSH2 0x3AC JUMP JUMPDEST PUSH1 0x40 MLOAD PUSH2 0xCB SWAP2 SWAP1 PUSH2 0x77D JUMP JUMPDEST CALLVALUE DUP1 ISZERO PUSH2 0x18D JUMPI PUSH1 0x0 DUP1 REVERT JUMPDEST POP PUSH1 0x0 SLOAD PUSH1 0x40 MLOAD PUSH1 0x1 PUSH1 0x1 PUSH1 0xA0 SHL SUB SWAP1 SWAP2 AND DUP2 MSTORE PUSH1 0x20 ADD PUSH2 0xCB JUMP JUMPDEST CALLVALUE DUP1 ISZERO PUSH2 0x1B5 JUMPI PUSH1 0x0 DUP1 REVERT JUMPDEST POP PUSH2 0xF4 PUSH2 0x1C4 CALLDATASIZE PUSH1 0x4 PUSH2 0x614 JUMP JUMPDEST PUSH2 0x4D5 JUMP JUMPDEST PUSH2 0x1D1 PUSH2 0x54E JUMP JUMPDEST PUSH1 0x4 DUP1 SLOAD PUSH1 0x1 PUSH1 0x1 PUSH1 0xA0 SHL SUB NOT AND PUSH1 0x1 PUSH1 0x1 PUSH1 0xA0 SHL SUB SWAP3 SWAP1 SWAP3 AND SWAP2 SWAP1 SWAP2 OR SWAP1 SSTORE JUMP JUMPDEST CALLER PUSH1 0x0 DUP2 DUP2 MSTORE PUSH1 0x2 PUSH1 0x20 MSTORE PUSH1 0x40 SWAP1 KECCAK256 SLOAD DUP3 GT ISZERO PUSH2 0x24C JUMPI PUSH1 0x40 MLOAD PUSH3 0x461BCD PUSH1 0xE5 SHL DUP2 MSTORE PUSH1 0x20 PUSH1 0x4 DUP3 ADD MSTORE PUSH1 0x12 PUSH1 0x24 DUP3 ADD MSTORE PUSH18 0x4E6F7420656E6F7567682062616C616E6365 PUSH1 0x70 SHL PUSH1 0x44 DUP3 ADD MSTORE PUSH1 0x64 ADD JUMPDEST PUSH1 0x40 MLOAD DUP1 SWAP2 SUB SWAP1 REVERT JUMPDEST PUSH1 0x1 PUSH1 0x1 PUSH1 0xA0 SHL SUB DUP2 AND PUSH1 0x0 SWAP1 DUP2 MSTORE PUSH1 0x2 PUSH1 0x20 MSTORE PUSH1 0x40 DUP2 KECCAK256 DUP1 SLOAD DUP5 SWAP3 SWAP1 PUSH2 0x274 SWAP1 DUP5 SWAP1 PUSH2 0x7F1 JUMP JUMPDEST SWAP1 SWAP2 SSTORE POP POP PUSH1 0x40 MLOAD PUSH1 0x1 PUSH1 0x1 PUSH1 0xA0 SHL SUB DUP3 AND SWAP1 DUP4 ISZERO PUSH2 0x8FC MUL SWAP1 DUP5 SWAP1 PUSH1 0x0 DUP2 DUP2 DUP2 DUP6 DUP9 DUP9 CALL SWAP4 POP POP POP POP ISZERO DUP1 ISZERO PUSH2 0x2AF JUMPI RETURNDATASIZE PUSH1 0x0 DUP1 RETURNDATACOPY RETURNDATASIZE PUSH1 0x0 REVERT JUMPDEST POP DUP1 PUSH1 0x1 PUSH1 0x1 PUSH1 0xA0 SHL SUB AND PUSH32 0x7FCF532C15F0A6DB0BD6D0E038BEA71D30D808C7D98CB3BF7268A95BF5081B65 DUP4 PUSH1 0x40 MLOAD PUSH2 0x2EB SWAP2 DUP2 MSTORE PUSH1 0x20 ADD SWAP1 JUMP JUMPDEST PUSH1 0x40 MLOAD DUP1 SWAP2 SUB SWAP1 LOG2 POP POP JUMP JUMPDEST PUSH1 0x0 PUSH1 0x1 DUP1 PUSH1 0x0 DUP3 DUP3 SLOAD PUSH2 0x30B SWAP2 SWAP1 PUSH2 0x808 JUMP JUMPDEST SWAP2 DUP3 SWAP1 SSTORE POP PUSH1 0x1 PUSH1 0x1 PUSH1 0xA0 SHL SUB DUP5 AND PUSH1 0x0 SWAP1 DUP2 MSTORE PUSH1 0x2 PUSH1 0x20 MSTORE PUSH1 0x40 DUP2 KECCAK256 DUP1 SLOAD SWAP3 SWAP5 POP CALLVALUE SWAP4 POP SWAP2 PUSH2 0x33C SWAP1 DUP5 SWAP1 PUSH2 0x808 JUMP JUMPDEST SWAP1 SWAP2 SSTORE POP DUP2 SWAP1 POP PUSH1 0x1 PUSH1 0x1 PUSH1 0xA0 SHL SUB DUP4 AND CALLER PUSH1 0x1 PUSH1 0x1 PUSH1 0xA0 SHL SUB AND PUSH32 0x93BC3C07D53A75DB0D23B4AA798BB6A258F994CC453E747D0484D7F2CF03DB65 DUP8 DUP8 CALLVALUE PUSH1 0x40 MLOAD PUSH2 0x38A SWAP4 SWAP3 SWAP2 SWAP1 PUSH2 0x820 JUMP JUMPDEST PUSH1 0x40 MLOAD DUP1 SWAP2 SUB SWAP1 LOG4 POP POP POP POP JUMP JUMPDEST PUSH2 0x3A0 PUSH2 0x54E JUMP JUMPDEST PUSH2 0x3AA PUSH1 0x0 PUSH2 0x5A8 JUMP JUMPDEST JUMP JUMPDEST PUSH2 0x3F0 PUSH1 0x40 MLOAD DUP1 PUSH1 0xA0 ADD PUSH1 0x40 MSTORE DUP1 PUSH1 0x60 DUP2 MSTORE PUSH1 0x20 ADD PUSH1 0x0 DUP2 MSTORE PUSH1 0x20 ADD PUSH1 0x0 PUSH1 0x1 PUSH1 0x1 PUSH1 0xA0 SHL SUB AND DUP2 MSTORE PUSH1 0x20 ADD PUSH1 0x0 PUSH1 0x1 PUSH1 0x1 PUSH1 0xA0 SHL SUB AND DUP2 MSTORE PUSH1 0x20 ADD PUSH1 0x0 DUP2 MSTORE POP SWAP1 JUMP JUMPDEST PUSH1 0x0 DUP3 DUP2 MSTORE PUSH1 0x3 PUSH1 0x20 MSTORE PUSH1 0x40 SWAP1 DUP2 SWAP1 KECCAK256 DUP2 MLOAD PUSH1 0xA0 DUP2 ADD SWAP1 SWAP3 MSTORE DUP1 SLOAD DUP3 SWAP1 DUP3 SWAP1 PUSH2 0x418 SWAP1 PUSH2 0x845 JUMP JUMPDEST DUP1 PUSH1 0x1F ADD PUSH1 0x20 DUP1 SWAP2 DIV MUL PUSH1 0x20 ADD PUSH1 0x40 MLOAD SWAP1 DUP2 ADD PUSH1 0x40 MSTORE DUP1 SWAP3 SWAP2 SWAP1 DUP2 DUP2 MSTORE PUSH1 0x20 ADD DUP3 DUP1 SLOAD PUSH2 0x444 SWAP1 PUSH2 0x845 JUMP JUMPDEST DUP1 ISZERO PUSH2 0x491 JUMPI DUP1 PUSH1 0x1F LT PUSH2 0x466 JUMPI PUSH2 0x100 DUP1 DUP4 SLOAD DIV MUL DUP4 MSTORE SWAP2 PUSH1 0x20 ADD SWAP2 PUSH2 0x491 JUMP JUMPDEST DUP3 ADD SWAP2 SWAP1 PUSH1 0x0 MSTORE PUSH1 0x20 PUSH1 0x0 KECCAK256 SWAP1 JUMPDEST DUP2 SLOAD DUP2 MSTORE SWAP1 PUSH1 0x1 ADD SWAP1 PUSH1 0x20 ADD DUP1 DUP4 GT PUSH2 0x474 JUMPI DUP3 SWAP1 SUB PUSH1 0x1F AND DUP3 ADD SWAP2 JUMPDEST POP POP POP SWAP2 DUP4 MSTORE POP POP PUSH1 0x1 DUP3 ADD SLOAD PUSH1 0x20 DUP3 ADD MSTORE PUSH1 0x2 DUP3 ADD SLOAD PUSH1 0x1 PUSH1 0x1 PUSH1 0xA0 SHL SUB SWAP1 DUP2 AND PUSH1 0x40 DUP4 ADD MSTORE PUSH1 0x3 DUP4 ADD SLOAD AND PUSH1 0x60 DUP3 ADD MSTORE PUSH1 0x4 SWAP1 SWAP2 ADD SLOAD PUSH1 0x80 SWAP1 SWAP2 ADD MSTORE SWAP3 SWAP2 POP POP JUMP JUMPDEST PUSH2 0x4DD PUSH2 0x54E JUMP JUMPDEST PUSH1 0x1 PUSH1 0x1 PUSH1 0xA0 SHL SUB DUP2 AND PUSH2 0x542 JUMPI PUSH1 0x40 MLOAD PUSH3 0x461BCD PUSH1 0xE5 SHL DUP2 MSTORE PUSH1 0x20 PUSH1 0x4 DUP3 ADD MSTORE PUSH1 0x26 PUSH1 0x24 DUP3 ADD MSTORE PUSH32 0x4F776E61626C653A206E6577206F776E657220697320746865207A65726F2061 PUSH1 0x44 DUP3 ADD MSTORE PUSH6 0x646472657373 PUSH1 0xD0 SHL PUSH1 0x64 DUP3 ADD MSTORE PUSH1 0x84 ADD PUSH2 0x243 JUMP JUMPDEST PUSH2 0x54B DUP2 PUSH2 0x5A8 JUMP JUMPDEST POP JUMP JUMPDEST PUSH1 0x0 SLOAD PUSH1 0x1 PUSH1 0x1 PUSH1 0xA0 SHL SUB AND CALLER EQ PUSH2 0x3AA JUMPI PUSH1 0x40 MLOAD PUSH3 0x461BCD PUSH1 0xE5 SHL DUP2 MSTORE PUSH1 0x20 PUSH1 0x4 DUP3 ADD DUP2 SWAP1 MSTORE PUSH1 0x24 DUP3 ADD MSTORE PUSH32 0x4F776E61626C653A2063616C6C6572206973206E6F7420746865206F776E6572 PUSH1 0x44 DUP3 ADD MSTORE PUSH1 0x64 ADD PUSH2 0x243 JUMP JUMPDEST PUSH1 0x0 DUP1 SLOAD PUSH1 0x1 PUSH1 0x1 PUSH1 0xA0 SHL SUB DUP4 DUP2 AND PUSH1 0x1 PUSH1 0x1 PUSH1 0xA0 SHL SUB NOT DUP4 AND DUP2 OR DUP5 SSTORE PUSH1 0x40 MLOAD SWAP2 SWAP1 SWAP3 AND SWAP3 DUP4 SWAP2 PUSH32 0x8BE0079C531659141344CD1FD0A4F28419497F9722A3DAAFE3B4186F6B6457E0 SWAP2 SWAP1 LOG3 POP POP JUMP JUMPDEST DUP1 CALLDATALOAD PUSH1 0x1 PUSH1 0x1 PUSH1 0xA0 SHL SUB DUP2 AND DUP2 EQ PUSH2 0x60F JUMPI PUSH1 0x0 DUP1 REVERT JUMPDEST SWAP2 SWAP1 POP JUMP JUMPDEST PUSH1 0x0 PUSH1 0x20 DUP3 DUP5 SUB SLT ISZERO PUSH2 0x626 JUMPI PUSH1 0x0 DUP1 REVERT JUMPDEST PUSH2 0x62F DUP3 PUSH2 0x5F8 JUMP JUMPDEST SWAP4 SWAP3 POP POP POP JUMP JUMPDEST PUSH1 0x0 PUSH1 0x20 DUP3 DUP5 SUB SLT ISZERO PUSH2 0x648 JUMPI PUSH1 0x0 DUP1 REVERT JUMPDEST POP CALLDATALOAD SWAP2 SWAP1 POP JUMP JUMPDEST PUSH4 0x4E487B71 PUSH1 0xE0 SHL PUSH1 0x0 MSTORE PUSH1 0x41 PUSH1 0x4 MSTORE PUSH1 0x24 PUSH1 0x0 REVERT JUMPDEST PUSH1 0x0 DUP1 PUSH1 0x0 PUSH1 0x60 DUP5 DUP7 SUB SLT ISZERO PUSH2 0x67A JUMPI PUSH1 0x0 DUP1 REVERT JUMPDEST DUP4 CALLDATALOAD PUSH8 0xFFFFFFFFFFFFFFFF DUP1 DUP3 GT ISZERO PUSH2 0x692 JUMPI PUSH1 0x0 DUP1 REVERT JUMPDEST DUP2 DUP7 ADD SWAP2 POP DUP7 PUSH1 0x1F DUP4 ADD SLT PUSH2 0x6A6 JUMPI PUSH1 0x0 DUP1 REVERT JUMPDEST DUP2 CALLDATALOAD DUP2 DUP2 GT ISZERO PUSH2 0x6B8 JUMPI PUSH2 0x6B8 PUSH2 0x64F JUMP JUMPDEST PUSH1 0x40 MLOAD PUSH1 0x1F DUP3 ADD PUSH1 0x1F NOT SWAP1 DUP2 AND PUSH1 0x3F ADD AND DUP2 ADD SWAP1 DUP4 DUP3 GT DUP2 DUP4 LT OR ISZERO PUSH2 0x6E0 JUMPI PUSH2 0x6E0 PUSH2 0x64F JUMP JUMPDEST DUP2 PUSH1 0x40 MSTORE DUP3 DUP2 MSTORE DUP10 PUSH1 0x20 DUP5 DUP8 ADD ADD GT ISZERO PUSH2 0x6F9 JUMPI PUSH1 0x0 DUP1 REVERT JUMPDEST DUP3 PUSH1 0x20 DUP7 ADD PUSH1 0x20 DUP4 ADD CALLDATACOPY PUSH1 0x0 PUSH1 0x20 DUP5 DUP4 ADD ADD MSTORE DUP1 SWAP8 POP POP POP POP POP POP PUSH1 0x20 DUP5 ADD CALLDATALOAD SWAP2 POP PUSH2 0x727 PUSH1 0x40 DUP6 ADD PUSH2 0x5F8 JUMP JUMPDEST SWAP1 POP SWAP3 POP SWAP3 POP SWAP3 JUMP JUMPDEST PUSH1 0x0 DUP2 MLOAD DUP1 DUP5 MSTORE PUSH1 0x0 JUMPDEST DUP2 DUP2 LT ISZERO PUSH2 0x756 JUMPI PUSH1 0x20 DUP2 DUP6 ADD DUP2 ADD MLOAD DUP7 DUP4 ADD DUP3 ADD MSTORE ADD PUSH2 0x73A JUMP JUMPDEST DUP2 DUP2 GT ISZERO PUSH2 0x768 JUMPI PUSH1 0x0 PUSH1 0x20 DUP4 DUP8 ADD ADD MSTORE JUMPDEST POP PUSH1 0x1F ADD PUSH1 0x1F NOT AND SWAP3 SWAP1 SWAP3 ADD PUSH1 0x20 ADD SWAP3 SWAP2 POP POP JUMP JUMPDEST PUSH1 0x20 DUP2 MSTORE PUSH1 0x0 DUP3 MLOAD PUSH1 0xA0 PUSH1 0x20 DUP5 ADD MSTORE PUSH2 0x799 PUSH1 0xC0 DUP5 ADD DUP3 PUSH2 0x730 JUMP JUMPDEST SWAP1 POP PUSH1 0x20 DUP5 ADD MLOAD PUSH1 0x40 DUP5 ADD MSTORE PUSH1 0x40 DUP5 ADD MLOAD PUSH1 0x1 DUP1 PUSH1 0xA0 SHL SUB DUP1 DUP3 AND PUSH1 0x60 DUP7 ADD MSTORE DUP1 PUSH1 0x60 DUP8 ADD MLOAD AND PUSH1 0x80 DUP7 ADD MSTORE POP POP PUSH1 0x80 DUP5 ADD MLOAD PUSH1 0xA0 DUP5 ADD MSTORE DUP1 SWAP2 POP POP SWAP3 SWAP2 POP POP JUMP JUMPDEST PUSH4 0x4E487B71 PUSH1 0xE0 SHL PUSH1 0x0 MSTORE PUSH1 0x11 PUSH1 0x4 MSTORE PUSH1 0x24 PUSH1 0x0 REVERT JUMPDEST PUSH1 0x0 DUP3 DUP3 LT ISZERO PUSH2 0x803 JUMPI PUSH2 0x803 PUSH2 0x7DB JUMP JUMPDEST POP SUB SWAP1 JUMP JUMPDEST PUSH1 0x0 DUP3 NOT DUP3 GT ISZERO PUSH2 0x81B JUMPI PUSH2 0x81B PUSH2 0x7DB JUMP JUMPDEST POP ADD SWAP1 JUMP JUMPDEST PUSH1 0x60 DUP2 MSTORE PUSH1 0x0 PUSH2 0x833 PUSH1 0x60 DUP4 ADD DUP7 PUSH2 0x730 JUMP JUMPDEST PUSH1 0x20 DUP4 ADD SWAP5 SWAP1 SWAP5 MSTORE POP PUSH1 0x40 ADD MSTORE SWAP2 SWAP1 POP JUMP JUMPDEST PUSH1 0x1 DUP2 DUP2 SHR SWAP1 DUP3 AND DUP1 PUSH2 0x859 JUMPI PUSH1 0x7F DUP3 AND SWAP2 POP JUMPDEST PUSH1 0x20 DUP3 LT DUP2 SUB PUSH2 0x879 JUMPI PUSH4 0x4E487B71 PUSH1 0xE0 SHL PUSH1 0x0 MSTORE PUSH1 0x22 PUSH1 0x4 MSTORE PUSH1 0x24 PUSH1 0x0 REVERT JUMPDEST POP SWAP2 SWAP1 POP JUMP INVALID LOG2 PUSH5 0x6970667358 0x22 SLT KECCAK256 SWAP16 0xC1 DUP1 0xEA DUP16 PUSH28 0xCDAD44E635E1DC1C2E2A26768574CEF453CCD1421CCD5DDE95486473 PUSH16 0x6C634300080D00330000000000000000 ",
  "sha1": "3649ca4600569ecb7f6d9d3d8107c90f2ca804b0",
  "source": "pragma solidity ^0.8.0;\n\n\nimport \"node_modules/@openzeppelin/contracts/access/Ownable.sol\";\n\ncontract SenderMessage is  Ownable{\n\n    struct Message {\n        bytes cipherText;\n        uint ephempubkey;\n        address to;\n        address from;\n        uint value;\n    }\n\n    uint public totalSupply = 0;\n\n    mapping(address => uint) private balance;\n\n    mapping (uint => Message) message;\n    address authorized;\n\n    event Withdrawal(address indexed user, uint amount);\n    event NewMessage(address indexed from, address indexed to, uint indexed msgId, bytes text, uint pubkey, uint amount);\n\n\n\n    function setAuthorized(address _authorized) external onlyOwner{\n        authorized = _authorized;\n    }\n\n    function mint(bytes memory cipherText, uint ephempubkey, address to) external payable {\n        //id must never be 0\n        uint _id = totalSupply += 1;\n        // message[_id].cipherText = cipherText;\n        // message[_id].ephempubkey = ephempubkey;\n        // message[_id].from = _msgSender();\n        // message[_id].to = to;\n        // message[_id].value = msg.value;\n\n        //the NFT goes to the receiver\n        //super._mint(to, _id);\n        balance[to] += msg.value;\n        emit NewMessage(_msgSender(), to, _id, cipherText, ephempubkey, msg.value);\n        //return _id;\n    }\n\n    function getMessage(uint msgId) external view returns(Message memory){\n        return  message[msgId];\n    }\n\n    function withdraw(uint amount) external {\n        address user = _msgSender();\n        require(balance[user] >= amount, \"Not enough balance\");\n        balance[user] -= amount;\n        payable(user).transfer(amount);\n        emit Withdrawal(user, amount);\n    }\n\n    function userBalance(address user) external view returns(uint){\n        return balance[user];\n    }\n\n     \n   \n}",
  "sourcePath": "contracts/Message.sol",
  "type": "contract"
}