{
  "abi": [
    {
      "inputs": [],
      "stateMutability": "nonpayable",
      "type": "constructor"
    },
    {
      "anonymous": false,
      "inputs": [
        {
          "indexed": true,
          "internalType": "address",
          "name": "owner",
          "type": "address"
        },
        {
          "indexed": true,
          "internalType": "address",
          "name": "approved",
          "type": "address"
        },
        {
          "indexed": true,
          "internalType": "uint256",
          "name": "tokenId",
          "type": "uint256"
        }
      ],
      "name": "Approval",
      "type": "event"
    },
    {
      "anonymous": false,
      "inputs": [
        {
          "indexed": true,
          "internalType": "address",
          "name": "owner",
          "type": "address"
        },
        {
          "indexed": true,
          "internalType": "address",
          "name": "operator",
          "type": "address"
        },
        {
          "indexed": false,
          "internalType": "bool",
          "name": "approved",
          "type": "bool"
        }
      ],
      "name": "ApprovalForAll",
      "type": "event"
    },
    {
      "anonymous": false,
      "inputs": [
        {
          "indexed": true,
          "internalType": "address",
          "name": "_address",
          "type": "address"
        },
        {
          "indexed": false,
          "internalType": "bytes32",
          "name": "name",
          "type": "bytes32"
        }
      ],
      "name": "ChangedName",
      "type": "event"
    },
    {
      "anonymous": false,
      "inputs": [
        {
          "indexed": true,
          "internalType": "address",
          "name": "from",
          "type": "address"
        },
        {
          "indexed": true,
          "internalType": "bytes32",
          "name": "keyword",
          "type": "bytes32"
        },
        {
          "indexed": true,
          "internalType": "address",
          "name": "mention",
          "type": "address"
        },
        {
          "indexed": false,
          "internalType": "uint256",
          "name": "post",
          "type": "uint256"
        },
        {
          "indexed": false,
          "internalType": "uint256",
          "name": "comment_id",
          "type": "uint256"
        }
      ],
      "name": "NewComment",
      "type": "event"
    },
    {
      "anonymous": false,
      "inputs": [
        {
          "indexed": true,
          "internalType": "address",
          "name": "from",
          "type": "address"
        },
        {
          "indexed": true,
          "internalType": "uint256",
          "name": "post",
          "type": "uint256"
        }
      ],
      "name": "NewLike",
      "type": "event"
    },
    {
      "anonymous": false,
      "inputs": [
        {
          "indexed": true,
          "internalType": "address",
          "name": "from",
          "type": "address"
        },
        {
          "indexed": true,
          "internalType": "address",
          "name": "to",
          "type": "address"
        },
        {
          "indexed": true,
          "internalType": "uint256",
          "name": "msgId",
          "type": "uint256"
        },
        {
          "indexed": false,
          "internalType": "bytes",
          "name": "text",
          "type": "bytes"
        },
        {
          "indexed": false,
          "internalType": "uint256",
          "name": "pubkey",
          "type": "uint256"
        },
        {
          "indexed": false,
          "internalType": "uint256",
          "name": "amount",
          "type": "uint256"
        }
      ],
      "name": "NewMessage",
      "type": "event"
    },
    {
      "anonymous": false,
      "inputs": [
        {
          "indexed": true,
          "internalType": "address",
          "name": "from",
          "type": "address"
        },
        {
          "indexed": true,
          "internalType": "bytes32",
          "name": "keyword",
          "type": "bytes32"
        },
        {
          "indexed": true,
          "internalType": "address",
          "name": "mention",
          "type": "address"
        },
        {
          "indexed": false,
          "internalType": "uint256",
          "name": "new_post",
          "type": "uint256"
        }
      ],
      "name": "NewPost",
      "type": "event"
    },
    {
      "anonymous": false,
      "inputs": [
        {
          "indexed": true,
          "internalType": "address",
          "name": "_address",
          "type": "address"
        },
        {
          "indexed": true,
          "internalType": "bytes32",
          "name": "name",
          "type": "bytes32"
        }
      ],
      "name": "NewProfile",
      "type": "event"
    },
    {
      "anonymous": false,
      "inputs": [
        {
          "indexed": true,
          "internalType": "address",
          "name": "from",
          "type": "address"
        },
        {
          "indexed": true,
          "internalType": "bytes32",
          "name": "keyword",
          "type": "bytes32"
        },
        {
          "indexed": true,
          "internalType": "address",
          "name": "mention",
          "type": "address"
        },
        {
          "indexed": false,
          "internalType": "uint256",
          "name": "post",
          "type": "uint256"
        },
        {
          "indexed": false,
          "internalType": "uint256",
          "name": "share_id",
          "type": "uint256"
        }
      ],
      "name": "NewShare",
      "type": "event"
    },
    {
      "anonymous": false,
      "inputs": [
        {
          "indexed": true,
          "internalType": "address",
          "name": "frollower",
          "type": "address"
        },
        {
          "indexed": true,
          "internalType": "address",
          "name": "following",
          "type": "address"
        }
      ],
      "name": "NowFollows",
      "type": "event"
    },
    {
      "anonymous": false,
      "inputs": [
        {
          "indexed": true,
          "internalType": "address",
          "name": "previousOwner",
          "type": "address"
        },
        {
          "indexed": true,
          "internalType": "address",
          "name": "newOwner",
          "type": "address"
        }
      ],
      "name": "OwnershipTransferred",
      "type": "event"
    },
    {
      "anonymous": false,
      "inputs": [
        {
          "indexed": false,
          "internalType": "address",
          "name": "account",
          "type": "address"
        }
      ],
      "name": "Paused",
      "type": "event"
    },
    {
      "anonymous": false,
      "inputs": [
        {
          "indexed": false,
          "internalType": "uint256",
          "name": "amount",
          "type": "uint256"
        }
      ],
      "name": "SecurityWithdrawal",
      "type": "event"
    },
    {
      "anonymous": false,
      "inputs": [
        {
          "indexed": true,
          "internalType": "address",
          "name": "from",
          "type": "address"
        },
        {
          "indexed": true,
          "internalType": "address",
          "name": "to",
          "type": "address"
        },
        {
          "indexed": true,
          "internalType": "uint256",
          "name": "tokenId",
          "type": "uint256"
        }
      ],
      "name": "Transfer",
      "type": "event"
    },
    {
      "anonymous": false,
      "inputs": [
        {
          "indexed": false,
          "internalType": "address",
          "name": "account",
          "type": "address"
        }
      ],
      "name": "Unpaused",
      "type": "event"
    },
    {
      "anonymous": false,
      "inputs": [
        {
          "indexed": true,
          "internalType": "address",
          "name": "_to",
          "type": "address"
        },
        {
          "indexed": false,
          "internalType": "uint256",
          "name": "_value",
          "type": "uint256"
        }
      ],
      "name": "Withdrawal",
      "type": "event"
    },
    {
      "inputs": [],
      "name": "AVG_LIKEFOLLOW_GAS",
      "outputs": [
        {
          "internalType": "uint256",
          "name": "",
          "type": "uint256"
        }
      ],
      "stateMutability": "view",
      "type": "function"
    },
    {
      "inputs": [],
      "name": "AVG_POST_GAS",
      "outputs": [
        {
          "internalType": "uint256",
          "name": "",
          "type": "uint256"
        }
      ],
      "stateMutability": "view",
      "type": "function"
    },
    {
      "inputs": [],
      "name": "PRICE",
      "outputs": [
        {
          "internalType": "uint256",
          "name": "",
          "type": "uint256"
        }
      ],
      "stateMutability": "view",
      "type": "function"
    },
    {
      "inputs": [
        {
          "internalType": "address",
          "name": "to",
          "type": "address"
        },
        {
          "internalType": "uint256",
          "name": "tokenId",
          "type": "uint256"
        }
      ],
      "name": "approve",
      "outputs": [],
      "stateMutability": "nonpayable",
      "type": "function"
    },
    {
      "inputs": [
        {
          "internalType": "address",
          "name": "owner",
          "type": "address"
        }
      ],
      "name": "balanceOf",
      "outputs": [
        {
          "internalType": "uint256",
          "name": "",
          "type": "uint256"
        }
      ],
      "stateMutability": "view",
      "type": "function"
    },
    {
      "inputs": [
        {
          "internalType": "uint256",
          "name": "tokenId",
          "type": "uint256"
        }
      ],
      "name": "burn",
      "outputs": [],
      "stateMutability": "nonpayable",
      "type": "function"
    },
    {
      "inputs": [
        {
          "internalType": "bytes",
          "name": "text",
          "type": "bytes"
        },
        {
          "internalType": "bytes",
          "name": "media_url",
          "type": "bytes"
        },
        {
          "internalType": "uint256",
          "name": "onPost",
          "type": "uint256"
        }
      ],
      "name": "comment",
      "outputs": [],
      "stateMutability": "payable",
      "type": "function"
    },
    {
      "inputs": [],
      "name": "contractBalance",
      "outputs": [
        {
          "internalType": "uint256",
          "name": "",
          "type": "uint256"
        }
      ],
      "stateMutability": "view",
      "type": "function"
    },
    {
      "inputs": [
        {
          "internalType": "address",
          "name": "_address",
          "type": "address"
        }
      ],
      "name": "doIFollowThisAddress",
      "outputs": [
        {
          "internalType": "bool",
          "name": "",
          "type": "bool"
        }
      ],
      "stateMutability": "view",
      "type": "function"
    },
    {
      "inputs": [
        {
          "internalType": "uint256",
          "name": "_post",
          "type": "uint256"
        }
      ],
      "name": "doILikeThisPost",
      "outputs": [
        {
          "internalType": "bool",
          "name": "",
          "type": "bool"
        }
      ],
      "stateMutability": "view",
      "type": "function"
    },
    {
      "inputs": [
        {
          "internalType": "bytes",
          "name": "new_banner",
          "type": "bytes"
        }
      ],
      "name": "editBanner",
      "outputs": [],
      "stateMutability": "nonpayable",
      "type": "function"
    },
    {
      "inputs": [
        {
          "internalType": "bytes",
          "name": "new_bio",
          "type": "bytes"
        }
      ],
      "name": "editBio",
      "outputs": [],
      "stateMutability": "nonpayable",
      "type": "function"
    },
    {
      "inputs": [
        {
          "internalType": "bytes32",
          "name": "new_name",
          "type": "bytes32"
        }
      ],
      "name": "editName",
      "outputs": [],
      "stateMutability": "nonpayable",
      "type": "function"
    },
    {
      "inputs": [
        {
          "internalType": "bytes",
          "name": "new_pfp",
          "type": "bytes"
        }
      ],
      "name": "editPfp",
      "outputs": [],
      "stateMutability": "nonpayable",
      "type": "function"
    },
    {
      "inputs": [
        {
          "internalType": "address",
          "name": "_address",
          "type": "address"
        }
      ],
      "name": "follow",
      "outputs": [],
      "stateMutability": "payable",
      "type": "function"
    },
    {
      "inputs": [
        {
          "internalType": "uint256",
          "name": "tokenId",
          "type": "uint256"
        }
      ],
      "name": "getApproved",
      "outputs": [
        {
          "internalType": "address",
          "name": "",
          "type": "address"
        }
      ],
      "stateMutability": "view",
      "type": "function"
    },
    {
      "inputs": [
        {
          "internalType": "address",
          "name": "user",
          "type": "address"
        },
        {
          "internalType": "uint8",
          "name": "page",
          "type": "uint8"
        }
      ],
      "name": "getFollowersPerPage",
      "outputs": [
        {
          "internalType": "uint160[]",
          "name": "",
          "type": "uint160[]"
        }
      ],
      "stateMutability": "view",
      "type": "function"
    },
    {
      "inputs": [
        {
          "internalType": "address",
          "name": "user",
          "type": "address"
        },
        {
          "internalType": "uint8",
          "name": "page",
          "type": "uint8"
        }
      ],
      "name": "getFollowingPerPage",
      "outputs": [
        {
          "internalType": "uint160[]",
          "name": "",
          "type": "uint160[]"
        }
      ],
      "stateMutability": "view",
      "type": "function"
    },
    {
      "inputs": [
        {
          "internalType": "address",
          "name": "user",
          "type": "address"
        }
      ],
      "name": "getLast100Likes",
      "outputs": [
        {
          "internalType": "uint256[]",
          "name": "",
          "type": "uint256[]"
        }
      ],
      "stateMutability": "view",
      "type": "function"
    },
    {
      "inputs": [
        {
          "internalType": "address",
          "name": "user",
          "type": "address"
        }
      ],
      "name": "getLast100Posts",
      "outputs": [
        {
          "internalType": "uint256[]",
          "name": "",
          "type": "uint256[]"
        }
      ],
      "stateMutability": "view",
      "type": "function"
    },
    {
      "inputs": [
        {
          "internalType": "address",
          "name": "user",
          "type": "address"
        }
      ],
      "name": "getLast10Likes",
      "outputs": [
        {
          "internalType": "uint256[]",
          "name": "",
          "type": "uint256[]"
        }
      ],
      "stateMutability": "view",
      "type": "function"
    },
    {
      "inputs": [
        {
          "internalType": "address",
          "name": "user",
          "type": "address"
        }
      ],
      "name": "getLast10Posts",
      "outputs": [
        {
          "internalType": "uint256[]",
          "name": "",
          "type": "uint256[]"
        }
      ],
      "stateMutability": "view",
      "type": "function"
    },
    {
      "inputs": [
        {
          "internalType": "address",
          "name": "user",
          "type": "address"
        },
        {
          "internalType": "uint8",
          "name": "amount",
          "type": "uint8"
        }
      ],
      "name": "getLastXLikes",
      "outputs": [
        {
          "internalType": "uint256[]",
          "name": "",
          "type": "uint256[]"
        }
      ],
      "stateMutability": "view",
      "type": "function"
    },
    {
      "inputs": [
        {
          "internalType": "address",
          "name": "user",
          "type": "address"
        },
        {
          "internalType": "uint8",
          "name": "amount",
          "type": "uint8"
        }
      ],
      "name": "getLastXPosts",
      "outputs": [
        {
          "internalType": "uint256[]",
          "name": "",
          "type": "uint256[]"
        }
      ],
      "stateMutability": "view",
      "type": "function"
    },
    {
      "inputs": [
        {
          "internalType": "address",
          "name": "user",
          "type": "address"
        },
        {
          "internalType": "uint256",
          "name": "page",
          "type": "uint256"
        }
      ],
      "name": "getLikesByUserPerPage",
      "outputs": [
        {
          "internalType": "uint256[]",
          "name": "",
          "type": "uint256[]"
        }
      ],
      "stateMutability": "view",
      "type": "function"
    },
    {
      "inputs": [
        {
          "internalType": "address",
          "name": "user",
          "type": "address"
        },
        {
          "internalType": "uint8",
          "name": "page",
          "type": "uint8"
        }
      ],
      "name": "getMentionsPerPage",
      "outputs": [
        {
          "internalType": "uint256[]",
          "name": "",
          "type": "uint256[]"
        }
      ],
      "stateMutability": "view",
      "type": "function"
    },
    {
      "inputs": [
        {
          "internalType": "address",
          "name": "user",
          "type": "address"
        },
        {
          "internalType": "uint8",
          "name": "page",
          "type": "uint8"
        }
      ],
      "name": "getMessagesPerPage",
      "outputs": [
        {
          "internalType": "uint256[]",
          "name": "",
          "type": "uint256[]"
        }
      ],
      "stateMutability": "view",
      "type": "function"
    },
    {
      "inputs": [
        {
          "internalType": "address",
          "name": "user",
          "type": "address"
        },
        {
          "internalType": "uint256",
          "name": "page",
          "type": "uint256"
        }
      ],
      "name": "getPostsPerPage",
      "outputs": [
        {
          "internalType": "uint256[]",
          "name": "",
          "type": "uint256[]"
        }
      ],
      "stateMutability": "view",
      "type": "function"
    },
    {
      "inputs": [
        {
          "internalType": "address",
          "name": "_address",
          "type": "address"
        }
      ],
      "name": "getProfile",
      "outputs": [
        {
          "components": [
            {
              "internalType": "bytes32",
              "name": "name",
              "type": "bytes32"
            },
            {
              "internalType": "bytes",
              "name": "pfp_url",
              "type": "bytes"
            },
            {
              "internalType": "bytes",
              "name": "bio",
              "type": "bytes"
            },
            {
              "internalType": "bytes",
              "name": "banner_url",
              "type": "bytes"
            }
          ],
          "internalType": "struct TwetherProfile.ProfileRep",
          "name": "",
          "type": "tuple"
        }
      ],
      "stateMutability": "view",
      "type": "function"
    },
    {
      "inputs": [
        {
          "internalType": "address",
          "name": "_address",
          "type": "address"
        }
      ],
      "name": "getProfileLite",
      "outputs": [
        {
          "components": [
            {
              "internalType": "bytes32",
              "name": "name",
              "type": "bytes32"
            },
            {
              "internalType": "bytes",
              "name": "pfp_url",
              "type": "bytes"
            }
          ],
          "internalType": "struct TwetherProfile.ProfileLite",
          "name": "",
          "type": "tuple"
        }
      ],
      "stateMutability": "view",
      "type": "function"
    },
    {
      "inputs": [
        {
          "internalType": "address",
          "name": "user",
          "type": "address"
        }
      ],
      "name": "getTotalFollowers",
      "outputs": [
        {
          "internalType": "uint256",
          "name": "",
          "type": "uint256"
        }
      ],
      "stateMutability": "view",
      "type": "function"
    },
    {
      "inputs": [
        {
          "internalType": "address",
          "name": "user",
          "type": "address"
        }
      ],
      "name": "getTotalFollowing",
      "outputs": [
        {
          "internalType": "uint256",
          "name": "",
          "type": "uint256"
        }
      ],
      "stateMutability": "view",
      "type": "function"
    },
    {
      "inputs": [
        {
          "internalType": "address",
          "name": "user",
          "type": "address"
        }
      ],
      "name": "getTotalLikesFromProfile",
      "outputs": [
        {
          "internalType": "uint256",
          "name": "",
          "type": "uint256"
        }
      ],
      "stateMutability": "view",
      "type": "function"
    },
    {
      "inputs": [
        {
          "internalType": "address",
          "name": "user",
          "type": "address"
        }
      ],
      "name": "getTotalMentions",
      "outputs": [
        {
          "internalType": "uint256",
          "name": "",
          "type": "uint256"
        }
      ],
      "stateMutability": "view",
      "type": "function"
    },
    {
      "inputs": [
        {
          "internalType": "address",
          "name": "user",
          "type": "address"
        }
      ],
      "name": "getTotalPostsFromProfile",
      "outputs": [
        {
          "internalType": "uint256",
          "name": "",
          "type": "uint256"
        }
      ],
      "stateMutability": "view",
      "type": "function"
    },
    {
      "inputs": [
        {
          "internalType": "address",
          "name": "owner",
          "type": "address"
        },
        {
          "internalType": "address",
          "name": "operator",
          "type": "address"
        }
      ],
      "name": "isApprovedForAll",
      "outputs": [
        {
          "internalType": "bool",
          "name": "",
          "type": "bool"
        }
      ],
      "stateMutability": "view",
      "type": "function"
    },
    {
      "inputs": [
        {
          "internalType": "uint256",
          "name": "postId",
          "type": "uint256"
        }
      ],
      "name": "like",
      "outputs": [],
      "stateMutability": "payable",
      "type": "function"
    },
    {
      "inputs": [
        {
          "internalType": "bytes32",
          "name": "_name",
          "type": "bytes32"
        },
        {
          "internalType": "bytes",
          "name": "_pfp_url",
          "type": "bytes"
        },
        {
          "internalType": "bytes",
          "name": "_bio",
          "type": "bytes"
        },
        {
          "internalType": "bytes",
          "name": "_banner_url",
          "type": "bytes"
        }
      ],
      "name": "mint",
      "outputs": [],
      "stateMutability": "payable",
      "type": "function"
    },
    {
      "inputs": [],
      "name": "name",
      "outputs": [
        {
          "internalType": "string",
          "name": "",
          "type": "string"
        }
      ],
      "stateMutability": "view",
      "type": "function"
    },
    {
      "inputs": [],
      "name": "owner",
      "outputs": [
        {
          "internalType": "address",
          "name": "",
          "type": "address"
        }
      ],
      "stateMutability": "view",
      "type": "function"
    },
    {
      "inputs": [
        {
          "internalType": "uint256",
          "name": "tokenId",
          "type": "uint256"
        }
      ],
      "name": "ownerOf",
      "outputs": [
        {
          "internalType": "address",
          "name": "",
          "type": "address"
        }
      ],
      "stateMutability": "view",
      "type": "function"
    },
    {
      "inputs": [],
      "name": "pageSize",
      "outputs": [
        {
          "internalType": "uint256",
          "name": "",
          "type": "uint256"
        }
      ],
      "stateMutability": "view",
      "type": "function"
    },
    {
      "inputs": [],
      "name": "paused",
      "outputs": [
        {
          "internalType": "bool",
          "name": "",
          "type": "bool"
        }
      ],
      "stateMutability": "view",
      "type": "function"
    },
    {
      "inputs": [
        {
          "internalType": "bytes",
          "name": "text",
          "type": "bytes"
        },
        {
          "internalType": "bytes",
          "name": "media_url",
          "type": "bytes"
        }
      ],
      "name": "post",
      "outputs": [],
      "stateMutability": "payable",
      "type": "function"
    },
    {
      "inputs": [],
      "name": "renounceOwnership",
      "outputs": [],
      "stateMutability": "nonpayable",
      "type": "function"
    },
    {
      "inputs": [
        {
          "internalType": "address",
          "name": "from",
          "type": "address"
        },
        {
          "internalType": "address",
          "name": "to",
          "type": "address"
        },
        {
          "internalType": "uint256",
          "name": "tokenId",
          "type": "uint256"
        }
      ],
      "name": "safeTransferFrom",
      "outputs": [],
      "stateMutability": "nonpayable",
      "type": "function"
    },
    {
      "inputs": [
        {
          "internalType": "address",
          "name": "from",
          "type": "address"
        },
        {
          "internalType": "address",
          "name": "to",
          "type": "address"
        },
        {
          "internalType": "uint256",
          "name": "tokenId",
          "type": "uint256"
        },
        {
          "internalType": "bytes",
          "name": "data",
          "type": "bytes"
        }
      ],
      "name": "safeTransferFrom",
      "outputs": [],
      "stateMutability": "nonpayable",
      "type": "function"
    },
    {
      "inputs": [
        {
          "internalType": "bytes",
          "name": "cipherText",
          "type": "bytes"
        },
        {
          "internalType": "uint256",
          "name": "ephimpubkey",
          "type": "uint256"
        },
        {
          "internalType": "address",
          "name": "to",
          "type": "address"
        }
      ],
      "name": "sendMessage",
      "outputs": [],
      "stateMutability": "payable",
      "type": "function"
    },
    {
      "inputs": [
        {
          "internalType": "address",
          "name": "operator",
          "type": "address"
        },
        {
          "internalType": "bool",
          "name": "approved",
          "type": "bool"
        }
      ],
      "name": "setApprovalForAll",
      "outputs": [],
      "stateMutability": "nonpayable",
      "type": "function"
    },
    {
      "inputs": [
        {
          "internalType": "uint256",
          "name": "_pageSize",
          "type": "uint256"
        }
      ],
      "name": "setPageSize",
      "outputs": [],
      "stateMutability": "nonpayable",
      "type": "function"
    },
    {
      "inputs": [
        {
          "internalType": "uint256",
          "name": "newPrice",
          "type": "uint256"
        }
      ],
      "name": "setPrice",
      "outputs": [],
      "stateMutability": "nonpayable",
      "type": "function"
    },
    {
      "inputs": [
        {
          "internalType": "address",
          "name": "_address",
          "type": "address"
        }
      ],
      "name": "setTwetherMessageContract",
      "outputs": [],
      "stateMutability": "nonpayable",
      "type": "function"
    },
    {
      "inputs": [
        {
          "internalType": "address",
          "name": "_address",
          "type": "address"
        }
      ],
      "name": "setTwetherPostContract",
      "outputs": [],
      "stateMutability": "nonpayable",
      "type": "function"
    },
    {
      "inputs": [
        {
          "internalType": "bytes",
          "name": "text",
          "type": "bytes"
        },
        {
          "internalType": "bytes",
          "name": "media_url",
          "type": "bytes"
        },
        {
          "internalType": "uint256",
          "name": "postToShare",
          "type": "uint256"
        }
      ],
      "name": "share",
      "outputs": [],
      "stateMutability": "payable",
      "type": "function"
    },
    {
      "inputs": [
        {
          "internalType": "bytes4",
          "name": "interfaceId",
          "type": "bytes4"
        }
      ],
      "name": "supportsInterface",
      "outputs": [
        {
          "internalType": "bool",
          "name": "",
          "type": "bool"
        }
      ],
      "stateMutability": "view",
      "type": "function"
    },
    {
      "inputs": [],
      "name": "symbol",
      "outputs": [
        {
          "internalType": "string",
          "name": "",
          "type": "string"
        }
      ],
      "stateMutability": "view",
      "type": "function"
    },
    {
      "inputs": [
        {
          "internalType": "uint256",
          "name": "index",
          "type": "uint256"
        }
      ],
      "name": "tokenByIndex",
      "outputs": [
        {
          "internalType": "uint256",
          "name": "",
          "type": "uint256"
        }
      ],
      "stateMutability": "view",
      "type": "function"
    },
    {
      "inputs": [
        {
          "internalType": "address",
          "name": "owner",
          "type": "address"
        },
        {
          "internalType": "uint256",
          "name": "index",
          "type": "uint256"
        }
      ],
      "name": "tokenOfOwnerByIndex",
      "outputs": [
        {
          "internalType": "uint256",
          "name": "",
          "type": "uint256"
        }
      ],
      "stateMutability": "view",
      "type": "function"
    },
    {
      "inputs": [
        {
          "internalType": "uint256",
          "name": "tokenId",
          "type": "uint256"
        }
      ],
      "name": "tokenURI",
      "outputs": [
        {
          "internalType": "string",
          "name": "",
          "type": "string"
        }
      ],
      "stateMutability": "view",
      "type": "function"
    },
    {
      "inputs": [],
      "name": "totalSupply",
      "outputs": [
        {
          "internalType": "uint256",
          "name": "",
          "type": "uint256"
        }
      ],
      "stateMutability": "view",
      "type": "function"
    },
    {
      "inputs": [
        {
          "internalType": "address",
          "name": "from",
          "type": "address"
        },
        {
          "internalType": "address",
          "name": "to",
          "type": "address"
        },
        {
          "internalType": "uint256",
          "name": "tokenId",
          "type": "uint256"
        }
      ],
      "name": "transferFrom",
      "outputs": [],
      "stateMutability": "nonpayable",
      "type": "function"
    },
    {
      "inputs": [
        {
          "internalType": "address",
          "name": "newOwner",
          "type": "address"
        }
      ],
      "name": "transferOwnership",
      "outputs": [],
      "stateMutability": "nonpayable",
      "type": "function"
    },
    {
      "inputs": [
        {
          "internalType": "address",
          "name": "_address",
          "type": "address"
        }
      ],
      "name": "unfollow",
      "outputs": [],
      "stateMutability": "payable",
      "type": "function"
    },
    {
      "inputs": [
        {
          "internalType": "uint256",
          "name": "postId",
          "type": "uint256"
        }
      ],
      "name": "unlike",
      "outputs": [],
      "stateMutability": "payable",
      "type": "function"
    },
    {
      "inputs": [
        {
          "internalType": "uint256",
          "name": "amount",
          "type": "uint256"
        },
        {
          "internalType": "address payable",
          "name": "to",
          "type": "address"
        }
      ],
      "name": "withdrawFromContract",
      "outputs": [],
      "stateMutability": "payable",
      "type": "function"
    },
    {
      "stateMutability": "payable",
      "type": "receive"
    }
  ],
  "bytecode": "60806040526064600e556209eb10600f5562020f58601055674563918244f400006011553480156200003057600080fd5b506040518060400160405280600381526020016250726f60e81b8152506040518060400160405280600381526020016205046560ec1b8152508160009080519060200190620000819291906200010f565b508051620000979060019060208401906200010f565b5050600a805460ff1916905550620000af33620000b5565b620001f1565b600a80546001600160a01b03838116610100818102610100600160a81b031985161790945560405193909204169182907f8be0079c531659141344cd1fd0a4f28419497f9722a3daafe3b4186f6b6457e090600090a35050565b8280546200011d90620001b5565b90600052602060002090601f0160209004810192826200014157600085556200018c565b82601f106200015c57805160ff19168380011785556200018c565b828001600101855582156200018c579182015b828111156200018c5782518255916020019190600101906200016f565b506200019a9291506200019e565b5090565b5b808211156200019a57600081556001016200019f565b600181811c90821680620001ca57607f821691505b602082108103620001eb57634e487b7160e01b600052602260045260246000fd5b50919050565b61550d80620002016000396000f3fe6080604052600436106103d25760003560e01c8063881e3558116101fd578063b88d4fde11610118578063d532f0e5116100ab578063e985e9c51161007a578063e985e9c514610b8c578063ea58bc0414610bd5578063f2fde38b14610bf5578063f4e0c95314610c15578063fcb9ea3f14610c3557600080fd5b8063d532f0e514610b19578063d58ad37314610b39578063d929cf7814610b59578063e82935da14610b7957600080fd5b8063c962e1f5116100e7578063c962e1f514610a71578063ca6df1e314610aaa578063cdfe8b3814610ac0578063d00b9c4714610ae057600080fd5b8063b88d4fde146109f1578063bd153ade14610a11578063c108346714610a31578063c87b56dd14610a5157600080fd5b80639605f50511610190578063a8c7fb491161015f578063a8c7fb4914610964578063a9bf57b714610984578063aceae79e146109a4578063b620b1ad146109d157600080fd5b80639605f505146108fe5780639873eed414610911578063a22cb46514610931578063a897ec861461095157600080fd5b80638f7a56ef116101cc5780638f7a56ef1461088657806391b7f5ed146108b357806394490e9a146108d357806395d89b41146108e957600080fd5b8063881e3558146108175780638b7afe2e146108375780638d859f3e1461084d5780638da5cb5b1461086357600080fd5b80632f745c59116102ed5780635c975abb11610280578063715018a61161024f578063715018a6146107bc57806372efd405146107d157806374d21ae0146107e457806386ac1fbe146107f757600080fd5b80635c975abb146107515780636352211e146107695780636a7a16541461078957806370a082311461079c57600080fd5b80634dbf27cc116102bc5780634dbf27cc146106d25780634f6ccce7146106e557806351bf2f191461070557806355e6a8061461071857600080fd5b80632f745c5914610652578063397655811461067257806342842e0e1461069257806342966c68146106b257600080fd5b806318160ddd1161036557806324a95ac11161033457806324a95ac1146105c657806327d00fd0146105d95780632ae1200f146105f95780632afb38071461061957600080fd5b806318160ddd1461054457806318b04a25146105595780631b19327c1461058657806323b872dd146105a657600080fd5b806306fdde03116103a157806306fdde031461049d578063081812fc146104bf578063095ea7b3146104f75780630f53a4701461051757600080fd5b8063015a4ead146103f657806301879ae41461040b57806301ffc9a714610434578063043c8e291461046457600080fd5b366103f15734600d60008282546103e99190614a81565b925050819055005b600080fd5b610409610404366004614aae565b610c55565b005b34801561041757600080fd5b50610421600f5481565b6040519081526020015b60405180910390f35b34801561044057600080fd5b5061045461044f366004614ae1565b610cf1565b604051901515815260200161042b565b34801561047057600080fd5b5061042161047f366004614aae565b6001600160a01b031660009081526012602052604090206006015490565b3480156104a957600080fd5b506104b2610d37565b60405161042b9190614b56565b3480156104cb57600080fd5b506104df6104da366004614b69565b610dc9565b6040516001600160a01b03909116815260200161042b565b34801561050357600080fd5b50610409610512366004614b82565b610df0565b34801561052357600080fd5b50610537610532366004614aae565b610f05565b60405161042b9190614bae565b34801561055057600080fd5b50600854610421565b34801561056557600080fd5b50610579610574366004614b82565b61116c565b60405161042b9190614c19565b34801561059257600080fd5b506105796105a1366004614aae565b611299565b3480156105b257600080fd5b506104096105c1366004614c51565b6112a6565b6104096105d4366004614d34565b6112d8565b3480156105e557600080fd5b506104096105f4366004614b69565b611400565b34801561060557600080fd5b50610579610614366004614b82565b61140d565b34801561062557600080fd5b50610421610634366004614aae565b6001600160a01b03166000908152601260205260409020600a015490565b34801561065e57600080fd5b5061042161066d366004614b82565b61152e565b34801561067e57600080fd5b5061040961068d366004614b69565b6115c4565b34801561069e57600080fd5b506104096106ad366004614c51565b611632565b3480156106be57600080fd5b506104096106cd366004614b69565b61164d565b6104096106e0366004614aae565b61167e565b3480156106f157600080fd5b50610421610700366004614b69565b611870565b610409610713366004614d8e565b611903565b34801561072457600080fd5b50610421610733366004614aae565b6001600160a01b031660009081526012602052604090206004015490565b34801561075d57600080fd5b50600a5460ff16610454565b34801561077557600080fd5b506104df610784366004614b69565b611ad0565b610409610797366004614d8e565b611b30565b3480156107a857600080fd5b506104216107b7366004614aae565b611ce8565b3480156107c857600080fd5b50610409611d6e565b6104096107df366004614dfa565b611d82565b6104096107f2366004614b69565b611f44565b34801561080357600080fd5b50610409610812366004614e5d565b6122c1565b34801561082357600080fd5b50610579610832366004614aae565b6122fd565b34801561084357600080fd5b50610421600d5481565b34801561085957600080fd5b5061042160115481565b34801561086f57600080fd5b50600a5461010090046001600160a01b03166104df565b34801561089257600080fd5b506108a66108a1366004614e91565b61230a565b60405161042b9190614ed0565b3480156108bf57600080fd5b506104096108ce366004614b69565b612443565b3480156108df57600080fd5b50610421600e5481565b3480156108f557600080fd5b506104b2612450565b61040961090c366004614f11565b61245f565b34801561091d57600080fd5b5061040961092c366004614aae565b61255d565b34801561093d57600080fd5b5061040961094c366004614f36565b612587565b61040961095f366004614f69565b612592565b34801561097057600080fd5b5061057961097f366004614e91565b6126cc565b34801561099057600080fd5b5061045461099f366004614b69565b6127f0565b3480156109b057600080fd5b506109c46109bf366004614aae565b612886565b60405161042b9190614ffa565b3480156109dd57600080fd5b506105796109ec366004614e91565b61296e565b3480156109fd57600080fd5b50610409610a0c36600461501f565b612ae6565b348015610a1d57600080fd5b50610579610a2c366004614e91565b612b1e565b348015610a3d57600080fd5b50610579610a4c366004614e91565b612c43565b348015610a5d57600080fd5b506104b2610a6c366004614b69565b612dae565b348015610a7d57600080fd5b50610421610a8c366004614aae565b6001600160a01b031660009081526012602052604090206008015490565b348015610ab657600080fd5b5061042160105481565b348015610acc57600080fd5b506108a6610adb366004614e91565b612e22565b348015610aec57600080fd5b50610421610afb366004614aae565b6001600160a01b03166000908152601260205260409020600c015490565b348015610b2557600080fd5b50610579610b34366004614aae565b612f39565b348015610b4557600080fd5b50610454610b54366004614aae565b612f46565b348015610b6557600080fd5b50610409610b74366004614e5d565b612ff6565b610409610b87366004614b69565b613032565b348015610b9857600080fd5b50610454610ba736600461507e565b6001600160a01b03918216600090815260056020908152604080832093909416825291909152205460ff1690565b348015610be157600080fd5b50610409610bf0366004614e5d565b6132d1565b348015610c0157600080fd5b50610409610c10366004614aae565b61330d565b348015610c2157600080fd5b50610579610c30366004614aae565b613383565b348015610c4157600080fd5b50610409610c50366004614aae565b613390565b60105460006006610c663a846150ac565b610c7091906150e1565b90506064610c7f82605c6150ac565b610c8991906150e1565b341015610cb15760405162461bcd60e51b8152600401610ca8906150f5565b60405180910390fd5b34600d6000828254610cc39190614a81565b9091555060009050610cd36133ba565b905083610ce08282613417565b610cea82826136de565b5050505050565b60006001600160e01b031982166380ac58cd60e01b1480610d2257506001600160e01b03198216635b5e139f60e01b145b80610d315750610d31826138a2565b92915050565b606060008054610d4690615122565b80601f0160208091040260200160405190810160405280929190818152602001828054610d7290615122565b8015610dbf5780601f10610d9457610100808354040283529160200191610dbf565b820191906000526020600020905b815481529060010190602001808311610da257829003601f168201915b5050505050905090565b6000610dd4826138c7565b506000908152600460205260409020546001600160a01b031690565b6000610dfb82611ad0565b9050806001600160a01b0316836001600160a01b031603610e685760405162461bcd60e51b815260206004820152602160248201527f4552433732313a20617070726f76616c20746f2063757272656e74206f776e656044820152603960f91b6064820152608401610ca8565b336001600160a01b0382161480610e845750610e848133610ba7565b610ef65760405162461bcd60e51b815260206004820152603e60248201527f4552433732313a20617070726f76652063616c6c6572206973206e6f7420746f60448201527f6b656e206f776e6572206e6f7220617070726f76656420666f7220616c6c00006064820152608401610ca8565b610f008383613917565b505050565b610f336040518060800160405280600080191681526020016060815260200160608152602001606081525090565b60408051608081018252600081526060602082018190529181018290528181019190915282906001600160a01b03821660008181526012602081815260408320805486529390925290526001018054610f8b90615122565b80601f0160208091040260200160405190810160405280929190818152602001828054610fb790615122565b80156110045780601f10610fd957610100808354040283529160200191611004565b820191906000526020600020905b815481529060010190602001808311610fe757829003601f168201915b50505050602080840192909252506001600160a01b0383166000908152601290915260409020600201805461103890615122565b80601f016020809104026020016040519081016040528092919081815260200182805461106490615122565b80156110b15780601f10611086576101008083540402835291602001916110b1565b820191906000526020600020905b81548152906001019060200180831161109457829003601f168201915b50505050604080840192909252506001600160a01b038316600090815260126020522060030180546110e290615122565b80601f016020809104026020016040519081016040528092919081815260200182805461110e90615122565b801561115b5780601f106111305761010080835404028352916020019161115b565b820191906000526020600020905b81548152906001019060200180831161113e57829003601f168201915b505050505060608201529392505050565b6001600160a01b0382166000908152601260205260408120600a0154600e546060928592916001600160401b038111156111a8576111a8614c92565b6040519080825280602002602001820160405280156111d1578160200160208202803683370190505b509050600085600e546111e491906150ac565b9050805b81841180156112025750600e546111ff9082614a81565b82105b1561128d576001600160a01b0385166000908152601260205260409020600a01600161122e848761515c565b611238919061515c565b8154811061124857611248615173565b9060005260206000200154838284611260919061515c565b8151811061127057611270615173565b6020908102919091010152611286600183614a81565b91506111e8565b50909695505050505050565b6060610d31826064612c43565b6112b1335b82613985565b6112cd5760405162461bcd60e51b8152600401610ca890615189565b610f00838383613a04565b60006112e26133ba565b600c54604051630b1ccf2160e31b815291925034916000916001600160a01b0316906358e67908908490611320908a908a9033908b906004016151d7565b60206040518083038185885af115801561133e573d6000803e3d6000fd5b50505050506040513d601f19601f820116820180604052508101906113639190615210565b9050806001600160a01b038516336001600160a01b03167f93bc3c07d53a75db0d23b4aa798bb6a258f994cc453e747d0484d7f2cf03db658989876040516113ad93929190615229565b60405180910390a46001600160a01b039092166000908152601260208181526040808420600e81018054888752600f90920184529185208190559282526001830181558352909120019190915550505050565b611408613bab565b600e55565b6001600160a01b038216600090815260126020526040812060080154600e546060928592916001600160401b0381111561144957611449614c92565b604051908082528060200260200182016040528015611472578160200160208202803683370190505b509050600085600e5461148591906150ac565b9050805b81841180156114a35750600e546114a09082614a81565b82105b1561128d576001600160a01b038516600090815260126020526040902060080160016114cf848761515c565b6114d9919061515c565b815481106114e9576114e9615173565b9060005260206000200154838284611501919061515c565b8151811061151157611511615173565b6020908102919091010152611527600183614a81565b9150611489565b600061153983611ce8565b821061159b5760405162461bcd60e51b815260206004820152602b60248201527f455243373231456e756d657261626c653a206f776e657220696e646578206f7560448201526a74206f6620626f756e647360a81b6064820152608401610ca8565b506001600160a01b03919091166000908152600660209081526040808320938352929052205490565b60006115ce6133ba565b6001600160a01b03811660009081526012602052604090208390559050336001600160a01b03167f2f3cf28556634369f653461c1f4759404bb6375e97db966b28008cd7bd310c758360405161162691815260200190565b60405180910390a25050565b610f0083838360405180602001604052806000815250612ae6565b611656336112ab565b6116725760405162461bcd60e51b8152600401610ca890615189565b61167b81613c0b565b50565b6010546000600661168f3a846150ac565b61169991906150e1565b905060646116a882605c6150ac565b6116b291906150e1565b3410156116d15760405162461bcd60e51b8152600401610ca8906150f5565b34600d60008282546116e39190614a81565b90915550600090506116f36133ba565b6001600160a01b03808216600090815260126020908152604080832093891683526007909301905290812054919250859190819003611828576001600160a01b038316600090815260126020526040902060060154156117e0576001600160a01b03838116600090815260126020526040812060060180549285169290919061177e5761177e615173565b6000918252602090912001546001600160a01b0316036117e05760405162461bcd60e51b815260206004820152601e60248201527f596f7520616c726561647920666f6c6c6f77207468697320706572736f6e00006044820152606401610ca8565b6117ea8383613cb2565b6040516001600160a01b0387169033907f0f792c15b26c5388caa4745351a64b33589bd584777d9d18ffd61c19579d56fa90600090a3505050505050565b60405162461bcd60e51b815260206004820152601e60248201527f596f7520616c726561647920666f6c6c6f77207468697320706572736f6e00006044820152606401610ca8565b600061187b60085490565b82106118de5760405162461bcd60e51b815260206004820152602c60248201527f455243373231456e756d657261626c653a20676c6f62616c20696e646578206f60448201526b7574206f6620626f756e647360a01b6064820152608401610ca8565b600882815481106118f1576118f1615173565b90600052602060002001549050919050565b600b546001600160a01b031661192b5760405162461bcd60e51b8152600401610ca89061524e565b82518251600061193b8284614a81565b611947906106406150ac565b6119549062061a80614a81565b9050600061196360073a6150e1565b61196d90836150ac565b9050606461197c82605a6150ac565b61198691906150e1565b3410156119a55760405162461bcd60e51b8152600401610ca8906150f5565b34600d60008282546119b79190614a81565b90915550600090506119c76133ba565b600b546040516317f52fd760e21b81529192506000916001600160a01b0390911690635fd4bf5c90611a06908c908c908c906002908990600401615285565b6020604051808303816000875af1158015611a25573d6000803e3d6000fd5b505050506040513d601f19601f82011682018060405250810190611a499190615210565b9050611a558282613dac565b600080611a628b84613df0565b91509150816001600160a01b031681611a783390565b6001600160a01b03167f4f364c5612ff56c08fa0772d758655ad9f8145d1f867e85bf7ca35e0d4cc4f958c87604051611abb929190918252602082015260400190565b60405180910390a45050505050505050505050565b6000818152600260205260408120546001600160a01b031680610d315760405162461bcd60e51b8152602060048201526018602482015277115490cdcc8c4e881a5b9d985b1a59081d1bdad95b88125160421b6044820152606401610ca8565b600b546001600160a01b0316611b585760405162461bcd60e51b8152600401610ca89061524e565b825182516000611b688284614a81565b611b74906106406150ac565b611b819062061a80614a81565b90506000611b9060073a6150e1565b611b9a90836150ac565b90506064611ba982605a6150ac565b611bb391906150e1565b341015611bd25760405162461bcd60e51b8152600401610ca8906150f5565b34600d6000828254611be49190614a81565b9091555060009050611bf46133ba565b600b546040516317f52fd760e21b81529192506000916001600160a01b0390911690635fd4bf5c90611c33908c908c908c906001908990600401615285565b6020604051808303816000875af1158015611c52573d6000803e3d6000fd5b505050506040513d601f19601f82011682018060405250810190611c769190615210565b9050611c828282613dac565b600080611c8f8b84613df0565b91509150816001600160a01b031681611ca53390565b6001600160a01b03167f924793005f4039ce0bd7a2125c91b09615ed7d350ffa629a063a8e77958a25f68c87604051611abb929190918252602082015260400190565b60006001600160a01b038216611d525760405162461bcd60e51b815260206004820152602960248201527f4552433732313a2061646472657373207a65726f206973206e6f7420612076616044820152683634b21037bbb732b960b91b6064820152608401610ca8565b506001600160a01b031660009081526003602052604090205490565b611d76613bab565b611d806000613ea5565b565b600b546001600160a01b0316611daa5760405162461bcd60e51b8152600401610ca89061524e565b815181516000611dba8284614a81565b611dc6906106406150ac565b611dd39062061a80614a81565b90506000611de260073a6150e1565b611dec90836150ac565b90506064611dfb82605a6150ac565b611e0591906150e1565b341015611e245760405162461bcd60e51b8152600401610ca8906150f5565b34600d6000828254611e369190614a81565b9091555060009050611e466133ba565b600b546040516317f52fd760e21b81529192506000916001600160a01b0390911690635fd4bf5c90611e84908b908b90869081908990600401615285565b6020604051808303816000875af1158015611ea3573d6000803e3d6000fd5b505050506040513d601f19601f82011682018060405250810190611ec79190615210565b9050611ed38282613dac565b600080611ee08a84613df0565b91509150816001600160a01b031681611ef63390565b6001600160a01b03167fefd89a689d7f8f98aa78711828a940cc588f02f79895b9e7725436d68052678c86604051611f3091815260200190565b60405180910390a450505050505050505050565b600b546001600160a01b0316611f6c5760405162461bcd60e51b8152600401610ca89061524e565b60105460006006611f7d3a846150ac565b611f8791906150e1565b90506064611f9682605c6150ac565b611fa091906150e1565b341015611fbf5760405162461bcd60e51b8152600401610ca8906150f5565b34600d6000828254611fd19190614a81565b9091555060009050611fe16133ba565b6001600160a01b0381166000908152601260205260409020600801549091506120475760405162461bcd60e51b8152602060048201526018602482015277165bdd48191a591b9d081b1a5ad9481d1a1a5cc81c1bdcdd60421b6044820152606401610ca8565b6001600160a01b0381166000818152601260208181526040808420898552600981018352908420549484529190526008015490829003612100576001600160a01b038316600090815260126020526040812060080180548892906120ad576120ad615173565b9060005260206000200154146121005760405162461bcd60e51b8152602060048201526018602482015277165bdd48191a591b9d081b1a5ad9481d1a1a5cc81c1bdcdd60421b6044820152606401610ca8565b61210b60018261515c565b82146121f2576001600160a01b03831660009081526012602052604081208391600982019160080161213e60018661515c565b8154811061214e5761214e615173565b600091825260208083209091015483528281019390935260409182018120939093556001600160a01b03861683526012909152902060080161219160018361515c565b815481106121a1576121a1615173565b906000526020600020015460126000856001600160a01b03166001600160a01b0316815260200190815260200160002060080183815481106121e5576121e5615173565b6000918252602090912001555b6001600160a01b038316600090815260126020526040902060080180548061221c5761221c6152d4565b6000828152602080822060001990840181018390559092019092556001600160a01b038581168084526012835260408085208b865260090190935282842093909355600b549151635678132560e01b8152600481018a905260248101939093521690635678132590604401600060405180830381600087803b1580156122a157600080fd5b505af11580156122b5573d6000803e3d6000fd5b50505050505050505050565b60006122cb6133ba565b6001600160a01b03811660009081526012602090815260409091208451929350610f00926002909101918501906149d2565b6060610d3182600a612c43565b6001600160a01b038216600090815260126020526040812060040154600e546060928592916001600160401b0381111561234657612346614c92565b60405190808252806020026020018201604052801561236f578160200160208202803683370190505b50905060008560ff16600e5461238591906150ac565b9050805b81841180156123a35750600e546123a09082614a81565b82105b1561128d576001600160a01b038516600090815260126020526040902060040160016123cf848761515c565b6123d9919061515c565b815481106123e9576123e9615173565b6000918252602090912001546001600160a01b031683612409838561515c565b8151811061241957612419615173565b6001600160a01b039092166020928302919091019091015261243c600183614a81565b9150612389565b61244b613bab565b601155565b606060018054610d4690615122565b612467613bab565b34600d60008282546124799190614a81565b9091555050478211156124c35760405162461bcd60e51b81526020600482015260126024820152714e6f7420656e6f7567682062616c616e636560701b6044820152606401610ca8565b6124cb613eff565b156125595781600d60008282546124e2919061515c565b90915550506040516001600160a01b0382169083156108fc029084906000818181858888f1935050505015801561251d573d6000803e3d6000fd5b50806001600160a01b03167f7fcf532c15f0a6db0bd6d0e038bea71d30d808c7d98cb3bf7268a95bf5081b658360405161162691815260200190565b5050565b612565613bab565b600b80546001600160a01b0319166001600160a01b0392909216919091179055565b612559338383613f90565b6011543410156125e45760405162461bcd60e51b815260206004820152601860248201527f4e6f7420656e6f756768206d6f6e657920746f206d696e7400000000000000006044820152606401610ca8565b336000818152601260209081526040909120868155855161260d926001909201918701906149d2565b506001600160a01b0381166000908152601260209081526040909120845161263d926002909201918601906149d2565b506001600160a01b0381166000908152601260209081526040909120835161266d926003909201918501906149d2565b5061268133826001600160a01b031661405e565b34600d60008282546126939190614a81565b9091555050604051859033907f508d82227db28d6b1bdbd8610867f3407456be7471ed967f765033261a00209b90600090a35050505050565b6001600160a01b0382166000908152601260205260408120600c0154600e546060928592916001600160401b0381111561270857612708614c92565b604051908082528060200260200182016040528015612731578160200160208202803683370190505b50905060008560ff16600e5461274791906150ac565b9050805b81841180156127655750600e546127629082614a81565b82105b1561128d576001600160a01b0385166000908152601260205260409020600c016001612791848761515c565b61279b919061515c565b815481106127ab576127ab615173565b90600052602060002001548382846127c3919061515c565b815181106127d3576127d3615173565b60209081029190910101526127e9600183614a81565b915061274b565b6000806127fb6133ba565b6001600160a01b038116600090815260126020908152604080832087845260090190915281205491925081900361287c576001600160a01b0382166000908152601260205260408120600801805486929061285857612858615173565b906000526020600020015403612872575060019392505050565b5060009392505050565b5060019392505050565b60408051808201909152600081526060602082015260408051808201909152600081526060602082015282906001600160a01b038216600081815260126020818152604083208054865293909252905260010180546128e490615122565b80601f016020809104026020016040519081016040528092919081815260200182805461291090615122565b801561295d5780601f106129325761010080835404028352916020019161295d565b820191906000526020600020905b81548152906001019060200180831161294057829003601f168201915b505050505060208201529392505050565b6001600160a01b0382166000908152601260205260409020600a0154606090839060ff8416811115612a775760008460ff166001600160401b038111156129b7576129b7614c92565b6040519080825280602002602001820160405280156129e0578160200160208202803683370190505b50905060005b808660ff161115612a6c576001600160a01b0384166000908152601260205260409020600a016001612a18838661515c565b612a22919061515c565b81548110612a3257612a32615173565b9060005260206000200154828281518110612a4f57612a4f615173565b6020908102919091010152612a65600182614a81565b90506129e6565b509250610d31915050565b6001600160a01b038516600090815260126020908152604091829020600a0180548351818402810184019094528084529091830182828015612ad857602002820191906000526020600020905b815481526020019060010190808311612ac4575b505050505092505050610d31565b612af03383613985565b612b0c5760405162461bcd60e51b8152600401610ca890615189565b612b188484848461419d565b50505050565b6001600160a01b0382166000908152601260205260408120600e9081015490546060928592916001600160401b03811115612b5b57612b5b614c92565b604051908082528060200260200182016040528015612b84578160200160208202803683370190505b50905060008560ff16600e54612b9a91906150ac565b9050805b8184118015612bb85750600e54612bb59082614a81565b82105b1561128d576001600160a01b0385166000908152601260205260409020600e016001612be4848761515c565b612bee919061515c565b81548110612bfe57612bfe615173565b9060005260206000200154838284612c16919061515c565b81518110612c2657612c26615173565b602090810291909101015281612c3b816152ea565b925050612b9e565b6001600160a01b038216600090815260126020526040902060080154606090839060ff8416811115612d415760008460ff166001600160401b03811115612c8c57612c8c614c92565b604051908082528060200260200182016040528015612cb5578160200160208202803683370190505b50905060005b808660ff161115612a6c576001600160a01b03841660009081526012602052604090206008016001612ced838661515c565b612cf7919061515c565b81548110612d0757612d07615173565b9060005260206000200154828281518110612d2457612d24615173565b6020908102919091010152612d3a600182614a81565b9050612cbb565b6001600160a01b03851660009081526012602090815260409182902060080180548351818402810184019094528084529091830182828015612ad85760200282019190600052602060002090815481526020019060010190808311612ac457505050505092505050610d31565b6060612db9826138c7565b6000612dd060408051602081019091526000815290565b90506000815111612df05760405180602001604052806000815250612e1b565b80612dfa846141d0565b604051602001612e0b929190615303565b6040516020818303038152906040525b9392505050565b6001600160a01b03821660009081526012602052604080822060060154815160148082526102a08201909352606093869390919081602001602082028036833701905050905060008560ff16600e54612e7b91906150ac565b9050805b8184118015612e995750600e54612e969082614a81565b82105b1561128d576001600160a01b03851660009081526012602052604090206006016001612ec5848761515c565b612ecf919061515c565b81548110612edf57612edf615173565b6000918252602090912001546001600160a01b031683612eff838561515c565b81518110612f0f57612f0f615173565b6001600160a01b0390921660209283029190910190910152612f32600183614a81565b9150612e7f565b6060610d3182600a61296e565b600080612f516133ba565b6001600160a01b03808216600090815260126020908152604080832093881683526007909301905290812054919250849190819003612feb576001600160a01b038381166000908152601260205260408120600601805492851692909190612fbb57612fbb615173565b6000918252602090912001546001600160a01b031603612fe057506001949350505050565b506000949350505050565b506001949350505050565b60006130006133ba565b6001600160a01b03811660009081526012602090815260409091208451929350610f00926003909101918501906149d2565b600b546001600160a01b031661305a5760405162461bcd60e51b8152600401610ca89061524e565b6010546000600661306b3a846150ac565b61307591906150e1565b9050606461308482605c6150ac565b61308e91906150e1565b3410156130ad5760405162461bcd60e51b8152600401610ca8906150f5565b34600d60008282546130bf9190614a81565b90915550600090506130cf6133ba565b6001600160a01b0381166000908152601260209081526040808320888452600901909152812054919250819003613289576001600160a01b038216600090815260126020526040902060080154156131a5576001600160a01b0382166000908152601260205260408120600801805487929061314d5761314d615173565b9060005260206000200154036131a55760405162461bcd60e51b815260206004820152601a60248201527f596f7520616c7265616479206c696b65207468697320706f73740000000000006044820152606401610ca8565b6001600160a01b0382811660008181526012602081815260408084206008810180548d875260099092018452828620829055938352600181018455928452922001889055600b549051629a6f9760e31b8152600481018990526024810192909252909116906304d37cb890604401600060405180830381600087803b15801561322d57600080fd5b505af1158015613241573d6000803e3d6000fd5b505050508461324d3390565b6001600160a01b03167f4ead190c1ee5c17d621c4e7bc97db0676f08a4733c66c3a3f9deae9c9bbe4b7960405160405180910390a35050505050565b60405162461bcd60e51b815260206004820152601a60248201527f596f7520616c7265616479206c696b65207468697320706f73740000000000006044820152606401610ca8565b60006132db6133ba565b6001600160a01b03811660009081526012602090815260409091208451929350610f00926001909101918501906149d2565b613315613bab565b6001600160a01b03811661337a5760405162461bcd60e51b815260206004820152602660248201527f4f776e61626c653a206e6577206f776e657220697320746865207a65726f206160448201526564647265737360d01b6064820152608401610ca8565b61167b81613ea5565b6060610d3182606461296e565b613398613bab565b600c80546001600160a01b0319166001600160a01b0392909216919091179055565b6000336133c6816142d0565b6134125760405162461bcd60e51b815260206004820152601d60248201527f6164647265737320646f65736e74206861766520612070726f66696c650000006044820152606401610ca8565b919050565b8161342a816001600160a01b03166142d0565b6134465760405162461bcd60e51b8152600401610ca890615332565b81613459816001600160a01b03166142d0565b6134755760405162461bcd60e51b8152600401610ca890615332565b6001600160a01b0384166000908152601260205260409020600601546134ad5760405162461bcd60e51b8152600401610ca890615369565b6001600160a01b038085166000818152601260208181526040808420958916845260078601825283205493835252600690920154909182900361354d576001600160a01b03868116600090815260126020526040812060060180549288169290919061351b5761351b615173565b6000918252602090912001546001600160a01b03161461354d5760405162461bcd60e51b8152600401610ca890615369565b61355860018261515c565b8214613660576001600160a01b03861660009081526012602052604081208391600782019160060161358b60018661515c565b8154811061359b5761359b615173565b60009182526020808320909101546001600160a01b03908116845283820194909452604092830182209490945591891682526012909252206006016135e160018361515c565b815481106135f1576135f1615173565b60009182526020808320909101546001600160a01b0389811684526012909252604090922060060180549190921691908490811061363157613631615173565b9060005260206000200160006101000a8154816001600160a01b0302191690836001600160a01b031602179055505b6001600160a01b038616600090815260126020526040902060060180548061368a5761368a6152d4565b60008281526020808220830160001990810180546001600160a01b03191690559092019092556001600160a01b03978816825260128152604080832097909816825260079096019095525050509181205550565b6001600160a01b038082166000818152601260208181526040808420958816845260058601825283205493909252905260049091015461371f60018261515c565b8214613827576001600160a01b03831660009081526012602052604081208391600582019160040161375260018661515c565b8154811061376257613762615173565b60009182526020808320909101546001600160a01b03908116845283820194909452604092830182209490945591861682526012909252206004016137a860018361515c565b815481106137b8576137b8615173565b60009182526020808320909101546001600160a01b038681168452601290925260409092206004018054919092169190849081106137f8576137f8615173565b9060005260206000200160006101000a8154816001600160a01b0302191690836001600160a01b031602179055505b6001600160a01b0383166000908152601260205260409020600401805480613851576138516152d4565b60008281526020808220830160001990810180546001600160a01b03191690559092019092556001600160a01b03948516825260128152604080832096909516825260059095019094525050812055565b60006001600160e01b0319821663780e9d6360e01b1480610d315750610d31826142ed565b6138d0816142d0565b61167b5760405162461bcd60e51b8152602060048201526018602482015277115490cdcc8c4e881a5b9d985b1a59081d1bdad95b88125160421b6044820152606401610ca8565b600081815260046020526040902080546001600160a01b0319166001600160a01b038416908117909155819061394c82611ad0565b6001600160a01b03167f8c5be1e5ebec7d5bd14f71427d1e84f3dd0314c0f7b2291e5b200ac8c7c3b92560405160405180910390a45050565b60008061399183611ad0565b9050806001600160a01b0316846001600160a01b031614806139d857506001600160a01b0380821660009081526005602090815260408083209388168352929052205460ff165b806139fc5750836001600160a01b03166139f184610dc9565b6001600160a01b0316145b949350505050565b826001600160a01b0316613a1782611ad0565b6001600160a01b031614613a7b5760405162461bcd60e51b815260206004820152602560248201527f4552433732313a207472616e736665722066726f6d20696e636f72726563742060448201526437bbb732b960d91b6064820152608401610ca8565b6001600160a01b038216613add5760405162461bcd60e51b8152602060048201526024808201527f4552433732313a207472616e7366657220746f20746865207a65726f206164646044820152637265737360e01b6064820152608401610ca8565b613ae883838361433d565b613af3600082613917565b6001600160a01b0383166000908152600360205260408120805460019290613b1c90849061515c565b90915550506001600160a01b0382166000908152600360205260408120805460019290613b4a908490614a81565b909155505060008181526002602052604080822080546001600160a01b0319166001600160a01b0386811691821790925591518493918716917fddf252ad1be2c89b69c2b068fc378daa952ba7f163c4a11628f55a4df523b3ef91a4505050565b600a546001600160a01b03610100909104163314611d805760405162461bcd60e51b815260206004820181905260248201527f4f776e61626c653a2063616c6c6572206973206e6f7420746865206f776e65726044820152606401610ca8565b6000613c1682611ad0565b9050613c248160008461433d565b613c2f600083613917565b6001600160a01b0381166000908152600360205260408120805460019290613c5890849061515c565b909155505060008281526002602052604080822080546001600160a01b0319169055518391906001600160a01b038416907fddf252ad1be2c89b69c2b068fc378daa952ba7f163c4a11628f55a4df523b3ef908390a45050565b81613cc5816001600160a01b03166142d0565b613ce15760405162461bcd60e51b8152600401610ca890615332565b81613cf4816001600160a01b03166142d0565b613d105760405162461bcd60e51b8152600401610ca890615332565b50506001600160a01b03918216600081815260126020818152604080842060068082018054989099168087526007909201845282862088905584845260018089018a5598865283862090970180546001600160a01b031990811683179091559085528185209687015486865260058801845291852091909155918152600490940180549586018155825292902090920180549091169091179055565b6001600160a01b039091166000908152601260208181526040808420600a81018054878752600b909201845291852081905592825260018301815583529091200155565b6000806000613e1885604051806040016040528060028152602001608160f61b8152506143af565b90506000613e408660405180604001604052806002815260200161202360f01b8152506143af565b613e49906153ab565b90506000613e568361455e565b6001600160a01b0381166000908152601260208181526040808420600c810180548d8752600d909201845291852081905592825260018301815583529091200196909655509395939450505050565b600a80546001600160a01b03838116610100818102610100600160a81b031985161790945560405193909204169182907f8be0079c531659141344cd1fd0a4f28419497f9722a3daafe3b4186f6b6457e090600090a35050565b600047600d5414613f8a576000600d556040514781527f40d049d1cf483938324a7677b589a685d17b34e3795b2e32d749beaa1a305e3d9060200160405180910390a1600a546040516001600160a01b0361010090920491909116904780156108fc02916000818181858888f19350505050158015613f82573d6000803e3d6000fd5b506000905090565b50600190565b816001600160a01b0316836001600160a01b031603613ff15760405162461bcd60e51b815260206004820152601960248201527f4552433732313a20617070726f766520746f2063616c6c6572000000000000006044820152606401610ca8565b6001600160a01b03838116600081815260056020908152604080832094871680845294825291829020805460ff191686151590811790915591519182527f17307eab39ab6107e8899845ad3d59bd9653f200f220920489ca2b5937696c31910160405180910390a3505050565b6001600160a01b0382166140b45760405162461bcd60e51b815260206004820181905260248201527f4552433732313a206d696e7420746f20746865207a65726f20616464726573736044820152606401610ca8565b6140bd816142d0565b1561410a5760405162461bcd60e51b815260206004820152601c60248201527f4552433732313a20746f6b656e20616c7265616479206d696e746564000000006044820152606401610ca8565b6141166000838361433d565b6001600160a01b038216600090815260036020526040812080546001929061413f908490614a81565b909155505060008181526002602052604080822080546001600160a01b0319166001600160a01b03861690811790915590518392907fddf252ad1be2c89b69c2b068fc378daa952ba7f163c4a11628f55a4df523b3ef908290a45050565b6141a8848484613a04565b6141b4848484846145bd565b612b185760405162461bcd60e51b8152600401610ca8906153cf565b6060816000036141f75750506040805180820190915260018152600360fc1b602082015290565b8160005b8115614221578061420b816152ea565b915061421a9050600a836150e1565b91506141fb565b6000816001600160401b0381111561423b5761423b614c92565b6040519080825280601f01601f191660200182016040528015614265576020820181803683370190505b5090505b84156139fc5761427a60018361515c565b9150614287600a86615421565b614292906030614a81565b60f81b8183815181106142a7576142a7615173565b60200101906001600160f81b031916908160001a9053506142c9600a866150e1565b9450614269565b6000908152600260205260409020546001600160a01b0316151590565b60006001600160e01b031982166380ac58cd60e01b148061431e57506001600160e01b03198216635b5e139f60e01b145b80610d3157506301ffc9a760e01b6001600160e01b0319831614610d31565b600a5460ff16156143a45760405162461bcd60e51b815260206004820152602b60248201527f4552433732315061757361626c653a20746f6b656e207472616e73666572207760448201526a1a1a5b19481c185d5cd95960aa1b6064820152608401610ca8565b610f008383836146b3565b60408051602a80825260608281019093528391600091602082018180368337019050509050600080805b845188516143e7919061515c565b8111614552576001826144715760005b865181101561446f5786818151811061441257614412615173565b01602001516001600160f81b0319168a61442c8386614a81565b8151811061443c5761443c615173565b01602001516001600160f81b03191614614459576000915061446f565b8294508080614467906152ea565b9150506143f7565b505b801561453f5782614485576001925061453f565b600160fd1b89614496846001614a81565b815181106144a6576144a6615173565b01602001516001600160f81b03191614806144ca5750602a6144c8858461515c565b115b156144d55750614552565b886144e1836001614a81565b815181106144f1576144f1615173565b01602001516001600160f81b03191685600161450d878661515c565b614517919061515c565b8151811061452757614527615173565b60200101906001600160f81b031916908160001a9053505b508061454a816152ea565b9150506143d9565b50919695505050505050565b600080805b83518110156145b657600482901b915061459c84828151811061458857614588615173565b01602001516001600160f81b03191661476b565b60ff168217915080806145ae906152ea565b915050614563565b5092915050565b60006001600160a01b0384163b15612feb57604051630a85bd0160e11b81526001600160a01b0385169063150b7a0290614601903390899088908890600401615435565b6020604051808303816000875af192505050801561463c575060408051601f3d908101601f1916820190925261463991810190615472565b60015b614699573d80801561466a576040519150601f19603f3d011682016040523d82523d6000602084013e61466f565b606091505b5080516000036146915760405162461bcd60e51b8152600401610ca8906153cf565b805181602001fd5b6001600160e01b031916630a85bd0160e11b1490506139fc565b6001600160a01b03831661470e5761470981600880546000838152600960205260408120829055600182018355919091527ff3f7a9fe364faab93b216da50a3214154f22a0a2b415b23a84c8169e8b636ee30155565b614731565b816001600160a01b0316836001600160a01b031614614731576147318382614842565b6001600160a01b03821661474857610f00816148df565b826001600160a01b0316826001600160a01b031614610f0057610f00828261498e565b6000600360fc1b6001600160f81b03198316108015906147995750603960f81b6001600160f81b0319831611155b156147ad57610d31603060f884901c61548f565b604160f81b6001600160f81b03198316108015906147d95750602360f91b6001600160f81b0319831611155b156147f95760416147ef60f884901c600a6154b2565b610d31919061548f565b606160f81b6001600160f81b03198316108015906148255750603360f91b6001600160f81b0319831611155b1561483b5760616147ef60f884901c600a6154b2565b5060f81c90565b6000600161484f84611ce8565b614859919061515c565b6000838152600760205260409020549091508082146148ac576001600160a01b03841660009081526006602090815260408083208584528252808320548484528184208190558352600790915290208190555b5060009182526007602090815260408084208490556001600160a01b039094168352600681528383209183525290812055565b6008546000906148f19060019061515c565b6000838152600960205260408120546008805493945090928490811061491957614919615173565b90600052602060002001549050806008838154811061493a5761493a615173565b6000918252602080832090910192909255828152600990915260408082208490558582528120556008805480614972576149726152d4565b6001900381819060005260206000200160009055905550505050565b600061499983611ce8565b6001600160a01b039093166000908152600660209081526040808320868452825280832085905593825260079052919091209190915550565b8280546149de90615122565b90600052602060002090601f016020900481019282614a005760008555614a46565b82601f10614a1957805160ff1916838001178555614a46565b82800160010185558215614a46579182015b82811115614a46578251825591602001919060010190614a2b565b50614a52929150614a56565b5090565b5b80821115614a525760008155600101614a57565b634e487b7160e01b600052601160045260246000fd5b60008219821115614a9457614a94614a6b565b500190565b6001600160a01b038116811461167b57600080fd5b600060208284031215614ac057600080fd5b8135612e1b81614a99565b6001600160e01b03198116811461167b57600080fd5b600060208284031215614af357600080fd5b8135612e1b81614acb565b60005b83811015614b19578181015183820152602001614b01565b83811115612b185750506000910152565b60008151808452614b42816020860160208601614afe565b601f01601f19169290920160200192915050565b602081526000612e1b6020830184614b2a565b600060208284031215614b7b57600080fd5b5035919050565b60008060408385031215614b9557600080fd5b8235614ba081614a99565b946020939093013593505050565b60208152815160208201526000602083015160806040840152614bd460a0840182614b2a565b90506040840151601f1980858403016060860152614bf28383614b2a565b9250606086015191508085840301608086015250614c108282614b2a565b95945050505050565b6020808252825182820181905260009190848201906040850190845b8181101561128d57835183529284019291840191600101614c35565b600080600060608486031215614c6657600080fd5b8335614c7181614a99565b92506020840135614c8181614a99565b929592945050506040919091013590565b634e487b7160e01b600052604160045260246000fd5b600082601f830112614cb957600080fd5b81356001600160401b0380821115614cd357614cd3614c92565b604051601f8301601f19908116603f01168101908282118183101715614cfb57614cfb614c92565b81604052838152866020858801011115614d1457600080fd5b836020870160208301376000602085830101528094505050505092915050565b600080600060608486031215614d4957600080fd5b83356001600160401b03811115614d5f57600080fd5b614d6b86828701614ca8565b935050602084013591506040840135614d8381614a99565b809150509250925092565b600080600060608486031215614da357600080fd5b83356001600160401b0380821115614dba57600080fd5b614dc687838801614ca8565b94506020860135915080821115614ddc57600080fd5b50614de986828701614ca8565b925050604084013590509250925092565b60008060408385031215614e0d57600080fd5b82356001600160401b0380821115614e2457600080fd5b614e3086838701614ca8565b93506020850135915080821115614e4657600080fd5b50614e5385828601614ca8565b9150509250929050565b600060208284031215614e6f57600080fd5b81356001600160401b03811115614e8557600080fd5b6139fc84828501614ca8565b60008060408385031215614ea457600080fd5b8235614eaf81614a99565b9150602083013560ff81168114614ec557600080fd5b809150509250929050565b6020808252825182820181905260009190848201906040850190845b8181101561128d5783516001600160a01b031683529284019291840191600101614eec565b60008060408385031215614f2457600080fd5b823591506020830135614ec581614a99565b60008060408385031215614f4957600080fd5b8235614f5481614a99565b915060208301358015158114614ec557600080fd5b60008060008060808587031215614f7f57600080fd5b8435935060208501356001600160401b0380821115614f9d57600080fd5b614fa988838901614ca8565b94506040870135915080821115614fbf57600080fd5b614fcb88838901614ca8565b93506060870135915080821115614fe157600080fd5b50614fee87828801614ca8565b91505092959194509250565b6020815281516020820152600060208301516040808401526139fc6060840182614b2a565b6000806000806080858703121561503557600080fd5b843561504081614a99565b9350602085013561505081614a99565b92506040850135915060608501356001600160401b0381111561507257600080fd5b614fee87828801614ca8565b6000806040838503121561509157600080fd5b823561509c81614a99565b91506020830135614ec581614a99565b60008160001904831182151516156150c6576150c6614a6b565b500290565b634e487b7160e01b600052601260045260246000fd5b6000826150f0576150f06150cb565b500490565b602080825260139082015272139bdd08195b9bdd59da08199959481c185a59606a1b604082015260600190565b600181811c9082168061513657607f821691505b60208210810361515657634e487b7160e01b600052602260045260246000fd5b50919050565b60008282101561516e5761516e614a6b565b500390565b634e487b7160e01b600052603260045260246000fd5b6020808252602e908201527f4552433732313a2063616c6c6572206973206e6f7420746f6b656e206f776e6560408201526d1c881b9bdc88185c1c1c9bdd995960921b606082015260800190565b6080815260006151ea6080830187614b2a565b6020830195909552506001600160a01b0392831660408201529116606090910152919050565b60006020828403121561522257600080fd5b5051919050565b60608152600061523c6060830186614b2a565b60208301949094525060400152919050565b6020808252601e908201527f506f7374506f737420636f6e7472616374206973206e6f742073657475700000604082015260600190565b60a08152600061529860a0830188614b2a565b82810360208401526152aa8188614b2a565b6040840196909652505060ff9290921660608301526001600160a01b031660809091015292915050565b634e487b7160e01b600052603160045260246000fd5b6000600182016152fc576152fc614a6b565b5060010190565b60008351615315818460208801614afe565b835190830190615329818360208801614afe565b01949350505050565b6020808252601e908201527f6164647265737320646f65736e2774206861766520612070726f66696c650000604082015260600190565b60208082526022908201527f596f7520617265206e6f7420666f6c6c6f77696e672074686973206164647265604082015261737360f01b606082015260800190565b805160208083015191908110156151565760001960209190910360031b1b16919050565b60208082526032908201527f4552433732313a207472616e7366657220746f206e6f6e20455243373231526560408201527131b2b4bb32b91034b6b83632b6b2b73a32b960711b606082015260800190565b600082615430576154306150cb565b500690565b6001600160a01b038581168252841660208201526040810183905260806060820181905260009061546890830184614b2a565b9695505050505050565b60006020828403121561548457600080fd5b8151612e1b81614acb565b600060ff821660ff8416808210156154a9576154a9614a6b565b90039392505050565b600060ff821660ff84168060ff038211156154cf576154cf614a6b565b01939250505056fea26469706673582212204f41093eec0741de2d3d77e4f3ab858c967007ab422f6aa9278fdcc2165dea8464736f6c634300080d0033",
  "bytecodeSha1": "1c472ab4bc9218d8dc1b01469a52db65e97fc4f7",
  "compiler": {
    "evm_version": "istanbul",
    "optimizer": {
      "enabled": true,
      "runs": 200
    },
    "version": "0.8.13+commit.abaa5c0e"
  },
  "contractName": "TwetherProfile",
  "language": "Solidity",
  "natspec": {
    "kind": "dev",
    "methods": {
      "approve(address,uint256)": {
        "details": "See {IERC721-approve}."
      },
      "balanceOf(address)": {
        "details": "See {IERC721-balanceOf}."
      },
      "burn(uint256)": {
        "details": "Burns `tokenId`. See {ERC721-_burn}. Requirements: - The caller must own `tokenId` or be an approved operator."
      },
      "getApproved(uint256)": {
        "details": "See {IERC721-getApproved}."
      },
      "isApprovedForAll(address,address)": {
        "details": "See {IERC721-isApprovedForAll}."
      },
      "name()": {
        "details": "See {IERC721Metadata-name}."
      },
      "owner()": {
        "details": "Returns the address of the current owner."
      },
      "ownerOf(uint256)": {
        "details": "See {IERC721-ownerOf}."
      },
      "paused()": {
        "details": "Returns true if the contract is paused, and false otherwise."
      },
      "renounceOwnership()": {
        "details": "Leaves the contract without owner. It will not be possible to call `onlyOwner` functions anymore. Can only be called by the current owner. NOTE: Renouncing ownership will leave the contract without an owner, thereby removing any functionality that is only available to the owner."
      },
      "safeTransferFrom(address,address,uint256)": {
        "details": "See {IERC721-safeTransferFrom}."
      },
      "safeTransferFrom(address,address,uint256,bytes)": {
        "details": "See {IERC721-safeTransferFrom}."
      },
      "setApprovalForAll(address,bool)": {
        "details": "See {IERC721-setApprovalForAll}."
      },
      "supportsInterface(bytes4)": {
        "details": "Returns weather a contracts supports a certain Interface.",
        "params": {
          "interfaceId": "of the interface to check."
        },
        "returns": {
          "_0": "True if the contract supports such interface."
        }
      },
      "symbol()": {
        "details": "See {IERC721Metadata-symbol}."
      },
      "tokenByIndex(uint256)": {
        "details": "See {IERC721Enumerable-tokenByIndex}."
      },
      "tokenOfOwnerByIndex(address,uint256)": {
        "details": "See {IERC721Enumerable-tokenOfOwnerByIndex}."
      },
      "tokenURI(uint256)": {
        "details": "See {IERC721Metadata-tokenURI}."
      },
      "totalSupply()": {
        "details": "See {IERC721Enumerable-totalSupply}."
      },
      "transferFrom(address,address,uint256)": {
        "details": "See {IERC721-transferFrom}."
      },
      "transferOwnership(address)": {
        "details": "Transfers ownership of the contract to a new account (`newOwner`). Can only be called by the current owner."
      }
    },
    "version": 1
  },
  "opcodes": "PUSH1 0x80 PUSH1 0x40 MSTORE PUSH1 0x4 CALLDATASIZE LT PUSH2 0x3D2 JUMPI PUSH1 0x0 CALLDATALOAD PUSH1 0xE0 SHR DUP1 PUSH4 0x881E3558 GT PUSH2 0x1FD JUMPI DUP1 PUSH4 0xB88D4FDE GT PUSH2 0x118 JUMPI DUP1 PUSH4 0xD532F0E5 GT PUSH2 0xAB JUMPI DUP1 PUSH4 0xE985E9C5 GT PUSH2 0x7A JUMPI DUP1 PUSH4 0xE985E9C5 EQ PUSH2 0xB8C JUMPI DUP1 PUSH4 0xEA58BC04 EQ PUSH2 0xBD5 JUMPI DUP1 PUSH4 0xF2FDE38B EQ PUSH2 0xBF5 JUMPI DUP1 PUSH4 0xF4E0C953 EQ PUSH2 0xC15 JUMPI DUP1 PUSH4 0xFCB9EA3F EQ PUSH2 0xC35 JUMPI PUSH1 0x0 DUP1 REVERT JUMPDEST DUP1 PUSH4 0xD532F0E5 EQ PUSH2 0xB19 JUMPI DUP1 PUSH4 0xD58AD373 EQ PUSH2 0xB39 JUMPI DUP1 PUSH4 0xD929CF78 EQ PUSH2 0xB59 JUMPI DUP1 PUSH4 0xE82935DA EQ PUSH2 0xB79 JUMPI PUSH1 0x0 DUP1 REVERT JUMPDEST DUP1 PUSH4 0xC962E1F5 GT PUSH2 0xE7 JUMPI DUP1 PUSH4 0xC962E1F5 EQ PUSH2 0xA71 JUMPI DUP1 PUSH4 0xCA6DF1E3 EQ PUSH2 0xAAA JUMPI DUP1 PUSH4 0xCDFE8B38 EQ PUSH2 0xAC0 JUMPI DUP1 PUSH4 0xD00B9C47 EQ PUSH2 0xAE0 JUMPI PUSH1 0x0 DUP1 REVERT JUMPDEST DUP1 PUSH4 0xB88D4FDE EQ PUSH2 0x9F1 JUMPI DUP1 PUSH4 0xBD153ADE EQ PUSH2 0xA11 JUMPI DUP1 PUSH4 0xC1083467 EQ PUSH2 0xA31 JUMPI DUP1 PUSH4 0xC87B56DD EQ PUSH2 0xA51 JUMPI PUSH1 0x0 DUP1 REVERT JUMPDEST DUP1 PUSH4 0x9605F505 GT PUSH2 0x190 JUMPI DUP1 PUSH4 0xA8C7FB49 GT PUSH2 0x15F JUMPI DUP1 PUSH4 0xA8C7FB49 EQ PUSH2 0x964 JUMPI DUP1 PUSH4 0xA9BF57B7 EQ PUSH2 0x984 JUMPI DUP1 PUSH4 0xACEAE79E EQ PUSH2 0x9A4 JUMPI DUP1 PUSH4 0xB620B1AD EQ PUSH2 0x9D1 JUMPI PUSH1 0x0 DUP1 REVERT JUMPDEST DUP1 PUSH4 0x9605F505 EQ PUSH2 0x8FE JUMPI DUP1 PUSH4 0x9873EED4 EQ PUSH2 0x911 JUMPI DUP1 PUSH4 0xA22CB465 EQ PUSH2 0x931 JUMPI DUP1 PUSH4 0xA897EC86 EQ PUSH2 0x951 JUMPI PUSH1 0x0 DUP1 REVERT JUMPDEST DUP1 PUSH4 0x8F7A56EF GT PUSH2 0x1CC JUMPI DUP1 PUSH4 0x8F7A56EF EQ PUSH2 0x886 JUMPI DUP1 PUSH4 0x91B7F5ED EQ PUSH2 0x8B3 JUMPI DUP1 PUSH4 0x94490E9A EQ PUSH2 0x8D3 JUMPI DUP1 PUSH4 0x95D89B41 EQ PUSH2 0x8E9 JUMPI PUSH1 0x0 DUP1 REVERT JUMPDEST DUP1 PUSH4 0x881E3558 EQ PUSH2 0x817 JUMPI DUP1 PUSH4 0x8B7AFE2E EQ PUSH2 0x837 JUMPI DUP1 PUSH4 0x8D859F3E EQ PUSH2 0x84D JUMPI DUP1 PUSH4 0x8DA5CB5B EQ PUSH2 0x863 JUMPI PUSH1 0x0 DUP1 REVERT JUMPDEST DUP1 PUSH4 0x2F745C59 GT PUSH2 0x2ED JUMPI DUP1 PUSH4 0x5C975ABB GT PUSH2 0x280 JUMPI DUP1 PUSH4 0x715018A6 GT PUSH2 0x24F JUMPI DUP1 PUSH4 0x715018A6 EQ PUSH2 0x7BC JUMPI DUP1 PUSH4 0x72EFD405 EQ PUSH2 0x7D1 JUMPI DUP1 PUSH4 0x74D21AE0 EQ PUSH2 0x7E4 JUMPI DUP1 PUSH4 0x86AC1FBE EQ PUSH2 0x7F7 JUMPI PUSH1 0x0 DUP1 REVERT JUMPDEST DUP1 PUSH4 0x5C975ABB EQ PUSH2 0x751 JUMPI DUP1 PUSH4 0x6352211E EQ PUSH2 0x769 JUMPI DUP1 PUSH4 0x6A7A1654 EQ PUSH2 0x789 JUMPI DUP1 PUSH4 0x70A08231 EQ PUSH2 0x79C JUMPI PUSH1 0x0 DUP1 REVERT JUMPDEST DUP1 PUSH4 0x4DBF27CC GT PUSH2 0x2BC JUMPI DUP1 PUSH4 0x4DBF27CC EQ PUSH2 0x6D2 JUMPI DUP1 PUSH4 0x4F6CCCE7 EQ PUSH2 0x6E5 JUMPI DUP1 PUSH4 0x51BF2F19 EQ PUSH2 0x705 JUMPI DUP1 PUSH4 0x55E6A806 EQ PUSH2 0x718 JUMPI PUSH1 0x0 DUP1 REVERT JUMPDEST DUP1 PUSH4 0x2F745C59 EQ PUSH2 0x652 JUMPI DUP1 PUSH4 0x39765581 EQ PUSH2 0x672 JUMPI DUP1 PUSH4 0x42842E0E EQ PUSH2 0x692 JUMPI DUP1 PUSH4 0x42966C68 EQ PUSH2 0x6B2 JUMPI PUSH1 0x0 DUP1 REVERT JUMPDEST DUP1 PUSH4 0x18160DDD GT PUSH2 0x365 JUMPI DUP1 PUSH4 0x24A95AC1 GT PUSH2 0x334 JUMPI DUP1 PUSH4 0x24A95AC1 EQ PUSH2 0x5C6 JUMPI DUP1 PUSH4 0x27D00FD0 EQ PUSH2 0x5D9 JUMPI DUP1 PUSH4 0x2AE1200F EQ PUSH2 0x5F9 JUMPI DUP1 PUSH4 0x2AFB3807 EQ PUSH2 0x619 JUMPI PUSH1 0x0 DUP1 REVERT JUMPDEST DUP1 PUSH4 0x18160DDD EQ PUSH2 0x544 JUMPI DUP1 PUSH4 0x18B04A25 EQ PUSH2 0x559 JUMPI DUP1 PUSH4 0x1B19327C EQ PUSH2 0x586 JUMPI DUP1 PUSH4 0x23B872DD EQ PUSH2 0x5A6 JUMPI PUSH1 0x0 DUP1 REVERT JUMPDEST DUP1 PUSH4 0x6FDDE03 GT PUSH2 0x3A1 JUMPI DUP1 PUSH4 0x6FDDE03 EQ PUSH2 0x49D JUMPI DUP1 PUSH4 0x81812FC EQ PUSH2 0x4BF JUMPI DUP1 PUSH4 0x95EA7B3 EQ PUSH2 0x4F7 JUMPI DUP1 PUSH4 0xF53A470 EQ PUSH2 0x517 JUMPI PUSH1 0x0 DUP1 REVERT JUMPDEST DUP1 PUSH4 0x15A4EAD EQ PUSH2 0x3F6 JUMPI DUP1 PUSH4 0x1879AE4 EQ PUSH2 0x40B JUMPI DUP1 PUSH4 0x1FFC9A7 EQ PUSH2 0x434 JUMPI DUP1 PUSH4 0x43C8E29 EQ PUSH2 0x464 JUMPI PUSH1 0x0 DUP1 REVERT JUMPDEST CALLDATASIZE PUSH2 0x3F1 JUMPI CALLVALUE PUSH1 0xD PUSH1 0x0 DUP3 DUP3 SLOAD PUSH2 0x3E9 SWAP2 SWAP1 PUSH2 0x4A81 JUMP JUMPDEST SWAP3 POP POP DUP2 SWAP1 SSTORE STOP JUMPDEST PUSH1 0x0 DUP1 REVERT JUMPDEST PUSH2 0x409 PUSH2 0x404 CALLDATASIZE PUSH1 0x4 PUSH2 0x4AAE JUMP JUMPDEST PUSH2 0xC55 JUMP JUMPDEST STOP JUMPDEST CALLVALUE DUP1 ISZERO PUSH2 0x417 JUMPI PUSH1 0x0 DUP1 REVERT JUMPDEST POP PUSH2 0x421 PUSH1 0xF SLOAD DUP2 JUMP JUMPDEST PUSH1 0x40 MLOAD SWAP1 DUP2 MSTORE PUSH1 0x20 ADD JUMPDEST PUSH1 0x40 MLOAD DUP1 SWAP2 SUB SWAP1 RETURN JUMPDEST CALLVALUE DUP1 ISZERO PUSH2 0x440 JUMPI PUSH1 0x0 DUP1 REVERT JUMPDEST POP PUSH2 0x454 PUSH2 0x44F CALLDATASIZE PUSH1 0x4 PUSH2 0x4AE1 JUMP JUMPDEST PUSH2 0xCF1 JUMP JUMPDEST PUSH1 0x40 MLOAD SWAP1 ISZERO ISZERO DUP2 MSTORE PUSH1 0x20 ADD PUSH2 0x42B JUMP JUMPDEST CALLVALUE DUP1 ISZERO PUSH2 0x470 JUMPI PUSH1 0x0 DUP1 REVERT JUMPDEST POP PUSH2 0x421 PUSH2 0x47F CALLDATASIZE PUSH1 0x4 PUSH2 0x4AAE JUMP JUMPDEST PUSH1 0x1 PUSH1 0x1 PUSH1 0xA0 SHL SUB AND PUSH1 0x0 SWAP1 DUP2 MSTORE PUSH1 0x12 PUSH1 0x20 MSTORE PUSH1 0x40 SWAP1 KECCAK256 PUSH1 0x6 ADD SLOAD SWAP1 JUMP JUMPDEST CALLVALUE DUP1 ISZERO PUSH2 0x4A9 JUMPI PUSH1 0x0 DUP1 REVERT JUMPDEST POP PUSH2 0x4B2 PUSH2 0xD37 JUMP JUMPDEST PUSH1 0x40 MLOAD PUSH2 0x42B SWAP2 SWAP1 PUSH2 0x4B56 JUMP JUMPDEST CALLVALUE DUP1 ISZERO PUSH2 0x4CB JUMPI PUSH1 0x0 DUP1 REVERT JUMPDEST POP PUSH2 0x4DF PUSH2 0x4DA CALLDATASIZE PUSH1 0x4 PUSH2 0x4B69 JUMP JUMPDEST PUSH2 0xDC9 JUMP JUMPDEST PUSH1 0x40 MLOAD PUSH1 0x1 PUSH1 0x1 PUSH1 0xA0 SHL SUB SWAP1 SWAP2 AND DUP2 MSTORE PUSH1 0x20 ADD PUSH2 0x42B JUMP JUMPDEST CALLVALUE DUP1 ISZERO PUSH2 0x503 JUMPI PUSH1 0x0 DUP1 REVERT JUMPDEST POP PUSH2 0x409 PUSH2 0x512 CALLDATASIZE PUSH1 0x4 PUSH2 0x4B82 JUMP JUMPDEST PUSH2 0xDF0 JUMP JUMPDEST CALLVALUE DUP1 ISZERO PUSH2 0x523 JUMPI PUSH1 0x0 DUP1 REVERT JUMPDEST POP PUSH2 0x537 PUSH2 0x532 CALLDATASIZE PUSH1 0x4 PUSH2 0x4AAE JUMP JUMPDEST PUSH2 0xF05 JUMP JUMPDEST PUSH1 0x40 MLOAD PUSH2 0x42B SWAP2 SWAP1 PUSH2 0x4BAE JUMP JUMPDEST CALLVALUE DUP1 ISZERO PUSH2 0x550 JUMPI PUSH1 0x0 DUP1 REVERT JUMPDEST POP PUSH1 0x8 SLOAD PUSH2 0x421 JUMP JUMPDEST CALLVALUE DUP1 ISZERO PUSH2 0x565 JUMPI PUSH1 0x0 DUP1 REVERT JUMPDEST POP PUSH2 0x579 PUSH2 0x574 CALLDATASIZE PUSH1 0x4 PUSH2 0x4B82 JUMP JUMPDEST PUSH2 0x116C JUMP JUMPDEST PUSH1 0x40 MLOAD PUSH2 0x42B SWAP2 SWAP1 PUSH2 0x4C19 JUMP JUMPDEST CALLVALUE DUP1 ISZERO PUSH2 0x592 JUMPI PUSH1 0x0 DUP1 REVERT JUMPDEST POP PUSH2 0x579 PUSH2 0x5A1 CALLDATASIZE PUSH1 0x4 PUSH2 0x4AAE JUMP JUMPDEST PUSH2 0x1299 JUMP JUMPDEST CALLVALUE DUP1 ISZERO PUSH2 0x5B2 JUMPI PUSH1 0x0 DUP1 REVERT JUMPDEST POP PUSH2 0x409 PUSH2 0x5C1 CALLDATASIZE PUSH1 0x4 PUSH2 0x4C51 JUMP JUMPDEST PUSH2 0x12A6 JUMP JUMPDEST PUSH2 0x409 PUSH2 0x5D4 CALLDATASIZE PUSH1 0x4 PUSH2 0x4D34 JUMP JUMPDEST PUSH2 0x12D8 JUMP JUMPDEST CALLVALUE DUP1 ISZERO PUSH2 0x5E5 JUMPI PUSH1 0x0 DUP1 REVERT JUMPDEST POP PUSH2 0x409 PUSH2 0x5F4 CALLDATASIZE PUSH1 0x4 PUSH2 0x4B69 JUMP JUMPDEST PUSH2 0x1400 JUMP JUMPDEST CALLVALUE DUP1 ISZERO PUSH2 0x605 JUMPI PUSH1 0x0 DUP1 REVERT JUMPDEST POP PUSH2 0x579 PUSH2 0x614 CALLDATASIZE PUSH1 0x4 PUSH2 0x4B82 JUMP JUMPDEST PUSH2 0x140D JUMP JUMPDEST CALLVALUE DUP1 ISZERO PUSH2 0x625 JUMPI PUSH1 0x0 DUP1 REVERT JUMPDEST POP PUSH2 0x421 PUSH2 0x634 CALLDATASIZE PUSH1 0x4 PUSH2 0x4AAE JUMP JUMPDEST PUSH1 0x1 PUSH1 0x1 PUSH1 0xA0 SHL SUB AND PUSH1 0x0 SWAP1 DUP2 MSTORE PUSH1 0x12 PUSH1 0x20 MSTORE PUSH1 0x40 SWAP1 KECCAK256 PUSH1 0xA ADD SLOAD SWAP1 JUMP JUMPDEST CALLVALUE DUP1 ISZERO PUSH2 0x65E JUMPI PUSH1 0x0 DUP1 REVERT JUMPDEST POP PUSH2 0x421 PUSH2 0x66D CALLDATASIZE PUSH1 0x4 PUSH2 0x4B82 JUMP JUMPDEST PUSH2 0x152E JUMP JUMPDEST CALLVALUE DUP1 ISZERO PUSH2 0x67E JUMPI PUSH1 0x0 DUP1 REVERT JUMPDEST POP PUSH2 0x409 PUSH2 0x68D CALLDATASIZE PUSH1 0x4 PUSH2 0x4B69 JUMP JUMPDEST PUSH2 0x15C4 JUMP JUMPDEST CALLVALUE DUP1 ISZERO PUSH2 0x69E JUMPI PUSH1 0x0 DUP1 REVERT JUMPDEST POP PUSH2 0x409 PUSH2 0x6AD CALLDATASIZE PUSH1 0x4 PUSH2 0x4C51 JUMP JUMPDEST PUSH2 0x1632 JUMP JUMPDEST CALLVALUE DUP1 ISZERO PUSH2 0x6BE JUMPI PUSH1 0x0 DUP1 REVERT JUMPDEST POP PUSH2 0x409 PUSH2 0x6CD CALLDATASIZE PUSH1 0x4 PUSH2 0x4B69 JUMP JUMPDEST PUSH2 0x164D JUMP JUMPDEST PUSH2 0x409 PUSH2 0x6E0 CALLDATASIZE PUSH1 0x4 PUSH2 0x4AAE JUMP JUMPDEST PUSH2 0x167E JUMP JUMPDEST CALLVALUE DUP1 ISZERO PUSH2 0x6F1 JUMPI PUSH1 0x0 DUP1 REVERT JUMPDEST POP PUSH2 0x421 PUSH2 0x700 CALLDATASIZE PUSH1 0x4 PUSH2 0x4B69 JUMP JUMPDEST PUSH2 0x1870 JUMP JUMPDEST PUSH2 0x409 PUSH2 0x713 CALLDATASIZE PUSH1 0x4 PUSH2 0x4D8E JUMP JUMPDEST PUSH2 0x1903 JUMP JUMPDEST CALLVALUE DUP1 ISZERO PUSH2 0x724 JUMPI PUSH1 0x0 DUP1 REVERT JUMPDEST POP PUSH2 0x421 PUSH2 0x733 CALLDATASIZE PUSH1 0x4 PUSH2 0x4AAE JUMP JUMPDEST PUSH1 0x1 PUSH1 0x1 PUSH1 0xA0 SHL SUB AND PUSH1 0x0 SWAP1 DUP2 MSTORE PUSH1 0x12 PUSH1 0x20 MSTORE PUSH1 0x40 SWAP1 KECCAK256 PUSH1 0x4 ADD SLOAD SWAP1 JUMP JUMPDEST CALLVALUE DUP1 ISZERO PUSH2 0x75D JUMPI PUSH1 0x0 DUP1 REVERT JUMPDEST POP PUSH1 0xA SLOAD PUSH1 0xFF AND PUSH2 0x454 JUMP JUMPDEST CALLVALUE DUP1 ISZERO PUSH2 0x775 JUMPI PUSH1 0x0 DUP1 REVERT JUMPDEST POP PUSH2 0x4DF PUSH2 0x784 CALLDATASIZE PUSH1 0x4 PUSH2 0x4B69 JUMP JUMPDEST PUSH2 0x1AD0 JUMP JUMPDEST PUSH2 0x409 PUSH2 0x797 CALLDATASIZE PUSH1 0x4 PUSH2 0x4D8E JUMP JUMPDEST PUSH2 0x1B30 JUMP JUMPDEST CALLVALUE DUP1 ISZERO PUSH2 0x7A8 JUMPI PUSH1 0x0 DUP1 REVERT JUMPDEST POP PUSH2 0x421 PUSH2 0x7B7 CALLDATASIZE PUSH1 0x4 PUSH2 0x4AAE JUMP JUMPDEST PUSH2 0x1CE8 JUMP JUMPDEST CALLVALUE DUP1 ISZERO PUSH2 0x7C8 JUMPI PUSH1 0x0 DUP1 REVERT JUMPDEST POP PUSH2 0x409 PUSH2 0x1D6E JUMP JUMPDEST PUSH2 0x409 PUSH2 0x7DF CALLDATASIZE PUSH1 0x4 PUSH2 0x4DFA JUMP JUMPDEST PUSH2 0x1D82 JUMP JUMPDEST PUSH2 0x409 PUSH2 0x7F2 CALLDATASIZE PUSH1 0x4 PUSH2 0x4B69 JUMP JUMPDEST PUSH2 0x1F44 JUMP JUMPDEST CALLVALUE DUP1 ISZERO PUSH2 0x803 JUMPI PUSH1 0x0 DUP1 REVERT JUMPDEST POP PUSH2 0x409 PUSH2 0x812 CALLDATASIZE PUSH1 0x4 PUSH2 0x4E5D JUMP JUMPDEST PUSH2 0x22C1 JUMP JUMPDEST CALLVALUE DUP1 ISZERO PUSH2 0x823 JUMPI PUSH1 0x0 DUP1 REVERT JUMPDEST POP PUSH2 0x579 PUSH2 0x832 CALLDATASIZE PUSH1 0x4 PUSH2 0x4AAE JUMP JUMPDEST PUSH2 0x22FD JUMP JUMPDEST CALLVALUE DUP1 ISZERO PUSH2 0x843 JUMPI PUSH1 0x0 DUP1 REVERT JUMPDEST POP PUSH2 0x421 PUSH1 0xD SLOAD DUP2 JUMP JUMPDEST CALLVALUE DUP1 ISZERO PUSH2 0x859 JUMPI PUSH1 0x0 DUP1 REVERT JUMPDEST POP PUSH2 0x421 PUSH1 0x11 SLOAD DUP2 JUMP JUMPDEST CALLVALUE DUP1 ISZERO PUSH2 0x86F JUMPI PUSH1 0x0 DUP1 REVERT JUMPDEST POP PUSH1 0xA SLOAD PUSH2 0x100 SWAP1 DIV PUSH1 0x1 PUSH1 0x1 PUSH1 0xA0 SHL SUB AND PUSH2 0x4DF JUMP JUMPDEST CALLVALUE DUP1 ISZERO PUSH2 0x892 JUMPI PUSH1 0x0 DUP1 REVERT JUMPDEST POP PUSH2 0x8A6 PUSH2 0x8A1 CALLDATASIZE PUSH1 0x4 PUSH2 0x4E91 JUMP JUMPDEST PUSH2 0x230A JUMP JUMPDEST PUSH1 0x40 MLOAD PUSH2 0x42B SWAP2 SWAP1 PUSH2 0x4ED0 JUMP JUMPDEST CALLVALUE DUP1 ISZERO PUSH2 0x8BF JUMPI PUSH1 0x0 DUP1 REVERT JUMPDEST POP PUSH2 0x409 PUSH2 0x8CE CALLDATASIZE PUSH1 0x4 PUSH2 0x4B69 JUMP JUMPDEST PUSH2 0x2443 JUMP JUMPDEST CALLVALUE DUP1 ISZERO PUSH2 0x8DF JUMPI PUSH1 0x0 DUP1 REVERT JUMPDEST POP PUSH2 0x421 PUSH1 0xE SLOAD DUP2 JUMP JUMPDEST CALLVALUE DUP1 ISZERO PUSH2 0x8F5 JUMPI PUSH1 0x0 DUP1 REVERT JUMPDEST POP PUSH2 0x4B2 PUSH2 0x2450 JUMP JUMPDEST PUSH2 0x409 PUSH2 0x90C CALLDATASIZE PUSH1 0x4 PUSH2 0x4F11 JUMP JUMPDEST PUSH2 0x245F JUMP JUMPDEST CALLVALUE DUP1 ISZERO PUSH2 0x91D JUMPI PUSH1 0x0 DUP1 REVERT JUMPDEST POP PUSH2 0x409 PUSH2 0x92C CALLDATASIZE PUSH1 0x4 PUSH2 0x4AAE JUMP JUMPDEST PUSH2 0x255D JUMP JUMPDEST CALLVALUE DUP1 ISZERO PUSH2 0x93D JUMPI PUSH1 0x0 DUP1 REVERT JUMPDEST POP PUSH2 0x409 PUSH2 0x94C CALLDATASIZE PUSH1 0x4 PUSH2 0x4F36 JUMP JUMPDEST PUSH2 0x2587 JUMP JUMPDEST PUSH2 0x409 PUSH2 0x95F CALLDATASIZE PUSH1 0x4 PUSH2 0x4F69 JUMP JUMPDEST PUSH2 0x2592 JUMP JUMPDEST CALLVALUE DUP1 ISZERO PUSH2 0x970 JUMPI PUSH1 0x0 DUP1 REVERT JUMPDEST POP PUSH2 0x579 PUSH2 0x97F CALLDATASIZE PUSH1 0x4 PUSH2 0x4E91 JUMP JUMPDEST PUSH2 0x26CC JUMP JUMPDEST CALLVALUE DUP1 ISZERO PUSH2 0x990 JUMPI PUSH1 0x0 DUP1 REVERT JUMPDEST POP PUSH2 0x454 PUSH2 0x99F CALLDATASIZE PUSH1 0x4 PUSH2 0x4B69 JUMP JUMPDEST PUSH2 0x27F0 JUMP JUMPDEST CALLVALUE DUP1 ISZERO PUSH2 0x9B0 JUMPI PUSH1 0x0 DUP1 REVERT JUMPDEST POP PUSH2 0x9C4 PUSH2 0x9BF CALLDATASIZE PUSH1 0x4 PUSH2 0x4AAE JUMP JUMPDEST PUSH2 0x2886 JUMP JUMPDEST PUSH1 0x40 MLOAD PUSH2 0x42B SWAP2 SWAP1 PUSH2 0x4FFA JUMP JUMPDEST CALLVALUE DUP1 ISZERO PUSH2 0x9DD JUMPI PUSH1 0x0 DUP1 REVERT JUMPDEST POP PUSH2 0x579 PUSH2 0x9EC CALLDATASIZE PUSH1 0x4 PUSH2 0x4E91 JUMP JUMPDEST PUSH2 0x296E JUMP JUMPDEST CALLVALUE DUP1 ISZERO PUSH2 0x9FD JUMPI PUSH1 0x0 DUP1 REVERT JUMPDEST POP PUSH2 0x409 PUSH2 0xA0C CALLDATASIZE PUSH1 0x4 PUSH2 0x501F JUMP JUMPDEST PUSH2 0x2AE6 JUMP JUMPDEST CALLVALUE DUP1 ISZERO PUSH2 0xA1D JUMPI PUSH1 0x0 DUP1 REVERT JUMPDEST POP PUSH2 0x579 PUSH2 0xA2C CALLDATASIZE PUSH1 0x4 PUSH2 0x4E91 JUMP JUMPDEST PUSH2 0x2B1E JUMP JUMPDEST CALLVALUE DUP1 ISZERO PUSH2 0xA3D JUMPI PUSH1 0x0 DUP1 REVERT JUMPDEST POP PUSH2 0x579 PUSH2 0xA4C CALLDATASIZE PUSH1 0x4 PUSH2 0x4E91 JUMP JUMPDEST PUSH2 0x2C43 JUMP JUMPDEST CALLVALUE DUP1 ISZERO PUSH2 0xA5D JUMPI PUSH1 0x0 DUP1 REVERT JUMPDEST POP PUSH2 0x4B2 PUSH2 0xA6C CALLDATASIZE PUSH1 0x4 PUSH2 0x4B69 JUMP JUMPDEST PUSH2 0x2DAE JUMP JUMPDEST CALLVALUE DUP1 ISZERO PUSH2 0xA7D JUMPI PUSH1 0x0 DUP1 REVERT JUMPDEST POP PUSH2 0x421 PUSH2 0xA8C CALLDATASIZE PUSH1 0x4 PUSH2 0x4AAE JUMP JUMPDEST PUSH1 0x1 PUSH1 0x1 PUSH1 0xA0 SHL SUB AND PUSH1 0x0 SWAP1 DUP2 MSTORE PUSH1 0x12 PUSH1 0x20 MSTORE PUSH1 0x40 SWAP1 KECCAK256 PUSH1 0x8 ADD SLOAD SWAP1 JUMP JUMPDEST CALLVALUE DUP1 ISZERO PUSH2 0xAB6 JUMPI PUSH1 0x0 DUP1 REVERT JUMPDEST POP PUSH2 0x421 PUSH1 0x10 SLOAD DUP2 JUMP JUMPDEST CALLVALUE DUP1 ISZERO PUSH2 0xACC JUMPI PUSH1 0x0 DUP1 REVERT JUMPDEST POP PUSH2 0x8A6 PUSH2 0xADB CALLDATASIZE PUSH1 0x4 PUSH2 0x4E91 JUMP JUMPDEST PUSH2 0x2E22 JUMP JUMPDEST CALLVALUE DUP1 ISZERO PUSH2 0xAEC JUMPI PUSH1 0x0 DUP1 REVERT JUMPDEST POP PUSH2 0x421 PUSH2 0xAFB CALLDATASIZE PUSH1 0x4 PUSH2 0x4AAE JUMP JUMPDEST PUSH1 0x1 PUSH1 0x1 PUSH1 0xA0 SHL SUB AND PUSH1 0x0 SWAP1 DUP2 MSTORE PUSH1 0x12 PUSH1 0x20 MSTORE PUSH1 0x40 SWAP1 KECCAK256 PUSH1 0xC ADD SLOAD SWAP1 JUMP JUMPDEST CALLVALUE DUP1 ISZERO PUSH2 0xB25 JUMPI PUSH1 0x0 DUP1 REVERT JUMPDEST POP PUSH2 0x579 PUSH2 0xB34 CALLDATASIZE PUSH1 0x4 PUSH2 0x4AAE JUMP JUMPDEST PUSH2 0x2F39 JUMP JUMPDEST CALLVALUE DUP1 ISZERO PUSH2 0xB45 JUMPI PUSH1 0x0 DUP1 REVERT JUMPDEST POP PUSH2 0x454 PUSH2 0xB54 CALLDATASIZE PUSH1 0x4 PUSH2 0x4AAE JUMP JUMPDEST PUSH2 0x2F46 JUMP JUMPDEST CALLVALUE DUP1 ISZERO PUSH2 0xB65 JUMPI PUSH1 0x0 DUP1 REVERT JUMPDEST POP PUSH2 0x409 PUSH2 0xB74 CALLDATASIZE PUSH1 0x4 PUSH2 0x4E5D JUMP JUMPDEST PUSH2 0x2FF6 JUMP JUMPDEST PUSH2 0x409 PUSH2 0xB87 CALLDATASIZE PUSH1 0x4 PUSH2 0x4B69 JUMP JUMPDEST PUSH2 0x3032 JUMP JUMPDEST CALLVALUE DUP1 ISZERO PUSH2 0xB98 JUMPI PUSH1 0x0 DUP1 REVERT JUMPDEST POP PUSH2 0x454 PUSH2 0xBA7 CALLDATASIZE PUSH1 0x4 PUSH2 0x507E JUMP JUMPDEST PUSH1 0x1 PUSH1 0x1 PUSH1 0xA0 SHL SUB SWAP2 DUP3 AND PUSH1 0x0 SWAP1 DUP2 MSTORE PUSH1 0x5 PUSH1 0x20 SWAP1 DUP2 MSTORE PUSH1 0x40 DUP1 DUP4 KECCAK256 SWAP4 SWAP1 SWAP5 AND DUP3 MSTORE SWAP2 SWAP1 SWAP2 MSTORE KECCAK256 SLOAD PUSH1 0xFF AND SWAP1 JUMP JUMPDEST CALLVALUE DUP1 ISZERO PUSH2 0xBE1 JUMPI PUSH1 0x0 DUP1 REVERT JUMPDEST POP PUSH2 0x409 PUSH2 0xBF0 CALLDATASIZE PUSH1 0x4 PUSH2 0x4E5D JUMP JUMPDEST PUSH2 0x32D1 JUMP JUMPDEST CALLVALUE DUP1 ISZERO PUSH2 0xC01 JUMPI PUSH1 0x0 DUP1 REVERT JUMPDEST POP PUSH2 0x409 PUSH2 0xC10 CALLDATASIZE PUSH1 0x4 PUSH2 0x4AAE JUMP JUMPDEST PUSH2 0x330D JUMP JUMPDEST CALLVALUE DUP1 ISZERO PUSH2 0xC21 JUMPI PUSH1 0x0 DUP1 REVERT JUMPDEST POP PUSH2 0x579 PUSH2 0xC30 CALLDATASIZE PUSH1 0x4 PUSH2 0x4AAE JUMP JUMPDEST PUSH2 0x3383 JUMP JUMPDEST CALLVALUE DUP1 ISZERO PUSH2 0xC41 JUMPI PUSH1 0x0 DUP1 REVERT JUMPDEST POP PUSH2 0x409 PUSH2 0xC50 CALLDATASIZE PUSH1 0x4 PUSH2 0x4AAE JUMP JUMPDEST PUSH2 0x3390 JUMP JUMPDEST PUSH1 0x10 SLOAD PUSH1 0x0 PUSH1 0x6 PUSH2 0xC66 GASPRICE DUP5 PUSH2 0x50AC JUMP JUMPDEST PUSH2 0xC70 SWAP2 SWAP1 PUSH2 0x50E1 JUMP JUMPDEST SWAP1 POP PUSH1 0x64 PUSH2 0xC7F DUP3 PUSH1 0x5C PUSH2 0x50AC JUMP JUMPDEST PUSH2 0xC89 SWAP2 SWAP1 PUSH2 0x50E1 JUMP JUMPDEST CALLVALUE LT ISZERO PUSH2 0xCB1 JUMPI PUSH1 0x40 MLOAD PUSH3 0x461BCD PUSH1 0xE5 SHL DUP2 MSTORE PUSH1 0x4 ADD PUSH2 0xCA8 SWAP1 PUSH2 0x50F5 JUMP JUMPDEST PUSH1 0x40 MLOAD DUP1 SWAP2 SUB SWAP1 REVERT JUMPDEST CALLVALUE PUSH1 0xD PUSH1 0x0 DUP3 DUP3 SLOAD PUSH2 0xCC3 SWAP2 SWAP1 PUSH2 0x4A81 JUMP JUMPDEST SWAP1 SWAP2 SSTORE POP PUSH1 0x0 SWAP1 POP PUSH2 0xCD3 PUSH2 0x33BA JUMP JUMPDEST SWAP1 POP DUP4 PUSH2 0xCE0 DUP3 DUP3 PUSH2 0x3417 JUMP JUMPDEST PUSH2 0xCEA DUP3 DUP3 PUSH2 0x36DE JUMP JUMPDEST POP POP POP POP POP JUMP JUMPDEST PUSH1 0x0 PUSH1 0x1 PUSH1 0x1 PUSH1 0xE0 SHL SUB NOT DUP3 AND PUSH4 0x80AC58CD PUSH1 0xE0 SHL EQ DUP1 PUSH2 0xD22 JUMPI POP PUSH1 0x1 PUSH1 0x1 PUSH1 0xE0 SHL SUB NOT DUP3 AND PUSH4 0x5B5E139F PUSH1 0xE0 SHL EQ JUMPDEST DUP1 PUSH2 0xD31 JUMPI POP PUSH2 0xD31 DUP3 PUSH2 0x38A2 JUMP JUMPDEST SWAP3 SWAP2 POP POP JUMP JUMPDEST PUSH1 0x60 PUSH1 0x0 DUP1 SLOAD PUSH2 0xD46 SWAP1 PUSH2 0x5122 JUMP JUMPDEST DUP1 PUSH1 0x1F ADD PUSH1 0x20 DUP1 SWAP2 DIV MUL PUSH1 0x20 ADD PUSH1 0x40 MLOAD SWAP1 DUP2 ADD PUSH1 0x40 MSTORE DUP1 SWAP3 SWAP2 SWAP1 DUP2 DUP2 MSTORE PUSH1 0x20 ADD DUP3 DUP1 SLOAD PUSH2 0xD72 SWAP1 PUSH2 0x5122 JUMP JUMPDEST DUP1 ISZERO PUSH2 0xDBF JUMPI DUP1 PUSH1 0x1F LT PUSH2 0xD94 JUMPI PUSH2 0x100 DUP1 DUP4 SLOAD DIV MUL DUP4 MSTORE SWAP2 PUSH1 0x20 ADD SWAP2 PUSH2 0xDBF JUMP JUMPDEST DUP3 ADD SWAP2 SWAP1 PUSH1 0x0 MSTORE PUSH1 0x20 PUSH1 0x0 KECCAK256 SWAP1 JUMPDEST DUP2 SLOAD DUP2 MSTORE SWAP1 PUSH1 0x1 ADD SWAP1 PUSH1 0x20 ADD DUP1 DUP4 GT PUSH2 0xDA2 JUMPI DUP3 SWAP1 SUB PUSH1 0x1F AND DUP3 ADD SWAP2 JUMPDEST POP POP POP POP POP SWAP1 POP SWAP1 JUMP JUMPDEST PUSH1 0x0 PUSH2 0xDD4 DUP3 PUSH2 0x38C7 JUMP JUMPDEST POP PUSH1 0x0 SWAP1 DUP2 MSTORE PUSH1 0x4 PUSH1 0x20 MSTORE PUSH1 0x40 SWAP1 KECCAK256 SLOAD PUSH1 0x1 PUSH1 0x1 PUSH1 0xA0 SHL SUB AND SWAP1 JUMP JUMPDEST PUSH1 0x0 PUSH2 0xDFB DUP3 PUSH2 0x1AD0 JUMP JUMPDEST SWAP1 POP DUP1 PUSH1 0x1 PUSH1 0x1 PUSH1 0xA0 SHL SUB AND DUP4 PUSH1 0x1 PUSH1 0x1 PUSH1 0xA0 SHL SUB AND SUB PUSH2 0xE68 JUMPI PUSH1 0x40 MLOAD PUSH3 0x461BCD PUSH1 0xE5 SHL DUP2 MSTORE PUSH1 0x20 PUSH1 0x4 DUP3 ADD MSTORE PUSH1 0x21 PUSH1 0x24 DUP3 ADD MSTORE PUSH32 0x4552433732313A20617070726F76616C20746F2063757272656E74206F776E65 PUSH1 0x44 DUP3 ADD MSTORE PUSH1 0x39 PUSH1 0xF9 SHL PUSH1 0x64 DUP3 ADD MSTORE PUSH1 0x84 ADD PUSH2 0xCA8 JUMP JUMPDEST CALLER PUSH1 0x1 PUSH1 0x1 PUSH1 0xA0 SHL SUB DUP3 AND EQ DUP1 PUSH2 0xE84 JUMPI POP PUSH2 0xE84 DUP2 CALLER PUSH2 0xBA7 JUMP JUMPDEST PUSH2 0xEF6 JUMPI PUSH1 0x40 MLOAD PUSH3 0x461BCD PUSH1 0xE5 SHL DUP2 MSTORE PUSH1 0x20 PUSH1 0x4 DUP3 ADD MSTORE PUSH1 0x3E PUSH1 0x24 DUP3 ADD MSTORE PUSH32 0x4552433732313A20617070726F76652063616C6C6572206973206E6F7420746F PUSH1 0x44 DUP3 ADD MSTORE PUSH32 0x6B656E206F776E6572206E6F7220617070726F76656420666F7220616C6C0000 PUSH1 0x64 DUP3 ADD MSTORE PUSH1 0x84 ADD PUSH2 0xCA8 JUMP JUMPDEST PUSH2 0xF00 DUP4 DUP4 PUSH2 0x3917 JUMP JUMPDEST POP POP POP JUMP JUMPDEST PUSH2 0xF33 PUSH1 0x40 MLOAD DUP1 PUSH1 0x80 ADD PUSH1 0x40 MSTORE DUP1 PUSH1 0x0 DUP1 NOT AND DUP2 MSTORE PUSH1 0x20 ADD PUSH1 0x60 DUP2 MSTORE PUSH1 0x20 ADD PUSH1 0x60 DUP2 MSTORE PUSH1 0x20 ADD PUSH1 0x60 DUP2 MSTORE POP SWAP1 JUMP JUMPDEST PUSH1 0x40 DUP1 MLOAD PUSH1 0x80 DUP2 ADD DUP3 MSTORE PUSH1 0x0 DUP2 MSTORE PUSH1 0x60 PUSH1 0x20 DUP3 ADD DUP2 SWAP1 MSTORE SWAP2 DUP2 ADD DUP3 SWAP1 MSTORE DUP2 DUP2 ADD SWAP2 SWAP1 SWAP2 MSTORE DUP3 SWAP1 PUSH1 0x1 PUSH1 0x1 PUSH1 0xA0 SHL SUB DUP3 AND PUSH1 0x0 DUP2 DUP2 MSTORE PUSH1 0x12 PUSH1 0x20 DUP2 DUP2 MSTORE PUSH1 0x40 DUP4 KECCAK256 DUP1 SLOAD DUP7 MSTORE SWAP4 SWAP1 SWAP3 MSTORE SWAP1 MSTORE PUSH1 0x1 ADD DUP1 SLOAD PUSH2 0xF8B SWAP1 PUSH2 0x5122 JUMP JUMPDEST DUP1 PUSH1 0x1F ADD PUSH1 0x20 DUP1 SWAP2 DIV MUL PUSH1 0x20 ADD PUSH1 0x40 MLOAD SWAP1 DUP2 ADD PUSH1 0x40 MSTORE DUP1 SWAP3 SWAP2 SWAP1 DUP2 DUP2 MSTORE PUSH1 0x20 ADD DUP3 DUP1 SLOAD PUSH2 0xFB7 SWAP1 PUSH2 0x5122 JUMP JUMPDEST DUP1 ISZERO PUSH2 0x1004 JUMPI DUP1 PUSH1 0x1F LT PUSH2 0xFD9 JUMPI PUSH2 0x100 DUP1 DUP4 SLOAD DIV MUL DUP4 MSTORE SWAP2 PUSH1 0x20 ADD SWAP2 PUSH2 0x1004 JUMP JUMPDEST DUP3 ADD SWAP2 SWAP1 PUSH1 0x0 MSTORE PUSH1 0x20 PUSH1 0x0 KECCAK256 SWAP1 JUMPDEST DUP2 SLOAD DUP2 MSTORE SWAP1 PUSH1 0x1 ADD SWAP1 PUSH1 0x20 ADD DUP1 DUP4 GT PUSH2 0xFE7 JUMPI DUP3 SWAP1 SUB PUSH1 0x1F AND DUP3 ADD SWAP2 JUMPDEST POP POP POP POP PUSH1 0x20 DUP1 DUP5 ADD SWAP3 SWAP1 SWAP3 MSTORE POP PUSH1 0x1 PUSH1 0x1 PUSH1 0xA0 SHL SUB DUP4 AND PUSH1 0x0 SWAP1 DUP2 MSTORE PUSH1 0x12 SWAP1 SWAP2 MSTORE PUSH1 0x40 SWAP1 KECCAK256 PUSH1 0x2 ADD DUP1 SLOAD PUSH2 0x1038 SWAP1 PUSH2 0x5122 JUMP JUMPDEST DUP1 PUSH1 0x1F ADD PUSH1 0x20 DUP1 SWAP2 DIV MUL PUSH1 0x20 ADD PUSH1 0x40 MLOAD SWAP1 DUP2 ADD PUSH1 0x40 MSTORE DUP1 SWAP3 SWAP2 SWAP1 DUP2 DUP2 MSTORE PUSH1 0x20 ADD DUP3 DUP1 SLOAD PUSH2 0x1064 SWAP1 PUSH2 0x5122 JUMP JUMPDEST DUP1 ISZERO PUSH2 0x10B1 JUMPI DUP1 PUSH1 0x1F LT PUSH2 0x1086 JUMPI PUSH2 0x100 DUP1 DUP4 SLOAD DIV MUL DUP4 MSTORE SWAP2 PUSH1 0x20 ADD SWAP2 PUSH2 0x10B1 JUMP JUMPDEST DUP3 ADD SWAP2 SWAP1 PUSH1 0x0 MSTORE PUSH1 0x20 PUSH1 0x0 KECCAK256 SWAP1 JUMPDEST DUP2 SLOAD DUP2 MSTORE SWAP1 PUSH1 0x1 ADD SWAP1 PUSH1 0x20 ADD DUP1 DUP4 GT PUSH2 0x1094 JUMPI DUP3 SWAP1 SUB PUSH1 0x1F AND DUP3 ADD SWAP2 JUMPDEST POP POP POP POP PUSH1 0x40 DUP1 DUP5 ADD SWAP3 SWAP1 SWAP3 MSTORE POP PUSH1 0x1 PUSH1 0x1 PUSH1 0xA0 SHL SUB DUP4 AND PUSH1 0x0 SWAP1 DUP2 MSTORE PUSH1 0x12 PUSH1 0x20 MSTORE KECCAK256 PUSH1 0x3 ADD DUP1 SLOAD PUSH2 0x10E2 SWAP1 PUSH2 0x5122 JUMP JUMPDEST DUP1 PUSH1 0x1F ADD PUSH1 0x20 DUP1 SWAP2 DIV MUL PUSH1 0x20 ADD PUSH1 0x40 MLOAD SWAP1 DUP2 ADD PUSH1 0x40 MSTORE DUP1 SWAP3 SWAP2 SWAP1 DUP2 DUP2 MSTORE PUSH1 0x20 ADD DUP3 DUP1 SLOAD PUSH2 0x110E SWAP1 PUSH2 0x5122 JUMP JUMPDEST DUP1 ISZERO PUSH2 0x115B JUMPI DUP1 PUSH1 0x1F LT PUSH2 0x1130 JUMPI PUSH2 0x100 DUP1 DUP4 SLOAD DIV MUL DUP4 MSTORE SWAP2 PUSH1 0x20 ADD SWAP2 PUSH2 0x115B JUMP JUMPDEST DUP3 ADD SWAP2 SWAP1 PUSH1 0x0 MSTORE PUSH1 0x20 PUSH1 0x0 KECCAK256 SWAP1 JUMPDEST DUP2 SLOAD DUP2 MSTORE SWAP1 PUSH1 0x1 ADD SWAP1 PUSH1 0x20 ADD DUP1 DUP4 GT PUSH2 0x113E JUMPI DUP3 SWAP1 SUB PUSH1 0x1F AND DUP3 ADD SWAP2 JUMPDEST POP POP POP POP POP PUSH1 0x60 DUP3 ADD MSTORE SWAP4 SWAP3 POP POP POP JUMP JUMPDEST PUSH1 0x1 PUSH1 0x1 PUSH1 0xA0 SHL SUB DUP3 AND PUSH1 0x0 SWAP1 DUP2 MSTORE PUSH1 0x12 PUSH1 0x20 MSTORE PUSH1 0x40 DUP2 KECCAK256 PUSH1 0xA ADD SLOAD PUSH1 0xE SLOAD PUSH1 0x60 SWAP3 DUP6 SWAP3 SWAP2 PUSH1 0x1 PUSH1 0x1 PUSH1 0x40 SHL SUB DUP2 GT ISZERO PUSH2 0x11A8 JUMPI PUSH2 0x11A8 PUSH2 0x4C92 JUMP JUMPDEST PUSH1 0x40 MLOAD SWAP1 DUP1 DUP3 MSTORE DUP1 PUSH1 0x20 MUL PUSH1 0x20 ADD DUP3 ADD PUSH1 0x40 MSTORE DUP1 ISZERO PUSH2 0x11D1 JUMPI DUP2 PUSH1 0x20 ADD PUSH1 0x20 DUP3 MUL DUP1 CALLDATASIZE DUP4 CALLDATACOPY ADD SWAP1 POP JUMPDEST POP SWAP1 POP PUSH1 0x0 DUP6 PUSH1 0xE SLOAD PUSH2 0x11E4 SWAP2 SWAP1 PUSH2 0x50AC JUMP JUMPDEST SWAP1 POP DUP1 JUMPDEST DUP2 DUP5 GT DUP1 ISZERO PUSH2 0x1202 JUMPI POP PUSH1 0xE SLOAD PUSH2 0x11FF SWAP1 DUP3 PUSH2 0x4A81 JUMP JUMPDEST DUP3 LT JUMPDEST ISZERO PUSH2 0x128D JUMPI PUSH1 0x1 PUSH1 0x1 PUSH1 0xA0 SHL SUB DUP6 AND PUSH1 0x0 SWAP1 DUP2 MSTORE PUSH1 0x12 PUSH1 0x20 MSTORE PUSH1 0x40 SWAP1 KECCAK256 PUSH1 0xA ADD PUSH1 0x1 PUSH2 0x122E DUP5 DUP8 PUSH2 0x515C JUMP JUMPDEST PUSH2 0x1238 SWAP2 SWAP1 PUSH2 0x515C JUMP JUMPDEST DUP2 SLOAD DUP2 LT PUSH2 0x1248 JUMPI PUSH2 0x1248 PUSH2 0x5173 JUMP JUMPDEST SWAP1 PUSH1 0x0 MSTORE PUSH1 0x20 PUSH1 0x0 KECCAK256 ADD SLOAD DUP4 DUP3 DUP5 PUSH2 0x1260 SWAP2 SWAP1 PUSH2 0x515C JUMP JUMPDEST DUP2 MLOAD DUP2 LT PUSH2 0x1270 JUMPI PUSH2 0x1270 PUSH2 0x5173 JUMP JUMPDEST PUSH1 0x20 SWAP1 DUP2 MUL SWAP2 SWAP1 SWAP2 ADD ADD MSTORE PUSH2 0x1286 PUSH1 0x1 DUP4 PUSH2 0x4A81 JUMP JUMPDEST SWAP2 POP PUSH2 0x11E8 JUMP JUMPDEST POP SWAP1 SWAP7 SWAP6 POP POP POP POP POP POP JUMP JUMPDEST PUSH1 0x60 PUSH2 0xD31 DUP3 PUSH1 0x64 PUSH2 0x2C43 JUMP JUMPDEST PUSH2 0x12B1 CALLER JUMPDEST DUP3 PUSH2 0x3985 JUMP JUMPDEST PUSH2 0x12CD JUMPI PUSH1 0x40 MLOAD PUSH3 0x461BCD PUSH1 0xE5 SHL DUP2 MSTORE PUSH1 0x4 ADD PUSH2 0xCA8 SWAP1 PUSH2 0x5189 JUMP JUMPDEST PUSH2 0xF00 DUP4 DUP4 DUP4 PUSH2 0x3A04 JUMP JUMPDEST PUSH1 0x0 PUSH2 0x12E2 PUSH2 0x33BA JUMP JUMPDEST PUSH1 0xC SLOAD PUSH1 0x40 MLOAD PUSH4 0xB1CCF21 PUSH1 0xE3 SHL DUP2 MSTORE SWAP2 SWAP3 POP CALLVALUE SWAP2 PUSH1 0x0 SWAP2 PUSH1 0x1 PUSH1 0x1 PUSH1 0xA0 SHL SUB AND SWAP1 PUSH4 0x58E67908 SWAP1 DUP5 SWAP1 PUSH2 0x1320 SWAP1 DUP11 SWAP1 DUP11 SWAP1 CALLER SWAP1 DUP12 SWAP1 PUSH1 0x4 ADD PUSH2 0x51D7 JUMP JUMPDEST PUSH1 0x20 PUSH1 0x40 MLOAD DUP1 DUP4 SUB DUP2 DUP6 DUP9 GAS CALL ISZERO DUP1 ISZERO PUSH2 0x133E JUMPI RETURNDATASIZE PUSH1 0x0 DUP1 RETURNDATACOPY RETURNDATASIZE PUSH1 0x0 REVERT JUMPDEST POP POP POP POP POP PUSH1 0x40 MLOAD RETURNDATASIZE PUSH1 0x1F NOT PUSH1 0x1F DUP3 ADD AND DUP3 ADD DUP1 PUSH1 0x40 MSTORE POP DUP2 ADD SWAP1 PUSH2 0x1363 SWAP2 SWAP1 PUSH2 0x5210 JUMP JUMPDEST SWAP1 POP DUP1 PUSH1 0x1 PUSH1 0x1 PUSH1 0xA0 SHL SUB DUP6 AND CALLER PUSH1 0x1 PUSH1 0x1 PUSH1 0xA0 SHL SUB AND PUSH32 0x93BC3C07D53A75DB0D23B4AA798BB6A258F994CC453E747D0484D7F2CF03DB65 DUP10 DUP10 DUP8 PUSH1 0x40 MLOAD PUSH2 0x13AD SWAP4 SWAP3 SWAP2 SWAP1 PUSH2 0x5229 JUMP JUMPDEST PUSH1 0x40 MLOAD DUP1 SWAP2 SUB SWAP1 LOG4 PUSH1 0x1 PUSH1 0x1 PUSH1 0xA0 SHL SUB SWAP1 SWAP3 AND PUSH1 0x0 SWAP1 DUP2 MSTORE PUSH1 0x12 PUSH1 0x20 DUP2 DUP2 MSTORE PUSH1 0x40 DUP1 DUP5 KECCAK256 PUSH1 0xE DUP2 ADD DUP1 SLOAD DUP9 DUP8 MSTORE PUSH1 0xF SWAP1 SWAP3 ADD DUP5 MSTORE SWAP2 DUP6 KECCAK256 DUP2 SWAP1 SSTORE SWAP3 DUP3 MSTORE PUSH1 0x1 DUP4 ADD DUP2 SSTORE DUP4 MSTORE SWAP1 SWAP2 KECCAK256 ADD SWAP2 SWAP1 SWAP2 SSTORE POP POP POP POP JUMP JUMPDEST PUSH2 0x1408 PUSH2 0x3BAB JUMP JUMPDEST PUSH1 0xE SSTORE JUMP JUMPDEST PUSH1 0x1 PUSH1 0x1 PUSH1 0xA0 SHL SUB DUP3 AND PUSH1 0x0 SWAP1 DUP2 MSTORE PUSH1 0x12 PUSH1 0x20 MSTORE PUSH1 0x40 DUP2 KECCAK256 PUSH1 0x8 ADD SLOAD PUSH1 0xE SLOAD PUSH1 0x60 SWAP3 DUP6 SWAP3 SWAP2 PUSH1 0x1 PUSH1 0x1 PUSH1 0x40 SHL SUB DUP2 GT ISZERO PUSH2 0x1449 JUMPI PUSH2 0x1449 PUSH2 0x4C92 JUMP JUMPDEST PUSH1 0x40 MLOAD SWAP1 DUP1 DUP3 MSTORE DUP1 PUSH1 0x20 MUL PUSH1 0x20 ADD DUP3 ADD PUSH1 0x40 MSTORE DUP1 ISZERO PUSH2 0x1472 JUMPI DUP2 PUSH1 0x20 ADD PUSH1 0x20 DUP3 MUL DUP1 CALLDATASIZE DUP4 CALLDATACOPY ADD SWAP1 POP JUMPDEST POP SWAP1 POP PUSH1 0x0 DUP6 PUSH1 0xE SLOAD PUSH2 0x1485 SWAP2 SWAP1 PUSH2 0x50AC JUMP JUMPDEST SWAP1 POP DUP1 JUMPDEST DUP2 DUP5 GT DUP1 ISZERO PUSH2 0x14A3 JUMPI POP PUSH1 0xE SLOAD PUSH2 0x14A0 SWAP1 DUP3 PUSH2 0x4A81 JUMP JUMPDEST DUP3 LT JUMPDEST ISZERO PUSH2 0x128D JUMPI PUSH1 0x1 PUSH1 0x1 PUSH1 0xA0 SHL SUB DUP6 AND PUSH1 0x0 SWAP1 DUP2 MSTORE PUSH1 0x12 PUSH1 0x20 MSTORE PUSH1 0x40 SWAP1 KECCAK256 PUSH1 0x8 ADD PUSH1 0x1 PUSH2 0x14CF DUP5 DUP8 PUSH2 0x515C JUMP JUMPDEST PUSH2 0x14D9 SWAP2 SWAP1 PUSH2 0x515C JUMP JUMPDEST DUP2 SLOAD DUP2 LT PUSH2 0x14E9 JUMPI PUSH2 0x14E9 PUSH2 0x5173 JUMP JUMPDEST SWAP1 PUSH1 0x0 MSTORE PUSH1 0x20 PUSH1 0x0 KECCAK256 ADD SLOAD DUP4 DUP3 DUP5 PUSH2 0x1501 SWAP2 SWAP1 PUSH2 0x515C JUMP JUMPDEST DUP2 MLOAD DUP2 LT PUSH2 0x1511 JUMPI PUSH2 0x1511 PUSH2 0x5173 JUMP JUMPDEST PUSH1 0x20 SWAP1 DUP2 MUL SWAP2 SWAP1 SWAP2 ADD ADD MSTORE PUSH2 0x1527 PUSH1 0x1 DUP4 PUSH2 0x4A81 JUMP JUMPDEST SWAP2 POP PUSH2 0x1489 JUMP JUMPDEST PUSH1 0x0 PUSH2 0x1539 DUP4 PUSH2 0x1CE8 JUMP JUMPDEST DUP3 LT PUSH2 0x159B JUMPI PUSH1 0x40 MLOAD PUSH3 0x461BCD PUSH1 0xE5 SHL DUP2 MSTORE PUSH1 0x20 PUSH1 0x4 DUP3 ADD MSTORE PUSH1 0x2B PUSH1 0x24 DUP3 ADD MSTORE PUSH32 0x455243373231456E756D657261626C653A206F776E657220696E646578206F75 PUSH1 0x44 DUP3 ADD MSTORE PUSH11 0x74206F6620626F756E6473 PUSH1 0xA8 SHL PUSH1 0x64 DUP3 ADD MSTORE PUSH1 0x84 ADD PUSH2 0xCA8 JUMP JUMPDEST POP PUSH1 0x1 PUSH1 0x1 PUSH1 0xA0 SHL SUB SWAP2 SWAP1 SWAP2 AND PUSH1 0x0 SWAP1 DUP2 MSTORE PUSH1 0x6 PUSH1 0x20 SWAP1 DUP2 MSTORE PUSH1 0x40 DUP1 DUP4 KECCAK256 SWAP4 DUP4 MSTORE SWAP3 SWAP1 MSTORE KECCAK256 SLOAD SWAP1 JUMP JUMPDEST PUSH1 0x0 PUSH2 0x15CE PUSH2 0x33BA JUMP JUMPDEST PUSH1 0x1 PUSH1 0x1 PUSH1 0xA0 SHL SUB DUP2 AND PUSH1 0x0 SWAP1 DUP2 MSTORE PUSH1 0x12 PUSH1 0x20 MSTORE PUSH1 0x40 SWAP1 KECCAK256 DUP4 SWAP1 SSTORE SWAP1 POP CALLER PUSH1 0x1 PUSH1 0x1 PUSH1 0xA0 SHL SUB AND PUSH32 0x2F3CF28556634369F653461C1F4759404BB6375E97DB966B28008CD7BD310C75 DUP4 PUSH1 0x40 MLOAD PUSH2 0x1626 SWAP2 DUP2 MSTORE PUSH1 0x20 ADD SWAP1 JUMP JUMPDEST PUSH1 0x40 MLOAD DUP1 SWAP2 SUB SWAP1 LOG2 POP POP JUMP JUMPDEST PUSH2 0xF00 DUP4 DUP4 DUP4 PUSH1 0x40 MLOAD DUP1 PUSH1 0x20 ADD PUSH1 0x40 MSTORE DUP1 PUSH1 0x0 DUP2 MSTORE POP PUSH2 0x2AE6 JUMP JUMPDEST PUSH2 0x1656 CALLER PUSH2 0x12AB JUMP JUMPDEST PUSH2 0x1672 JUMPI PUSH1 0x40 MLOAD PUSH3 0x461BCD PUSH1 0xE5 SHL DUP2 MSTORE PUSH1 0x4 ADD PUSH2 0xCA8 SWAP1 PUSH2 0x5189 JUMP JUMPDEST PUSH2 0x167B DUP2 PUSH2 0x3C0B JUMP JUMPDEST POP JUMP JUMPDEST PUSH1 0x10 SLOAD PUSH1 0x0 PUSH1 0x6 PUSH2 0x168F GASPRICE DUP5 PUSH2 0x50AC JUMP JUMPDEST PUSH2 0x1699 SWAP2 SWAP1 PUSH2 0x50E1 JUMP JUMPDEST SWAP1 POP PUSH1 0x64 PUSH2 0x16A8 DUP3 PUSH1 0x5C PUSH2 0x50AC JUMP JUMPDEST PUSH2 0x16B2 SWAP2 SWAP1 PUSH2 0x50E1 JUMP JUMPDEST CALLVALUE LT ISZERO PUSH2 0x16D1 JUMPI PUSH1 0x40 MLOAD PUSH3 0x461BCD PUSH1 0xE5 SHL DUP2 MSTORE PUSH1 0x4 ADD PUSH2 0xCA8 SWAP1 PUSH2 0x50F5 JUMP JUMPDEST CALLVALUE PUSH1 0xD PUSH1 0x0 DUP3 DUP3 SLOAD PUSH2 0x16E3 SWAP2 SWAP1 PUSH2 0x4A81 JUMP JUMPDEST SWAP1 SWAP2 SSTORE POP PUSH1 0x0 SWAP1 POP PUSH2 0x16F3 PUSH2 0x33BA JUMP JUMPDEST PUSH1 0x1 PUSH1 0x1 PUSH1 0xA0 SHL SUB DUP1 DUP3 AND PUSH1 0x0 SWAP1 DUP2 MSTORE PUSH1 0x12 PUSH1 0x20 SWAP1 DUP2 MSTORE PUSH1 0x40 DUP1 DUP4 KECCAK256 SWAP4 DUP10 AND DUP4 MSTORE PUSH1 0x7 SWAP1 SWAP4 ADD SWAP1 MSTORE SWAP1 DUP2 KECCAK256 SLOAD SWAP2 SWAP3 POP DUP6 SWAP2 SWAP1 DUP2 SWAP1 SUB PUSH2 0x1828 JUMPI PUSH1 0x1 PUSH1 0x1 PUSH1 0xA0 SHL SUB DUP4 AND PUSH1 0x0 SWAP1 DUP2 MSTORE PUSH1 0x12 PUSH1 0x20 MSTORE PUSH1 0x40 SWAP1 KECCAK256 PUSH1 0x6 ADD SLOAD ISZERO PUSH2 0x17E0 JUMPI PUSH1 0x1 PUSH1 0x1 PUSH1 0xA0 SHL SUB DUP4 DUP2 AND PUSH1 0x0 SWAP1 DUP2 MSTORE PUSH1 0x12 PUSH1 0x20 MSTORE PUSH1 0x40 DUP2 KECCAK256 PUSH1 0x6 ADD DUP1 SLOAD SWAP3 DUP6 AND SWAP3 SWAP1 SWAP2 SWAP1 PUSH2 0x177E JUMPI PUSH2 0x177E PUSH2 0x5173 JUMP JUMPDEST PUSH1 0x0 SWAP2 DUP3 MSTORE PUSH1 0x20 SWAP1 SWAP2 KECCAK256 ADD SLOAD PUSH1 0x1 PUSH1 0x1 PUSH1 0xA0 SHL SUB AND SUB PUSH2 0x17E0 JUMPI PUSH1 0x40 MLOAD PUSH3 0x461BCD PUSH1 0xE5 SHL DUP2 MSTORE PUSH1 0x20 PUSH1 0x4 DUP3 ADD MSTORE PUSH1 0x1E PUSH1 0x24 DUP3 ADD MSTORE PUSH32 0x596F7520616C726561647920666F6C6C6F77207468697320706572736F6E0000 PUSH1 0x44 DUP3 ADD MSTORE PUSH1 0x64 ADD PUSH2 0xCA8 JUMP JUMPDEST PUSH2 0x17EA DUP4 DUP4 PUSH2 0x3CB2 JUMP JUMPDEST PUSH1 0x40 MLOAD PUSH1 0x1 PUSH1 0x1 PUSH1 0xA0 SHL SUB DUP8 AND SWAP1 CALLER SWAP1 PUSH32 0xF792C15B26C5388CAA4745351A64B33589BD584777D9D18FFD61C19579D56FA SWAP1 PUSH1 0x0 SWAP1 LOG3 POP POP POP POP POP POP JUMP JUMPDEST PUSH1 0x40 MLOAD PUSH3 0x461BCD PUSH1 0xE5 SHL DUP2 MSTORE PUSH1 0x20 PUSH1 0x4 DUP3 ADD MSTORE PUSH1 0x1E PUSH1 0x24 DUP3 ADD MSTORE PUSH32 0x596F7520616C726561647920666F6C6C6F77207468697320706572736F6E0000 PUSH1 0x44 DUP3 ADD MSTORE PUSH1 0x64 ADD PUSH2 0xCA8 JUMP JUMPDEST PUSH1 0x0 PUSH2 0x187B PUSH1 0x8 SLOAD SWAP1 JUMP JUMPDEST DUP3 LT PUSH2 0x18DE JUMPI PUSH1 0x40 MLOAD PUSH3 0x461BCD PUSH1 0xE5 SHL DUP2 MSTORE PUSH1 0x20 PUSH1 0x4 DUP3 ADD MSTORE PUSH1 0x2C PUSH1 0x24 DUP3 ADD MSTORE PUSH32 0x455243373231456E756D657261626C653A20676C6F62616C20696E646578206F PUSH1 0x44 DUP3 ADD MSTORE PUSH12 0x7574206F6620626F756E6473 PUSH1 0xA0 SHL PUSH1 0x64 DUP3 ADD MSTORE PUSH1 0x84 ADD PUSH2 0xCA8 JUMP JUMPDEST PUSH1 0x8 DUP3 DUP2 SLOAD DUP2 LT PUSH2 0x18F1 JUMPI PUSH2 0x18F1 PUSH2 0x5173 JUMP JUMPDEST SWAP1 PUSH1 0x0 MSTORE PUSH1 0x20 PUSH1 0x0 KECCAK256 ADD SLOAD SWAP1 POP SWAP2 SWAP1 POP JUMP JUMPDEST PUSH1 0xB SLOAD PUSH1 0x1 PUSH1 0x1 PUSH1 0xA0 SHL SUB AND PUSH2 0x192B JUMPI PUSH1 0x40 MLOAD PUSH3 0x461BCD PUSH1 0xE5 SHL DUP2 MSTORE PUSH1 0x4 ADD PUSH2 0xCA8 SWAP1 PUSH2 0x524E JUMP JUMPDEST DUP3 MLOAD DUP3 MLOAD PUSH1 0x0 PUSH2 0x193B DUP3 DUP5 PUSH2 0x4A81 JUMP JUMPDEST PUSH2 0x1947 SWAP1 PUSH2 0x640 PUSH2 0x50AC JUMP JUMPDEST PUSH2 0x1954 SWAP1 PUSH3 0x61A80 PUSH2 0x4A81 JUMP JUMPDEST SWAP1 POP PUSH1 0x0 PUSH2 0x1963 PUSH1 0x7 GASPRICE PUSH2 0x50E1 JUMP JUMPDEST PUSH2 0x196D SWAP1 DUP4 PUSH2 0x50AC JUMP JUMPDEST SWAP1 POP PUSH1 0x64 PUSH2 0x197C DUP3 PUSH1 0x5A PUSH2 0x50AC JUMP JUMPDEST PUSH2 0x1986 SWAP2 SWAP1 PUSH2 0x50E1 JUMP JUMPDEST CALLVALUE LT ISZERO PUSH2 0x19A5 JUMPI PUSH1 0x40 MLOAD PUSH3 0x461BCD PUSH1 0xE5 SHL DUP2 MSTORE PUSH1 0x4 ADD PUSH2 0xCA8 SWAP1 PUSH2 0x50F5 JUMP JUMPDEST CALLVALUE PUSH1 0xD PUSH1 0x0 DUP3 DUP3 SLOAD PUSH2 0x19B7 SWAP2 SWAP1 PUSH2 0x4A81 JUMP JUMPDEST SWAP1 SWAP2 SSTORE POP PUSH1 0x0 SWAP1 POP PUSH2 0x19C7 PUSH2 0x33BA JUMP JUMPDEST PUSH1 0xB SLOAD PUSH1 0x40 MLOAD PUSH4 0x17F52FD7 PUSH1 0xE2 SHL DUP2 MSTORE SWAP2 SWAP3 POP PUSH1 0x0 SWAP2 PUSH1 0x1 PUSH1 0x1 PUSH1 0xA0 SHL SUB SWAP1 SWAP2 AND SWAP1 PUSH4 0x5FD4BF5C SWAP1 PUSH2 0x1A06 SWAP1 DUP13 SWAP1 DUP13 SWAP1 DUP13 SWAP1 PUSH1 0x2 SWAP1 DUP10 SWAP1 PUSH1 0x4 ADD PUSH2 0x5285 JUMP JUMPDEST PUSH1 0x20 PUSH1 0x40 MLOAD DUP1 DUP4 SUB DUP2 PUSH1 0x0 DUP8 GAS CALL ISZERO DUP1 ISZERO PUSH2 0x1A25 JUMPI RETURNDATASIZE PUSH1 0x0 DUP1 RETURNDATACOPY RETURNDATASIZE PUSH1 0x0 REVERT JUMPDEST POP POP POP POP PUSH1 0x40 MLOAD RETURNDATASIZE PUSH1 0x1F NOT PUSH1 0x1F DUP3 ADD AND DUP3 ADD DUP1 PUSH1 0x40 MSTORE POP DUP2 ADD SWAP1 PUSH2 0x1A49 SWAP2 SWAP1 PUSH2 0x5210 JUMP JUMPDEST SWAP1 POP PUSH2 0x1A55 DUP3 DUP3 PUSH2 0x3DAC JUMP JUMPDEST PUSH1 0x0 DUP1 PUSH2 0x1A62 DUP12 DUP5 PUSH2 0x3DF0 JUMP JUMPDEST SWAP2 POP SWAP2 POP DUP2 PUSH1 0x1 PUSH1 0x1 PUSH1 0xA0 SHL SUB AND DUP2 PUSH2 0x1A78 CALLER SWAP1 JUMP JUMPDEST PUSH1 0x1 PUSH1 0x1 PUSH1 0xA0 SHL SUB AND PUSH32 0x4F364C5612FF56C08FA0772D758655AD9F8145D1F867E85BF7CA35E0D4CC4F95 DUP13 DUP8 PUSH1 0x40 MLOAD PUSH2 0x1ABB SWAP3 SWAP2 SWAP1 SWAP2 DUP3 MSTORE PUSH1 0x20 DUP3 ADD MSTORE PUSH1 0x40 ADD SWAP1 JUMP JUMPDEST PUSH1 0x40 MLOAD DUP1 SWAP2 SUB SWAP1 LOG4 POP POP POP POP POP POP POP POP POP POP POP JUMP JUMPDEST PUSH1 0x0 DUP2 DUP2 MSTORE PUSH1 0x2 PUSH1 0x20 MSTORE PUSH1 0x40 DUP2 KECCAK256 SLOAD PUSH1 0x1 PUSH1 0x1 PUSH1 0xA0 SHL SUB AND DUP1 PUSH2 0xD31 JUMPI PUSH1 0x40 MLOAD PUSH3 0x461BCD PUSH1 0xE5 SHL DUP2 MSTORE PUSH1 0x20 PUSH1 0x4 DUP3 ADD MSTORE PUSH1 0x18 PUSH1 0x24 DUP3 ADD MSTORE PUSH24 0x115490CDCC8C4E881A5B9D985B1A59081D1BDAD95B881251 PUSH1 0x42 SHL PUSH1 0x44 DUP3 ADD MSTORE PUSH1 0x64 ADD PUSH2 0xCA8 JUMP JUMPDEST PUSH1 0xB SLOAD PUSH1 0x1 PUSH1 0x1 PUSH1 0xA0 SHL SUB AND PUSH2 0x1B58 JUMPI PUSH1 0x40 MLOAD PUSH3 0x461BCD PUSH1 0xE5 SHL DUP2 MSTORE PUSH1 0x4 ADD PUSH2 0xCA8 SWAP1 PUSH2 0x524E JUMP JUMPDEST DUP3 MLOAD DUP3 MLOAD PUSH1 0x0 PUSH2 0x1B68 DUP3 DUP5 PUSH2 0x4A81 JUMP JUMPDEST PUSH2 0x1B74 SWAP1 PUSH2 0x640 PUSH2 0x50AC JUMP JUMPDEST PUSH2 0x1B81 SWAP1 PUSH3 0x61A80 PUSH2 0x4A81 JUMP JUMPDEST SWAP1 POP PUSH1 0x0 PUSH2 0x1B90 PUSH1 0x7 GASPRICE PUSH2 0x50E1 JUMP JUMPDEST PUSH2 0x1B9A SWAP1 DUP4 PUSH2 0x50AC JUMP JUMPDEST SWAP1 POP PUSH1 0x64 PUSH2 0x1BA9 DUP3 PUSH1 0x5A PUSH2 0x50AC JUMP JUMPDEST PUSH2 0x1BB3 SWAP2 SWAP1 PUSH2 0x50E1 JUMP JUMPDEST CALLVALUE LT ISZERO PUSH2 0x1BD2 JUMPI PUSH1 0x40 MLOAD PUSH3 0x461BCD PUSH1 0xE5 SHL DUP2 MSTORE PUSH1 0x4 ADD PUSH2 0xCA8 SWAP1 PUSH2 0x50F5 JUMP JUMPDEST CALLVALUE PUSH1 0xD PUSH1 0x0 DUP3 DUP3 SLOAD PUSH2 0x1BE4 SWAP2 SWAP1 PUSH2 0x4A81 JUMP JUMPDEST SWAP1 SWAP2 SSTORE POP PUSH1 0x0 SWAP1 POP PUSH2 0x1BF4 PUSH2 0x33BA JUMP JUMPDEST PUSH1 0xB SLOAD PUSH1 0x40 MLOAD PUSH4 0x17F52FD7 PUSH1 0xE2 SHL DUP2 MSTORE SWAP2 SWAP3 POP PUSH1 0x0 SWAP2 PUSH1 0x1 PUSH1 0x1 PUSH1 0xA0 SHL SUB SWAP1 SWAP2 AND SWAP1 PUSH4 0x5FD4BF5C SWAP1 PUSH2 0x1C33 SWAP1 DUP13 SWAP1 DUP13 SWAP1 DUP13 SWAP1 PUSH1 0x1 SWAP1 DUP10 SWAP1 PUSH1 0x4 ADD PUSH2 0x5285 JUMP JUMPDEST PUSH1 0x20 PUSH1 0x40 MLOAD DUP1 DUP4 SUB DUP2 PUSH1 0x0 DUP8 GAS CALL ISZERO DUP1 ISZERO PUSH2 0x1C52 JUMPI RETURNDATASIZE PUSH1 0x0 DUP1 RETURNDATACOPY RETURNDATASIZE PUSH1 0x0 REVERT JUMPDEST POP POP POP POP PUSH1 0x40 MLOAD RETURNDATASIZE PUSH1 0x1F NOT PUSH1 0x1F DUP3 ADD AND DUP3 ADD DUP1 PUSH1 0x40 MSTORE POP DUP2 ADD SWAP1 PUSH2 0x1C76 SWAP2 SWAP1 PUSH2 0x5210 JUMP JUMPDEST SWAP1 POP PUSH2 0x1C82 DUP3 DUP3 PUSH2 0x3DAC JUMP JUMPDEST PUSH1 0x0 DUP1 PUSH2 0x1C8F DUP12 DUP5 PUSH2 0x3DF0 JUMP JUMPDEST SWAP2 POP SWAP2 POP DUP2 PUSH1 0x1 PUSH1 0x1 PUSH1 0xA0 SHL SUB AND DUP2 PUSH2 0x1CA5 CALLER SWAP1 JUMP JUMPDEST PUSH1 0x1 PUSH1 0x1 PUSH1 0xA0 SHL SUB AND PUSH32 0x924793005F4039CE0BD7A2125C91B09615ED7D350FFA629A063A8E77958A25F6 DUP13 DUP8 PUSH1 0x40 MLOAD PUSH2 0x1ABB SWAP3 SWAP2 SWAP1 SWAP2 DUP3 MSTORE PUSH1 0x20 DUP3 ADD MSTORE PUSH1 0x40 ADD SWAP1 JUMP JUMPDEST PUSH1 0x0 PUSH1 0x1 PUSH1 0x1 PUSH1 0xA0 SHL SUB DUP3 AND PUSH2 0x1D52 JUMPI PUSH1 0x40 MLOAD PUSH3 0x461BCD PUSH1 0xE5 SHL DUP2 MSTORE PUSH1 0x20 PUSH1 0x4 DUP3 ADD MSTORE PUSH1 0x29 PUSH1 0x24 DUP3 ADD MSTORE PUSH32 0x4552433732313A2061646472657373207A65726F206973206E6F742061207661 PUSH1 0x44 DUP3 ADD MSTORE PUSH9 0x3634B21037BBB732B9 PUSH1 0xB9 SHL PUSH1 0x64 DUP3 ADD MSTORE PUSH1 0x84 ADD PUSH2 0xCA8 JUMP JUMPDEST POP PUSH1 0x1 PUSH1 0x1 PUSH1 0xA0 SHL SUB AND PUSH1 0x0 SWAP1 DUP2 MSTORE PUSH1 0x3 PUSH1 0x20 MSTORE PUSH1 0x40 SWAP1 KECCAK256 SLOAD SWAP1 JUMP JUMPDEST PUSH2 0x1D76 PUSH2 0x3BAB JUMP JUMPDEST PUSH2 0x1D80 PUSH1 0x0 PUSH2 0x3EA5 JUMP JUMPDEST JUMP JUMPDEST PUSH1 0xB SLOAD PUSH1 0x1 PUSH1 0x1 PUSH1 0xA0 SHL SUB AND PUSH2 0x1DAA JUMPI PUSH1 0x40 MLOAD PUSH3 0x461BCD PUSH1 0xE5 SHL DUP2 MSTORE PUSH1 0x4 ADD PUSH2 0xCA8 SWAP1 PUSH2 0x524E JUMP JUMPDEST DUP2 MLOAD DUP2 MLOAD PUSH1 0x0 PUSH2 0x1DBA DUP3 DUP5 PUSH2 0x4A81 JUMP JUMPDEST PUSH2 0x1DC6 SWAP1 PUSH2 0x640 PUSH2 0x50AC JUMP JUMPDEST PUSH2 0x1DD3 SWAP1 PUSH3 0x61A80 PUSH2 0x4A81 JUMP JUMPDEST SWAP1 POP PUSH1 0x0 PUSH2 0x1DE2 PUSH1 0x7 GASPRICE PUSH2 0x50E1 JUMP JUMPDEST PUSH2 0x1DEC SWAP1 DUP4 PUSH2 0x50AC JUMP JUMPDEST SWAP1 POP PUSH1 0x64 PUSH2 0x1DFB DUP3 PUSH1 0x5A PUSH2 0x50AC JUMP JUMPDEST PUSH2 0x1E05 SWAP2 SWAP1 PUSH2 0x50E1 JUMP JUMPDEST CALLVALUE LT ISZERO PUSH2 0x1E24 JUMPI PUSH1 0x40 MLOAD PUSH3 0x461BCD PUSH1 0xE5 SHL DUP2 MSTORE PUSH1 0x4 ADD PUSH2 0xCA8 SWAP1 PUSH2 0x50F5 JUMP JUMPDEST CALLVALUE PUSH1 0xD PUSH1 0x0 DUP3 DUP3 SLOAD PUSH2 0x1E36 SWAP2 SWAP1 PUSH2 0x4A81 JUMP JUMPDEST SWAP1 SWAP2 SSTORE POP PUSH1 0x0 SWAP1 POP PUSH2 0x1E46 PUSH2 0x33BA JUMP JUMPDEST PUSH1 0xB SLOAD PUSH1 0x40 MLOAD PUSH4 0x17F52FD7 PUSH1 0xE2 SHL DUP2 MSTORE SWAP2 SWAP3 POP PUSH1 0x0 SWAP2 PUSH1 0x1 PUSH1 0x1 PUSH1 0xA0 SHL SUB SWAP1 SWAP2 AND SWAP1 PUSH4 0x5FD4BF5C SWAP1 PUSH2 0x1E84 SWAP1 DUP12 SWAP1 DUP12 SWAP1 DUP7 SWAP1 DUP2 SWAP1 DUP10 SWAP1 PUSH1 0x4 ADD PUSH2 0x5285 JUMP JUMPDEST PUSH1 0x20 PUSH1 0x40 MLOAD DUP1 DUP4 SUB DUP2 PUSH1 0x0 DUP8 GAS CALL ISZERO DUP1 ISZERO PUSH2 0x1EA3 JUMPI RETURNDATASIZE PUSH1 0x0 DUP1 RETURNDATACOPY RETURNDATASIZE PUSH1 0x0 REVERT JUMPDEST POP POP POP POP PUSH1 0x40 MLOAD RETURNDATASIZE PUSH1 0x1F NOT PUSH1 0x1F DUP3 ADD AND DUP3 ADD DUP1 PUSH1 0x40 MSTORE POP DUP2 ADD SWAP1 PUSH2 0x1EC7 SWAP2 SWAP1 PUSH2 0x5210 JUMP JUMPDEST SWAP1 POP PUSH2 0x1ED3 DUP3 DUP3 PUSH2 0x3DAC JUMP JUMPDEST PUSH1 0x0 DUP1 PUSH2 0x1EE0 DUP11 DUP5 PUSH2 0x3DF0 JUMP JUMPDEST SWAP2 POP SWAP2 POP DUP2 PUSH1 0x1 PUSH1 0x1 PUSH1 0xA0 SHL SUB AND DUP2 PUSH2 0x1EF6 CALLER SWAP1 JUMP JUMPDEST PUSH1 0x1 PUSH1 0x1 PUSH1 0xA0 SHL SUB AND PUSH32 0xEFD89A689D7F8F98AA78711828A940CC588F02F79895B9E7725436D68052678C DUP7 PUSH1 0x40 MLOAD PUSH2 0x1F30 SWAP2 DUP2 MSTORE PUSH1 0x20 ADD SWAP1 JUMP JUMPDEST PUSH1 0x40 MLOAD DUP1 SWAP2 SUB SWAP1 LOG4 POP POP POP POP POP POP POP POP POP POP JUMP JUMPDEST PUSH1 0xB SLOAD PUSH1 0x1 PUSH1 0x1 PUSH1 0xA0 SHL SUB AND PUSH2 0x1F6C JUMPI PUSH1 0x40 MLOAD PUSH3 0x461BCD PUSH1 0xE5 SHL DUP2 MSTORE PUSH1 0x4 ADD PUSH2 0xCA8 SWAP1 PUSH2 0x524E JUMP JUMPDEST PUSH1 0x10 SLOAD PUSH1 0x0 PUSH1 0x6 PUSH2 0x1F7D GASPRICE DUP5 PUSH2 0x50AC JUMP JUMPDEST PUSH2 0x1F87 SWAP2 SWAP1 PUSH2 0x50E1 JUMP JUMPDEST SWAP1 POP PUSH1 0x64 PUSH2 0x1F96 DUP3 PUSH1 0x5C PUSH2 0x50AC JUMP JUMPDEST PUSH2 0x1FA0 SWAP2 SWAP1 PUSH2 0x50E1 JUMP JUMPDEST CALLVALUE LT ISZERO PUSH2 0x1FBF JUMPI PUSH1 0x40 MLOAD PUSH3 0x461BCD PUSH1 0xE5 SHL DUP2 MSTORE PUSH1 0x4 ADD PUSH2 0xCA8 SWAP1 PUSH2 0x50F5 JUMP JUMPDEST CALLVALUE PUSH1 0xD PUSH1 0x0 DUP3 DUP3 SLOAD PUSH2 0x1FD1 SWAP2 SWAP1 PUSH2 0x4A81 JUMP JUMPDEST SWAP1 SWAP2 SSTORE POP PUSH1 0x0 SWAP1 POP PUSH2 0x1FE1 PUSH2 0x33BA JUMP JUMPDEST PUSH1 0x1 PUSH1 0x1 PUSH1 0xA0 SHL SUB DUP2 AND PUSH1 0x0 SWAP1 DUP2 MSTORE PUSH1 0x12 PUSH1 0x20 MSTORE PUSH1 0x40 SWAP1 KECCAK256 PUSH1 0x8 ADD SLOAD SWAP1 SWAP2 POP PUSH2 0x2047 JUMPI PUSH1 0x40 MLOAD PUSH3 0x461BCD PUSH1 0xE5 SHL DUP2 MSTORE PUSH1 0x20 PUSH1 0x4 DUP3 ADD MSTORE PUSH1 0x18 PUSH1 0x24 DUP3 ADD MSTORE PUSH24 0x165BDD48191A591B9D081B1A5AD9481D1A1A5CC81C1BDCDD PUSH1 0x42 SHL PUSH1 0x44 DUP3 ADD MSTORE PUSH1 0x64 ADD PUSH2 0xCA8 JUMP JUMPDEST PUSH1 0x1 PUSH1 0x1 PUSH1 0xA0 SHL SUB DUP2 AND PUSH1 0x0 DUP2 DUP2 MSTORE PUSH1 0x12 PUSH1 0x20 DUP2 DUP2 MSTORE PUSH1 0x40 DUP1 DUP5 KECCAK256 DUP10 DUP6 MSTORE PUSH1 0x9 DUP2 ADD DUP4 MSTORE SWAP1 DUP5 KECCAK256 SLOAD SWAP5 DUP5 MSTORE SWAP2 SWAP1 MSTORE PUSH1 0x8 ADD SLOAD SWAP1 DUP3 SWAP1 SUB PUSH2 0x2100 JUMPI PUSH1 0x1 PUSH1 0x1 PUSH1 0xA0 SHL SUB DUP4 AND PUSH1 0x0 SWAP1 DUP2 MSTORE PUSH1 0x12 PUSH1 0x20 MSTORE PUSH1 0x40 DUP2 KECCAK256 PUSH1 0x8 ADD DUP1 SLOAD DUP9 SWAP3 SWAP1 PUSH2 0x20AD JUMPI PUSH2 0x20AD PUSH2 0x5173 JUMP JUMPDEST SWAP1 PUSH1 0x0 MSTORE PUSH1 0x20 PUSH1 0x0 KECCAK256 ADD SLOAD EQ PUSH2 0x2100 JUMPI PUSH1 0x40 MLOAD PUSH3 0x461BCD PUSH1 0xE5 SHL DUP2 MSTORE PUSH1 0x20 PUSH1 0x4 DUP3 ADD MSTORE PUSH1 0x18 PUSH1 0x24 DUP3 ADD MSTORE PUSH24 0x165BDD48191A591B9D081B1A5AD9481D1A1A5CC81C1BDCDD PUSH1 0x42 SHL PUSH1 0x44 DUP3 ADD MSTORE PUSH1 0x64 ADD PUSH2 0xCA8 JUMP JUMPDEST PUSH2 0x210B PUSH1 0x1 DUP3 PUSH2 0x515C JUMP JUMPDEST DUP3 EQ PUSH2 0x21F2 JUMPI PUSH1 0x1 PUSH1 0x1 PUSH1 0xA0 SHL SUB DUP4 AND PUSH1 0x0 SWAP1 DUP2 MSTORE PUSH1 0x12 PUSH1 0x20 MSTORE PUSH1 0x40 DUP2 KECCAK256 DUP4 SWAP2 PUSH1 0x9 DUP3 ADD SWAP2 PUSH1 0x8 ADD PUSH2 0x213E PUSH1 0x1 DUP7 PUSH2 0x515C JUMP JUMPDEST DUP2 SLOAD DUP2 LT PUSH2 0x214E JUMPI PUSH2 0x214E PUSH2 0x5173 JUMP JUMPDEST PUSH1 0x0 SWAP2 DUP3 MSTORE PUSH1 0x20 DUP1 DUP4 KECCAK256 SWAP1 SWAP2 ADD SLOAD DUP4 MSTORE DUP3 DUP2 ADD SWAP4 SWAP1 SWAP4 MSTORE PUSH1 0x40 SWAP2 DUP3 ADD DUP2 KECCAK256 SWAP4 SWAP1 SWAP4 SSTORE PUSH1 0x1 PUSH1 0x1 PUSH1 0xA0 SHL SUB DUP7 AND DUP4 MSTORE PUSH1 0x12 SWAP1 SWAP2 MSTORE SWAP1 KECCAK256 PUSH1 0x8 ADD PUSH2 0x2191 PUSH1 0x1 DUP4 PUSH2 0x515C JUMP JUMPDEST DUP2 SLOAD DUP2 LT PUSH2 0x21A1 JUMPI PUSH2 0x21A1 PUSH2 0x5173 JUMP JUMPDEST SWAP1 PUSH1 0x0 MSTORE PUSH1 0x20 PUSH1 0x0 KECCAK256 ADD SLOAD PUSH1 0x12 PUSH1 0x0 DUP6 PUSH1 0x1 PUSH1 0x1 PUSH1 0xA0 SHL SUB AND PUSH1 0x1 PUSH1 0x1 PUSH1 0xA0 SHL SUB AND DUP2 MSTORE PUSH1 0x20 ADD SWAP1 DUP2 MSTORE PUSH1 0x20 ADD PUSH1 0x0 KECCAK256 PUSH1 0x8 ADD DUP4 DUP2 SLOAD DUP2 LT PUSH2 0x21E5 JUMPI PUSH2 0x21E5 PUSH2 0x5173 JUMP JUMPDEST PUSH1 0x0 SWAP2 DUP3 MSTORE PUSH1 0x20 SWAP1 SWAP2 KECCAK256 ADD SSTORE JUMPDEST PUSH1 0x1 PUSH1 0x1 PUSH1 0xA0 SHL SUB DUP4 AND PUSH1 0x0 SWAP1 DUP2 MSTORE PUSH1 0x12 PUSH1 0x20 MSTORE PUSH1 0x40 SWAP1 KECCAK256 PUSH1 0x8 ADD DUP1 SLOAD DUP1 PUSH2 0x221C JUMPI PUSH2 0x221C PUSH2 0x52D4 JUMP JUMPDEST PUSH1 0x0 DUP3 DUP2 MSTORE PUSH1 0x20 DUP1 DUP3 KECCAK256 PUSH1 0x0 NOT SWAP1 DUP5 ADD DUP2 ADD DUP4 SWAP1 SSTORE SWAP1 SWAP3 ADD SWAP1 SWAP3 SSTORE PUSH1 0x1 PUSH1 0x1 PUSH1 0xA0 SHL SUB DUP6 DUP2 AND DUP1 DUP5 MSTORE PUSH1 0x12 DUP4 MSTORE PUSH1 0x40 DUP1 DUP6 KECCAK256 DUP12 DUP7 MSTORE PUSH1 0x9 ADD SWAP1 SWAP4 MSTORE DUP3 DUP5 KECCAK256 SWAP4 SWAP1 SWAP4 SSTORE PUSH1 0xB SLOAD SWAP2 MLOAD PUSH4 0x56781325 PUSH1 0xE0 SHL DUP2 MSTORE PUSH1 0x4 DUP2 ADD DUP11 SWAP1 MSTORE PUSH1 0x24 DUP2 ADD SWAP4 SWAP1 SWAP4 MSTORE AND SWAP1 PUSH4 0x56781325 SWAP1 PUSH1 0x44 ADD PUSH1 0x0 PUSH1 0x40 MLOAD DUP1 DUP4 SUB DUP2 PUSH1 0x0 DUP8 DUP1 EXTCODESIZE ISZERO DUP1 ISZERO PUSH2 0x22A1 JUMPI PUSH1 0x0 DUP1 REVERT JUMPDEST POP GAS CALL ISZERO DUP1 ISZERO PUSH2 0x22B5 JUMPI RETURNDATASIZE PUSH1 0x0 DUP1 RETURNDATACOPY RETURNDATASIZE PUSH1 0x0 REVERT JUMPDEST POP POP POP POP POP POP POP POP POP POP JUMP JUMPDEST PUSH1 0x0 PUSH2 0x22CB PUSH2 0x33BA JUMP JUMPDEST PUSH1 0x1 PUSH1 0x1 PUSH1 0xA0 SHL SUB DUP2 AND PUSH1 0x0 SWAP1 DUP2 MSTORE PUSH1 0x12 PUSH1 0x20 SWAP1 DUP2 MSTORE PUSH1 0x40 SWAP1 SWAP2 KECCAK256 DUP5 MLOAD SWAP3 SWAP4 POP PUSH2 0xF00 SWAP3 PUSH1 0x2 SWAP1 SWAP2 ADD SWAP2 DUP6 ADD SWAP1 PUSH2 0x49D2 JUMP JUMPDEST PUSH1 0x60 PUSH2 0xD31 DUP3 PUSH1 0xA PUSH2 0x2C43 JUMP JUMPDEST PUSH1 0x1 PUSH1 0x1 PUSH1 0xA0 SHL SUB DUP3 AND PUSH1 0x0 SWAP1 DUP2 MSTORE PUSH1 0x12 PUSH1 0x20 MSTORE PUSH1 0x40 DUP2 KECCAK256 PUSH1 0x4 ADD SLOAD PUSH1 0xE SLOAD PUSH1 0x60 SWAP3 DUP6 SWAP3 SWAP2 PUSH1 0x1 PUSH1 0x1 PUSH1 0x40 SHL SUB DUP2 GT ISZERO PUSH2 0x2346 JUMPI PUSH2 0x2346 PUSH2 0x4C92 JUMP JUMPDEST PUSH1 0x40 MLOAD SWAP1 DUP1 DUP3 MSTORE DUP1 PUSH1 0x20 MUL PUSH1 0x20 ADD DUP3 ADD PUSH1 0x40 MSTORE DUP1 ISZERO PUSH2 0x236F JUMPI DUP2 PUSH1 0x20 ADD PUSH1 0x20 DUP3 MUL DUP1 CALLDATASIZE DUP4 CALLDATACOPY ADD SWAP1 POP JUMPDEST POP SWAP1 POP PUSH1 0x0 DUP6 PUSH1 0xFF AND PUSH1 0xE SLOAD PUSH2 0x2385 SWAP2 SWAP1 PUSH2 0x50AC JUMP JUMPDEST SWAP1 POP DUP1 JUMPDEST DUP2 DUP5 GT DUP1 ISZERO PUSH2 0x23A3 JUMPI POP PUSH1 0xE SLOAD PUSH2 0x23A0 SWAP1 DUP3 PUSH2 0x4A81 JUMP JUMPDEST DUP3 LT JUMPDEST ISZERO PUSH2 0x128D JUMPI PUSH1 0x1 PUSH1 0x1 PUSH1 0xA0 SHL SUB DUP6 AND PUSH1 0x0 SWAP1 DUP2 MSTORE PUSH1 0x12 PUSH1 0x20 MSTORE PUSH1 0x40 SWAP1 KECCAK256 PUSH1 0x4 ADD PUSH1 0x1 PUSH2 0x23CF DUP5 DUP8 PUSH2 0x515C JUMP JUMPDEST PUSH2 0x23D9 SWAP2 SWAP1 PUSH2 0x515C JUMP JUMPDEST DUP2 SLOAD DUP2 LT PUSH2 0x23E9 JUMPI PUSH2 0x23E9 PUSH2 0x5173 JUMP JUMPDEST PUSH1 0x0 SWAP2 DUP3 MSTORE PUSH1 0x20 SWAP1 SWAP2 KECCAK256 ADD SLOAD PUSH1 0x1 PUSH1 0x1 PUSH1 0xA0 SHL SUB AND DUP4 PUSH2 0x2409 DUP4 DUP6 PUSH2 0x515C JUMP JUMPDEST DUP2 MLOAD DUP2 LT PUSH2 0x2419 JUMPI PUSH2 0x2419 PUSH2 0x5173 JUMP JUMPDEST PUSH1 0x1 PUSH1 0x1 PUSH1 0xA0 SHL SUB SWAP1 SWAP3 AND PUSH1 0x20 SWAP3 DUP4 MUL SWAP2 SWAP1 SWAP2 ADD SWAP1 SWAP2 ADD MSTORE PUSH2 0x243C PUSH1 0x1 DUP4 PUSH2 0x4A81 JUMP JUMPDEST SWAP2 POP PUSH2 0x2389 JUMP JUMPDEST PUSH2 0x244B PUSH2 0x3BAB JUMP JUMPDEST PUSH1 0x11 SSTORE JUMP JUMPDEST PUSH1 0x60 PUSH1 0x1 DUP1 SLOAD PUSH2 0xD46 SWAP1 PUSH2 0x5122 JUMP JUMPDEST PUSH2 0x2467 PUSH2 0x3BAB JUMP JUMPDEST CALLVALUE PUSH1 0xD PUSH1 0x0 DUP3 DUP3 SLOAD PUSH2 0x2479 SWAP2 SWAP1 PUSH2 0x4A81 JUMP JUMPDEST SWAP1 SWAP2 SSTORE POP POP SELFBALANCE DUP3 GT ISZERO PUSH2 0x24C3 JUMPI PUSH1 0x40 MLOAD PUSH3 0x461BCD PUSH1 0xE5 SHL DUP2 MSTORE PUSH1 0x20 PUSH1 0x4 DUP3 ADD MSTORE PUSH1 0x12 PUSH1 0x24 DUP3 ADD MSTORE PUSH18 0x4E6F7420656E6F7567682062616C616E6365 PUSH1 0x70 SHL PUSH1 0x44 DUP3 ADD MSTORE PUSH1 0x64 ADD PUSH2 0xCA8 JUMP JUMPDEST PUSH2 0x24CB PUSH2 0x3EFF JUMP JUMPDEST ISZERO PUSH2 0x2559 JUMPI DUP2 PUSH1 0xD PUSH1 0x0 DUP3 DUP3 SLOAD PUSH2 0x24E2 SWAP2 SWAP1 PUSH2 0x515C JUMP JUMPDEST SWAP1 SWAP2 SSTORE POP POP PUSH1 0x40 MLOAD PUSH1 0x1 PUSH1 0x1 PUSH1 0xA0 SHL SUB DUP3 AND SWAP1 DUP4 ISZERO PUSH2 0x8FC MUL SWAP1 DUP5 SWAP1 PUSH1 0x0 DUP2 DUP2 DUP2 DUP6 DUP9 DUP9 CALL SWAP4 POP POP POP POP ISZERO DUP1 ISZERO PUSH2 0x251D JUMPI RETURNDATASIZE PUSH1 0x0 DUP1 RETURNDATACOPY RETURNDATASIZE PUSH1 0x0 REVERT JUMPDEST POP DUP1 PUSH1 0x1 PUSH1 0x1 PUSH1 0xA0 SHL SUB AND PUSH32 0x7FCF532C15F0A6DB0BD6D0E038BEA71D30D808C7D98CB3BF7268A95BF5081B65 DUP4 PUSH1 0x40 MLOAD PUSH2 0x1626 SWAP2 DUP2 MSTORE PUSH1 0x20 ADD SWAP1 JUMP JUMPDEST POP POP JUMP JUMPDEST PUSH2 0x2565 PUSH2 0x3BAB JUMP JUMPDEST PUSH1 0xB DUP1 SLOAD PUSH1 0x1 PUSH1 0x1 PUSH1 0xA0 SHL SUB NOT AND PUSH1 0x1 PUSH1 0x1 PUSH1 0xA0 SHL SUB SWAP3 SWAP1 SWAP3 AND SWAP2 SWAP1 SWAP2 OR SWAP1 SSTORE JUMP JUMPDEST PUSH2 0x2559 CALLER DUP4 DUP4 PUSH2 0x3F90 JUMP JUMPDEST PUSH1 0x11 SLOAD CALLVALUE LT ISZERO PUSH2 0x25E4 JUMPI PUSH1 0x40 MLOAD PUSH3 0x461BCD PUSH1 0xE5 SHL DUP2 MSTORE PUSH1 0x20 PUSH1 0x4 DUP3 ADD MSTORE PUSH1 0x18 PUSH1 0x24 DUP3 ADD MSTORE PUSH32 0x4E6F7420656E6F756768206D6F6E657920746F206D696E740000000000000000 PUSH1 0x44 DUP3 ADD MSTORE PUSH1 0x64 ADD PUSH2 0xCA8 JUMP JUMPDEST CALLER PUSH1 0x0 DUP2 DUP2 MSTORE PUSH1 0x12 PUSH1 0x20 SWAP1 DUP2 MSTORE PUSH1 0x40 SWAP1 SWAP2 KECCAK256 DUP7 DUP2 SSTORE DUP6 MLOAD PUSH2 0x260D SWAP3 PUSH1 0x1 SWAP1 SWAP3 ADD SWAP2 DUP8 ADD SWAP1 PUSH2 0x49D2 JUMP JUMPDEST POP PUSH1 0x1 PUSH1 0x1 PUSH1 0xA0 SHL SUB DUP2 AND PUSH1 0x0 SWAP1 DUP2 MSTORE PUSH1 0x12 PUSH1 0x20 SWAP1 DUP2 MSTORE PUSH1 0x40 SWAP1 SWAP2 KECCAK256 DUP5 MLOAD PUSH2 0x263D SWAP3 PUSH1 0x2 SWAP1 SWAP3 ADD SWAP2 DUP7 ADD SWAP1 PUSH2 0x49D2 JUMP JUMPDEST POP PUSH1 0x1 PUSH1 0x1 PUSH1 0xA0 SHL SUB DUP2 AND PUSH1 0x0 SWAP1 DUP2 MSTORE PUSH1 0x12 PUSH1 0x20 SWAP1 DUP2 MSTORE PUSH1 0x40 SWAP1 SWAP2 KECCAK256 DUP4 MLOAD PUSH2 0x266D SWAP3 PUSH1 0x3 SWAP1 SWAP3 ADD SWAP2 DUP6 ADD SWAP1 PUSH2 0x49D2 JUMP JUMPDEST POP PUSH2 0x2681 CALLER DUP3 PUSH1 0x1 PUSH1 0x1 PUSH1 0xA0 SHL SUB AND PUSH2 0x405E JUMP JUMPDEST CALLVALUE PUSH1 0xD PUSH1 0x0 DUP3 DUP3 SLOAD PUSH2 0x2693 SWAP2 SWAP1 PUSH2 0x4A81 JUMP JUMPDEST SWAP1 SWAP2 SSTORE POP POP PUSH1 0x40 MLOAD DUP6 SWAP1 CALLER SWAP1 PUSH32 0x508D82227DB28D6B1BDBD8610867F3407456BE7471ED967F765033261A00209B SWAP1 PUSH1 0x0 SWAP1 LOG3 POP POP POP POP POP JUMP JUMPDEST PUSH1 0x1 PUSH1 0x1 PUSH1 0xA0 SHL SUB DUP3 AND PUSH1 0x0 SWAP1 DUP2 MSTORE PUSH1 0x12 PUSH1 0x20 MSTORE PUSH1 0x40 DUP2 KECCAK256 PUSH1 0xC ADD SLOAD PUSH1 0xE SLOAD PUSH1 0x60 SWAP3 DUP6 SWAP3 SWAP2 PUSH1 0x1 PUSH1 0x1 PUSH1 0x40 SHL SUB DUP2 GT ISZERO PUSH2 0x2708 JUMPI PUSH2 0x2708 PUSH2 0x4C92 JUMP JUMPDEST PUSH1 0x40 MLOAD SWAP1 DUP1 DUP3 MSTORE DUP1 PUSH1 0x20 MUL PUSH1 0x20 ADD DUP3 ADD PUSH1 0x40 MSTORE DUP1 ISZERO PUSH2 0x2731 JUMPI DUP2 PUSH1 0x20 ADD PUSH1 0x20 DUP3 MUL DUP1 CALLDATASIZE DUP4 CALLDATACOPY ADD SWAP1 POP JUMPDEST POP SWAP1 POP PUSH1 0x0 DUP6 PUSH1 0xFF AND PUSH1 0xE SLOAD PUSH2 0x2747 SWAP2 SWAP1 PUSH2 0x50AC JUMP JUMPDEST SWAP1 POP DUP1 JUMPDEST DUP2 DUP5 GT DUP1 ISZERO PUSH2 0x2765 JUMPI POP PUSH1 0xE SLOAD PUSH2 0x2762 SWAP1 DUP3 PUSH2 0x4A81 JUMP JUMPDEST DUP3 LT JUMPDEST ISZERO PUSH2 0x128D JUMPI PUSH1 0x1 PUSH1 0x1 PUSH1 0xA0 SHL SUB DUP6 AND PUSH1 0x0 SWAP1 DUP2 MSTORE PUSH1 0x12 PUSH1 0x20 MSTORE PUSH1 0x40 SWAP1 KECCAK256 PUSH1 0xC ADD PUSH1 0x1 PUSH2 0x2791 DUP5 DUP8 PUSH2 0x515C JUMP JUMPDEST PUSH2 0x279B SWAP2 SWAP1 PUSH2 0x515C JUMP JUMPDEST DUP2 SLOAD DUP2 LT PUSH2 0x27AB JUMPI PUSH2 0x27AB PUSH2 0x5173 JUMP JUMPDEST SWAP1 PUSH1 0x0 MSTORE PUSH1 0x20 PUSH1 0x0 KECCAK256 ADD SLOAD DUP4 DUP3 DUP5 PUSH2 0x27C3 SWAP2 SWAP1 PUSH2 0x515C JUMP JUMPDEST DUP2 MLOAD DUP2 LT PUSH2 0x27D3 JUMPI PUSH2 0x27D3 PUSH2 0x5173 JUMP JUMPDEST PUSH1 0x20 SWAP1 DUP2 MUL SWAP2 SWAP1 SWAP2 ADD ADD MSTORE PUSH2 0x27E9 PUSH1 0x1 DUP4 PUSH2 0x4A81 JUMP JUMPDEST SWAP2 POP PUSH2 0x274B JUMP JUMPDEST PUSH1 0x0 DUP1 PUSH2 0x27FB PUSH2 0x33BA JUMP JUMPDEST PUSH1 0x1 PUSH1 0x1 PUSH1 0xA0 SHL SUB DUP2 AND PUSH1 0x0 SWAP1 DUP2 MSTORE PUSH1 0x12 PUSH1 0x20 SWAP1 DUP2 MSTORE PUSH1 0x40 DUP1 DUP4 KECCAK256 DUP8 DUP5 MSTORE PUSH1 0x9 ADD SWAP1 SWAP2 MSTORE DUP2 KECCAK256 SLOAD SWAP2 SWAP3 POP DUP2 SWAP1 SUB PUSH2 0x287C JUMPI PUSH1 0x1 PUSH1 0x1 PUSH1 0xA0 SHL SUB DUP3 AND PUSH1 0x0 SWAP1 DUP2 MSTORE PUSH1 0x12 PUSH1 0x20 MSTORE PUSH1 0x40 DUP2 KECCAK256 PUSH1 0x8 ADD DUP1 SLOAD DUP7 SWAP3 SWAP1 PUSH2 0x2858 JUMPI PUSH2 0x2858 PUSH2 0x5173 JUMP JUMPDEST SWAP1 PUSH1 0x0 MSTORE PUSH1 0x20 PUSH1 0x0 KECCAK256 ADD SLOAD SUB PUSH2 0x2872 JUMPI POP PUSH1 0x1 SWAP4 SWAP3 POP POP POP JUMP JUMPDEST POP PUSH1 0x0 SWAP4 SWAP3 POP POP POP JUMP JUMPDEST POP PUSH1 0x1 SWAP4 SWAP3 POP POP POP JUMP JUMPDEST PUSH1 0x40 DUP1 MLOAD DUP1 DUP3 ADD SWAP1 SWAP2 MSTORE PUSH1 0x0 DUP2 MSTORE PUSH1 0x60 PUSH1 0x20 DUP3 ADD MSTORE PUSH1 0x40 DUP1 MLOAD DUP1 DUP3 ADD SWAP1 SWAP2 MSTORE PUSH1 0x0 DUP2 MSTORE PUSH1 0x60 PUSH1 0x20 DUP3 ADD MSTORE DUP3 SWAP1 PUSH1 0x1 PUSH1 0x1 PUSH1 0xA0 SHL SUB DUP3 AND PUSH1 0x0 DUP2 DUP2 MSTORE PUSH1 0x12 PUSH1 0x20 DUP2 DUP2 MSTORE PUSH1 0x40 DUP4 KECCAK256 DUP1 SLOAD DUP7 MSTORE SWAP4 SWAP1 SWAP3 MSTORE SWAP1 MSTORE PUSH1 0x1 ADD DUP1 SLOAD PUSH2 0x28E4 SWAP1 PUSH2 0x5122 JUMP JUMPDEST DUP1 PUSH1 0x1F ADD PUSH1 0x20 DUP1 SWAP2 DIV MUL PUSH1 0x20 ADD PUSH1 0x40 MLOAD SWAP1 DUP2 ADD PUSH1 0x40 MSTORE DUP1 SWAP3 SWAP2 SWAP1 DUP2 DUP2 MSTORE PUSH1 0x20 ADD DUP3 DUP1 SLOAD PUSH2 0x2910 SWAP1 PUSH2 0x5122 JUMP JUMPDEST DUP1 ISZERO PUSH2 0x295D JUMPI DUP1 PUSH1 0x1F LT PUSH2 0x2932 JUMPI PUSH2 0x100 DUP1 DUP4 SLOAD DIV MUL DUP4 MSTORE SWAP2 PUSH1 0x20 ADD SWAP2 PUSH2 0x295D JUMP JUMPDEST DUP3 ADD SWAP2 SWAP1 PUSH1 0x0 MSTORE PUSH1 0x20 PUSH1 0x0 KECCAK256 SWAP1 JUMPDEST DUP2 SLOAD DUP2 MSTORE SWAP1 PUSH1 0x1 ADD SWAP1 PUSH1 0x20 ADD DUP1 DUP4 GT PUSH2 0x2940 JUMPI DUP3 SWAP1 SUB PUSH1 0x1F AND DUP3 ADD SWAP2 JUMPDEST POP POP POP POP POP PUSH1 0x20 DUP3 ADD MSTORE SWAP4 SWAP3 POP POP POP JUMP JUMPDEST PUSH1 0x1 PUSH1 0x1 PUSH1 0xA0 SHL SUB DUP3 AND PUSH1 0x0 SWAP1 DUP2 MSTORE PUSH1 0x12 PUSH1 0x20 MSTORE PUSH1 0x40 SWAP1 KECCAK256 PUSH1 0xA ADD SLOAD PUSH1 0x60 SWAP1 DUP4 SWAP1 PUSH1 0xFF DUP5 AND DUP2 GT ISZERO PUSH2 0x2A77 JUMPI PUSH1 0x0 DUP5 PUSH1 0xFF AND PUSH1 0x1 PUSH1 0x1 PUSH1 0x40 SHL SUB DUP2 GT ISZERO PUSH2 0x29B7 JUMPI PUSH2 0x29B7 PUSH2 0x4C92 JUMP JUMPDEST PUSH1 0x40 MLOAD SWAP1 DUP1 DUP3 MSTORE DUP1 PUSH1 0x20 MUL PUSH1 0x20 ADD DUP3 ADD PUSH1 0x40 MSTORE DUP1 ISZERO PUSH2 0x29E0 JUMPI DUP2 PUSH1 0x20 ADD PUSH1 0x20 DUP3 MUL DUP1 CALLDATASIZE DUP4 CALLDATACOPY ADD SWAP1 POP JUMPDEST POP SWAP1 POP PUSH1 0x0 JUMPDEST DUP1 DUP7 PUSH1 0xFF AND GT ISZERO PUSH2 0x2A6C JUMPI PUSH1 0x1 PUSH1 0x1 PUSH1 0xA0 SHL SUB DUP5 AND PUSH1 0x0 SWAP1 DUP2 MSTORE PUSH1 0x12 PUSH1 0x20 MSTORE PUSH1 0x40 SWAP1 KECCAK256 PUSH1 0xA ADD PUSH1 0x1 PUSH2 0x2A18 DUP4 DUP7 PUSH2 0x515C JUMP JUMPDEST PUSH2 0x2A22 SWAP2 SWAP1 PUSH2 0x515C JUMP JUMPDEST DUP2 SLOAD DUP2 LT PUSH2 0x2A32 JUMPI PUSH2 0x2A32 PUSH2 0x5173 JUMP JUMPDEST SWAP1 PUSH1 0x0 MSTORE PUSH1 0x20 PUSH1 0x0 KECCAK256 ADD SLOAD DUP3 DUP3 DUP2 MLOAD DUP2 LT PUSH2 0x2A4F JUMPI PUSH2 0x2A4F PUSH2 0x5173 JUMP JUMPDEST PUSH1 0x20 SWAP1 DUP2 MUL SWAP2 SWAP1 SWAP2 ADD ADD MSTORE PUSH2 0x2A65 PUSH1 0x1 DUP3 PUSH2 0x4A81 JUMP JUMPDEST SWAP1 POP PUSH2 0x29E6 JUMP JUMPDEST POP SWAP3 POP PUSH2 0xD31 SWAP2 POP POP JUMP JUMPDEST PUSH1 0x1 PUSH1 0x1 PUSH1 0xA0 SHL SUB DUP6 AND PUSH1 0x0 SWAP1 DUP2 MSTORE PUSH1 0x12 PUSH1 0x20 SWAP1 DUP2 MSTORE PUSH1 0x40 SWAP2 DUP3 SWAP1 KECCAK256 PUSH1 0xA ADD DUP1 SLOAD DUP4 MLOAD DUP2 DUP5 MUL DUP2 ADD DUP5 ADD SWAP1 SWAP5 MSTORE DUP1 DUP5 MSTORE SWAP1 SWAP2 DUP4 ADD DUP3 DUP3 DUP1 ISZERO PUSH2 0x2AD8 JUMPI PUSH1 0x20 MUL DUP3 ADD SWAP2 SWAP1 PUSH1 0x0 MSTORE PUSH1 0x20 PUSH1 0x0 KECCAK256 SWAP1 JUMPDEST DUP2 SLOAD DUP2 MSTORE PUSH1 0x20 ADD SWAP1 PUSH1 0x1 ADD SWAP1 DUP1 DUP4 GT PUSH2 0x2AC4 JUMPI JUMPDEST POP POP POP POP POP SWAP3 POP POP POP PUSH2 0xD31 JUMP JUMPDEST PUSH2 0x2AF0 CALLER DUP4 PUSH2 0x3985 JUMP JUMPDEST PUSH2 0x2B0C JUMPI PUSH1 0x40 MLOAD PUSH3 0x461BCD PUSH1 0xE5 SHL DUP2 MSTORE PUSH1 0x4 ADD PUSH2 0xCA8 SWAP1 PUSH2 0x5189 JUMP JUMPDEST PUSH2 0x2B18 DUP5 DUP5 DUP5 DUP5 PUSH2 0x419D JUMP JUMPDEST POP POP POP POP JUMP JUMPDEST PUSH1 0x1 PUSH1 0x1 PUSH1 0xA0 SHL SUB DUP3 AND PUSH1 0x0 SWAP1 DUP2 MSTORE PUSH1 0x12 PUSH1 0x20 MSTORE PUSH1 0x40 DUP2 KECCAK256 PUSH1 0xE SWAP1 DUP2 ADD SLOAD SWAP1 SLOAD PUSH1 0x60 SWAP3 DUP6 SWAP3 SWAP2 PUSH1 0x1 PUSH1 0x1 PUSH1 0x40 SHL SUB DUP2 GT ISZERO PUSH2 0x2B5B JUMPI PUSH2 0x2B5B PUSH2 0x4C92 JUMP JUMPDEST PUSH1 0x40 MLOAD SWAP1 DUP1 DUP3 MSTORE DUP1 PUSH1 0x20 MUL PUSH1 0x20 ADD DUP3 ADD PUSH1 0x40 MSTORE DUP1 ISZERO PUSH2 0x2B84 JUMPI DUP2 PUSH1 0x20 ADD PUSH1 0x20 DUP3 MUL DUP1 CALLDATASIZE DUP4 CALLDATACOPY ADD SWAP1 POP JUMPDEST POP SWAP1 POP PUSH1 0x0 DUP6 PUSH1 0xFF AND PUSH1 0xE SLOAD PUSH2 0x2B9A SWAP2 SWAP1 PUSH2 0x50AC JUMP JUMPDEST SWAP1 POP DUP1 JUMPDEST DUP2 DUP5 GT DUP1 ISZERO PUSH2 0x2BB8 JUMPI POP PUSH1 0xE SLOAD PUSH2 0x2BB5 SWAP1 DUP3 PUSH2 0x4A81 JUMP JUMPDEST DUP3 LT JUMPDEST ISZERO PUSH2 0x128D JUMPI PUSH1 0x1 PUSH1 0x1 PUSH1 0xA0 SHL SUB DUP6 AND PUSH1 0x0 SWAP1 DUP2 MSTORE PUSH1 0x12 PUSH1 0x20 MSTORE PUSH1 0x40 SWAP1 KECCAK256 PUSH1 0xE ADD PUSH1 0x1 PUSH2 0x2BE4 DUP5 DUP8 PUSH2 0x515C JUMP JUMPDEST PUSH2 0x2BEE SWAP2 SWAP1 PUSH2 0x515C JUMP JUMPDEST DUP2 SLOAD DUP2 LT PUSH2 0x2BFE JUMPI PUSH2 0x2BFE PUSH2 0x5173 JUMP JUMPDEST SWAP1 PUSH1 0x0 MSTORE PUSH1 0x20 PUSH1 0x0 KECCAK256 ADD SLOAD DUP4 DUP3 DUP5 PUSH2 0x2C16 SWAP2 SWAP1 PUSH2 0x515C JUMP JUMPDEST DUP2 MLOAD DUP2 LT PUSH2 0x2C26 JUMPI PUSH2 0x2C26 PUSH2 0x5173 JUMP JUMPDEST PUSH1 0x20 SWAP1 DUP2 MUL SWAP2 SWAP1 SWAP2 ADD ADD MSTORE DUP2 PUSH2 0x2C3B DUP2 PUSH2 0x52EA JUMP JUMPDEST SWAP3 POP POP PUSH2 0x2B9E JUMP JUMPDEST PUSH1 0x1 PUSH1 0x1 PUSH1 0xA0 SHL SUB DUP3 AND PUSH1 0x0 SWAP1 DUP2 MSTORE PUSH1 0x12 PUSH1 0x20 MSTORE PUSH1 0x40 SWAP1 KECCAK256 PUSH1 0x8 ADD SLOAD PUSH1 0x60 SWAP1 DUP4 SWAP1 PUSH1 0xFF DUP5 AND DUP2 GT ISZERO PUSH2 0x2D41 JUMPI PUSH1 0x0 DUP5 PUSH1 0xFF AND PUSH1 0x1 PUSH1 0x1 PUSH1 0x40 SHL SUB DUP2 GT ISZERO PUSH2 0x2C8C JUMPI PUSH2 0x2C8C PUSH2 0x4C92 JUMP JUMPDEST PUSH1 0x40 MLOAD SWAP1 DUP1 DUP3 MSTORE DUP1 PUSH1 0x20 MUL PUSH1 0x20 ADD DUP3 ADD PUSH1 0x40 MSTORE DUP1 ISZERO PUSH2 0x2CB5 JUMPI DUP2 PUSH1 0x20 ADD PUSH1 0x20 DUP3 MUL DUP1 CALLDATASIZE DUP4 CALLDATACOPY ADD SWAP1 POP JUMPDEST POP SWAP1 POP PUSH1 0x0 JUMPDEST DUP1 DUP7 PUSH1 0xFF AND GT ISZERO PUSH2 0x2A6C JUMPI PUSH1 0x1 PUSH1 0x1 PUSH1 0xA0 SHL SUB DUP5 AND PUSH1 0x0 SWAP1 DUP2 MSTORE PUSH1 0x12 PUSH1 0x20 MSTORE PUSH1 0x40 SWAP1 KECCAK256 PUSH1 0x8 ADD PUSH1 0x1 PUSH2 0x2CED DUP4 DUP7 PUSH2 0x515C JUMP JUMPDEST PUSH2 0x2CF7 SWAP2 SWAP1 PUSH2 0x515C JUMP JUMPDEST DUP2 SLOAD DUP2 LT PUSH2 0x2D07 JUMPI PUSH2 0x2D07 PUSH2 0x5173 JUMP JUMPDEST SWAP1 PUSH1 0x0 MSTORE PUSH1 0x20 PUSH1 0x0 KECCAK256 ADD SLOAD DUP3 DUP3 DUP2 MLOAD DUP2 LT PUSH2 0x2D24 JUMPI PUSH2 0x2D24 PUSH2 0x5173 JUMP JUMPDEST PUSH1 0x20 SWAP1 DUP2 MUL SWAP2 SWAP1 SWAP2 ADD ADD MSTORE PUSH2 0x2D3A PUSH1 0x1 DUP3 PUSH2 0x4A81 JUMP JUMPDEST SWAP1 POP PUSH2 0x2CBB JUMP JUMPDEST PUSH1 0x1 PUSH1 0x1 PUSH1 0xA0 SHL SUB DUP6 AND PUSH1 0x0 SWAP1 DUP2 MSTORE PUSH1 0x12 PUSH1 0x20 SWAP1 DUP2 MSTORE PUSH1 0x40 SWAP2 DUP3 SWAP1 KECCAK256 PUSH1 0x8 ADD DUP1 SLOAD DUP4 MLOAD DUP2 DUP5 MUL DUP2 ADD DUP5 ADD SWAP1 SWAP5 MSTORE DUP1 DUP5 MSTORE SWAP1 SWAP2 DUP4 ADD DUP3 DUP3 DUP1 ISZERO PUSH2 0x2AD8 JUMPI PUSH1 0x20 MUL DUP3 ADD SWAP2 SWAP1 PUSH1 0x0 MSTORE PUSH1 0x20 PUSH1 0x0 KECCAK256 SWAP1 DUP2 SLOAD DUP2 MSTORE PUSH1 0x20 ADD SWAP1 PUSH1 0x1 ADD SWAP1 DUP1 DUP4 GT PUSH2 0x2AC4 JUMPI POP POP POP POP POP SWAP3 POP POP POP PUSH2 0xD31 JUMP JUMPDEST PUSH1 0x60 PUSH2 0x2DB9 DUP3 PUSH2 0x38C7 JUMP JUMPDEST PUSH1 0x0 PUSH2 0x2DD0 PUSH1 0x40 DUP1 MLOAD PUSH1 0x20 DUP2 ADD SWAP1 SWAP2 MSTORE PUSH1 0x0 DUP2 MSTORE SWAP1 JUMP JUMPDEST SWAP1 POP PUSH1 0x0 DUP2 MLOAD GT PUSH2 0x2DF0 JUMPI PUSH1 0x40 MLOAD DUP1 PUSH1 0x20 ADD PUSH1 0x40 MSTORE DUP1 PUSH1 0x0 DUP2 MSTORE POP PUSH2 0x2E1B JUMP JUMPDEST DUP1 PUSH2 0x2DFA DUP5 PUSH2 0x41D0 JUMP JUMPDEST PUSH1 0x40 MLOAD PUSH1 0x20 ADD PUSH2 0x2E0B SWAP3 SWAP2 SWAP1 PUSH2 0x5303 JUMP JUMPDEST PUSH1 0x40 MLOAD PUSH1 0x20 DUP2 DUP4 SUB SUB DUP2 MSTORE SWAP1 PUSH1 0x40 MSTORE JUMPDEST SWAP4 SWAP3 POP POP POP JUMP JUMPDEST PUSH1 0x1 PUSH1 0x1 PUSH1 0xA0 SHL SUB DUP3 AND PUSH1 0x0 SWAP1 DUP2 MSTORE PUSH1 0x12 PUSH1 0x20 MSTORE PUSH1 0x40 DUP1 DUP3 KECCAK256 PUSH1 0x6 ADD SLOAD DUP2 MLOAD PUSH1 0x14 DUP1 DUP3 MSTORE PUSH2 0x2A0 DUP3 ADD SWAP1 SWAP4 MSTORE PUSH1 0x60 SWAP4 DUP7 SWAP4 SWAP1 SWAP2 SWAP1 DUP2 PUSH1 0x20 ADD PUSH1 0x20 DUP3 MUL DUP1 CALLDATASIZE DUP4 CALLDATACOPY ADD SWAP1 POP POP SWAP1 POP PUSH1 0x0 DUP6 PUSH1 0xFF AND PUSH1 0xE SLOAD PUSH2 0x2E7B SWAP2 SWAP1 PUSH2 0x50AC JUMP JUMPDEST SWAP1 POP DUP1 JUMPDEST DUP2 DUP5 GT DUP1 ISZERO PUSH2 0x2E99 JUMPI POP PUSH1 0xE SLOAD PUSH2 0x2E96 SWAP1 DUP3 PUSH2 0x4A81 JUMP JUMPDEST DUP3 LT JUMPDEST ISZERO PUSH2 0x128D JUMPI PUSH1 0x1 PUSH1 0x1 PUSH1 0xA0 SHL SUB DUP6 AND PUSH1 0x0 SWAP1 DUP2 MSTORE PUSH1 0x12 PUSH1 0x20 MSTORE PUSH1 0x40 SWAP1 KECCAK256 PUSH1 0x6 ADD PUSH1 0x1 PUSH2 0x2EC5 DUP5 DUP8 PUSH2 0x515C JUMP JUMPDEST PUSH2 0x2ECF SWAP2 SWAP1 PUSH2 0x515C JUMP JUMPDEST DUP2 SLOAD DUP2 LT PUSH2 0x2EDF JUMPI PUSH2 0x2EDF PUSH2 0x5173 JUMP JUMPDEST PUSH1 0x0 SWAP2 DUP3 MSTORE PUSH1 0x20 SWAP1 SWAP2 KECCAK256 ADD SLOAD PUSH1 0x1 PUSH1 0x1 PUSH1 0xA0 SHL SUB AND DUP4 PUSH2 0x2EFF DUP4 DUP6 PUSH2 0x515C JUMP JUMPDEST DUP2 MLOAD DUP2 LT PUSH2 0x2F0F JUMPI PUSH2 0x2F0F PUSH2 0x5173 JUMP JUMPDEST PUSH1 0x1 PUSH1 0x1 PUSH1 0xA0 SHL SUB SWAP1 SWAP3 AND PUSH1 0x20 SWAP3 DUP4 MUL SWAP2 SWAP1 SWAP2 ADD SWAP1 SWAP2 ADD MSTORE PUSH2 0x2F32 PUSH1 0x1 DUP4 PUSH2 0x4A81 JUMP JUMPDEST SWAP2 POP PUSH2 0x2E7F JUMP JUMPDEST PUSH1 0x60 PUSH2 0xD31 DUP3 PUSH1 0xA PUSH2 0x296E JUMP JUMPDEST PUSH1 0x0 DUP1 PUSH2 0x2F51 PUSH2 0x33BA JUMP JUMPDEST PUSH1 0x1 PUSH1 0x1 PUSH1 0xA0 SHL SUB DUP1 DUP3 AND PUSH1 0x0 SWAP1 DUP2 MSTORE PUSH1 0x12 PUSH1 0x20 SWAP1 DUP2 MSTORE PUSH1 0x40 DUP1 DUP4 KECCAK256 SWAP4 DUP9 AND DUP4 MSTORE PUSH1 0x7 SWAP1 SWAP4 ADD SWAP1 MSTORE SWAP1 DUP2 KECCAK256 SLOAD SWAP2 SWAP3 POP DUP5 SWAP2 SWAP1 DUP2 SWAP1 SUB PUSH2 0x2FEB JUMPI PUSH1 0x1 PUSH1 0x1 PUSH1 0xA0 SHL SUB DUP4 DUP2 AND PUSH1 0x0 SWAP1 DUP2 MSTORE PUSH1 0x12 PUSH1 0x20 MSTORE PUSH1 0x40 DUP2 KECCAK256 PUSH1 0x6 ADD DUP1 SLOAD SWAP3 DUP6 AND SWAP3 SWAP1 SWAP2 SWAP1 PUSH2 0x2FBB JUMPI PUSH2 0x2FBB PUSH2 0x5173 JUMP JUMPDEST PUSH1 0x0 SWAP2 DUP3 MSTORE PUSH1 0x20 SWAP1 SWAP2 KECCAK256 ADD SLOAD PUSH1 0x1 PUSH1 0x1 PUSH1 0xA0 SHL SUB AND SUB PUSH2 0x2FE0 JUMPI POP PUSH1 0x1 SWAP5 SWAP4 POP POP POP POP JUMP JUMPDEST POP PUSH1 0x0 SWAP5 SWAP4 POP POP POP POP JUMP JUMPDEST POP PUSH1 0x1 SWAP5 SWAP4 POP POP POP POP JUMP JUMPDEST PUSH1 0x0 PUSH2 0x3000 PUSH2 0x33BA JUMP JUMPDEST PUSH1 0x1 PUSH1 0x1 PUSH1 0xA0 SHL SUB DUP2 AND PUSH1 0x0 SWAP1 DUP2 MSTORE PUSH1 0x12 PUSH1 0x20 SWAP1 DUP2 MSTORE PUSH1 0x40 SWAP1 SWAP2 KECCAK256 DUP5 MLOAD SWAP3 SWAP4 POP PUSH2 0xF00 SWAP3 PUSH1 0x3 SWAP1 SWAP2 ADD SWAP2 DUP6 ADD SWAP1 PUSH2 0x49D2 JUMP JUMPDEST PUSH1 0xB SLOAD PUSH1 0x1 PUSH1 0x1 PUSH1 0xA0 SHL SUB AND PUSH2 0x305A JUMPI PUSH1 0x40 MLOAD PUSH3 0x461BCD PUSH1 0xE5 SHL DUP2 MSTORE PUSH1 0x4 ADD PUSH2 0xCA8 SWAP1 PUSH2 0x524E JUMP JUMPDEST PUSH1 0x10 SLOAD PUSH1 0x0 PUSH1 0x6 PUSH2 0x306B GASPRICE DUP5 PUSH2 0x50AC JUMP JUMPDEST PUSH2 0x3075 SWAP2 SWAP1 PUSH2 0x50E1 JUMP JUMPDEST SWAP1 POP PUSH1 0x64 PUSH2 0x3084 DUP3 PUSH1 0x5C PUSH2 0x50AC JUMP JUMPDEST PUSH2 0x308E SWAP2 SWAP1 PUSH2 0x50E1 JUMP JUMPDEST CALLVALUE LT ISZERO PUSH2 0x30AD JUMPI PUSH1 0x40 MLOAD PUSH3 0x461BCD PUSH1 0xE5 SHL DUP2 MSTORE PUSH1 0x4 ADD PUSH2 0xCA8 SWAP1 PUSH2 0x50F5 JUMP JUMPDEST CALLVALUE PUSH1 0xD PUSH1 0x0 DUP3 DUP3 SLOAD PUSH2 0x30BF SWAP2 SWAP1 PUSH2 0x4A81 JUMP JUMPDEST SWAP1 SWAP2 SSTORE POP PUSH1 0x0 SWAP1 POP PUSH2 0x30CF PUSH2 0x33BA JUMP JUMPDEST PUSH1 0x1 PUSH1 0x1 PUSH1 0xA0 SHL SUB DUP2 AND PUSH1 0x0 SWAP1 DUP2 MSTORE PUSH1 0x12 PUSH1 0x20 SWAP1 DUP2 MSTORE PUSH1 0x40 DUP1 DUP4 KECCAK256 DUP9 DUP5 MSTORE PUSH1 0x9 ADD SWAP1 SWAP2 MSTORE DUP2 KECCAK256 SLOAD SWAP2 SWAP3 POP DUP2 SWAP1 SUB PUSH2 0x3289 JUMPI PUSH1 0x1 PUSH1 0x1 PUSH1 0xA0 SHL SUB DUP3 AND PUSH1 0x0 SWAP1 DUP2 MSTORE PUSH1 0x12 PUSH1 0x20 MSTORE PUSH1 0x40 SWAP1 KECCAK256 PUSH1 0x8 ADD SLOAD ISZERO PUSH2 0x31A5 JUMPI PUSH1 0x1 PUSH1 0x1 PUSH1 0xA0 SHL SUB DUP3 AND PUSH1 0x0 SWAP1 DUP2 MSTORE PUSH1 0x12 PUSH1 0x20 MSTORE PUSH1 0x40 DUP2 KECCAK256 PUSH1 0x8 ADD DUP1 SLOAD DUP8 SWAP3 SWAP1 PUSH2 0x314D JUMPI PUSH2 0x314D PUSH2 0x5173 JUMP JUMPDEST SWAP1 PUSH1 0x0 MSTORE PUSH1 0x20 PUSH1 0x0 KECCAK256 ADD SLOAD SUB PUSH2 0x31A5 JUMPI PUSH1 0x40 MLOAD PUSH3 0x461BCD PUSH1 0xE5 SHL DUP2 MSTORE PUSH1 0x20 PUSH1 0x4 DUP3 ADD MSTORE PUSH1 0x1A PUSH1 0x24 DUP3 ADD MSTORE PUSH32 0x596F7520616C7265616479206C696B65207468697320706F7374000000000000 PUSH1 0x44 DUP3 ADD MSTORE PUSH1 0x64 ADD PUSH2 0xCA8 JUMP JUMPDEST PUSH1 0x1 PUSH1 0x1 PUSH1 0xA0 SHL SUB DUP3 DUP2 AND PUSH1 0x0 DUP2 DUP2 MSTORE PUSH1 0x12 PUSH1 0x20 DUP2 DUP2 MSTORE PUSH1 0x40 DUP1 DUP5 KECCAK256 PUSH1 0x8 DUP2 ADD DUP1 SLOAD DUP14 DUP8 MSTORE PUSH1 0x9 SWAP1 SWAP3 ADD DUP5 MSTORE DUP3 DUP7 KECCAK256 DUP3 SWAP1 SSTORE SWAP4 DUP4 MSTORE PUSH1 0x1 DUP2 ADD DUP5 SSTORE SWAP3 DUP5 MSTORE SWAP3 KECCAK256 ADD DUP9 SWAP1 SSTORE PUSH1 0xB SLOAD SWAP1 MLOAD PUSH3 0x9A6F97 PUSH1 0xE3 SHL DUP2 MSTORE PUSH1 0x4 DUP2 ADD DUP10 SWAP1 MSTORE PUSH1 0x24 DUP2 ADD SWAP3 SWAP1 SWAP3 MSTORE SWAP1 SWAP2 AND SWAP1 PUSH4 0x4D37CB8 SWAP1 PUSH1 0x44 ADD PUSH1 0x0 PUSH1 0x40 MLOAD DUP1 DUP4 SUB DUP2 PUSH1 0x0 DUP8 DUP1 EXTCODESIZE ISZERO DUP1 ISZERO PUSH2 0x322D JUMPI PUSH1 0x0 DUP1 REVERT JUMPDEST POP GAS CALL ISZERO DUP1 ISZERO PUSH2 0x3241 JUMPI RETURNDATASIZE PUSH1 0x0 DUP1 RETURNDATACOPY RETURNDATASIZE PUSH1 0x0 REVERT JUMPDEST POP POP POP POP DUP5 PUSH2 0x324D CALLER SWAP1 JUMP JUMPDEST PUSH1 0x1 PUSH1 0x1 PUSH1 0xA0 SHL SUB AND PUSH32 0x4EAD190C1EE5C17D621C4E7BC97DB0676F08A4733C66C3A3F9DEAE9C9BBE4B79 PUSH1 0x40 MLOAD PUSH1 0x40 MLOAD DUP1 SWAP2 SUB SWAP1 LOG3 POP POP POP POP POP JUMP JUMPDEST PUSH1 0x40 MLOAD PUSH3 0x461BCD PUSH1 0xE5 SHL DUP2 MSTORE PUSH1 0x20 PUSH1 0x4 DUP3 ADD MSTORE PUSH1 0x1A PUSH1 0x24 DUP3 ADD MSTORE PUSH32 0x596F7520616C7265616479206C696B65207468697320706F7374000000000000 PUSH1 0x44 DUP3 ADD MSTORE PUSH1 0x64 ADD PUSH2 0xCA8 JUMP JUMPDEST PUSH1 0x0 PUSH2 0x32DB PUSH2 0x33BA JUMP JUMPDEST PUSH1 0x1 PUSH1 0x1 PUSH1 0xA0 SHL SUB DUP2 AND PUSH1 0x0 SWAP1 DUP2 MSTORE PUSH1 0x12 PUSH1 0x20 SWAP1 DUP2 MSTORE PUSH1 0x40 SWAP1 SWAP2 KECCAK256 DUP5 MLOAD SWAP3 SWAP4 POP PUSH2 0xF00 SWAP3 PUSH1 0x1 SWAP1 SWAP2 ADD SWAP2 DUP6 ADD SWAP1 PUSH2 0x49D2 JUMP JUMPDEST PUSH2 0x3315 PUSH2 0x3BAB JUMP JUMPDEST PUSH1 0x1 PUSH1 0x1 PUSH1 0xA0 SHL SUB DUP2 AND PUSH2 0x337A JUMPI PUSH1 0x40 MLOAD PUSH3 0x461BCD PUSH1 0xE5 SHL DUP2 MSTORE PUSH1 0x20 PUSH1 0x4 DUP3 ADD MSTORE PUSH1 0x26 PUSH1 0x24 DUP3 ADD MSTORE PUSH32 0x4F776E61626C653A206E6577206F776E657220697320746865207A65726F2061 PUSH1 0x44 DUP3 ADD MSTORE PUSH6 0x646472657373 PUSH1 0xD0 SHL PUSH1 0x64 DUP3 ADD MSTORE PUSH1 0x84 ADD PUSH2 0xCA8 JUMP JUMPDEST PUSH2 0x167B DUP2 PUSH2 0x3EA5 JUMP JUMPDEST PUSH1 0x60 PUSH2 0xD31 DUP3 PUSH1 0x64 PUSH2 0x296E JUMP JUMPDEST PUSH2 0x3398 PUSH2 0x3BAB JUMP JUMPDEST PUSH1 0xC DUP1 SLOAD PUSH1 0x1 PUSH1 0x1 PUSH1 0xA0 SHL SUB NOT AND PUSH1 0x1 PUSH1 0x1 PUSH1 0xA0 SHL SUB SWAP3 SWAP1 SWAP3 AND SWAP2 SWAP1 SWAP2 OR SWAP1 SSTORE JUMP JUMPDEST PUSH1 0x0 CALLER PUSH2 0x33C6 DUP2 PUSH2 0x42D0 JUMP JUMPDEST PUSH2 0x3412 JUMPI PUSH1 0x40 MLOAD PUSH3 0x461BCD PUSH1 0xE5 SHL DUP2 MSTORE PUSH1 0x20 PUSH1 0x4 DUP3 ADD MSTORE PUSH1 0x1D PUSH1 0x24 DUP3 ADD MSTORE PUSH32 0x6164647265737320646F65736E74206861766520612070726F66696C65000000 PUSH1 0x44 DUP3 ADD MSTORE PUSH1 0x64 ADD PUSH2 0xCA8 JUMP JUMPDEST SWAP2 SWAP1 POP JUMP JUMPDEST DUP2 PUSH2 0x342A DUP2 PUSH1 0x1 PUSH1 0x1 PUSH1 0xA0 SHL SUB AND PUSH2 0x42D0 JUMP JUMPDEST PUSH2 0x3446 JUMPI PUSH1 0x40 MLOAD PUSH3 0x461BCD PUSH1 0xE5 SHL DUP2 MSTORE PUSH1 0x4 ADD PUSH2 0xCA8 SWAP1 PUSH2 0x5332 JUMP JUMPDEST DUP2 PUSH2 0x3459 DUP2 PUSH1 0x1 PUSH1 0x1 PUSH1 0xA0 SHL SUB AND PUSH2 0x42D0 JUMP JUMPDEST PUSH2 0x3475 JUMPI PUSH1 0x40 MLOAD PUSH3 0x461BCD PUSH1 0xE5 SHL DUP2 MSTORE PUSH1 0x4 ADD PUSH2 0xCA8 SWAP1 PUSH2 0x5332 JUMP JUMPDEST PUSH1 0x1 PUSH1 0x1 PUSH1 0xA0 SHL SUB DUP5 AND PUSH1 0x0 SWAP1 DUP2 MSTORE PUSH1 0x12 PUSH1 0x20 MSTORE PUSH1 0x40 SWAP1 KECCAK256 PUSH1 0x6 ADD SLOAD PUSH2 0x34AD JUMPI PUSH1 0x40 MLOAD PUSH3 0x461BCD PUSH1 0xE5 SHL DUP2 MSTORE PUSH1 0x4 ADD PUSH2 0xCA8 SWAP1 PUSH2 0x5369 JUMP JUMPDEST PUSH1 0x1 PUSH1 0x1 PUSH1 0xA0 SHL SUB DUP1 DUP6 AND PUSH1 0x0 DUP2 DUP2 MSTORE PUSH1 0x12 PUSH1 0x20 DUP2 DUP2 MSTORE PUSH1 0x40 DUP1 DUP5 KECCAK256 SWAP6 DUP10 AND DUP5 MSTORE PUSH1 0x7 DUP7 ADD DUP3 MSTORE DUP4 KECCAK256 SLOAD SWAP4 DUP4 MSTORE MSTORE PUSH1 0x6 SWAP1 SWAP3 ADD SLOAD SWAP1 SWAP2 DUP3 SWAP1 SUB PUSH2 0x354D JUMPI PUSH1 0x1 PUSH1 0x1 PUSH1 0xA0 SHL SUB DUP7 DUP2 AND PUSH1 0x0 SWAP1 DUP2 MSTORE PUSH1 0x12 PUSH1 0x20 MSTORE PUSH1 0x40 DUP2 KECCAK256 PUSH1 0x6 ADD DUP1 SLOAD SWAP3 DUP9 AND SWAP3 SWAP1 SWAP2 SWAP1 PUSH2 0x351B JUMPI PUSH2 0x351B PUSH2 0x5173 JUMP JUMPDEST PUSH1 0x0 SWAP2 DUP3 MSTORE PUSH1 0x20 SWAP1 SWAP2 KECCAK256 ADD SLOAD PUSH1 0x1 PUSH1 0x1 PUSH1 0xA0 SHL SUB AND EQ PUSH2 0x354D JUMPI PUSH1 0x40 MLOAD PUSH3 0x461BCD PUSH1 0xE5 SHL DUP2 MSTORE PUSH1 0x4 ADD PUSH2 0xCA8 SWAP1 PUSH2 0x5369 JUMP JUMPDEST PUSH2 0x3558 PUSH1 0x1 DUP3 PUSH2 0x515C JUMP JUMPDEST DUP3 EQ PUSH2 0x3660 JUMPI PUSH1 0x1 PUSH1 0x1 PUSH1 0xA0 SHL SUB DUP7 AND PUSH1 0x0 SWAP1 DUP2 MSTORE PUSH1 0x12 PUSH1 0x20 MSTORE PUSH1 0x40 DUP2 KECCAK256 DUP4 SWAP2 PUSH1 0x7 DUP3 ADD SWAP2 PUSH1 0x6 ADD PUSH2 0x358B PUSH1 0x1 DUP7 PUSH2 0x515C JUMP JUMPDEST DUP2 SLOAD DUP2 LT PUSH2 0x359B JUMPI PUSH2 0x359B PUSH2 0x5173 JUMP JUMPDEST PUSH1 0x0 SWAP2 DUP3 MSTORE PUSH1 0x20 DUP1 DUP4 KECCAK256 SWAP1 SWAP2 ADD SLOAD PUSH1 0x1 PUSH1 0x1 PUSH1 0xA0 SHL SUB SWAP1 DUP2 AND DUP5 MSTORE DUP4 DUP3 ADD SWAP5 SWAP1 SWAP5 MSTORE PUSH1 0x40 SWAP3 DUP4 ADD DUP3 KECCAK256 SWAP5 SWAP1 SWAP5 SSTORE SWAP2 DUP10 AND DUP3 MSTORE PUSH1 0x12 SWAP1 SWAP3 MSTORE KECCAK256 PUSH1 0x6 ADD PUSH2 0x35E1 PUSH1 0x1 DUP4 PUSH2 0x515C JUMP JUMPDEST DUP2 SLOAD DUP2 LT PUSH2 0x35F1 JUMPI PUSH2 0x35F1 PUSH2 0x5173 JUMP JUMPDEST PUSH1 0x0 SWAP2 DUP3 MSTORE PUSH1 0x20 DUP1 DUP4 KECCAK256 SWAP1 SWAP2 ADD SLOAD PUSH1 0x1 PUSH1 0x1 PUSH1 0xA0 SHL SUB DUP10 DUP2 AND DUP5 MSTORE PUSH1 0x12 SWAP1 SWAP3 MSTORE PUSH1 0x40 SWAP1 SWAP3 KECCAK256 PUSH1 0x6 ADD DUP1 SLOAD SWAP2 SWAP1 SWAP3 AND SWAP2 SWAP1 DUP5 SWAP1 DUP2 LT PUSH2 0x3631 JUMPI PUSH2 0x3631 PUSH2 0x5173 JUMP JUMPDEST SWAP1 PUSH1 0x0 MSTORE PUSH1 0x20 PUSH1 0x0 KECCAK256 ADD PUSH1 0x0 PUSH2 0x100 EXP DUP2 SLOAD DUP2 PUSH1 0x1 PUSH1 0x1 PUSH1 0xA0 SHL SUB MUL NOT AND SWAP1 DUP4 PUSH1 0x1 PUSH1 0x1 PUSH1 0xA0 SHL SUB AND MUL OR SWAP1 SSTORE POP JUMPDEST PUSH1 0x1 PUSH1 0x1 PUSH1 0xA0 SHL SUB DUP7 AND PUSH1 0x0 SWAP1 DUP2 MSTORE PUSH1 0x12 PUSH1 0x20 MSTORE PUSH1 0x40 SWAP1 KECCAK256 PUSH1 0x6 ADD DUP1 SLOAD DUP1 PUSH2 0x368A JUMPI PUSH2 0x368A PUSH2 0x52D4 JUMP JUMPDEST PUSH1 0x0 DUP3 DUP2 MSTORE PUSH1 0x20 DUP1 DUP3 KECCAK256 DUP4 ADD PUSH1 0x0 NOT SWAP1 DUP2 ADD DUP1 SLOAD PUSH1 0x1 PUSH1 0x1 PUSH1 0xA0 SHL SUB NOT AND SWAP1 SSTORE SWAP1 SWAP3 ADD SWAP1 SWAP3 SSTORE PUSH1 0x1 PUSH1 0x1 PUSH1 0xA0 SHL SUB SWAP8 DUP9 AND DUP3 MSTORE PUSH1 0x12 DUP2 MSTORE PUSH1 0x40 DUP1 DUP4 KECCAK256 SWAP8 SWAP1 SWAP9 AND DUP3 MSTORE PUSH1 0x7 SWAP1 SWAP7 ADD SWAP1 SWAP6 MSTORE POP POP POP SWAP2 DUP2 KECCAK256 SSTORE POP JUMP JUMPDEST PUSH1 0x1 PUSH1 0x1 PUSH1 0xA0 SHL SUB DUP1 DUP3 AND PUSH1 0x0 DUP2 DUP2 MSTORE PUSH1 0x12 PUSH1 0x20 DUP2 DUP2 MSTORE PUSH1 0x40 DUP1 DUP5 KECCAK256 SWAP6 DUP9 AND DUP5 MSTORE PUSH1 0x5 DUP7 ADD DUP3 MSTORE DUP4 KECCAK256 SLOAD SWAP4 SWAP1 SWAP3 MSTORE SWAP1 MSTORE PUSH1 0x4 SWAP1 SWAP2 ADD SLOAD PUSH2 0x371F PUSH1 0x1 DUP3 PUSH2 0x515C JUMP JUMPDEST DUP3 EQ PUSH2 0x3827 JUMPI PUSH1 0x1 PUSH1 0x1 PUSH1 0xA0 SHL SUB DUP4 AND PUSH1 0x0 SWAP1 DUP2 MSTORE PUSH1 0x12 PUSH1 0x20 MSTORE PUSH1 0x40 DUP2 KECCAK256 DUP4 SWAP2 PUSH1 0x5 DUP3 ADD SWAP2 PUSH1 0x4 ADD PUSH2 0x3752 PUSH1 0x1 DUP7 PUSH2 0x515C JUMP JUMPDEST DUP2 SLOAD DUP2 LT PUSH2 0x3762 JUMPI PUSH2 0x3762 PUSH2 0x5173 JUMP JUMPDEST PUSH1 0x0 SWAP2 DUP3 MSTORE PUSH1 0x20 DUP1 DUP4 KECCAK256 SWAP1 SWAP2 ADD SLOAD PUSH1 0x1 PUSH1 0x1 PUSH1 0xA0 SHL SUB SWAP1 DUP2 AND DUP5 MSTORE DUP4 DUP3 ADD SWAP5 SWAP1 SWAP5 MSTORE PUSH1 0x40 SWAP3 DUP4 ADD DUP3 KECCAK256 SWAP5 SWAP1 SWAP5 SSTORE SWAP2 DUP7 AND DUP3 MSTORE PUSH1 0x12 SWAP1 SWAP3 MSTORE KECCAK256 PUSH1 0x4 ADD PUSH2 0x37A8 PUSH1 0x1 DUP4 PUSH2 0x515C JUMP JUMPDEST DUP2 SLOAD DUP2 LT PUSH2 0x37B8 JUMPI PUSH2 0x37B8 PUSH2 0x5173 JUMP JUMPDEST PUSH1 0x0 SWAP2 DUP3 MSTORE PUSH1 0x20 DUP1 DUP4 KECCAK256 SWAP1 SWAP2 ADD SLOAD PUSH1 0x1 PUSH1 0x1 PUSH1 0xA0 SHL SUB DUP7 DUP2 AND DUP5 MSTORE PUSH1 0x12 SWAP1 SWAP3 MSTORE PUSH1 0x40 SWAP1 SWAP3 KECCAK256 PUSH1 0x4 ADD DUP1 SLOAD SWAP2 SWAP1 SWAP3 AND SWAP2 SWAP1 DUP5 SWAP1 DUP2 LT PUSH2 0x37F8 JUMPI PUSH2 0x37F8 PUSH2 0x5173 JUMP JUMPDEST SWAP1 PUSH1 0x0 MSTORE PUSH1 0x20 PUSH1 0x0 KECCAK256 ADD PUSH1 0x0 PUSH2 0x100 EXP DUP2 SLOAD DUP2 PUSH1 0x1 PUSH1 0x1 PUSH1 0xA0 SHL SUB MUL NOT AND SWAP1 DUP4 PUSH1 0x1 PUSH1 0x1 PUSH1 0xA0 SHL SUB AND MUL OR SWAP1 SSTORE POP JUMPDEST PUSH1 0x1 PUSH1 0x1 PUSH1 0xA0 SHL SUB DUP4 AND PUSH1 0x0 SWAP1 DUP2 MSTORE PUSH1 0x12 PUSH1 0x20 MSTORE PUSH1 0x40 SWAP1 KECCAK256 PUSH1 0x4 ADD DUP1 SLOAD DUP1 PUSH2 0x3851 JUMPI PUSH2 0x3851 PUSH2 0x52D4 JUMP JUMPDEST PUSH1 0x0 DUP3 DUP2 MSTORE PUSH1 0x20 DUP1 DUP3 KECCAK256 DUP4 ADD PUSH1 0x0 NOT SWAP1 DUP2 ADD DUP1 SLOAD PUSH1 0x1 PUSH1 0x1 PUSH1 0xA0 SHL SUB NOT AND SWAP1 SSTORE SWAP1 SWAP3 ADD SWAP1 SWAP3 SSTORE PUSH1 0x1 PUSH1 0x1 PUSH1 0xA0 SHL SUB SWAP5 DUP6 AND DUP3 MSTORE PUSH1 0x12 DUP2 MSTORE PUSH1 0x40 DUP1 DUP4 KECCAK256 SWAP7 SWAP1 SWAP6 AND DUP3 MSTORE PUSH1 0x5 SWAP1 SWAP6 ADD SWAP1 SWAP5 MSTORE POP POP DUP2 KECCAK256 SSTORE JUMP JUMPDEST PUSH1 0x0 PUSH1 0x1 PUSH1 0x1 PUSH1 0xE0 SHL SUB NOT DUP3 AND PUSH4 0x780E9D63 PUSH1 0xE0 SHL EQ DUP1 PUSH2 0xD31 JUMPI POP PUSH2 0xD31 DUP3 PUSH2 0x42ED JUMP JUMPDEST PUSH2 0x38D0 DUP2 PUSH2 0x42D0 JUMP JUMPDEST PUSH2 0x167B JUMPI PUSH1 0x40 MLOAD PUSH3 0x461BCD PUSH1 0xE5 SHL DUP2 MSTORE PUSH1 0x20 PUSH1 0x4 DUP3 ADD MSTORE PUSH1 0x18 PUSH1 0x24 DUP3 ADD MSTORE PUSH24 0x115490CDCC8C4E881A5B9D985B1A59081D1BDAD95B881251 PUSH1 0x42 SHL PUSH1 0x44 DUP3 ADD MSTORE PUSH1 0x64 ADD PUSH2 0xCA8 JUMP JUMPDEST PUSH1 0x0 DUP2 DUP2 MSTORE PUSH1 0x4 PUSH1 0x20 MSTORE PUSH1 0x40 SWAP1 KECCAK256 DUP1 SLOAD PUSH1 0x1 PUSH1 0x1 PUSH1 0xA0 SHL SUB NOT AND PUSH1 0x1 PUSH1 0x1 PUSH1 0xA0 SHL SUB DUP5 AND SWAP1 DUP2 OR SWAP1 SWAP2 SSTORE DUP2 SWAP1 PUSH2 0x394C DUP3 PUSH2 0x1AD0 JUMP JUMPDEST PUSH1 0x1 PUSH1 0x1 PUSH1 0xA0 SHL SUB AND PUSH32 0x8C5BE1E5EBEC7D5BD14F71427D1E84F3DD0314C0F7B2291E5B200AC8C7C3B925 PUSH1 0x40 MLOAD PUSH1 0x40 MLOAD DUP1 SWAP2 SUB SWAP1 LOG4 POP POP JUMP JUMPDEST PUSH1 0x0 DUP1 PUSH2 0x3991 DUP4 PUSH2 0x1AD0 JUMP JUMPDEST SWAP1 POP DUP1 PUSH1 0x1 PUSH1 0x1 PUSH1 0xA0 SHL SUB AND DUP5 PUSH1 0x1 PUSH1 0x1 PUSH1 0xA0 SHL SUB AND EQ DUP1 PUSH2 0x39D8 JUMPI POP PUSH1 0x1 PUSH1 0x1 PUSH1 0xA0 SHL SUB DUP1 DUP3 AND PUSH1 0x0 SWAP1 DUP2 MSTORE PUSH1 0x5 PUSH1 0x20 SWAP1 DUP2 MSTORE PUSH1 0x40 DUP1 DUP4 KECCAK256 SWAP4 DUP9 AND DUP4 MSTORE SWAP3 SWAP1 MSTORE KECCAK256 SLOAD PUSH1 0xFF AND JUMPDEST DUP1 PUSH2 0x39FC JUMPI POP DUP4 PUSH1 0x1 PUSH1 0x1 PUSH1 0xA0 SHL SUB AND PUSH2 0x39F1 DUP5 PUSH2 0xDC9 JUMP JUMPDEST PUSH1 0x1 PUSH1 0x1 PUSH1 0xA0 SHL SUB AND EQ JUMPDEST SWAP5 SWAP4 POP POP POP POP JUMP JUMPDEST DUP3 PUSH1 0x1 PUSH1 0x1 PUSH1 0xA0 SHL SUB AND PUSH2 0x3A17 DUP3 PUSH2 0x1AD0 JUMP JUMPDEST PUSH1 0x1 PUSH1 0x1 PUSH1 0xA0 SHL SUB AND EQ PUSH2 0x3A7B JUMPI PUSH1 0x40 MLOAD PUSH3 0x461BCD PUSH1 0xE5 SHL DUP2 MSTORE PUSH1 0x20 PUSH1 0x4 DUP3 ADD MSTORE PUSH1 0x25 PUSH1 0x24 DUP3 ADD MSTORE PUSH32 0x4552433732313A207472616E736665722066726F6D20696E636F727265637420 PUSH1 0x44 DUP3 ADD MSTORE PUSH5 0x37BBB732B9 PUSH1 0xD9 SHL PUSH1 0x64 DUP3 ADD MSTORE PUSH1 0x84 ADD PUSH2 0xCA8 JUMP JUMPDEST PUSH1 0x1 PUSH1 0x1 PUSH1 0xA0 SHL SUB DUP3 AND PUSH2 0x3ADD JUMPI PUSH1 0x40 MLOAD PUSH3 0x461BCD PUSH1 0xE5 SHL DUP2 MSTORE PUSH1 0x20 PUSH1 0x4 DUP3 ADD MSTORE PUSH1 0x24 DUP1 DUP3 ADD MSTORE PUSH32 0x4552433732313A207472616E7366657220746F20746865207A65726F20616464 PUSH1 0x44 DUP3 ADD MSTORE PUSH4 0x72657373 PUSH1 0xE0 SHL PUSH1 0x64 DUP3 ADD MSTORE PUSH1 0x84 ADD PUSH2 0xCA8 JUMP JUMPDEST PUSH2 0x3AE8 DUP4 DUP4 DUP4 PUSH2 0x433D JUMP JUMPDEST PUSH2 0x3AF3 PUSH1 0x0 DUP3 PUSH2 0x3917 JUMP JUMPDEST PUSH1 0x1 PUSH1 0x1 PUSH1 0xA0 SHL SUB DUP4 AND PUSH1 0x0 SWAP1 DUP2 MSTORE PUSH1 0x3 PUSH1 0x20 MSTORE PUSH1 0x40 DUP2 KECCAK256 DUP1 SLOAD PUSH1 0x1 SWAP3 SWAP1 PUSH2 0x3B1C SWAP1 DUP5 SWAP1 PUSH2 0x515C JUMP JUMPDEST SWAP1 SWAP2 SSTORE POP POP PUSH1 0x1 PUSH1 0x1 PUSH1 0xA0 SHL SUB DUP3 AND PUSH1 0x0 SWAP1 DUP2 MSTORE PUSH1 0x3 PUSH1 0x20 MSTORE PUSH1 0x40 DUP2 KECCAK256 DUP1 SLOAD PUSH1 0x1 SWAP3 SWAP1 PUSH2 0x3B4A SWAP1 DUP5 SWAP1 PUSH2 0x4A81 JUMP JUMPDEST SWAP1 SWAP2 SSTORE POP POP PUSH1 0x0 DUP2 DUP2 MSTORE PUSH1 0x2 PUSH1 0x20 MSTORE PUSH1 0x40 DUP1 DUP3 KECCAK256 DUP1 SLOAD PUSH1 0x1 PUSH1 0x1 PUSH1 0xA0 SHL SUB NOT AND PUSH1 0x1 PUSH1 0x1 PUSH1 0xA0 SHL SUB DUP7 DUP2 AND SWAP2 DUP3 OR SWAP1 SWAP3 SSTORE SWAP2 MLOAD DUP5 SWAP4 SWAP2 DUP8 AND SWAP2 PUSH32 0xDDF252AD1BE2C89B69C2B068FC378DAA952BA7F163C4A11628F55A4DF523B3EF SWAP2 LOG4 POP POP POP JUMP JUMPDEST PUSH1 0xA SLOAD PUSH1 0x1 PUSH1 0x1 PUSH1 0xA0 SHL SUB PUSH2 0x100 SWAP1 SWAP2 DIV AND CALLER EQ PUSH2 0x1D80 JUMPI PUSH1 0x40 MLOAD PUSH3 0x461BCD PUSH1 0xE5 SHL DUP2 MSTORE PUSH1 0x20 PUSH1 0x4 DUP3 ADD DUP2 SWAP1 MSTORE PUSH1 0x24 DUP3 ADD MSTORE PUSH32 0x4F776E61626C653A2063616C6C6572206973206E6F7420746865206F776E6572 PUSH1 0x44 DUP3 ADD MSTORE PUSH1 0x64 ADD PUSH2 0xCA8 JUMP JUMPDEST PUSH1 0x0 PUSH2 0x3C16 DUP3 PUSH2 0x1AD0 JUMP JUMPDEST SWAP1 POP PUSH2 0x3C24 DUP2 PUSH1 0x0 DUP5 PUSH2 0x433D JUMP JUMPDEST PUSH2 0x3C2F PUSH1 0x0 DUP4 PUSH2 0x3917 JUMP JUMPDEST PUSH1 0x1 PUSH1 0x1 PUSH1 0xA0 SHL SUB DUP2 AND PUSH1 0x0 SWAP1 DUP2 MSTORE PUSH1 0x3 PUSH1 0x20 MSTORE PUSH1 0x40 DUP2 KECCAK256 DUP1 SLOAD PUSH1 0x1 SWAP3 SWAP1 PUSH2 0x3C58 SWAP1 DUP5 SWAP1 PUSH2 0x515C JUMP JUMPDEST SWAP1 SWAP2 SSTORE POP POP PUSH1 0x0 DUP3 DUP2 MSTORE PUSH1 0x2 PUSH1 0x20 MSTORE PUSH1 0x40 DUP1 DUP3 KECCAK256 DUP1 SLOAD PUSH1 0x1 PUSH1 0x1 PUSH1 0xA0 SHL SUB NOT AND SWAP1 SSTORE MLOAD DUP4 SWAP2 SWAP1 PUSH1 0x1 PUSH1 0x1 PUSH1 0xA0 SHL SUB DUP5 AND SWAP1 PUSH32 0xDDF252AD1BE2C89B69C2B068FC378DAA952BA7F163C4A11628F55A4DF523B3EF SWAP1 DUP4 SWAP1 LOG4 POP POP JUMP JUMPDEST DUP2 PUSH2 0x3CC5 DUP2 PUSH1 0x1 PUSH1 0x1 PUSH1 0xA0 SHL SUB AND PUSH2 0x42D0 JUMP JUMPDEST PUSH2 0x3CE1 JUMPI PUSH1 0x40 MLOAD PUSH3 0x461BCD PUSH1 0xE5 SHL DUP2 MSTORE PUSH1 0x4 ADD PUSH2 0xCA8 SWAP1 PUSH2 0x5332 JUMP JUMPDEST DUP2 PUSH2 0x3CF4 DUP2 PUSH1 0x1 PUSH1 0x1 PUSH1 0xA0 SHL SUB AND PUSH2 0x42D0 JUMP JUMPDEST PUSH2 0x3D10 JUMPI PUSH1 0x40 MLOAD PUSH3 0x461BCD PUSH1 0xE5 SHL DUP2 MSTORE PUSH1 0x4 ADD PUSH2 0xCA8 SWAP1 PUSH2 0x5332 JUMP JUMPDEST POP POP PUSH1 0x1 PUSH1 0x1 PUSH1 0xA0 SHL SUB SWAP2 DUP3 AND PUSH1 0x0 DUP2 DUP2 MSTORE PUSH1 0x12 PUSH1 0x20 DUP2 DUP2 MSTORE PUSH1 0x40 DUP1 DUP5 KECCAK256 PUSH1 0x6 DUP1 DUP3 ADD DUP1 SLOAD SWAP9 SWAP1 SWAP10 AND DUP1 DUP8 MSTORE PUSH1 0x7 SWAP1 SWAP3 ADD DUP5 MSTORE DUP3 DUP7 KECCAK256 DUP9 SWAP1 SSTORE DUP5 DUP5 MSTORE PUSH1 0x1 DUP1 DUP10 ADD DUP11 SSTORE SWAP9 DUP7 MSTORE DUP4 DUP7 KECCAK256 SWAP1 SWAP8 ADD DUP1 SLOAD PUSH1 0x1 PUSH1 0x1 PUSH1 0xA0 SHL SUB NOT SWAP1 DUP2 AND DUP4 OR SWAP1 SWAP2 SSTORE SWAP1 DUP6 MSTORE DUP2 DUP6 KECCAK256 SWAP7 DUP8 ADD SLOAD DUP7 DUP7 MSTORE PUSH1 0x5 DUP9 ADD DUP5 MSTORE SWAP2 DUP6 KECCAK256 SWAP2 SWAP1 SWAP2 SSTORE SWAP2 DUP2 MSTORE PUSH1 0x4 SWAP1 SWAP5 ADD DUP1 SLOAD SWAP6 DUP7 ADD DUP2 SSTORE DUP3 MSTORE SWAP3 SWAP1 KECCAK256 SWAP1 SWAP3 ADD DUP1 SLOAD SWAP1 SWAP2 AND SWAP1 SWAP2 OR SWAP1 SSTORE JUMP JUMPDEST PUSH1 0x1 PUSH1 0x1 PUSH1 0xA0 SHL SUB SWAP1 SWAP2 AND PUSH1 0x0 SWAP1 DUP2 MSTORE PUSH1 0x12 PUSH1 0x20 DUP2 DUP2 MSTORE PUSH1 0x40 DUP1 DUP5 KECCAK256 PUSH1 0xA DUP2 ADD DUP1 SLOAD DUP8 DUP8 MSTORE PUSH1 0xB SWAP1 SWAP3 ADD DUP5 MSTORE SWAP2 DUP6 KECCAK256 DUP2 SWAP1 SSTORE SWAP3 DUP3 MSTORE PUSH1 0x1 DUP4 ADD DUP2 SSTORE DUP4 MSTORE SWAP1 SWAP2 KECCAK256 ADD SSTORE JUMP JUMPDEST PUSH1 0x0 DUP1 PUSH1 0x0 PUSH2 0x3E18 DUP6 PUSH1 0x40 MLOAD DUP1 PUSH1 0x40 ADD PUSH1 0x40 MSTORE DUP1 PUSH1 0x2 DUP2 MSTORE PUSH1 0x20 ADD PUSH1 0x81 PUSH1 0xF6 SHL DUP2 MSTORE POP PUSH2 0x43AF JUMP JUMPDEST SWAP1 POP PUSH1 0x0 PUSH2 0x3E40 DUP7 PUSH1 0x40 MLOAD DUP1 PUSH1 0x40 ADD PUSH1 0x40 MSTORE DUP1 PUSH1 0x2 DUP2 MSTORE PUSH1 0x20 ADD PUSH2 0x2023 PUSH1 0xF0 SHL DUP2 MSTORE POP PUSH2 0x43AF JUMP JUMPDEST PUSH2 0x3E49 SWAP1 PUSH2 0x53AB JUMP JUMPDEST SWAP1 POP PUSH1 0x0 PUSH2 0x3E56 DUP4 PUSH2 0x455E JUMP JUMPDEST PUSH1 0x1 PUSH1 0x1 PUSH1 0xA0 SHL SUB DUP2 AND PUSH1 0x0 SWAP1 DUP2 MSTORE PUSH1 0x12 PUSH1 0x20 DUP2 DUP2 MSTORE PUSH1 0x40 DUP1 DUP5 KECCAK256 PUSH1 0xC DUP2 ADD DUP1 SLOAD DUP14 DUP8 MSTORE PUSH1 0xD SWAP1 SWAP3 ADD DUP5 MSTORE SWAP2 DUP6 KECCAK256 DUP2 SWAP1 SSTORE SWAP3 DUP3 MSTORE PUSH1 0x1 DUP4 ADD DUP2 SSTORE DUP4 MSTORE SWAP1 SWAP2 KECCAK256 ADD SWAP7 SWAP1 SWAP7 SSTORE POP SWAP4 SWAP6 SWAP4 SWAP5 POP POP POP POP JUMP JUMPDEST PUSH1 0xA DUP1 SLOAD PUSH1 0x1 PUSH1 0x1 PUSH1 0xA0 SHL SUB DUP4 DUP2 AND PUSH2 0x100 DUP2 DUP2 MUL PUSH2 0x100 PUSH1 0x1 PUSH1 0xA8 SHL SUB NOT DUP6 AND OR SWAP1 SWAP5 SSTORE PUSH1 0x40 MLOAD SWAP4 SWAP1 SWAP3 DIV AND SWAP2 DUP3 SWAP1 PUSH32 0x8BE0079C531659141344CD1FD0A4F28419497F9722A3DAAFE3B4186F6B6457E0 SWAP1 PUSH1 0x0 SWAP1 LOG3 POP POP JUMP JUMPDEST PUSH1 0x0 SELFBALANCE PUSH1 0xD SLOAD EQ PUSH2 0x3F8A JUMPI PUSH1 0x0 PUSH1 0xD SSTORE PUSH1 0x40 MLOAD SELFBALANCE DUP2 MSTORE PUSH32 0x40D049D1CF483938324A7677B589A685D17B34E3795B2E32D749BEAA1A305E3D SWAP1 PUSH1 0x20 ADD PUSH1 0x40 MLOAD DUP1 SWAP2 SUB SWAP1 LOG1 PUSH1 0xA SLOAD PUSH1 0x40 MLOAD PUSH1 0x1 PUSH1 0x1 PUSH1 0xA0 SHL SUB PUSH2 0x100 SWAP1 SWAP3 DIV SWAP2 SWAP1 SWAP2 AND SWAP1 SELFBALANCE DUP1 ISZERO PUSH2 0x8FC MUL SWAP2 PUSH1 0x0 DUP2 DUP2 DUP2 DUP6 DUP9 DUP9 CALL SWAP4 POP POP POP POP ISZERO DUP1 ISZERO PUSH2 0x3F82 JUMPI RETURNDATASIZE PUSH1 0x0 DUP1 RETURNDATACOPY RETURNDATASIZE PUSH1 0x0 REVERT JUMPDEST POP PUSH1 0x0 SWAP1 POP SWAP1 JUMP JUMPDEST POP PUSH1 0x1 SWAP1 JUMP JUMPDEST DUP2 PUSH1 0x1 PUSH1 0x1 PUSH1 0xA0 SHL SUB AND DUP4 PUSH1 0x1 PUSH1 0x1 PUSH1 0xA0 SHL SUB AND SUB PUSH2 0x3FF1 JUMPI PUSH1 0x40 MLOAD PUSH3 0x461BCD PUSH1 0xE5 SHL DUP2 MSTORE PUSH1 0x20 PUSH1 0x4 DUP3 ADD MSTORE PUSH1 0x19 PUSH1 0x24 DUP3 ADD MSTORE PUSH32 0x4552433732313A20617070726F766520746F2063616C6C657200000000000000 PUSH1 0x44 DUP3 ADD MSTORE PUSH1 0x64 ADD PUSH2 0xCA8 JUMP JUMPDEST PUSH1 0x1 PUSH1 0x1 PUSH1 0xA0 SHL SUB DUP4 DUP2 AND PUSH1 0x0 DUP2 DUP2 MSTORE PUSH1 0x5 PUSH1 0x20 SWAP1 DUP2 MSTORE PUSH1 0x40 DUP1 DUP4 KECCAK256 SWAP5 DUP8 AND DUP1 DUP5 MSTORE SWAP5 DUP3 MSTORE SWAP2 DUP3 SWAP1 KECCAK256 DUP1 SLOAD PUSH1 0xFF NOT AND DUP7 ISZERO ISZERO SWAP1 DUP2 OR SWAP1 SWAP2 SSTORE SWAP2 MLOAD SWAP2 DUP3 MSTORE PUSH32 0x17307EAB39AB6107E8899845AD3D59BD9653F200F220920489CA2B5937696C31 SWAP2 ADD PUSH1 0x40 MLOAD DUP1 SWAP2 SUB SWAP1 LOG3 POP POP POP JUMP JUMPDEST PUSH1 0x1 PUSH1 0x1 PUSH1 0xA0 SHL SUB DUP3 AND PUSH2 0x40B4 JUMPI PUSH1 0x40 MLOAD PUSH3 0x461BCD PUSH1 0xE5 SHL DUP2 MSTORE PUSH1 0x20 PUSH1 0x4 DUP3 ADD DUP2 SWAP1 MSTORE PUSH1 0x24 DUP3 ADD MSTORE PUSH32 0x4552433732313A206D696E7420746F20746865207A65726F2061646472657373 PUSH1 0x44 DUP3 ADD MSTORE PUSH1 0x64 ADD PUSH2 0xCA8 JUMP JUMPDEST PUSH2 0x40BD DUP2 PUSH2 0x42D0 JUMP JUMPDEST ISZERO PUSH2 0x410A JUMPI PUSH1 0x40 MLOAD PUSH3 0x461BCD PUSH1 0xE5 SHL DUP2 MSTORE PUSH1 0x20 PUSH1 0x4 DUP3 ADD MSTORE PUSH1 0x1C PUSH1 0x24 DUP3 ADD MSTORE PUSH32 0x4552433732313A20746F6B656E20616C7265616479206D696E74656400000000 PUSH1 0x44 DUP3 ADD MSTORE PUSH1 0x64 ADD PUSH2 0xCA8 JUMP JUMPDEST PUSH2 0x4116 PUSH1 0x0 DUP4 DUP4 PUSH2 0x433D JUMP JUMPDEST PUSH1 0x1 PUSH1 0x1 PUSH1 0xA0 SHL SUB DUP3 AND PUSH1 0x0 SWAP1 DUP2 MSTORE PUSH1 0x3 PUSH1 0x20 MSTORE PUSH1 0x40 DUP2 KECCAK256 DUP1 SLOAD PUSH1 0x1 SWAP3 SWAP1 PUSH2 0x413F SWAP1 DUP5 SWAP1 PUSH2 0x4A81 JUMP JUMPDEST SWAP1 SWAP2 SSTORE POP POP PUSH1 0x0 DUP2 DUP2 MSTORE PUSH1 0x2 PUSH1 0x20 MSTORE PUSH1 0x40 DUP1 DUP3 KECCAK256 DUP1 SLOAD PUSH1 0x1 PUSH1 0x1 PUSH1 0xA0 SHL SUB NOT AND PUSH1 0x1 PUSH1 0x1 PUSH1 0xA0 SHL SUB DUP7 AND SWAP1 DUP2 OR SWAP1 SWAP2 SSTORE SWAP1 MLOAD DUP4 SWAP3 SWAP1 PUSH32 0xDDF252AD1BE2C89B69C2B068FC378DAA952BA7F163C4A11628F55A4DF523B3EF SWAP1 DUP3 SWAP1 LOG4 POP POP JUMP JUMPDEST PUSH2 0x41A8 DUP5 DUP5 DUP5 PUSH2 0x3A04 JUMP JUMPDEST PUSH2 0x41B4 DUP5 DUP5 DUP5 DUP5 PUSH2 0x45BD JUMP JUMPDEST PUSH2 0x2B18 JUMPI PUSH1 0x40 MLOAD PUSH3 0x461BCD PUSH1 0xE5 SHL DUP2 MSTORE PUSH1 0x4 ADD PUSH2 0xCA8 SWAP1 PUSH2 0x53CF JUMP JUMPDEST PUSH1 0x60 DUP2 PUSH1 0x0 SUB PUSH2 0x41F7 JUMPI POP POP PUSH1 0x40 DUP1 MLOAD DUP1 DUP3 ADD SWAP1 SWAP2 MSTORE PUSH1 0x1 DUP2 MSTORE PUSH1 0x3 PUSH1 0xFC SHL PUSH1 0x20 DUP3 ADD MSTORE SWAP1 JUMP JUMPDEST DUP2 PUSH1 0x0 JUMPDEST DUP2 ISZERO PUSH2 0x4221 JUMPI DUP1 PUSH2 0x420B DUP2 PUSH2 0x52EA JUMP JUMPDEST SWAP2 POP PUSH2 0x421A SWAP1 POP PUSH1 0xA DUP4 PUSH2 0x50E1 JUMP JUMPDEST SWAP2 POP PUSH2 0x41FB JUMP JUMPDEST PUSH1 0x0 DUP2 PUSH1 0x1 PUSH1 0x1 PUSH1 0x40 SHL SUB DUP2 GT ISZERO PUSH2 0x423B JUMPI PUSH2 0x423B PUSH2 0x4C92 JUMP JUMPDEST PUSH1 0x40 MLOAD SWAP1 DUP1 DUP3 MSTORE DUP1 PUSH1 0x1F ADD PUSH1 0x1F NOT AND PUSH1 0x20 ADD DUP3 ADD PUSH1 0x40 MSTORE DUP1 ISZERO PUSH2 0x4265 JUMPI PUSH1 0x20 DUP3 ADD DUP2 DUP1 CALLDATASIZE DUP4 CALLDATACOPY ADD SWAP1 POP JUMPDEST POP SWAP1 POP JUMPDEST DUP5 ISZERO PUSH2 0x39FC JUMPI PUSH2 0x427A PUSH1 0x1 DUP4 PUSH2 0x515C JUMP JUMPDEST SWAP2 POP PUSH2 0x4287 PUSH1 0xA DUP7 PUSH2 0x5421 JUMP JUMPDEST PUSH2 0x4292 SWAP1 PUSH1 0x30 PUSH2 0x4A81 JUMP JUMPDEST PUSH1 0xF8 SHL DUP2 DUP4 DUP2 MLOAD DUP2 LT PUSH2 0x42A7 JUMPI PUSH2 0x42A7 PUSH2 0x5173 JUMP JUMPDEST PUSH1 0x20 ADD ADD SWAP1 PUSH1 0x1 PUSH1 0x1 PUSH1 0xF8 SHL SUB NOT AND SWAP1 DUP2 PUSH1 0x0 BYTE SWAP1 MSTORE8 POP PUSH2 0x42C9 PUSH1 0xA DUP7 PUSH2 0x50E1 JUMP JUMPDEST SWAP5 POP PUSH2 0x4269 JUMP JUMPDEST PUSH1 0x0 SWAP1 DUP2 MSTORE PUSH1 0x2 PUSH1 0x20 MSTORE PUSH1 0x40 SWAP1 KECCAK256 SLOAD PUSH1 0x1 PUSH1 0x1 PUSH1 0xA0 SHL SUB AND ISZERO ISZERO SWAP1 JUMP JUMPDEST PUSH1 0x0 PUSH1 0x1 PUSH1 0x1 PUSH1 0xE0 SHL SUB NOT DUP3 AND PUSH4 0x80AC58CD PUSH1 0xE0 SHL EQ DUP1 PUSH2 0x431E JUMPI POP PUSH1 0x1 PUSH1 0x1 PUSH1 0xE0 SHL SUB NOT DUP3 AND PUSH4 0x5B5E139F PUSH1 0xE0 SHL EQ JUMPDEST DUP1 PUSH2 0xD31 JUMPI POP PUSH4 0x1FFC9A7 PUSH1 0xE0 SHL PUSH1 0x1 PUSH1 0x1 PUSH1 0xE0 SHL SUB NOT DUP4 AND EQ PUSH2 0xD31 JUMP JUMPDEST PUSH1 0xA SLOAD PUSH1 0xFF AND ISZERO PUSH2 0x43A4 JUMPI PUSH1 0x40 MLOAD PUSH3 0x461BCD PUSH1 0xE5 SHL DUP2 MSTORE PUSH1 0x20 PUSH1 0x4 DUP3 ADD MSTORE PUSH1 0x2B PUSH1 0x24 DUP3 ADD MSTORE PUSH32 0x4552433732315061757361626C653A20746F6B656E207472616E736665722077 PUSH1 0x44 DUP3 ADD MSTORE PUSH11 0x1A1A5B19481C185D5CD959 PUSH1 0xAA SHL PUSH1 0x64 DUP3 ADD MSTORE PUSH1 0x84 ADD PUSH2 0xCA8 JUMP JUMPDEST PUSH2 0xF00 DUP4 DUP4 DUP4 PUSH2 0x46B3 JUMP JUMPDEST PUSH1 0x40 DUP1 MLOAD PUSH1 0x2A DUP1 DUP3 MSTORE PUSH1 0x60 DUP3 DUP2 ADD SWAP1 SWAP4 MSTORE DUP4 SWAP2 PUSH1 0x0 SWAP2 PUSH1 0x20 DUP3 ADD DUP2 DUP1 CALLDATASIZE DUP4 CALLDATACOPY ADD SWAP1 POP POP SWAP1 POP PUSH1 0x0 DUP1 DUP1 JUMPDEST DUP5 MLOAD DUP9 MLOAD PUSH2 0x43E7 SWAP2 SWAP1 PUSH2 0x515C JUMP JUMPDEST DUP2 GT PUSH2 0x4552 JUMPI PUSH1 0x1 DUP3 PUSH2 0x4471 JUMPI PUSH1 0x0 JUMPDEST DUP7 MLOAD DUP2 LT ISZERO PUSH2 0x446F JUMPI DUP7 DUP2 DUP2 MLOAD DUP2 LT PUSH2 0x4412 JUMPI PUSH2 0x4412 PUSH2 0x5173 JUMP JUMPDEST ADD PUSH1 0x20 ADD MLOAD PUSH1 0x1 PUSH1 0x1 PUSH1 0xF8 SHL SUB NOT AND DUP11 PUSH2 0x442C DUP4 DUP7 PUSH2 0x4A81 JUMP JUMPDEST DUP2 MLOAD DUP2 LT PUSH2 0x443C JUMPI PUSH2 0x443C PUSH2 0x5173 JUMP JUMPDEST ADD PUSH1 0x20 ADD MLOAD PUSH1 0x1 PUSH1 0x1 PUSH1 0xF8 SHL SUB NOT AND EQ PUSH2 0x4459 JUMPI PUSH1 0x0 SWAP2 POP PUSH2 0x446F JUMP JUMPDEST DUP3 SWAP5 POP DUP1 DUP1 PUSH2 0x4467 SWAP1 PUSH2 0x52EA JUMP JUMPDEST SWAP2 POP POP PUSH2 0x43F7 JUMP JUMPDEST POP JUMPDEST DUP1 ISZERO PUSH2 0x453F JUMPI DUP3 PUSH2 0x4485 JUMPI PUSH1 0x1 SWAP3 POP PUSH2 0x453F JUMP JUMPDEST PUSH1 0x1 PUSH1 0xFD SHL DUP10 PUSH2 0x4496 DUP5 PUSH1 0x1 PUSH2 0x4A81 JUMP JUMPDEST DUP2 MLOAD DUP2 LT PUSH2 0x44A6 JUMPI PUSH2 0x44A6 PUSH2 0x5173 JUMP JUMPDEST ADD PUSH1 0x20 ADD MLOAD PUSH1 0x1 PUSH1 0x1 PUSH1 0xF8 SHL SUB NOT AND EQ DUP1 PUSH2 0x44CA JUMPI POP PUSH1 0x2A PUSH2 0x44C8 DUP6 DUP5 PUSH2 0x515C JUMP JUMPDEST GT JUMPDEST ISZERO PUSH2 0x44D5 JUMPI POP PUSH2 0x4552 JUMP JUMPDEST DUP9 PUSH2 0x44E1 DUP4 PUSH1 0x1 PUSH2 0x4A81 JUMP JUMPDEST DUP2 MLOAD DUP2 LT PUSH2 0x44F1 JUMPI PUSH2 0x44F1 PUSH2 0x5173 JUMP JUMPDEST ADD PUSH1 0x20 ADD MLOAD PUSH1 0x1 PUSH1 0x1 PUSH1 0xF8 SHL SUB NOT AND DUP6 PUSH1 0x1 PUSH2 0x450D DUP8 DUP7 PUSH2 0x515C JUMP JUMPDEST PUSH2 0x4517 SWAP2 SWAP1 PUSH2 0x515C JUMP JUMPDEST DUP2 MLOAD DUP2 LT PUSH2 0x4527 JUMPI PUSH2 0x4527 PUSH2 0x5173 JUMP JUMPDEST PUSH1 0x20 ADD ADD SWAP1 PUSH1 0x1 PUSH1 0x1 PUSH1 0xF8 SHL SUB NOT AND SWAP1 DUP2 PUSH1 0x0 BYTE SWAP1 MSTORE8 POP JUMPDEST POP DUP1 PUSH2 0x454A DUP2 PUSH2 0x52EA JUMP JUMPDEST SWAP2 POP POP PUSH2 0x43D9 JUMP JUMPDEST POP SWAP2 SWAP7 SWAP6 POP POP POP POP POP POP JUMP JUMPDEST PUSH1 0x0 DUP1 DUP1 JUMPDEST DUP4 MLOAD DUP2 LT ISZERO PUSH2 0x45B6 JUMPI PUSH1 0x4 DUP3 SWAP1 SHL SWAP2 POP PUSH2 0x459C DUP5 DUP3 DUP2 MLOAD DUP2 LT PUSH2 0x4588 JUMPI PUSH2 0x4588 PUSH2 0x5173 JUMP JUMPDEST ADD PUSH1 0x20 ADD MLOAD PUSH1 0x1 PUSH1 0x1 PUSH1 0xF8 SHL SUB NOT AND PUSH2 0x476B JUMP JUMPDEST PUSH1 0xFF AND DUP3 OR SWAP2 POP DUP1 DUP1 PUSH2 0x45AE SWAP1 PUSH2 0x52EA JUMP JUMPDEST SWAP2 POP POP PUSH2 0x4563 JUMP JUMPDEST POP SWAP3 SWAP2 POP POP JUMP JUMPDEST PUSH1 0x0 PUSH1 0x1 PUSH1 0x1 PUSH1 0xA0 SHL SUB DUP5 AND EXTCODESIZE ISZERO PUSH2 0x2FEB JUMPI PUSH1 0x40 MLOAD PUSH4 0xA85BD01 PUSH1 0xE1 SHL DUP2 MSTORE PUSH1 0x1 PUSH1 0x1 PUSH1 0xA0 SHL SUB DUP6 AND SWAP1 PUSH4 0x150B7A02 SWAP1 PUSH2 0x4601 SWAP1 CALLER SWAP1 DUP10 SWAP1 DUP9 SWAP1 DUP9 SWAP1 PUSH1 0x4 ADD PUSH2 0x5435 JUMP JUMPDEST PUSH1 0x20 PUSH1 0x40 MLOAD DUP1 DUP4 SUB DUP2 PUSH1 0x0 DUP8 GAS CALL SWAP3 POP POP POP DUP1 ISZERO PUSH2 0x463C JUMPI POP PUSH1 0x40 DUP1 MLOAD PUSH1 0x1F RETURNDATASIZE SWAP1 DUP2 ADD PUSH1 0x1F NOT AND DUP3 ADD SWAP1 SWAP3 MSTORE PUSH2 0x4639 SWAP2 DUP2 ADD SWAP1 PUSH2 0x5472 JUMP JUMPDEST PUSH1 0x1 JUMPDEST PUSH2 0x4699 JUMPI RETURNDATASIZE DUP1 DUP1 ISZERO PUSH2 0x466A JUMPI PUSH1 0x40 MLOAD SWAP2 POP PUSH1 0x1F NOT PUSH1 0x3F RETURNDATASIZE ADD AND DUP3 ADD PUSH1 0x40 MSTORE RETURNDATASIZE DUP3 MSTORE RETURNDATASIZE PUSH1 0x0 PUSH1 0x20 DUP5 ADD RETURNDATACOPY PUSH2 0x466F JUMP JUMPDEST PUSH1 0x60 SWAP2 POP JUMPDEST POP DUP1 MLOAD PUSH1 0x0 SUB PUSH2 0x4691 JUMPI PUSH1 0x40 MLOAD PUSH3 0x461BCD PUSH1 0xE5 SHL DUP2 MSTORE PUSH1 0x4 ADD PUSH2 0xCA8 SWAP1 PUSH2 0x53CF JUMP JUMPDEST DUP1 MLOAD DUP2 PUSH1 0x20 ADD REVERT JUMPDEST PUSH1 0x1 PUSH1 0x1 PUSH1 0xE0 SHL SUB NOT AND PUSH4 0xA85BD01 PUSH1 0xE1 SHL EQ SWAP1 POP PUSH2 0x39FC JUMP JUMPDEST PUSH1 0x1 PUSH1 0x1 PUSH1 0xA0 SHL SUB DUP4 AND PUSH2 0x470E JUMPI PUSH2 0x4709 DUP2 PUSH1 0x8 DUP1 SLOAD PUSH1 0x0 DUP4 DUP2 MSTORE PUSH1 0x9 PUSH1 0x20 MSTORE PUSH1 0x40 DUP2 KECCAK256 DUP3 SWAP1 SSTORE PUSH1 0x1 DUP3 ADD DUP4 SSTORE SWAP2 SWAP1 SWAP2 MSTORE PUSH32 0xF3F7A9FE364FAAB93B216DA50A3214154F22A0A2B415B23A84C8169E8B636EE3 ADD SSTORE JUMP JUMPDEST PUSH2 0x4731 JUMP JUMPDEST DUP2 PUSH1 0x1 PUSH1 0x1 PUSH1 0xA0 SHL SUB AND DUP4 PUSH1 0x1 PUSH1 0x1 PUSH1 0xA0 SHL SUB AND EQ PUSH2 0x4731 JUMPI PUSH2 0x4731 DUP4 DUP3 PUSH2 0x4842 JUMP JUMPDEST PUSH1 0x1 PUSH1 0x1 PUSH1 0xA0 SHL SUB DUP3 AND PUSH2 0x4748 JUMPI PUSH2 0xF00 DUP2 PUSH2 0x48DF JUMP JUMPDEST DUP3 PUSH1 0x1 PUSH1 0x1 PUSH1 0xA0 SHL SUB AND DUP3 PUSH1 0x1 PUSH1 0x1 PUSH1 0xA0 SHL SUB AND EQ PUSH2 0xF00 JUMPI PUSH2 0xF00 DUP3 DUP3 PUSH2 0x498E JUMP JUMPDEST PUSH1 0x0 PUSH1 0x3 PUSH1 0xFC SHL PUSH1 0x1 PUSH1 0x1 PUSH1 0xF8 SHL SUB NOT DUP4 AND LT DUP1 ISZERO SWAP1 PUSH2 0x4799 JUMPI POP PUSH1 0x39 PUSH1 0xF8 SHL PUSH1 0x1 PUSH1 0x1 PUSH1 0xF8 SHL SUB NOT DUP4 AND GT ISZERO JUMPDEST ISZERO PUSH2 0x47AD JUMPI PUSH2 0xD31 PUSH1 0x30 PUSH1 0xF8 DUP5 SWAP1 SHR PUSH2 0x548F JUMP JUMPDEST PUSH1 0x41 PUSH1 0xF8 SHL PUSH1 0x1 PUSH1 0x1 PUSH1 0xF8 SHL SUB NOT DUP4 AND LT DUP1 ISZERO SWAP1 PUSH2 0x47D9 JUMPI POP PUSH1 0x23 PUSH1 0xF9 SHL PUSH1 0x1 PUSH1 0x1 PUSH1 0xF8 SHL SUB NOT DUP4 AND GT ISZERO JUMPDEST ISZERO PUSH2 0x47F9 JUMPI PUSH1 0x41 PUSH2 0x47EF PUSH1 0xF8 DUP5 SWAP1 SHR PUSH1 0xA PUSH2 0x54B2 JUMP JUMPDEST PUSH2 0xD31 SWAP2 SWAP1 PUSH2 0x548F JUMP JUMPDEST PUSH1 0x61 PUSH1 0xF8 SHL PUSH1 0x1 PUSH1 0x1 PUSH1 0xF8 SHL SUB NOT DUP4 AND LT DUP1 ISZERO SWAP1 PUSH2 0x4825 JUMPI POP PUSH1 0x33 PUSH1 0xF9 SHL PUSH1 0x1 PUSH1 0x1 PUSH1 0xF8 SHL SUB NOT DUP4 AND GT ISZERO JUMPDEST ISZERO PUSH2 0x483B JUMPI PUSH1 0x61 PUSH2 0x47EF PUSH1 0xF8 DUP5 SWAP1 SHR PUSH1 0xA PUSH2 0x54B2 JUMP JUMPDEST POP PUSH1 0xF8 SHR SWAP1 JUMP JUMPDEST PUSH1 0x0 PUSH1 0x1 PUSH2 0x484F DUP5 PUSH2 0x1CE8 JUMP JUMPDEST PUSH2 0x4859 SWAP2 SWAP1 PUSH2 0x515C JUMP JUMPDEST PUSH1 0x0 DUP4 DUP2 MSTORE PUSH1 0x7 PUSH1 0x20 MSTORE PUSH1 0x40 SWAP1 KECCAK256 SLOAD SWAP1 SWAP2 POP DUP1 DUP3 EQ PUSH2 0x48AC JUMPI PUSH1 0x1 PUSH1 0x1 PUSH1 0xA0 SHL SUB DUP5 AND PUSH1 0x0 SWAP1 DUP2 MSTORE PUSH1 0x6 PUSH1 0x20 SWAP1 DUP2 MSTORE PUSH1 0x40 DUP1 DUP4 KECCAK256 DUP6 DUP5 MSTORE DUP3 MSTORE DUP1 DUP4 KECCAK256 SLOAD DUP5 DUP5 MSTORE DUP2 DUP5 KECCAK256 DUP2 SWAP1 SSTORE DUP4 MSTORE PUSH1 0x7 SWAP1 SWAP2 MSTORE SWAP1 KECCAK256 DUP2 SWAP1 SSTORE JUMPDEST POP PUSH1 0x0 SWAP2 DUP3 MSTORE PUSH1 0x7 PUSH1 0x20 SWAP1 DUP2 MSTORE PUSH1 0x40 DUP1 DUP5 KECCAK256 DUP5 SWAP1 SSTORE PUSH1 0x1 PUSH1 0x1 PUSH1 0xA0 SHL SUB SWAP1 SWAP5 AND DUP4 MSTORE PUSH1 0x6 DUP2 MSTORE DUP4 DUP4 KECCAK256 SWAP2 DUP4 MSTORE MSTORE SWAP1 DUP2 KECCAK256 SSTORE JUMP JUMPDEST PUSH1 0x8 SLOAD PUSH1 0x0 SWAP1 PUSH2 0x48F1 SWAP1 PUSH1 0x1 SWAP1 PUSH2 0x515C JUMP JUMPDEST PUSH1 0x0 DUP4 DUP2 MSTORE PUSH1 0x9 PUSH1 0x20 MSTORE PUSH1 0x40 DUP2 KECCAK256 SLOAD PUSH1 0x8 DUP1 SLOAD SWAP4 SWAP5 POP SWAP1 SWAP3 DUP5 SWAP1 DUP2 LT PUSH2 0x4919 JUMPI PUSH2 0x4919 PUSH2 0x5173 JUMP JUMPDEST SWAP1 PUSH1 0x0 MSTORE PUSH1 0x20 PUSH1 0x0 KECCAK256 ADD SLOAD SWAP1 POP DUP1 PUSH1 0x8 DUP4 DUP2 SLOAD DUP2 LT PUSH2 0x493A JUMPI PUSH2 0x493A PUSH2 0x5173 JUMP JUMPDEST PUSH1 0x0 SWAP2 DUP3 MSTORE PUSH1 0x20 DUP1 DUP4 KECCAK256 SWAP1 SWAP2 ADD SWAP3 SWAP1 SWAP3 SSTORE DUP3 DUP2 MSTORE PUSH1 0x9 SWAP1 SWAP2 MSTORE PUSH1 0x40 DUP1 DUP3 KECCAK256 DUP5 SWAP1 SSTORE DUP6 DUP3 MSTORE DUP2 KECCAK256 SSTORE PUSH1 0x8 DUP1 SLOAD DUP1 PUSH2 0x4972 JUMPI PUSH2 0x4972 PUSH2 0x52D4 JUMP JUMPDEST PUSH1 0x1 SWAP1 SUB DUP2 DUP2 SWAP1 PUSH1 0x0 MSTORE PUSH1 0x20 PUSH1 0x0 KECCAK256 ADD PUSH1 0x0 SWAP1 SSTORE SWAP1 SSTORE POP POP POP POP JUMP JUMPDEST PUSH1 0x0 PUSH2 0x4999 DUP4 PUSH2 0x1CE8 JUMP JUMPDEST PUSH1 0x1 PUSH1 0x1 PUSH1 0xA0 SHL SUB SWAP1 SWAP4 AND PUSH1 0x0 SWAP1 DUP2 MSTORE PUSH1 0x6 PUSH1 0x20 SWAP1 DUP2 MSTORE PUSH1 0x40 DUP1 DUP4 KECCAK256 DUP7 DUP5 MSTORE DUP3 MSTORE DUP1 DUP4 KECCAK256 DUP6 SWAP1 SSTORE SWAP4 DUP3 MSTORE PUSH1 0x7 SWAP1 MSTORE SWAP2 SWAP1 SWAP2 KECCAK256 SWAP2 SWAP1 SWAP2 SSTORE POP JUMP JUMPDEST DUP3 DUP1 SLOAD PUSH2 0x49DE SWAP1 PUSH2 0x5122 JUMP JUMPDEST SWAP1 PUSH1 0x0 MSTORE PUSH1 0x20 PUSH1 0x0 KECCAK256 SWAP1 PUSH1 0x1F ADD PUSH1 0x20 SWAP1 DIV DUP2 ADD SWAP3 DUP3 PUSH2 0x4A00 JUMPI PUSH1 0x0 DUP6 SSTORE PUSH2 0x4A46 JUMP JUMPDEST DUP3 PUSH1 0x1F LT PUSH2 0x4A19 JUMPI DUP1 MLOAD PUSH1 0xFF NOT AND DUP4 DUP1 ADD OR DUP6 SSTORE PUSH2 0x4A46 JUMP JUMPDEST DUP3 DUP1 ADD PUSH1 0x1 ADD DUP6 SSTORE DUP3 ISZERO PUSH2 0x4A46 JUMPI SWAP2 DUP3 ADD JUMPDEST DUP3 DUP2 GT ISZERO PUSH2 0x4A46 JUMPI DUP3 MLOAD DUP3 SSTORE SWAP2 PUSH1 0x20 ADD SWAP2 SWAP1 PUSH1 0x1 ADD SWAP1 PUSH2 0x4A2B JUMP JUMPDEST POP PUSH2 0x4A52 SWAP3 SWAP2 POP PUSH2 0x4A56 JUMP JUMPDEST POP SWAP1 JUMP JUMPDEST JUMPDEST DUP1 DUP3 GT ISZERO PUSH2 0x4A52 JUMPI PUSH1 0x0 DUP2 SSTORE PUSH1 0x1 ADD PUSH2 0x4A57 JUMP JUMPDEST PUSH4 0x4E487B71 PUSH1 0xE0 SHL PUSH1 0x0 MSTORE PUSH1 0x11 PUSH1 0x4 MSTORE PUSH1 0x24 PUSH1 0x0 REVERT JUMPDEST PUSH1 0x0 DUP3 NOT DUP3 GT ISZERO PUSH2 0x4A94 JUMPI PUSH2 0x4A94 PUSH2 0x4A6B JUMP JUMPDEST POP ADD SWAP1 JUMP JUMPDEST PUSH1 0x1 PUSH1 0x1 PUSH1 0xA0 SHL SUB DUP2 AND DUP2 EQ PUSH2 0x167B JUMPI PUSH1 0x0 DUP1 REVERT JUMPDEST PUSH1 0x0 PUSH1 0x20 DUP3 DUP5 SUB SLT ISZERO PUSH2 0x4AC0 JUMPI PUSH1 0x0 DUP1 REVERT JUMPDEST DUP2 CALLDATALOAD PUSH2 0x2E1B DUP2 PUSH2 0x4A99 JUMP JUMPDEST PUSH1 0x1 PUSH1 0x1 PUSH1 0xE0 SHL SUB NOT DUP2 AND DUP2 EQ PUSH2 0x167B JUMPI PUSH1 0x0 DUP1 REVERT JUMPDEST PUSH1 0x0 PUSH1 0x20 DUP3 DUP5 SUB SLT ISZERO PUSH2 0x4AF3 JUMPI PUSH1 0x0 DUP1 REVERT JUMPDEST DUP2 CALLDATALOAD PUSH2 0x2E1B DUP2 PUSH2 0x4ACB JUMP JUMPDEST PUSH1 0x0 JUMPDEST DUP4 DUP2 LT ISZERO PUSH2 0x4B19 JUMPI DUP2 DUP2 ADD MLOAD DUP4 DUP3 ADD MSTORE PUSH1 0x20 ADD PUSH2 0x4B01 JUMP JUMPDEST DUP4 DUP2 GT ISZERO PUSH2 0x2B18 JUMPI POP POP PUSH1 0x0 SWAP2 ADD MSTORE JUMP JUMPDEST PUSH1 0x0 DUP2 MLOAD DUP1 DUP5 MSTORE PUSH2 0x4B42 DUP2 PUSH1 0x20 DUP7 ADD PUSH1 0x20 DUP7 ADD PUSH2 0x4AFE JUMP JUMPDEST PUSH1 0x1F ADD PUSH1 0x1F NOT AND SWAP3 SWAP1 SWAP3 ADD PUSH1 0x20 ADD SWAP3 SWAP2 POP POP JUMP JUMPDEST PUSH1 0x20 DUP2 MSTORE PUSH1 0x0 PUSH2 0x2E1B PUSH1 0x20 DUP4 ADD DUP5 PUSH2 0x4B2A JUMP JUMPDEST PUSH1 0x0 PUSH1 0x20 DUP3 DUP5 SUB SLT ISZERO PUSH2 0x4B7B JUMPI PUSH1 0x0 DUP1 REVERT JUMPDEST POP CALLDATALOAD SWAP2 SWAP1 POP JUMP JUMPDEST PUSH1 0x0 DUP1 PUSH1 0x40 DUP4 DUP6 SUB SLT ISZERO PUSH2 0x4B95 JUMPI PUSH1 0x0 DUP1 REVERT JUMPDEST DUP3 CALLDATALOAD PUSH2 0x4BA0 DUP2 PUSH2 0x4A99 JUMP JUMPDEST SWAP5 PUSH1 0x20 SWAP4 SWAP1 SWAP4 ADD CALLDATALOAD SWAP4 POP POP POP JUMP JUMPDEST PUSH1 0x20 DUP2 MSTORE DUP2 MLOAD PUSH1 0x20 DUP3 ADD MSTORE PUSH1 0x0 PUSH1 0x20 DUP4 ADD MLOAD PUSH1 0x80 PUSH1 0x40 DUP5 ADD MSTORE PUSH2 0x4BD4 PUSH1 0xA0 DUP5 ADD DUP3 PUSH2 0x4B2A JUMP JUMPDEST SWAP1 POP PUSH1 0x40 DUP5 ADD MLOAD PUSH1 0x1F NOT DUP1 DUP6 DUP5 SUB ADD PUSH1 0x60 DUP7 ADD MSTORE PUSH2 0x4BF2 DUP4 DUP4 PUSH2 0x4B2A JUMP JUMPDEST SWAP3 POP PUSH1 0x60 DUP7 ADD MLOAD SWAP2 POP DUP1 DUP6 DUP5 SUB ADD PUSH1 0x80 DUP7 ADD MSTORE POP PUSH2 0x4C10 DUP3 DUP3 PUSH2 0x4B2A JUMP JUMPDEST SWAP6 SWAP5 POP POP POP POP POP JUMP JUMPDEST PUSH1 0x20 DUP1 DUP3 MSTORE DUP3 MLOAD DUP3 DUP3 ADD DUP2 SWAP1 MSTORE PUSH1 0x0 SWAP2 SWAP1 DUP5 DUP3 ADD SWAP1 PUSH1 0x40 DUP6 ADD SWAP1 DUP5 JUMPDEST DUP2 DUP2 LT ISZERO PUSH2 0x128D JUMPI DUP4 MLOAD DUP4 MSTORE SWAP3 DUP5 ADD SWAP3 SWAP2 DUP5 ADD SWAP2 PUSH1 0x1 ADD PUSH2 0x4C35 JUMP JUMPDEST PUSH1 0x0 DUP1 PUSH1 0x0 PUSH1 0x60 DUP5 DUP7 SUB SLT ISZERO PUSH2 0x4C66 JUMPI PUSH1 0x0 DUP1 REVERT JUMPDEST DUP4 CALLDATALOAD PUSH2 0x4C71 DUP2 PUSH2 0x4A99 JUMP JUMPDEST SWAP3 POP PUSH1 0x20 DUP5 ADD CALLDATALOAD PUSH2 0x4C81 DUP2 PUSH2 0x4A99 JUMP JUMPDEST SWAP3 SWAP6 SWAP3 SWAP5 POP POP POP PUSH1 0x40 SWAP2 SWAP1 SWAP2 ADD CALLDATALOAD SWAP1 JUMP JUMPDEST PUSH4 0x4E487B71 PUSH1 0xE0 SHL PUSH1 0x0 MSTORE PUSH1 0x41 PUSH1 0x4 MSTORE PUSH1 0x24 PUSH1 0x0 REVERT JUMPDEST PUSH1 0x0 DUP3 PUSH1 0x1F DUP4 ADD SLT PUSH2 0x4CB9 JUMPI PUSH1 0x0 DUP1 REVERT JUMPDEST DUP2 CALLDATALOAD PUSH1 0x1 PUSH1 0x1 PUSH1 0x40 SHL SUB DUP1 DUP3 GT ISZERO PUSH2 0x4CD3 JUMPI PUSH2 0x4CD3 PUSH2 0x4C92 JUMP JUMPDEST PUSH1 0x40 MLOAD PUSH1 0x1F DUP4 ADD PUSH1 0x1F NOT SWAP1 DUP2 AND PUSH1 0x3F ADD AND DUP2 ADD SWAP1 DUP3 DUP3 GT DUP2 DUP4 LT OR ISZERO PUSH2 0x4CFB JUMPI PUSH2 0x4CFB PUSH2 0x4C92 JUMP JUMPDEST DUP2 PUSH1 0x40 MSTORE DUP4 DUP2 MSTORE DUP7 PUSH1 0x20 DUP6 DUP9 ADD ADD GT ISZERO PUSH2 0x4D14 JUMPI PUSH1 0x0 DUP1 REVERT JUMPDEST DUP4 PUSH1 0x20 DUP8 ADD PUSH1 0x20 DUP4 ADD CALLDATACOPY PUSH1 0x0 PUSH1 0x20 DUP6 DUP4 ADD ADD MSTORE DUP1 SWAP5 POP POP POP POP POP SWAP3 SWAP2 POP POP JUMP JUMPDEST PUSH1 0x0 DUP1 PUSH1 0x0 PUSH1 0x60 DUP5 DUP7 SUB SLT ISZERO PUSH2 0x4D49 JUMPI PUSH1 0x0 DUP1 REVERT JUMPDEST DUP4 CALLDATALOAD PUSH1 0x1 PUSH1 0x1 PUSH1 0x40 SHL SUB DUP2 GT ISZERO PUSH2 0x4D5F JUMPI PUSH1 0x0 DUP1 REVERT JUMPDEST PUSH2 0x4D6B DUP7 DUP3 DUP8 ADD PUSH2 0x4CA8 JUMP JUMPDEST SWAP4 POP POP PUSH1 0x20 DUP5 ADD CALLDATALOAD SWAP2 POP PUSH1 0x40 DUP5 ADD CALLDATALOAD PUSH2 0x4D83 DUP2 PUSH2 0x4A99 JUMP JUMPDEST DUP1 SWAP2 POP POP SWAP3 POP SWAP3 POP SWAP3 JUMP JUMPDEST PUSH1 0x0 DUP1 PUSH1 0x0 PUSH1 0x60 DUP5 DUP7 SUB SLT ISZERO PUSH2 0x4DA3 JUMPI PUSH1 0x0 DUP1 REVERT JUMPDEST DUP4 CALLDATALOAD PUSH1 0x1 PUSH1 0x1 PUSH1 0x40 SHL SUB DUP1 DUP3 GT ISZERO PUSH2 0x4DBA JUMPI PUSH1 0x0 DUP1 REVERT JUMPDEST PUSH2 0x4DC6 DUP8 DUP4 DUP9 ADD PUSH2 0x4CA8 JUMP JUMPDEST SWAP5 POP PUSH1 0x20 DUP7 ADD CALLDATALOAD SWAP2 POP DUP1 DUP3 GT ISZERO PUSH2 0x4DDC JUMPI PUSH1 0x0 DUP1 REVERT JUMPDEST POP PUSH2 0x4DE9 DUP7 DUP3 DUP8 ADD PUSH2 0x4CA8 JUMP JUMPDEST SWAP3 POP POP PUSH1 0x40 DUP5 ADD CALLDATALOAD SWAP1 POP SWAP3 POP SWAP3 POP SWAP3 JUMP JUMPDEST PUSH1 0x0 DUP1 PUSH1 0x40 DUP4 DUP6 SUB SLT ISZERO PUSH2 0x4E0D JUMPI PUSH1 0x0 DUP1 REVERT JUMPDEST DUP3 CALLDATALOAD PUSH1 0x1 PUSH1 0x1 PUSH1 0x40 SHL SUB DUP1 DUP3 GT ISZERO PUSH2 0x4E24 JUMPI PUSH1 0x0 DUP1 REVERT JUMPDEST PUSH2 0x4E30 DUP7 DUP4 DUP8 ADD PUSH2 0x4CA8 JUMP JUMPDEST SWAP4 POP PUSH1 0x20 DUP6 ADD CALLDATALOAD SWAP2 POP DUP1 DUP3 GT ISZERO PUSH2 0x4E46 JUMPI PUSH1 0x0 DUP1 REVERT JUMPDEST POP PUSH2 0x4E53 DUP6 DUP3 DUP7 ADD PUSH2 0x4CA8 JUMP JUMPDEST SWAP2 POP POP SWAP3 POP SWAP3 SWAP1 POP JUMP JUMPDEST PUSH1 0x0 PUSH1 0x20 DUP3 DUP5 SUB SLT ISZERO PUSH2 0x4E6F JUMPI PUSH1 0x0 DUP1 REVERT JUMPDEST DUP2 CALLDATALOAD PUSH1 0x1 PUSH1 0x1 PUSH1 0x40 SHL SUB DUP2 GT ISZERO PUSH2 0x4E85 JUMPI PUSH1 0x0 DUP1 REVERT JUMPDEST PUSH2 0x39FC DUP5 DUP3 DUP6 ADD PUSH2 0x4CA8 JUMP JUMPDEST PUSH1 0x0 DUP1 PUSH1 0x40 DUP4 DUP6 SUB SLT ISZERO PUSH2 0x4EA4 JUMPI PUSH1 0x0 DUP1 REVERT JUMPDEST DUP3 CALLDATALOAD PUSH2 0x4EAF DUP2 PUSH2 0x4A99 JUMP JUMPDEST SWAP2 POP PUSH1 0x20 DUP4 ADD CALLDATALOAD PUSH1 0xFF DUP2 AND DUP2 EQ PUSH2 0x4EC5 JUMPI PUSH1 0x0 DUP1 REVERT JUMPDEST DUP1 SWAP2 POP POP SWAP3 POP SWAP3 SWAP1 POP JUMP JUMPDEST PUSH1 0x20 DUP1 DUP3 MSTORE DUP3 MLOAD DUP3 DUP3 ADD DUP2 SWAP1 MSTORE PUSH1 0x0 SWAP2 SWAP1 DUP5 DUP3 ADD SWAP1 PUSH1 0x40 DUP6 ADD SWAP1 DUP5 JUMPDEST DUP2 DUP2 LT ISZERO PUSH2 0x128D JUMPI DUP4 MLOAD PUSH1 0x1 PUSH1 0x1 PUSH1 0xA0 SHL SUB AND DUP4 MSTORE SWAP3 DUP5 ADD SWAP3 SWAP2 DUP5 ADD SWAP2 PUSH1 0x1 ADD PUSH2 0x4EEC JUMP JUMPDEST PUSH1 0x0 DUP1 PUSH1 0x40 DUP4 DUP6 SUB SLT ISZERO PUSH2 0x4F24 JUMPI PUSH1 0x0 DUP1 REVERT JUMPDEST DUP3 CALLDATALOAD SWAP2 POP PUSH1 0x20 DUP4 ADD CALLDATALOAD PUSH2 0x4EC5 DUP2 PUSH2 0x4A99 JUMP JUMPDEST PUSH1 0x0 DUP1 PUSH1 0x40 DUP4 DUP6 SUB SLT ISZERO PUSH2 0x4F49 JUMPI PUSH1 0x0 DUP1 REVERT JUMPDEST DUP3 CALLDATALOAD PUSH2 0x4F54 DUP2 PUSH2 0x4A99 JUMP JUMPDEST SWAP2 POP PUSH1 0x20 DUP4 ADD CALLDATALOAD DUP1 ISZERO ISZERO DUP2 EQ PUSH2 0x4EC5 JUMPI PUSH1 0x0 DUP1 REVERT JUMPDEST PUSH1 0x0 DUP1 PUSH1 0x0 DUP1 PUSH1 0x80 DUP6 DUP8 SUB SLT ISZERO PUSH2 0x4F7F JUMPI PUSH1 0x0 DUP1 REVERT JUMPDEST DUP5 CALLDATALOAD SWAP4 POP PUSH1 0x20 DUP6 ADD CALLDATALOAD PUSH1 0x1 PUSH1 0x1 PUSH1 0x40 SHL SUB DUP1 DUP3 GT ISZERO PUSH2 0x4F9D JUMPI PUSH1 0x0 DUP1 REVERT JUMPDEST PUSH2 0x4FA9 DUP9 DUP4 DUP10 ADD PUSH2 0x4CA8 JUMP JUMPDEST SWAP5 POP PUSH1 0x40 DUP8 ADD CALLDATALOAD SWAP2 POP DUP1 DUP3 GT ISZERO PUSH2 0x4FBF JUMPI PUSH1 0x0 DUP1 REVERT JUMPDEST PUSH2 0x4FCB DUP9 DUP4 DUP10 ADD PUSH2 0x4CA8 JUMP JUMPDEST SWAP4 POP PUSH1 0x60 DUP8 ADD CALLDATALOAD SWAP2 POP DUP1 DUP3 GT ISZERO PUSH2 0x4FE1 JUMPI PUSH1 0x0 DUP1 REVERT JUMPDEST POP PUSH2 0x4FEE DUP8 DUP3 DUP9 ADD PUSH2 0x4CA8 JUMP JUMPDEST SWAP2 POP POP SWAP3 SWAP6 SWAP2 SWAP5 POP SWAP3 POP JUMP JUMPDEST PUSH1 0x20 DUP2 MSTORE DUP2 MLOAD PUSH1 0x20 DUP3 ADD MSTORE PUSH1 0x0 PUSH1 0x20 DUP4 ADD MLOAD PUSH1 0x40 DUP1 DUP5 ADD MSTORE PUSH2 0x39FC PUSH1 0x60 DUP5 ADD DUP3 PUSH2 0x4B2A JUMP JUMPDEST PUSH1 0x0 DUP1 PUSH1 0x0 DUP1 PUSH1 0x80 DUP6 DUP8 SUB SLT ISZERO PUSH2 0x5035 JUMPI PUSH1 0x0 DUP1 REVERT JUMPDEST DUP5 CALLDATALOAD PUSH2 0x5040 DUP2 PUSH2 0x4A99 JUMP JUMPDEST SWAP4 POP PUSH1 0x20 DUP6 ADD CALLDATALOAD PUSH2 0x5050 DUP2 PUSH2 0x4A99 JUMP JUMPDEST SWAP3 POP PUSH1 0x40 DUP6 ADD CALLDATALOAD SWAP2 POP PUSH1 0x60 DUP6 ADD CALLDATALOAD PUSH1 0x1 PUSH1 0x1 PUSH1 0x40 SHL SUB DUP2 GT ISZERO PUSH2 0x5072 JUMPI PUSH1 0x0 DUP1 REVERT JUMPDEST PUSH2 0x4FEE DUP8 DUP3 DUP9 ADD PUSH2 0x4CA8 JUMP JUMPDEST PUSH1 0x0 DUP1 PUSH1 0x40 DUP4 DUP6 SUB SLT ISZERO PUSH2 0x5091 JUMPI PUSH1 0x0 DUP1 REVERT JUMPDEST DUP3 CALLDATALOAD PUSH2 0x509C DUP2 PUSH2 0x4A99 JUMP JUMPDEST SWAP2 POP PUSH1 0x20 DUP4 ADD CALLDATALOAD PUSH2 0x4EC5 DUP2 PUSH2 0x4A99 JUMP JUMPDEST PUSH1 0x0 DUP2 PUSH1 0x0 NOT DIV DUP4 GT DUP3 ISZERO ISZERO AND ISZERO PUSH2 0x50C6 JUMPI PUSH2 0x50C6 PUSH2 0x4A6B JUMP JUMPDEST POP MUL SWAP1 JUMP JUMPDEST PUSH4 0x4E487B71 PUSH1 0xE0 SHL PUSH1 0x0 MSTORE PUSH1 0x12 PUSH1 0x4 MSTORE PUSH1 0x24 PUSH1 0x0 REVERT JUMPDEST PUSH1 0x0 DUP3 PUSH2 0x50F0 JUMPI PUSH2 0x50F0 PUSH2 0x50CB JUMP JUMPDEST POP DIV SWAP1 JUMP JUMPDEST PUSH1 0x20 DUP1 DUP3 MSTORE PUSH1 0x13 SWAP1 DUP3 ADD MSTORE PUSH19 0x139BDD08195B9BDD59DA08199959481C185A59 PUSH1 0x6A SHL PUSH1 0x40 DUP3 ADD MSTORE PUSH1 0x60 ADD SWAP1 JUMP JUMPDEST PUSH1 0x1 DUP2 DUP2 SHR SWAP1 DUP3 AND DUP1 PUSH2 0x5136 JUMPI PUSH1 0x7F DUP3 AND SWAP2 POP JUMPDEST PUSH1 0x20 DUP3 LT DUP2 SUB PUSH2 0x5156 JUMPI PUSH4 0x4E487B71 PUSH1 0xE0 SHL PUSH1 0x0 MSTORE PUSH1 0x22 PUSH1 0x4 MSTORE PUSH1 0x24 PUSH1 0x0 REVERT JUMPDEST POP SWAP2 SWAP1 POP JUMP JUMPDEST PUSH1 0x0 DUP3 DUP3 LT ISZERO PUSH2 0x516E JUMPI PUSH2 0x516E PUSH2 0x4A6B JUMP JUMPDEST POP SUB SWAP1 JUMP JUMPDEST PUSH4 0x4E487B71 PUSH1 0xE0 SHL PUSH1 0x0 MSTORE PUSH1 0x32 PUSH1 0x4 MSTORE PUSH1 0x24 PUSH1 0x0 REVERT JUMPDEST PUSH1 0x20 DUP1 DUP3 MSTORE PUSH1 0x2E SWAP1 DUP3 ADD MSTORE PUSH32 0x4552433732313A2063616C6C6572206973206E6F7420746F6B656E206F776E65 PUSH1 0x40 DUP3 ADD MSTORE PUSH14 0x1C881B9BDC88185C1C1C9BDD9959 PUSH1 0x92 SHL PUSH1 0x60 DUP3 ADD MSTORE PUSH1 0x80 ADD SWAP1 JUMP JUMPDEST PUSH1 0x80 DUP2 MSTORE PUSH1 0x0 PUSH2 0x51EA PUSH1 0x80 DUP4 ADD DUP8 PUSH2 0x4B2A JUMP JUMPDEST PUSH1 0x20 DUP4 ADD SWAP6 SWAP1 SWAP6 MSTORE POP PUSH1 0x1 PUSH1 0x1 PUSH1 0xA0 SHL SUB SWAP3 DUP4 AND PUSH1 0x40 DUP3 ADD MSTORE SWAP2 AND PUSH1 0x60 SWAP1 SWAP2 ADD MSTORE SWAP2 SWAP1 POP JUMP JUMPDEST PUSH1 0x0 PUSH1 0x20 DUP3 DUP5 SUB SLT ISZERO PUSH2 0x5222 JUMPI PUSH1 0x0 DUP1 REVERT JUMPDEST POP MLOAD SWAP2 SWAP1 POP JUMP JUMPDEST PUSH1 0x60 DUP2 MSTORE PUSH1 0x0 PUSH2 0x523C PUSH1 0x60 DUP4 ADD DUP7 PUSH2 0x4B2A JUMP JUMPDEST PUSH1 0x20 DUP4 ADD SWAP5 SWAP1 SWAP5 MSTORE POP PUSH1 0x40 ADD MSTORE SWAP2 SWAP1 POP JUMP JUMPDEST PUSH1 0x20 DUP1 DUP3 MSTORE PUSH1 0x1E SWAP1 DUP3 ADD MSTORE PUSH32 0x506F7374506F737420636F6E7472616374206973206E6F742073657475700000 PUSH1 0x40 DUP3 ADD MSTORE PUSH1 0x60 ADD SWAP1 JUMP JUMPDEST PUSH1 0xA0 DUP2 MSTORE PUSH1 0x0 PUSH2 0x5298 PUSH1 0xA0 DUP4 ADD DUP9 PUSH2 0x4B2A JUMP JUMPDEST DUP3 DUP2 SUB PUSH1 0x20 DUP5 ADD MSTORE PUSH2 0x52AA DUP2 DUP9 PUSH2 0x4B2A JUMP JUMPDEST PUSH1 0x40 DUP5 ADD SWAP7 SWAP1 SWAP7 MSTORE POP POP PUSH1 0xFF SWAP3 SWAP1 SWAP3 AND PUSH1 0x60 DUP4 ADD MSTORE PUSH1 0x1 PUSH1 0x1 PUSH1 0xA0 SHL SUB AND PUSH1 0x80 SWAP1 SWAP2 ADD MSTORE SWAP3 SWAP2 POP POP JUMP JUMPDEST PUSH4 0x4E487B71 PUSH1 0xE0 SHL PUSH1 0x0 MSTORE PUSH1 0x31 PUSH1 0x4 MSTORE PUSH1 0x24 PUSH1 0x0 REVERT JUMPDEST PUSH1 0x0 PUSH1 0x1 DUP3 ADD PUSH2 0x52FC JUMPI PUSH2 0x52FC PUSH2 0x4A6B JUMP JUMPDEST POP PUSH1 0x1 ADD SWAP1 JUMP JUMPDEST PUSH1 0x0 DUP4 MLOAD PUSH2 0x5315 DUP2 DUP5 PUSH1 0x20 DUP9 ADD PUSH2 0x4AFE JUMP JUMPDEST DUP4 MLOAD SWAP1 DUP4 ADD SWAP1 PUSH2 0x5329 DUP2 DUP4 PUSH1 0x20 DUP9 ADD PUSH2 0x4AFE JUMP JUMPDEST ADD SWAP5 SWAP4 POP POP POP POP JUMP JUMPDEST PUSH1 0x20 DUP1 DUP3 MSTORE PUSH1 0x1E SWAP1 DUP3 ADD MSTORE PUSH32 0x6164647265737320646F65736E2774206861766520612070726F66696C650000 PUSH1 0x40 DUP3 ADD MSTORE PUSH1 0x60 ADD SWAP1 JUMP JUMPDEST PUSH1 0x20 DUP1 DUP3 MSTORE PUSH1 0x22 SWAP1 DUP3 ADD MSTORE PUSH32 0x596F7520617265206E6F7420666F6C6C6F77696E672074686973206164647265 PUSH1 0x40 DUP3 ADD MSTORE PUSH2 0x7373 PUSH1 0xF0 SHL PUSH1 0x60 DUP3 ADD MSTORE PUSH1 0x80 ADD SWAP1 JUMP JUMPDEST DUP1 MLOAD PUSH1 0x20 DUP1 DUP4 ADD MLOAD SWAP2 SWAP1 DUP2 LT ISZERO PUSH2 0x5156 JUMPI PUSH1 0x0 NOT PUSH1 0x20 SWAP2 SWAP1 SWAP2 SUB PUSH1 0x3 SHL SHL AND SWAP2 SWAP1 POP JUMP JUMPDEST PUSH1 0x20 DUP1 DUP3 MSTORE PUSH1 0x32 SWAP1 DUP3 ADD MSTORE PUSH32 0x4552433732313A207472616E7366657220746F206E6F6E204552433732315265 PUSH1 0x40 DUP3 ADD MSTORE PUSH18 0x31B2B4BB32B91034B6B83632B6B2B73A32B9 PUSH1 0x71 SHL PUSH1 0x60 DUP3 ADD MSTORE PUSH1 0x80 ADD SWAP1 JUMP JUMPDEST PUSH1 0x0 DUP3 PUSH2 0x5430 JUMPI PUSH2 0x5430 PUSH2 0x50CB JUMP JUMPDEST POP MOD SWAP1 JUMP JUMPDEST PUSH1 0x1 PUSH1 0x1 PUSH1 0xA0 SHL SUB DUP6 DUP2 AND DUP3 MSTORE DUP5 AND PUSH1 0x20 DUP3 ADD MSTORE PUSH1 0x40 DUP2 ADD DUP4 SWAP1 MSTORE PUSH1 0x80 PUSH1 0x60 DUP3 ADD DUP2 SWAP1 MSTORE PUSH1 0x0 SWAP1 PUSH2 0x5468 SWAP1 DUP4 ADD DUP5 PUSH2 0x4B2A JUMP JUMPDEST SWAP7 SWAP6 POP POP POP POP POP POP JUMP JUMPDEST PUSH1 0x0 PUSH1 0x20 DUP3 DUP5 SUB SLT ISZERO PUSH2 0x5484 JUMPI PUSH1 0x0 DUP1 REVERT JUMPDEST DUP2 MLOAD PUSH2 0x2E1B DUP2 PUSH2 0x4ACB JUMP JUMPDEST PUSH1 0x0 PUSH1 0xFF DUP3 AND PUSH1 0xFF DUP5 AND DUP1 DUP3 LT ISZERO PUSH2 0x54A9 JUMPI PUSH2 0x54A9 PUSH2 0x4A6B JUMP JUMPDEST SWAP1 SUB SWAP4 SWAP3 POP POP POP JUMP JUMPDEST PUSH1 0x0 PUSH1 0xFF DUP3 AND PUSH1 0xFF DUP5 AND DUP1 PUSH1 0xFF SUB DUP3 GT ISZERO PUSH2 0x54CF JUMPI PUSH2 0x54CF PUSH2 0x4A6B JUMP JUMPDEST ADD SWAP4 SWAP3 POP POP POP JUMP INVALID LOG2 PUSH5 0x6970667358 0x22 SLT KECCAK256 0x4F COINBASE MULMOD RETURNDATACOPY 0xEC SMOD COINBASE 0xDE 0x2D RETURNDATASIZE PUSH24 0xE4F3AB858C967007AB422F6AA9278FDCC2165DEA8464736F PUSH13 0x634300080D0033000000000000 ",
  "sha1": "ac4613c6702810a4b41614bf5155ae8c3a685759",
  "source": "pragma solidity ^0.8.0;\n\n\nimport \"node_modules/@openzeppelin/contracts/token/ERC721/extensions/ERC721Enumerable.sol\";\nimport \"node_modules/@openzeppelin/contracts/token/ERC721/extensions/ERC721Burnable.sol\";\nimport \"node_modules/@openzeppelin/contracts/security/Pausable.sol\";\nimport \"node_modules/@openzeppelin/contracts/access/AccessControlEnumerable.sol\";\nimport \"node_modules/@openzeppelin/contracts/utils/Context.sol\";\nimport \"node_modules/@openzeppelin/contracts/access/Ownable.sol\";\n\ninterface TwetherPost{\n    function mint(bytes memory text, bytes memory media_url, uint parentPost, uint8 postType, uint160 author) external returns (uint);\n    function like(uint postId, uint160 author) external;\n    function unlike(uint postId, uint160 author) external;\n    function getPostAuthor(uint postId) external;\n}\n\ninterface TwetherMessage{\n    function mint(bytes memory text, uint pubkey, address from, address to) external payable returns (uint);\n}\n\ncontract TwetherProfile is ERC721Enumerable, ERC721Burnable, Pausable, Ownable{\n\n    struct Profile {\n        bytes32 name;\n        bytes pfp_url;\n        bytes bio;\n        bytes banner_url;\n        uint160[] followers;\n        mapping (uint160 => uint256) followerIndex;\n        uint160[] following;\n        mapping (uint160 => uint256) followingIndex;\n        uint[] likes;\n        mapping (uint => uint) postToLikeIndex;\n        uint[] posts;\n        mapping (uint => uint) postToPostIndex;\n        uint[] mentions;\n        mapping (uint => uint) postToMentionIndex;\n        uint[] messages;\n        mapping (uint => uint) msgIdToIndex;\n    }\n\n    struct ProfileRep {\n        bytes32 name;\n        bytes pfp_url;\n        bytes bio;\n        bytes banner_url;\n    }\n\n    struct ProfileLite {\n        bytes32 name;\n        bytes pfp_url;\n    }\n\n    TwetherPost private Post;\n    TwetherMessage private Message;\n    uint public contractBalance;\n    uint public pageSize = 100;\n    uint public AVG_POST_GAS = 650000;\n    uint public AVG_LIKEFOLLOW_GAS = 135000;\n    uint public PRICE = 5000000000000000000;\n\n    mapping(uint160 => Profile) private profile;\n\n    modifier paysFeeVar (uint textLength, uint pfpLength){\n        //the fee is always a sixth of the avarage gas fee paid (~15%)\n        uint gasAmount = ( 1600 * (textLength + pfpLength) ) + 400000;\n        uint minFee = gasAmount * (tx.gasprice / 7);\n        //requires at least 92% of the min fee (slipage)\n        require(msg.value >= (minFee * 90) / 100, \"Not enough fee paid\");\n        contractBalance += msg.value;\n        _;\n    }\n\n    modifier paysFeeFixed (uint gasAmount){\n        //the fee is always a sixth of the avarage gas fee paid (~15%)\n        uint minFee = (gasAmount * tx.gasprice) / 6;\n        //requires at least 92% of the min fee (slipage)\n        require(msg.value >= (minFee * 92) / 100, \"Not enough fee paid\");\n        contractBalance += msg.value;\n        _;\n    }\n\n    modifier hasProfile (uint160 user){\n        require(_exists(user), \"address doesn't have a profile\");\n        _;\n    }\n\n    modifier postContractSet{\n        require(address(Post) != address(0),\"PostPost contract is not setup\");\n        _;\n    }\n\n    event NewLike(address indexed from, uint indexed post);\n    event NewComment(address indexed from, bytes32 indexed keyword, address indexed mention, uint post, uint comment_id);\n    event NewShare(address indexed from, bytes32 indexed keyword, address indexed mention, uint post, uint share_id);\n    event NowFollows(address indexed frollower, address indexed following);\n    event NewProfile(address indexed _address, bytes32 indexed name);\n    event NewPost(address indexed from, bytes32 indexed keyword, address indexed mention, uint new_post);\n    event ChangedName(address indexed _address, bytes32 name);\n    event NewMessage(address indexed from, address indexed to, uint indexed msgId, bytes text, uint pubkey, uint amount);\n    event SecurityWithdrawal(uint amount);\n    event Withdrawal(address indexed _to, uint _value);\n\n    constructor() ERC721(\"Pro\", \"PFP\"){}\n\n    receive() external  payable\n    {\n        contractBalance += msg.value;\n    }\n\n    function _beforeTokenTransfer(\n        address from,\n        address to,\n        uint256 tokenId\n    ) internal virtual override (ERC721Enumerable, ERC721){\n        require(!paused(), \"ERC721Pausable: token transfer while paused\");\n        super._beforeTokenTransfer(from, to, tokenId);\n    }\n\n    /**\n     * @dev Returns weather a contracts supports a certain Interface.\n     * @param interfaceId of the interface to check.\n     * @return True if the contract supports such interface.\n     */\n    function supportsInterface(bytes4 interfaceId) public view virtual override (ERC721, ERC721Enumerable) returns (bool) {\n        return interfaceId == type(IERC721).interfaceId || \n                interfaceId == type(IERC721Metadata).interfaceId || \n                super.supportsInterface(interfaceId);\n    }\n\n    function setTwetherPostContract(address _address) external onlyOwner {\n        Post = TwetherPost(_address);\n    }\n\n    function setTwetherMessageContract(address _address) external onlyOwner {\n        Message = TwetherMessage(_address);\n    }\n\n    function setPageSize(uint _pageSize) external onlyOwner {\n        pageSize = _pageSize;\n    }\n\n    function setPrice(uint newPrice) external onlyOwner {\n        PRICE = newPrice;\n    }\n\n    function mint(bytes32 _name, bytes memory _pfp_url,bytes memory _bio, bytes memory _banner_url) external payable{\n        require(msg.value >= PRICE, \"Not enough money to mint\");\n        uint160 _id = uint160(_msgSender());\n        profile[_id].name = _name;\n        profile[_id].pfp_url = _pfp_url;\n        profile[_id].bio = _bio;\n        profile[_id].banner_url = _banner_url;\n        //user always follows himself NOT SURE THO\n        // profile[_id].followingIndex[_id] = 0;\n        // profile[_id].following.push(_id);\n        //\n        super._mint(_msgSender(), _id);\n        contractBalance += msg.value;\n        emit NewProfile(_msgSender(), _name);\n    }\n\n    function _addFollowing(uint160 user, uint160 new_following) internal hasProfile(user) hasProfile(new_following) {\n        profile[user].followingIndex[new_following] = profile[user].following.length;\n        profile[user].following.push(new_following);\n\n        profile[new_following].followerIndex[user] = profile[new_following].following.length;\n        profile[new_following].followers.push(user);\n    }\n\n    function _addMention(uint160 user, uint _post) internal \n                                                    ///hasProfile(user)\n                                                    {\n        profile[user].postToMentionIndex[_post] = profile[user].mentions.length;\n        profile[user].mentions.push(_post);\n    }\n\n    function _removeFollowing(uint160 user, uint160 old_following) internal hasProfile(user) hasProfile(old_following) {\n        require(profile[user].following.length > 0, \"You are not following this address\");\n        uint i = profile[user].followingIndex[old_following];\n        uint total = profile[user].following.length;\n\n        if (i == 0){\n            require(profile[user].following[0] == old_following, \"You are not following this address\");\n        }\n        //copy the last item in the array into the old following place. This will override the old follower value.\n        if (i != (total - 1)){\n            profile[user].followingIndex[profile[user].following[total - 1]] = i;\n            profile[user].following[i] = profile[user].following[total - 1];\n        }\n        //pop the last value which now has a duplicate, so it's fine.\n        profile[user].following.pop();\n        delete profile[user].followingIndex[old_following];\n    }\n\n    function _removeFollower(uint160 user, uint160 old_following) internal {\n        \n        uint i = profile[old_following].followerIndex[user];\n        uint total = profile[old_following].followers.length;\n\n        //copy the last item in the array into the old following place. This will override the old follower value.\n        if (i != (total - 1)){\n            profile[old_following].followerIndex[profile[old_following].followers[total - 1]] = i;\n            profile[old_following].followers[i] = profile[old_following].followers[total - 1];\n        }\n        //pop the last value which now has a duplicate, so it's fine.\n        profile[old_following].followers.pop();\n        delete profile[old_following].followerIndex[user];\n    }\n\n    function follow(address _address) external payable paysFeeFixed(AVG_LIKEFOLLOW_GAS){\n        uint160 user = _validateUser();\n        uint160 new_following = uint160(_address);\n        uint possibleIndex = profile[user].followingIndex[new_following];\n        if(possibleIndex == 0){\n            if(profile[user].following.length > 0){\n                require(profile[user].following[0] != new_following,\"You already follow this person\");\n            }\n            _addFollowing(user, new_following);\n            emit NowFollows(_msgSender(), _address);\n            return;\n        }revert(\"You already follow this person\");\n    }\n\n    function unfollow(address _address) external payable paysFeeFixed(AVG_LIKEFOLLOW_GAS){\n        uint160 user = _validateUser();\n        uint160 old_following = uint160(_address);\n\n        _removeFollowing(user, old_following);\n        _removeFollower(user, old_following);\n    }\n\n    function _validateUser() internal view returns (uint160){\n        uint160 user = uint160(_msgSender());\n        require(_exists(user), \"address doesnt have a profile\");\n        return user;\n    }\n\n    function editName(bytes32 new_name) external {\n        uint160 user = _validateUser();\n        profile[user].name = new_name;\n        emit ChangedName(_msgSender(), new_name);\n    }\n\n    function editPfp(bytes memory new_pfp) external {\n        uint160 user = _validateUser();\n        profile[user].pfp_url = new_pfp;\n    }\n\n    function editBio(bytes memory new_bio) external {\n        uint160 user = _validateUser();\n        profile[user].bio = new_bio;\n    }\n\n    function editBanner(bytes memory new_banner) external {\n        uint160 user = _validateUser();\n        profile[user].banner_url = new_banner;\n    }\n\n\n    function _addPost(uint160 user, uint postId) internal {\n        profile[user].postToPostIndex[postId] = profile[user].posts.length;\n        profile[user].posts.push(postId);\n    }\n\n    function _manageKeywordMention(bytes memory text, uint postId) internal returns (uint160, bytes32){\n        bytes memory mention = findInString(text, \" @\");\n        bytes32 keyword = bytes32(findInString(text, \" #\"));\n        uint160 mentioned = uint160(stringHexToUint(mention));\n        _addMention(mentioned, postId);\n        return (mentioned, keyword);\n    }\n\n    function post(bytes memory text, bytes memory media_url) external payable postContractSet paysFeeVar(text.length,media_url.length){\n        uint160 user = _validateUser();\n        uint postId = Post.mint(text, media_url, 0, 0, user);\n        _addPost(user, postId);\n        (uint160  mention, bytes32  keyword) = _manageKeywordMention(text, postId);\n        emit NewPost(_msgSender(), keyword, address(mention), postId);\n    }\n\n    function comment(bytes memory text, bytes memory media_url, uint onPost) external payable postContractSet paysFeeVar(text.length, media_url.length){\n        uint160 user = _validateUser();        \n        uint postId = Post.mint(text, media_url, onPost, 1, user);\n        _addPost(user, postId);\n        (uint160 mention, bytes32 keyword) = _manageKeywordMention(text, postId);\n        emit NewComment(_msgSender(), keyword, address(mention), onPost, postId);\n    }\n\n    function share(bytes memory text, bytes memory media_url, uint postToShare) external payable postContractSet paysFeeVar(text.length, media_url.length){\n        uint160 user = _validateUser();        \n        uint postId = Post.mint(text, media_url, postToShare, 2, user);\n        _addPost(user, postId);\n        (uint160  mention, bytes32  keyword) = _manageKeywordMention(text, postId);\n        emit NewShare(_msgSender(), keyword, address(mention), postToShare, postId);\n    }\n\n    function like(uint postId) external payable postContractSet paysFeeFixed(AVG_LIKEFOLLOW_GAS){\n        uint160 user = _validateUser();\n        uint possibleIndex = profile[user].postToLikeIndex[postId];\n        if(possibleIndex == 0){\n            if(profile[user].likes.length > 0){\n                require(profile[user].likes[0] != postId,\"You already like this post\");\n            }\n            profile[user].postToLikeIndex[postId] = profile[user].likes.length;\n            profile[user].likes.push(postId);\n            Post.like(postId, user);\n            emit NewLike(_msgSender(), postId);\n            return;\n        }revert(\"You already like this post\");\n    }\n\n    function unlike(uint postId) external payable postContractSet paysFeeFixed(AVG_LIKEFOLLOW_GAS){\n        uint160 user = _validateUser();\n        require(profile[user].likes.length > 0, \"You didnt like this post\");\n        uint i = profile[user].postToLikeIndex[postId];\n        uint total = profile[user].likes.length;\n\n        if (i==0){\n            require(profile[user].likes[0] == postId, \"You didnt like this post\");\n        } \n        if (i != (total - 1)){\n            profile[user].postToLikeIndex[ profile[user].likes[total - 1] ] = i;\n            profile[user].likes[i] = profile[user].likes[total - 1];\n        }\n        profile[user].likes.pop();\n        delete profile[user].postToLikeIndex[postId];\n        Post.unlike(postId, user);\n    }\n\n    function findInString(bytes memory textArray, string memory signal) internal pure returns(bytes memory ){\n        bytes memory patternFlag = bytes(signal);\n        bytes memory response = new bytes(42);\n        uint starts;\n        bool found = false;\n        for (uint i = 0; i <= textArray.length - patternFlag.length; i++) {\n            bool flag = true;\n            if (!found){\n                for (uint j = 0; j < patternFlag.length; j++){\n                    if (textArray [i + j] != patternFlag [j]) {\n                        flag = false;\n                        break;\n                    }\n                    starts = i;\n                }\n            }if(flag){\n                if (!found){\n                    found = true;\n                }else{\n                    if (textArray[i+1] == bytes1(\" \") || i - starts > 42){break;}\n                    response[i - starts -1] = textArray[i+1];\n                }\n            }\n        }return response;\n    }\n\n    function stringHexToUint(bytes memory _hex) internal pure returns (uint){\n        uint256 number = 0;\n        for(uint i=0;i<_hex.length;i++){\n            number = number << 4; // or number = number * 16 \n            number |= numberFromAscII(_hex[i]); // or number += numberFromAscII(b[i]);\n        }\n        return number; \n    }\n\n    function numberFromAscII(bytes1 b) internal pure returns (uint8 res) {\n        if (b>=\"0\" && b<=\"9\") {\n            return uint8(b) - uint8(bytes1(\"0\"));\n        } else if (b>=\"A\" && b<=\"F\") {\n            return 10 + uint8(b) - uint8(bytes1(\"A\"));\n        } else if (b>=\"a\" && b<=\"f\") {\n            return 10 + uint8(b) - uint8(bytes1(\"a\"));\n        }\n        return uint8(b); // or return error ... \n    }\n\n\n    function getLikesByUserPerPage(address user, uint page) external view returns (uint[] memory){\n        uint160 id = uint160(user);\n        uint total = profile[id].likes.length;\n        uint[] memory response = new uint[](pageSize);\n        uint i = pageSize*page;\n        uint start = i;\n        while(total > i && i < start + pageSize){\n            response[i - start] = profile[id].likes[total - i -1];\n            i+=1;\n        }\n        return response;\n    }\n\n    function getLastXLikes(address user, uint8 amount) public view returns(uint[] memory){\n        uint160 id = uint160(user);\n        uint total = profile[id].likes.length;\n        if (total > amount) {\n            uint[] memory response = new uint[](amount);\n            uint i = 0;\n            while(amount > i ){\n                response[i] = profile[id].likes[total - i -1];\n                i+=1;\n            }\n            return response;\n         }else{\n            return profile[uint160(user)].likes;\n         } \n    }\n\n    function getLast10Likes(address user) external view returns (uint[] memory){\n        return getLastXLikes(user, 10);\n    }\n\n    function getLast100Likes(address user) external view returns (uint[] memory){\n        return getLastXLikes(user, 100);\n    }\n\n    function getProfile(address _address) external view returns (ProfileRep memory){\n        uint160 user = uint160(_address);\n        ProfileRep memory response;\n\n        response.name =  profile[user].name;\n        response.pfp_url = profile[user].pfp_url;\n        response.bio = profile[user].bio;\n        response.banner_url = profile[user].banner_url;\n\n        return (response);\n    }\n\n    function getProfileLite(address _address) external view returns (ProfileLite memory){\n        uint160 user = uint160(_address);\n        ProfileLite memory response;\n        response.name =  profile[user].name;\n        response.pfp_url = profile[user].pfp_url;\n        return (response);\n    }\n\n    function doIFollowThisAddress(address _address) external view returns(bool){\n        uint160 user = _validateUser();\n        uint160 followingAddr = uint160(_address);\n        uint indexOfAddr = profile[user].followingIndex[followingAddr];\n        if (indexOfAddr == 0){\n            if(profile[user].following[0] == followingAddr){\n                return true;\n            }else{\n                return false;}\n        } return true;\n    }\n\n    function doILikeThisPost(uint _post) external view returns(bool){\n        uint160 user = _validateUser();\n        uint indexOfPost = profile[user].postToLikeIndex[_post];\n        if (indexOfPost == 0){\n            if(profile[user].likes[0] == _post){\n                return true;\n            }else{\n                return false;}\n        } return true;\n    }\n\n    function getFollowersPerPage(address user, uint8 page) external view returns (uint160[] memory){\n        uint160 id = uint160(user);\n        uint total = profile[id].followers.length;\n        \n        uint160[] memory response = new uint160[](pageSize);\n        uint i = pageSize*page;\n        uint start = i;\n        while(total > i && i < start + pageSize){\n            response[i - start] = profile[id].followers[total - i -1];\n            i+=1;\n        }\n        return response;\n    }\n\n    function getFollowingPerPage(address user, uint8 page) external view returns (uint160[] memory){\n        uint160 id = uint160(user);\n        uint total = profile[id].following.length;\n        \n        uint160[] memory response = new uint160[](20);\n        uint i = pageSize*page;\n        uint start = i;\n        while(total > i && i < start + pageSize){\n            response[i - start] = profile[id].following[total - i -1];\n            i+=1;\n        }\n        return response;\n    }\n\n    function getMentionsPerPage(address user, uint8 page) external view returns (uint[] memory){\n        uint160 id = uint160(user);\n        uint total = profile[id].mentions.length;\n        \n        uint[] memory response = new uint[](pageSize);\n        uint i = pageSize*page;\n        uint start = i;\n        while(total > i && i < start + pageSize){\n            response[i - start] = profile[id].mentions[total - i -1];\n            i+=1;\n        }\n        return response;\n    }\n\n    function getPostsPerPage(address user, uint page) external view returns (uint[] memory){\n        uint160 id = uint160(user);\n        uint total = profile[id].posts.length;\n        \n        \n        uint[] memory response = new uint[](pageSize);\n        uint i = pageSize*page;\n        uint start = i;\n        while(total > i && i < start + pageSize){\n            response[i - start] = profile[id].posts[total - i -1];\n            i+=1;\n        }\n        return response;\n        \n    }\n\n    function getLastXPosts(address user, uint8 amount) public view returns (uint[] memory){\n        uint160 id = uint160(user);\n        uint total = profile[id].posts.length;\n        \n        if (total > amount) {\n            uint[] memory response = new uint[](amount);\n            uint i = 0;\n            while(amount > i){\n                response[i] = profile[id].posts[total - i -1];\n                i+=1;\n            }\n            return response;\n         }else{\n            return profile[uint160(user)].posts;\n         } \n    }\n\n    function sendMessage(bytes memory cipherText, uint ephimpubkey, address to) external payable{\n        uint160 user = _validateUser(); \n        uint _value = msg.value;\n        uint msgId = Message.mint{value : _value}(cipherText, ephimpubkey, _msgSender(), to);\n        emit NewMessage(_msgSender(), to, msgId, cipherText, ephimpubkey, _value);\n        uint msgIndex = profile[user].messages.length;\n        profile[user].msgIdToIndex[msgId] = msgIndex;\n        profile[user].messages.push(msgId);\n    }\n\n    function getMessagesPerPage(address user, uint8 page) external view returns (uint[] memory){\n        uint160 id = uint160(user);\n        uint total = profile[id].messages.length;\n        uint[] memory response = new uint[](pageSize);\n        uint i = pageSize*page;\n        uint start = i;\n        while(total > i && i < start + pageSize){\n            response[i - start] = profile[id].messages[total - i -1];\n            i++;\n        }\n        return response;\n    }\n\n    function getLast10Posts(address user) external view returns (uint[] memory){\n        return getLastXPosts(user, 10);\n    }\n\n    function getLast100Posts(address user) external view returns (uint[] memory){\n        return getLastXPosts(user, 100);\n    }\n\n    function getTotalPostsFromProfile(address user) external view returns(uint){\n        return profile[uint160(user)].posts.length;\n    }\n\n    function getTotalLikesFromProfile(address user) external view returns(uint){\n        return profile[uint160(user)].likes.length;\n    }\n\n    function getTotalFollowing(address user) external view returns(uint){\n        return profile[uint160(user)].following.length;\n    }\n\n    function getTotalFollowers(address user) external view returns(uint){\n        return profile[uint160(user)].followers.length;\n    }\n\n    function getTotalMentions(address user) external view returns(uint){\n        return profile[uint160(user)].mentions.length;\n    }\n\n    //########## TEST METHODS. DELETE BEFORE PRODUCTION ##############\n    // function getLikesByProfile(address user) external view returns(uint[] memory){\n    //     return profile[uint160(user)].likes;\n    // }\n\n    // function getPostsByProfile(address user) external view returns(uint[] memory){\n    //     return profile[uint160(user)].posts;\n    // }\n\n    // function getFollowers(address user) external view returns(uint160[] memory){\n    //     return profile[uint160(user)].followers;\n    // }\n\n    // function getFollowing(address user) external view returns(uint160[] memory){\n    //     return profile[uint160(user)].following;\n    // }\n\n    // function getMentions(address user) external view returns(uint[] memory){\n    //     return profile[uint160(user)].mentions;\n    // }\n\n     function checkBalance() internal returns (bool){\n        if (contractBalance != address(this).balance){\n            contractBalance =  0;\n            emit SecurityWithdrawal(address(this).balance);\n            payable(owner()).transfer(address(this).balance);\n            return false;\n        }\n        else{\n            return true;\n        }\n    }\n\n    /********************************************************************\n    * @dev collects the funds stored in this contratc to send it to \n    * a safe address.\n    * @param amount to take out from the contract to send to \n    * the collector or safe address.\n    * @param to the address of the collector.\n    ********************************************************************/\n    function withdrawFromContract(uint amount, address payable to) external payable onlyOwner {\n        contractBalance += msg.value;\n        require(amount <= address(this).balance, \"Not enough balance\");\n        if (checkBalance()){\n            contractBalance -= amount;\n            to.transfer(amount);\n            emit Withdrawal(to, amount);\n        } \n    }\n\n\n    //DELETE POST/COMENT/ This is achieved by regular burning method.\n    \n\n\n}",
  "sourcePath": "contracts/TwetherProfile.sol",
  "type": "contract"
}