{
  "abi": [
    {
      "anonymous": false,
      "inputs": [
        {
          "indexed": true,
          "internalType": "address",
          "name": "previousOwner",
          "type": "address"
        },
        {
          "indexed": true,
          "internalType": "address",
          "name": "newOwner",
          "type": "address"
        }
      ],
      "name": "OwnershipTransferred",
      "type": "event"
    },
    {
      "inputs": [
        {
          "internalType": "address",
          "name": "user",
          "type": "address"
        }
      ],
      "name": "getFeed",
      "outputs": [
        {
          "internalType": "uint256[]",
          "name": "",
          "type": "uint256[]"
        }
      ],
      "stateMutability": "view",
      "type": "function"
    },
    {
      "inputs": [
        {
          "internalType": "address",
          "name": "user",
          "type": "address"
        }
      ],
      "name": "getLikesFromProfile",
      "outputs": [
        {
          "internalType": "uint256[]",
          "name": "",
          "type": "uint256[]"
        }
      ],
      "stateMutability": "view",
      "type": "function"
    },
    {
      "inputs": [
        {
          "internalType": "address",
          "name": "user",
          "type": "address"
        }
      ],
      "name": "getMentions",
      "outputs": [
        {
          "internalType": "uint256[]",
          "name": "",
          "type": "uint256[]"
        }
      ],
      "stateMutability": "view",
      "type": "function"
    },
    {
      "inputs": [
        {
          "internalType": "address",
          "name": "_address",
          "type": "address"
        }
      ],
      "name": "getProfile",
      "outputs": [
        {
          "internalType": "bytes32",
          "name": "",
          "type": "bytes32"
        },
        {
          "internalType": "bytes",
          "name": "",
          "type": "bytes"
        },
        {
          "internalType": "bytes",
          "name": "",
          "type": "bytes"
        }
      ],
      "stateMutability": "view",
      "type": "function"
    },
    {
      "inputs": [
        {
          "internalType": "address",
          "name": "user",
          "type": "address"
        }
      ],
      "name": "getProfileFollowers",
      "outputs": [
        {
          "internalType": "uint160[]",
          "name": "",
          "type": "uint160[]"
        }
      ],
      "stateMutability": "view",
      "type": "function"
    },
    {
      "inputs": [
        {
          "internalType": "address",
          "name": "user",
          "type": "address"
        }
      ],
      "name": "getProfileFollowing",
      "outputs": [
        {
          "internalType": "uint160[]",
          "name": "",
          "type": "uint160[]"
        }
      ],
      "stateMutability": "view",
      "type": "function"
    },
    {
      "inputs": [
        {
          "internalType": "uint256",
          "name": "tweethId",
          "type": "uint256"
        }
      ],
      "name": "getTweeth",
      "outputs": [
        {
          "components": [
            {
              "internalType": "bytes",
              "name": "text",
              "type": "bytes"
            },
            {
              "internalType": "bytes",
              "name": "media_url",
              "type": "bytes"
            },
            {
              "internalType": "uint160",
              "name": "author",
              "type": "uint160"
            },
            {
              "internalType": "uint256",
              "name": "parentTweeth",
              "type": "uint256"
            },
            {
              "internalType": "uint256",
              "name": "timestamp",
              "type": "uint256"
            },
            {
              "internalType": "uint256",
              "name": "likes",
              "type": "uint256"
            },
            {
              "internalType": "uint256",
              "name": "comments",
              "type": "uint256"
            },
            {
              "internalType": "uint256",
              "name": "shares",
              "type": "uint256"
            }
          ],
          "internalType": "struct TweethRepresentation",
          "name": "",
          "type": "tuple"
        }
      ],
      "stateMutability": "view",
      "type": "function"
    },
    {
      "inputs": [
        {
          "internalType": "uint256",
          "name": "tweethId",
          "type": "uint256"
        }
      ],
      "name": "getTweethComments",
      "outputs": [
        {
          "internalType": "uint256[]",
          "name": "",
          "type": "uint256[]"
        }
      ],
      "stateMutability": "view",
      "type": "function"
    },
    {
      "inputs": [
        {
          "internalType": "uint256",
          "name": "tweethId",
          "type": "uint256"
        }
      ],
      "name": "getTweethLikes",
      "outputs": [
        {
          "internalType": "uint160[]",
          "name": "",
          "type": "uint160[]"
        }
      ],
      "stateMutability": "view",
      "type": "function"
    },
    {
      "inputs": [],
      "name": "owner",
      "outputs": [
        {
          "internalType": "address",
          "name": "",
          "type": "address"
        }
      ],
      "stateMutability": "view",
      "type": "function"
    },
    {
      "inputs": [],
      "name": "renounceOwnership",
      "outputs": [],
      "stateMutability": "nonpayable",
      "type": "function"
    },
    {
      "inputs": [
        {
          "internalType": "uint16",
          "name": "_feedSize",
          "type": "uint16"
        }
      ],
      "name": "setFeedSize",
      "outputs": [],
      "stateMutability": "nonpayable",
      "type": "function"
    },
    {
      "inputs": [
        {
          "internalType": "uint8",
          "name": "_depthFactor",
          "type": "uint8"
        }
      ],
      "name": "setFeedSize",
      "outputs": [],
      "stateMutability": "nonpayable",
      "type": "function"
    },
    {
      "inputs": [
        {
          "internalType": "address",
          "name": "_address",
          "type": "address"
        }
      ],
      "name": "setPost",
      "outputs": [],
      "stateMutability": "nonpayable",
      "type": "function"
    },
    {
      "inputs": [
        {
          "internalType": "address",
          "name": "_address",
          "type": "address"
        }
      ],
      "name": "setProfile",
      "outputs": [],
      "stateMutability": "nonpayable",
      "type": "function"
    },
    {
      "inputs": [
        {
          "internalType": "address",
          "name": "newOwner",
          "type": "address"
        }
      ],
      "name": "transferOwnership",
      "outputs": [],
      "stateMutability": "nonpayable",
      "type": "function"
    }
  ],
  "bytecode": "60806040526002805462ffffff60a01b191661807d60a21b17905534801561002657600080fd5b5061003033610035565b610085565b600080546001600160a01b038381166001600160a01b0319831681178455604051919092169283917f8be0079c531659141344cd1fd0a4f28419497f9722a3daafe3b4186f6b6457e09190a35050565b61112e806100946000396000f3fe608060405234801561001057600080fd5b50600436106101005760003560e01c80638da5cb5b11610097578063c638ef3211610066578063c638ef3214610227578063e0b6a1e31461023a578063f2fde38b1461024d578063f985e2171461026057600080fd5b80638da5cb5b146101d3578063a5e6c129146101ee578063b43f636014610201578063b83f3db01461021457600080fd5b80632067b1cb116100d35780632067b1cb146101855780636584cdd514610198578063715018a6146101b85780638bfb34a1146101c057600080fd5b80630665831c146101055780630f53a4701461011a57806316b8e731146101455780631b72bc5414610165575b600080fd5b610118610113366004610a78565b610273565b005b61012d610128366004610a78565b61029d565b60405161013c93929190610af8565b60405180910390f35b610158610153366004610a78565b610323565b60405161013c9190610b2d565b610178610173366004610b65565b610631565b60405161013c9190610b7e565b610158610193366004610a78565b6106f9565b6101ab6101a6366004610a78565b61076d565b60405161013c9190610c0b565b6101186107e1565b6101186101ce366004610c4c565b6107f5565b6000546040516001600160a01b03909116815260200161013c565b6101586101fc366004610a78565b61081f565b61011861020f366004610c70565b610852565b6101ab610222366004610b65565b61087a565b6101ab610235366004610a78565b6108ac565b610118610248366004610a78565b6108df565b61011861025b366004610a78565b610909565b61015861026e366004610b65565b610987565b61027b6109b9565b600180546001600160a01b0319166001600160a01b0392909216919091179055565b60025460405162f53a4760e41b81526001600160a01b038381166004830152600092606092839290911690630f53a47090602401600060405180830381865afa1580156102ee573d6000803e3d6000fd5b505050506040513d6000823e601f3d908101601f191682016040526103169190810190610d70565b9250925092509193909250565b60025460405163d8236dff60e01b81526001600160a01b03838116600483015260609260009291169063d8236dff90602401600060405180830381865afa158015610372573d6000803e3d6000fd5b505050506040513d6000823e601f3d908101601f1916820160405261039a9190810190610e11565b90506000600260149054906101000a900461ffff1661ffff16825160646103c19190610ec6565b6103cb9190610ee5565b9050600060116103dc60c884610ee5565b116103e85760036103fe565b6103f360c883610ee5565b6103fe906014610f07565b600254845191925060009160ff600160b01b9092048216916104239190851690610ec6565b61042d9190610ec6565b67ffffffffffffffff81111561044557610445610c93565b60405190808252806020026020018201604052801561046e578160200160208202803683370190505b5090506000805b81865111156106255760025486516000916001600160a01b031690633f957532908990869081106104a8576104a8610f1e565b6020026020010151600260169054906101000a900460ff16886104cb9190610f34565b6040516001600160e01b031960e085901b1681526001600160a01b03909216600483015260ff166024820152604401600060405180830381865afa158015610517573d6000803e3d6000fd5b505050506040513d6000823e601f3d908101601f1916820160405261053f9190810190610f5d565b90506000806000835190505b808360ff1610156105f657838360ff168151811061056b5761056b610f1e565b60200260200101516000146105d657838360ff168151811061058f5761058f610f1e565b6020026020010151878360ff168560ff16886105ab9190610fe3565b6105b59190610f07565b815181106105c5576105c5610f1e565b6020026020010181815250506105e4565b6105e1600183610ffb565b91505b6105ef600184610ffb565b925061054b565b610601600187610fe3565b955061061060ff831682610f07565b61061a9086610fe3565b945050505050610475565b50909695505050505050565b610682604051806101000160405280606081526020016060815260200160006001600160a01b0316815260200160008152602001600081526020016000815260200160008152602001600081525090565b6001546040516306dcaf1560e21b8152600481018490526001600160a01b0390911690631b72bc5490602401600060405180830381865afa1580156106cb573d6000803e3d6000fd5b505050506040513d6000823e601f3d908101601f191682016040526106f39190810190611020565b92915050565b600254604051632067b1cb60e01b81526001600160a01b0383811660048301526060921690632067b1cb906024015b600060405180830381865afa158015610745573d6000803e3d6000fd5b505050506040513d6000823e601f3d908101601f191682016040526106f39190810190610f5d565b60025460405163617f101160e11b81526001600160a01b038381166004830152606092169063c2fe2022906024015b600060405180830381865afa1580156107b9573d6000803e3d6000fd5b505050506040513d6000823e601f3d908101601f191682016040526106f39190810190610e11565b6107e96109b9565b6107f36000610a13565b565b6107fd6109b9565b6002805461ffff909216600160a01b0261ffff60a01b19909216919091179055565b60025460405163fd6d2fd360e01b81526001600160a01b038381166004830152606092169063fd6d2fd390602401610728565b61085a6109b9565b6002805460ff909216600160b01b0260ff60b01b19909216919091179055565b600154604051635104840f60e11b8152600481018390526060916001600160a01b03169063a209081e9060240161079c565b60025460405163d8236dff60e01b81526001600160a01b038381166004830152606092169063d8236dff9060240161079c565b6108e76109b9565b600280546001600160a01b0319166001600160a01b0392909216919091179055565b6109116109b9565b6001600160a01b03811661097b5760405162461bcd60e51b815260206004820152602660248201527f4f776e61626c653a206e6577206f776e657220697320746865207a65726f206160448201526564647265737360d01b60648201526084015b60405180910390fd5b61098481610a13565b50565b6001546040516323edf69760e01b8152600481018390526060916001600160a01b0316906323edf69790602401610728565b6000546001600160a01b031633146107f35760405162461bcd60e51b815260206004820181905260248201527f4f776e61626c653a2063616c6c6572206973206e6f7420746865206f776e65726044820152606401610972565b600080546001600160a01b038381166001600160a01b0319831681178455604051919092169283917f8be0079c531659141344cd1fd0a4f28419497f9722a3daafe3b4186f6b6457e09190a35050565b6001600160a01b038116811461098457600080fd5b600060208284031215610a8a57600080fd5b8135610a9581610a63565b9392505050565b60005b83811015610ab7578181015183820152602001610a9f565b83811115610ac6576000848401525b50505050565b60008151808452610ae4816020860160208601610a9c565b601f01601f19169290920160200192915050565b838152606060208201526000610b116060830185610acc565b8281036040840152610b238185610acc565b9695505050505050565b6020808252825182820181905260009190848201906040850190845b8181101561062557835183529284019291840191600101610b49565b600060208284031215610b7757600080fd5b5035919050565b6020815260008251610100806020850152610b9d610120850183610acc565b91506020850151601f19858403016040860152610bba8382610acc565b92505060018060a01b03604086015116606085015260608501516080850152608085015160a085015260a085015160c085015260c085015160e085015260e085015181850152508091505092915050565b6020808252825182820181905260009190848201906040850190845b818110156106255783516001600160a01b031683529284019291840191600101610c27565b600060208284031215610c5e57600080fd5b813561ffff81168114610a9557600080fd5b600060208284031215610c8257600080fd5b813560ff81168114610a9557600080fd5b634e487b7160e01b600052604160045260246000fd5b604051610100810167ffffffffffffffff81118282101715610ccd57610ccd610c93565b60405290565b604051601f8201601f1916810167ffffffffffffffff81118282101715610cfc57610cfc610c93565b604052919050565b600082601f830112610d1557600080fd5b815167ffffffffffffffff811115610d2f57610d2f610c93565b610d42601f8201601f1916602001610cd3565b818152846020838601011115610d5757600080fd5b610d68826020830160208701610a9c565b949350505050565b600080600060608486031215610d8557600080fd5b83519250602084015167ffffffffffffffff80821115610da457600080fd5b610db087838801610d04565b93506040860151915080821115610dc657600080fd5b50610dd386828701610d04565b9150509250925092565b600067ffffffffffffffff821115610df757610df7610c93565b5060051b60200190565b8051610e0c81610a63565b919050565b60006020808385031215610e2457600080fd5b825167ffffffffffffffff811115610e3b57600080fd5b8301601f81018513610e4c57600080fd5b8051610e5f610e5a82610ddd565b610cd3565b81815260059190911b82018301908381019087831115610e7e57600080fd5b928401925b82841015610ea5578351610e9681610a63565b82529284019290840190610e83565b979650505050505050565b634e487b7160e01b600052601160045260246000fd5b6000816000190483118215151615610ee057610ee0610eb0565b500290565b600082610f0257634e487b7160e01b600052601260045260246000fd5b500490565b600082821015610f1957610f19610eb0565b500390565b634e487b7160e01b600052603260045260246000fd5b600060ff821660ff84168160ff0481118215151615610f5557610f55610eb0565b029392505050565b60006020808385031215610f7057600080fd5b825167ffffffffffffffff811115610f8757600080fd5b8301601f81018513610f9857600080fd5b8051610fa6610e5a82610ddd565b81815260059190911b82018301908381019087831115610fc557600080fd5b928401925b82841015610ea557835182529284019290840190610fca565b60008219821115610ff657610ff6610eb0565b500190565b600060ff821660ff84168060ff0382111561101857611018610eb0565b019392505050565b60006020828403121561103257600080fd5b815167ffffffffffffffff8082111561104a57600080fd5b90830190610100828603121561105f57600080fd5b611067610ca9565b82518281111561107657600080fd5b61108287828601610d04565b82525060208301518281111561109757600080fd5b6110a387828601610d04565b6020830152506110b560408401610e01565b6040820152606083015160608201526080830151608082015260a083015160a082015260c083015160c082015260e083015160e08201528093505050509291505056fea2646970667358221220f63217aa3ed77e0a84b75d9d1b05ff2b1ee9e5d647f94f5d730448964aecad8764736f6c634300080d0033",
  "bytecodeSha1": "0639a2cebb27d5f5e5f67e2109a5fffad1c24059",
  "compiler": {
    "evm_version": "istanbul",
    "optimizer": {
      "enabled": true,
      "runs": 200
    },
    "version": "0.8.13+commit.abaa5c0e"
  },
  "contractName": "TwetherAnalytics",
  "language": "Solidity",
  "natspec": {
    "kind": "dev",
    "methods": {
      "owner()": {
        "details": "Returns the address of the current owner."
      },
      "renounceOwnership()": {
        "details": "Leaves the contract without owner. It will not be possible to call `onlyOwner` functions anymore. Can only be called by the current owner. NOTE: Renouncing ownership will leave the contract without an owner, thereby removing any functionality that is only available to the owner."
      },
      "transferOwnership(address)": {
        "details": "Transfers ownership of the contract to a new account (`newOwner`). Can only be called by the current owner."
      }
    },
    "version": 1
  },
  "opcodes": "PUSH1 0x80 PUSH1 0x40 MSTORE CALLVALUE DUP1 ISZERO PUSH2 0x10 JUMPI PUSH1 0x0 DUP1 REVERT JUMPDEST POP PUSH1 0x4 CALLDATASIZE LT PUSH2 0x100 JUMPI PUSH1 0x0 CALLDATALOAD PUSH1 0xE0 SHR DUP1 PUSH4 0x8DA5CB5B GT PUSH2 0x97 JUMPI DUP1 PUSH4 0xC638EF32 GT PUSH2 0x66 JUMPI DUP1 PUSH4 0xC638EF32 EQ PUSH2 0x227 JUMPI DUP1 PUSH4 0xE0B6A1E3 EQ PUSH2 0x23A JUMPI DUP1 PUSH4 0xF2FDE38B EQ PUSH2 0x24D JUMPI DUP1 PUSH4 0xF985E217 EQ PUSH2 0x260 JUMPI PUSH1 0x0 DUP1 REVERT JUMPDEST DUP1 PUSH4 0x8DA5CB5B EQ PUSH2 0x1D3 JUMPI DUP1 PUSH4 0xA5E6C129 EQ PUSH2 0x1EE JUMPI DUP1 PUSH4 0xB43F6360 EQ PUSH2 0x201 JUMPI DUP1 PUSH4 0xB83F3DB0 EQ PUSH2 0x214 JUMPI PUSH1 0x0 DUP1 REVERT JUMPDEST DUP1 PUSH4 0x2067B1CB GT PUSH2 0xD3 JUMPI DUP1 PUSH4 0x2067B1CB EQ PUSH2 0x185 JUMPI DUP1 PUSH4 0x6584CDD5 EQ PUSH2 0x198 JUMPI DUP1 PUSH4 0x715018A6 EQ PUSH2 0x1B8 JUMPI DUP1 PUSH4 0x8BFB34A1 EQ PUSH2 0x1C0 JUMPI PUSH1 0x0 DUP1 REVERT JUMPDEST DUP1 PUSH4 0x665831C EQ PUSH2 0x105 JUMPI DUP1 PUSH4 0xF53A470 EQ PUSH2 0x11A JUMPI DUP1 PUSH4 0x16B8E731 EQ PUSH2 0x145 JUMPI DUP1 PUSH4 0x1B72BC54 EQ PUSH2 0x165 JUMPI JUMPDEST PUSH1 0x0 DUP1 REVERT JUMPDEST PUSH2 0x118 PUSH2 0x113 CALLDATASIZE PUSH1 0x4 PUSH2 0xA78 JUMP JUMPDEST PUSH2 0x273 JUMP JUMPDEST STOP JUMPDEST PUSH2 0x12D PUSH2 0x128 CALLDATASIZE PUSH1 0x4 PUSH2 0xA78 JUMP JUMPDEST PUSH2 0x29D JUMP JUMPDEST PUSH1 0x40 MLOAD PUSH2 0x13C SWAP4 SWAP3 SWAP2 SWAP1 PUSH2 0xAF8 JUMP JUMPDEST PUSH1 0x40 MLOAD DUP1 SWAP2 SUB SWAP1 RETURN JUMPDEST PUSH2 0x158 PUSH2 0x153 CALLDATASIZE PUSH1 0x4 PUSH2 0xA78 JUMP JUMPDEST PUSH2 0x323 JUMP JUMPDEST PUSH1 0x40 MLOAD PUSH2 0x13C SWAP2 SWAP1 PUSH2 0xB2D JUMP JUMPDEST PUSH2 0x178 PUSH2 0x173 CALLDATASIZE PUSH1 0x4 PUSH2 0xB65 JUMP JUMPDEST PUSH2 0x631 JUMP JUMPDEST PUSH1 0x40 MLOAD PUSH2 0x13C SWAP2 SWAP1 PUSH2 0xB7E JUMP JUMPDEST PUSH2 0x158 PUSH2 0x193 CALLDATASIZE PUSH1 0x4 PUSH2 0xA78 JUMP JUMPDEST PUSH2 0x6F9 JUMP JUMPDEST PUSH2 0x1AB PUSH2 0x1A6 CALLDATASIZE PUSH1 0x4 PUSH2 0xA78 JUMP JUMPDEST PUSH2 0x76D JUMP JUMPDEST PUSH1 0x40 MLOAD PUSH2 0x13C SWAP2 SWAP1 PUSH2 0xC0B JUMP JUMPDEST PUSH2 0x118 PUSH2 0x7E1 JUMP JUMPDEST PUSH2 0x118 PUSH2 0x1CE CALLDATASIZE PUSH1 0x4 PUSH2 0xC4C JUMP JUMPDEST PUSH2 0x7F5 JUMP JUMPDEST PUSH1 0x0 SLOAD PUSH1 0x40 MLOAD PUSH1 0x1 PUSH1 0x1 PUSH1 0xA0 SHL SUB SWAP1 SWAP2 AND DUP2 MSTORE PUSH1 0x20 ADD PUSH2 0x13C JUMP JUMPDEST PUSH2 0x158 PUSH2 0x1FC CALLDATASIZE PUSH1 0x4 PUSH2 0xA78 JUMP JUMPDEST PUSH2 0x81F JUMP JUMPDEST PUSH2 0x118 PUSH2 0x20F CALLDATASIZE PUSH1 0x4 PUSH2 0xC70 JUMP JUMPDEST PUSH2 0x852 JUMP JUMPDEST PUSH2 0x1AB PUSH2 0x222 CALLDATASIZE PUSH1 0x4 PUSH2 0xB65 JUMP JUMPDEST PUSH2 0x87A JUMP JUMPDEST PUSH2 0x1AB PUSH2 0x235 CALLDATASIZE PUSH1 0x4 PUSH2 0xA78 JUMP JUMPDEST PUSH2 0x8AC JUMP JUMPDEST PUSH2 0x118 PUSH2 0x248 CALLDATASIZE PUSH1 0x4 PUSH2 0xA78 JUMP JUMPDEST PUSH2 0x8DF JUMP JUMPDEST PUSH2 0x118 PUSH2 0x25B CALLDATASIZE PUSH1 0x4 PUSH2 0xA78 JUMP JUMPDEST PUSH2 0x909 JUMP JUMPDEST PUSH2 0x158 PUSH2 0x26E CALLDATASIZE PUSH1 0x4 PUSH2 0xB65 JUMP JUMPDEST PUSH2 0x987 JUMP JUMPDEST PUSH2 0x27B PUSH2 0x9B9 JUMP JUMPDEST PUSH1 0x1 DUP1 SLOAD PUSH1 0x1 PUSH1 0x1 PUSH1 0xA0 SHL SUB NOT AND PUSH1 0x1 PUSH1 0x1 PUSH1 0xA0 SHL SUB SWAP3 SWAP1 SWAP3 AND SWAP2 SWAP1 SWAP2 OR SWAP1 SSTORE JUMP JUMPDEST PUSH1 0x2 SLOAD PUSH1 0x40 MLOAD PUSH3 0xF53A47 PUSH1 0xE4 SHL DUP2 MSTORE PUSH1 0x1 PUSH1 0x1 PUSH1 0xA0 SHL SUB DUP4 DUP2 AND PUSH1 0x4 DUP4 ADD MSTORE PUSH1 0x0 SWAP3 PUSH1 0x60 SWAP3 DUP4 SWAP3 SWAP1 SWAP2 AND SWAP1 PUSH4 0xF53A470 SWAP1 PUSH1 0x24 ADD PUSH1 0x0 PUSH1 0x40 MLOAD DUP1 DUP4 SUB DUP2 DUP7 GAS STATICCALL ISZERO DUP1 ISZERO PUSH2 0x2EE JUMPI RETURNDATASIZE PUSH1 0x0 DUP1 RETURNDATACOPY RETURNDATASIZE PUSH1 0x0 REVERT JUMPDEST POP POP POP POP PUSH1 0x40 MLOAD RETURNDATASIZE PUSH1 0x0 DUP3 RETURNDATACOPY PUSH1 0x1F RETURNDATASIZE SWAP1 DUP2 ADD PUSH1 0x1F NOT AND DUP3 ADD PUSH1 0x40 MSTORE PUSH2 0x316 SWAP2 SWAP1 DUP2 ADD SWAP1 PUSH2 0xD70 JUMP JUMPDEST SWAP3 POP SWAP3 POP SWAP3 POP SWAP2 SWAP4 SWAP1 SWAP3 POP JUMP JUMPDEST PUSH1 0x2 SLOAD PUSH1 0x40 MLOAD PUSH4 0xD8236DFF PUSH1 0xE0 SHL DUP2 MSTORE PUSH1 0x1 PUSH1 0x1 PUSH1 0xA0 SHL SUB DUP4 DUP2 AND PUSH1 0x4 DUP4 ADD MSTORE PUSH1 0x60 SWAP3 PUSH1 0x0 SWAP3 SWAP2 AND SWAP1 PUSH4 0xD8236DFF SWAP1 PUSH1 0x24 ADD PUSH1 0x0 PUSH1 0x40 MLOAD DUP1 DUP4 SUB DUP2 DUP7 GAS STATICCALL ISZERO DUP1 ISZERO PUSH2 0x372 JUMPI RETURNDATASIZE PUSH1 0x0 DUP1 RETURNDATACOPY RETURNDATASIZE PUSH1 0x0 REVERT JUMPDEST POP POP POP POP PUSH1 0x40 MLOAD RETURNDATASIZE PUSH1 0x0 DUP3 RETURNDATACOPY PUSH1 0x1F RETURNDATASIZE SWAP1 DUP2 ADD PUSH1 0x1F NOT AND DUP3 ADD PUSH1 0x40 MSTORE PUSH2 0x39A SWAP2 SWAP1 DUP2 ADD SWAP1 PUSH2 0xE11 JUMP JUMPDEST SWAP1 POP PUSH1 0x0 PUSH1 0x2 PUSH1 0x14 SWAP1 SLOAD SWAP1 PUSH2 0x100 EXP SWAP1 DIV PUSH2 0xFFFF AND PUSH2 0xFFFF AND DUP3 MLOAD PUSH1 0x64 PUSH2 0x3C1 SWAP2 SWAP1 PUSH2 0xEC6 JUMP JUMPDEST PUSH2 0x3CB SWAP2 SWAP1 PUSH2 0xEE5 JUMP JUMPDEST SWAP1 POP PUSH1 0x0 PUSH1 0x11 PUSH2 0x3DC PUSH1 0xC8 DUP5 PUSH2 0xEE5 JUMP JUMPDEST GT PUSH2 0x3E8 JUMPI PUSH1 0x3 PUSH2 0x3FE JUMP JUMPDEST PUSH2 0x3F3 PUSH1 0xC8 DUP4 PUSH2 0xEE5 JUMP JUMPDEST PUSH2 0x3FE SWAP1 PUSH1 0x14 PUSH2 0xF07 JUMP JUMPDEST PUSH1 0x2 SLOAD DUP5 MLOAD SWAP2 SWAP3 POP PUSH1 0x0 SWAP2 PUSH1 0xFF PUSH1 0x1 PUSH1 0xB0 SHL SWAP1 SWAP3 DIV DUP3 AND SWAP2 PUSH2 0x423 SWAP2 SWAP1 DUP6 AND SWAP1 PUSH2 0xEC6 JUMP JUMPDEST PUSH2 0x42D SWAP2 SWAP1 PUSH2 0xEC6 JUMP JUMPDEST PUSH8 0xFFFFFFFFFFFFFFFF DUP2 GT ISZERO PUSH2 0x445 JUMPI PUSH2 0x445 PUSH2 0xC93 JUMP JUMPDEST PUSH1 0x40 MLOAD SWAP1 DUP1 DUP3 MSTORE DUP1 PUSH1 0x20 MUL PUSH1 0x20 ADD DUP3 ADD PUSH1 0x40 MSTORE DUP1 ISZERO PUSH2 0x46E JUMPI DUP2 PUSH1 0x20 ADD PUSH1 0x20 DUP3 MUL DUP1 CALLDATASIZE DUP4 CALLDATACOPY ADD SWAP1 POP JUMPDEST POP SWAP1 POP PUSH1 0x0 DUP1 JUMPDEST DUP2 DUP7 MLOAD GT ISZERO PUSH2 0x625 JUMPI PUSH1 0x2 SLOAD DUP7 MLOAD PUSH1 0x0 SWAP2 PUSH1 0x1 PUSH1 0x1 PUSH1 0xA0 SHL SUB AND SWAP1 PUSH4 0x3F957532 SWAP1 DUP10 SWAP1 DUP7 SWAP1 DUP2 LT PUSH2 0x4A8 JUMPI PUSH2 0x4A8 PUSH2 0xF1E JUMP JUMPDEST PUSH1 0x20 MUL PUSH1 0x20 ADD ADD MLOAD PUSH1 0x2 PUSH1 0x16 SWAP1 SLOAD SWAP1 PUSH2 0x100 EXP SWAP1 DIV PUSH1 0xFF AND DUP9 PUSH2 0x4CB SWAP2 SWAP1 PUSH2 0xF34 JUMP JUMPDEST PUSH1 0x40 MLOAD PUSH1 0x1 PUSH1 0x1 PUSH1 0xE0 SHL SUB NOT PUSH1 0xE0 DUP6 SWAP1 SHL AND DUP2 MSTORE PUSH1 0x1 PUSH1 0x1 PUSH1 0xA0 SHL SUB SWAP1 SWAP3 AND PUSH1 0x4 DUP4 ADD MSTORE PUSH1 0xFF AND PUSH1 0x24 DUP3 ADD MSTORE PUSH1 0x44 ADD PUSH1 0x0 PUSH1 0x40 MLOAD DUP1 DUP4 SUB DUP2 DUP7 GAS STATICCALL ISZERO DUP1 ISZERO PUSH2 0x517 JUMPI RETURNDATASIZE PUSH1 0x0 DUP1 RETURNDATACOPY RETURNDATASIZE PUSH1 0x0 REVERT JUMPDEST POP POP POP POP PUSH1 0x40 MLOAD RETURNDATASIZE PUSH1 0x0 DUP3 RETURNDATACOPY PUSH1 0x1F RETURNDATASIZE SWAP1 DUP2 ADD PUSH1 0x1F NOT AND DUP3 ADD PUSH1 0x40 MSTORE PUSH2 0x53F SWAP2 SWAP1 DUP2 ADD SWAP1 PUSH2 0xF5D JUMP JUMPDEST SWAP1 POP PUSH1 0x0 DUP1 PUSH1 0x0 DUP4 MLOAD SWAP1 POP JUMPDEST DUP1 DUP4 PUSH1 0xFF AND LT ISZERO PUSH2 0x5F6 JUMPI DUP4 DUP4 PUSH1 0xFF AND DUP2 MLOAD DUP2 LT PUSH2 0x56B JUMPI PUSH2 0x56B PUSH2 0xF1E JUMP JUMPDEST PUSH1 0x20 MUL PUSH1 0x20 ADD ADD MLOAD PUSH1 0x0 EQ PUSH2 0x5D6 JUMPI DUP4 DUP4 PUSH1 0xFF AND DUP2 MLOAD DUP2 LT PUSH2 0x58F JUMPI PUSH2 0x58F PUSH2 0xF1E JUMP JUMPDEST PUSH1 0x20 MUL PUSH1 0x20 ADD ADD MLOAD DUP8 DUP4 PUSH1 0xFF AND DUP6 PUSH1 0xFF AND DUP9 PUSH2 0x5AB SWAP2 SWAP1 PUSH2 0xFE3 JUMP JUMPDEST PUSH2 0x5B5 SWAP2 SWAP1 PUSH2 0xF07 JUMP JUMPDEST DUP2 MLOAD DUP2 LT PUSH2 0x5C5 JUMPI PUSH2 0x5C5 PUSH2 0xF1E JUMP JUMPDEST PUSH1 0x20 MUL PUSH1 0x20 ADD ADD DUP2 DUP2 MSTORE POP POP PUSH2 0x5E4 JUMP JUMPDEST PUSH2 0x5E1 PUSH1 0x1 DUP4 PUSH2 0xFFB JUMP JUMPDEST SWAP2 POP JUMPDEST PUSH2 0x5EF PUSH1 0x1 DUP5 PUSH2 0xFFB JUMP JUMPDEST SWAP3 POP PUSH2 0x54B JUMP JUMPDEST PUSH2 0x601 PUSH1 0x1 DUP8 PUSH2 0xFE3 JUMP JUMPDEST SWAP6 POP PUSH2 0x610 PUSH1 0xFF DUP4 AND DUP3 PUSH2 0xF07 JUMP JUMPDEST PUSH2 0x61A SWAP1 DUP7 PUSH2 0xFE3 JUMP JUMPDEST SWAP5 POP POP POP POP POP PUSH2 0x475 JUMP JUMPDEST POP SWAP1 SWAP7 SWAP6 POP POP POP POP POP POP JUMP JUMPDEST PUSH2 0x682 PUSH1 0x40 MLOAD DUP1 PUSH2 0x100 ADD PUSH1 0x40 MSTORE DUP1 PUSH1 0x60 DUP2 MSTORE PUSH1 0x20 ADD PUSH1 0x60 DUP2 MSTORE PUSH1 0x20 ADD PUSH1 0x0 PUSH1 0x1 PUSH1 0x1 PUSH1 0xA0 SHL SUB AND DUP2 MSTORE PUSH1 0x20 ADD PUSH1 0x0 DUP2 MSTORE PUSH1 0x20 ADD PUSH1 0x0 DUP2 MSTORE PUSH1 0x20 ADD PUSH1 0x0 DUP2 MSTORE PUSH1 0x20 ADD PUSH1 0x0 DUP2 MSTORE PUSH1 0x20 ADD PUSH1 0x0 DUP2 MSTORE POP SWAP1 JUMP JUMPDEST PUSH1 0x1 SLOAD PUSH1 0x40 MLOAD PUSH4 0x6DCAF15 PUSH1 0xE2 SHL DUP2 MSTORE PUSH1 0x4 DUP2 ADD DUP5 SWAP1 MSTORE PUSH1 0x1 PUSH1 0x1 PUSH1 0xA0 SHL SUB SWAP1 SWAP2 AND SWAP1 PUSH4 0x1B72BC54 SWAP1 PUSH1 0x24 ADD PUSH1 0x0 PUSH1 0x40 MLOAD DUP1 DUP4 SUB DUP2 DUP7 GAS STATICCALL ISZERO DUP1 ISZERO PUSH2 0x6CB JUMPI RETURNDATASIZE PUSH1 0x0 DUP1 RETURNDATACOPY RETURNDATASIZE PUSH1 0x0 REVERT JUMPDEST POP POP POP POP PUSH1 0x40 MLOAD RETURNDATASIZE PUSH1 0x0 DUP3 RETURNDATACOPY PUSH1 0x1F RETURNDATASIZE SWAP1 DUP2 ADD PUSH1 0x1F NOT AND DUP3 ADD PUSH1 0x40 MSTORE PUSH2 0x6F3 SWAP2 SWAP1 DUP2 ADD SWAP1 PUSH2 0x1020 JUMP JUMPDEST SWAP3 SWAP2 POP POP JUMP JUMPDEST PUSH1 0x2 SLOAD PUSH1 0x40 MLOAD PUSH4 0x2067B1CB PUSH1 0xE0 SHL DUP2 MSTORE PUSH1 0x1 PUSH1 0x1 PUSH1 0xA0 SHL SUB DUP4 DUP2 AND PUSH1 0x4 DUP4 ADD MSTORE PUSH1 0x60 SWAP3 AND SWAP1 PUSH4 0x2067B1CB SWAP1 PUSH1 0x24 ADD JUMPDEST PUSH1 0x0 PUSH1 0x40 MLOAD DUP1 DUP4 SUB DUP2 DUP7 GAS STATICCALL ISZERO DUP1 ISZERO PUSH2 0x745 JUMPI RETURNDATASIZE PUSH1 0x0 DUP1 RETURNDATACOPY RETURNDATASIZE PUSH1 0x0 REVERT JUMPDEST POP POP POP POP PUSH1 0x40 MLOAD RETURNDATASIZE PUSH1 0x0 DUP3 RETURNDATACOPY PUSH1 0x1F RETURNDATASIZE SWAP1 DUP2 ADD PUSH1 0x1F NOT AND DUP3 ADD PUSH1 0x40 MSTORE PUSH2 0x6F3 SWAP2 SWAP1 DUP2 ADD SWAP1 PUSH2 0xF5D JUMP JUMPDEST PUSH1 0x2 SLOAD PUSH1 0x40 MLOAD PUSH4 0x617F1011 PUSH1 0xE1 SHL DUP2 MSTORE PUSH1 0x1 PUSH1 0x1 PUSH1 0xA0 SHL SUB DUP4 DUP2 AND PUSH1 0x4 DUP4 ADD MSTORE PUSH1 0x60 SWAP3 AND SWAP1 PUSH4 0xC2FE2022 SWAP1 PUSH1 0x24 ADD JUMPDEST PUSH1 0x0 PUSH1 0x40 MLOAD DUP1 DUP4 SUB DUP2 DUP7 GAS STATICCALL ISZERO DUP1 ISZERO PUSH2 0x7B9 JUMPI RETURNDATASIZE PUSH1 0x0 DUP1 RETURNDATACOPY RETURNDATASIZE PUSH1 0x0 REVERT JUMPDEST POP POP POP POP PUSH1 0x40 MLOAD RETURNDATASIZE PUSH1 0x0 DUP3 RETURNDATACOPY PUSH1 0x1F RETURNDATASIZE SWAP1 DUP2 ADD PUSH1 0x1F NOT AND DUP3 ADD PUSH1 0x40 MSTORE PUSH2 0x6F3 SWAP2 SWAP1 DUP2 ADD SWAP1 PUSH2 0xE11 JUMP JUMPDEST PUSH2 0x7E9 PUSH2 0x9B9 JUMP JUMPDEST PUSH2 0x7F3 PUSH1 0x0 PUSH2 0xA13 JUMP JUMPDEST JUMP JUMPDEST PUSH2 0x7FD PUSH2 0x9B9 JUMP JUMPDEST PUSH1 0x2 DUP1 SLOAD PUSH2 0xFFFF SWAP1 SWAP3 AND PUSH1 0x1 PUSH1 0xA0 SHL MUL PUSH2 0xFFFF PUSH1 0xA0 SHL NOT SWAP1 SWAP3 AND SWAP2 SWAP1 SWAP2 OR SWAP1 SSTORE JUMP JUMPDEST PUSH1 0x2 SLOAD PUSH1 0x40 MLOAD PUSH4 0xFD6D2FD3 PUSH1 0xE0 SHL DUP2 MSTORE PUSH1 0x1 PUSH1 0x1 PUSH1 0xA0 SHL SUB DUP4 DUP2 AND PUSH1 0x4 DUP4 ADD MSTORE PUSH1 0x60 SWAP3 AND SWAP1 PUSH4 0xFD6D2FD3 SWAP1 PUSH1 0x24 ADD PUSH2 0x728 JUMP JUMPDEST PUSH2 0x85A PUSH2 0x9B9 JUMP JUMPDEST PUSH1 0x2 DUP1 SLOAD PUSH1 0xFF SWAP1 SWAP3 AND PUSH1 0x1 PUSH1 0xB0 SHL MUL PUSH1 0xFF PUSH1 0xB0 SHL NOT SWAP1 SWAP3 AND SWAP2 SWAP1 SWAP2 OR SWAP1 SSTORE JUMP JUMPDEST PUSH1 0x1 SLOAD PUSH1 0x40 MLOAD PUSH4 0x5104840F PUSH1 0xE1 SHL DUP2 MSTORE PUSH1 0x4 DUP2 ADD DUP4 SWAP1 MSTORE PUSH1 0x60 SWAP2 PUSH1 0x1 PUSH1 0x1 PUSH1 0xA0 SHL SUB AND SWAP1 PUSH4 0xA209081E SWAP1 PUSH1 0x24 ADD PUSH2 0x79C JUMP JUMPDEST PUSH1 0x2 SLOAD PUSH1 0x40 MLOAD PUSH4 0xD8236DFF PUSH1 0xE0 SHL DUP2 MSTORE PUSH1 0x1 PUSH1 0x1 PUSH1 0xA0 SHL SUB DUP4 DUP2 AND PUSH1 0x4 DUP4 ADD MSTORE PUSH1 0x60 SWAP3 AND SWAP1 PUSH4 0xD8236DFF SWAP1 PUSH1 0x24 ADD PUSH2 0x79C JUMP JUMPDEST PUSH2 0x8E7 PUSH2 0x9B9 JUMP JUMPDEST PUSH1 0x2 DUP1 SLOAD PUSH1 0x1 PUSH1 0x1 PUSH1 0xA0 SHL SUB NOT AND PUSH1 0x1 PUSH1 0x1 PUSH1 0xA0 SHL SUB SWAP3 SWAP1 SWAP3 AND SWAP2 SWAP1 SWAP2 OR SWAP1 SSTORE JUMP JUMPDEST PUSH2 0x911 PUSH2 0x9B9 JUMP JUMPDEST PUSH1 0x1 PUSH1 0x1 PUSH1 0xA0 SHL SUB DUP2 AND PUSH2 0x97B JUMPI PUSH1 0x40 MLOAD PUSH3 0x461BCD PUSH1 0xE5 SHL DUP2 MSTORE PUSH1 0x20 PUSH1 0x4 DUP3 ADD MSTORE PUSH1 0x26 PUSH1 0x24 DUP3 ADD MSTORE PUSH32 0x4F776E61626C653A206E6577206F776E657220697320746865207A65726F2061 PUSH1 0x44 DUP3 ADD MSTORE PUSH6 0x646472657373 PUSH1 0xD0 SHL PUSH1 0x64 DUP3 ADD MSTORE PUSH1 0x84 ADD JUMPDEST PUSH1 0x40 MLOAD DUP1 SWAP2 SUB SWAP1 REVERT JUMPDEST PUSH2 0x984 DUP2 PUSH2 0xA13 JUMP JUMPDEST POP JUMP JUMPDEST PUSH1 0x1 SLOAD PUSH1 0x40 MLOAD PUSH4 0x23EDF697 PUSH1 0xE0 SHL DUP2 MSTORE PUSH1 0x4 DUP2 ADD DUP4 SWAP1 MSTORE PUSH1 0x60 SWAP2 PUSH1 0x1 PUSH1 0x1 PUSH1 0xA0 SHL SUB AND SWAP1 PUSH4 0x23EDF697 SWAP1 PUSH1 0x24 ADD PUSH2 0x728 JUMP JUMPDEST PUSH1 0x0 SLOAD PUSH1 0x1 PUSH1 0x1 PUSH1 0xA0 SHL SUB AND CALLER EQ PUSH2 0x7F3 JUMPI PUSH1 0x40 MLOAD PUSH3 0x461BCD PUSH1 0xE5 SHL DUP2 MSTORE PUSH1 0x20 PUSH1 0x4 DUP3 ADD DUP2 SWAP1 MSTORE PUSH1 0x24 DUP3 ADD MSTORE PUSH32 0x4F776E61626C653A2063616C6C6572206973206E6F7420746865206F776E6572 PUSH1 0x44 DUP3 ADD MSTORE PUSH1 0x64 ADD PUSH2 0x972 JUMP JUMPDEST PUSH1 0x0 DUP1 SLOAD PUSH1 0x1 PUSH1 0x1 PUSH1 0xA0 SHL SUB DUP4 DUP2 AND PUSH1 0x1 PUSH1 0x1 PUSH1 0xA0 SHL SUB NOT DUP4 AND DUP2 OR DUP5 SSTORE PUSH1 0x40 MLOAD SWAP2 SWAP1 SWAP3 AND SWAP3 DUP4 SWAP2 PUSH32 0x8BE0079C531659141344CD1FD0A4F28419497F9722A3DAAFE3B4186F6B6457E0 SWAP2 SWAP1 LOG3 POP POP JUMP JUMPDEST PUSH1 0x1 PUSH1 0x1 PUSH1 0xA0 SHL SUB DUP2 AND DUP2 EQ PUSH2 0x984 JUMPI PUSH1 0x0 DUP1 REVERT JUMPDEST PUSH1 0x0 PUSH1 0x20 DUP3 DUP5 SUB SLT ISZERO PUSH2 0xA8A JUMPI PUSH1 0x0 DUP1 REVERT JUMPDEST DUP2 CALLDATALOAD PUSH2 0xA95 DUP2 PUSH2 0xA63 JUMP JUMPDEST SWAP4 SWAP3 POP POP POP JUMP JUMPDEST PUSH1 0x0 JUMPDEST DUP4 DUP2 LT ISZERO PUSH2 0xAB7 JUMPI DUP2 DUP2 ADD MLOAD DUP4 DUP3 ADD MSTORE PUSH1 0x20 ADD PUSH2 0xA9F JUMP JUMPDEST DUP4 DUP2 GT ISZERO PUSH2 0xAC6 JUMPI PUSH1 0x0 DUP5 DUP5 ADD MSTORE JUMPDEST POP POP POP POP JUMP JUMPDEST PUSH1 0x0 DUP2 MLOAD DUP1 DUP5 MSTORE PUSH2 0xAE4 DUP2 PUSH1 0x20 DUP7 ADD PUSH1 0x20 DUP7 ADD PUSH2 0xA9C JUMP JUMPDEST PUSH1 0x1F ADD PUSH1 0x1F NOT AND SWAP3 SWAP1 SWAP3 ADD PUSH1 0x20 ADD SWAP3 SWAP2 POP POP JUMP JUMPDEST DUP4 DUP2 MSTORE PUSH1 0x60 PUSH1 0x20 DUP3 ADD MSTORE PUSH1 0x0 PUSH2 0xB11 PUSH1 0x60 DUP4 ADD DUP6 PUSH2 0xACC JUMP JUMPDEST DUP3 DUP2 SUB PUSH1 0x40 DUP5 ADD MSTORE PUSH2 0xB23 DUP2 DUP6 PUSH2 0xACC JUMP JUMPDEST SWAP7 SWAP6 POP POP POP POP POP POP JUMP JUMPDEST PUSH1 0x20 DUP1 DUP3 MSTORE DUP3 MLOAD DUP3 DUP3 ADD DUP2 SWAP1 MSTORE PUSH1 0x0 SWAP2 SWAP1 DUP5 DUP3 ADD SWAP1 PUSH1 0x40 DUP6 ADD SWAP1 DUP5 JUMPDEST DUP2 DUP2 LT ISZERO PUSH2 0x625 JUMPI DUP4 MLOAD DUP4 MSTORE SWAP3 DUP5 ADD SWAP3 SWAP2 DUP5 ADD SWAP2 PUSH1 0x1 ADD PUSH2 0xB49 JUMP JUMPDEST PUSH1 0x0 PUSH1 0x20 DUP3 DUP5 SUB SLT ISZERO PUSH2 0xB77 JUMPI PUSH1 0x0 DUP1 REVERT JUMPDEST POP CALLDATALOAD SWAP2 SWAP1 POP JUMP JUMPDEST PUSH1 0x20 DUP2 MSTORE PUSH1 0x0 DUP3 MLOAD PUSH2 0x100 DUP1 PUSH1 0x20 DUP6 ADD MSTORE PUSH2 0xB9D PUSH2 0x120 DUP6 ADD DUP4 PUSH2 0xACC JUMP JUMPDEST SWAP2 POP PUSH1 0x20 DUP6 ADD MLOAD PUSH1 0x1F NOT DUP6 DUP5 SUB ADD PUSH1 0x40 DUP7 ADD MSTORE PUSH2 0xBBA DUP4 DUP3 PUSH2 0xACC JUMP JUMPDEST SWAP3 POP POP PUSH1 0x1 DUP1 PUSH1 0xA0 SHL SUB PUSH1 0x40 DUP7 ADD MLOAD AND PUSH1 0x60 DUP6 ADD MSTORE PUSH1 0x60 DUP6 ADD MLOAD PUSH1 0x80 DUP6 ADD MSTORE PUSH1 0x80 DUP6 ADD MLOAD PUSH1 0xA0 DUP6 ADD MSTORE PUSH1 0xA0 DUP6 ADD MLOAD PUSH1 0xC0 DUP6 ADD MSTORE PUSH1 0xC0 DUP6 ADD MLOAD PUSH1 0xE0 DUP6 ADD MSTORE PUSH1 0xE0 DUP6 ADD MLOAD DUP2 DUP6 ADD MSTORE POP DUP1 SWAP2 POP POP SWAP3 SWAP2 POP POP JUMP JUMPDEST PUSH1 0x20 DUP1 DUP3 MSTORE DUP3 MLOAD DUP3 DUP3 ADD DUP2 SWAP1 MSTORE PUSH1 0x0 SWAP2 SWAP1 DUP5 DUP3 ADD SWAP1 PUSH1 0x40 DUP6 ADD SWAP1 DUP5 JUMPDEST DUP2 DUP2 LT ISZERO PUSH2 0x625 JUMPI DUP4 MLOAD PUSH1 0x1 PUSH1 0x1 PUSH1 0xA0 SHL SUB AND DUP4 MSTORE SWAP3 DUP5 ADD SWAP3 SWAP2 DUP5 ADD SWAP2 PUSH1 0x1 ADD PUSH2 0xC27 JUMP JUMPDEST PUSH1 0x0 PUSH1 0x20 DUP3 DUP5 SUB SLT ISZERO PUSH2 0xC5E JUMPI PUSH1 0x0 DUP1 REVERT JUMPDEST DUP2 CALLDATALOAD PUSH2 0xFFFF DUP2 AND DUP2 EQ PUSH2 0xA95 JUMPI PUSH1 0x0 DUP1 REVERT JUMPDEST PUSH1 0x0 PUSH1 0x20 DUP3 DUP5 SUB SLT ISZERO PUSH2 0xC82 JUMPI PUSH1 0x0 DUP1 REVERT JUMPDEST DUP2 CALLDATALOAD PUSH1 0xFF DUP2 AND DUP2 EQ PUSH2 0xA95 JUMPI PUSH1 0x0 DUP1 REVERT JUMPDEST PUSH4 0x4E487B71 PUSH1 0xE0 SHL PUSH1 0x0 MSTORE PUSH1 0x41 PUSH1 0x4 MSTORE PUSH1 0x24 PUSH1 0x0 REVERT JUMPDEST PUSH1 0x40 MLOAD PUSH2 0x100 DUP2 ADD PUSH8 0xFFFFFFFFFFFFFFFF DUP2 GT DUP3 DUP3 LT OR ISZERO PUSH2 0xCCD JUMPI PUSH2 0xCCD PUSH2 0xC93 JUMP JUMPDEST PUSH1 0x40 MSTORE SWAP1 JUMP JUMPDEST PUSH1 0x40 MLOAD PUSH1 0x1F DUP3 ADD PUSH1 0x1F NOT AND DUP2 ADD PUSH8 0xFFFFFFFFFFFFFFFF DUP2 GT DUP3 DUP3 LT OR ISZERO PUSH2 0xCFC JUMPI PUSH2 0xCFC PUSH2 0xC93 JUMP JUMPDEST PUSH1 0x40 MSTORE SWAP2 SWAP1 POP JUMP JUMPDEST PUSH1 0x0 DUP3 PUSH1 0x1F DUP4 ADD SLT PUSH2 0xD15 JUMPI PUSH1 0x0 DUP1 REVERT JUMPDEST DUP2 MLOAD PUSH8 0xFFFFFFFFFFFFFFFF DUP2 GT ISZERO PUSH2 0xD2F JUMPI PUSH2 0xD2F PUSH2 0xC93 JUMP JUMPDEST PUSH2 0xD42 PUSH1 0x1F DUP3 ADD PUSH1 0x1F NOT AND PUSH1 0x20 ADD PUSH2 0xCD3 JUMP JUMPDEST DUP2 DUP2 MSTORE DUP5 PUSH1 0x20 DUP4 DUP7 ADD ADD GT ISZERO PUSH2 0xD57 JUMPI PUSH1 0x0 DUP1 REVERT JUMPDEST PUSH2 0xD68 DUP3 PUSH1 0x20 DUP4 ADD PUSH1 0x20 DUP8 ADD PUSH2 0xA9C JUMP JUMPDEST SWAP5 SWAP4 POP POP POP POP JUMP JUMPDEST PUSH1 0x0 DUP1 PUSH1 0x0 PUSH1 0x60 DUP5 DUP7 SUB SLT ISZERO PUSH2 0xD85 JUMPI PUSH1 0x0 DUP1 REVERT JUMPDEST DUP4 MLOAD SWAP3 POP PUSH1 0x20 DUP5 ADD MLOAD PUSH8 0xFFFFFFFFFFFFFFFF DUP1 DUP3 GT ISZERO PUSH2 0xDA4 JUMPI PUSH1 0x0 DUP1 REVERT JUMPDEST PUSH2 0xDB0 DUP8 DUP4 DUP9 ADD PUSH2 0xD04 JUMP JUMPDEST SWAP4 POP PUSH1 0x40 DUP7 ADD MLOAD SWAP2 POP DUP1 DUP3 GT ISZERO PUSH2 0xDC6 JUMPI PUSH1 0x0 DUP1 REVERT JUMPDEST POP PUSH2 0xDD3 DUP7 DUP3 DUP8 ADD PUSH2 0xD04 JUMP JUMPDEST SWAP2 POP POP SWAP3 POP SWAP3 POP SWAP3 JUMP JUMPDEST PUSH1 0x0 PUSH8 0xFFFFFFFFFFFFFFFF DUP3 GT ISZERO PUSH2 0xDF7 JUMPI PUSH2 0xDF7 PUSH2 0xC93 JUMP JUMPDEST POP PUSH1 0x5 SHL PUSH1 0x20 ADD SWAP1 JUMP JUMPDEST DUP1 MLOAD PUSH2 0xE0C DUP2 PUSH2 0xA63 JUMP JUMPDEST SWAP2 SWAP1 POP JUMP JUMPDEST PUSH1 0x0 PUSH1 0x20 DUP1 DUP4 DUP6 SUB SLT ISZERO PUSH2 0xE24 JUMPI PUSH1 0x0 DUP1 REVERT JUMPDEST DUP3 MLOAD PUSH8 0xFFFFFFFFFFFFFFFF DUP2 GT ISZERO PUSH2 0xE3B JUMPI PUSH1 0x0 DUP1 REVERT JUMPDEST DUP4 ADD PUSH1 0x1F DUP2 ADD DUP6 SGT PUSH2 0xE4C JUMPI PUSH1 0x0 DUP1 REVERT JUMPDEST DUP1 MLOAD PUSH2 0xE5F PUSH2 0xE5A DUP3 PUSH2 0xDDD JUMP JUMPDEST PUSH2 0xCD3 JUMP JUMPDEST DUP2 DUP2 MSTORE PUSH1 0x5 SWAP2 SWAP1 SWAP2 SHL DUP3 ADD DUP4 ADD SWAP1 DUP4 DUP2 ADD SWAP1 DUP8 DUP4 GT ISZERO PUSH2 0xE7E JUMPI PUSH1 0x0 DUP1 REVERT JUMPDEST SWAP3 DUP5 ADD SWAP3 JUMPDEST DUP3 DUP5 LT ISZERO PUSH2 0xEA5 JUMPI DUP4 MLOAD PUSH2 0xE96 DUP2 PUSH2 0xA63 JUMP JUMPDEST DUP3 MSTORE SWAP3 DUP5 ADD SWAP3 SWAP1 DUP5 ADD SWAP1 PUSH2 0xE83 JUMP JUMPDEST SWAP8 SWAP7 POP POP POP POP POP POP POP JUMP JUMPDEST PUSH4 0x4E487B71 PUSH1 0xE0 SHL PUSH1 0x0 MSTORE PUSH1 0x11 PUSH1 0x4 MSTORE PUSH1 0x24 PUSH1 0x0 REVERT JUMPDEST PUSH1 0x0 DUP2 PUSH1 0x0 NOT DIV DUP4 GT DUP3 ISZERO ISZERO AND ISZERO PUSH2 0xEE0 JUMPI PUSH2 0xEE0 PUSH2 0xEB0 JUMP JUMPDEST POP MUL SWAP1 JUMP JUMPDEST PUSH1 0x0 DUP3 PUSH2 0xF02 JUMPI PUSH4 0x4E487B71 PUSH1 0xE0 SHL PUSH1 0x0 MSTORE PUSH1 0x12 PUSH1 0x4 MSTORE PUSH1 0x24 PUSH1 0x0 REVERT JUMPDEST POP DIV SWAP1 JUMP JUMPDEST PUSH1 0x0 DUP3 DUP3 LT ISZERO PUSH2 0xF19 JUMPI PUSH2 0xF19 PUSH2 0xEB0 JUMP JUMPDEST POP SUB SWAP1 JUMP JUMPDEST PUSH4 0x4E487B71 PUSH1 0xE0 SHL PUSH1 0x0 MSTORE PUSH1 0x32 PUSH1 0x4 MSTORE PUSH1 0x24 PUSH1 0x0 REVERT JUMPDEST PUSH1 0x0 PUSH1 0xFF DUP3 AND PUSH1 0xFF DUP5 AND DUP2 PUSH1 0xFF DIV DUP2 GT DUP3 ISZERO ISZERO AND ISZERO PUSH2 0xF55 JUMPI PUSH2 0xF55 PUSH2 0xEB0 JUMP JUMPDEST MUL SWAP4 SWAP3 POP POP POP JUMP JUMPDEST PUSH1 0x0 PUSH1 0x20 DUP1 DUP4 DUP6 SUB SLT ISZERO PUSH2 0xF70 JUMPI PUSH1 0x0 DUP1 REVERT JUMPDEST DUP3 MLOAD PUSH8 0xFFFFFFFFFFFFFFFF DUP2 GT ISZERO PUSH2 0xF87 JUMPI PUSH1 0x0 DUP1 REVERT JUMPDEST DUP4 ADD PUSH1 0x1F DUP2 ADD DUP6 SGT PUSH2 0xF98 JUMPI PUSH1 0x0 DUP1 REVERT JUMPDEST DUP1 MLOAD PUSH2 0xFA6 PUSH2 0xE5A DUP3 PUSH2 0xDDD JUMP JUMPDEST DUP2 DUP2 MSTORE PUSH1 0x5 SWAP2 SWAP1 SWAP2 SHL DUP3 ADD DUP4 ADD SWAP1 DUP4 DUP2 ADD SWAP1 DUP8 DUP4 GT ISZERO PUSH2 0xFC5 JUMPI PUSH1 0x0 DUP1 REVERT JUMPDEST SWAP3 DUP5 ADD SWAP3 JUMPDEST DUP3 DUP5 LT ISZERO PUSH2 0xEA5 JUMPI DUP4 MLOAD DUP3 MSTORE SWAP3 DUP5 ADD SWAP3 SWAP1 DUP5 ADD SWAP1 PUSH2 0xFCA JUMP JUMPDEST PUSH1 0x0 DUP3 NOT DUP3 GT ISZERO PUSH2 0xFF6 JUMPI PUSH2 0xFF6 PUSH2 0xEB0 JUMP JUMPDEST POP ADD SWAP1 JUMP JUMPDEST PUSH1 0x0 PUSH1 0xFF DUP3 AND PUSH1 0xFF DUP5 AND DUP1 PUSH1 0xFF SUB DUP3 GT ISZERO PUSH2 0x1018 JUMPI PUSH2 0x1018 PUSH2 0xEB0 JUMP JUMPDEST ADD SWAP4 SWAP3 POP POP POP JUMP JUMPDEST PUSH1 0x0 PUSH1 0x20 DUP3 DUP5 SUB SLT ISZERO PUSH2 0x1032 JUMPI PUSH1 0x0 DUP1 REVERT JUMPDEST DUP2 MLOAD PUSH8 0xFFFFFFFFFFFFFFFF DUP1 DUP3 GT ISZERO PUSH2 0x104A JUMPI PUSH1 0x0 DUP1 REVERT JUMPDEST SWAP1 DUP4 ADD SWAP1 PUSH2 0x100 DUP3 DUP7 SUB SLT ISZERO PUSH2 0x105F JUMPI PUSH1 0x0 DUP1 REVERT JUMPDEST PUSH2 0x1067 PUSH2 0xCA9 JUMP JUMPDEST DUP3 MLOAD DUP3 DUP2 GT ISZERO PUSH2 0x1076 JUMPI PUSH1 0x0 DUP1 REVERT JUMPDEST PUSH2 0x1082 DUP8 DUP3 DUP7 ADD PUSH2 0xD04 JUMP JUMPDEST DUP3 MSTORE POP PUSH1 0x20 DUP4 ADD MLOAD DUP3 DUP2 GT ISZERO PUSH2 0x1097 JUMPI PUSH1 0x0 DUP1 REVERT JUMPDEST PUSH2 0x10A3 DUP8 DUP3 DUP7 ADD PUSH2 0xD04 JUMP JUMPDEST PUSH1 0x20 DUP4 ADD MSTORE POP PUSH2 0x10B5 PUSH1 0x40 DUP5 ADD PUSH2 0xE01 JUMP JUMPDEST PUSH1 0x40 DUP3 ADD MSTORE PUSH1 0x60 DUP4 ADD MLOAD PUSH1 0x60 DUP3 ADD MSTORE PUSH1 0x80 DUP4 ADD MLOAD PUSH1 0x80 DUP3 ADD MSTORE PUSH1 0xA0 DUP4 ADD MLOAD PUSH1 0xA0 DUP3 ADD MSTORE PUSH1 0xC0 DUP4 ADD MLOAD PUSH1 0xC0 DUP3 ADD MSTORE PUSH1 0xE0 DUP4 ADD MLOAD PUSH1 0xE0 DUP3 ADD MSTORE DUP1 SWAP4 POP POP POP POP SWAP3 SWAP2 POP POP JUMP INVALID LOG2 PUSH5 0x6970667358 0x22 SLT KECCAK256 0xF6 ORIGIN OR 0xAA RETURNDATACOPY 0xD7 PUSH31 0xA84B75D9D1B05FF2B1EE9E5D647F94F5D730448964AECAD8764736F6C6343 STOP ADDMOD 0xD STOP CALLER ",
  "sha1": "d505782a929908c009aaef43da27edf77a5e43e3",
  "source": "pragma solidity ^0.8.0;\n\nimport \"node_modules/@openzeppelin/contracts/access/Ownable.sol\";\n\nstruct TweethRepresentation {\n        bytes text;\n        bytes media_url;\n        uint160 author;\n        uint parentTweeth;\n        uint timestamp;\n        uint likes;\n        uint comments;\n        uint shares;\n    }\n\ninterface TwetherPost{\n    function getComments(uint tweethId) external view returns (uint[] memory);\n    function getLikes(uint tweethId) external view returns (uint160[] memory);\n    function getTweethAuthor(uint tweethId) external view returns(uint160);\n    function getTweeth(uint tweethId) external view returns(TweethRepresentation memory);\n    function totalSupply() external view returns (uint);\n\n}\n\ninterface TwetherProfile{\n    function getLikesByProfile(address user) external view returns (uint[] memory);\n    function getFollowing(address user) external view returns (uint160[] memory);\n    function getFollowers(address user) external view returns (uint160[] memory);\n    function getMentions(address user) external view returns (uint[] memory);\n    function getProfile(address _address) external view returns (bytes32 , bytes memory, bytes memory);\n    function totalSupply() external view returns (uint);\n    function getTweethsPerPage(address user, uint page) external view returns (uint[] memory);\n    function getLast100Tweeths(address user) external view returns (uint[] memory);\n    function getLast10Tweeths(address user) external view returns (uint[] memory);\n    function getLastXTweeths(address user, uint8 amount) external view returns (uint[] memory);\n}\n\ncontract TwetherAnalytics is Ownable {\n\n    TwetherPost Post;\n    TwetherProfile Profile;\n    uint16 feedSize = 500;\n    uint8 depthFactor = 2;\n\n    function setPost(address _address) external onlyOwner {\n        Post = TwetherPost(_address);\n    }\n\n    function setProfile(address _address) external onlyOwner {\n        Profile = TwetherProfile(_address);\n    }\n\n    function setFeedSize(uint16 _feedSize) external onlyOwner {\n        feedSize = _feedSize;\n    }\n\n    function setFeedSize(uint8 _depthFactor) external onlyOwner {\n        depthFactor = _depthFactor;\n    }\n\n    function getLikesFromProfile(address user) external view returns (uint[] memory){\n        return Profile.getLikesByProfile(user);\n    }\n\n    function getTweethLikes(uint tweethId) external view returns (uint160[] memory){\n        return Post.getLikes(tweethId);\n    }\n\n    function getTweethComments(uint tweethId) external view returns (uint[] memory){\n        return Post.getComments(tweethId);\n    }\n\n    function getProfileFollowing(address user) external view returns (uint160[] memory){\n        return Profile.getFollowing(user);\n    }\n\n    function getProfileFollowers(address user) external view returns (uint160[] memory){\n        return Profile.getFollowers(user) ;\n    }\n\n    function getProfile(address _address) external view returns (bytes32 , bytes memory, bytes memory){\n        return Profile.getProfile(_address);\n    }\n\n    function getTweeth(uint tweethId) external view returns(TweethRepresentation memory){\n        return Post.getTweeth(tweethId);\n    }\n\n    function getMentions(address user) external view returns (uint[] memory){\n        return Profile.getMentions(user);\n    }\n\n    function getFeed(address user) external view returns(uint[] memory){\n        uint160[] memory following = Profile.getFollowing(user);\n        //How many feed pages I need to show 1 post of each person the user is following (*100)\n        uint followingToFeedSize = (following.length * 100)/ feedSize;\n        //when I need less than 2 pages to show at least 1 post from all of people the user is following\n        //then maxDepth will be 10. It will decrease in 1 for every 2 xtra pages I need. The lowest depth\n        //will be 3\n        uint8 maxDepth = followingToFeedSize/(100*2) > 17 ? uint8(20 - followingToFeedSize/(100 * 2)) : uint8(3);\n        //uint8 maxDepth = 1;\n        // uint oldest = (Profile.totalSupply() * maxDepth * depthFactor * 2) < Post.totalSupply() ?\n        //                     Post.totalSupply() - (Profile.totalSupply() * maxDepth * depthFactor * 2) : 0;\n        //uint[feedSize] memory feed;\n        uint[] memory tempFeed = new uint[](following.length * maxDepth * depthFactor);\n        uint profileIndex = 0;\n        uint lastCursor = 0;\n        while(following.length > profileIndex){\n            uint[] memory tweeths = Profile.getLastXTweeths(address(following[profileIndex]), maxDepth * depthFactor);\n            uint8 i=0;\n            uint8 j=0;\n            uint total = tweeths.length;\n            while(i < total){\n                if (tweeths[i] != 0){\n                     tempFeed[lastCursor + i -j] = tweeths[i];\n                 }else{\n                    j+=1;\n                 }\n                i+=1;\n            }\n             profileIndex+=1;\n             lastCursor += total - j;\n         }\n        return tempFeed;\n\n    }\n\n    function isInArray(uint element, uint[] memory _array) internal returns(bool){\n        for (uint i=0;i < _array.length;i++){\n            if (element == _array[i]){\n                return true;\n            }\n        }return false;\n    }\n\n     \n}",
  "sourcePath": "contracts/Analytics.sol",
  "type": "contract"
}