{
  "_format": "hh-sol-artifact-1",
  "contractName": "VolcomSkateboardMinter",
  "sourceName": "contracts/VolcomSkateboardMinter.sol",
  "abi": [
    {
      "inputs": [
        {
          "internalType": "string",
          "name": "_eventId",
          "type": "string"
        },
        {
          "internalType": "address",
          "name": "_whitelistedContract",
          "type": "address"
        },
        {
          "internalType": "address",
          "name": "_dropContract",
          "type": "address"
        },
        {
          "internalType": "address[]",
          "name": "_whitelist",
          "type": "address[]"
        },
        {
          "internalType": "uint256",
          "name": "_price",
          "type": "uint256"
        },
        {
          "internalType": "uint256",
          "name": "_maxDistribution",
          "type": "uint256"
        }
      ],
      "stateMutability": "nonpayable",
      "type": "constructor"
    },
    {
      "anonymous": false,
      "inputs": [
        {
          "indexed": true,
          "internalType": "address",
          "name": "previousOwner",
          "type": "address"
        },
        {
          "indexed": true,
          "internalType": "address",
          "name": "newOwner",
          "type": "address"
        }
      ],
      "name": "OwnershipTransferred",
      "type": "event"
    },
    {
      "anonymous": false,
      "inputs": [
        {
          "indexed": false,
          "internalType": "uint256",
          "name": "amount",
          "type": "uint256"
        }
      ],
      "name": "SecurityWithdrawal",
      "type": "event"
    },
    {
      "anonymous": false,
      "inputs": [
        {
          "indexed": true,
          "internalType": "address",
          "name": "_to",
          "type": "address"
        },
        {
          "indexed": false,
          "internalType": "uint256",
          "name": "_value",
          "type": "uint256"
        }
      ],
      "name": "Withdrawal",
      "type": "event"
    },
    {
      "inputs": [
        {
          "internalType": "bool",
          "name": "active",
          "type": "bool"
        }
      ],
      "name": "activeRegularMint",
      "outputs": [],
      "stateMutability": "nonpayable",
      "type": "function"
    },
    {
      "inputs": [
        {
          "internalType": "bool",
          "name": "active",
          "type": "bool"
        }
      ],
      "name": "activeWhitelistMint",
      "outputs": [],
      "stateMutability": "nonpayable",
      "type": "function"
    },
    {
      "inputs": [
        {
          "internalType": "address",
          "name": "newAddress",
          "type": "address"
        }
      ],
      "name": "addWhitelistedAddress",
      "outputs": [],
      "stateMutability": "nonpayable",
      "type": "function"
    },
    {
      "inputs": [
        {
          "internalType": "uint256",
          "name": "",
          "type": "uint256"
        }
      ],
      "name": "distribution",
      "outputs": [
        {
          "internalType": "uint256",
          "name": "",
          "type": "uint256"
        }
      ],
      "stateMutability": "view",
      "type": "function"
    },
    {
      "inputs": [],
      "name": "dropContract",
      "outputs": [
        {
          "internalType": "contract NewWTCContract",
          "name": "",
          "type": "address"
        }
      ],
      "stateMutability": "view",
      "type": "function"
    },
    {
      "inputs": [],
      "name": "eventId",
      "outputs": [
        {
          "internalType": "string",
          "name": "",
          "type": "string"
        }
      ],
      "stateMutability": "view",
      "type": "function"
    },
    {
      "inputs": [
        {
          "internalType": "uint256",
          "name": "_eID",
          "type": "uint256"
        }
      ],
      "name": "getDistributionRule",
      "outputs": [
        {
          "internalType": "uint256",
          "name": "",
          "type": "uint256"
        }
      ],
      "stateMutability": "view",
      "type": "function"
    },
    {
      "inputs": [],
      "name": "maxDistribution",
      "outputs": [
        {
          "internalType": "uint256",
          "name": "",
          "type": "uint256"
        }
      ],
      "stateMutability": "view",
      "type": "function"
    },
    {
      "inputs": [],
      "name": "mint",
      "outputs": [],
      "stateMutability": "payable",
      "type": "function"
    },
    {
      "inputs": [
        {
          "internalType": "uint256",
          "name": "_tokenIdToPunch",
          "type": "uint256"
        }
      ],
      "name": "mintVIP",
      "outputs": [],
      "stateMutability": "nonpayable",
      "type": "function"
    },
    {
      "inputs": [],
      "name": "mintWhitelist",
      "outputs": [],
      "stateMutability": "nonpayable",
      "type": "function"
    },
    {
      "inputs": [],
      "name": "owner",
      "outputs": [
        {
          "internalType": "address",
          "name": "",
          "type": "address"
        }
      ],
      "stateMutability": "view",
      "type": "function"
    },
    {
      "inputs": [],
      "name": "price",
      "outputs": [
        {
          "internalType": "uint256",
          "name": "",
          "type": "uint256"
        }
      ],
      "stateMutability": "view",
      "type": "function"
    },
    {
      "inputs": [],
      "name": "regularMintActive",
      "outputs": [
        {
          "internalType": "bool",
          "name": "",
          "type": "bool"
        }
      ],
      "stateMutability": "view",
      "type": "function"
    },
    {
      "inputs": [
        {
          "internalType": "address",
          "name": "oldAddress",
          "type": "address"
        }
      ],
      "name": "removeWhitelistedAddress",
      "outputs": [],
      "stateMutability": "nonpayable",
      "type": "function"
    },
    {
      "inputs": [],
      "name": "renounceOwnership",
      "outputs": [],
      "stateMutability": "nonpayable",
      "type": "function"
    },
    {
      "inputs": [
        {
          "internalType": "uint256",
          "name": "_eID",
          "type": "uint256"
        },
        {
          "internalType": "uint256",
          "name": "amount",
          "type": "uint256"
        }
      ],
      "name": "setDistributionRule",
      "outputs": [],
      "stateMutability": "nonpayable",
      "type": "function"
    },
    {
      "inputs": [
        {
          "internalType": "address",
          "name": "_dropContract",
          "type": "address"
        }
      ],
      "name": "setDropContract",
      "outputs": [],
      "stateMutability": "nonpayable",
      "type": "function"
    },
    {
      "inputs": [
        {
          "internalType": "string",
          "name": "_eventId",
          "type": "string"
        }
      ],
      "name": "setEventId",
      "outputs": [],
      "stateMutability": "nonpayable",
      "type": "function"
    },
    {
      "inputs": [
        {
          "internalType": "uint256",
          "name": "_maxDistribution",
          "type": "uint256"
        }
      ],
      "name": "setMaxDistribution",
      "outputs": [],
      "stateMutability": "nonpayable",
      "type": "function"
    },
    {
      "inputs": [
        {
          "internalType": "uint256",
          "name": "_price",
          "type": "uint256"
        }
      ],
      "name": "setPrice",
      "outputs": [],
      "stateMutability": "nonpayable",
      "type": "function"
    },
    {
      "inputs": [
        {
          "internalType": "address",
          "name": "_whitelistedContract",
          "type": "address"
        }
      ],
      "name": "setWhitelistedContract",
      "outputs": [],
      "stateMutability": "nonpayable",
      "type": "function"
    },
    {
      "inputs": [
        {
          "internalType": "address",
          "name": "newOwner",
          "type": "address"
        }
      ],
      "name": "transferOwnership",
      "outputs": [],
      "stateMutability": "nonpayable",
      "type": "function"
    },
    {
      "inputs": [
        {
          "internalType": "address",
          "name": "",
          "type": "address"
        }
      ],
      "name": "whitelist",
      "outputs": [
        {
          "internalType": "bool",
          "name": "",
          "type": "bool"
        }
      ],
      "stateMutability": "view",
      "type": "function"
    },
    {
      "inputs": [],
      "name": "whitelistMintActive",
      "outputs": [
        {
          "internalType": "bool",
          "name": "",
          "type": "bool"
        }
      ],
      "stateMutability": "view",
      "type": "function"
    },
    {
      "inputs": [],
      "name": "whitelistedContract",
      "outputs": [
        {
          "internalType": "contract ExistingWTCContract",
          "name": "",
          "type": "address"
        }
      ],
      "stateMutability": "view",
      "type": "function"
    },
    {
      "inputs": [
        {
          "internalType": "uint256",
          "name": "amount",
          "type": "uint256"
        },
        {
          "internalType": "address payable",
          "name": "to",
          "type": "address"
        }
      ],
      "name": "withdrawFromContract",
      "outputs": [],
      "stateMutability": "payable",
      "type": "function"
    }
  ],
  "bytecode": "0x60806040523480156200001157600080fd5b5060405162001ac438038062001ac48339810160408190526200003491620002b5565b6200003f336200010b565b600180546001600160a01b038088166001600160a01b03199283161790925560028054928716929091169190911790558551620000849060039060208901906200015b565b506006829055600a81905560005b8351811015620000fe57600160056000868481518110620000b757620000b76200046b565b6020908102919091018101516001600160a01b03168252810191909152604001600020805460ff191691151591909117905580620000f58162000441565b91505062000092565b5050505050505062000497565b600080546001600160a01b038381166001600160a01b0319831681178455604051919092169283917f8be0079c531659141344cd1fd0a4f28419497f9722a3daafe3b4186f6b6457e09190a35050565b828054620001699062000404565b90600052602060002090601f0160209004810192826200018d5760008555620001d8565b82601f10620001a857805160ff1916838001178555620001d8565b82800160010185558215620001d8579182015b82811115620001d8578251825591602001919060010190620001bb565b50620001e6929150620001ea565b5090565b5b80821115620001e65760008155600101620001eb565b80516001600160a01b03811681146200021957600080fd5b919050565b600082601f8301126200023057600080fd5b815160206001600160401b038211156200024e576200024e62000481565b8160051b6200025f828201620003d1565b8381528281019086840183880185018910156200027b57600080fd5b600093505b85841015620002a957620002948162000201565b83526001939093019291840191840162000280565b50979650505050505050565b60008060008060008060c08789031215620002cf57600080fd5b86516001600160401b0380821115620002e757600080fd5b818901915089601f830112620002fc57600080fd5b81518181111562000311576200031162000481565b602062000327601f8301601f19168201620003d1565b8281528c828487010111156200033c57600080fd5b60005b838110156200035c5785810183015182820184015282016200033f565b838111156200036e5760008385840101525b5099506200037e8b820162000201565b985050506200039060408a0162000201565b95506060890151915080821115620003a757600080fd5b50620003b689828a016200021e565b9350506080870151915060a087015190509295509295509295565b604051601f8201601f191681016001600160401b0381118282101715620003fc57620003fc62000481565b604052919050565b600181811c908216806200041957607f821691505b602082108114156200043b57634e487b7160e01b600052602260045260246000fd5b50919050565b60006000198214156200046457634e487b7160e01b600052601160045260246000fd5b5060010190565b634e487b7160e01b600052603260045260246000fd5b634e487b7160e01b600052604160045260246000fd5b61161d80620004a76000396000f3fe60806040526004361061019c5760003560e01c806364a2521d116100ec578063a035b1fe1161008a578063c40e662d11610064578063c40e662d14610485578063d67824f0146104a5578063df6f6630146104d2578063f2fde38b146104f257600080fd5b8063a035b1fe14610423578063aa8b067014610439578063bd34ee171461046657600080fd5b80638da5cb5b116100c65780638da5cb5b146103a257806391b7f5ed146103c05780639605f505146103e05780639b19251a146103f357600080fd5b806364a2521d1461034357806364de1e8514610363578063715018a61461038d57600080fd5b806329975b431161015957806331638c6f1161013357806331638c6f146102c35780634342fbe3146102e3578063530cd5ab14610303578063551180d51461032357600080fd5b806329975b431461026e5780632ab25f631461028e5780632d3df31f146102ae57600080fd5b8063044e0ea2146101a1578063089cdd0c146101ca5780631249c58b146101ec57806318a18000146101f657806318e4542714610216578063231931bd1461024e575b600080fd5b3480156101ad57600080fd5b506101b7600a5481565b6040519081526020015b60405180910390f35b3480156101d657600080fd5b506101df610512565b6040516101c1919061137d565b6101f46105a0565b005b34801561020257600080fd5b506101f4610211366004611226565b6106ed565b34801561022257600080fd5b50600154610236906001600160a01b031681565b6040516001600160a01b0390911681526020016101c1565b34801561025a57600080fd5b506101f46102693660046112f9565b61072a565b34801561027a57600080fd5b506101f46102893660046111e5565b6109f5565b34801561029a57600080fd5b506101f46102a93660046111e5565b610a43565b3480156102ba57600080fd5b506101f4610a8f565b3480156102cf57600080fd5b506101f46102de3660046111e5565b610b3b565b3480156102ef57600080fd5b50600254610236906001600160a01b031681565b34801561030f57600080fd5b506101f461031e3660046111e5565b610b87565b34801561032f57600080fd5b506101f461033e36600461135b565b610bd2565b34801561034f57600080fd5b506101f461035e366004611226565b610c0e565b34801561036f57600080fd5b5060085461037d9060ff1681565b60405190151581526020016101c1565b34801561039957600080fd5b506101f4610c52565b3480156103ae57600080fd5b506000546001600160a01b0316610236565b3480156103cc57600080fd5b506101f46103db3660046112f9565b610c88565b6101f46103ee36600461132b565b610cb7565b3480156103ff57600080fd5b5061037d61040e3660046111e5565b60056020526000908152604090205460ff1681565b34801561042f57600080fd5b506101b760065481565b34801561044557600080fd5b506101b76104543660046112f9565b60096020526000908152604090205481565b34801561047257600080fd5b5060085461037d90610100900460ff1681565b34801561049157600080fd5b506101f46104a0366004611248565b610dc9565b3480156104b157600080fd5b506101b76104c03660046112f9565b60009081526009602052604090205490565b3480156104de57600080fd5b506101f46104ed3660046112f9565b610e06565b3480156104fe57600080fd5b506101f461050d3660046111e5565b610e35565b6003805461051f9061152e565b80601f016020809104026020016040519081016040528092919081815260200182805461054b9061152e565b80156105985780601f1061056d57610100808354040283529160200191610598565b820191906000526020600020905b81548152906001019060200180831161057b57829003601f168201915b505050505081565b600854610100900460ff166105ef5760405162461bcd60e51b815260206004820152601060248201526f135a5b9d1a5b99c8191a5cd8589b195960821b60448201526064015b60405180910390fd5b6006543410156106345760405162461bcd60e51b815260206004820152601060248201526f4e6f7420656e6f756768204d6174696360801b60448201526064016105e6565b346007600082825461064691906114ff565b9091555060009050610656610ed0565b600081815260046020526040812080549293509061067383611569565b90915550506002546001600160a01b03166340c10f19336040516001600160e01b031960e084901b1681526001600160a01b03909116600482015260248101849052604401600060405180830381600087803b1580156106d257600080fd5b505af11580156106e6573d6000803e3d6000fd5b5050505050565b6000546001600160a01b031633146107175760405162461bcd60e51b81526004016105e690611488565b6008805460ff1916911515919091179055565b60085460ff1661074c5760405162461bcd60e51b81526004016105e6906114bd565b336001546040516331a9108f60e11b8152600481018490526001600160a01b039283169290911690636352211e9060240160206040518083038186803b15801561079557600080fd5b505afa1580156107a9573d6000803e3d6000fd5b505050506040513d601f19601f820116820180604052508101906107cd9190611209565b6001600160a01b03161461081c5760405162461bcd60e51b8152602060048201526016602482015275165bdd48191bdb89dd081bdddb881d1a1a5cc813919560521b60448201526064016105e6565b600154604051631c89733760e31b8152600481018390526000916001600160a01b03169063e44b99b89060240160206040518083038186803b15801561086157600080fd5b505afa158015610875573d6000803e3d6000fd5b505050506040513d601f19601f820116820180604052508101906108999190611312565b9050806002146108eb5760405162461bcd60e51b815260206004820152601a60248201527f4e6f74206120564950204d657461626f61726420686f6c64657200000000000060448201526064016105e6565b60018054604051638347a7ab60e01b81526001600160a01b0390911691638347a7ab91610920916003918791906004016113d2565b600060405180830381600087803b15801561093a57600080fd5b505af115801561094e573d6000803e3d6000fd5b50505050600061095c610ed0565b600081815260046020526040812080549293509061097983611569565b90915550506002546001600160a01b03166340c10f19336040516001600160e01b031960e084901b1681526001600160a01b03909116600482015260248101849052604401600060405180830381600087803b1580156109d857600080fd5b505af11580156109ec573d6000803e3d6000fd5b50505050505050565b6000546001600160a01b03163314610a1f5760405162461bcd60e51b81526004016105e690611488565b6001600160a01b03166000908152600560205260409020805460ff19166001179055565b6000546001600160a01b03163314610a6d5760405162461bcd60e51b81526004016105e690611488565b600180546001600160a01b0319166001600160a01b0392909216919091179055565b60085460ff16610ab15760405162461bcd60e51b81526004016105e6906114bd565b3360009081526005602052604090205460ff16610b1c5760405162461bcd60e51b8152602060048201526024808201527f546869732061646472657373206973206e6f7420696e207468652077686974656044820152631b1a5cdd60e21b60648201526084016105e6565b336000908152600560205260408120805460ff19169055610656610ed0565b6000546001600160a01b03163314610b655760405162461bcd60e51b81526004016105e690611488565b600280546001600160a01b0319166001600160a01b0392909216919091179055565b6000546001600160a01b03163314610bb15760405162461bcd60e51b81526004016105e690611488565b6001600160a01b03166000908152600560205260409020805460ff19169055565b6000546001600160a01b03163314610bfc5760405162461bcd60e51b81526004016105e690611488565b60009182526009602052604090912055565b6000546001600160a01b03163314610c385760405162461bcd60e51b81526004016105e690611488565b600880549115156101000261ff0019909216919091179055565b6000546001600160a01b03163314610c7c5760405162461bcd60e51b81526004016105e690611488565b610c866000611077565b565b6000546001600160a01b03163314610cb25760405162461bcd60e51b81526004016105e690611488565b600655565b6000546001600160a01b03163314610ce15760405162461bcd60e51b81526004016105e690611488565b47821115610d265760405162461bcd60e51b81526020600482015260126024820152714e6f7420656e6f7567682062616c616e636560701b60448201526064016105e6565b610d2e6110c7565b15610dc5578160076000828254610d459190611517565b90915550506040516001600160a01b0382169083156108fc029084906000818181858888f19350505050158015610d80573d6000803e3d6000fd5b50806001600160a01b03167f7fcf532c15f0a6db0bd6d0e038bea71d30d808c7d98cb3bf7268a95bf5081b6583604051610dbc91815260200190565b60405180910390a25b5050565b6000546001600160a01b03163314610df35760405162461bcd60e51b81526004016105e690611488565b8051610dc590600390602084019061114c565b6000546001600160a01b03163314610e305760405162461bcd60e51b81526004016105e690611488565b600a55565b6000546001600160a01b03163314610e5f5760405162461bcd60e51b81526004016105e690611488565b6001600160a01b038116610ec45760405162461bcd60e51b815260206004820152602660248201527f4f776e61626c653a206e6577206f776e657220697320746865207a65726f206160448201526564647265737360d01b60648201526084016105e6565b610ecd81611077565b50565b60408051446020820152429181019190915243606082015260009081906080016040516020818303038152906040528051906020012060001c90506000600a5482610f1b9190611584565b9050600060015b6000818152600960205260409020541561107057828211158015610f5f57506000818152600960205260409020548390610f5d9084906114ff565b115b15611043578060005b6000828152600960209081526040808320546004909252909120541061103957600082815260096020526040902054158015610fa2575080155b15610fb257506001905080610f68565b600082815260096020526040902054158015610fcb5750805b156110275760405162461bcd60e51b815260206004820152602660248201527f446973747269627574696f6e207265616368656420697473206d61782063617060448201526530b1b4ba3c9760d11b60648201526084016105e6565b8161103181611569565b925050610f68565b5095945050505050565b60008181526009602052604090205461105c90836114ff565b91508061106881611569565b915050610f22565b5050505090565b600080546001600160a01b038381166001600160a01b0319831681178455604051919092169283917f8be0079c531659141344cd1fd0a4f28419497f9722a3daafe3b4186f6b6457e09190a35050565b6000476007541461114657600080546040516001600160a01b03909116914780156108fc02929091818181858888f1935050505015801561110c573d6000803e3d6000fd5b506040514781527f40d049d1cf483938324a7677b589a685d17b34e3795b2e32d749beaa1a305e3d9060200160405180910390a150600090565b50600190565b8280546111589061152e565b90600052602060002090601f01602090048101928261117a57600085556111c0565b82601f1061119357805160ff19168380011785556111c0565b828001600101855582156111c0579182015b828111156111c05782518255916020019190600101906111a5565b506111cc9291506111d0565b5090565b5b808211156111cc57600081556001016111d1565b6000602082840312156111f757600080fd5b8135611202816115d2565b9392505050565b60006020828403121561121b57600080fd5b8151611202816115d2565b60006020828403121561123857600080fd5b8135801515811461120257600080fd5b60006020828403121561125a57600080fd5b813567ffffffffffffffff8082111561127257600080fd5b818401915084601f83011261128657600080fd5b813581811115611298576112986115bc565b604051601f8201601f19908116603f011681019083821181831017156112c0576112c06115bc565b816040528281528760208487010111156112d957600080fd5b826020860160208301376000928101602001929092525095945050505050565b60006020828403121561130b57600080fd5b5035919050565b60006020828403121561132457600080fd5b5051919050565b6000806040838503121561133e57600080fd5b823591506020830135611350816115d2565b809150509250929050565b6000806040838503121561136e57600080fd5b50508035926020909101359150565b600060208083528351808285015260005b818110156113aa5785810183015185820160400152820161138e565b818111156113bc576000604083870101525b50601f01601f1916929092016040019392505050565b60608152600080855481600182811c9150808316806113f257607f831692505b602080841082141561141257634e487b7160e01b86526022600452602486fd5b606088018490526080880182801561143157600181146114425761146d565b60ff1987168252828201975061146d565b60008d81526020902060005b878110156114675781548482015290860190840161144e565b83019850505b50508701989098525050506040909201929092529392505050565b6020808252818101527f4f776e61626c653a2063616c6c6572206973206e6f7420746865206f776e6572604082015260600190565b60208082526022908201527f4d696e74696e67207468726f7567682077686974656c6973742064697361626c604082015261195960f21b606082015260800190565b60008219821115611512576115126115a6565b500190565b600082821015611529576115296115a6565b500390565b600181811c9082168061154257607f821691505b6020821081141561156357634e487b7160e01b600052602260045260246000fd5b50919050565b600060001982141561157d5761157d6115a6565b5060010190565b6000826115a157634e487b7160e01b600052601260045260246000fd5b500690565b634e487b7160e01b600052601160045260246000fd5b634e487b7160e01b600052604160045260246000fd5b6001600160a01b0381168114610ecd57600080fdfea264697066735822122000df732c56c2e305e0a8a3317aea4577eb63cca7168171918a46ca9cd731838864736f6c63430008070033",
  "linkReferences": {},
  "deployedLinkReferences": {}
}