{
  "_format": "hh-sol-artifact-1",
  "contractName": "VolcomSkateboard1991",
  "sourceName": "contracts/VolcomSkateboard1991.sol",
  "abi": [
    {
      "inputs": [
        {
          "internalType": "string",
          "name": "_base_uri",
          "type": "string"
        },
        {
          "internalType": "address[]",
          "name": "_whitelist",
          "type": "address[]"
        },
        {
          "internalType": "uint256",
          "name": "_price",
          "type": "uint256"
        },
        {
          "internalType": "uint256",
          "name": "_discount",
          "type": "uint256"
        },
        {
          "internalType": "uint16",
          "name": "_maxMintsAtOnce",
          "type": "uint16"
        },
        {
          "internalType": "uint256",
          "name": "_reservedIDs",
          "type": "uint256"
        },
        {
          "internalType": "string",
          "name": "name",
          "type": "string"
        },
        {
          "internalType": "string",
          "name": "symbol",
          "type": "string"
        }
      ],
      "stateMutability": "nonpayable",
      "type": "constructor"
    },
    {
      "anonymous": false,
      "inputs": [
        {
          "indexed": true,
          "internalType": "address",
          "name": "owner",
          "type": "address"
        },
        {
          "indexed": true,
          "internalType": "address",
          "name": "approved",
          "type": "address"
        },
        {
          "indexed": true,
          "internalType": "uint256",
          "name": "tokenId",
          "type": "uint256"
        }
      ],
      "name": "Approval",
      "type": "event"
    },
    {
      "anonymous": false,
      "inputs": [
        {
          "indexed": true,
          "internalType": "address",
          "name": "owner",
          "type": "address"
        },
        {
          "indexed": true,
          "internalType": "address",
          "name": "operator",
          "type": "address"
        },
        {
          "indexed": false,
          "internalType": "bool",
          "name": "approved",
          "type": "bool"
        }
      ],
      "name": "ApprovalForAll",
      "type": "event"
    },
    {
      "anonymous": false,
      "inputs": [
        {
          "indexed": true,
          "internalType": "address",
          "name": "previousOwner",
          "type": "address"
        },
        {
          "indexed": true,
          "internalType": "address",
          "name": "newOwner",
          "type": "address"
        }
      ],
      "name": "OwnershipTransferred",
      "type": "event"
    },
    {
      "anonymous": false,
      "inputs": [
        {
          "indexed": false,
          "internalType": "uint256",
          "name": "tokenId",
          "type": "uint256"
        },
        {
          "components": [
            {
              "internalType": "address payable",
              "name": "account",
              "type": "address"
            },
            {
              "internalType": "uint96",
              "name": "value",
              "type": "uint96"
            }
          ],
          "indexed": false,
          "internalType": "struct WTCERC721.Part",
          "name": "royalties",
          "type": "tuple"
        }
      ],
      "name": "RoyaltiesSet",
      "type": "event"
    },
    {
      "anonymous": false,
      "inputs": [
        {
          "indexed": false,
          "internalType": "uint256",
          "name": "amount",
          "type": "uint256"
        }
      ],
      "name": "SecurityWithdrawal",
      "type": "event"
    },
    {
      "anonymous": false,
      "inputs": [
        {
          "indexed": true,
          "internalType": "address",
          "name": "from",
          "type": "address"
        },
        {
          "indexed": true,
          "internalType": "address",
          "name": "to",
          "type": "address"
        },
        {
          "indexed": true,
          "internalType": "uint256",
          "name": "tokenId",
          "type": "uint256"
        }
      ],
      "name": "Transfer",
      "type": "event"
    },
    {
      "anonymous": false,
      "inputs": [
        {
          "indexed": true,
          "internalType": "address",
          "name": "_to",
          "type": "address"
        },
        {
          "indexed": false,
          "internalType": "uint256",
          "name": "_value",
          "type": "uint256"
        }
      ],
      "name": "Withdrawal",
      "type": "event"
    },
    {
      "inputs": [],
      "name": "TYPE_HASH",
      "outputs": [
        {
          "internalType": "bytes32",
          "name": "",
          "type": "bytes32"
        }
      ],
      "stateMutability": "view",
      "type": "function"
    },
    {
      "inputs": [
        {
          "internalType": "bool",
          "name": "active",
          "type": "bool"
        }
      ],
      "name": "activateRegularMint",
      "outputs": [],
      "stateMutability": "nonpayable",
      "type": "function"
    },
    {
      "inputs": [
        {
          "internalType": "bool",
          "name": "active",
          "type": "bool"
        }
      ],
      "name": "activateWhitelistMint",
      "outputs": [],
      "stateMutability": "nonpayable",
      "type": "function"
    },
    {
      "inputs": [
        {
          "internalType": "address",
          "name": "newAddress",
          "type": "address"
        }
      ],
      "name": "addWhitelistedAddress",
      "outputs": [],
      "stateMutability": "nonpayable",
      "type": "function"
    },
    {
      "inputs": [
        {
          "internalType": "address",
          "name": "to",
          "type": "address"
        },
        {
          "internalType": "uint256",
          "name": "tokenId",
          "type": "uint256"
        }
      ],
      "name": "approve",
      "outputs": [],
      "stateMutability": "nonpayable",
      "type": "function"
    },
    {
      "inputs": [
        {
          "internalType": "address",
          "name": "owner",
          "type": "address"
        }
      ],
      "name": "balanceOf",
      "outputs": [
        {
          "internalType": "uint256",
          "name": "",
          "type": "uint256"
        }
      ],
      "stateMutability": "view",
      "type": "function"
    },
    {
      "inputs": [
        {
          "internalType": "string",
          "name": "eventId",
          "type": "string"
        }
      ],
      "name": "burnPunchCard",
      "outputs": [],
      "stateMutability": "nonpayable",
      "type": "function"
    },
    {
      "inputs": [],
      "name": "contractURI",
      "outputs": [
        {
          "internalType": "string",
          "name": "",
          "type": "string"
        }
      ],
      "stateMutability": "view",
      "type": "function"
    },
    {
      "inputs": [
        {
          "internalType": "string",
          "name": "eventId",
          "type": "string"
        },
        {
          "internalType": "address",
          "name": "puncherAddress",
          "type": "address"
        },
        {
          "internalType": "uint8",
          "name": "maxPunches",
          "type": "uint8"
        }
      ],
      "name": "createPunchCard",
      "outputs": [],
      "stateMutability": "nonpayable",
      "type": "function"
    },
    {
      "inputs": [],
      "name": "discount",
      "outputs": [
        {
          "internalType": "uint256",
          "name": "",
          "type": "uint256"
        }
      ],
      "stateMutability": "view",
      "type": "function"
    },
    {
      "inputs": [
        {
          "internalType": "address",
          "name": "owner",
          "type": "address"
        }
      ],
      "name": "experiences",
      "outputs": [
        {
          "internalType": "string",
          "name": "",
          "type": "string"
        }
      ],
      "stateMutability": "view",
      "type": "function"
    },
    {
      "inputs": [
        {
          "internalType": "uint256",
          "name": "tokenId",
          "type": "uint256"
        }
      ],
      "name": "getApproved",
      "outputs": [
        {
          "internalType": "address",
          "name": "",
          "type": "address"
        }
      ],
      "stateMutability": "view",
      "type": "function"
    },
    {
      "inputs": [
        {
          "internalType": "string",
          "name": "eventId",
          "type": "string"
        },
        {
          "internalType": "uint256",
          "name": "_tID",
          "type": "uint256"
        }
      ],
      "name": "getNFTPunchesPerCard",
      "outputs": [
        {
          "internalType": "uint256",
          "name": "",
          "type": "uint256"
        }
      ],
      "stateMutability": "view",
      "type": "function"
    },
    {
      "inputs": [
        {
          "internalType": "uint256",
          "name": "id",
          "type": "uint256"
        }
      ],
      "name": "getRaribleV2Royalties",
      "outputs": [
        {
          "components": [
            {
              "internalType": "address payable",
              "name": "account",
              "type": "address"
            },
            {
              "internalType": "uint96",
              "name": "value",
              "type": "uint96"
            }
          ],
          "internalType": "struct WTCERC721.Part",
          "name": "",
          "type": "tuple"
        }
      ],
      "stateMutability": "view",
      "type": "function"
    },
    {
      "inputs": [
        {
          "internalType": "address",
          "name": "owner",
          "type": "address"
        },
        {
          "internalType": "address",
          "name": "operator",
          "type": "address"
        }
      ],
      "name": "isApprovedForAll",
      "outputs": [
        {
          "internalType": "bool",
          "name": "",
          "type": "bool"
        }
      ],
      "stateMutability": "view",
      "type": "function"
    },
    {
      "inputs": [
        {
          "internalType": "uint256",
          "name": "_eID",
          "type": "uint256"
        },
        {
          "internalType": "string",
          "name": "_Uri",
          "type": "string"
        }
      ],
      "name": "makeExperience",
      "outputs": [],
      "stateMutability": "nonpayable",
      "type": "function"
    },
    {
      "inputs": [
        {
          "internalType": "uint256",
          "name": "_tID",
          "type": "uint256"
        },
        {
          "internalType": "string",
          "name": "_Uri",
          "type": "string"
        }
      ],
      "name": "makeMetadata",
      "outputs": [],
      "stateMutability": "nonpayable",
      "type": "function"
    },
    {
      "inputs": [],
      "name": "maxMintsAtOnce",
      "outputs": [
        {
          "internalType": "uint16",
          "name": "",
          "type": "uint16"
        }
      ],
      "stateMutability": "view",
      "type": "function"
    },
    {
      "inputs": [
        {
          "internalType": "uint16",
          "name": "amount",
          "type": "uint16"
        }
      ],
      "name": "mint",
      "outputs": [],
      "stateMutability": "payable",
      "type": "function"
    },
    {
      "inputs": [],
      "name": "name",
      "outputs": [
        {
          "internalType": "string",
          "name": "",
          "type": "string"
        }
      ],
      "stateMutability": "view",
      "type": "function"
    },
    {
      "inputs": [],
      "name": "owner",
      "outputs": [
        {
          "internalType": "address",
          "name": "",
          "type": "address"
        }
      ],
      "stateMutability": "view",
      "type": "function"
    },
    {
      "inputs": [
        {
          "internalType": "uint256",
          "name": "tokenId",
          "type": "uint256"
        }
      ],
      "name": "ownerOf",
      "outputs": [
        {
          "internalType": "address",
          "name": "",
          "type": "address"
        }
      ],
      "stateMutability": "view",
      "type": "function"
    },
    {
      "inputs": [
        {
          "internalType": "address",
          "name": "owner",
          "type": "address"
        }
      ],
      "name": "owns",
      "outputs": [
        {
          "internalType": "string",
          "name": "",
          "type": "string"
        }
      ],
      "stateMutability": "view",
      "type": "function"
    },
    {
      "inputs": [],
      "name": "price",
      "outputs": [
        {
          "internalType": "uint256",
          "name": "",
          "type": "uint256"
        }
      ],
      "stateMutability": "view",
      "type": "function"
    },
    {
      "inputs": [
        {
          "internalType": "string",
          "name": "eventId",
          "type": "string"
        },
        {
          "internalType": "uint256",
          "name": "_tID",
          "type": "uint256"
        },
        {
          "internalType": "uint8",
          "name": "increment",
          "type": "uint8"
        }
      ],
      "name": "punchACard",
      "outputs": [],
      "stateMutability": "nonpayable",
      "type": "function"
    },
    {
      "inputs": [
        {
          "internalType": "string",
          "name": "",
          "type": "string"
        }
      ],
      "name": "punchBook",
      "outputs": [
        {
          "internalType": "address",
          "name": "puncherAddress",
          "type": "address"
        },
        {
          "internalType": "uint8",
          "name": "maxPunches",
          "type": "uint8"
        }
      ],
      "stateMutability": "view",
      "type": "function"
    },
    {
      "inputs": [],
      "name": "regularMintActive",
      "outputs": [
        {
          "internalType": "bool",
          "name": "",
          "type": "bool"
        }
      ],
      "stateMutability": "view",
      "type": "function"
    },
    {
      "inputs": [
        {
          "internalType": "address",
          "name": "oldAddress",
          "type": "address"
        }
      ],
      "name": "removeWhitelistedAddress",
      "outputs": [],
      "stateMutability": "nonpayable",
      "type": "function"
    },
    {
      "inputs": [],
      "name": "renounceOwnership",
      "outputs": [],
      "stateMutability": "nonpayable",
      "type": "function"
    },
    {
      "inputs": [],
      "name": "reservedIDs",
      "outputs": [
        {
          "internalType": "uint256",
          "name": "",
          "type": "uint256"
        }
      ],
      "stateMutability": "view",
      "type": "function"
    },
    {
      "inputs": [],
      "name": "reveal_time",
      "outputs": [
        {
          "internalType": "uint256",
          "name": "",
          "type": "uint256"
        }
      ],
      "stateMutability": "view",
      "type": "function"
    },
    {
      "inputs": [
        {
          "internalType": "uint256",
          "name": "_tokenId",
          "type": "uint256"
        },
        {
          "internalType": "uint256",
          "name": "_salePrice",
          "type": "uint256"
        }
      ],
      "name": "royaltyInfo",
      "outputs": [
        {
          "internalType": "address",
          "name": "receiver",
          "type": "address"
        },
        {
          "internalType": "uint256",
          "name": "royaltyAmount",
          "type": "uint256"
        }
      ],
      "stateMutability": "view",
      "type": "function"
    },
    {
      "inputs": [
        {
          "internalType": "address",
          "name": "from",
          "type": "address"
        },
        {
          "internalType": "address",
          "name": "to",
          "type": "address"
        },
        {
          "internalType": "uint256",
          "name": "tokenId",
          "type": "uint256"
        }
      ],
      "name": "safeTransferFrom",
      "outputs": [],
      "stateMutability": "nonpayable",
      "type": "function"
    },
    {
      "inputs": [
        {
          "internalType": "address",
          "name": "from",
          "type": "address"
        },
        {
          "internalType": "address",
          "name": "to",
          "type": "address"
        },
        {
          "internalType": "uint256",
          "name": "tokenId",
          "type": "uint256"
        },
        {
          "internalType": "bytes",
          "name": "_data",
          "type": "bytes"
        }
      ],
      "name": "safeTransferFrom",
      "outputs": [],
      "stateMutability": "nonpayable",
      "type": "function"
    },
    {
      "inputs": [
        {
          "internalType": "address",
          "name": "operator",
          "type": "address"
        },
        {
          "internalType": "bool",
          "name": "approved",
          "type": "bool"
        }
      ],
      "name": "setApprovalForAll",
      "outputs": [],
      "stateMutability": "nonpayable",
      "type": "function"
    },
    {
      "inputs": [
        {
          "internalType": "string",
          "name": "_uri",
          "type": "string"
        }
      ],
      "name": "setBaseUri",
      "outputs": [],
      "stateMutability": "nonpayable",
      "type": "function"
    },
    {
      "inputs": [
        {
          "internalType": "string",
          "name": "_Uri",
          "type": "string"
        }
      ],
      "name": "setContractURI",
      "outputs": [],
      "stateMutability": "nonpayable",
      "type": "function"
    },
    {
      "inputs": [
        {
          "internalType": "uint256",
          "name": "_discount",
          "type": "uint256"
        }
      ],
      "name": "setDiscount",
      "outputs": [],
      "stateMutability": "nonpayable",
      "type": "function"
    },
    {
      "inputs": [
        {
          "internalType": "string",
          "name": "_uri",
          "type": "string"
        }
      ],
      "name": "setGlobalMetadata",
      "outputs": [],
      "stateMutability": "nonpayable",
      "type": "function"
    },
    {
      "inputs": [
        {
          "internalType": "uint256",
          "name": "_price",
          "type": "uint256"
        }
      ],
      "name": "setPrice",
      "outputs": [],
      "stateMutability": "nonpayable",
      "type": "function"
    },
    {
      "inputs": [
        {
          "internalType": "uint8",
          "name": "numberOfDays",
          "type": "uint8"
        }
      ],
      "name": "setRevealTime",
      "outputs": [],
      "stateMutability": "nonpayable",
      "type": "function"
    },
    {
      "inputs": [
        {
          "internalType": "address",
          "name": "_royaltiesReceipientAddress",
          "type": "address"
        },
        {
          "internalType": "uint16",
          "name": "_percentage",
          "type": "uint16"
        }
      ],
      "name": "setRoyalties",
      "outputs": [],
      "stateMutability": "nonpayable",
      "type": "function"
    },
    {
      "inputs": [],
      "name": "setStartingIndex",
      "outputs": [],
      "stateMutability": "nonpayable",
      "type": "function"
    },
    {
      "inputs": [],
      "name": "startingIndex",
      "outputs": [
        {
          "internalType": "uint16",
          "name": "",
          "type": "uint16"
        }
      ],
      "stateMutability": "view",
      "type": "function"
    },
    {
      "inputs": [
        {
          "internalType": "bytes4",
          "name": "interfaceId",
          "type": "bytes4"
        }
      ],
      "name": "supportsInterface",
      "outputs": [
        {
          "internalType": "bool",
          "name": "",
          "type": "bool"
        }
      ],
      "stateMutability": "view",
      "type": "function"
    },
    {
      "inputs": [],
      "name": "symbol",
      "outputs": [
        {
          "internalType": "string",
          "name": "",
          "type": "string"
        }
      ],
      "stateMutability": "view",
      "type": "function"
    },
    {
      "inputs": [
        {
          "internalType": "uint256",
          "name": "tokenId",
          "type": "uint256"
        }
      ],
      "name": "tokenExperience",
      "outputs": [
        {
          "internalType": "uint256",
          "name": "",
          "type": "uint256"
        }
      ],
      "stateMutability": "view",
      "type": "function"
    },
    {
      "inputs": [
        {
          "internalType": "uint256",
          "name": "tokenId",
          "type": "uint256"
        }
      ],
      "name": "tokenURI",
      "outputs": [
        {
          "internalType": "string",
          "name": "",
          "type": "string"
        }
      ],
      "stateMutability": "view",
      "type": "function"
    },
    {
      "inputs": [],
      "name": "totalExperiences",
      "outputs": [
        {
          "internalType": "uint256",
          "name": "",
          "type": "uint256"
        }
      ],
      "stateMutability": "view",
      "type": "function"
    },
    {
      "inputs": [],
      "name": "totalSupply",
      "outputs": [
        {
          "internalType": "uint256",
          "name": "",
          "type": "uint256"
        }
      ],
      "stateMutability": "view",
      "type": "function"
    },
    {
      "inputs": [
        {
          "internalType": "address",
          "name": "from",
          "type": "address"
        },
        {
          "internalType": "address",
          "name": "to",
          "type": "address"
        },
        {
          "internalType": "uint256",
          "name": "tokenId",
          "type": "uint256"
        }
      ],
      "name": "transferFrom",
      "outputs": [],
      "stateMutability": "nonpayable",
      "type": "function"
    },
    {
      "inputs": [
        {
          "internalType": "address",
          "name": "newOwner",
          "type": "address"
        }
      ],
      "name": "transferOwnership",
      "outputs": [],
      "stateMutability": "nonpayable",
      "type": "function"
    },
    {
      "inputs": [
        {
          "internalType": "string",
          "name": "eventId",
          "type": "string"
        },
        {
          "internalType": "uint8",
          "name": "maxPunches",
          "type": "uint8"
        }
      ],
      "name": "updateMaxPunches",
      "outputs": [],
      "stateMutability": "nonpayable",
      "type": "function"
    },
    {
      "inputs": [
        {
          "internalType": "string",
          "name": "eventId",
          "type": "string"
        },
        {
          "internalType": "address",
          "name": "puncherAddress",
          "type": "address"
        }
      ],
      "name": "updatePuncherAddress",
      "outputs": [],
      "stateMutability": "nonpayable",
      "type": "function"
    },
    {
      "inputs": [
        {
          "internalType": "address",
          "name": "",
          "type": "address"
        }
      ],
      "name": "whitelist",
      "outputs": [
        {
          "internalType": "bool",
          "name": "",
          "type": "bool"
        }
      ],
      "stateMutability": "view",
      "type": "function"
    },
    {
      "inputs": [],
      "name": "whitelistMintActive",
      "outputs": [
        {
          "internalType": "bool",
          "name": "",
          "type": "bool"
        }
      ],
      "stateMutability": "view",
      "type": "function"
    },
    {
      "inputs": [
        {
          "internalType": "uint256",
          "name": "amount",
          "type": "uint256"
        },
        {
          "internalType": "address payable",
          "name": "to",
          "type": "address"
        }
      ],
      "name": "withdrawFromContract",
      "outputs": [],
      "stateMutability": "payable",
      "type": "function"
    }
  ],
  "bytecode": "0x60c06040523480156200001157600080fd5b5060405162003fd938038062003fd983398101604081905262000034916200038c565b828282828282818181600090805190602001906200005492919062000195565b5080516200006a90600190602084019062000195565b50505062000087620000816200013f60201b60201c565b62000143565b5050608052505050601586905560168590556001600160f01b031960f085901b1660a05260005b87518110156200011a576001601460008a8481518110620000d357620000d36200050f565b6020908102919091018101516001600160a01b03168252810191909152604001600020805460ff1916911515919091179055806200011181620004e5565b915050620000ae565b508751620001309060109060208b019062000195565b5050505050505050506200053b565b3390565b600680546001600160a01b038381166001600160a01b0319831681179093556040519116919082907f8be0079c531659141344cd1fd0a4f28419497f9722a3daafe3b4186f6b6457e090600090a35050565b828054620001a390620004a8565b90600052602060002090601f016020900481019282620001c7576000855562000212565b82601f10620001e257805160ff191683800117855562000212565b8280016001018555821562000212579182015b8281111562000212578251825591602001919060010190620001f5565b506200022092915062000224565b5090565b5b8082111562000220576000815560010162000225565b600082601f8301126200024d57600080fd5b815160206001600160401b038211156200026b576200026b62000525565b8160051b6200027c82820162000475565b8381528281019086840183880185018910156200029857600080fd5b60009350835b86811015620002d15781516001600160a01b0381168114620002be578586fd5b845292850192908501906001016200029e565b509098975050505050505050565b600082601f830112620002f157600080fd5b81516001600160401b038111156200030d576200030d62000525565b602062000323601f8301601f1916820162000475565b82815285828487010111156200033857600080fd5b60005b83811015620003585785810183015182820184015282016200033b565b838111156200036a5760008385840101525b5095945050505050565b805161ffff811681146200038757600080fd5b919050565b600080600080600080600080610100898b031215620003aa57600080fd5b88516001600160401b0380821115620003c257600080fd5b620003d08c838d01620002df565b995060208b0151915080821115620003e757600080fd5b620003f58c838d016200023b565b985060408b0151975060608b015196506200041360808c0162000374565b955060a08b0151945060c08b01519150808211156200043157600080fd5b6200043f8c838d01620002df565b935060e08b01519150808211156200045657600080fd5b50620004658b828c01620002df565b9150509295985092959890939650565b604051601f8201601f191681016001600160401b0381118282101715620004a057620004a062000525565b604052919050565b600181811c90821680620004bd57607f821691505b60208210811415620004df57634e487b7160e01b600052602260045260246000fd5b50919050565b60006000198214156200050857634e487b7160e01b600052601160045260246000fd5b5060010190565b634e487b7160e01b600052603260045260246000fd5b634e487b7160e01b600052604160045260246000fd5b60805160a05160f01c613a596200058060003960008181610a1e0152610f3001526000818161054f0152818161173f01528181611bf001526122740152613a596000f3fe6080604052600436106103765760003560e01c806391b7f5ed116101d1578063c87b56dd11610102578063e1b775d2116100a0578063e98665501161006f578063e986655014610b21578063f2fde38b14610b36578063f7bc39bf14610b56578063fb5786ee14610b7657600080fd5b8063e1b775d214610a80578063e44b99b814610a96578063e8a3d48514610ac3578063e985e9c514610ad857600080fd5b8063cb774d47116100dc578063cb774d47146109de578063d065a60214610a0c578063dabd271914610a40578063df77d32d14610a6057600080fd5b8063c87b56dd14610938578063cad96cca14610958578063cb3f5cda146109be57600080fd5b8063a22cb4651161016f578063b2a1acb111610149578063b2a1acb1146108b9578063b88d4fde146108d9578063ba2512a4146108f9578063bd34ee171461091957600080fd5b8063a22cb46514610859578063ab377a1414610879578063adc2e8291461089957600080fd5b80639605f505116101ab5780639605f505146107e05780639b19251a146107f3578063a035b1fe14610823578063a0bcfc7f1461083957600080fd5b806391b7f5ed1461078b578063938e3d7b146107ab57806395d89b41146107cb57600080fd5b8063530cd5ab116102ab57806370a08231116102495780637bc843b6116102235780637bc843b6146107185780637efc90d41461072d5780638da5cb5b1461074d5780639158dd381461076b57600080fd5b806370a08231146106c3578063715018a6146106e357806379415dee146106f857600080fd5b806364d4c8191161028557806364d4c8191461063f57806364de1e85146106735780636a97183e1461068d5780636b6f4a9d146106ad57600080fd5b8063530cd5ab146105915780635b570c31146105b15780636352211e1461061f57600080fd5b806323cf0a22116103185780632c4fe7d6116102f25780632c4fe7d6146104fd57806342842e0e1461051d578063485f0cbb1461053d57806350c163fd1461057157600080fd5b806323cf0a221461048b57806329975b431461049e5780632a55205a146104be57600080fd5b8063095ea7b311610354578063095ea7b31461040a5780630c222ee51461042c57806318160ddd1461044c57806323b872dd1461046b57600080fd5b806301ffc9a71461037b57806306fdde03146103b0578063081812fc146103d2575b600080fd5b34801561038757600080fd5b5061039b6103963660046131e7565b610b96565b60405190151581526020015b60405180910390f35b3480156103bc57600080fd5b506103c5610bdc565b6040516103a7919061371d565b3480156103de57600080fd5b506103f26103ed3660046133f0565b610c6e565b6040516001600160a01b0390911681526020016103a7565b34801561041657600080fd5b5061042a6104253660046131a0565b610cfb565b005b34801561043857600080fd5b5061042a610447366004613174565b610e11565b34801561045857600080fd5b50600d545b6040519081526020016103a7565b34801561047757600080fd5b5061042a61048636600461307e565b610efd565b61042a6104993660046133d5565b610f2e565b3480156104aa57600080fd5b5061042a6104b9366004613028565b61125c565b3480156104ca57600080fd5b506104de6104d9366004613475565b6112aa565b604080516001600160a01b0390931683526020830191909152016103a7565b34801561050957600080fd5b5061042a610518366004613221565b6112eb565b34801561052957600080fd5b5061042a61053836600461307e565b611380565b34801561054957600080fd5b5061045d7f000000000000000000000000000000000000000000000000000000000000000081565b34801561057d57600080fd5b5061042a61058c3660046131cc565b61139b565b34801561059d57600080fd5b5061042a6105ac366004613028565b6113df565b3480156105bd57600080fd5b506105fe6105cc366004613221565b8051602081830181018051600e825292820191909301209152546001600160a01b03811690600160a01b900460ff1682565b604080516001600160a01b03909316835260ff9091166020830152016103a7565b34801561062b57600080fd5b506103f261063a3660046133f0565b61142a565b34801561064b57600080fd5b5061045d7f397e04204c1e1a60ee8724b71f8244e10ab5f2e9009854d80f602bda21b59ebb81565b34801561067f57600080fd5b5060185461039b9060ff1681565b34801561069957600080fd5b5061042a6106a8366004613256565b6114a1565b3480156106b957600080fd5b5061045d60165481565b3480156106cf57600080fd5b5061045d6106de366004613028565b61150f565b3480156106ef57600080fd5b5061042a611596565b34801561070457600080fd5b5061042a610713366004613342565b6115cc565b34801561072457600080fd5b5061045d611737565b34801561073957600080fd5b5061042a61074836600461342e565b6117d3565b34801561075957600080fd5b506006546001600160a01b03166103f2565b34801561077757600080fd5b5061042a610786366004613221565b611857565b34801561079757600080fd5b5061042a6107a63660046133f0565b611894565b3480156107b757600080fd5b5061042a6107c6366004613221565b6118c3565b3480156107d757600080fd5b506103c5611900565b61042a6107ee366004613409565b61190f565b3480156107ff57600080fd5b5061039b61080e366004613028565b60146020526000908152604090205460ff1681565b34801561082f57600080fd5b5061045d60155481565b34801561084557600080fd5b5061042a610854366004613221565b611a20565b34801561086557600080fd5b5061042a61087436600461313f565b611a5d565b34801561088557600080fd5b5061042a61089436600461329d565b611a68565b3480156108a557600080fd5b5061042a6108b43660046131cc565b611ba8565b3480156108c557600080fd5b506103c56108d4366004613028565b611be5565b3480156108e557600080fd5b5061042a6108f43660046130bf565b611d84565b34801561090557600080fd5b5061042a610914366004613390565b611dbc565b34801561092557600080fd5b5060185461039b90610100900460ff1681565b34801561094457600080fd5b506103c56109533660046133f0565b611e27565b34801561096457600080fd5b506109b16109733660046133f0565b5060408051808201825260008082526020918201528151808301909252600c546001600160a01b0381168352600160a01b900461ffff169082015290565b6040516103a79190613808565b3480156109ca57600080fd5b5061042a6109d9366004613497565b611fa3565b3480156109ea57600080fd5b506011546109f99061ffff1681565b60405161ffff90911681526020016103a7565b348015610a1857600080fd5b506109f97f000000000000000000000000000000000000000000000000000000000000000081565b348015610a4c57600080fd5b5061042a610a5b3660046133f0565b612042565b348015610a6c57600080fd5b5061045d610a7b3660046132fd565b612071565b348015610a8c57600080fd5b5061045d60125481565b348015610aa257600080fd5b5061045d610ab13660046133f0565b60009081526009602052604090205490565b348015610acf57600080fd5b506103c56120e6565b348015610ae457600080fd5b5061039b610af3366004613045565b6001600160a01b03918216600090815260056020908152604080832093909416825291909152205460ff1690565b348015610b2d57600080fd5b5061042a6120f5565b348015610b4257600080fd5b5061042a610b51366004613028565b6121ce565b348015610b6257600080fd5b506103c5610b71366004613028565b612269565b348015610b8257600080fd5b5061042a610b9136600461342e565b6123aa565b60006001600160e01b0319821663152a902d60e11b1480610bc757506001600160e01b0319821663656cb66560e11b145b80610bd65750610bd6826123f3565b92915050565b606060008054610beb90613914565b80601f0160208091040260200160405190810160405280929190818152602001828054610c1790613914565b8015610c645780601f10610c3957610100808354040283529160200191610c64565b820191906000526020600020905b815481529060010190602001808311610c4757829003601f168201915b5050505050905090565b6000610c7982612443565b610cdf5760405162461bcd60e51b815260206004820152602c60248201527f4552433732313a20617070726f76656420717565727920666f72206e6f6e657860448201526b34b9ba32b73a103a37b5b2b760a11b60648201526084015b60405180910390fd5b506000908152600460205260409020546001600160a01b031690565b6000610d068261142a565b9050806001600160a01b0316836001600160a01b03161415610d745760405162461bcd60e51b815260206004820152602160248201527f4552433732313a20617070726f76616c20746f2063757272656e74206f776e656044820152603960f91b6064820152608401610cd6565b336001600160a01b0382161480610d905750610d908133610af3565b610e025760405162461bcd60e51b815260206004820152603860248201527f4552433732313a20617070726f76652063616c6c6572206973206e6f74206f7760448201527f6e6572206e6f7220617070726f76656420666f7220616c6c00000000000000006064820152608401610cd6565b610e0c8383612460565b505050565b6006546001600160a01b03163314610e3b5760405162461bcd60e51b8152600401610cd690613782565b6127108161ffff1610610e765760405162461bcd60e51b815260206004820152600360248201526218181960e91b6044820152606401610cd6565b600c80546001600160a01b038481166001600160b01b031990921691909117600160a01b61ffff858116820292909217938490556040805180820182529385168452930416602082015290517f03ca518fc7a952da1be15b759a29c1d193a178303d32c4ab2016133b610a215d91610ef191600091906136e8565b60405180910390a15050565b610f0733826124ce565b610f235760405162461bcd60e51b8152600401610cd6906137b7565b610e0c8383836125b4565b7f000000000000000000000000000000000000000000000000000000000000000061ffff168161ffff161115610fa65760405162461bcd60e51b815260206004820152601760248201527f547279696e6720746f206d696e7420746f6f206d616e790000000000000000006044820152606401610cd6565b600d54600a11610fed5760405162461bcd60e51b815260206004820152601260248201527113585e081cdd5c1c1b1e481c995858da195960721b6044820152606401610cd6565b3360009081526014602052604090205460ff1615611085578061ffff1661271060165461271061101d91906138d1565b60155461102a91906138b2565b6110349190613873565b61103e91906138b2565b3410156110805760405162461bcd60e51b815260206004820152601060248201526f4e6f7420656e6f756768204d6174696360801b6044820152606401610cd6565b6110d9565b8061ffff1660155461109791906138b2565b3410156110d95760405162461bcd60e51b815260206004820152601060248201526f4e6f7420656e6f756768204d6174696360801b6044820152606401610cd6565b34601760008282546110eb9190613836565b909155505060185460ff16801561110a5750601854610100900460ff16155b15611196573360009081526014602052604090205460ff1661117a5760405162461bcd60e51b8152602060048201526024808201527f546869732061646472657373206973206e6f7420696e207468652077686974656044820152631b1a5cdd60e21b6064820152608401610cd6565b336000908152601460205260409020805460ff191690556111f7565b60185460ff161580156111b15750601854610100900460ff16155b156111f75760405162461bcd60e51b8152602060048201526016602482015275135a5b9d1a5b99c81a5cc81b9bdd08195b98589b195960521b6044820152606401610cd6565b60005b8161ffff168161ffff161015611258576019805490600061121a83613971565b9091555050600d805490600061122f83613971565b919050555061124661123e3390565b601954612750565b806112508161394f565b9150506111fa565b5050565b6006546001600160a01b031633146112865760405162461bcd60e51b8152600401610cd690613782565b6001600160a01b03166000908152601460205260409020805460ff19166001179055565b600c5460009081906001600160a01b03811690612710906112d690600160a01b900461ffff16866138b2565b6112e09190613873565b915091509250929050565b6006546001600160a01b031633146113155760405162461bcd60e51b8152600401610cd690613782565b604080518082018252600080825260208201529051600e90611338908490613550565b90815260405190819003602090810190912082518154939092015160ff16600160a01b026001600160a81b03199093166001600160a01b039092169190911791909117905550565b610e0c83838360405180602001604052806000815250611d84565b6006546001600160a01b031633146113c55760405162461bcd60e51b8152600401610cd690613782565b601880549115156101000261ff0019909216919091179055565b6006546001600160a01b031633146114095760405162461bcd60e51b8152600401610cd690613782565b6001600160a01b03166000908152601460205260409020805460ff19169055565b6000818152600260205260408120546001600160a01b031680610bd65760405162461bcd60e51b815260206004820152602960248201527f4552433732313a206f776e657220717565727920666f72206e6f6e657869737460448201526832b73a103a37b5b2b760b91b6064820152608401610cd6565b6006546001600160a01b031633146114cb5760405162461bcd60e51b8152600401610cd690613782565b80600e836040516114dc9190613550565b90815260405190819003602001902080546001600160a01b03929092166001600160a01b03199092169190911790555050565b60006001600160a01b03821661157a5760405162461bcd60e51b815260206004820152602a60248201527f4552433732313a2062616c616e636520717565727920666f7220746865207a65604482015269726f206164647265737360b01b6064820152608401610cd6565b506001600160a01b031660009081526003602052604090205490565b6006546001600160a01b031633146115c05760405162461bcd60e51b8152600401610cd690613782565b6115ca6000612883565b565b600e836040516115dc9190613550565b908152604051908190036020019020546001600160a01b03166115fc3390565b6001600160a01b0316146116385760405162461bcd60e51b815260206004820152600360248201526219181960e91b6044820152606401610cd6565b600e836040516116489190613550565b9081526040805160209281900383018120546000868152600f90945291909220600160a01b90910460ff1691839190611682908790613550565b9081526040519081900360200190205461169f919060ff1661384e565b60ff1611156116d65760405162461bcd60e51b815260206004820152600360248201526232303360e81b6044820152606401610cd6565b80600f6000848152602001908152602001600020846040516116f89190613550565b908152604051908190036020019020805460009061171a90849060ff1661384e565b92506101000a81548160ff021916908360ff160217905550505050565b6000806117657f00000000000000000000000000000000000000000000000000000000000000006064613836565b905060006001815b838310156117cb576000828152600860205260409020805461178e90613914565b1590506117ab578061179f81613971565b915050600092506117b9565b826117b581613971565b9350505b816117c381613971565b92505061176d565b949350505050565b6006546001600160a01b031633146117fd5760405162461bcd60e51b8152600401610cd690613782565b61180682612443565b6118385760405162461bcd60e51b815260206004820152600360248201526230303160e81b6044820152606401610cd6565b6000828152600a602090815260409091208251610e0c92840190612ebf565b6006546001600160a01b031633146118815760405162461bcd60e51b8152600401610cd690613782565b8051611258906007906020840190612ebf565b6006546001600160a01b031633146118be5760405162461bcd60e51b8152600401610cd690613782565b601555565b6006546001600160a01b031633146118ed5760405162461bcd60e51b8152600401610cd690613782565b805161125890600b906020840190612ebf565b606060018054610beb90613914565b6006546001600160a01b031633146119395760405162461bcd60e51b8152600401610cd690613782565b4782111561197e5760405162461bcd60e51b81526020600482015260126024820152714e6f7420656e6f7567682062616c616e636560701b6044820152606401610cd6565b6119866128d5565b1561125857816017600082825461199d91906138d1565b90915550506040516001600160a01b0382169083156108fc029084906000818181858888f193505050501580156119d8573d6000803e3d6000fd5b50806001600160a01b03167f7fcf532c15f0a6db0bd6d0e038bea71d30d808c7d98cb3bf7268a95bf5081b6583604051611a1491815260200190565b60405180910390a25050565b6006546001600160a01b03163314611a4a5760405162461bcd60e51b8152600401610cd690613782565b8051611258906010906020840190612ebf565b611258338383612959565b6006546001600160a01b03163314611a925760405162461bcd60e51b8152600401610cd690613782565b60006001600160a01b0316600e84604051611aad9190613550565b908152604051908190036020019020546001600160a01b0316148015611afb5750600e83604051611ade9190613550565b9081526040519081900360200190205460ff600160a01b90910416155b611b2d5760405162461bcd60e51b815260206004820152600360248201526232303160e81b6044820152606401610cd6565b6040518060400160405280836001600160a01b031681526020018260ff16815250600e84604051611b5e9190613550565b90815260405190819003602090810190912082518154939092015160ff16600160a01b026001600160a81b03199093166001600160a01b0390921691909117919091179055505050565b6006546001600160a01b03163314611bd25760405162461bcd60e51b8152600401610cd690613782565b6018805460ff1916911515919091179055565b606060016000611c167f00000000000000000000000000000000000000000000000000000000000000006064613836565b6040805180820182526001808252607b60f81b6020808401829052845180860190955291845290830152919250600091905b83831015611d5857611c5985612443565b15611d385760009250866001600160a01b0316611c758661142a565b6001600160a01b03161415611d33578080519060200120828051906020012014611cc05781604051602001611caa9190613602565b6040516020818303038152906040529150611ce3565b81604051602001611cd19190613592565b60405160208183030381529060405291505b611ced8286612a28565b915081604051602001611d0091906135b7565b6040516020818303038152906040529150611d3082611d2b8760009081526009602052604090205490565b612a28565b91505b611d46565b82611d4281613971565b9350505b84611d5081613971565b955050611c48565b81604051602001611d6991906135dc565b60408051601f19818403018152919052979650505050505050565b611d8e33836124ce565b611daa5760405162461bcd60e51b8152600401610cd6906137b7565b611db684848484612c08565b50505050565b6006546001600160a01b03163314611de65760405162461bcd60e51b8152600401610cd690613782565b80600e83604051611df79190613550565b908152604051908190036020019020805460ff92909216600160a01b0260ff60a01b199092169190911790555050565b6060611e3282612443565b611e6f5760405162461bcd60e51b815260206004820152600e60248201526d139bdb995e1a5cdd195b8813919560921b6044820152606401610cd6565b611e77612c3b565b611f0d5760078054611e8890613914565b80601f0160208091040260200160405190810160405280929190818152602001828054611eb490613914565b8015611f015780601f10611ed657610100808354040283529160200191611f01565b820191906000526020600020905b815481529060010190602001808311611ee457829003601f168201915b50505050509050919050565b4260125411158015611f24575060115461ffff1615155b15611f9157601154600090600a90611f409061ffff1685613836565b611f4a919061398c565b611f55906001613836565b905060006010611f688361ffff16612c89565b604051602001611f79929190613628565b60408051601f19818403018152919052949350505050565b60108054611e8890613914565b919050565b6006546001600160a01b03163314611fcd5760405162461bcd60e51b8152600401610cd690613782565b6012541561201d5760405162461bcd60e51b815260206004820152601a60248201527f72657665616c2074696d6520697320616c7265616479207365740000000000006044820152606401610cd6565b61202d60ff821662015180613887565b61203c9062ffffff1642613836565b60125550565b6006546001600160a01b0316331461206c5760405162461bcd60e51b8152600401610cd690613782565b601655565b600061207c82612443565b6120ae5760405162461bcd60e51b815260206004820152600360248201526230303160e81b6044820152606401610cd6565b6000828152600f60205260409081902090516120cb908590613550565b9081526040519081900360200190205460ff16905092915050565b6060600b8054610beb90613914565b6006546001600160a01b0316331461211f5760405162461bcd60e51b8152600401610cd690613782565b60115461ffff16156121735760405162461bcd60e51b815260206004820152601d60248201527f5374617274696e6720696e64657820697320616c7265616479207365740000006044820152606401610cd6565b60115461ffff166115ca5760408051446020808301919091524282840152825180830384018152606090920190925280519101206121b390600a9061398c565b6011805461ffff191661ffff92909216919091179055612173565b6006546001600160a01b031633146121f85760405162461bcd60e51b8152600401610cd690613782565b6001600160a01b03811661225d5760405162461bcd60e51b815260206004820152602660248201527f4f776e61626c653a206e6577206f776e657220697320746865207a65726f206160448201526564647265737360d01b6064820152608401610cd6565b61226681612883565b50565b60606001600061229a7f00000000000000000000000000000000000000000000000000000000000000006064613836565b6040805180820182526001808252605b60f81b6020808401829052845180860190955291845290830152919250600091905b83831015612399576122dd85612443565b156123795760009250866001600160a01b03166122f98661142a565b6001600160a01b03161415612374578080519060200120828051906020012014612344578160405160200161232e9190613602565b6040516020818303038152906040529150612367565b816040516020016123559190613592565b60405160208183030381529060405291505b6123718286612a28565b91505b612387565b8261238381613971565b9350505b8461239181613971565b9550506122cc565b81604051602001611d69919061356c565b6006546001600160a01b031633146123d45760405162461bcd60e51b8152600401610cd690613782565b60008281526008602090815260409091208251610e0c92840190612ebf565b60006001600160e01b031982166380ac58cd60e01b148061242457506001600160e01b03198216635b5e139f60e01b145b80610bd657506301ffc9a760e01b6001600160e01b0319831614610bd6565b6000908152600260205260409020546001600160a01b0316151590565b600081815260046020526040902080546001600160a01b0319166001600160a01b03841690811790915581906124958261142a565b6001600160a01b03167f8c5be1e5ebec7d5bd14f71427d1e84f3dd0314c0f7b2291e5b200ac8c7c3b92560405160405180910390a45050565b60006124d982612443565b61253a5760405162461bcd60e51b815260206004820152602c60248201527f4552433732313a206f70657261746f7220717565727920666f72206e6f6e657860448201526b34b9ba32b73a103a37b5b2b760a11b6064820152608401610cd6565b60006125458361142a565b9050806001600160a01b0316846001600160a01b031614806125805750836001600160a01b031661257584610c6e565b6001600160a01b0316145b806117cb57506001600160a01b0380821660009081526005602090815260408083209388168352929052205460ff166117cb565b826001600160a01b03166125c78261142a565b6001600160a01b03161461262b5760405162461bcd60e51b815260206004820152602560248201527f4552433732313a207472616e736665722066726f6d20696e636f72726563742060448201526437bbb732b960d91b6064820152608401610cd6565b6001600160a01b03821661268d5760405162461bcd60e51b8152602060048201526024808201527f4552433732313a207472616e7366657220746f20746865207a65726f206164646044820152637265737360e01b6064820152608401610cd6565b612698600082612460565b6001600160a01b03831660009081526003602052604081208054600192906126c19084906138d1565b90915550506001600160a01b03821660009081526003602052604081208054600192906126ef908490613836565b909155505060008181526002602052604080822080546001600160a01b0319166001600160a01b0386811691821790925591518493918716917fddf252ad1be2c89b69c2b068fc378daa952ba7f163c4a11628f55a4df523b3ef91a4505050565b6001600160a01b0382166127a65760405162461bcd60e51b815260206004820181905260248201527f4552433732313a206d696e7420746f20746865207a65726f20616464726573736044820152606401610cd6565b6127af81612443565b156127fc5760405162461bcd60e51b815260206004820152601c60248201527f4552433732313a20746f6b656e20616c7265616479206d696e746564000000006044820152606401610cd6565b6001600160a01b0382166000908152600360205260408120805460019290612825908490613836565b909155505060008181526002602052604080822080546001600160a01b0319166001600160a01b03861690811790915590518392907fddf252ad1be2c89b69c2b068fc378daa952ba7f163c4a11628f55a4df523b3ef908290a45050565b600680546001600160a01b038381166001600160a01b0319831681179093556040519116919082907f8be0079c531659141344cd1fd0a4f28419497f9722a3daafe3b4186f6b6457e090600090a35050565b60004760175414612953576006546040516001600160a01b03909116904780156108fc02916000818181858888f19350505050158015612919573d6000803e3d6000fd5b506040514781527f40d049d1cf483938324a7677b589a685d17b34e3795b2e32d749beaa1a305e3d9060200160405180910390a150600090565b50600190565b816001600160a01b0316836001600160a01b031614156129bb5760405162461bcd60e51b815260206004820152601960248201527f4552433732313a20617070726f766520746f2063616c6c6572000000000000006044820152606401610cd6565b6001600160a01b03838116600081815260056020908152604080832094871680845294825291829020805460ff191686151590811790915591519182527f17307eab39ab6107e8899845ad3d59bd9653f200f220920489ca2b5937696c31910160405180910390a3505050565b60408051606480825260a08201909252606091906000908260208201818036833701905050905060005b8415612abc576000612a65600a8761398c565b9050612a72600a87613873565b9550612a7f816030613836565b60f81b8383612a8d81613971565b945081518110612a9f57612a9f6139cc565b60200101906001600160f81b031916908160001a90535050612a52565b85518690600090612ace908490613836565b67ffffffffffffffff811115612ae657612ae66139e2565b6040519080825280601f01601f191660200182016040528015612b10576020820181803683370190505b50905060005b8251811015612b7757828181518110612b3157612b316139cc565b602001015160f81c60f81b828281518110612b4e57612b4e6139cc565b60200101906001600160f81b031916908160001a90535080612b6f81613971565b915050612b16565b5060005b83811015612bfc578481612b906001876138d1565b612b9a91906138d1565b81518110612baa57612baa6139cc565b602001015160f81c60f81b82845183612bc39190613836565b81518110612bd357612bd36139cc565b60200101906001600160f81b031916908160001a90535080612bf481613971565b915050612b7b565b50979650505050505050565b612c138484846125b4565b612c1f84848484612db2565b611db65760405162461bcd60e51b8152600401610cd690613730565b60408051602081018252600080825291517fc5d2460186f7233c927e7db2dcc703c0e500b653ca82273b7bfad8045d85a47090612c7a906007906134de565b60405180910390201491505090565b606081612cad5750506040805180820190915260018152600360fc1b602082015290565b8160005b8115612cd75780612cc181613971565b9150612cd09050600a83613873565b9150612cb1565b60008167ffffffffffffffff811115612cf257612cf26139e2565b6040519080825280601f01601f191660200182016040528015612d1c576020820181803683370190505b509050815b8515612da957612d326001826138d1565b90506000612d41600a88613873565b612d4c90600a6138b2565b612d5690886138d1565b612d6190603061384e565b905060008160f81b905080848481518110612d7e57612d7e6139cc565b60200101906001600160f81b031916908160001a905350612da0600a89613873565b97505050612d21565b50949350505050565b60006001600160a01b0384163b15612eb457604051630a85bd0160e11b81526001600160a01b0385169063150b7a0290612df69033908990889088906004016136ab565b602060405180830381600087803b158015612e1057600080fd5b505af1925050508015612e40575060408051601f3d908101601f19168201909252612e3d91810190613204565b60015b612e9a573d808015612e6e576040519150601f19603f3d011682016040523d82523d6000602084013e612e73565b606091505b508051612e925760405162461bcd60e51b8152600401610cd690613730565b805181602001fd5b6001600160e01b031916630a85bd0160e11b1490506117cb565b506001949350505050565b828054612ecb90613914565b90600052602060002090601f016020900481019282612eed5760008555612f33565b82601f10612f0657805160ff1916838001178555612f33565b82800160010185558215612f33579182015b82811115612f33578251825591602001919060010190612f18565b50612f3f929150612f43565b5090565b5b80821115612f3f5760008155600101612f44565b600067ffffffffffffffff80841115612f7357612f736139e2565b604051601f8501601f19908116603f01168101908282118183101715612f9b57612f9b6139e2565b81604052809350858152868686011115612fb457600080fd5b858560208301376000602087830101525050509392505050565b80358015158114611f9e57600080fd5b600082601f830112612fef57600080fd5b612ffe83833560208501612f58565b9392505050565b803561ffff81168114611f9e57600080fd5b803560ff81168114611f9e57600080fd5b60006020828403121561303a57600080fd5b8135612ffe816139f8565b6000806040838503121561305857600080fd5b8235613063816139f8565b91506020830135613073816139f8565b809150509250929050565b60008060006060848603121561309357600080fd5b833561309e816139f8565b925060208401356130ae816139f8565b929592945050506040919091013590565b600080600080608085870312156130d557600080fd5b84356130e0816139f8565b935060208501356130f0816139f8565b925060408501359150606085013567ffffffffffffffff81111561311357600080fd5b8501601f8101871361312457600080fd5b61313387823560208401612f58565b91505092959194509250565b6000806040838503121561315257600080fd5b823561315d816139f8565b915061316b60208401612fce565b90509250929050565b6000806040838503121561318757600080fd5b8235613192816139f8565b915061316b60208401613005565b600080604083850312156131b357600080fd5b82356131be816139f8565b946020939093013593505050565b6000602082840312156131de57600080fd5b612ffe82612fce565b6000602082840312156131f957600080fd5b8135612ffe81613a0d565b60006020828403121561321657600080fd5b8151612ffe81613a0d565b60006020828403121561323357600080fd5b813567ffffffffffffffff81111561324a57600080fd5b6117cb84828501612fde565b6000806040838503121561326957600080fd5b823567ffffffffffffffff81111561328057600080fd5b61328c85828601612fde565b9250506020830135613073816139f8565b6000806000606084860312156132b257600080fd5b833567ffffffffffffffff8111156132c957600080fd5b6132d586828701612fde565b93505060208401356132e6816139f8565b91506132f460408501613017565b90509250925092565b6000806040838503121561331057600080fd5b823567ffffffffffffffff81111561332757600080fd5b61333385828601612fde565b95602094909401359450505050565b60008060006060848603121561335757600080fd5b833567ffffffffffffffff81111561336e57600080fd5b61337a86828701612fde565b935050602084013591506132f460408501613017565b600080604083850312156133a357600080fd5b823567ffffffffffffffff8111156133ba57600080fd5b6133c685828601612fde565b92505061316b60208401613017565b6000602082840312156133e757600080fd5b612ffe82613005565b60006020828403121561340257600080fd5b5035919050565b6000806040838503121561341c57600080fd5b823591506020830135613073816139f8565b6000806040838503121561344157600080fd5b82359150602083013567ffffffffffffffff81111561345f57600080fd5b61346b85828601612fde565b9150509250929050565b6000806040838503121561348857600080fd5b50508035926020909101359150565b6000602082840312156134a957600080fd5b612ffe82613017565b600081518084526134ca8160208601602086016138e8565b601f01601f19169290920160200192915050565b60008083546134ec81613914565b60018281168015613504576001811461351557613544565b60ff19841687528287019450613544565b8760005260208060002060005b8581101561353b5781548a820152908401908201613522565b50505082870194505b50929695505050505050565b600082516135628184602087016138e8565b9190910192915050565b6000825161357e8184602087016138e8565b61205d60f01b920191825250600201919050565b600082516135a48184602087016138e8565b600160fd1b920191825250600101919050565b600082516135c98184602087016138e8565b601d60f91b920191825250600101919050565b600082516135ee8184602087016138e8565b61207d60f01b920191825250600201919050565b600082516136148184602087016138e8565b61016160f51b920191825250600201919050565b600080845461363681613914565b6001828116801561364e576001811461365f5761368e565b60ff1984168752828701945061368e565b8860005260208060002060005b858110156136855781548a82015290840190820161366c565b50505082870194505b5050505083516136a28183602088016138e8565b01949350505050565b6001600160a01b03858116825284166020820152604081018390526080606082018190526000906136de908301846134b2565b9695505050505050565b82815260608101612ffe602083018480516001600160a01b031682526020908101516bffffffffffffffffffffffff16910152565b602081526000612ffe60208301846134b2565b60208082526032908201527f4552433732313a207472616e7366657220746f206e6f6e20455243373231526560408201527131b2b4bb32b91034b6b83632b6b2b73a32b960711b606082015260800190565b6020808252818101527f4f776e61626c653a2063616c6c6572206973206e6f7420746865206f776e6572604082015260600190565b60208082526031908201527f4552433732313a207472616e736665722063616c6c6572206973206e6f74206f6040820152701ddb995c881b9bdc88185c1c1c9bdd9959607a1b606082015260800190565b81516001600160a01b031681526020808301516bffffffffffffffffffffffff169082015260408101610bd6565b60008219821115613849576138496139a0565b500190565b600060ff821660ff84168060ff0382111561386b5761386b6139a0565b019392505050565b600082613882576138826139b6565b500490565b600062ffffff808316818516818304811182151516156138a9576138a96139a0565b02949350505050565b60008160001904831182151516156138cc576138cc6139a0565b500290565b6000828210156138e3576138e36139a0565b500390565b60005b838110156139035781810151838201526020016138eb565b83811115611db65750506000910152565b600181811c9082168061392857607f821691505b6020821081141561394957634e487b7160e01b600052602260045260246000fd5b50919050565b600061ffff80831681811415613967576139676139a0565b6001019392505050565b6000600019821415613985576139856139a0565b5060010190565b60008261399b5761399b6139b6565b500690565b634e487b7160e01b600052601160045260246000fd5b634e487b7160e01b600052601260045260246000fd5b634e487b7160e01b600052603260045260246000fd5b634e487b7160e01b600052604160045260246000fd5b6001600160a01b038116811461226657600080fd5b6001600160e01b03198116811461226657600080fdfea26469706673582212203b483fbfd87dbeac21a48eea200b904166fe713714e0838a83df2ccf762c214764736f6c63430008070033",
  "linkReferences": {},
  "deployedLinkReferences": {}
}