{
  "_format": "hh-sol-artifact-1",
  "contractName": "WhiteListMinter",
  "sourceName": "contracts/WhiteListMinter.sol",
  "abi": [
    {
      "inputs": [
        {
          "internalType": "string",
          "name": "_eventId",
          "type": "string"
        },
        {
          "internalType": "address",
          "name": "_whitelistedContract",
          "type": "address"
        },
        {
          "internalType": "address",
          "name": "_dropContract",
          "type": "address"
        },
        {
          "internalType": "uint256",
          "name": "_maxMints",
          "type": "uint256"
        }
      ],
      "stateMutability": "nonpayable",
      "type": "constructor"
    },
    {
      "anonymous": false,
      "inputs": [
        {
          "indexed": true,
          "internalType": "address",
          "name": "previousOwner",
          "type": "address"
        },
        {
          "indexed": true,
          "internalType": "address",
          "name": "newOwner",
          "type": "address"
        }
      ],
      "name": "OwnershipTransferred",
      "type": "event"
    },
    {
      "inputs": [],
      "name": "dropContract",
      "outputs": [
        {
          "internalType": "contract NewSDKContract",
          "name": "",
          "type": "address"
        }
      ],
      "stateMutability": "view",
      "type": "function"
    },
    {
      "inputs": [],
      "name": "eventId",
      "outputs": [
        {
          "internalType": "string",
          "name": "",
          "type": "string"
        }
      ],
      "stateMutability": "view",
      "type": "function"
    },
    {
      "inputs": [],
      "name": "maxMints",
      "outputs": [
        {
          "internalType": "uint256",
          "name": "",
          "type": "uint256"
        }
      ],
      "stateMutability": "view",
      "type": "function"
    },
    {
      "inputs": [],
      "name": "mints",
      "outputs": [
        {
          "internalType": "uint256",
          "name": "",
          "type": "uint256"
        }
      ],
      "stateMutability": "view",
      "type": "function"
    },
    {
      "inputs": [],
      "name": "owner",
      "outputs": [
        {
          "internalType": "address",
          "name": "",
          "type": "address"
        }
      ],
      "stateMutability": "view",
      "type": "function"
    },
    {
      "inputs": [],
      "name": "renounceOwnership",
      "outputs": [],
      "stateMutability": "nonpayable",
      "type": "function"
    },
    {
      "inputs": [
        {
          "internalType": "address",
          "name": "_dropContract",
          "type": "address"
        }
      ],
      "name": "setDropContract",
      "outputs": [],
      "stateMutability": "nonpayable",
      "type": "function"
    },
    {
      "inputs": [
        {
          "internalType": "string",
          "name": "_eventId",
          "type": "string"
        }
      ],
      "name": "setEventId",
      "outputs": [],
      "stateMutability": "nonpayable",
      "type": "function"
    },
    {
      "inputs": [
        {
          "internalType": "uint8",
          "name": "_maxMints",
          "type": "uint8"
        }
      ],
      "name": "setMaxMints",
      "outputs": [],
      "stateMutability": "nonpayable",
      "type": "function"
    },
    {
      "inputs": [
        {
          "internalType": "address",
          "name": "_whitelistedContract",
          "type": "address"
        }
      ],
      "name": "setWhiteListedContract",
      "outputs": [],
      "stateMutability": "nonpayable",
      "type": "function"
    },
    {
      "inputs": [
        {
          "internalType": "address",
          "name": "newOwner",
          "type": "address"
        }
      ],
      "name": "transferOwnership",
      "outputs": [],
      "stateMutability": "nonpayable",
      "type": "function"
    },
    {
      "inputs": [
        {
          "internalType": "uint256",
          "name": "_tokenIdToPunch",
          "type": "uint256"
        },
        {
          "internalType": "uint256",
          "name": "_eID",
          "type": "uint256"
        },
        {
          "internalType": "string",
          "name": "_Uri",
          "type": "string"
        }
      ],
      "name": "whiteListMint",
      "outputs": [],
      "stateMutability": "nonpayable",
      "type": "function"
    },
    {
      "inputs": [
        {
          "internalType": "uint256",
          "name": "_tokenIdToPunch",
          "type": "uint256"
        },
        {
          "internalType": "uint256",
          "name": "_eID",
          "type": "uint256"
        }
      ],
      "name": "whiteListMint",
      "outputs": [],
      "stateMutability": "nonpayable",
      "type": "function"
    },
    {
      "inputs": [],
      "name": "whitelistedContract",
      "outputs": [
        {
          "internalType": "contract ExistingSDKContract",
          "name": "",
          "type": "address"
        }
      ],
      "stateMutability": "view",
      "type": "function"
    }
  ],
  "bytecode": "0x60806040523480156200001157600080fd5b5060405162001393380380620013938339810160408190526200003491620001a5565b6200003f3362000092565b600180546001600160a01b038086166001600160a01b0319928316179092556002805492851692909116919091179055835162000084906005906020870190620000e2565b506003555062000303915050565b600080546001600160a01b038381166001600160a01b0319831681178455604051919092169283917f8be0079c531659141344cd1fd0a4f28419497f9722a3daafe3b4186f6b6457e09190a35050565b828054620000f090620002b0565b90600052602060002090601f0160209004810192826200011457600085556200015f565b82601f106200012f57805160ff19168380011785556200015f565b828001600101855582156200015f579182015b828111156200015f57825182559160200191906001019062000142565b506200016d92915062000171565b5090565b5b808211156200016d576000815560010162000172565b80516001600160a01b0381168114620001a057600080fd5b919050565b60008060008060808587031215620001bc57600080fd5b84516001600160401b0380821115620001d457600080fd5b818701915087601f830112620001e957600080fd5b815181811115620001fe57620001fe620002ed565b604051601f8201601f19908116603f01168101908382118183101715620002295762000229620002ed565b81604052828152602093508a848487010111156200024657600080fd5b600091505b828210156200026a57848201840151818301850152908301906200024b565b828211156200027c5760008484830101525b97506200028e91505087820162000188565b94505050620002a06040860162000188565b6060959095015193969295505050565b600181811c90821680620002c557607f821691505b60208210811415620002e757634e487b7160e01b600052602260045260246000fd5b50919050565b634e487b7160e01b600052604160045260246000fd5b61108080620003136000396000f3fe608060405234801561001057600080fd5b50600436106100ea5760003560e01c80638b2f3eab1161008c578063c40e662d11610066578063c40e662d146101c9578063ce24359c146101dc578063dfc7379d146101ef578063f2fde38b146101f857600080fd5b80638b2f3eab1461018e5780638da5cb5b146101a1578063b6b6f0c3146101b257600080fd5b806331638c6f116100c857806331638c6f1461014d5780633d3f6fd7146101605780634342fbe314610173578063715018a61461018657600080fd5b806307acb436146100ef578063089cdd0c1461010457806318e4542714610122575b600080fd5b6101026100fd366004610de2565b61020b565b005b61010c610246565b6040516101199190610e82565b60405180910390f35b600154610135906001600160a01b031681565b6040516001600160a01b039091168152602001610119565b61010261015b366004610cd9565b6102d4565b61010261016e366004610d92565b610320565b600254610135906001600160a01b031681565b61010261060b565b61010261019c366004610cd9565b610641565b6000546001600160a01b0316610135565b6101bb60035481565b604051908152602001610119565b6101026101d7366004610d1a565b61068d565b6101026101ea366004610d70565b6106ce565b6101bb60045481565b610102610206366004610cd9565b6109cf565b6000546001600160a01b0316331461023e5760405162461bcd60e51b815260040161023590610f4b565b60405180910390fd5b60ff16600355565b6005805461025390610fba565b80601f016020809104026020016040519081016040528092919081815260200182805461027f90610fba565b80156102cc5780601f106102a1576101008083540402835291602001916102cc565b820191906000526020600020905b8154815290600101906020018083116102af57829003601f168201915b505050505081565b6000546001600160a01b031633146102fe5760405162461bcd60e51b815260040161023590610f4b565b600280546001600160a01b0319166001600160a01b0392909216919091179055565b336001546040516331a9108f60e11b8152600481018690526001600160a01b039283169290911690636352211e9060240160206040518083038186803b15801561036957600080fd5b505afa15801561037d573d6000803e3d6000fd5b505050506040513d601f19601f820116820180604052508101906103a19190610cfd565b6001600160a01b0316146103f05760405162461bcd60e51b8152602060048201526016602482015275165bdd48191bdb89dd081bdddb881d1a1a5cc813919560521b6044820152606401610235565b600454600354116104435760405162461bcd60e51b815260206004820152601f60248201527f546869732064726f70206973206f7574206f662066726565206d696e74732e006044820152606401610235565b600154604051631c89733760e31b8152600481018590526000916001600160a01b03169063e44b99b89060240160206040518083038186803b15801561048857600080fd5b505afa15801561049c573d6000803e3d6000fd5b505050506040513d601f19601f820116820180604052508101906104c09190610d57565b90506104cc8184610a6a565b6105225760405162461bcd60e51b815260206004820152602160248201527f4e6f7420616c6c6f77656420746f206d696e74207468697320637265617475726044820152606560f81b6064820152608401610235565b60018054604051633ca0aef760e11b81526001600160a01b03909116916379415dee9161055791600591899190600401610e95565b600060405180830381600087803b15801561057157600080fd5b505af1158015610585573d6000803e3d6000fd5b5050505060016004600082825461059c9190610f80565b90915550506002546001600160a01b031663d3fc98643385856040518463ffffffff1660e01b81526004016105d393929190610e52565b600060405180830381600087803b1580156105ed57600080fd5b505af1158015610601573d6000803e3d6000fd5b5050505050505050565b6000546001600160a01b031633146106355760405162461bcd60e51b815260040161023590610f4b565b61063f6000610b63565b565b6000546001600160a01b0316331461066b5760405162461bcd60e51b815260040161023590610f4b565b600180546001600160a01b0319166001600160a01b0392909216919091179055565b6000546001600160a01b031633146106b75760405162461bcd60e51b815260040161023590610f4b565b80516106ca906005906020840190610bb3565b5050565b336001546040516331a9108f60e11b8152600481018590526001600160a01b039283169290911690636352211e9060240160206040518083038186803b15801561071757600080fd5b505afa15801561072b573d6000803e3d6000fd5b505050506040513d601f19601f8201168201806040525081019061074f9190610cfd565b6001600160a01b03161461079e5760405162461bcd60e51b8152602060048201526016602482015275165bdd48191bdb89dd081bdddb881d1a1a5cc813919560521b6044820152606401610235565b600454600354116107f15760405162461bcd60e51b815260206004820152601f60248201527f546869732064726f70206973206f7574206f662066726565206d696e74732e006044820152606401610235565b600154604051631c89733760e31b8152600481018490526000916001600160a01b03169063e44b99b89060240160206040518083038186803b15801561083657600080fd5b505afa15801561084a573d6000803e3d6000fd5b505050506040513d601f19601f8201168201806040525081019061086e9190610d57565b905061087a8183610a6a565b6108d95760405162461bcd60e51b815260206004820152602a60248201527f4e6f7420616c6c6f77656420746f206d696e74207769746820746869732065786044820152691c195c9a595b98d9525960b21b6064820152608401610235565b60018054604051633ca0aef760e11b81526001600160a01b03909116916379415dee9161090e91600591889190600401610e95565b600060405180830381600087803b15801561092857600080fd5b505af115801561093c573d6000803e3d6000fd5b505050506001600460008282546109539190610f80565b90915550506002546001600160a01b03166340c10f19336040516001600160e01b031960e084901b1681526001600160a01b03909116600482015260248101859052604401600060405180830381600087803b1580156109b257600080fd5b505af11580156109c6573d6000803e3d6000fd5b50505050505050565b6000546001600160a01b031633146109f95760405162461bcd60e51b815260040161023590610f4b565b6001600160a01b038116610a5e5760405162461bcd60e51b815260206004820152602660248201527f4f776e61626c653a206e6577206f776e657220697320746865207a65726f206160448201526564647265737360d01b6064820152608401610235565b610a6781610b63565b50565b600080610a796103e884610ff5565b905060006103e8610a8a8186610fa6565b610a949190610ff5565b905060006103e8610aa8620f424087610fa6565b610ab29190610ff5565b90506004831180610ac35750600582115b80610ace5750600581115b80610ad95750600183105b80610ae45750600182105b80610aef5750600181105b15610b005760009350505050610b5d565b8560011415610b40576003831180610b185750600382115b80610b235750600381115b15610b345760009350505050610b5d565b60019350505050610b5d565b8560021415610b555760019350505050610b5d565b600093505050505b92915050565b600080546001600160a01b038381166001600160a01b0319831681178455604051919092169283917f8be0079c531659141344cd1fd0a4f28419497f9722a3daafe3b4186f6b6457e09190a35050565b828054610bbf90610fba565b90600052602060002090601f016020900481019282610be15760008555610c27565b82601f10610bfa57805160ff1916838001178555610c27565b82800160010185558215610c27579182015b82811115610c27578251825591602001919060010190610c0c565b50610c33929150610c37565b5090565b5b80821115610c335760008155600101610c38565b600082601f830112610c5d57600080fd5b813567ffffffffffffffff80821115610c7857610c7861101f565b604051601f8301601f19908116603f01168101908282118183101715610ca057610ca061101f565b81604052838152866020858801011115610cb957600080fd5b836020870160208301376000602085830101528094505050505092915050565b600060208284031215610ceb57600080fd5b8135610cf681611035565b9392505050565b600060208284031215610d0f57600080fd5b8151610cf681611035565b600060208284031215610d2c57600080fd5b813567ffffffffffffffff811115610d4357600080fd5b610d4f84828501610c4c565b949350505050565b600060208284031215610d6957600080fd5b5051919050565b60008060408385031215610d8357600080fd5b50508035926020909101359150565b600080600060608486031215610da757600080fd5b8335925060208401359150604084013567ffffffffffffffff811115610dcc57600080fd5b610dd886828701610c4c565b9150509250925092565b600060208284031215610df457600080fd5b813560ff81168114610cf657600080fd5b6000815180845260005b81811015610e2b57602081850181015186830182015201610e0f565b81811115610e3d576000602083870101525b50601f01601f19169290920160200192915050565b60018060a01b0384168152826020820152606060408201526000610e796060830184610e05565b95945050505050565b602081526000610cf66020830184610e05565b60608152600080855481600182811c915080831680610eb557607f831692505b6020808410821415610ed557634e487b7160e01b86526022600452602486fd5b6060880184905260808801828015610ef45760018114610f0557610f30565b60ff19871682528282019750610f30565b60008d81526020902060005b87811015610f2a57815484820152908601908401610f11565b83019850505b5050870189905250505060ff85166040850152509050610d4f565b6020808252818101527f4f776e61626c653a2063616c6c6572206973206e6f7420746865206f776e6572604082015260600190565b60008219821115610fa157634e487b7160e01b600052601160045260246000fd5b500190565b600082610fb557610fb5611009565b500490565b600181811c90821680610fce57607f821691505b60208210811415610fef57634e487b7160e01b600052602260045260246000fd5b50919050565b60008261100457611004611009565b500690565b634e487b7160e01b600052601260045260246000fd5b634e487b7160e01b600052604160045260246000fd5b6001600160a01b0381168114610a6757600080fdfea26469706673582212206459c905be846d6efbb273c360de8b7a7983967a2c59293c03cd59db1fa38bcc64736f6c63430008070033",
  "linkReferences": {},
  "deployedLinkReferences": {}
}